{
	"lesson/lesson05/MyToken.sol": {
		"MyToken": {
			"abi": [
				{
					"inputs": [
						{
							"internalType": "string",
							"name": "_name",
							"type": "string"
						},
						{
							"internalType": "string",
							"name": "_symbol",
							"type": "string"
						},
						{
							"internalType": "uint8",
							"name": "_decimals",
							"type": "uint8"
						},
						{
							"internalType": "uint256",
							"name": "_initialSupply",
							"type": "uint256"
						}
					],
					"stateMutability": "nonpayable",
					"type": "constructor"
				},
				{
					"anonymous": false,
					"inputs": [
						{
							"indexed": true,
							"internalType": "address",
							"name": "owner",
							"type": "address"
						},
						{
							"indexed": true,
							"internalType": "address",
							"name": "spender",
							"type": "address"
						},
						{
							"indexed": false,
							"internalType": "uint256",
							"name": "value",
							"type": "uint256"
						}
					],
					"name": "Approval",
					"type": "event"
				},
				{
					"anonymous": false,
					"inputs": [
						{
							"indexed": true,
							"internalType": "address",
							"name": "from",
							"type": "address"
						},
						{
							"indexed": true,
							"internalType": "address",
							"name": "to",
							"type": "address"
						},
						{
							"indexed": false,
							"internalType": "uint256",
							"name": "value",
							"type": "uint256"
						}
					],
					"name": "Transfer",
					"type": "event"
				},
				{
					"inputs": [
						{
							"internalType": "address",
							"name": "",
							"type": "address"
						},
						{
							"internalType": "address",
							"name": "",
							"type": "address"
						}
					],
					"name": "allowance",
					"outputs": [
						{
							"internalType": "uint256",
							"name": "",
							"type": "uint256"
						}
					],
					"stateMutability": "view",
					"type": "function"
				},
				{
					"inputs": [
						{
							"internalType": "address",
							"name": "spender",
							"type": "address"
						},
						{
							"internalType": "uint256",
							"name": "amount",
							"type": "uint256"
						}
					],
					"name": "approve",
					"outputs": [
						{
							"internalType": "bool",
							"name": "",
							"type": "bool"
						}
					],
					"stateMutability": "nonpayable",
					"type": "function"
				},
				{
					"inputs": [
						{
							"internalType": "address",
							"name": "",
							"type": "address"
						}
					],
					"name": "balanceOf",
					"outputs": [
						{
							"internalType": "uint256",
							"name": "",
							"type": "uint256"
						}
					],
					"stateMutability": "view",
					"type": "function"
				},
				{
					"inputs": [
						{
							"internalType": "uint256",
							"name": "amount",
							"type": "uint256"
						}
					],
					"name": "burn",
					"outputs": [],
					"stateMutability": "nonpayable",
					"type": "function"
				},
				{
					"inputs": [],
					"name": "decimals",
					"outputs": [
						{
							"internalType": "uint8",
							"name": "",
							"type": "uint8"
						}
					],
					"stateMutability": "view",
					"type": "function"
				},
				{
					"inputs": [
						{
							"internalType": "address",
							"name": "to",
							"type": "address"
						},
						{
							"internalType": "uint256",
							"name": "amount",
							"type": "uint256"
						}
					],
					"name": "mint",
					"outputs": [],
					"stateMutability": "nonpayable",
					"type": "function"
				},
				{
					"inputs": [],
					"name": "name",
					"outputs": [
						{
							"internalType": "string",
							"name": "",
							"type": "string"
						}
					],
					"stateMutability": "view",
					"type": "function"
				},
				{
					"inputs": [],
					"name": "owner",
					"outputs": [
						{
							"internalType": "address",
							"name": "",
							"type": "address"
						}
					],
					"stateMutability": "view",
					"type": "function"
				},
				{
					"inputs": [],
					"name": "symbol",
					"outputs": [
						{
							"internalType": "string",
							"name": "",
							"type": "string"
						}
					],
					"stateMutability": "view",
					"type": "function"
				},
				{
					"inputs": [],
					"name": "totalSupply",
					"outputs": [
						{
							"internalType": "uint256",
							"name": "",
							"type": "uint256"
						}
					],
					"stateMutability": "view",
					"type": "function"
				},
				{
					"inputs": [
						{
							"internalType": "address",
							"name": "to",
							"type": "address"
						},
						{
							"internalType": "uint256",
							"name": "amount",
							"type": "uint256"
						}
					],
					"name": "transfer",
					"outputs": [
						{
							"internalType": "bool",
							"name": "",
							"type": "bool"
						}
					],
					"stateMutability": "nonpayable",
					"type": "function"
				},
				{
					"inputs": [
						{
							"internalType": "address",
							"name": "from",
							"type": "address"
						},
						{
							"internalType": "address",
							"name": "to",
							"type": "address"
						},
						{
							"internalType": "uint256",
							"name": "amount",
							"type": "uint256"
						}
					],
					"name": "transferFrom",
					"outputs": [
						{
							"internalType": "bool",
							"name": "",
							"type": "bool"
						}
					],
					"stateMutability": "nonpayable",
					"type": "function"
				}
			],
			"devdoc": {
				"kind": "dev",
				"methods": {},
				"version": 1
			},
			"evm": {
				"assembly": "    /* \"lesson/lesson05/MyToken.sol\":61:3866  contract MyToken {... */\n  mstore(0x40, 0x80)\n    /* \"lesson/lesson05/MyToken.sol\":838:1413  constructor(... */\n  callvalue\n  dup1\n  iszero\n  tag_1\n  jumpi\n  revert(0x00, 0x00)\ntag_1:\n  pop\n  mload(0x40)\n  sub(codesize, bytecodeSize)\n  dup1\n  bytecodeSize\n  dup4\n  codecopy\n  dup2\n  dup2\n  add\n  0x40\n  mstore\n  dup2\n  add\n  swap1\n  tag_2\n  swap2\n  swap1\n  tag_3\n  jump\t// in\ntag_2:\n    /* \"lesson/lesson05/MyToken.sol\":995:1000  _name */\n  dup4\n    /* \"lesson/lesson05/MyToken.sol\":988:992  name */\n  0x00\n    /* \"lesson/lesson05/MyToken.sol\":988:1000  name = _name */\n  swap1\n  dup2\n  tag_6\n  swap2\n  swap1\n  tag_7\n  jump\t// in\ntag_6:\n  pop\n    /* \"lesson/lesson05/MyToken.sol\":1020:1027  _symbol */\n  dup3\n    /* \"lesson/lesson05/MyToken.sol\":1011:1017  symbol */\n  0x01\n    /* \"lesson/lesson05/MyToken.sol\":1011:1027  symbol = _symbol */\n  swap1\n  dup2\n  tag_8\n  swap2\n  swap1\n  tag_7\n  jump\t// in\ntag_8:\n  pop\n    /* \"lesson/lesson05/MyToken.sol\":1049:1058  _decimals */\n  dup2\n    /* \"lesson/lesson05/MyToken.sol\":1038:1046  decimals */\n  0x02\n  0x00\n    /* \"lesson/lesson05/MyToken.sol\":1038:1058  decimals = _decimals */\n  0x0100\n  exp\n  dup2\n  sload\n  dup2\n  0xff\n  mul\n  not\n  and\n  swap1\n  dup4\n  0xff\n  and\n  mul\n  or\n  swap1\n  sstore\n  pop\n    /* \"lesson/lesson05/MyToken.sol\":1135:1144  _decimals */\n  dup2\n    /* \"lesson/lesson05/MyToken.sol\":1131:1133  10 */\n  0x0a\n    /* \"lesson/lesson05/MyToken.sol\":1131:1144  10**_decimals */\n  tag_9\n  swap2\n  swap1\n  tag_10\n  jump\t// in\ntag_9:\n    /* \"lesson/lesson05/MyToken.sol\":1114:1128  _initialSupply */\n  dup2\n    /* \"lesson/lesson05/MyToken.sol\":1114:1144  _initialSupply * 10**_decimals */\n  tag_11\n  swap2\n  swap1\n  tag_12\n  jump\t// in\ntag_11:\n    /* \"lesson/lesson05/MyToken.sol\":1100:1111  totalSupply */\n  0x03\n    /* \"lesson/lesson05/MyToken.sol\":1100:1144  totalSupply = _initialSupply * 10**_decimals */\n  dup2\n  swap1\n  sstore\n  pop\n    /* \"lesson/lesson05/MyToken.sol\":1193:1203  msg.sender */\n  caller\n    /* \"lesson/lesson05/MyToken.sol\":1185:1190  owner */\n  0x06\n  0x00\n    /* \"lesson/lesson05/MyToken.sol\":1185:1203  owner = msg.sender */\n  0x0100\n  exp\n  dup2\n  sload\n  dup2\n  0xffffffffffffffffffffffffffffffffffffffff\n  mul\n  not\n  and\n  swap1\n  dup4\n  0xffffffffffffffffffffffffffffffffffffffff\n  and\n  mul\n  or\n  swap1\n  sstore\n  pop\n    /* \"lesson/lesson05/MyToken.sol\":1278:1289  totalSupply */\n  sload(0x03)\n    /* \"lesson/lesson05/MyToken.sol\":1254:1263  balanceOf */\n  0x04\n    /* \"lesson/lesson05/MyToken.sol\":1254:1275  balanceOf[msg.sender] */\n  0x00\n    /* \"lesson/lesson05/MyToken.sol\":1264:1274  msg.sender */\n  caller\n    /* \"lesson/lesson05/MyToken.sol\":1254:1275  balanceOf[msg.sender] */\n  0xffffffffffffffffffffffffffffffffffffffff\n  and\n  0xffffffffffffffffffffffffffffffffffffffff\n  and\n  dup2\n  mstore\n  0x20\n  add\n  swap1\n  dup2\n  mstore\n  0x20\n  add\n  0x00\n  keccak256\n    /* \"lesson/lesson05/MyToken.sol\":1254:1289  balanceOf[msg.sender] = totalSupply */\n  dup2\n  swap1\n  sstore\n  pop\n    /* \"lesson/lesson05/MyToken.sol\":1381:1391  msg.sender */\n  caller\n    /* \"lesson/lesson05/MyToken.sol\":1360:1405  Transfer(address(0), msg.sender, totalSupply) */\n  0xffffffffffffffffffffffffffffffffffffffff\n  and\n    /* \"lesson/lesson05/MyToken.sol\":1377:1378  0 */\n  0x00\n    /* \"lesson/lesson05/MyToken.sol\":1360:1405  Transfer(address(0), msg.sender, totalSupply) */\n  0xffffffffffffffffffffffffffffffffffffffff\n  and\n  0xddf252ad1be2c89b69c2b068fc378daa952ba7f163c4a11628f55a4df523b3ef\n    /* \"lesson/lesson05/MyToken.sol\":1393:1404  totalSupply */\n  sload(0x03)\n    /* \"lesson/lesson05/MyToken.sol\":1360:1405  Transfer(address(0), msg.sender, totalSupply) */\n  mload(0x40)\n  tag_13\n  swap2\n  swap1\n  tag_14\n  jump\t// in\ntag_13:\n  mload(0x40)\n  dup1\n  swap2\n  sub\n  swap1\n  log3\n    /* \"lesson/lesson05/MyToken.sol\":838:1413  constructor(... */\n  pop\n  pop\n  pop\n  pop\n    /* \"lesson/lesson05/MyToken.sol\":61:3866  contract MyToken {... */\n  jump(tag_15)\n    /* \"#utility.yul\":7:82   */\ntag_16:\n    /* \"#utility.yul\":40:46   */\n  0x00\n    /* \"#utility.yul\":73:75   */\n  0x40\n    /* \"#utility.yul\":67:76   */\n  mload\n    /* \"#utility.yul\":57:76   */\n  swap1\n  pop\n    /* \"#utility.yul\":7:82   */\n  swap1\n  jump\t// out\n    /* \"#utility.yul\":88:205   */\ntag_17:\n    /* \"#utility.yul\":197:198   */\n  0x00\n    /* \"#utility.yul\":194:195   */\n  0x00\n    /* \"#utility.yul\":187:199   */\n  revert\n    /* \"#utility.yul\":211:328   */\ntag_18:\n    /* \"#utility.yul\":320:321   */\n  0x00\n    /* \"#utility.yul\":317:318   */\n  0x00\n    /* \"#utility.yul\":310:322   */\n  revert\n    /* \"#utility.yul\":334:451   */\ntag_19:\n    /* \"#utility.yul\":443:444   */\n  0x00\n    /* \"#utility.yul\":440:441   */\n  0x00\n    /* \"#utility.yul\":433:445   */\n  revert\n    /* \"#utility.yul\":457:574   */\ntag_20:\n    /* \"#utility.yul\":566:567   */\n  0x00\n    /* \"#utility.yul\":563:564   */\n  0x00\n    /* \"#utility.yul\":556:568   */\n  revert\n    /* \"#utility.yul\":580:682   */\ntag_21:\n    /* \"#utility.yul\":621:627   */\n  0x00\n    /* \"#utility.yul\":672:674   */\n  0x1f\n    /* \"#utility.yul\":668:675   */\n  not\n    /* \"#utility.yul\":663:665   */\n  0x1f\n    /* \"#utility.yul\":656:661   */\n  dup4\n    /* \"#utility.yul\":652:666   */\n  add\n    /* \"#utility.yul\":648:676   */\n  and\n    /* \"#utility.yul\":638:676   */\n  swap1\n  pop\n    /* \"#utility.yul\":580:682   */\n  swap2\n  swap1\n  pop\n  jump\t// out\n    /* \"#utility.yul\":688:868   */\ntag_22:\n    /* \"#utility.yul\":736:813   */\n  0x4e487b7100000000000000000000000000000000000000000000000000000000\n    /* \"#utility.yul\":733:734   */\n  0x00\n    /* \"#utility.yul\":726:814   */\n  mstore\n    /* \"#utility.yul\":833:837   */\n  0x41\n    /* \"#utility.yul\":830:831   */\n  0x04\n    /* \"#utility.yul\":823:838   */\n  mstore\n    /* \"#utility.yul\":857:861   */\n  0x24\n    /* \"#utility.yul\":854:855   */\n  0x00\n    /* \"#utility.yul\":847:862   */\n  revert\n    /* \"#utility.yul\":874:1155   */\ntag_23:\n    /* \"#utility.yul\":957:984   */\n  tag_67\n    /* \"#utility.yul\":979:983   */\n  dup3\n    /* \"#utility.yul\":957:984   */\n  tag_21\n  jump\t// in\ntag_67:\n    /* \"#utility.yul\":949:955   */\n  dup2\n    /* \"#utility.yul\":945:985   */\n  add\n    /* \"#utility.yul\":1087:1093   */\n  dup2\n    /* \"#utility.yul\":1075:1085   */\n  dup2\n    /* \"#utility.yul\":1072:1094   */\n  lt\n    /* \"#utility.yul\":1051:1069   */\n  0xffffffffffffffff\n    /* \"#utility.yul\":1039:1049   */\n  dup3\n    /* \"#utility.yul\":1036:1070   */\n  gt\n    /* \"#utility.yul\":1033:1095   */\n  or\n    /* \"#utility.yul\":1030:1118   */\n  iszero\n  tag_68\n  jumpi\n    /* \"#utility.yul\":1098:1116   */\n  tag_69\n  tag_22\n  jump\t// in\ntag_69:\n    /* \"#utility.yul\":1030:1118   */\ntag_68:\n    /* \"#utility.yul\":1138:1148   */\n  dup1\n    /* \"#utility.yul\":1134:1136   */\n  0x40\n    /* \"#utility.yul\":1127:1149   */\n  mstore\n    /* \"#utility.yul\":917:1155   */\n  pop\n    /* \"#utility.yul\":874:1155   */\n  pop\n  pop\n  jump\t// out\n    /* \"#utility.yul\":1161:1290   */\ntag_24:\n    /* \"#utility.yul\":1195:1201   */\n  0x00\n    /* \"#utility.yul\":1222:1242   */\n  tag_71\n  tag_16\n  jump\t// in\ntag_71:\n    /* \"#utility.yul\":1212:1242   */\n  swap1\n  pop\n    /* \"#utility.yul\":1251:1284   */\n  tag_72\n    /* \"#utility.yul\":1279:1283   */\n  dup3\n    /* \"#utility.yul\":1271:1277   */\n  dup3\n    /* \"#utility.yul\":1251:1284   */\n  tag_23\n  jump\t// in\ntag_72:\n    /* \"#utility.yul\":1161:1290   */\n  swap2\n  swap1\n  pop\n  jump\t// out\n    /* \"#utility.yul\":1296:1604   */\ntag_25:\n    /* \"#utility.yul\":1358:1362   */\n  0x00\n    /* \"#utility.yul\":1448:1466   */\n  0xffffffffffffffff\n    /* \"#utility.yul\":1440:1446   */\n  dup3\n    /* \"#utility.yul\":1437:1467   */\n  gt\n    /* \"#utility.yul\":1434:1490   */\n  iszero\n  tag_74\n  jumpi\n    /* \"#utility.yul\":1470:1488   */\n  tag_75\n  tag_22\n  jump\t// in\ntag_75:\n    /* \"#utility.yul\":1434:1490   */\ntag_74:\n    /* \"#utility.yul\":1508:1537   */\n  tag_76\n    /* \"#utility.yul\":1530:1536   */\n  dup3\n    /* \"#utility.yul\":1508:1537   */\n  tag_21\n  jump\t// in\ntag_76:\n    /* \"#utility.yul\":1500:1537   */\n  swap1\n  pop\n    /* \"#utility.yul\":1592:1596   */\n  0x20\n    /* \"#utility.yul\":1586:1590   */\n  dup2\n    /* \"#utility.yul\":1582:1597   */\n  add\n    /* \"#utility.yul\":1574:1597   */\n  swap1\n  pop\n    /* \"#utility.yul\":1296:1604   */\n  swap2\n  swap1\n  pop\n  jump\t// out\n    /* \"#utility.yul\":1610:1749   */\ntag_26:\n    /* \"#utility.yul\":1699:1705   */\n  dup3\n    /* \"#utility.yul\":1694:1697   */\n  dup2\n    /* \"#utility.yul\":1689:1692   */\n  dup4\n    /* \"#utility.yul\":1683:1706   */\n  mcopy\n    /* \"#utility.yul\":1740:1741   */\n  0x00\n    /* \"#utility.yul\":1731:1737   */\n  dup4\n    /* \"#utility.yul\":1726:1729   */\n  dup4\n    /* \"#utility.yul\":1722:1738   */\n  add\n    /* \"#utility.yul\":1715:1742   */\n  mstore\n    /* \"#utility.yul\":1610:1749   */\n  pop\n  pop\n  pop\n  jump\t// out\n    /* \"#utility.yul\":1755:2189   */\ntag_27:\n    /* \"#utility.yul\":1844:1849   */\n  0x00\n    /* \"#utility.yul\":1869:1935   */\n  tag_79\n    /* \"#utility.yul\":1885:1934   */\n  tag_80\n    /* \"#utility.yul\":1927:1933   */\n  dup5\n    /* \"#utility.yul\":1885:1934   */\n  tag_25\n  jump\t// in\ntag_80:\n    /* \"#utility.yul\":1869:1935   */\n  tag_24\n  jump\t// in\ntag_79:\n    /* \"#utility.yul\":1860:1935   */\n  swap1\n  pop\n    /* \"#utility.yul\":1958:1964   */\n  dup3\n    /* \"#utility.yul\":1951:1956   */\n  dup2\n    /* \"#utility.yul\":1944:1965   */\n  mstore\n    /* \"#utility.yul\":1996:2000   */\n  0x20\n    /* \"#utility.yul\":1989:1994   */\n  dup2\n    /* \"#utility.yul\":1985:2001   */\n  add\n    /* \"#utility.yul\":2034:2037   */\n  dup5\n    /* \"#utility.yul\":2025:2031   */\n  dup5\n    /* \"#utility.yul\":2020:2023   */\n  dup5\n    /* \"#utility.yul\":2016:2032   */\n  add\n    /* \"#utility.yul\":2013:2038   */\n  gt\n    /* \"#utility.yul\":2010:2122   */\n  iszero\n  tag_81\n  jumpi\n    /* \"#utility.yul\":2041:2120   */\n  tag_82\n  tag_20\n  jump\t// in\ntag_82:\n    /* \"#utility.yul\":2010:2122   */\ntag_81:\n    /* \"#utility.yul\":2131:2183   */\n  tag_83\n    /* \"#utility.yul\":2176:2182   */\n  dup5\n    /* \"#utility.yul\":2171:2174   */\n  dup3\n    /* \"#utility.yul\":2166:2169   */\n  dup6\n    /* \"#utility.yul\":2131:2183   */\n  tag_26\n  jump\t// in\ntag_83:\n    /* \"#utility.yul\":1850:2189   */\n  pop\n    /* \"#utility.yul\":1755:2189   */\n  swap4\n  swap3\n  pop\n  pop\n  pop\n  jump\t// out\n    /* \"#utility.yul\":2209:2564   */\ntag_28:\n    /* \"#utility.yul\":2276:2281   */\n  0x00\n    /* \"#utility.yul\":2325:2328   */\n  dup3\n    /* \"#utility.yul\":2318:2322   */\n  0x1f\n    /* \"#utility.yul\":2310:2316   */\n  dup4\n    /* \"#utility.yul\":2306:2323   */\n  add\n    /* \"#utility.yul\":2302:2329   */\n  slt\n    /* \"#utility.yul\":2292:2414   */\n  tag_85\n  jumpi\n    /* \"#utility.yul\":2333:2412   */\n  tag_86\n  tag_19\n  jump\t// in\ntag_86:\n    /* \"#utility.yul\":2292:2414   */\ntag_85:\n    /* \"#utility.yul\":2443:2449   */\n  dup2\n    /* \"#utility.yul\":2437:2450   */\n  mload\n    /* \"#utility.yul\":2468:2558   */\n  tag_87\n    /* \"#utility.yul\":2554:2557   */\n  dup5\n    /* \"#utility.yul\":2546:2552   */\n  dup3\n    /* \"#utility.yul\":2539:2543   */\n  0x20\n    /* \"#utility.yul\":2531:2537   */\n  dup7\n    /* \"#utility.yul\":2527:2544   */\n  add\n    /* \"#utility.yul\":2468:2558   */\n  tag_27\n  jump\t// in\ntag_87:\n    /* \"#utility.yul\":2459:2558   */\n  swap2\n  pop\n    /* \"#utility.yul\":2282:2564   */\n  pop\n    /* \"#utility.yul\":2209:2564   */\n  swap3\n  swap2\n  pop\n  pop\n  jump\t// out\n    /* \"#utility.yul\":2570:2656   */\ntag_29:\n    /* \"#utility.yul\":2605:2612   */\n  0x00\n    /* \"#utility.yul\":2645:2649   */\n  0xff\n    /* \"#utility.yul\":2638:2643   */\n  dup3\n    /* \"#utility.yul\":2634:2650   */\n  and\n    /* \"#utility.yul\":2623:2650   */\n  swap1\n  pop\n    /* \"#utility.yul\":2570:2656   */\n  swap2\n  swap1\n  pop\n  jump\t// out\n    /* \"#utility.yul\":2662:2780   */\ntag_30:\n    /* \"#utility.yul\":2733:2755   */\n  tag_90\n    /* \"#utility.yul\":2749:2754   */\n  dup2\n    /* \"#utility.yul\":2733:2755   */\n  tag_29\n  jump\t// in\ntag_90:\n    /* \"#utility.yul\":2726:2731   */\n  dup2\n    /* \"#utility.yul\":2723:2756   */\n  eq\n    /* \"#utility.yul\":2713:2774   */\n  tag_91\n  jumpi\n    /* \"#utility.yul\":2770:2771   */\n  0x00\n    /* \"#utility.yul\":2767:2768   */\n  0x00\n    /* \"#utility.yul\":2760:2772   */\n  revert\n    /* \"#utility.yul\":2713:2774   */\ntag_91:\n    /* \"#utility.yul\":2662:2780   */\n  pop\n  jump\t// out\n    /* \"#utility.yul\":2786:2925   */\ntag_31:\n    /* \"#utility.yul\":2841:2846   */\n  0x00\n    /* \"#utility.yul\":2872:2878   */\n  dup2\n    /* \"#utility.yul\":2866:2879   */\n  mload\n    /* \"#utility.yul\":2857:2879   */\n  swap1\n  pop\n    /* \"#utility.yul\":2888:2919   */\n  tag_93\n    /* \"#utility.yul\":2913:2918   */\n  dup2\n    /* \"#utility.yul\":2888:2919   */\n  tag_30\n  jump\t// in\ntag_93:\n    /* \"#utility.yul\":2786:2925   */\n  swap3\n  swap2\n  pop\n  pop\n  jump\t// out\n    /* \"#utility.yul\":2931:3008   */\ntag_32:\n    /* \"#utility.yul\":2968:2975   */\n  0x00\n    /* \"#utility.yul\":2997:3002   */\n  dup2\n    /* \"#utility.yul\":2986:3002   */\n  swap1\n  pop\n    /* \"#utility.yul\":2931:3008   */\n  swap2\n  swap1\n  pop\n  jump\t// out\n    /* \"#utility.yul\":3014:3136   */\ntag_33:\n    /* \"#utility.yul\":3087:3111   */\n  tag_96\n    /* \"#utility.yul\":3105:3110   */\n  dup2\n    /* \"#utility.yul\":3087:3111   */\n  tag_32\n  jump\t// in\ntag_96:\n    /* \"#utility.yul\":3080:3085   */\n  dup2\n    /* \"#utility.yul\":3077:3112   */\n  eq\n    /* \"#utility.yul\":3067:3130   */\n  tag_97\n  jumpi\n    /* \"#utility.yul\":3126:3127   */\n  0x00\n    /* \"#utility.yul\":3123:3124   */\n  0x00\n    /* \"#utility.yul\":3116:3128   */\n  revert\n    /* \"#utility.yul\":3067:3130   */\ntag_97:\n    /* \"#utility.yul\":3014:3136   */\n  pop\n  jump\t// out\n    /* \"#utility.yul\":3142:3285   */\ntag_34:\n    /* \"#utility.yul\":3199:3204   */\n  0x00\n    /* \"#utility.yul\":3230:3236   */\n  dup2\n    /* \"#utility.yul\":3224:3237   */\n  mload\n    /* \"#utility.yul\":3215:3237   */\n  swap1\n  pop\n    /* \"#utility.yul\":3246:3279   */\n  tag_99\n    /* \"#utility.yul\":3273:3278   */\n  dup2\n    /* \"#utility.yul\":3246:3279   */\n  tag_33\n  jump\t// in\ntag_99:\n    /* \"#utility.yul\":3142:3285   */\n  swap3\n  swap2\n  pop\n  pop\n  jump\t// out\n    /* \"#utility.yul\":3291:4453   */\ntag_3:\n    /* \"#utility.yul\":3406:3412   */\n  0x00\n    /* \"#utility.yul\":3414:3420   */\n  0x00\n    /* \"#utility.yul\":3422:3428   */\n  0x00\n    /* \"#utility.yul\":3430:3436   */\n  0x00\n    /* \"#utility.yul\":3479:3482   */\n  0x80\n    /* \"#utility.yul\":3467:3476   */\n  dup6\n    /* \"#utility.yul\":3458:3465   */\n  dup8\n    /* \"#utility.yul\":3454:3477   */\n  sub\n    /* \"#utility.yul\":3450:3483   */\n  slt\n    /* \"#utility.yul\":3447:3567   */\n  iszero\n  tag_101\n  jumpi\n    /* \"#utility.yul\":3486:3565   */\n  tag_102\n  tag_17\n  jump\t// in\ntag_102:\n    /* \"#utility.yul\":3447:3567   */\ntag_101:\n    /* \"#utility.yul\":3627:3628   */\n  0x00\n    /* \"#utility.yul\":3616:3625   */\n  dup6\n    /* \"#utility.yul\":3612:3629   */\n  add\n    /* \"#utility.yul\":3606:3630   */\n  mload\n    /* \"#utility.yul\":3657:3675   */\n  0xffffffffffffffff\n    /* \"#utility.yul\":3649:3655   */\n  dup2\n    /* \"#utility.yul\":3646:3676   */\n  gt\n    /* \"#utility.yul\":3643:3760   */\n  iszero\n  tag_103\n  jumpi\n    /* \"#utility.yul\":3679:3758   */\n  tag_104\n  tag_18\n  jump\t// in\ntag_104:\n    /* \"#utility.yul\":3643:3760   */\ntag_103:\n    /* \"#utility.yul\":3784:3858   */\n  tag_105\n    /* \"#utility.yul\":3850:3857   */\n  dup8\n    /* \"#utility.yul\":3841:3847   */\n  dup3\n    /* \"#utility.yul\":3830:3839   */\n  dup9\n    /* \"#utility.yul\":3826:3848   */\n  add\n    /* \"#utility.yul\":3784:3858   */\n  tag_28\n  jump\t// in\ntag_105:\n    /* \"#utility.yul\":3774:3858   */\n  swap5\n  pop\n    /* \"#utility.yul\":3577:3868   */\n  pop\n    /* \"#utility.yul\":3928:3930   */\n  0x20\n    /* \"#utility.yul\":3917:3926   */\n  dup6\n    /* \"#utility.yul\":3913:3931   */\n  add\n    /* \"#utility.yul\":3907:3932   */\n  mload\n    /* \"#utility.yul\":3959:3977   */\n  0xffffffffffffffff\n    /* \"#utility.yul\":3951:3957   */\n  dup2\n    /* \"#utility.yul\":3948:3978   */\n  gt\n    /* \"#utility.yul\":3945:4062   */\n  iszero\n  tag_106\n  jumpi\n    /* \"#utility.yul\":3981:4060   */\n  tag_107\n  tag_18\n  jump\t// in\ntag_107:\n    /* \"#utility.yul\":3945:4062   */\ntag_106:\n    /* \"#utility.yul\":4086:4160   */\n  tag_108\n    /* \"#utility.yul\":4152:4159   */\n  dup8\n    /* \"#utility.yul\":4143:4149   */\n  dup3\n    /* \"#utility.yul\":4132:4141   */\n  dup9\n    /* \"#utility.yul\":4128:4150   */\n  add\n    /* \"#utility.yul\":4086:4160   */\n  tag_28\n  jump\t// in\ntag_108:\n    /* \"#utility.yul\":4076:4160   */\n  swap4\n  pop\n    /* \"#utility.yul\":3878:4170   */\n  pop\n    /* \"#utility.yul\":4209:4211   */\n  0x40\n    /* \"#utility.yul\":4235:4297   */\n  tag_109\n    /* \"#utility.yul\":4289:4296   */\n  dup8\n    /* \"#utility.yul\":4280:4286   */\n  dup3\n    /* \"#utility.yul\":4269:4278   */\n  dup9\n    /* \"#utility.yul\":4265:4287   */\n  add\n    /* \"#utility.yul\":4235:4297   */\n  tag_31\n  jump\t// in\ntag_109:\n    /* \"#utility.yul\":4225:4297   */\n  swap3\n  pop\n    /* \"#utility.yul\":4180:4307   */\n  pop\n    /* \"#utility.yul\":4346:4348   */\n  0x60\n    /* \"#utility.yul\":4372:4436   */\n  tag_110\n    /* \"#utility.yul\":4428:4435   */\n  dup8\n    /* \"#utility.yul\":4419:4425   */\n  dup3\n    /* \"#utility.yul\":4408:4417   */\n  dup9\n    /* \"#utility.yul\":4404:4426   */\n  add\n    /* \"#utility.yul\":4372:4436   */\n  tag_34\n  jump\t// in\ntag_110:\n    /* \"#utility.yul\":4362:4436   */\n  swap2\n  pop\n    /* \"#utility.yul\":4317:4446   */\n  pop\n    /* \"#utility.yul\":3291:4453   */\n  swap3\n  swap6\n  swap2\n  swap5\n  pop\n  swap3\n  pop\n  jump\t// out\n    /* \"#utility.yul\":4459:4558   */\ntag_35:\n    /* \"#utility.yul\":4511:4517   */\n  0x00\n    /* \"#utility.yul\":4545:4550   */\n  dup2\n    /* \"#utility.yul\":4539:4551   */\n  mload\n    /* \"#utility.yul\":4529:4551   */\n  swap1\n  pop\n    /* \"#utility.yul\":4459:4558   */\n  swap2\n  swap1\n  pop\n  jump\t// out\n    /* \"#utility.yul\":4564:4744   */\ntag_36:\n    /* \"#utility.yul\":4612:4689   */\n  0x4e487b7100000000000000000000000000000000000000000000000000000000\n    /* \"#utility.yul\":4609:4610   */\n  0x00\n    /* \"#utility.yul\":4602:4690   */\n  mstore\n    /* \"#utility.yul\":4709:4713   */\n  0x22\n    /* \"#utility.yul\":4706:4707   */\n  0x04\n    /* \"#utility.yul\":4699:4714   */\n  mstore\n    /* \"#utility.yul\":4733:4737   */\n  0x24\n    /* \"#utility.yul\":4730:4731   */\n  0x00\n    /* \"#utility.yul\":4723:4738   */\n  revert\n    /* \"#utility.yul\":4750:5070   */\ntag_37:\n    /* \"#utility.yul\":4794:4800   */\n  0x00\n    /* \"#utility.yul\":4831:4832   */\n  0x02\n    /* \"#utility.yul\":4825:4829   */\n  dup3\n    /* \"#utility.yul\":4821:4833   */\n  div\n    /* \"#utility.yul\":4811:4833   */\n  swap1\n  pop\n    /* \"#utility.yul\":4878:4879   */\n  0x01\n    /* \"#utility.yul\":4872:4876   */\n  dup3\n    /* \"#utility.yul\":4868:4880   */\n  and\n    /* \"#utility.yul\":4899:4917   */\n  dup1\n    /* \"#utility.yul\":4889:4970   */\n  tag_114\n  jumpi\n    /* \"#utility.yul\":4955:4959   */\n  0x7f\n    /* \"#utility.yul\":4947:4953   */\n  dup3\n    /* \"#utility.yul\":4943:4960   */\n  and\n    /* \"#utility.yul\":4933:4960   */\n  swap2\n  pop\n    /* \"#utility.yul\":4889:4970   */\ntag_114:\n    /* \"#utility.yul\":5017:5019   */\n  0x20\n    /* \"#utility.yul\":5009:5015   */\n  dup3\n    /* \"#utility.yul\":5006:5020   */\n  lt\n    /* \"#utility.yul\":4986:5004   */\n  dup2\n    /* \"#utility.yul\":4983:5021   */\n  sub\n    /* \"#utility.yul\":4980:5064   */\n  tag_115\n  jumpi\n    /* \"#utility.yul\":5036:5054   */\n  tag_116\n  tag_36\n  jump\t// in\ntag_116:\n    /* \"#utility.yul\":4980:5064   */\ntag_115:\n    /* \"#utility.yul\":4801:5070   */\n  pop\n    /* \"#utility.yul\":4750:5070   */\n  swap2\n  swap1\n  pop\n  jump\t// out\n    /* \"#utility.yul\":5076:5217   */\ntag_38:\n    /* \"#utility.yul\":5125:5129   */\n  0x00\n    /* \"#utility.yul\":5148:5151   */\n  dup2\n    /* \"#utility.yul\":5140:5151   */\n  swap1\n  pop\n    /* \"#utility.yul\":5171:5174   */\n  dup2\n    /* \"#utility.yul\":5168:5169   */\n  0x00\n    /* \"#utility.yul\":5161:5175   */\n  mstore\n    /* \"#utility.yul\":5205:5209   */\n  0x20\n    /* \"#utility.yul\":5202:5203   */\n  0x00\n    /* \"#utility.yul\":5192:5210   */\n  keccak256\n    /* \"#utility.yul\":5184:5210   */\n  swap1\n  pop\n    /* \"#utility.yul\":5076:5217   */\n  swap2\n  swap1\n  pop\n  jump\t// out\n    /* \"#utility.yul\":5223:5316   */\ntag_39:\n    /* \"#utility.yul\":5260:5266   */\n  0x00\n    /* \"#utility.yul\":5307:5309   */\n  0x20\n    /* \"#utility.yul\":5302:5304   */\n  0x1f\n    /* \"#utility.yul\":5295:5300   */\n  dup4\n    /* \"#utility.yul\":5291:5305   */\n  add\n    /* \"#utility.yul\":5287:5310   */\n  div\n    /* \"#utility.yul\":5277:5310   */\n  swap1\n  pop\n    /* \"#utility.yul\":5223:5316   */\n  swap2\n  swap1\n  pop\n  jump\t// out\n    /* \"#utility.yul\":5322:5429   */\ntag_40:\n    /* \"#utility.yul\":5366:5374   */\n  0x00\n    /* \"#utility.yul\":5416:5421   */\n  dup3\n    /* \"#utility.yul\":5410:5414   */\n  dup3\n    /* \"#utility.yul\":5406:5422   */\n  shl\n    /* \"#utility.yul\":5385:5422   */\n  swap1\n  pop\n    /* \"#utility.yul\":5322:5429   */\n  swap3\n  swap2\n  pop\n  pop\n  jump\t// out\n    /* \"#utility.yul\":5435:5828   */\ntag_41:\n    /* \"#utility.yul\":5504:5510   */\n  0x00\n    /* \"#utility.yul\":5554:5555   */\n  0x08\n    /* \"#utility.yul\":5542:5552   */\n  dup4\n    /* \"#utility.yul\":5538:5556   */\n  mul\n    /* \"#utility.yul\":5577:5674   */\n  tag_121\n    /* \"#utility.yul\":5607:5673   */\n  0xffffffffffffffffffffffffffffffffffffffffffffffffffffffffffffffff\n    /* \"#utility.yul\":5596:5605   */\n  dup3\n    /* \"#utility.yul\":5577:5674   */\n  tag_40\n  jump\t// in\ntag_121:\n    /* \"#utility.yul\":5695:5734   */\n  tag_122\n    /* \"#utility.yul\":5725:5733   */\n  dup7\n    /* \"#utility.yul\":5714:5723   */\n  dup4\n    /* \"#utility.yul\":5695:5734   */\n  tag_40\n  jump\t// in\ntag_122:\n    /* \"#utility.yul\":5683:5734   */\n  swap6\n  pop\n    /* \"#utility.yul\":5767:5771   */\n  dup1\n    /* \"#utility.yul\":5763:5772   */\n  not\n    /* \"#utility.yul\":5756:5761   */\n  dup5\n    /* \"#utility.yul\":5752:5773   */\n  and\n    /* \"#utility.yul\":5743:5773   */\n  swap4\n  pop\n    /* \"#utility.yul\":5816:5820   */\n  dup1\n    /* \"#utility.yul\":5806:5814   */\n  dup7\n    /* \"#utility.yul\":5802:5821   */\n  and\n    /* \"#utility.yul\":5795:5800   */\n  dup5\n    /* \"#utility.yul\":5792:5822   */\n  or\n    /* \"#utility.yul\":5782:5822   */\n  swap3\n  pop\n    /* \"#utility.yul\":5511:5828   */\n  pop\n  pop\n    /* \"#utility.yul\":5435:5828   */\n  swap4\n  swap3\n  pop\n  pop\n  pop\n  jump\t// out\n    /* \"#utility.yul\":5834:5894   */\ntag_42:\n    /* \"#utility.yul\":5862:5865   */\n  0x00\n    /* \"#utility.yul\":5883:5888   */\n  dup2\n    /* \"#utility.yul\":5876:5888   */\n  swap1\n  pop\n    /* \"#utility.yul\":5834:5894   */\n  swap2\n  swap1\n  pop\n  jump\t// out\n    /* \"#utility.yul\":5900:6042   */\ntag_43:\n    /* \"#utility.yul\":5950:5959   */\n  0x00\n    /* \"#utility.yul\":5983:6036   */\n  tag_125\n    /* \"#utility.yul\":6001:6035   */\n  tag_126\n    /* \"#utility.yul\":6010:6034   */\n  tag_127\n    /* \"#utility.yul\":6028:6033   */\n  dup5\n    /* \"#utility.yul\":6010:6034   */\n  tag_32\n  jump\t// in\ntag_127:\n    /* \"#utility.yul\":6001:6035   */\n  tag_42\n  jump\t// in\ntag_126:\n    /* \"#utility.yul\":5983:6036   */\n  tag_32\n  jump\t// in\ntag_125:\n    /* \"#utility.yul\":5970:6036   */\n  swap1\n  pop\n    /* \"#utility.yul\":5900:6042   */\n  swap2\n  swap1\n  pop\n  jump\t// out\n    /* \"#utility.yul\":6048:6123   */\ntag_44:\n    /* \"#utility.yul\":6091:6094   */\n  0x00\n    /* \"#utility.yul\":6112:6117   */\n  dup2\n    /* \"#utility.yul\":6105:6117   */\n  swap1\n  pop\n    /* \"#utility.yul\":6048:6123   */\n  swap2\n  swap1\n  pop\n  jump\t// out\n    /* \"#utility.yul\":6129:6398   */\ntag_45:\n    /* \"#utility.yul\":6239:6278   */\n  tag_130\n    /* \"#utility.yul\":6270:6277   */\n  dup4\n    /* \"#utility.yul\":6239:6278   */\n  tag_43\n  jump\t// in\ntag_130:\n    /* \"#utility.yul\":6300:6391   */\n  tag_131\n    /* \"#utility.yul\":6349:6390   */\n  tag_132\n    /* \"#utility.yul\":6373:6389   */\n  dup3\n    /* \"#utility.yul\":6349:6390   */\n  tag_44\n  jump\t// in\ntag_132:\n    /* \"#utility.yul\":6341:6347   */\n  dup5\n    /* \"#utility.yul\":6334:6338   */\n  dup5\n    /* \"#utility.yul\":6328:6339   */\n  sload\n    /* \"#utility.yul\":6300:6391   */\n  tag_41\n  jump\t// in\ntag_131:\n    /* \"#utility.yul\":6294:6298   */\n  dup3\n    /* \"#utility.yul\":6287:6392   */\n  sstore\n    /* \"#utility.yul\":6205:6398   */\n  pop\n    /* \"#utility.yul\":6129:6398   */\n  pop\n  pop\n  pop\n  jump\t// out\n    /* \"#utility.yul\":6404:6477   */\ntag_46:\n    /* \"#utility.yul\":6449:6452   */\n  0x00\n    /* \"#utility.yul\":6470:6471   */\n  0x00\n    /* \"#utility.yul\":6463:6471   */\n  swap1\n  pop\n    /* \"#utility.yul\":6404:6477   */\n  swap1\n  jump\t// out\n    /* \"#utility.yul\":6483:6672   */\ntag_47:\n    /* \"#utility.yul\":6560:6592   */\n  tag_135\n  tag_46\n  jump\t// in\ntag_135:\n    /* \"#utility.yul\":6601:6666   */\n  tag_136\n    /* \"#utility.yul\":6659:6665   */\n  dup2\n    /* \"#utility.yul\":6651:6657   */\n  dup5\n    /* \"#utility.yul\":6645:6649   */\n  dup5\n    /* \"#utility.yul\":6601:6666   */\n  tag_45\n  jump\t// in\ntag_136:\n    /* \"#utility.yul\":6536:6672   */\n  pop\n    /* \"#utility.yul\":6483:6672   */\n  pop\n  pop\n  jump\t// out\n    /* \"#utility.yul\":6678:6864   */\ntag_48:\n    /* \"#utility.yul\":6738:6858   */\ntag_138:\n    /* \"#utility.yul\":6755:6758   */\n  dup2\n    /* \"#utility.yul\":6748:6753   */\n  dup2\n    /* \"#utility.yul\":6745:6759   */\n  lt\n    /* \"#utility.yul\":6738:6858   */\n  iszero\n  tag_140\n  jumpi\n    /* \"#utility.yul\":6809:6848   */\n  tag_141\n    /* \"#utility.yul\":6846:6847   */\n  0x00\n    /* \"#utility.yul\":6839:6844   */\n  dup3\n    /* \"#utility.yul\":6809:6848   */\n  tag_47\n  jump\t// in\ntag_141:\n    /* \"#utility.yul\":6782:6783   */\n  0x01\n    /* \"#utility.yul\":6775:6780   */\n  dup2\n    /* \"#utility.yul\":6771:6784   */\n  add\n    /* \"#utility.yul\":6762:6784   */\n  swap1\n  pop\n    /* \"#utility.yul\":6738:6858   */\n  jump(tag_138)\ntag_140:\n    /* \"#utility.yul\":6678:6864   */\n  pop\n  pop\n  jump\t// out\n    /* \"#utility.yul\":6870:7413   */\ntag_49:\n    /* \"#utility.yul\":6971:6973   */\n  0x1f\n    /* \"#utility.yul\":6966:6969   */\n  dup3\n    /* \"#utility.yul\":6963:6974   */\n  gt\n    /* \"#utility.yul\":6960:7406   */\n  iszero\n  tag_143\n  jumpi\n    /* \"#utility.yul\":7005:7043   */\n  tag_144\n    /* \"#utility.yul\":7037:7042   */\n  dup2\n    /* \"#utility.yul\":7005:7043   */\n  tag_38\n  jump\t// in\ntag_144:\n    /* \"#utility.yul\":7089:7118   */\n  tag_145\n    /* \"#utility.yul\":7107:7117   */\n  dup5\n    /* \"#utility.yul\":7089:7118   */\n  tag_39\n  jump\t// in\ntag_145:\n    /* \"#utility.yul\":7079:7087   */\n  dup2\n    /* \"#utility.yul\":7075:7119   */\n  add\n    /* \"#utility.yul\":7272:7274   */\n  0x20\n    /* \"#utility.yul\":7260:7270   */\n  dup6\n    /* \"#utility.yul\":7257:7275   */\n  lt\n    /* \"#utility.yul\":7254:7303   */\n  iszero\n  tag_146\n  jumpi\n    /* \"#utility.yul\":7293:7301   */\n  dup2\n    /* \"#utility.yul\":7278:7301   */\n  swap1\n  pop\n    /* \"#utility.yul\":7254:7303   */\ntag_146:\n    /* \"#utility.yul\":7316:7396   */\n  tag_147\n    /* \"#utility.yul\":7372:7394   */\n  tag_148\n    /* \"#utility.yul\":7390:7393   */\n  dup6\n    /* \"#utility.yul\":7372:7394   */\n  tag_39\n  jump\t// in\ntag_148:\n    /* \"#utility.yul\":7362:7370   */\n  dup4\n    /* \"#utility.yul\":7358:7395   */\n  add\n    /* \"#utility.yul\":7345:7356   */\n  dup3\n    /* \"#utility.yul\":7316:7396   */\n  tag_48\n  jump\t// in\ntag_147:\n    /* \"#utility.yul\":6975:7406   */\n  pop\n  pop\n    /* \"#utility.yul\":6960:7406   */\ntag_143:\n    /* \"#utility.yul\":6870:7413   */\n  pop\n  pop\n  pop\n  jump\t// out\n    /* \"#utility.yul\":7419:7536   */\ntag_50:\n    /* \"#utility.yul\":7473:7481   */\n  0x00\n    /* \"#utility.yul\":7523:7528   */\n  dup3\n    /* \"#utility.yul\":7517:7521   */\n  dup3\n    /* \"#utility.yul\":7513:7529   */\n  shr\n    /* \"#utility.yul\":7492:7529   */\n  swap1\n  pop\n    /* \"#utility.yul\":7419:7536   */\n  swap3\n  swap2\n  pop\n  pop\n  jump\t// out\n    /* \"#utility.yul\":7542:7711   */\ntag_51:\n    /* \"#utility.yul\":7586:7592   */\n  0x00\n    /* \"#utility.yul\":7619:7670   */\n  tag_151\n    /* \"#utility.yul\":7667:7668   */\n  0x00\n    /* \"#utility.yul\":7663:7669   */\n  not\n    /* \"#utility.yul\":7655:7660   */\n  dup5\n    /* \"#utility.yul\":7652:7653   */\n  0x08\n    /* \"#utility.yul\":7648:7661   */\n  mul\n    /* \"#utility.yul\":7619:7670   */\n  tag_50\n  jump\t// in\ntag_151:\n    /* \"#utility.yul\":7615:7671   */\n  not\n    /* \"#utility.yul\":7700:7704   */\n  dup1\n    /* \"#utility.yul\":7694:7698   */\n  dup4\n    /* \"#utility.yul\":7690:7705   */\n  and\n    /* \"#utility.yul\":7680:7705   */\n  swap2\n  pop\n    /* \"#utility.yul\":7593:7711   */\n  pop\n    /* \"#utility.yul\":7542:7711   */\n  swap3\n  swap2\n  pop\n  pop\n  jump\t// out\n    /* \"#utility.yul\":7716:8011   */\ntag_52:\n    /* \"#utility.yul\":7792:7796   */\n  0x00\n    /* \"#utility.yul\":7938:7967   */\n  tag_153\n    /* \"#utility.yul\":7963:7966   */\n  dup4\n    /* \"#utility.yul\":7957:7961   */\n  dup4\n    /* \"#utility.yul\":7938:7967   */\n  tag_51\n  jump\t// in\ntag_153:\n    /* \"#utility.yul\":7930:7967   */\n  swap2\n  pop\n    /* \"#utility.yul\":8000:8003   */\n  dup3\n    /* \"#utility.yul\":7997:7998   */\n  0x02\n    /* \"#utility.yul\":7993:8004   */\n  mul\n    /* \"#utility.yul\":7987:7991   */\n  dup3\n    /* \"#utility.yul\":7984:8005   */\n  or\n    /* \"#utility.yul\":7976:8005   */\n  swap1\n  pop\n    /* \"#utility.yul\":7716:8011   */\n  swap3\n  swap2\n  pop\n  pop\n  jump\t// out\n    /* \"#utility.yul\":8016:9411   */\ntag_7:\n    /* \"#utility.yul\":8133:8170   */\n  tag_155\n    /* \"#utility.yul\":8166:8169   */\n  dup3\n    /* \"#utility.yul\":8133:8170   */\n  tag_35\n  jump\t// in\ntag_155:\n    /* \"#utility.yul\":8235:8253   */\n  0xffffffffffffffff\n    /* \"#utility.yul\":8227:8233   */\n  dup2\n    /* \"#utility.yul\":8224:8254   */\n  gt\n    /* \"#utility.yul\":8221:8277   */\n  iszero\n  tag_156\n  jumpi\n    /* \"#utility.yul\":8257:8275   */\n  tag_157\n  tag_22\n  jump\t// in\ntag_157:\n    /* \"#utility.yul\":8221:8277   */\ntag_156:\n    /* \"#utility.yul\":8301:8339   */\n  tag_158\n    /* \"#utility.yul\":8333:8337   */\n  dup3\n    /* \"#utility.yul\":8327:8338   */\n  sload\n    /* \"#utility.yul\":8301:8339   */\n  tag_37\n  jump\t// in\ntag_158:\n    /* \"#utility.yul\":8386:8453   */\n  tag_159\n    /* \"#utility.yul\":8446:8452   */\n  dup3\n    /* \"#utility.yul\":8438:8444   */\n  dup3\n    /* \"#utility.yul\":8432:8436   */\n  dup6\n    /* \"#utility.yul\":8386:8453   */\n  tag_49\n  jump\t// in\ntag_159:\n    /* \"#utility.yul\":8480:8481   */\n  0x00\n    /* \"#utility.yul\":8504:8508   */\n  0x20\n    /* \"#utility.yul\":8491:8508   */\n  swap1\n  pop\n    /* \"#utility.yul\":8536:8538   */\n  0x1f\n    /* \"#utility.yul\":8528:8534   */\n  dup4\n    /* \"#utility.yul\":8525:8539   */\n  gt\n    /* \"#utility.yul\":8553:8554   */\n  0x01\n    /* \"#utility.yul\":8548:9166   */\n  dup2\n  eq\n  tag_161\n  jumpi\n    /* \"#utility.yul\":9210:9211   */\n  0x00\n    /* \"#utility.yul\":9227:9233   */\n  dup5\n    /* \"#utility.yul\":9224:9301   */\n  iszero\n  tag_162\n  jumpi\n    /* \"#utility.yul\":9276:9285   */\n  dup3\n    /* \"#utility.yul\":9271:9274   */\n  dup8\n    /* \"#utility.yul\":9267:9286   */\n  add\n    /* \"#utility.yul\":9261:9287   */\n  mload\n    /* \"#utility.yul\":9252:9287   */\n  swap1\n  pop\n    /* \"#utility.yul\":9224:9301   */\ntag_162:\n    /* \"#utility.yul\":9327:9394   */\n  tag_163\n    /* \"#utility.yul\":9387:9393   */\n  dup6\n    /* \"#utility.yul\":9380:9385   */\n  dup3\n    /* \"#utility.yul\":9327:9394   */\n  tag_52\n  jump\t// in\ntag_163:\n    /* \"#utility.yul\":9321:9325   */\n  dup7\n    /* \"#utility.yul\":9314:9395   */\n  sstore\n    /* \"#utility.yul\":9183:9405   */\n  pop\n    /* \"#utility.yul\":8518:9405   */\n  jump(tag_160)\n    /* \"#utility.yul\":8548:9166   */\ntag_161:\n    /* \"#utility.yul\":8600:8604   */\n  0x1f\n    /* \"#utility.yul\":8596:8605   */\n  not\n    /* \"#utility.yul\":8588:8594   */\n  dup5\n    /* \"#utility.yul\":8584:8606   */\n  and\n    /* \"#utility.yul\":8634:8671   */\n  tag_164\n    /* \"#utility.yul\":8666:8670   */\n  dup7\n    /* \"#utility.yul\":8634:8671   */\n  tag_38\n  jump\t// in\ntag_164:\n    /* \"#utility.yul\":8693:8694   */\n  0x00\n    /* \"#utility.yul\":8707:8915   */\ntag_165:\n    /* \"#utility.yul\":8721:8728   */\n  dup3\n    /* \"#utility.yul\":8718:8719   */\n  dup2\n    /* \"#utility.yul\":8715:8729   */\n  lt\n    /* \"#utility.yul\":8707:8915   */\n  iszero\n  tag_167\n  jumpi\n    /* \"#utility.yul\":8800:8809   */\n  dup5\n    /* \"#utility.yul\":8795:8798   */\n  dup10\n    /* \"#utility.yul\":8791:8810   */\n  add\n    /* \"#utility.yul\":8785:8811   */\n  mload\n    /* \"#utility.yul\":8777:8783   */\n  dup3\n    /* \"#utility.yul\":8770:8812   */\n  sstore\n    /* \"#utility.yul\":8851:8852   */\n  0x01\n    /* \"#utility.yul\":8843:8849   */\n  dup3\n    /* \"#utility.yul\":8839:8853   */\n  add\n    /* \"#utility.yul\":8829:8853   */\n  swap2\n  pop\n    /* \"#utility.yul\":8898:8900   */\n  0x20\n    /* \"#utility.yul\":8887:8896   */\n  dup6\n    /* \"#utility.yul\":8883:8901   */\n  add\n    /* \"#utility.yul\":8870:8901   */\n  swap5\n  pop\n    /* \"#utility.yul\":8744:8748   */\n  0x20\n    /* \"#utility.yul\":8741:8742   */\n  dup2\n    /* \"#utility.yul\":8737:8749   */\n  add\n    /* \"#utility.yul\":8732:8749   */\n  swap1\n  pop\n    /* \"#utility.yul\":8707:8915   */\n  jump(tag_165)\ntag_167:\n    /* \"#utility.yul\":8943:8949   */\n  dup7\n    /* \"#utility.yul\":8934:8941   */\n  dup4\n    /* \"#utility.yul\":8931:8950   */\n  lt\n    /* \"#utility.yul\":8928:9107   */\n  iszero\n  tag_168\n  jumpi\n    /* \"#utility.yul\":9001:9010   */\n  dup5\n    /* \"#utility.yul\":8996:8999   */\n  dup10\n    /* \"#utility.yul\":8992:9011   */\n  add\n    /* \"#utility.yul\":8986:9012   */\n  mload\n    /* \"#utility.yul\":9044:9092   */\n  tag_169\n    /* \"#utility.yul\":9086:9090   */\n  0x1f\n    /* \"#utility.yul\":9078:9084   */\n  dup10\n    /* \"#utility.yul\":9074:9091   */\n  and\n    /* \"#utility.yul\":9063:9072   */\n  dup3\n    /* \"#utility.yul\":9044:9092   */\n  tag_51\n  jump\t// in\ntag_169:\n    /* \"#utility.yul\":9036:9042   */\n  dup4\n    /* \"#utility.yul\":9029:9093   */\n  sstore\n    /* \"#utility.yul\":8951:9107   */\n  pop\n    /* \"#utility.yul\":8928:9107   */\ntag_168:\n    /* \"#utility.yul\":9153:9154   */\n  0x01\n    /* \"#utility.yul\":9149:9150   */\n  0x02\n    /* \"#utility.yul\":9141:9147   */\n  dup9\n    /* \"#utility.yul\":9137:9151   */\n  mul\n    /* \"#utility.yul\":9133:9155   */\n  add\n    /* \"#utility.yul\":9127:9131   */\n  dup9\n    /* \"#utility.yul\":9120:9156   */\n  sstore\n    /* \"#utility.yul\":8555:9166   */\n  pop\n  pop\n  pop\n    /* \"#utility.yul\":8518:9405   */\ntag_160:\n  pop\n    /* \"#utility.yul\":8108:9411   */\n  pop\n  pop\n  pop\n    /* \"#utility.yul\":8016:9411   */\n  pop\n  pop\n  jump\t// out\n    /* \"#utility.yul\":9417:9597   */\ntag_53:\n    /* \"#utility.yul\":9465:9542   */\n  0x4e487b7100000000000000000000000000000000000000000000000000000000\n    /* \"#utility.yul\":9462:9463   */\n  0x00\n    /* \"#utility.yul\":9455:9543   */\n  mstore\n    /* \"#utility.yul\":9562:9566   */\n  0x11\n    /* \"#utility.yul\":9559:9560   */\n  0x04\n    /* \"#utility.yul\":9552:9567   */\n  mstore\n    /* \"#utility.yul\":9586:9590   */\n  0x24\n    /* \"#utility.yul\":9583:9584   */\n  0x00\n    /* \"#utility.yul\":9576:9591   */\n  revert\n    /* \"#utility.yul\":9603:9705   */\ntag_54:\n    /* \"#utility.yul\":9645:9653   */\n  0x00\n    /* \"#utility.yul\":9692:9697   */\n  dup2\n    /* \"#utility.yul\":9689:9690   */\n  0x01\n    /* \"#utility.yul\":9685:9698   */\n  shr\n    /* \"#utility.yul\":9664:9698   */\n  swap1\n  pop\n    /* \"#utility.yul\":9603:9705   */\n  swap2\n  swap1\n  pop\n  jump\t// out\n    /* \"#utility.yul\":9711:10559   */\ntag_55:\n    /* \"#utility.yul\":9772:9777   */\n  0x00\n    /* \"#utility.yul\":9779:9783   */\n  0x00\n    /* \"#utility.yul\":9803:9809   */\n  dup3\n    /* \"#utility.yul\":9794:9809   */\n  swap2\n  pop\n    /* \"#utility.yul\":9827:9832   */\n  dup4\n    /* \"#utility.yul\":9818:9832   */\n  swap1\n  pop\n    /* \"#utility.yul\":9841:10553   */\ntag_173:\n    /* \"#utility.yul\":9862:9863   */\n  0x01\n    /* \"#utility.yul\":9852:9860   */\n  dup6\n    /* \"#utility.yul\":9849:9864   */\n  gt\n    /* \"#utility.yul\":9841:10553   */\n  iszero\n  tag_175\n  jumpi\n    /* \"#utility.yul\":9957:9961   */\n  dup1\n    /* \"#utility.yul\":9952:9955   */\n  dup7\n    /* \"#utility.yul\":9948:9962   */\n  div\n    /* \"#utility.yul\":9942:9946   */\n  dup2\n    /* \"#utility.yul\":9939:9963   */\n  gt\n    /* \"#utility.yul\":9936:9986   */\n  iszero\n  tag_176\n  jumpi\n    /* \"#utility.yul\":9966:9984   */\n  tag_177\n  tag_53\n  jump\t// in\ntag_177:\n    /* \"#utility.yul\":9936:9986   */\ntag_176:\n    /* \"#utility.yul\":10016:10017   */\n  0x01\n    /* \"#utility.yul\":10006:10014   */\n  dup6\n    /* \"#utility.yul\":10002:10018   */\n  and\n    /* \"#utility.yul\":9999:10450   */\n  iszero\n  tag_178\n  jumpi\n    /* \"#utility.yul\":10431:10435   */\n  dup1\n    /* \"#utility.yul\":10424:10429   */\n  dup3\n    /* \"#utility.yul\":10420:10436   */\n  mul\n    /* \"#utility.yul\":10411:10436   */\n  swap2\n  pop\n    /* \"#utility.yul\":9999:10450   */\ntag_178:\n    /* \"#utility.yul\":10481:10485   */\n  dup1\n    /* \"#utility.yul\":10475:10479   */\n  dup2\n    /* \"#utility.yul\":10471:10486   */\n  mul\n    /* \"#utility.yul\":10463:10486   */\n  swap1\n  pop\n    /* \"#utility.yul\":10511:10543   */\n  tag_179\n    /* \"#utility.yul\":10534:10542   */\n  dup6\n    /* \"#utility.yul\":10511:10543   */\n  tag_54\n  jump\t// in\ntag_179:\n    /* \"#utility.yul\":10499:10543   */\n  swap5\n  pop\n    /* \"#utility.yul\":9841:10553   */\n  jump(tag_173)\ntag_175:\n    /* \"#utility.yul\":9711:10559   */\n  swap5\n  pop\n  swap5\n  swap3\n  pop\n  pop\n  pop\n  jump\t// out\n    /* \"#utility.yul\":10565:11638   */\ntag_56:\n    /* \"#utility.yul\":10619:10624   */\n  0x00\n    /* \"#utility.yul\":10810:10818   */\n  dup3\n    /* \"#utility.yul\":10800:10840   */\n  tag_181\n  jumpi\n    /* \"#utility.yul\":10831:10832   */\n  0x01\n    /* \"#utility.yul\":10822:10832   */\n  swap1\n  pop\n    /* \"#utility.yul\":10833:10838   */\n  jump(tag_180)\n    /* \"#utility.yul\":10800:10840   */\ntag_181:\n    /* \"#utility.yul\":10859:10863   */\n  dup2\n    /* \"#utility.yul\":10849:10885   */\n  tag_182\n  jumpi\n    /* \"#utility.yul\":10876:10877   */\n  0x00\n    /* \"#utility.yul\":10867:10877   */\n  swap1\n  pop\n    /* \"#utility.yul\":10878:10883   */\n  jump(tag_180)\n    /* \"#utility.yul\":10849:10885   */\ntag_182:\n    /* \"#utility.yul\":10945:10949   */\n  dup2\n    /* \"#utility.yul\":10993:10994   */\n  0x01\n    /* \"#utility.yul\":10988:11015   */\n  dup2\n  eq\n  tag_184\n  jumpi\n    /* \"#utility.yul\":11029:11030   */\n  0x02\n    /* \"#utility.yul\":11024:11215   */\n  dup2\n  eq\n  tag_185\n  jumpi\n    /* \"#utility.yul\":10938:11215   */\n  jump(tag_183)\n    /* \"#utility.yul\":10988:11015   */\ntag_184:\n    /* \"#utility.yul\":11006:11007   */\n  0x01\n    /* \"#utility.yul\":10997:11007   */\n  swap2\n  pop\n    /* \"#utility.yul\":11008:11013   */\n  pop\n  jump(tag_180)\n    /* \"#utility.yul\":11024:11215   */\ntag_185:\n    /* \"#utility.yul\":11069:11072   */\n  0xff\n    /* \"#utility.yul\":11059:11067   */\n  dup5\n    /* \"#utility.yul\":11056:11073   */\n  gt\n    /* \"#utility.yul\":11053:11096   */\n  iszero\n  tag_186\n  jumpi\n    /* \"#utility.yul\":11076:11094   */\n  tag_187\n  tag_53\n  jump\t// in\ntag_187:\n    /* \"#utility.yul\":11053:11096   */\ntag_186:\n    /* \"#utility.yul\":11125:11133   */\n  dup4\n    /* \"#utility.yul\":11122:11123   */\n  0x02\n    /* \"#utility.yul\":11118:11134   */\n  exp\n    /* \"#utility.yul\":11109:11134   */\n  swap2\n  pop\n    /* \"#utility.yul\":11160:11163   */\n  dup5\n    /* \"#utility.yul\":11153:11158   */\n  dup3\n    /* \"#utility.yul\":11150:11164   */\n  gt\n    /* \"#utility.yul\":11147:11187   */\n  iszero\n  tag_188\n  jumpi\n    /* \"#utility.yul\":11167:11185   */\n  tag_189\n  tag_53\n  jump\t// in\ntag_189:\n    /* \"#utility.yul\":11147:11187   */\ntag_188:\n    /* \"#utility.yul\":11200:11205   */\n  pop\n  jump(tag_180)\n    /* \"#utility.yul\":10938:11215   */\ntag_183:\n  pop\n    /* \"#utility.yul\":11324:11326   */\n  0x20\n    /* \"#utility.yul\":11314:11322   */\n  dup4\n    /* \"#utility.yul\":11311:11327   */\n  lt\n    /* \"#utility.yul\":11305:11308   */\n  0x0133\n    /* \"#utility.yul\":11299:11303   */\n  dup4\n    /* \"#utility.yul\":11296:11309   */\n  lt\n    /* \"#utility.yul\":11292:11328   */\n  and\n    /* \"#utility.yul\":11274:11276   */\n  0x4e\n    /* \"#utility.yul\":11264:11272   */\n  dup5\n    /* \"#utility.yul\":11261:11277   */\n  lt\n    /* \"#utility.yul\":11256:11258   */\n  0x0b\n    /* \"#utility.yul\":11250:11254   */\n  dup5\n    /* \"#utility.yul\":11247:11259   */\n  lt\n    /* \"#utility.yul\":11243:11278   */\n  and\n    /* \"#utility.yul\":11227:11338   */\n  or\n    /* \"#utility.yul\":11224:11470   */\n  iszero\n  tag_190\n  jumpi\n    /* \"#utility.yul\":11380:11388   */\n  dup3\n    /* \"#utility.yul\":11374:11378   */\n  dup3\n    /* \"#utility.yul\":11370:11389   */\n  exp\n    /* \"#utility.yul\":11361:11389   */\n  swap1\n  pop\n    /* \"#utility.yul\":11415:11418   */\n  dup4\n    /* \"#utility.yul\":11408:11413   */\n  dup2\n    /* \"#utility.yul\":11405:11419   */\n  gt\n    /* \"#utility.yul\":11402:11442   */\n  iszero\n  tag_191\n  jumpi\n    /* \"#utility.yul\":11422:11440   */\n  tag_192\n  tag_53\n  jump\t// in\ntag_192:\n    /* \"#utility.yul\":11402:11442   */\ntag_191:\n    /* \"#utility.yul\":11455:11460   */\n  jump(tag_180)\n    /* \"#utility.yul\":11224:11470   */\ntag_190:\n    /* \"#utility.yul\":11495:11537   */\n  tag_193\n    /* \"#utility.yul\":11533:11536   */\n  dup5\n    /* \"#utility.yul\":11523:11531   */\n  dup5\n    /* \"#utility.yul\":11517:11521   */\n  dup5\n    /* \"#utility.yul\":11514:11515   */\n  0x01\n    /* \"#utility.yul\":11495:11537   */\n  tag_55\n  jump\t// in\ntag_193:\n    /* \"#utility.yul\":11480:11537   */\n  swap3\n  pop\n  swap1\n  pop\n    /* \"#utility.yul\":11569:11573   */\n  dup2\n    /* \"#utility.yul\":11564:11567   */\n  dup5\n    /* \"#utility.yul\":11560:11574   */\n  div\n    /* \"#utility.yul\":11553:11558   */\n  dup2\n    /* \"#utility.yul\":11550:11575   */\n  gt\n    /* \"#utility.yul\":11547:11598   */\n  iszero\n  tag_194\n  jumpi\n    /* \"#utility.yul\":11578:11596   */\n  tag_195\n  tag_53\n  jump\t// in\ntag_195:\n    /* \"#utility.yul\":11547:11598   */\ntag_194:\n    /* \"#utility.yul\":11627:11631   */\n  dup2\n    /* \"#utility.yul\":11620:11625   */\n  dup2\n    /* \"#utility.yul\":11616:11632   */\n  mul\n    /* \"#utility.yul\":11607:11632   */\n  swap1\n  pop\n    /* \"#utility.yul\":10565:11638   */\ntag_180:\n  swap4\n  swap3\n  pop\n  pop\n  pop\n  jump\t// out\n    /* \"#utility.yul\":11644:11925   */\ntag_10:\n    /* \"#utility.yul\":11702:11707   */\n  0x00\n    /* \"#utility.yul\":11726:11749   */\n  tag_197\n    /* \"#utility.yul\":11744:11748   */\n  dup3\n    /* \"#utility.yul\":11726:11749   */\n  tag_32\n  jump\t// in\ntag_197:\n    /* \"#utility.yul\":11718:11749   */\n  swap2\n  pop\n    /* \"#utility.yul\":11770:11795   */\n  tag_198\n    /* \"#utility.yul\":11786:11794   */\n  dup4\n    /* \"#utility.yul\":11770:11795   */\n  tag_29\n  jump\t// in\ntag_198:\n    /* \"#utility.yul\":11758:11795   */\n  swap3\n  pop\n    /* \"#utility.yul\":11814:11918   */\n  tag_199\n    /* \"#utility.yul\":11851:11917   */\n  0xffffffffffffffffffffffffffffffffffffffffffffffffffffffffffffffff\n    /* \"#utility.yul\":11841:11849   */\n  dup5\n    /* \"#utility.yul\":11835:11839   */\n  dup5\n    /* \"#utility.yul\":11814:11918   */\n  tag_56\n  jump\t// in\ntag_199:\n    /* \"#utility.yul\":11805:11918   */\n  swap1\n  pop\n    /* \"#utility.yul\":11644:11925   */\n  swap3\n  swap2\n  pop\n  pop\n  jump\t// out\n    /* \"#utility.yul\":11931:12341   */\ntag_12:\n    /* \"#utility.yul\":11971:11978   */\n  0x00\n    /* \"#utility.yul\":11994:12014   */\n  tag_201\n    /* \"#utility.yul\":12012:12013   */\n  dup3\n    /* \"#utility.yul\":11994:12014   */\n  tag_32\n  jump\t// in\ntag_201:\n    /* \"#utility.yul\":11989:12014   */\n  swap2\n  pop\n    /* \"#utility.yul\":12028:12048   */\n  tag_202\n    /* \"#utility.yul\":12046:12047   */\n  dup4\n    /* \"#utility.yul\":12028:12048   */\n  tag_32\n  jump\t// in\ntag_202:\n    /* \"#utility.yul\":12023:12048   */\n  swap3\n  pop\n    /* \"#utility.yul\":12083:12084   */\n  dup3\n    /* \"#utility.yul\":12080:12081   */\n  dup3\n    /* \"#utility.yul\":12076:12085   */\n  mul\n    /* \"#utility.yul\":12105:12135   */\n  tag_203\n    /* \"#utility.yul\":12123:12134   */\n  dup2\n    /* \"#utility.yul\":12105:12135   */\n  tag_32\n  jump\t// in\ntag_203:\n    /* \"#utility.yul\":12094:12135   */\n  swap2\n  pop\n    /* \"#utility.yul\":12284:12285   */\n  dup3\n    /* \"#utility.yul\":12275:12282   */\n  dup3\n    /* \"#utility.yul\":12271:12286   */\n  div\n    /* \"#utility.yul\":12268:12269   */\n  dup5\n    /* \"#utility.yul\":12265:12287   */\n  eq\n    /* \"#utility.yul\":12245:12246   */\n  dup4\n    /* \"#utility.yul\":12238:12247   */\n  iszero\n    /* \"#utility.yul\":12218:12301   */\n  or\n    /* \"#utility.yul\":12195:12334   */\n  tag_204\n  jumpi\n    /* \"#utility.yul\":12314:12332   */\n  tag_205\n  tag_53\n  jump\t// in\ntag_205:\n    /* \"#utility.yul\":12195:12334   */\ntag_204:\n    /* \"#utility.yul\":11979:12341   */\n  pop\n    /* \"#utility.yul\":11931:12341   */\n  swap3\n  swap2\n  pop\n  pop\n  jump\t// out\n    /* \"#utility.yul\":12347:12465   */\ntag_57:\n    /* \"#utility.yul\":12434:12458   */\n  tag_207\n    /* \"#utility.yul\":12452:12457   */\n  dup2\n    /* \"#utility.yul\":12434:12458   */\n  tag_32\n  jump\t// in\ntag_207:\n    /* \"#utility.yul\":12429:12432   */\n  dup3\n    /* \"#utility.yul\":12422:12459   */\n  mstore\n    /* \"#utility.yul\":12347:12465   */\n  pop\n  pop\n  jump\t// out\n    /* \"#utility.yul\":12471:12693   */\ntag_14:\n    /* \"#utility.yul\":12564:12568   */\n  0x00\n    /* \"#utility.yul\":12602:12604   */\n  0x20\n    /* \"#utility.yul\":12591:12600   */\n  dup3\n    /* \"#utility.yul\":12587:12605   */\n  add\n    /* \"#utility.yul\":12579:12605   */\n  swap1\n  pop\n    /* \"#utility.yul\":12615:12686   */\n  tag_209\n    /* \"#utility.yul\":12683:12684   */\n  0x00\n    /* \"#utility.yul\":12672:12681   */\n  dup4\n    /* \"#utility.yul\":12668:12685   */\n  add\n    /* \"#utility.yul\":12659:12665   */\n  dup5\n    /* \"#utility.yul\":12615:12686   */\n  tag_57\n  jump\t// in\ntag_209:\n    /* \"#utility.yul\":12471:12693   */\n  swap3\n  swap2\n  pop\n  pop\n  jump\t// out\n    /* \"lesson/lesson05/MyToken.sol\":61:3866  contract MyToken {... */\ntag_15:\n  dataSize(sub_0)\n  dup1\n  dataOffset(sub_0)\n  0x00\n  codecopy\n  0x00\n  return\nstop\n\nsub_0: assembly {\n        /* \"lesson/lesson05/MyToken.sol\":61:3866  contract MyToken {... */\n      mstore(0x40, 0x80)\n      callvalue\n      dup1\n      iszero\n      tag_1\n      jumpi\n      revert(0x00, 0x00)\n    tag_1:\n      pop\n      jumpi(tag_2, lt(calldatasize, 0x04))\n      shr(0xe0, calldataload(0x00))\n      dup1\n      0x42966c68\n      gt\n      tag_15\n      jumpi\n      dup1\n      0x42966c68\n      eq\n      tag_9\n      jumpi\n      dup1\n      0x70a08231\n      eq\n      tag_10\n      jumpi\n      dup1\n      0x8da5cb5b\n      eq\n      tag_11\n      jumpi\n      dup1\n      0x95d89b41\n      eq\n      tag_12\n      jumpi\n      dup1\n      0xa9059cbb\n      eq\n      tag_13\n      jumpi\n      dup1\n      0xdd62ed3e\n      eq\n      tag_14\n      jumpi\n      jump(tag_2)\n    tag_15:\n      dup1\n      0x06fdde03\n      eq\n      tag_3\n      jumpi\n      dup1\n      0x095ea7b3\n      eq\n      tag_4\n      jumpi\n      dup1\n      0x18160ddd\n      eq\n      tag_5\n      jumpi\n      dup1\n      0x23b872dd\n      eq\n      tag_6\n      jumpi\n      dup1\n      0x313ce567\n      eq\n      tag_7\n      jumpi\n      dup1\n      0x40c10f19\n      eq\n      tag_8\n      jumpi\n    tag_2:\n      revert(0x00, 0x00)\n        /* \"lesson/lesson05/MyToken.sol\":114:132  string public name */\n    tag_3:\n      tag_16\n      tag_17\n      jump\t// in\n    tag_16:\n      mload(0x40)\n      tag_18\n      swap2\n      swap1\n      tag_19\n      jump\t// in\n    tag_18:\n      mload(0x40)\n      dup1\n      swap2\n      sub\n      swap1\n      return\n        /* \"lesson/lesson05/MyToken.sol\":1989:2354  function approve(address spender, uint256 amount) public returns(bool) {... */\n    tag_4:\n      tag_20\n      0x04\n      dup1\n      calldatasize\n      sub\n      dup2\n      add\n      swap1\n      tag_21\n      swap2\n      swap1\n      tag_22\n      jump\t// in\n    tag_21:\n      tag_23\n      jump\t// in\n    tag_20:\n      mload(0x40)\n      tag_24\n      swap2\n      swap1\n      tag_25\n      jump\t// in\n    tag_24:\n      mload(0x40)\n      dup1\n      swap2\n      sub\n      swap1\n      return\n        /* \"lesson/lesson05/MyToken.sol\":194:220  uint256 public totalSupply */\n    tag_5:\n      tag_26\n      tag_27\n      jump\t// in\n    tag_26:\n      mload(0x40)\n      tag_28\n      swap2\n      swap1\n      tag_29\n      jump\t// in\n    tag_28:\n      mload(0x40)\n      dup1\n      swap2\n      sub\n      swap1\n      return\n        /* \"lesson/lesson05/MyToken.sol\":2392:3062  function transferFrom(address from, address to, uint256 amount)public returns(bool){... */\n    tag_6:\n      tag_30\n      0x04\n      dup1\n      calldatasize\n      sub\n      dup2\n      add\n      swap1\n      tag_31\n      swap2\n      swap1\n      tag_32\n      jump\t// in\n    tag_31:\n      tag_33\n      jump\t// in\n    tag_30:\n      mload(0x40)\n      tag_34\n      swap2\n      swap1\n      tag_25\n      jump\t// in\n    tag_34:\n      mload(0x40)\n      dup1\n      swap2\n      sub\n      swap1\n      return\n        /* \"lesson/lesson05/MyToken.sol\":166:187  uint8 public decimals */\n    tag_7:\n      tag_35\n      tag_36\n      jump\t// in\n    tag_35:\n      mload(0x40)\n      tag_37\n      swap2\n      swap1\n      tag_38\n      jump\t// in\n    tag_37:\n      mload(0x40)\n      dup1\n      swap2\n      sub\n      swap1\n      return\n        /* \"lesson/lesson05/MyToken.sol\":3094:3468  function mint(address to, uint256 amount) public onlyOwner {... */\n    tag_8:\n      tag_39\n      0x04\n      dup1\n      calldatasize\n      sub\n      dup2\n      add\n      swap1\n      tag_40\n      swap2\n      swap1\n      tag_22\n      jump\t// in\n    tag_40:\n      tag_41\n      jump\t// in\n    tag_39:\n      stop\n        /* \"lesson/lesson05/MyToken.sol\":3500:3861  function burn(uint256 amount) public {... */\n    tag_9:\n      tag_42\n      0x04\n      dup1\n      calldatasize\n      sub\n      dup2\n      add\n      swap1\n      tag_43\n      swap2\n      swap1\n      tag_44\n      jump\t// in\n    tag_43:\n      tag_45\n      jump\t// in\n    tag_42:\n      stop\n        /* \"lesson/lesson05/MyToken.sol\":252:296  mapping(address => uint256) public balanceOf */\n    tag_10:\n      tag_46\n      0x04\n      dup1\n      calldatasize\n      sub\n      dup2\n      add\n      swap1\n      tag_47\n      swap2\n      swap1\n      tag_48\n      jump\t// in\n    tag_47:\n      tag_49\n      jump\t// in\n    tag_46:\n      mload(0x40)\n      tag_50\n      swap2\n      swap1\n      tag_29\n      jump\t// in\n    tag_50:\n      mload(0x40)\n      dup1\n      swap2\n      sub\n      swap1\n      return\n        /* \"lesson/lesson05/MyToken.sol\":420:440  address public owner */\n    tag_11:\n      tag_51\n      tag_52\n      jump\t// in\n    tag_51:\n      mload(0x40)\n      tag_53\n      swap2\n      swap1\n      tag_54\n      jump\t// in\n    tag_53:\n      mload(0x40)\n      dup1\n      swap2\n      sub\n      swap1\n      return\n        /* \"lesson/lesson05/MyToken.sol\":139:159  string public symbol */\n    tag_12:\n      tag_55\n      tag_56\n      jump\t// in\n    tag_55:\n      mload(0x40)\n      tag_57\n      swap2\n      swap1\n      tag_19\n      jump\t// in\n    tag_57:\n      mload(0x40)\n      dup1\n      swap2\n      sub\n      swap1\n      return\n        /* \"lesson/lesson05/MyToken.sol\":1444:1958  function transfer(address to, uint256 amount) public returns(bool) {... */\n    tag_13:\n      tag_58\n      0x04\n      dup1\n      calldatasize\n      sub\n      dup2\n      add\n      swap1\n      tag_59\n      swap2\n      swap1\n      tag_22\n      jump\t// in\n    tag_59:\n      tag_60\n      jump\t// in\n    tag_58:\n      mload(0x40)\n      tag_61\n      swap2\n      swap1\n      tag_25\n      jump\t// in\n    tag_61:\n      mload(0x40)\n      dup1\n      swap2\n      sub\n      swap1\n      return\n        /* \"lesson/lesson05/MyToken.sol\":303:367  mapping(address => mapping(address => uint256)) public allowance */\n    tag_14:\n      tag_62\n      0x04\n      dup1\n      calldatasize\n      sub\n      dup2\n      add\n      swap1\n      tag_63\n      swap2\n      swap1\n      tag_64\n      jump\t// in\n    tag_63:\n      tag_65\n      jump\t// in\n    tag_62:\n      mload(0x40)\n      tag_66\n      swap2\n      swap1\n      tag_29\n      jump\t// in\n    tag_66:\n      mload(0x40)\n      dup1\n      swap2\n      sub\n      swap1\n      return\n        /* \"lesson/lesson05/MyToken.sol\":114:132  string public name */\n    tag_17:\n      0x00\n      dup1\n      sload\n      tag_67\n      swap1\n      tag_68\n      jump\t// in\n    tag_67:\n      dup1\n      0x1f\n      add\n      0x20\n      dup1\n      swap2\n      div\n      mul\n      0x20\n      add\n      mload(0x40)\n      swap1\n      dup2\n      add\n      0x40\n      mstore\n      dup1\n      swap3\n      swap2\n      swap1\n      dup2\n      dup2\n      mstore\n      0x20\n      add\n      dup3\n      dup1\n      sload\n      tag_69\n      swap1\n      tag_68\n      jump\t// in\n    tag_69:\n      dup1\n      iszero\n      tag_70\n      jumpi\n      dup1\n      0x1f\n      lt\n      tag_71\n      jumpi\n      0x0100\n      dup1\n      dup4\n      sload\n      div\n      mul\n      dup4\n      mstore\n      swap2\n      0x20\n      add\n      swap2\n      jump(tag_70)\n    tag_71:\n      dup3\n      add\n      swap2\n      swap1\n      0x00\n      mstore\n      keccak256(0x00, 0x20)\n      swap1\n    tag_72:\n      dup2\n      sload\n      dup2\n      mstore\n      swap1\n      0x01\n      add\n      swap1\n      0x20\n      add\n      dup1\n      dup4\n      gt\n      tag_72\n      jumpi\n      dup3\n      swap1\n      sub\n      0x1f\n      and\n      dup3\n      add\n      swap2\n    tag_70:\n      pop\n      pop\n      pop\n      pop\n      pop\n      dup2\n      jump\t// out\n        /* \"lesson/lesson05/MyToken.sol\":1989:2354  function approve(address spender, uint256 amount) public returns(bool) {... */\n    tag_23:\n        /* \"lesson/lesson05/MyToken.sol\":2054:2058  bool */\n      0x00\n        /* \"lesson/lesson05/MyToken.sol\":2125:2126  0 */\n      0x00\n        /* \"lesson/lesson05/MyToken.sol\":2106:2127  spender != address(0) */\n      0xffffffffffffffffffffffffffffffffffffffff\n      and\n        /* \"lesson/lesson05/MyToken.sol\":2106:2113  spender */\n      dup4\n        /* \"lesson/lesson05/MyToken.sol\":2106:2127  spender != address(0) */\n      0xffffffffffffffffffffffffffffffffffffffff\n      and\n      sub\n        /* \"lesson/lesson05/MyToken.sol\":2098:2159  require(spender != address(0), \"Cannot approve zero address\") */\n      tag_74\n      jumpi\n      mload(0x40)\n      0x08c379a000000000000000000000000000000000000000000000000000000000\n      dup2\n      mstore\n      0x04\n      add\n      tag_75\n      swap1\n      tag_76\n      jump\t// in\n    tag_75:\n      mload(0x40)\n      dup1\n      swap2\n      sub\n      swap1\n      revert\n    tag_74:\n        /* \"lesson/lesson05/MyToken.sol\":2236:2242  amount */\n      dup2\n        /* \"lesson/lesson05/MyToken.sol\":2203:2212  allowance */\n      0x05\n        /* \"lesson/lesson05/MyToken.sol\":2203:2224  allowance[msg.sender] */\n      0x00\n        /* \"lesson/lesson05/MyToken.sol\":2213:2223  msg.sender */\n      caller\n        /* \"lesson/lesson05/MyToken.sol\":2203:2224  allowance[msg.sender] */\n      0xffffffffffffffffffffffffffffffffffffffff\n      and\n      0xffffffffffffffffffffffffffffffffffffffff\n      and\n      dup2\n      mstore\n      0x20\n      add\n      swap1\n      dup2\n      mstore\n      0x20\n      add\n      0x00\n      keccak256\n        /* \"lesson/lesson05/MyToken.sol\":2203:2233  allowance[msg.sender][spender] */\n      0x00\n        /* \"lesson/lesson05/MyToken.sol\":2225:2232  spender */\n      dup6\n        /* \"lesson/lesson05/MyToken.sol\":2203:2233  allowance[msg.sender][spender] */\n      0xffffffffffffffffffffffffffffffffffffffff\n      and\n      0xffffffffffffffffffffffffffffffffffffffff\n      and\n      dup2\n      mstore\n      0x20\n      add\n      swap1\n      dup2\n      mstore\n      0x20\n      add\n      0x00\n      keccak256\n        /* \"lesson/lesson05/MyToken.sol\":2203:2242  allowance[msg.sender][spender] = amount */\n      dup2\n      swap1\n      sstore\n      pop\n        /* \"lesson/lesson05/MyToken.sol\":2306:2313  spender */\n      dup3\n        /* \"lesson/lesson05/MyToken.sol\":2285:2322  Approval(msg.sender, spender, amount) */\n      0xffffffffffffffffffffffffffffffffffffffff\n      and\n        /* \"lesson/lesson05/MyToken.sol\":2294:2304  msg.sender */\n      caller\n        /* \"lesson/lesson05/MyToken.sol\":2285:2322  Approval(msg.sender, spender, amount) */\n      0xffffffffffffffffffffffffffffffffffffffff\n      and\n      0x8c5be1e5ebec7d5bd14f71427d1e84f3dd0314c0f7b2291e5b200ac8c7c3b925\n        /* \"lesson/lesson05/MyToken.sol\":2315:2321  amount */\n      dup5\n        /* \"lesson/lesson05/MyToken.sol\":2285:2322  Approval(msg.sender, spender, amount) */\n      mload(0x40)\n      tag_77\n      swap2\n      swap1\n      tag_29\n      jump\t// in\n    tag_77:\n      mload(0x40)\n      dup1\n      swap2\n      sub\n      swap1\n      log3\n        /* \"lesson/lesson05/MyToken.sol\":2342:2346  true */\n      0x01\n        /* \"lesson/lesson05/MyToken.sol\":2335:2346  return true */\n      swap1\n      pop\n        /* \"lesson/lesson05/MyToken.sol\":1989:2354  function approve(address spender, uint256 amount) public returns(bool) {... */\n      swap3\n      swap2\n      pop\n      pop\n      jump\t// out\n        /* \"lesson/lesson05/MyToken.sol\":194:220  uint256 public totalSupply */\n    tag_27:\n      sload(0x03)\n      dup2\n      jump\t// out\n        /* \"lesson/lesson05/MyToken.sol\":2392:3062  function transferFrom(address from, address to, uint256 amount)public returns(bool){... */\n    tag_33:\n        /* \"lesson/lesson05/MyToken.sol\":2470:2474  bool */\n      0x00\n        /* \"lesson/lesson05/MyToken.sol\":2537:2538  0 */\n      0x00\n        /* \"lesson/lesson05/MyToken.sol\":2521:2539  from != address(0) */\n      0xffffffffffffffffffffffffffffffffffffffff\n      and\n        /* \"lesson/lesson05/MyToken.sol\":2521:2525  from */\n      dup5\n        /* \"lesson/lesson05/MyToken.sol\":2521:2539  from != address(0) */\n      0xffffffffffffffffffffffffffffffffffffffff\n      and\n      sub\n        /* \"lesson/lesson05/MyToken.sol\":2513:2561  require(from != address(0), \"From zero address\") */\n      tag_79\n      jumpi\n      mload(0x40)\n      0x08c379a000000000000000000000000000000000000000000000000000000000\n      dup2\n      mstore\n      0x04\n      add\n      tag_80\n      swap1\n      tag_81\n      jump\t// in\n    tag_80:\n      mload(0x40)\n      dup1\n      swap2\n      sub\n      swap1\n      revert\n    tag_79:\n        /* \"lesson/lesson05/MyToken.sol\":2594:2595  0 */\n      0x00\n        /* \"lesson/lesson05/MyToken.sol\":2580:2596  to != address(0) */\n      0xffffffffffffffffffffffffffffffffffffffff\n      and\n        /* \"lesson/lesson05/MyToken.sol\":2580:2582  to */\n      dup4\n        /* \"lesson/lesson05/MyToken.sol\":2580:2596  to != address(0) */\n      0xffffffffffffffffffffffffffffffffffffffff\n      and\n      sub\n        /* \"lesson/lesson05/MyToken.sol\":2572:2616  require(to != address(0), \"To zero address\") */\n      tag_82\n      jumpi\n      mload(0x40)\n      0x08c379a000000000000000000000000000000000000000000000000000000000\n      dup2\n      mstore\n      0x04\n      add\n      tag_83\n      swap1\n      tag_84\n      jump\t// in\n    tag_83:\n      mload(0x40)\n      dup1\n      swap2\n      sub\n      swap1\n      revert\n    tag_82:\n        /* \"lesson/lesson05/MyToken.sol\":2683:2689  amount */\n      dup2\n        /* \"lesson/lesson05/MyToken.sol\":2664:2673  balanceOf */\n      0x04\n        /* \"lesson/lesson05/MyToken.sol\":2664:2679  balanceOf[from] */\n      0x00\n        /* \"lesson/lesson05/MyToken.sol\":2674:2678  from */\n      dup7\n        /* \"lesson/lesson05/MyToken.sol\":2664:2679  balanceOf[from] */\n      0xffffffffffffffffffffffffffffffffffffffff\n      and\n      0xffffffffffffffffffffffffffffffffffffffff\n      and\n      dup2\n      mstore\n      0x20\n      add\n      swap1\n      dup2\n      mstore\n      0x20\n      add\n      0x00\n      keccak256\n      sload\n        /* \"lesson/lesson05/MyToken.sol\":2664:2689  balanceOf[from] >= amount */\n      lt\n      iszero\n        /* \"lesson/lesson05/MyToken.sol\":2656:2714  require(balanceOf[from] >= amount, \"Insufficient balance\") */\n      tag_85\n      jumpi\n      mload(0x40)\n      0x08c379a000000000000000000000000000000000000000000000000000000000\n      dup2\n      mstore\n      0x04\n      add\n      tag_86\n      swap1\n      tag_87\n      jump\t// in\n    tag_86:\n      mload(0x40)\n      dup1\n      swap2\n      sub\n      swap1\n      revert\n    tag_85:\n        /* \"lesson/lesson05/MyToken.sol\":2797:2803  amount */\n      dup2\n        /* \"lesson/lesson05/MyToken.sol\":2766:2775  allowance */\n      0x05\n        /* \"lesson/lesson05/MyToken.sol\":2766:2781  allowance[from] */\n      0x00\n        /* \"lesson/lesson05/MyToken.sol\":2776:2780  from */\n      dup7\n        /* \"lesson/lesson05/MyToken.sol\":2766:2781  allowance[from] */\n      0xffffffffffffffffffffffffffffffffffffffff\n      and\n      0xffffffffffffffffffffffffffffffffffffffff\n      and\n      dup2\n      mstore\n      0x20\n      add\n      swap1\n      dup2\n      mstore\n      0x20\n      add\n      0x00\n      keccak256\n        /* \"lesson/lesson05/MyToken.sol\":2766:2793  allowance[from][msg.sender] */\n      0x00\n        /* \"lesson/lesson05/MyToken.sol\":2782:2792  msg.sender */\n      caller\n        /* \"lesson/lesson05/MyToken.sol\":2766:2793  allowance[from][msg.sender] */\n      0xffffffffffffffffffffffffffffffffffffffff\n      and\n      0xffffffffffffffffffffffffffffffffffffffff\n      and\n      dup2\n      mstore\n      0x20\n      add\n      swap1\n      dup2\n      mstore\n      0x20\n      add\n      0x00\n      keccak256\n      sload\n        /* \"lesson/lesson05/MyToken.sol\":2766:2803  allowance[from][msg.sender] >= amount */\n      lt\n      iszero\n        /* \"lesson/lesson05/MyToken.sol\":2758:2804  require(allowance[from][msg.sender] >= amount) */\n      tag_88\n      jumpi\n      revert(0x00, 0x00)\n    tag_88:\n        /* \"lesson/lesson05/MyToken.sol\":2863:2869  amount */\n      dup2\n        /* \"lesson/lesson05/MyToken.sol\":2844:2853  balanceOf */\n      0x04\n        /* \"lesson/lesson05/MyToken.sol\":2844:2859  balanceOf[from] */\n      0x00\n        /* \"lesson/lesson05/MyToken.sol\":2854:2858  from */\n      dup7\n        /* \"lesson/lesson05/MyToken.sol\":2844:2859  balanceOf[from] */\n      0xffffffffffffffffffffffffffffffffffffffff\n      and\n      0xffffffffffffffffffffffffffffffffffffffff\n      and\n      dup2\n      mstore\n      0x20\n      add\n      swap1\n      dup2\n      mstore\n      0x20\n      add\n      0x00\n      keccak256\n      0x00\n        /* \"lesson/lesson05/MyToken.sol\":2844:2869  balanceOf[from] -= amount */\n      dup3\n      dup3\n      sload\n      tag_89\n      swap2\n      swap1\n      tag_90\n      jump\t// in\n    tag_89:\n      swap3\n      pop\n      pop\n      dup2\n      swap1\n      sstore\n      pop\n        /* \"lesson/lesson05/MyToken.sol\":2897:2903  amount */\n      dup2\n        /* \"lesson/lesson05/MyToken.sol\":2880:2889  balanceOf */\n      0x04\n        /* \"lesson/lesson05/MyToken.sol\":2880:2893  balanceOf[to] */\n      0x00\n        /* \"lesson/lesson05/MyToken.sol\":2890:2892  to */\n      dup6\n        /* \"lesson/lesson05/MyToken.sol\":2880:2893  balanceOf[to] */\n      0xffffffffffffffffffffffffffffffffffffffff\n      and\n      0xffffffffffffffffffffffffffffffffffffffff\n      and\n      dup2\n      mstore\n      0x20\n      add\n      swap1\n      dup2\n      mstore\n      0x20\n      add\n      0x00\n      keccak256\n      0x00\n        /* \"lesson/lesson05/MyToken.sol\":2880:2903  balanceOf[to] += amount */\n      dup3\n      dup3\n      sload\n      tag_91\n      swap2\n      swap1\n      tag_92\n      jump\t// in\n    tag_91:\n      swap3\n      pop\n      pop\n      dup2\n      swap1\n      sstore\n      pop\n        /* \"lesson/lesson05/MyToken.sol\":2980:2986  amount */\n      dup2\n        /* \"lesson/lesson05/MyToken.sol\":2949:2958  allowance */\n      0x05\n        /* \"lesson/lesson05/MyToken.sol\":2949:2964  allowance[from] */\n      0x00\n        /* \"lesson/lesson05/MyToken.sol\":2959:2963  from */\n      dup7\n        /* \"lesson/lesson05/MyToken.sol\":2949:2964  allowance[from] */\n      0xffffffffffffffffffffffffffffffffffffffff\n      and\n      0xffffffffffffffffffffffffffffffffffffffff\n      and\n      dup2\n      mstore\n      0x20\n      add\n      swap1\n      dup2\n      mstore\n      0x20\n      add\n      0x00\n      keccak256\n        /* \"lesson/lesson05/MyToken.sol\":2949:2976  allowance[from][msg.sender] */\n      0x00\n        /* \"lesson/lesson05/MyToken.sol\":2965:2975  msg.sender */\n      caller\n        /* \"lesson/lesson05/MyToken.sol\":2949:2976  allowance[from][msg.sender] */\n      0xffffffffffffffffffffffffffffffffffffffff\n      and\n      0xffffffffffffffffffffffffffffffffffffffff\n      and\n      dup2\n      mstore\n      0x20\n      add\n      swap1\n      dup2\n      mstore\n      0x20\n      add\n      0x00\n      keccak256\n      0x00\n        /* \"lesson/lesson05/MyToken.sol\":2949:2986  allowance[from][msg.sender] -= amount */\n      dup3\n      dup3\n      sload\n      tag_93\n      swap2\n      swap1\n      tag_90\n      jump\t// in\n    tag_93:\n      swap3\n      pop\n      pop\n      dup2\n      swap1\n      sstore\n      pop\n        /* \"lesson/lesson05/MyToken.sol\":3019:3021  to */\n      dup3\n        /* \"lesson/lesson05/MyToken.sol\":3004:3030  Transfer(from, to, amount) */\n      0xffffffffffffffffffffffffffffffffffffffff\n      and\n        /* \"lesson/lesson05/MyToken.sol\":3013:3017  from */\n      dup5\n        /* \"lesson/lesson05/MyToken.sol\":3004:3030  Transfer(from, to, amount) */\n      0xffffffffffffffffffffffffffffffffffffffff\n      and\n      0xddf252ad1be2c89b69c2b068fc378daa952ba7f163c4a11628f55a4df523b3ef\n        /* \"lesson/lesson05/MyToken.sol\":3023:3029  amount */\n      dup5\n        /* \"lesson/lesson05/MyToken.sol\":3004:3030  Transfer(from, to, amount) */\n      mload(0x40)\n      tag_94\n      swap2\n      swap1\n      tag_29\n      jump\t// in\n    tag_94:\n      mload(0x40)\n      dup1\n      swap2\n      sub\n      swap1\n      log3\n        /* \"lesson/lesson05/MyToken.sol\":3050:3054  true */\n      0x01\n        /* \"lesson/lesson05/MyToken.sol\":3043:3054  return true */\n      swap1\n      pop\n        /* \"lesson/lesson05/MyToken.sol\":2392:3062  function transferFrom(address from, address to, uint256 amount)public returns(bool){... */\n      swap4\n      swap3\n      pop\n      pop\n      pop\n      jump\t// out\n        /* \"lesson/lesson05/MyToken.sol\":166:187  uint8 public decimals */\n    tag_36:\n      0x02\n      0x00\n      swap1\n      sload\n      swap1\n      0x0100\n      exp\n      swap1\n      div\n      0xff\n      and\n      dup2\n      jump\t// out\n        /* \"lesson/lesson05/MyToken.sol\":3094:3468  function mint(address to, uint256 amount) public onlyOwner {... */\n    tag_41:\n        /* \"lesson/lesson05/MyToken.sol\":753:758  owner */\n      0x06\n      0x00\n      swap1\n      sload\n      swap1\n      0x0100\n      exp\n      swap1\n      div\n      0xffffffffffffffffffffffffffffffffffffffff\n      and\n        /* \"lesson/lesson05/MyToken.sol\":739:758  msg.sender == owner */\n      0xffffffffffffffffffffffffffffffffffffffff\n      and\n        /* \"lesson/lesson05/MyToken.sol\":739:749  msg.sender */\n      caller\n        /* \"lesson/lesson05/MyToken.sol\":739:758  msg.sender == owner */\n      0xffffffffffffffffffffffffffffffffffffffff\n      and\n      eq\n        /* \"lesson/lesson05/MyToken.sol\":731:787  require(msg.sender == owner, \"Only owner can call this\") */\n      tag_96\n      jumpi\n      mload(0x40)\n      0x08c379a000000000000000000000000000000000000000000000000000000000\n      dup2\n      mstore\n      0x04\n      add\n      tag_97\n      swap1\n      tag_98\n      jump\t// in\n    tag_97:\n      mload(0x40)\n      dup1\n      swap2\n      sub\n      swap1\n      revert\n    tag_96:\n        /* \"lesson/lesson05/MyToken.sol\":3213:3214  0 */\n      0x00\n        /* \"lesson/lesson05/MyToken.sol\":3199:3215  to != address(0) */\n      0xffffffffffffffffffffffffffffffffffffffff\n      and\n        /* \"lesson/lesson05/MyToken.sol\":3199:3201  to */\n      dup3\n        /* \"lesson/lesson05/MyToken.sol\":3199:3215  to != address(0) */\n      0xffffffffffffffffffffffffffffffffffffffff\n      and\n      sub\n        /* \"lesson/lesson05/MyToken.sol\":3191:3244  require(to != address(0), \"Cannot mint zero address\") */\n      tag_100\n      jumpi\n      mload(0x40)\n      0x08c379a000000000000000000000000000000000000000000000000000000000\n      dup2\n      mstore\n      0x04\n      add\n      tag_101\n      swap1\n      tag_102\n      jump\t// in\n    tag_101:\n      mload(0x40)\n      dup1\n      swap2\n      sub\n      swap1\n      revert\n    tag_100:\n        /* \"lesson/lesson05/MyToken.sol\":3299:3305  amount */\n      dup1\n        /* \"lesson/lesson05/MyToken.sol\":3284:3295  totalSupply */\n      0x03\n      0x00\n        /* \"lesson/lesson05/MyToken.sol\":3284:3305  totalSupply += amount */\n      dup3\n      dup3\n      sload\n      tag_103\n      swap2\n      swap1\n      tag_92\n      jump\t// in\n    tag_103:\n      swap3\n      pop\n      pop\n      dup2\n      swap1\n      sstore\n      pop\n        /* \"lesson/lesson05/MyToken.sol\":3371:3377  amount */\n      dup1\n        /* \"lesson/lesson05/MyToken.sol\":3354:3363  balanceOf */\n      0x04\n        /* \"lesson/lesson05/MyToken.sol\":3354:3367  balanceOf[to] */\n      0x00\n        /* \"lesson/lesson05/MyToken.sol\":3364:3366  to */\n      dup5\n        /* \"lesson/lesson05/MyToken.sol\":3354:3367  balanceOf[to] */\n      0xffffffffffffffffffffffffffffffffffffffff\n      and\n      0xffffffffffffffffffffffffffffffffffffffff\n      and\n      dup2\n      mstore\n      0x20\n      add\n      swap1\n      dup2\n      mstore\n      0x20\n      add\n      0x00\n      keccak256\n      0x00\n        /* \"lesson/lesson05/MyToken.sol\":3354:3377  balanceOf[to] += amount */\n      dup3\n      dup3\n      sload\n      tag_104\n      swap2\n      swap1\n      tag_92\n      jump\t// in\n    tag_104:\n      swap3\n      pop\n      pop\n      dup2\n      swap1\n      sstore\n      pop\n        /* \"lesson/lesson05/MyToken.sol\":3449:3451  to */\n      dup2\n        /* \"lesson/lesson05/MyToken.sol\":3428:3460  Transfer(address(0), to, amount) */\n      0xffffffffffffffffffffffffffffffffffffffff\n      and\n        /* \"lesson/lesson05/MyToken.sol\":3445:3446  0 */\n      0x00\n        /* \"lesson/lesson05/MyToken.sol\":3428:3460  Transfer(address(0), to, amount) */\n      0xffffffffffffffffffffffffffffffffffffffff\n      and\n      0xddf252ad1be2c89b69c2b068fc378daa952ba7f163c4a11628f55a4df523b3ef\n        /* \"lesson/lesson05/MyToken.sol\":3453:3459  amount */\n      dup4\n        /* \"lesson/lesson05/MyToken.sol\":3428:3460  Transfer(address(0), to, amount) */\n      mload(0x40)\n      tag_105\n      swap2\n      swap1\n      tag_29\n      jump\t// in\n    tag_105:\n      mload(0x40)\n      dup1\n      swap2\n      sub\n      swap1\n      log3\n        /* \"lesson/lesson05/MyToken.sol\":3094:3468  function mint(address to, uint256 amount) public onlyOwner {... */\n      pop\n      pop\n      jump\t// out\n        /* \"lesson/lesson05/MyToken.sol\":3500:3861  function burn(uint256 amount) public {... */\n    tag_45:\n        /* \"lesson/lesson05/MyToken.sol\":3608:3614  amount */\n      dup1\n        /* \"lesson/lesson05/MyToken.sol\":3583:3592  balanceOf */\n      0x04\n        /* \"lesson/lesson05/MyToken.sol\":3583:3604  balanceOf[msg.sender] */\n      0x00\n        /* \"lesson/lesson05/MyToken.sol\":3593:3603  msg.sender */\n      caller\n        /* \"lesson/lesson05/MyToken.sol\":3583:3604  balanceOf[msg.sender] */\n      0xffffffffffffffffffffffffffffffffffffffff\n      and\n      0xffffffffffffffffffffffffffffffffffffffff\n      and\n      dup2\n      mstore\n      0x20\n      add\n      swap1\n      dup2\n      mstore\n      0x20\n      add\n      0x00\n      keccak256\n      sload\n        /* \"lesson/lesson05/MyToken.sol\":3583:3614  balanceOf[msg.sender] >= amount */\n      lt\n      iszero\n        /* \"lesson/lesson05/MyToken.sol\":3575:3647  require(balanceOf[msg.sender] >= amount, \"Insufficient balance to burn\") */\n      tag_107\n      jumpi\n      mload(0x40)\n      0x08c379a000000000000000000000000000000000000000000000000000000000\n      dup2\n      mstore\n      0x04\n      add\n      tag_108\n      swap1\n      tag_109\n      jump\t// in\n    tag_108:\n      mload(0x40)\n      dup1\n      swap2\n      sub\n      swap1\n      revert\n    tag_107:\n        /* \"lesson/lesson05/MyToken.sol\":3703:3709  amount */\n      dup1\n        /* \"lesson/lesson05/MyToken.sol\":3688:3699  totalSupply */\n      0x03\n      0x00\n        /* \"lesson/lesson05/MyToken.sol\":3688:3709  totalSupply -= amount */\n      dup3\n      dup3\n      sload\n      tag_110\n      swap2\n      swap1\n      tag_90\n      jump\t// in\n    tag_110:\n      swap3\n      pop\n      pop\n      dup2\n      swap1\n      sstore\n      pop\n        /* \"lesson/lesson05/MyToken.sol\":3779:3785  amount */\n      dup1\n        /* \"lesson/lesson05/MyToken.sol\":3754:3763  balanceOf */\n      0x04\n        /* \"lesson/lesson05/MyToken.sol\":3754:3775  balanceOf[msg.sender] */\n      0x00\n        /* \"lesson/lesson05/MyToken.sol\":3764:3774  msg.sender */\n      caller\n        /* \"lesson/lesson05/MyToken.sol\":3754:3775  balanceOf[msg.sender] */\n      0xffffffffffffffffffffffffffffffffffffffff\n      and\n      0xffffffffffffffffffffffffffffffffffffffff\n      and\n      dup2\n      mstore\n      0x20\n      add\n      swap1\n      dup2\n      mstore\n      0x20\n      add\n      0x00\n      keccak256\n      0x00\n        /* \"lesson/lesson05/MyToken.sol\":3754:3785  balanceOf[msg.sender] -= amount */\n      dup3\n      dup3\n      sload\n      tag_111\n      swap2\n      swap1\n      tag_90\n      jump\t// in\n    tag_111:\n      swap3\n      pop\n      pop\n      dup2\n      swap1\n      sstore\n      pop\n        /* \"lesson/lesson05/MyToken.sol\":3832:3833  0 */\n      0x00\n        /* \"lesson/lesson05/MyToken.sol\":3803:3843  Transfer(msg.sender, address(0), amount) */\n      0xffffffffffffffffffffffffffffffffffffffff\n      and\n        /* \"lesson/lesson05/MyToken.sol\":3812:3822  msg.sender */\n      caller\n        /* \"lesson/lesson05/MyToken.sol\":3803:3843  Transfer(msg.sender, address(0), amount) */\n      0xffffffffffffffffffffffffffffffffffffffff\n      and\n      0xddf252ad1be2c89b69c2b068fc378daa952ba7f163c4a11628f55a4df523b3ef\n        /* \"lesson/lesson05/MyToken.sol\":3836:3842  amount */\n      dup4\n        /* \"lesson/lesson05/MyToken.sol\":3803:3843  Transfer(msg.sender, address(0), amount) */\n      mload(0x40)\n      tag_112\n      swap2\n      swap1\n      tag_29\n      jump\t// in\n    tag_112:\n      mload(0x40)\n      dup1\n      swap2\n      sub\n      swap1\n      log3\n        /* \"lesson/lesson05/MyToken.sol\":3500:3861  function burn(uint256 amount) public {... */\n      pop\n      jump\t// out\n        /* \"lesson/lesson05/MyToken.sol\":252:296  mapping(address => uint256) public balanceOf */\n    tag_49:\n      mstore(0x20, 0x04)\n      dup1\n      0x00\n      mstore\n      keccak256(0x00, 0x40)\n      0x00\n      swap2\n      pop\n      swap1\n      pop\n      sload\n      dup2\n      jump\t// out\n        /* \"lesson/lesson05/MyToken.sol\":420:440  address public owner */\n    tag_52:\n      0x06\n      0x00\n      swap1\n      sload\n      swap1\n      0x0100\n      exp\n      swap1\n      div\n      0xffffffffffffffffffffffffffffffffffffffff\n      and\n      dup2\n      jump\t// out\n        /* \"lesson/lesson05/MyToken.sol\":139:159  string public symbol */\n    tag_56:\n      0x01\n      dup1\n      sload\n      tag_113\n      swap1\n      tag_68\n      jump\t// in\n    tag_113:\n      dup1\n      0x1f\n      add\n      0x20\n      dup1\n      swap2\n      div\n      mul\n      0x20\n      add\n      mload(0x40)\n      swap1\n      dup2\n      add\n      0x40\n      mstore\n      dup1\n      swap3\n      swap2\n      swap1\n      dup2\n      dup2\n      mstore\n      0x20\n      add\n      dup3\n      dup1\n      sload\n      tag_114\n      swap1\n      tag_68\n      jump\t// in\n    tag_114:\n      dup1\n      iszero\n      tag_115\n      jumpi\n      dup1\n      0x1f\n      lt\n      tag_116\n      jumpi\n      0x0100\n      dup1\n      dup4\n      sload\n      div\n      mul\n      dup4\n      mstore\n      swap2\n      0x20\n      add\n      swap2\n      jump(tag_115)\n    tag_116:\n      dup3\n      add\n      swap2\n      swap1\n      0x00\n      mstore\n      keccak256(0x00, 0x20)\n      swap1\n    tag_117:\n      dup2\n      sload\n      dup2\n      mstore\n      swap1\n      0x01\n      add\n      swap1\n      0x20\n      add\n      dup1\n      dup4\n      gt\n      tag_117\n      jumpi\n      dup3\n      swap1\n      sub\n      0x1f\n      and\n      dup3\n      add\n      swap2\n    tag_115:\n      pop\n      pop\n      pop\n      pop\n      pop\n      dup2\n      jump\t// out\n        /* \"lesson/lesson05/MyToken.sol\":1444:1958  function transfer(address to, uint256 amount) public returns(bool) {... */\n    tag_60:\n        /* \"lesson/lesson05/MyToken.sol\":1505:1509  bool */\n      0x00\n        /* \"lesson/lesson05/MyToken.sol\":1571:1572  0 */\n      0x00\n        /* \"lesson/lesson05/MyToken.sol\":1557:1573  to != address(0) */\n      0xffffffffffffffffffffffffffffffffffffffff\n      and\n        /* \"lesson/lesson05/MyToken.sol\":1557:1559  to */\n      dup4\n        /* \"lesson/lesson05/MyToken.sol\":1557:1573  to != address(0) */\n      0xffffffffffffffffffffffffffffffffffffffff\n      and\n      sub\n        /* \"lesson/lesson05/MyToken.sol\":1549:1609  require(to != address(0), \"Cannot transfer to zero address\") */\n      tag_119\n      jumpi\n      mload(0x40)\n      0x08c379a000000000000000000000000000000000000000000000000000000000\n      dup2\n      mstore\n      0x04\n      add\n      tag_120\n      swap1\n      tag_121\n      jump\t// in\n    tag_120:\n      mload(0x40)\n      dup1\n      swap2\n      sub\n      swap1\n      revert\n    tag_119:\n        /* \"lesson/lesson05/MyToken.sol\":1680:1686  amount */\n      dup2\n        /* \"lesson/lesson05/MyToken.sol\":1655:1664  balanceOf */\n      0x04\n        /* \"lesson/lesson05/MyToken.sol\":1655:1676  balanceOf[msg.sender] */\n      0x00\n        /* \"lesson/lesson05/MyToken.sol\":1665:1675  msg.sender */\n      caller\n        /* \"lesson/lesson05/MyToken.sol\":1655:1676  balanceOf[msg.sender] */\n      0xffffffffffffffffffffffffffffffffffffffff\n      and\n      0xffffffffffffffffffffffffffffffffffffffff\n      and\n      dup2\n      mstore\n      0x20\n      add\n      swap1\n      dup2\n      mstore\n      0x20\n      add\n      0x00\n      keccak256\n      sload\n        /* \"lesson/lesson05/MyToken.sol\":1655:1686  balanceOf[msg.sender] >= amount */\n      lt\n      iszero\n        /* \"lesson/lesson05/MyToken.sol\":1647:1711  require(balanceOf[msg.sender] >= amount, \"Insufficient balance\") */\n      tag_122\n      jumpi\n      mload(0x40)\n      0x08c379a000000000000000000000000000000000000000000000000000000000\n      dup2\n      mstore\n      0x04\n      add\n      tag_123\n      swap1\n      tag_87\n      jump\t// in\n    tag_123:\n      mload(0x40)\n      dup1\n      swap2\n      sub\n      swap1\n      revert\n    tag_122:\n        /* \"lesson/lesson05/MyToken.sol\":1776:1782  amount */\n      dup2\n        /* \"lesson/lesson05/MyToken.sol\":1751:1760  balanceOf */\n      0x04\n        /* \"lesson/lesson05/MyToken.sol\":1751:1772  balanceOf[msg.sender] */\n      0x00\n        /* \"lesson/lesson05/MyToken.sol\":1761:1771  msg.sender */\n      caller\n        /* \"lesson/lesson05/MyToken.sol\":1751:1772  balanceOf[msg.sender] */\n      0xffffffffffffffffffffffffffffffffffffffff\n      and\n      0xffffffffffffffffffffffffffffffffffffffff\n      and\n      dup2\n      mstore\n      0x20\n      add\n      swap1\n      dup2\n      mstore\n      0x20\n      add\n      0x00\n      keccak256\n      0x00\n        /* \"lesson/lesson05/MyToken.sol\":1751:1782  balanceOf[msg.sender] -= amount */\n      dup3\n      dup3\n      sload\n      tag_124\n      swap2\n      swap1\n      tag_90\n      jump\t// in\n    tag_124:\n      swap3\n      pop\n      pop\n      dup2\n      swap1\n      sstore\n      pop\n        /* \"lesson/lesson05/MyToken.sol\":1810:1816  amount */\n      dup2\n        /* \"lesson/lesson05/MyToken.sol\":1793:1802  balanceOf */\n      0x04\n        /* \"lesson/lesson05/MyToken.sol\":1793:1806  balanceOf[to] */\n      0x00\n        /* \"lesson/lesson05/MyToken.sol\":1803:1805  to */\n      dup6\n        /* \"lesson/lesson05/MyToken.sol\":1793:1806  balanceOf[to] */\n      0xffffffffffffffffffffffffffffffffffffffff\n      and\n      0xffffffffffffffffffffffffffffffffffffffff\n      and\n      dup2\n      mstore\n      0x20\n      add\n      swap1\n      dup2\n      mstore\n      0x20\n      add\n      0x00\n      keccak256\n      0x00\n        /* \"lesson/lesson05/MyToken.sol\":1793:1816  balanceOf[to] += amount */\n      dup3\n      dup3\n      sload\n      tag_125\n      swap2\n      swap1\n      tag_92\n      jump\t// in\n    tag_125:\n      swap3\n      pop\n      pop\n      dup2\n      swap1\n      sstore\n      pop\n        /* \"lesson/lesson05/MyToken.sol\":1888:1890  to */\n      dup3\n        /* \"lesson/lesson05/MyToken.sol\":1867:1899  Transfer(msg.sender, to, amount) */\n      0xffffffffffffffffffffffffffffffffffffffff\n      and\n        /* \"lesson/lesson05/MyToken.sol\":1876:1886  msg.sender */\n      caller\n        /* \"lesson/lesson05/MyToken.sol\":1867:1899  Transfer(msg.sender, to, amount) */\n      0xffffffffffffffffffffffffffffffffffffffff\n      and\n      0xddf252ad1be2c89b69c2b068fc378daa952ba7f163c4a11628f55a4df523b3ef\n        /* \"lesson/lesson05/MyToken.sol\":1892:1898  amount */\n      dup5\n        /* \"lesson/lesson05/MyToken.sol\":1867:1899  Transfer(msg.sender, to, amount) */\n      mload(0x40)\n      tag_126\n      swap2\n      swap1\n      tag_29\n      jump\t// in\n    tag_126:\n      mload(0x40)\n      dup1\n      swap2\n      sub\n      swap1\n      log3\n        /* \"lesson/lesson05/MyToken.sol\":1946:1950  true */\n      0x01\n        /* \"lesson/lesson05/MyToken.sol\":1939:1950  return true */\n      swap1\n      pop\n        /* \"lesson/lesson05/MyToken.sol\":1444:1958  function transfer(address to, uint256 amount) public returns(bool) {... */\n      swap3\n      swap2\n      pop\n      pop\n      jump\t// out\n        /* \"lesson/lesson05/MyToken.sol\":303:367  mapping(address => mapping(address => uint256)) public allowance */\n    tag_65:\n      mstore(0x20, 0x05)\n      dup2\n      0x00\n      mstore\n      mstore(0x20, keccak256(0x00, 0x40))\n      dup1\n      0x00\n      mstore\n      keccak256(0x00, 0x40)\n      0x00\n      swap2\n      pop\n      swap2\n      pop\n      pop\n      sload\n      dup2\n      jump\t// out\n        /* \"#utility.yul\":7:106   */\n    tag_127:\n        /* \"#utility.yul\":59:65   */\n      0x00\n        /* \"#utility.yul\":93:98   */\n      dup2\n        /* \"#utility.yul\":87:99   */\n      mload\n        /* \"#utility.yul\":77:99   */\n      swap1\n      pop\n        /* \"#utility.yul\":7:106   */\n      swap2\n      swap1\n      pop\n      jump\t// out\n        /* \"#utility.yul\":112:281   */\n    tag_128:\n        /* \"#utility.yul\":196:207   */\n      0x00\n        /* \"#utility.yul\":230:236   */\n      dup3\n        /* \"#utility.yul\":225:228   */\n      dup3\n        /* \"#utility.yul\":218:237   */\n      mstore\n        /* \"#utility.yul\":270:274   */\n      0x20\n        /* \"#utility.yul\":265:268   */\n      dup3\n        /* \"#utility.yul\":261:275   */\n      add\n        /* \"#utility.yul\":246:275   */\n      swap1\n      pop\n        /* \"#utility.yul\":112:281   */\n      swap3\n      swap2\n      pop\n      pop\n      jump\t// out\n        /* \"#utility.yul\":287:426   */\n    tag_129:\n        /* \"#utility.yul\":376:382   */\n      dup3\n        /* \"#utility.yul\":371:374   */\n      dup2\n        /* \"#utility.yul\":366:369   */\n      dup4\n        /* \"#utility.yul\":360:383   */\n      mcopy\n        /* \"#utility.yul\":417:418   */\n      0x00\n        /* \"#utility.yul\":408:414   */\n      dup4\n        /* \"#utility.yul\":403:406   */\n      dup4\n        /* \"#utility.yul\":399:415   */\n      add\n        /* \"#utility.yul\":392:419   */\n      mstore\n        /* \"#utility.yul\":287:426   */\n      pop\n      pop\n      pop\n      jump\t// out\n        /* \"#utility.yul\":432:534   */\n    tag_130:\n        /* \"#utility.yul\":473:479   */\n      0x00\n        /* \"#utility.yul\":524:526   */\n      0x1f\n        /* \"#utility.yul\":520:527   */\n      not\n        /* \"#utility.yul\":515:517   */\n      0x1f\n        /* \"#utility.yul\":508:513   */\n      dup4\n        /* \"#utility.yul\":504:518   */\n      add\n        /* \"#utility.yul\":500:528   */\n      and\n        /* \"#utility.yul\":490:528   */\n      swap1\n      pop\n        /* \"#utility.yul\":432:534   */\n      swap2\n      swap1\n      pop\n      jump\t// out\n        /* \"#utility.yul\":540:917   */\n    tag_131:\n        /* \"#utility.yul\":628:631   */\n      0x00\n        /* \"#utility.yul\":656:695   */\n      tag_172\n        /* \"#utility.yul\":689:694   */\n      dup3\n        /* \"#utility.yul\":656:695   */\n      tag_127\n      jump\t// in\n    tag_172:\n        /* \"#utility.yul\":711:782   */\n      tag_173\n        /* \"#utility.yul\":775:781   */\n      dup2\n        /* \"#utility.yul\":770:773   */\n      dup6\n        /* \"#utility.yul\":711:782   */\n      tag_128\n      jump\t// in\n    tag_173:\n        /* \"#utility.yul\":704:782   */\n      swap4\n      pop\n        /* \"#utility.yul\":791:856   */\n      tag_174\n        /* \"#utility.yul\":849:855   */\n      dup2\n        /* \"#utility.yul\":844:847   */\n      dup6\n        /* \"#utility.yul\":837:841   */\n      0x20\n        /* \"#utility.yul\":830:835   */\n      dup7\n        /* \"#utility.yul\":826:842   */\n      add\n        /* \"#utility.yul\":791:856   */\n      tag_129\n      jump\t// in\n    tag_174:\n        /* \"#utility.yul\":881:910   */\n      tag_175\n        /* \"#utility.yul\":903:909   */\n      dup2\n        /* \"#utility.yul\":881:910   */\n      tag_130\n      jump\t// in\n    tag_175:\n        /* \"#utility.yul\":876:879   */\n      dup5\n        /* \"#utility.yul\":872:911   */\n      add\n        /* \"#utility.yul\":865:911   */\n      swap2\n      pop\n        /* \"#utility.yul\":632:917   */\n      pop\n        /* \"#utility.yul\":540:917   */\n      swap3\n      swap2\n      pop\n      pop\n      jump\t// out\n        /* \"#utility.yul\":923:1236   */\n    tag_19:\n        /* \"#utility.yul\":1036:1040   */\n      0x00\n        /* \"#utility.yul\":1074:1076   */\n      0x20\n        /* \"#utility.yul\":1063:1072   */\n      dup3\n        /* \"#utility.yul\":1059:1077   */\n      add\n        /* \"#utility.yul\":1051:1077   */\n      swap1\n      pop\n        /* \"#utility.yul\":1123:1132   */\n      dup2\n        /* \"#utility.yul\":1117:1121   */\n      dup2\n        /* \"#utility.yul\":1113:1133   */\n      sub\n        /* \"#utility.yul\":1109:1110   */\n      0x00\n        /* \"#utility.yul\":1098:1107   */\n      dup4\n        /* \"#utility.yul\":1094:1111   */\n      add\n        /* \"#utility.yul\":1087:1134   */\n      mstore\n        /* \"#utility.yul\":1151:1229   */\n      tag_177\n        /* \"#utility.yul\":1224:1228   */\n      dup2\n        /* \"#utility.yul\":1215:1221   */\n      dup5\n        /* \"#utility.yul\":1151:1229   */\n      tag_131\n      jump\t// in\n    tag_177:\n        /* \"#utility.yul\":1143:1229   */\n      swap1\n      pop\n        /* \"#utility.yul\":923:1236   */\n      swap3\n      swap2\n      pop\n      pop\n      jump\t// out\n        /* \"#utility.yul\":1323:1440   */\n    tag_133:\n        /* \"#utility.yul\":1432:1433   */\n      0x00\n        /* \"#utility.yul\":1429:1430   */\n      0x00\n        /* \"#utility.yul\":1422:1434   */\n      revert\n        /* \"#utility.yul\":1569:1695   */\n    tag_135:\n        /* \"#utility.yul\":1606:1613   */\n      0x00\n        /* \"#utility.yul\":1646:1688   */\n      0xffffffffffffffffffffffffffffffffffffffff\n        /* \"#utility.yul\":1639:1644   */\n      dup3\n        /* \"#utility.yul\":1635:1689   */\n      and\n        /* \"#utility.yul\":1624:1689   */\n      swap1\n      pop\n        /* \"#utility.yul\":1569:1695   */\n      swap2\n      swap1\n      pop\n      jump\t// out\n        /* \"#utility.yul\":1701:1797   */\n    tag_136:\n        /* \"#utility.yul\":1738:1745   */\n      0x00\n        /* \"#utility.yul\":1767:1791   */\n      tag_183\n        /* \"#utility.yul\":1785:1790   */\n      dup3\n        /* \"#utility.yul\":1767:1791   */\n      tag_135\n      jump\t// in\n    tag_183:\n        /* \"#utility.yul\":1756:1791   */\n      swap1\n      pop\n        /* \"#utility.yul\":1701:1797   */\n      swap2\n      swap1\n      pop\n      jump\t// out\n        /* \"#utility.yul\":1803:1925   */\n    tag_137:\n        /* \"#utility.yul\":1876:1900   */\n      tag_185\n        /* \"#utility.yul\":1894:1899   */\n      dup2\n        /* \"#utility.yul\":1876:1900   */\n      tag_136\n      jump\t// in\n    tag_185:\n        /* \"#utility.yul\":1869:1874   */\n      dup2\n        /* \"#utility.yul\":1866:1901   */\n      eq\n        /* \"#utility.yul\":1856:1919   */\n      tag_186\n      jumpi\n        /* \"#utility.yul\":1915:1916   */\n      0x00\n        /* \"#utility.yul\":1912:1913   */\n      0x00\n        /* \"#utility.yul\":1905:1917   */\n      revert\n        /* \"#utility.yul\":1856:1919   */\n    tag_186:\n        /* \"#utility.yul\":1803:1925   */\n      pop\n      jump\t// out\n        /* \"#utility.yul\":1931:2070   */\n    tag_138:\n        /* \"#utility.yul\":1977:1982   */\n      0x00\n        /* \"#utility.yul\":2015:2021   */\n      dup2\n        /* \"#utility.yul\":2002:2022   */\n      calldataload\n        /* \"#utility.yul\":1993:2022   */\n      swap1\n      pop\n        /* \"#utility.yul\":2031:2064   */\n      tag_188\n        /* \"#utility.yul\":2058:2063   */\n      dup2\n        /* \"#utility.yul\":2031:2064   */\n      tag_137\n      jump\t// in\n    tag_188:\n        /* \"#utility.yul\":1931:2070   */\n      swap3\n      swap2\n      pop\n      pop\n      jump\t// out\n        /* \"#utility.yul\":2076:2153   */\n    tag_139:\n        /* \"#utility.yul\":2113:2120   */\n      0x00\n        /* \"#utility.yul\":2142:2147   */\n      dup2\n        /* \"#utility.yul\":2131:2147   */\n      swap1\n      pop\n        /* \"#utility.yul\":2076:2153   */\n      swap2\n      swap1\n      pop\n      jump\t// out\n        /* \"#utility.yul\":2159:2281   */\n    tag_140:\n        /* \"#utility.yul\":2232:2256   */\n      tag_191\n        /* \"#utility.yul\":2250:2255   */\n      dup2\n        /* \"#utility.yul\":2232:2256   */\n      tag_139\n      jump\t// in\n    tag_191:\n        /* \"#utility.yul\":2225:2230   */\n      dup2\n        /* \"#utility.yul\":2222:2257   */\n      eq\n        /* \"#utility.yul\":2212:2275   */\n      tag_192\n      jumpi\n        /* \"#utility.yul\":2271:2272   */\n      0x00\n        /* \"#utility.yul\":2268:2269   */\n      0x00\n        /* \"#utility.yul\":2261:2273   */\n      revert\n        /* \"#utility.yul\":2212:2275   */\n    tag_192:\n        /* \"#utility.yul\":2159:2281   */\n      pop\n      jump\t// out\n        /* \"#utility.yul\":2287:2426   */\n    tag_141:\n        /* \"#utility.yul\":2333:2338   */\n      0x00\n        /* \"#utility.yul\":2371:2377   */\n      dup2\n        /* \"#utility.yul\":2358:2378   */\n      calldataload\n        /* \"#utility.yul\":2349:2378   */\n      swap1\n      pop\n        /* \"#utility.yul\":2387:2420   */\n      tag_194\n        /* \"#utility.yul\":2414:2419   */\n      dup2\n        /* \"#utility.yul\":2387:2420   */\n      tag_140\n      jump\t// in\n    tag_194:\n        /* \"#utility.yul\":2287:2426   */\n      swap3\n      swap2\n      pop\n      pop\n      jump\t// out\n        /* \"#utility.yul\":2432:2906   */\n    tag_22:\n        /* \"#utility.yul\":2500:2506   */\n      0x00\n        /* \"#utility.yul\":2508:2514   */\n      0x00\n        /* \"#utility.yul\":2557:2559   */\n      0x40\n        /* \"#utility.yul\":2545:2554   */\n      dup4\n        /* \"#utility.yul\":2536:2543   */\n      dup6\n        /* \"#utility.yul\":2532:2555   */\n      sub\n        /* \"#utility.yul\":2528:2560   */\n      slt\n        /* \"#utility.yul\":2525:2644   */\n      iszero\n      tag_196\n      jumpi\n        /* \"#utility.yul\":2563:2642   */\n      tag_197\n      tag_133\n      jump\t// in\n    tag_197:\n        /* \"#utility.yul\":2525:2644   */\n    tag_196:\n        /* \"#utility.yul\":2683:2684   */\n      0x00\n        /* \"#utility.yul\":2708:2761   */\n      tag_198\n        /* \"#utility.yul\":2753:2760   */\n      dup6\n        /* \"#utility.yul\":2744:2750   */\n      dup3\n        /* \"#utility.yul\":2733:2742   */\n      dup7\n        /* \"#utility.yul\":2729:2751   */\n      add\n        /* \"#utility.yul\":2708:2761   */\n      tag_138\n      jump\t// in\n    tag_198:\n        /* \"#utility.yul\":2698:2761   */\n      swap3\n      pop\n        /* \"#utility.yul\":2654:2771   */\n      pop\n        /* \"#utility.yul\":2810:2812   */\n      0x20\n        /* \"#utility.yul\":2836:2889   */\n      tag_199\n        /* \"#utility.yul\":2881:2888   */\n      dup6\n        /* \"#utility.yul\":2872:2878   */\n      dup3\n        /* \"#utility.yul\":2861:2870   */\n      dup7\n        /* \"#utility.yul\":2857:2879   */\n      add\n        /* \"#utility.yul\":2836:2889   */\n      tag_141\n      jump\t// in\n    tag_199:\n        /* \"#utility.yul\":2826:2889   */\n      swap2\n      pop\n        /* \"#utility.yul\":2781:2899   */\n      pop\n        /* \"#utility.yul\":2432:2906   */\n      swap3\n      pop\n      swap3\n      swap1\n      pop\n      jump\t// out\n        /* \"#utility.yul\":2912:3002   */\n    tag_142:\n        /* \"#utility.yul\":2946:2953   */\n      0x00\n        /* \"#utility.yul\":2989:2994   */\n      dup2\n        /* \"#utility.yul\":2982:2995   */\n      iszero\n        /* \"#utility.yul\":2975:2996   */\n      iszero\n        /* \"#utility.yul\":2964:2996   */\n      swap1\n      pop\n        /* \"#utility.yul\":2912:3002   */\n      swap2\n      swap1\n      pop\n      jump\t// out\n        /* \"#utility.yul\":3008:3117   */\n    tag_143:\n        /* \"#utility.yul\":3089:3110   */\n      tag_202\n        /* \"#utility.yul\":3104:3109   */\n      dup2\n        /* \"#utility.yul\":3089:3110   */\n      tag_142\n      jump\t// in\n    tag_202:\n        /* \"#utility.yul\":3084:3087   */\n      dup3\n        /* \"#utility.yul\":3077:3111   */\n      mstore\n        /* \"#utility.yul\":3008:3117   */\n      pop\n      pop\n      jump\t// out\n        /* \"#utility.yul\":3123:3333   */\n    tag_25:\n        /* \"#utility.yul\":3210:3214   */\n      0x00\n        /* \"#utility.yul\":3248:3250   */\n      0x20\n        /* \"#utility.yul\":3237:3246   */\n      dup3\n        /* \"#utility.yul\":3233:3251   */\n      add\n        /* \"#utility.yul\":3225:3251   */\n      swap1\n      pop\n        /* \"#utility.yul\":3261:3326   */\n      tag_204\n        /* \"#utility.yul\":3323:3324   */\n      0x00\n        /* \"#utility.yul\":3312:3321   */\n      dup4\n        /* \"#utility.yul\":3308:3325   */\n      add\n        /* \"#utility.yul\":3299:3305   */\n      dup5\n        /* \"#utility.yul\":3261:3326   */\n      tag_143\n      jump\t// in\n    tag_204:\n        /* \"#utility.yul\":3123:3333   */\n      swap3\n      swap2\n      pop\n      pop\n      jump\t// out\n        /* \"#utility.yul\":3339:3457   */\n    tag_144:\n        /* \"#utility.yul\":3426:3450   */\n      tag_206\n        /* \"#utility.yul\":3444:3449   */\n      dup2\n        /* \"#utility.yul\":3426:3450   */\n      tag_139\n      jump\t// in\n    tag_206:\n        /* \"#utility.yul\":3421:3424   */\n      dup3\n        /* \"#utility.yul\":3414:3451   */\n      mstore\n        /* \"#utility.yul\":3339:3457   */\n      pop\n      pop\n      jump\t// out\n        /* \"#utility.yul\":3463:3685   */\n    tag_29:\n        /* \"#utility.yul\":3556:3560   */\n      0x00\n        /* \"#utility.yul\":3594:3596   */\n      0x20\n        /* \"#utility.yul\":3583:3592   */\n      dup3\n        /* \"#utility.yul\":3579:3597   */\n      add\n        /* \"#utility.yul\":3571:3597   */\n      swap1\n      pop\n        /* \"#utility.yul\":3607:3678   */\n      tag_208\n        /* \"#utility.yul\":3675:3676   */\n      0x00\n        /* \"#utility.yul\":3664:3673   */\n      dup4\n        /* \"#utility.yul\":3660:3677   */\n      add\n        /* \"#utility.yul\":3651:3657   */\n      dup5\n        /* \"#utility.yul\":3607:3678   */\n      tag_144\n      jump\t// in\n    tag_208:\n        /* \"#utility.yul\":3463:3685   */\n      swap3\n      swap2\n      pop\n      pop\n      jump\t// out\n        /* \"#utility.yul\":3691:4310   */\n    tag_32:\n        /* \"#utility.yul\":3768:3774   */\n      0x00\n        /* \"#utility.yul\":3776:3782   */\n      0x00\n        /* \"#utility.yul\":3784:3790   */\n      0x00\n        /* \"#utility.yul\":3833:3835   */\n      0x60\n        /* \"#utility.yul\":3821:3830   */\n      dup5\n        /* \"#utility.yul\":3812:3819   */\n      dup7\n        /* \"#utility.yul\":3808:3831   */\n      sub\n        /* \"#utility.yul\":3804:3836   */\n      slt\n        /* \"#utility.yul\":3801:3920   */\n      iszero\n      tag_210\n      jumpi\n        /* \"#utility.yul\":3839:3918   */\n      tag_211\n      tag_133\n      jump\t// in\n    tag_211:\n        /* \"#utility.yul\":3801:3920   */\n    tag_210:\n        /* \"#utility.yul\":3959:3960   */\n      0x00\n        /* \"#utility.yul\":3984:4037   */\n      tag_212\n        /* \"#utility.yul\":4029:4036   */\n      dup7\n        /* \"#utility.yul\":4020:4026   */\n      dup3\n        /* \"#utility.yul\":4009:4018   */\n      dup8\n        /* \"#utility.yul\":4005:4027   */\n      add\n        /* \"#utility.yul\":3984:4037   */\n      tag_138\n      jump\t// in\n    tag_212:\n        /* \"#utility.yul\":3974:4037   */\n      swap4\n      pop\n        /* \"#utility.yul\":3930:4047   */\n      pop\n        /* \"#utility.yul\":4086:4088   */\n      0x20\n        /* \"#utility.yul\":4112:4165   */\n      tag_213\n        /* \"#utility.yul\":4157:4164   */\n      dup7\n        /* \"#utility.yul\":4148:4154   */\n      dup3\n        /* \"#utility.yul\":4137:4146   */\n      dup8\n        /* \"#utility.yul\":4133:4155   */\n      add\n        /* \"#utility.yul\":4112:4165   */\n      tag_138\n      jump\t// in\n    tag_213:\n        /* \"#utility.yul\":4102:4165   */\n      swap3\n      pop\n        /* \"#utility.yul\":4057:4175   */\n      pop\n        /* \"#utility.yul\":4214:4216   */\n      0x40\n        /* \"#utility.yul\":4240:4293   */\n      tag_214\n        /* \"#utility.yul\":4285:4292   */\n      dup7\n        /* \"#utility.yul\":4276:4282   */\n      dup3\n        /* \"#utility.yul\":4265:4274   */\n      dup8\n        /* \"#utility.yul\":4261:4283   */\n      add\n        /* \"#utility.yul\":4240:4293   */\n      tag_141\n      jump\t// in\n    tag_214:\n        /* \"#utility.yul\":4230:4293   */\n      swap2\n      pop\n        /* \"#utility.yul\":4185:4303   */\n      pop\n        /* \"#utility.yul\":3691:4310   */\n      swap3\n      pop\n      swap3\n      pop\n      swap3\n      jump\t// out\n        /* \"#utility.yul\":4316:4402   */\n    tag_145:\n        /* \"#utility.yul\":4351:4358   */\n      0x00\n        /* \"#utility.yul\":4391:4395   */\n      0xff\n        /* \"#utility.yul\":4384:4389   */\n      dup3\n        /* \"#utility.yul\":4380:4396   */\n      and\n        /* \"#utility.yul\":4369:4396   */\n      swap1\n      pop\n        /* \"#utility.yul\":4316:4402   */\n      swap2\n      swap1\n      pop\n      jump\t// out\n        /* \"#utility.yul\":4408:4520   */\n    tag_146:\n        /* \"#utility.yul\":4491:4513   */\n      tag_217\n        /* \"#utility.yul\":4507:4512   */\n      dup2\n        /* \"#utility.yul\":4491:4513   */\n      tag_145\n      jump\t// in\n    tag_217:\n        /* \"#utility.yul\":4486:4489   */\n      dup3\n        /* \"#utility.yul\":4479:4514   */\n      mstore\n        /* \"#utility.yul\":4408:4520   */\n      pop\n      pop\n      jump\t// out\n        /* \"#utility.yul\":4526:4740   */\n    tag_38:\n        /* \"#utility.yul\":4615:4619   */\n      0x00\n        /* \"#utility.yul\":4653:4655   */\n      0x20\n        /* \"#utility.yul\":4642:4651   */\n      dup3\n        /* \"#utility.yul\":4638:4656   */\n      add\n        /* \"#utility.yul\":4630:4656   */\n      swap1\n      pop\n        /* \"#utility.yul\":4666:4733   */\n      tag_219\n        /* \"#utility.yul\":4730:4731   */\n      0x00\n        /* \"#utility.yul\":4719:4728   */\n      dup4\n        /* \"#utility.yul\":4715:4732   */\n      add\n        /* \"#utility.yul\":4706:4712   */\n      dup5\n        /* \"#utility.yul\":4666:4733   */\n      tag_146\n      jump\t// in\n    tag_219:\n        /* \"#utility.yul\":4526:4740   */\n      swap3\n      swap2\n      pop\n      pop\n      jump\t// out\n        /* \"#utility.yul\":4746:5075   */\n    tag_44:\n        /* \"#utility.yul\":4805:4811   */\n      0x00\n        /* \"#utility.yul\":4854:4856   */\n      0x20\n        /* \"#utility.yul\":4842:4851   */\n      dup3\n        /* \"#utility.yul\":4833:4840   */\n      dup5\n        /* \"#utility.yul\":4829:4852   */\n      sub\n        /* \"#utility.yul\":4825:4857   */\n      slt\n        /* \"#utility.yul\":4822:4941   */\n      iszero\n      tag_221\n      jumpi\n        /* \"#utility.yul\":4860:4939   */\n      tag_222\n      tag_133\n      jump\t// in\n    tag_222:\n        /* \"#utility.yul\":4822:4941   */\n    tag_221:\n        /* \"#utility.yul\":4980:4981   */\n      0x00\n        /* \"#utility.yul\":5005:5058   */\n      tag_223\n        /* \"#utility.yul\":5050:5057   */\n      dup5\n        /* \"#utility.yul\":5041:5047   */\n      dup3\n        /* \"#utility.yul\":5030:5039   */\n      dup6\n        /* \"#utility.yul\":5026:5048   */\n      add\n        /* \"#utility.yul\":5005:5058   */\n      tag_141\n      jump\t// in\n    tag_223:\n        /* \"#utility.yul\":4995:5058   */\n      swap2\n      pop\n        /* \"#utility.yul\":4951:5068   */\n      pop\n        /* \"#utility.yul\":4746:5075   */\n      swap3\n      swap2\n      pop\n      pop\n      jump\t// out\n        /* \"#utility.yul\":5081:5410   */\n    tag_48:\n        /* \"#utility.yul\":5140:5146   */\n      0x00\n        /* \"#utility.yul\":5189:5191   */\n      0x20\n        /* \"#utility.yul\":5177:5186   */\n      dup3\n        /* \"#utility.yul\":5168:5175   */\n      dup5\n        /* \"#utility.yul\":5164:5187   */\n      sub\n        /* \"#utility.yul\":5160:5192   */\n      slt\n        /* \"#utility.yul\":5157:5276   */\n      iszero\n      tag_225\n      jumpi\n        /* \"#utility.yul\":5195:5274   */\n      tag_226\n      tag_133\n      jump\t// in\n    tag_226:\n        /* \"#utility.yul\":5157:5276   */\n    tag_225:\n        /* \"#utility.yul\":5315:5316   */\n      0x00\n        /* \"#utility.yul\":5340:5393   */\n      tag_227\n        /* \"#utility.yul\":5385:5392   */\n      dup5\n        /* \"#utility.yul\":5376:5382   */\n      dup3\n        /* \"#utility.yul\":5365:5374   */\n      dup6\n        /* \"#utility.yul\":5361:5383   */\n      add\n        /* \"#utility.yul\":5340:5393   */\n      tag_138\n      jump\t// in\n    tag_227:\n        /* \"#utility.yul\":5330:5393   */\n      swap2\n      pop\n        /* \"#utility.yul\":5286:5403   */\n      pop\n        /* \"#utility.yul\":5081:5410   */\n      swap3\n      swap2\n      pop\n      pop\n      jump\t// out\n        /* \"#utility.yul\":5416:5534   */\n    tag_147:\n        /* \"#utility.yul\":5503:5527   */\n      tag_229\n        /* \"#utility.yul\":5521:5526   */\n      dup2\n        /* \"#utility.yul\":5503:5527   */\n      tag_136\n      jump\t// in\n    tag_229:\n        /* \"#utility.yul\":5498:5501   */\n      dup3\n        /* \"#utility.yul\":5491:5528   */\n      mstore\n        /* \"#utility.yul\":5416:5534   */\n      pop\n      pop\n      jump\t// out\n        /* \"#utility.yul\":5540:5762   */\n    tag_54:\n        /* \"#utility.yul\":5633:5637   */\n      0x00\n        /* \"#utility.yul\":5671:5673   */\n      0x20\n        /* \"#utility.yul\":5660:5669   */\n      dup3\n        /* \"#utility.yul\":5656:5674   */\n      add\n        /* \"#utility.yul\":5648:5674   */\n      swap1\n      pop\n        /* \"#utility.yul\":5684:5755   */\n      tag_231\n        /* \"#utility.yul\":5752:5753   */\n      0x00\n        /* \"#utility.yul\":5741:5750   */\n      dup4\n        /* \"#utility.yul\":5737:5754   */\n      add\n        /* \"#utility.yul\":5728:5734   */\n      dup5\n        /* \"#utility.yul\":5684:5755   */\n      tag_147\n      jump\t// in\n    tag_231:\n        /* \"#utility.yul\":5540:5762   */\n      swap3\n      swap2\n      pop\n      pop\n      jump\t// out\n        /* \"#utility.yul\":5768:6242   */\n    tag_64:\n        /* \"#utility.yul\":5836:5842   */\n      0x00\n        /* \"#utility.yul\":5844:5850   */\n      0x00\n        /* \"#utility.yul\":5893:5895   */\n      0x40\n        /* \"#utility.yul\":5881:5890   */\n      dup4\n        /* \"#utility.yul\":5872:5879   */\n      dup6\n        /* \"#utility.yul\":5868:5891   */\n      sub\n        /* \"#utility.yul\":5864:5896   */\n      slt\n        /* \"#utility.yul\":5861:5980   */\n      iszero\n      tag_233\n      jumpi\n        /* \"#utility.yul\":5899:5978   */\n      tag_234\n      tag_133\n      jump\t// in\n    tag_234:\n        /* \"#utility.yul\":5861:5980   */\n    tag_233:\n        /* \"#utility.yul\":6019:6020   */\n      0x00\n        /* \"#utility.yul\":6044:6097   */\n      tag_235\n        /* \"#utility.yul\":6089:6096   */\n      dup6\n        /* \"#utility.yul\":6080:6086   */\n      dup3\n        /* \"#utility.yul\":6069:6078   */\n      dup7\n        /* \"#utility.yul\":6065:6087   */\n      add\n        /* \"#utility.yul\":6044:6097   */\n      tag_138\n      jump\t// in\n    tag_235:\n        /* \"#utility.yul\":6034:6097   */\n      swap3\n      pop\n        /* \"#utility.yul\":5990:6107   */\n      pop\n        /* \"#utility.yul\":6146:6148   */\n      0x20\n        /* \"#utility.yul\":6172:6225   */\n      tag_236\n        /* \"#utility.yul\":6217:6224   */\n      dup6\n        /* \"#utility.yul\":6208:6214   */\n      dup3\n        /* \"#utility.yul\":6197:6206   */\n      dup7\n        /* \"#utility.yul\":6193:6215   */\n      add\n        /* \"#utility.yul\":6172:6225   */\n      tag_138\n      jump\t// in\n    tag_236:\n        /* \"#utility.yul\":6162:6225   */\n      swap2\n      pop\n        /* \"#utility.yul\":6117:6235   */\n      pop\n        /* \"#utility.yul\":5768:6242   */\n      swap3\n      pop\n      swap3\n      swap1\n      pop\n      jump\t// out\n        /* \"#utility.yul\":6248:6428   */\n    tag_148:\n        /* \"#utility.yul\":6296:6373   */\n      0x4e487b7100000000000000000000000000000000000000000000000000000000\n        /* \"#utility.yul\":6293:6294   */\n      0x00\n        /* \"#utility.yul\":6286:6374   */\n      mstore\n        /* \"#utility.yul\":6393:6397   */\n      0x22\n        /* \"#utility.yul\":6390:6391   */\n      0x04\n        /* \"#utility.yul\":6383:6398   */\n      mstore\n        /* \"#utility.yul\":6417:6421   */\n      0x24\n        /* \"#utility.yul\":6414:6415   */\n      0x00\n        /* \"#utility.yul\":6407:6422   */\n      revert\n        /* \"#utility.yul\":6434:6754   */\n    tag_68:\n        /* \"#utility.yul\":6478:6484   */\n      0x00\n        /* \"#utility.yul\":6515:6516   */\n      0x02\n        /* \"#utility.yul\":6509:6513   */\n      dup3\n        /* \"#utility.yul\":6505:6517   */\n      div\n        /* \"#utility.yul\":6495:6517   */\n      swap1\n      pop\n        /* \"#utility.yul\":6562:6563   */\n      0x01\n        /* \"#utility.yul\":6556:6560   */\n      dup3\n        /* \"#utility.yul\":6552:6564   */\n      and\n        /* \"#utility.yul\":6583:6601   */\n      dup1\n        /* \"#utility.yul\":6573:6654   */\n      tag_239\n      jumpi\n        /* \"#utility.yul\":6639:6643   */\n      0x7f\n        /* \"#utility.yul\":6631:6637   */\n      dup3\n        /* \"#utility.yul\":6627:6644   */\n      and\n        /* \"#utility.yul\":6617:6644   */\n      swap2\n      pop\n        /* \"#utility.yul\":6573:6654   */\n    tag_239:\n        /* \"#utility.yul\":6701:6703   */\n      0x20\n        /* \"#utility.yul\":6693:6699   */\n      dup3\n        /* \"#utility.yul\":6690:6704   */\n      lt\n        /* \"#utility.yul\":6670:6688   */\n      dup2\n        /* \"#utility.yul\":6667:6705   */\n      sub\n        /* \"#utility.yul\":6664:6748   */\n      tag_240\n      jumpi\n        /* \"#utility.yul\":6720:6738   */\n      tag_241\n      tag_148\n      jump\t// in\n    tag_241:\n        /* \"#utility.yul\":6664:6748   */\n    tag_240:\n        /* \"#utility.yul\":6485:6754   */\n      pop\n        /* \"#utility.yul\":6434:6754   */\n      swap2\n      swap1\n      pop\n      jump\t// out\n        /* \"#utility.yul\":6760:6937   */\n    tag_149:\n        /* \"#utility.yul\":6900:6929   */\n      0x43616e6e6f7420617070726f7665207a65726f20616464726573730000000000\n        /* \"#utility.yul\":6896:6897   */\n      0x00\n        /* \"#utility.yul\":6888:6894   */\n      dup3\n        /* \"#utility.yul\":6884:6898   */\n      add\n        /* \"#utility.yul\":6877:6930   */\n      mstore\n        /* \"#utility.yul\":6760:6937   */\n      pop\n      jump\t// out\n        /* \"#utility.yul\":6943:7309   */\n    tag_150:\n        /* \"#utility.yul\":7085:7088   */\n      0x00\n        /* \"#utility.yul\":7106:7173   */\n      tag_244\n        /* \"#utility.yul\":7170:7172   */\n      0x1b\n        /* \"#utility.yul\":7165:7168   */\n      dup4\n        /* \"#utility.yul\":7106:7173   */\n      tag_128\n      jump\t// in\n    tag_244:\n        /* \"#utility.yul\":7099:7173   */\n      swap2\n      pop\n        /* \"#utility.yul\":7182:7275   */\n      tag_245\n        /* \"#utility.yul\":7271:7274   */\n      dup3\n        /* \"#utility.yul\":7182:7275   */\n      tag_149\n      jump\t// in\n    tag_245:\n        /* \"#utility.yul\":7300:7302   */\n      0x20\n        /* \"#utility.yul\":7295:7298   */\n      dup3\n        /* \"#utility.yul\":7291:7303   */\n      add\n        /* \"#utility.yul\":7284:7303   */\n      swap1\n      pop\n        /* \"#utility.yul\":6943:7309   */\n      swap2\n      swap1\n      pop\n      jump\t// out\n        /* \"#utility.yul\":7315:7734   */\n    tag_76:\n        /* \"#utility.yul\":7481:7485   */\n      0x00\n        /* \"#utility.yul\":7519:7521   */\n      0x20\n        /* \"#utility.yul\":7508:7517   */\n      dup3\n        /* \"#utility.yul\":7504:7522   */\n      add\n        /* \"#utility.yul\":7496:7522   */\n      swap1\n      pop\n        /* \"#utility.yul\":7568:7577   */\n      dup2\n        /* \"#utility.yul\":7562:7566   */\n      dup2\n        /* \"#utility.yul\":7558:7578   */\n      sub\n        /* \"#utility.yul\":7554:7555   */\n      0x00\n        /* \"#utility.yul\":7543:7552   */\n      dup4\n        /* \"#utility.yul\":7539:7556   */\n      add\n        /* \"#utility.yul\":7532:7579   */\n      mstore\n        /* \"#utility.yul\":7596:7727   */\n      tag_247\n        /* \"#utility.yul\":7722:7726   */\n      dup2\n        /* \"#utility.yul\":7596:7727   */\n      tag_150\n      jump\t// in\n    tag_247:\n        /* \"#utility.yul\":7588:7727   */\n      swap1\n      pop\n        /* \"#utility.yul\":7315:7734   */\n      swap2\n      swap1\n      pop\n      jump\t// out\n        /* \"#utility.yul\":7740:7907   */\n    tag_151:\n        /* \"#utility.yul\":7880:7899   */\n      0x46726f6d207a65726f2061646472657373000000000000000000000000000000\n        /* \"#utility.yul\":7876:7877   */\n      0x00\n        /* \"#utility.yul\":7868:7874   */\n      dup3\n        /* \"#utility.yul\":7864:7878   */\n      add\n        /* \"#utility.yul\":7857:7900   */\n      mstore\n        /* \"#utility.yul\":7740:7907   */\n      pop\n      jump\t// out\n        /* \"#utility.yul\":7913:8279   */\n    tag_152:\n        /* \"#utility.yul\":8055:8058   */\n      0x00\n        /* \"#utility.yul\":8076:8143   */\n      tag_250\n        /* \"#utility.yul\":8140:8142   */\n      0x11\n        /* \"#utility.yul\":8135:8138   */\n      dup4\n        /* \"#utility.yul\":8076:8143   */\n      tag_128\n      jump\t// in\n    tag_250:\n        /* \"#utility.yul\":8069:8143   */\n      swap2\n      pop\n        /* \"#utility.yul\":8152:8245   */\n      tag_251\n        /* \"#utility.yul\":8241:8244   */\n      dup3\n        /* \"#utility.yul\":8152:8245   */\n      tag_151\n      jump\t// in\n    tag_251:\n        /* \"#utility.yul\":8270:8272   */\n      0x20\n        /* \"#utility.yul\":8265:8268   */\n      dup3\n        /* \"#utility.yul\":8261:8273   */\n      add\n        /* \"#utility.yul\":8254:8273   */\n      swap1\n      pop\n        /* \"#utility.yul\":7913:8279   */\n      swap2\n      swap1\n      pop\n      jump\t// out\n        /* \"#utility.yul\":8285:8704   */\n    tag_81:\n        /* \"#utility.yul\":8451:8455   */\n      0x00\n        /* \"#utility.yul\":8489:8491   */\n      0x20\n        /* \"#utility.yul\":8478:8487   */\n      dup3\n        /* \"#utility.yul\":8474:8492   */\n      add\n        /* \"#utility.yul\":8466:8492   */\n      swap1\n      pop\n        /* \"#utility.yul\":8538:8547   */\n      dup2\n        /* \"#utility.yul\":8532:8536   */\n      dup2\n        /* \"#utility.yul\":8528:8548   */\n      sub\n        /* \"#utility.yul\":8524:8525   */\n      0x00\n        /* \"#utility.yul\":8513:8522   */\n      dup4\n        /* \"#utility.yul\":8509:8526   */\n      add\n        /* \"#utility.yul\":8502:8549   */\n      mstore\n        /* \"#utility.yul\":8566:8697   */\n      tag_253\n        /* \"#utility.yul\":8692:8696   */\n      dup2\n        /* \"#utility.yul\":8566:8697   */\n      tag_152\n      jump\t// in\n    tag_253:\n        /* \"#utility.yul\":8558:8697   */\n      swap1\n      pop\n        /* \"#utility.yul\":8285:8704   */\n      swap2\n      swap1\n      pop\n      jump\t// out\n        /* \"#utility.yul\":8710:8875   */\n    tag_153:\n        /* \"#utility.yul\":8850:8867   */\n      0x546f207a65726f20616464726573730000000000000000000000000000000000\n        /* \"#utility.yul\":8846:8847   */\n      0x00\n        /* \"#utility.yul\":8838:8844   */\n      dup3\n        /* \"#utility.yul\":8834:8848   */\n      add\n        /* \"#utility.yul\":8827:8868   */\n      mstore\n        /* \"#utility.yul\":8710:8875   */\n      pop\n      jump\t// out\n        /* \"#utility.yul\":8881:9247   */\n    tag_154:\n        /* \"#utility.yul\":9023:9026   */\n      0x00\n        /* \"#utility.yul\":9044:9111   */\n      tag_256\n        /* \"#utility.yul\":9108:9110   */\n      0x0f\n        /* \"#utility.yul\":9103:9106   */\n      dup4\n        /* \"#utility.yul\":9044:9111   */\n      tag_128\n      jump\t// in\n    tag_256:\n        /* \"#utility.yul\":9037:9111   */\n      swap2\n      pop\n        /* \"#utility.yul\":9120:9213   */\n      tag_257\n        /* \"#utility.yul\":9209:9212   */\n      dup3\n        /* \"#utility.yul\":9120:9213   */\n      tag_153\n      jump\t// in\n    tag_257:\n        /* \"#utility.yul\":9238:9240   */\n      0x20\n        /* \"#utility.yul\":9233:9236   */\n      dup3\n        /* \"#utility.yul\":9229:9241   */\n      add\n        /* \"#utility.yul\":9222:9241   */\n      swap1\n      pop\n        /* \"#utility.yul\":8881:9247   */\n      swap2\n      swap1\n      pop\n      jump\t// out\n        /* \"#utility.yul\":9253:9672   */\n    tag_84:\n        /* \"#utility.yul\":9419:9423   */\n      0x00\n        /* \"#utility.yul\":9457:9459   */\n      0x20\n        /* \"#utility.yul\":9446:9455   */\n      dup3\n        /* \"#utility.yul\":9442:9460   */\n      add\n        /* \"#utility.yul\":9434:9460   */\n      swap1\n      pop\n        /* \"#utility.yul\":9506:9515   */\n      dup2\n        /* \"#utility.yul\":9500:9504   */\n      dup2\n        /* \"#utility.yul\":9496:9516   */\n      sub\n        /* \"#utility.yul\":9492:9493   */\n      0x00\n        /* \"#utility.yul\":9481:9490   */\n      dup4\n        /* \"#utility.yul\":9477:9494   */\n      add\n        /* \"#utility.yul\":9470:9517   */\n      mstore\n        /* \"#utility.yul\":9534:9665   */\n      tag_259\n        /* \"#utility.yul\":9660:9664   */\n      dup2\n        /* \"#utility.yul\":9534:9665   */\n      tag_154\n      jump\t// in\n    tag_259:\n        /* \"#utility.yul\":9526:9665   */\n      swap1\n      pop\n        /* \"#utility.yul\":9253:9672   */\n      swap2\n      swap1\n      pop\n      jump\t// out\n        /* \"#utility.yul\":9678:9848   */\n    tag_155:\n        /* \"#utility.yul\":9818:9840   */\n      0x496e73756666696369656e742062616c616e6365000000000000000000000000\n        /* \"#utility.yul\":9814:9815   */\n      0x00\n        /* \"#utility.yul\":9806:9812   */\n      dup3\n        /* \"#utility.yul\":9802:9816   */\n      add\n        /* \"#utility.yul\":9795:9841   */\n      mstore\n        /* \"#utility.yul\":9678:9848   */\n      pop\n      jump\t// out\n        /* \"#utility.yul\":9854:10220   */\n    tag_156:\n        /* \"#utility.yul\":9996:9999   */\n      0x00\n        /* \"#utility.yul\":10017:10084   */\n      tag_262\n        /* \"#utility.yul\":10081:10083   */\n      0x14\n        /* \"#utility.yul\":10076:10079   */\n      dup4\n        /* \"#utility.yul\":10017:10084   */\n      tag_128\n      jump\t// in\n    tag_262:\n        /* \"#utility.yul\":10010:10084   */\n      swap2\n      pop\n        /* \"#utility.yul\":10093:10186   */\n      tag_263\n        /* \"#utility.yul\":10182:10185   */\n      dup3\n        /* \"#utility.yul\":10093:10186   */\n      tag_155\n      jump\t// in\n    tag_263:\n        /* \"#utility.yul\":10211:10213   */\n      0x20\n        /* \"#utility.yul\":10206:10209   */\n      dup3\n        /* \"#utility.yul\":10202:10214   */\n      add\n        /* \"#utility.yul\":10195:10214   */\n      swap1\n      pop\n        /* \"#utility.yul\":9854:10220   */\n      swap2\n      swap1\n      pop\n      jump\t// out\n        /* \"#utility.yul\":10226:10645   */\n    tag_87:\n        /* \"#utility.yul\":10392:10396   */\n      0x00\n        /* \"#utility.yul\":10430:10432   */\n      0x20\n        /* \"#utility.yul\":10419:10428   */\n      dup3\n        /* \"#utility.yul\":10415:10433   */\n      add\n        /* \"#utility.yul\":10407:10433   */\n      swap1\n      pop\n        /* \"#utility.yul\":10479:10488   */\n      dup2\n        /* \"#utility.yul\":10473:10477   */\n      dup2\n        /* \"#utility.yul\":10469:10489   */\n      sub\n        /* \"#utility.yul\":10465:10466   */\n      0x00\n        /* \"#utility.yul\":10454:10463   */\n      dup4\n        /* \"#utility.yul\":10450:10467   */\n      add\n        /* \"#utility.yul\":10443:10490   */\n      mstore\n        /* \"#utility.yul\":10507:10638   */\n      tag_265\n        /* \"#utility.yul\":10633:10637   */\n      dup2\n        /* \"#utility.yul\":10507:10638   */\n      tag_156\n      jump\t// in\n    tag_265:\n        /* \"#utility.yul\":10499:10638   */\n      swap1\n      pop\n        /* \"#utility.yul\":10226:10645   */\n      swap2\n      swap1\n      pop\n      jump\t// out\n        /* \"#utility.yul\":10651:10831   */\n    tag_157:\n        /* \"#utility.yul\":10699:10776   */\n      0x4e487b7100000000000000000000000000000000000000000000000000000000\n        /* \"#utility.yul\":10696:10697   */\n      0x00\n        /* \"#utility.yul\":10689:10777   */\n      mstore\n        /* \"#utility.yul\":10796:10800   */\n      0x11\n        /* \"#utility.yul\":10793:10794   */\n      0x04\n        /* \"#utility.yul\":10786:10801   */\n      mstore\n        /* \"#utility.yul\":10820:10824   */\n      0x24\n        /* \"#utility.yul\":10817:10818   */\n      0x00\n        /* \"#utility.yul\":10810:10825   */\n      revert\n        /* \"#utility.yul\":10837:11031   */\n    tag_90:\n        /* \"#utility.yul\":10877:10881   */\n      0x00\n        /* \"#utility.yul\":10897:10917   */\n      tag_268\n        /* \"#utility.yul\":10915:10916   */\n      dup3\n        /* \"#utility.yul\":10897:10917   */\n      tag_139\n      jump\t// in\n    tag_268:\n        /* \"#utility.yul\":10892:10917   */\n      swap2\n      pop\n        /* \"#utility.yul\":10931:10951   */\n      tag_269\n        /* \"#utility.yul\":10949:10950   */\n      dup4\n        /* \"#utility.yul\":10931:10951   */\n      tag_139\n      jump\t// in\n    tag_269:\n        /* \"#utility.yul\":10926:10951   */\n      swap3\n      pop\n        /* \"#utility.yul\":10975:10976   */\n      dup3\n        /* \"#utility.yul\":10972:10973   */\n      dup3\n        /* \"#utility.yul\":10968:10977   */\n      sub\n        /* \"#utility.yul\":10960:10977   */\n      swap1\n      pop\n        /* \"#utility.yul\":10999:11000   */\n      dup2\n        /* \"#utility.yul\":10993:10997   */\n      dup2\n        /* \"#utility.yul\":10990:11001   */\n      gt\n        /* \"#utility.yul\":10987:11024   */\n      iszero\n      tag_270\n      jumpi\n        /* \"#utility.yul\":11004:11022   */\n      tag_271\n      tag_157\n      jump\t// in\n    tag_271:\n        /* \"#utility.yul\":10987:11024   */\n    tag_270:\n        /* \"#utility.yul\":10837:11031   */\n      swap3\n      swap2\n      pop\n      pop\n      jump\t// out\n        /* \"#utility.yul\":11037:11228   */\n    tag_92:\n        /* \"#utility.yul\":11077:11080   */\n      0x00\n        /* \"#utility.yul\":11096:11116   */\n      tag_273\n        /* \"#utility.yul\":11114:11115   */\n      dup3\n        /* \"#utility.yul\":11096:11116   */\n      tag_139\n      jump\t// in\n    tag_273:\n        /* \"#utility.yul\":11091:11116   */\n      swap2\n      pop\n        /* \"#utility.yul\":11130:11150   */\n      tag_274\n        /* \"#utility.yul\":11148:11149   */\n      dup4\n        /* \"#utility.yul\":11130:11150   */\n      tag_139\n      jump\t// in\n    tag_274:\n        /* \"#utility.yul\":11125:11150   */\n      swap3\n      pop\n        /* \"#utility.yul\":11173:11174   */\n      dup3\n        /* \"#utility.yul\":11170:11171   */\n      dup3\n        /* \"#utility.yul\":11166:11175   */\n      add\n        /* \"#utility.yul\":11159:11175   */\n      swap1\n      pop\n        /* \"#utility.yul\":11194:11197   */\n      dup1\n        /* \"#utility.yul\":11191:11192   */\n      dup3\n        /* \"#utility.yul\":11188:11198   */\n      gt\n        /* \"#utility.yul\":11185:11221   */\n      iszero\n      tag_275\n      jumpi\n        /* \"#utility.yul\":11201:11219   */\n      tag_276\n      tag_157\n      jump\t// in\n    tag_276:\n        /* \"#utility.yul\":11185:11221   */\n    tag_275:\n        /* \"#utility.yul\":11037:11228   */\n      swap3\n      swap2\n      pop\n      pop\n      jump\t// out\n        /* \"#utility.yul\":11234:11408   */\n    tag_158:\n        /* \"#utility.yul\":11374:11400   */\n      0x4f6e6c79206f776e65722063616e2063616c6c20746869730000000000000000\n        /* \"#utility.yul\":11370:11371   */\n      0x00\n        /* \"#utility.yul\":11362:11368   */\n      dup3\n        /* \"#utility.yul\":11358:11372   */\n      add\n        /* \"#utility.yul\":11351:11401   */\n      mstore\n        /* \"#utility.yul\":11234:11408   */\n      pop\n      jump\t// out\n        /* \"#utility.yul\":11414:11780   */\n    tag_159:\n        /* \"#utility.yul\":11556:11559   */\n      0x00\n        /* \"#utility.yul\":11577:11644   */\n      tag_279\n        /* \"#utility.yul\":11641:11643   */\n      0x18\n        /* \"#utility.yul\":11636:11639   */\n      dup4\n        /* \"#utility.yul\":11577:11644   */\n      tag_128\n      jump\t// in\n    tag_279:\n        /* \"#utility.yul\":11570:11644   */\n      swap2\n      pop\n        /* \"#utility.yul\":11653:11746   */\n      tag_280\n        /* \"#utility.yul\":11742:11745   */\n      dup3\n        /* \"#utility.yul\":11653:11746   */\n      tag_158\n      jump\t// in\n    tag_280:\n        /* \"#utility.yul\":11771:11773   */\n      0x20\n        /* \"#utility.yul\":11766:11769   */\n      dup3\n        /* \"#utility.yul\":11762:11774   */\n      add\n        /* \"#utility.yul\":11755:11774   */\n      swap1\n      pop\n        /* \"#utility.yul\":11414:11780   */\n      swap2\n      swap1\n      pop\n      jump\t// out\n        /* \"#utility.yul\":11786:12205   */\n    tag_98:\n        /* \"#utility.yul\":11952:11956   */\n      0x00\n        /* \"#utility.yul\":11990:11992   */\n      0x20\n        /* \"#utility.yul\":11979:11988   */\n      dup3\n        /* \"#utility.yul\":11975:11993   */\n      add\n        /* \"#utility.yul\":11967:11993   */\n      swap1\n      pop\n        /* \"#utility.yul\":12039:12048   */\n      dup2\n        /* \"#utility.yul\":12033:12037   */\n      dup2\n        /* \"#utility.yul\":12029:12049   */\n      sub\n        /* \"#utility.yul\":12025:12026   */\n      0x00\n        /* \"#utility.yul\":12014:12023   */\n      dup4\n        /* \"#utility.yul\":12010:12027   */\n      add\n        /* \"#utility.yul\":12003:12050   */\n      mstore\n        /* \"#utility.yul\":12067:12198   */\n      tag_282\n        /* \"#utility.yul\":12193:12197   */\n      dup2\n        /* \"#utility.yul\":12067:12198   */\n      tag_159\n      jump\t// in\n    tag_282:\n        /* \"#utility.yul\":12059:12198   */\n      swap1\n      pop\n        /* \"#utility.yul\":11786:12205   */\n      swap2\n      swap1\n      pop\n      jump\t// out\n        /* \"#utility.yul\":12211:12385   */\n    tag_160:\n        /* \"#utility.yul\":12351:12377   */\n      0x43616e6e6f74206d696e74207a65726f20616464726573730000000000000000\n        /* \"#utility.yul\":12347:12348   */\n      0x00\n        /* \"#utility.yul\":12339:12345   */\n      dup3\n        /* \"#utility.yul\":12335:12349   */\n      add\n        /* \"#utility.yul\":12328:12378   */\n      mstore\n        /* \"#utility.yul\":12211:12385   */\n      pop\n      jump\t// out\n        /* \"#utility.yul\":12391:12757   */\n    tag_161:\n        /* \"#utility.yul\":12533:12536   */\n      0x00\n        /* \"#utility.yul\":12554:12621   */\n      tag_285\n        /* \"#utility.yul\":12618:12620   */\n      0x18\n        /* \"#utility.yul\":12613:12616   */\n      dup4\n        /* \"#utility.yul\":12554:12621   */\n      tag_128\n      jump\t// in\n    tag_285:\n        /* \"#utility.yul\":12547:12621   */\n      swap2\n      pop\n        /* \"#utility.yul\":12630:12723   */\n      tag_286\n        /* \"#utility.yul\":12719:12722   */\n      dup3\n        /* \"#utility.yul\":12630:12723   */\n      tag_160\n      jump\t// in\n    tag_286:\n        /* \"#utility.yul\":12748:12750   */\n      0x20\n        /* \"#utility.yul\":12743:12746   */\n      dup3\n        /* \"#utility.yul\":12739:12751   */\n      add\n        /* \"#utility.yul\":12732:12751   */\n      swap1\n      pop\n        /* \"#utility.yul\":12391:12757   */\n      swap2\n      swap1\n      pop\n      jump\t// out\n        /* \"#utility.yul\":12763:13182   */\n    tag_102:\n        /* \"#utility.yul\":12929:12933   */\n      0x00\n        /* \"#utility.yul\":12967:12969   */\n      0x20\n        /* \"#utility.yul\":12956:12965   */\n      dup3\n        /* \"#utility.yul\":12952:12970   */\n      add\n        /* \"#utility.yul\":12944:12970   */\n      swap1\n      pop\n        /* \"#utility.yul\":13016:13025   */\n      dup2\n        /* \"#utility.yul\":13010:13014   */\n      dup2\n        /* \"#utility.yul\":13006:13026   */\n      sub\n        /* \"#utility.yul\":13002:13003   */\n      0x00\n        /* \"#utility.yul\":12991:13000   */\n      dup4\n        /* \"#utility.yul\":12987:13004   */\n      add\n        /* \"#utility.yul\":12980:13027   */\n      mstore\n        /* \"#utility.yul\":13044:13175   */\n      tag_288\n        /* \"#utility.yul\":13170:13174   */\n      dup2\n        /* \"#utility.yul\":13044:13175   */\n      tag_161\n      jump\t// in\n    tag_288:\n        /* \"#utility.yul\":13036:13175   */\n      swap1\n      pop\n        /* \"#utility.yul\":12763:13182   */\n      swap2\n      swap1\n      pop\n      jump\t// out\n        /* \"#utility.yul\":13188:13366   */\n    tag_162:\n        /* \"#utility.yul\":13328:13358   */\n      0x496e73756666696369656e742062616c616e636520746f206275726e00000000\n        /* \"#utility.yul\":13324:13325   */\n      0x00\n        /* \"#utility.yul\":13316:13322   */\n      dup3\n        /* \"#utility.yul\":13312:13326   */\n      add\n        /* \"#utility.yul\":13305:13359   */\n      mstore\n        /* \"#utility.yul\":13188:13366   */\n      pop\n      jump\t// out\n        /* \"#utility.yul\":13372:13738   */\n    tag_163:\n        /* \"#utility.yul\":13514:13517   */\n      0x00\n        /* \"#utility.yul\":13535:13602   */\n      tag_291\n        /* \"#utility.yul\":13599:13601   */\n      0x1c\n        /* \"#utility.yul\":13594:13597   */\n      dup4\n        /* \"#utility.yul\":13535:13602   */\n      tag_128\n      jump\t// in\n    tag_291:\n        /* \"#utility.yul\":13528:13602   */\n      swap2\n      pop\n        /* \"#utility.yul\":13611:13704   */\n      tag_292\n        /* \"#utility.yul\":13700:13703   */\n      dup3\n        /* \"#utility.yul\":13611:13704   */\n      tag_162\n      jump\t// in\n    tag_292:\n        /* \"#utility.yul\":13729:13731   */\n      0x20\n        /* \"#utility.yul\":13724:13727   */\n      dup3\n        /* \"#utility.yul\":13720:13732   */\n      add\n        /* \"#utility.yul\":13713:13732   */\n      swap1\n      pop\n        /* \"#utility.yul\":13372:13738   */\n      swap2\n      swap1\n      pop\n      jump\t// out\n        /* \"#utility.yul\":13744:14163   */\n    tag_109:\n        /* \"#utility.yul\":13910:13914   */\n      0x00\n        /* \"#utility.yul\":13948:13950   */\n      0x20\n        /* \"#utility.yul\":13937:13946   */\n      dup3\n        /* \"#utility.yul\":13933:13951   */\n      add\n        /* \"#utility.yul\":13925:13951   */\n      swap1\n      pop\n        /* \"#utility.yul\":13997:14006   */\n      dup2\n        /* \"#utility.yul\":13991:13995   */\n      dup2\n        /* \"#utility.yul\":13987:14007   */\n      sub\n        /* \"#utility.yul\":13983:13984   */\n      0x00\n        /* \"#utility.yul\":13972:13981   */\n      dup4\n        /* \"#utility.yul\":13968:13985   */\n      add\n        /* \"#utility.yul\":13961:14008   */\n      mstore\n        /* \"#utility.yul\":14025:14156   */\n      tag_294\n        /* \"#utility.yul\":14151:14155   */\n      dup2\n        /* \"#utility.yul\":14025:14156   */\n      tag_163\n      jump\t// in\n    tag_294:\n        /* \"#utility.yul\":14017:14156   */\n      swap1\n      pop\n        /* \"#utility.yul\":13744:14163   */\n      swap2\n      swap1\n      pop\n      jump\t// out\n        /* \"#utility.yul\":14169:14350   */\n    tag_164:\n        /* \"#utility.yul\":14309:14342   */\n      0x43616e6e6f74207472616e7366657220746f207a65726f206164647265737300\n        /* \"#utility.yul\":14305:14306   */\n      0x00\n        /* \"#utility.yul\":14297:14303   */\n      dup3\n        /* \"#utility.yul\":14293:14307   */\n      add\n        /* \"#utility.yul\":14286:14343   */\n      mstore\n        /* \"#utility.yul\":14169:14350   */\n      pop\n      jump\t// out\n        /* \"#utility.yul\":14356:14722   */\n    tag_165:\n        /* \"#utility.yul\":14498:14501   */\n      0x00\n        /* \"#utility.yul\":14519:14586   */\n      tag_297\n        /* \"#utility.yul\":14583:14585   */\n      0x1f\n        /* \"#utility.yul\":14578:14581   */\n      dup4\n        /* \"#utility.yul\":14519:14586   */\n      tag_128\n      jump\t// in\n    tag_297:\n        /* \"#utility.yul\":14512:14586   */\n      swap2\n      pop\n        /* \"#utility.yul\":14595:14688   */\n      tag_298\n        /* \"#utility.yul\":14684:14687   */\n      dup3\n        /* \"#utility.yul\":14595:14688   */\n      tag_164\n      jump\t// in\n    tag_298:\n        /* \"#utility.yul\":14713:14715   */\n      0x20\n        /* \"#utility.yul\":14708:14711   */\n      dup3\n        /* \"#utility.yul\":14704:14716   */\n      add\n        /* \"#utility.yul\":14697:14716   */\n      swap1\n      pop\n        /* \"#utility.yul\":14356:14722   */\n      swap2\n      swap1\n      pop\n      jump\t// out\n        /* \"#utility.yul\":14728:15147   */\n    tag_121:\n        /* \"#utility.yul\":14894:14898   */\n      0x00\n        /* \"#utility.yul\":14932:14934   */\n      0x20\n        /* \"#utility.yul\":14921:14930   */\n      dup3\n        /* \"#utility.yul\":14917:14935   */\n      add\n        /* \"#utility.yul\":14909:14935   */\n      swap1\n      pop\n        /* \"#utility.yul\":14981:14990   */\n      dup2\n        /* \"#utility.yul\":14975:14979   */\n      dup2\n        /* \"#utility.yul\":14971:14991   */\n      sub\n        /* \"#utility.yul\":14967:14968   */\n      0x00\n        /* \"#utility.yul\":14956:14965   */\n      dup4\n        /* \"#utility.yul\":14952:14969   */\n      add\n        /* \"#utility.yul\":14945:14992   */\n      mstore\n        /* \"#utility.yul\":15009:15140   */\n      tag_300\n        /* \"#utility.yul\":15135:15139   */\n      dup2\n        /* \"#utility.yul\":15009:15140   */\n      tag_165\n      jump\t// in\n    tag_300:\n        /* \"#utility.yul\":15001:15140   */\n      swap1\n      pop\n        /* \"#utility.yul\":14728:15147   */\n      swap2\n      swap1\n      pop\n      jump\t// out\n\n    auxdata: 0xa264697066735822122003d2b47d74f192df56a08a49ee86f0855fdb83c9935f5163653064616b53ecc064736f6c634300081e0033\n}\n",
				"bytecode": {
					"linkReferences": {},
					"object": "608060405234801561000f575f5ffd5b50604051611e25380380611e2583398181016040528101906100319190610332565b835f908161003f91906105d5565b50826001908161004f91906105d5565b508160025f6101000a81548160ff021916908360ff16021790555081600a6100779190610800565b81610082919061084a565b6003819055503360065f6101000a81548173ffffffffffffffffffffffffffffffffffffffff021916908373ffffffffffffffffffffffffffffffffffffffff16021790555060035460045f3373ffffffffffffffffffffffffffffffffffffffff1673ffffffffffffffffffffffffffffffffffffffff1681526020019081526020015f20819055503373ffffffffffffffffffffffffffffffffffffffff165f73ffffffffffffffffffffffffffffffffffffffff167fddf252ad1be2c89b69c2b068fc378daa952ba7f163c4a11628f55a4df523b3ef60035460405161016b919061089a565b60405180910390a3505050506108b3565b5f604051905090565b5f5ffd5b5f5ffd5b5f5ffd5b5f5ffd5b5f601f19601f8301169050919050565b7f4e487b71000000000000000000000000000000000000000000000000000000005f52604160045260245ffd5b6101db82610195565b810181811067ffffffffffffffff821117156101fa576101f96101a5565b5b80604052505050565b5f61020c61017c565b905061021882826101d2565b919050565b5f67ffffffffffffffff821115610237576102366101a5565b5b61024082610195565b9050602081019050919050565b8281835e5f83830152505050565b5f61026d6102688461021d565b610203565b90508281526020810184848401111561028957610288610191565b5b61029484828561024d565b509392505050565b5f82601f8301126102b0576102af61018d565b5b81516102c084826020860161025b565b91505092915050565b5f60ff82169050919050565b6102de816102c9565b81146102e8575f5ffd5b50565b5f815190506102f9816102d5565b92915050565b5f819050919050565b610311816102ff565b811461031b575f5ffd5b50565b5f8151905061032c81610308565b92915050565b5f5f5f5f6080858703121561034a57610349610185565b5b5f85015167ffffffffffffffff81111561036757610366610189565b5b6103738782880161029c565b945050602085015167ffffffffffffffff81111561039457610393610189565b5b6103a08782880161029c565b93505060406103b1878288016102eb565b92505060606103c28782880161031e565b91505092959194509250565b5f81519050919050565b7f4e487b71000000000000000000000000000000000000000000000000000000005f52602260045260245ffd5b5f600282049050600182168061041c57607f821691505b60208210810361042f5761042e6103d8565b5b50919050565b5f819050815f5260205f209050919050565b5f6020601f8301049050919050565b5f82821b905092915050565b5f600883026104917fffffffffffffffffffffffffffffffffffffffffffffffffffffffffffffffff82610456565b61049b8683610456565b95508019841693508086168417925050509392505050565b5f819050919050565b5f6104d66104d16104cc846102ff565b6104b3565b6102ff565b9050919050565b5f819050919050565b6104ef836104bc565b6105036104fb826104dd565b848454610462565b825550505050565b5f5f905090565b61051a61050b565b6105258184846104e6565b505050565b5b818110156105485761053d5f82610512565b60018101905061052b565b5050565b601f82111561058d5761055e81610435565b61056784610447565b81016020851015610576578190505b61058a61058285610447565b83018261052a565b50505b505050565b5f82821c905092915050565b5f6105ad5f1984600802610592565b1980831691505092915050565b5f6105c5838361059e565b9150826002028217905092915050565b6105de826103ce565b67ffffffffffffffff8111156105f7576105f66101a5565b5b6106018254610405565b61060c82828561054c565b5f60209050601f83116001811461063d575f841561062b578287015190505b61063585826105ba565b86555061069c565b601f19841661064b86610435565b5f5b828110156106725784890151825560018201915060208501945060208101905061064d565b8683101561068f578489015161068b601f89168261059e565b8355505b6001600288020188555050505b505050505050565b7f4e487b71000000000000000000000000000000000000000000000000000000005f52601160045260245ffd5b5f8160011c9050919050565b5f5f8291508390505b600185111561072657808604811115610702576107016106a4565b5b60018516156107115780820291505b808102905061071f856106d1565b94506106e6565b94509492505050565b5f8261073e57600190506107f9565b8161074b575f90506107f9565b8160018114610761576002811461076b5761079a565b60019150506107f9565b60ff84111561077d5761077c6106a4565b5b8360020a915084821115610794576107936106a4565b5b506107f9565b5060208310610133831016604e8410600b84101617156107cf5782820a9050838111156107ca576107c96106a4565b5b6107f9565b6107dc84848460016106dd565b925090508184048111156107f3576107f26106a4565b5b81810290505b9392505050565b5f61080a826102ff565b9150610815836102c9565b92506108427fffffffffffffffffffffffffffffffffffffffffffffffffffffffffffffffff848461072f565b905092915050565b5f610854826102ff565b915061085f836102ff565b925082820261086d816102ff565b91508282048414831517610884576108836106a4565b5b5092915050565b610894816102ff565b82525050565b5f6020820190506108ad5f83018461088b565b92915050565b611565806108c05f395ff3fe608060405234801561000f575f5ffd5b50600436106100b2575f3560e01c806342966c681161006f57806342966c681461018c57806370a08231146101a85780638da5cb5b146101d857806395d89b41146101f6578063a9059cbb14610214578063dd62ed3e14610244576100b2565b806306fdde03146100b6578063095ea7b3146100d457806318160ddd1461010457806323b872dd14610122578063313ce5671461015257806340c10f1914610170575b5f5ffd5b6100be610274565b6040516100cb9190610e75565b60405180910390f35b6100ee60048036038101906100e99190610f26565b6102ff565b6040516100fb9190610f7e565b60405180910390f35b61010c61045a565b6040516101199190610fa6565b60405180910390f35b61013c60048036038101906101379190610fbf565b610460565b6040516101499190610f7e565b60405180910390f35b61015a6107e5565b604051610167919061102a565b60405180910390f35b61018a60048036038101906101859190610f26565b6107f7565b005b6101a660048036038101906101a19190611043565b6109c8565b005b6101c260048036038101906101bd919061106e565b610b1b565b6040516101cf9190610fa6565b60405180910390f35b6101e0610b30565b6040516101ed91906110a8565b60405180910390f35b6101fe610b55565b60405161020b9190610e75565b60405180910390f35b61022e60048036038101906102299190610f26565b610be1565b60405161023b9190610f7e565b60405180910390f35b61025e600480360381019061025991906110c1565b610de5565b60405161026b9190610fa6565b60405180910390f35b5f80546102809061112c565b80601f01602080910402602001604051908101604052809291908181526020018280546102ac9061112c565b80156102f75780601f106102ce576101008083540402835291602001916102f7565b820191905f5260205f20905b8154815290600101906020018083116102da57829003601f168201915b505050505081565b5f5f73ffffffffffffffffffffffffffffffffffffffff168373ffffffffffffffffffffffffffffffffffffffff160361036e576040517f08c379a0000000000000000000000000000000000000000000000000000000008152600401610365906111a6565b60405180910390fd5b8160055f3373ffffffffffffffffffffffffffffffffffffffff1673ffffffffffffffffffffffffffffffffffffffff1681526020019081526020015f205f8573ffffffffffffffffffffffffffffffffffffffff1673ffffffffffffffffffffffffffffffffffffffff1681526020019081526020015f20819055508273ffffffffffffffffffffffffffffffffffffffff163373ffffffffffffffffffffffffffffffffffffffff167f8c5be1e5ebec7d5bd14f71427d1e84f3dd0314c0f7b2291e5b200ac8c7c3b925846040516104489190610fa6565b60405180910390a36001905092915050565b60035481565b5f5f73ffffffffffffffffffffffffffffffffffffffff168473ffffffffffffffffffffffffffffffffffffffff16036104cf576040517f08c379a00000000000000000000000000000000000000000000000000000000081526004016104c69061120e565b60405180910390fd5b5f73ffffffffffffffffffffffffffffffffffffffff168373ffffffffffffffffffffffffffffffffffffffff160361053d576040517f08c379a000000000000000000000000000000000000000000000000000000000815260040161053490611276565b60405180910390fd5b8160045f8673ffffffffffffffffffffffffffffffffffffffff1673ffffffffffffffffffffffffffffffffffffffff1681526020019081526020015f205410156105bd576040517f08c379a00000000000000000000000000000000000000000000000000000000081526004016105b4906112de565b60405180910390fd5b8160055f8673ffffffffffffffffffffffffffffffffffffffff1673ffffffffffffffffffffffffffffffffffffffff1681526020019081526020015f205f3373ffffffffffffffffffffffffffffffffffffffff1673ffffffffffffffffffffffffffffffffffffffff1681526020019081526020015f20541015610641575f5ffd5b8160045f8673ffffffffffffffffffffffffffffffffffffffff1673ffffffffffffffffffffffffffffffffffffffff1681526020019081526020015f205f82825461068d9190611329565b925050819055508160045f8573ffffffffffffffffffffffffffffffffffffffff1673ffffffffffffffffffffffffffffffffffffffff1681526020019081526020015f205f8282546106e0919061135c565b925050819055508160055f8673ffffffffffffffffffffffffffffffffffffffff1673ffffffffffffffffffffffffffffffffffffffff1681526020019081526020015f205f3373ffffffffffffffffffffffffffffffffffffffff1673ffffffffffffffffffffffffffffffffffffffff1681526020019081526020015f205f82825461076e9190611329565b925050819055508273ffffffffffffffffffffffffffffffffffffffff168473ffffffffffffffffffffffffffffffffffffffff167fddf252ad1be2c89b69c2b068fc378daa952ba7f163c4a11628f55a4df523b3ef846040516107d29190610fa6565b60405180910390a3600190509392505050565b60025f9054906101000a900460ff1681565b60065f9054906101000a900473ffffffffffffffffffffffffffffffffffffffff1673ffffffffffffffffffffffffffffffffffffffff163373ffffffffffffffffffffffffffffffffffffffff1614610886576040517f08c379a000000000000000000000000000000000000000000000000000000000815260040161087d906113d9565b60405180910390fd5b5f73ffffffffffffffffffffffffffffffffffffffff168273ffffffffffffffffffffffffffffffffffffffff16036108f4576040517f08c379a00000000000000000000000000000000000000000000000000000000081526004016108eb90611441565b60405180910390fd5b8060035f828254610905919061135c565b925050819055508060045f8473ffffffffffffffffffffffffffffffffffffffff1673ffffffffffffffffffffffffffffffffffffffff1681526020019081526020015f205f828254610958919061135c565b925050819055508173ffffffffffffffffffffffffffffffffffffffff165f73ffffffffffffffffffffffffffffffffffffffff167fddf252ad1be2c89b69c2b068fc378daa952ba7f163c4a11628f55a4df523b3ef836040516109bc9190610fa6565b60405180910390a35050565b8060045f3373ffffffffffffffffffffffffffffffffffffffff1673ffffffffffffffffffffffffffffffffffffffff1681526020019081526020015f20541015610a48576040517f08c379a0000000000000000000000000000000000000000000000000000000008152600401610a3f906114a9565b60405180910390fd5b8060035f828254610a599190611329565b925050819055508060045f3373ffffffffffffffffffffffffffffffffffffffff1673ffffffffffffffffffffffffffffffffffffffff1681526020019081526020015f205f828254610aac9190611329565b925050819055505f73ffffffffffffffffffffffffffffffffffffffff163373ffffffffffffffffffffffffffffffffffffffff167fddf252ad1be2c89b69c2b068fc378daa952ba7f163c4a11628f55a4df523b3ef83604051610b109190610fa6565b60405180910390a350565b6004602052805f5260405f205f915090505481565b60065f9054906101000a900473ffffffffffffffffffffffffffffffffffffffff1681565b60018054610b629061112c565b80601f0160208091040260200160405190810160405280929190818152602001828054610b8e9061112c565b8015610bd95780601f10610bb057610100808354040283529160200191610bd9565b820191905f5260205f20905b815481529060010190602001808311610bbc57829003601f168201915b505050505081565b5f5f73ffffffffffffffffffffffffffffffffffffffff168373ffffffffffffffffffffffffffffffffffffffff1603610c50576040517f08c379a0000000000000000000000000000000000000000000000000000000008152600401610c4790611511565b60405180910390fd5b8160045f3373ffffffffffffffffffffffffffffffffffffffff1673ffffffffffffffffffffffffffffffffffffffff1681526020019081526020015f20541015610cd0576040517f08c379a0000000000000000000000000000000000000000000000000000000008152600401610cc7906112de565b60405180910390fd5b8160045f3373ffffffffffffffffffffffffffffffffffffffff1673ffffffffffffffffffffffffffffffffffffffff1681526020019081526020015f205f828254610d1c9190611329565b925050819055508160045f8573ffffffffffffffffffffffffffffffffffffffff1673ffffffffffffffffffffffffffffffffffffffff1681526020019081526020015f205f828254610d6f919061135c565b925050819055508273ffffffffffffffffffffffffffffffffffffffff163373ffffffffffffffffffffffffffffffffffffffff167fddf252ad1be2c89b69c2b068fc378daa952ba7f163c4a11628f55a4df523b3ef84604051610dd39190610fa6565b60405180910390a36001905092915050565b6005602052815f5260405f20602052805f5260405f205f91509150505481565b5f81519050919050565b5f82825260208201905092915050565b8281835e5f83830152505050565b5f601f19601f8301169050919050565b5f610e4782610e05565b610e518185610e0f565b9350610e61818560208601610e1f565b610e6a81610e2d565b840191505092915050565b5f6020820190508181035f830152610e8d8184610e3d565b905092915050565b5f5ffd5b5f73ffffffffffffffffffffffffffffffffffffffff82169050919050565b5f610ec282610e99565b9050919050565b610ed281610eb8565b8114610edc575f5ffd5b50565b5f81359050610eed81610ec9565b92915050565b5f819050919050565b610f0581610ef3565b8114610f0f575f5ffd5b50565b5f81359050610f2081610efc565b92915050565b5f5f60408385031215610f3c57610f3b610e95565b5b5f610f4985828601610edf565b9250506020610f5a85828601610f12565b9150509250929050565b5f8115159050919050565b610f7881610f64565b82525050565b5f602082019050610f915f830184610f6f565b92915050565b610fa081610ef3565b82525050565b5f602082019050610fb95f830184610f97565b92915050565b5f5f5f60608486031215610fd657610fd5610e95565b5b5f610fe386828701610edf565b9350506020610ff486828701610edf565b925050604061100586828701610f12565b9150509250925092565b5f60ff82169050919050565b6110248161100f565b82525050565b5f60208201905061103d5f83018461101b565b92915050565b5f6020828403121561105857611057610e95565b5b5f61106584828501610f12565b91505092915050565b5f6020828403121561108357611082610e95565b5b5f61109084828501610edf565b91505092915050565b6110a281610eb8565b82525050565b5f6020820190506110bb5f830184611099565b92915050565b5f5f604083850312156110d7576110d6610e95565b5b5f6110e485828601610edf565b92505060206110f585828601610edf565b9150509250929050565b7f4e487b71000000000000000000000000000000000000000000000000000000005f52602260045260245ffd5b5f600282049050600182168061114357607f821691505b602082108103611156576111556110ff565b5b50919050565b7f43616e6e6f7420617070726f7665207a65726f206164647265737300000000005f82015250565b5f611190601b83610e0f565b915061119b8261115c565b602082019050919050565b5f6020820190508181035f8301526111bd81611184565b9050919050565b7f46726f6d207a65726f20616464726573730000000000000000000000000000005f82015250565b5f6111f8601183610e0f565b9150611203826111c4565b602082019050919050565b5f6020820190508181035f830152611225816111ec565b9050919050565b7f546f207a65726f206164647265737300000000000000000000000000000000005f82015250565b5f611260600f83610e0f565b915061126b8261122c565b602082019050919050565b5f6020820190508181035f83015261128d81611254565b9050919050565b7f496e73756666696369656e742062616c616e63650000000000000000000000005f82015250565b5f6112c8601483610e0f565b91506112d382611294565b602082019050919050565b5f6020820190508181035f8301526112f5816112bc565b9050919050565b7f4e487b71000000000000000000000000000000000000000000000000000000005f52601160045260245ffd5b5f61133382610ef3565b915061133e83610ef3565b9250828203905081811115611356576113556112fc565b5b92915050565b5f61136682610ef3565b915061137183610ef3565b9250828201905080821115611389576113886112fc565b5b92915050565b7f4f6e6c79206f776e65722063616e2063616c6c207468697300000000000000005f82015250565b5f6113c3601883610e0f565b91506113ce8261138f565b602082019050919050565b5f6020820190508181035f8301526113f0816113b7565b9050919050565b7f43616e6e6f74206d696e74207a65726f206164647265737300000000000000005f82015250565b5f61142b601883610e0f565b9150611436826113f7565b602082019050919050565b5f6020820190508181035f8301526114588161141f565b9050919050565b7f496e73756666696369656e742062616c616e636520746f206275726e000000005f82015250565b5f611493601c83610e0f565b915061149e8261145f565b602082019050919050565b5f6020820190508181035f8301526114c081611487565b9050919050565b7f43616e6e6f74207472616e7366657220746f207a65726f2061646472657373005f82015250565b5f6114fb601f83610e0f565b9150611506826114c7565b602082019050919050565b5f6020820190508181035f830152611528816114ef565b905091905056fea264697066735822122003d2b47d74f192df56a08a49ee86f0855fdb83c9935f5163653064616b53ecc064736f6c634300081e0033",
					"opcodes": "PUSH1 0x80 PUSH1 0x40 MSTORE CALLVALUE DUP1 ISZERO PUSH2 0xF JUMPI PUSH0 PUSH0 REVERT JUMPDEST POP PUSH1 0x40 MLOAD PUSH2 0x1E25 CODESIZE SUB DUP1 PUSH2 0x1E25 DUP4 CODECOPY DUP2 DUP2 ADD PUSH1 0x40 MSTORE DUP2 ADD SWAP1 PUSH2 0x31 SWAP2 SWAP1 PUSH2 0x332 JUMP JUMPDEST DUP4 PUSH0 SWAP1 DUP2 PUSH2 0x3F SWAP2 SWAP1 PUSH2 0x5D5 JUMP JUMPDEST POP DUP3 PUSH1 0x1 SWAP1 DUP2 PUSH2 0x4F SWAP2 SWAP1 PUSH2 0x5D5 JUMP JUMPDEST POP DUP2 PUSH1 0x2 PUSH0 PUSH2 0x100 EXP DUP2 SLOAD DUP2 PUSH1 0xFF MUL NOT AND SWAP1 DUP4 PUSH1 0xFF AND MUL OR SWAP1 SSTORE POP DUP2 PUSH1 0xA PUSH2 0x77 SWAP2 SWAP1 PUSH2 0x800 JUMP JUMPDEST DUP2 PUSH2 0x82 SWAP2 SWAP1 PUSH2 0x84A JUMP JUMPDEST PUSH1 0x3 DUP2 SWAP1 SSTORE POP CALLER PUSH1 0x6 PUSH0 PUSH2 0x100 EXP DUP2 SLOAD DUP2 PUSH20 0xFFFFFFFFFFFFFFFFFFFFFFFFFFFFFFFFFFFFFFFF MUL NOT AND SWAP1 DUP4 PUSH20 0xFFFFFFFFFFFFFFFFFFFFFFFFFFFFFFFFFFFFFFFF AND MUL OR SWAP1 SSTORE POP PUSH1 0x3 SLOAD PUSH1 0x4 PUSH0 CALLER PUSH20 0xFFFFFFFFFFFFFFFFFFFFFFFFFFFFFFFFFFFFFFFF AND PUSH20 0xFFFFFFFFFFFFFFFFFFFFFFFFFFFFFFFFFFFFFFFF AND DUP2 MSTORE PUSH1 0x20 ADD SWAP1 DUP2 MSTORE PUSH1 0x20 ADD PUSH0 KECCAK256 DUP2 SWAP1 SSTORE POP CALLER PUSH20 0xFFFFFFFFFFFFFFFFFFFFFFFFFFFFFFFFFFFFFFFF AND PUSH0 PUSH20 0xFFFFFFFFFFFFFFFFFFFFFFFFFFFFFFFFFFFFFFFF AND PUSH32 0xDDF252AD1BE2C89B69C2B068FC378DAA952BA7F163C4A11628F55A4DF523B3EF PUSH1 0x3 SLOAD PUSH1 0x40 MLOAD PUSH2 0x16B SWAP2 SWAP1 PUSH2 0x89A JUMP JUMPDEST PUSH1 0x40 MLOAD DUP1 SWAP2 SUB SWAP1 LOG3 POP POP POP POP PUSH2 0x8B3 JUMP JUMPDEST PUSH0 PUSH1 0x40 MLOAD SWAP1 POP SWAP1 JUMP JUMPDEST PUSH0 PUSH0 REVERT JUMPDEST PUSH0 PUSH0 REVERT JUMPDEST PUSH0 PUSH0 REVERT JUMPDEST PUSH0 PUSH0 REVERT JUMPDEST PUSH0 PUSH1 0x1F NOT PUSH1 0x1F DUP4 ADD AND SWAP1 POP SWAP2 SWAP1 POP JUMP JUMPDEST PUSH32 0x4E487B7100000000000000000000000000000000000000000000000000000000 PUSH0 MSTORE PUSH1 0x41 PUSH1 0x4 MSTORE PUSH1 0x24 PUSH0 REVERT JUMPDEST PUSH2 0x1DB DUP3 PUSH2 0x195 JUMP JUMPDEST DUP2 ADD DUP2 DUP2 LT PUSH8 0xFFFFFFFFFFFFFFFF DUP3 GT OR ISZERO PUSH2 0x1FA JUMPI PUSH2 0x1F9 PUSH2 0x1A5 JUMP JUMPDEST JUMPDEST DUP1 PUSH1 0x40 MSTORE POP POP POP JUMP JUMPDEST PUSH0 PUSH2 0x20C PUSH2 0x17C JUMP JUMPDEST SWAP1 POP PUSH2 0x218 DUP3 DUP3 PUSH2 0x1D2 JUMP JUMPDEST SWAP2 SWAP1 POP JUMP JUMPDEST PUSH0 PUSH8 0xFFFFFFFFFFFFFFFF DUP3 GT ISZERO PUSH2 0x237 JUMPI PUSH2 0x236 PUSH2 0x1A5 JUMP JUMPDEST JUMPDEST PUSH2 0x240 DUP3 PUSH2 0x195 JUMP JUMPDEST SWAP1 POP PUSH1 0x20 DUP2 ADD SWAP1 POP SWAP2 SWAP1 POP JUMP JUMPDEST DUP3 DUP2 DUP4 MCOPY PUSH0 DUP4 DUP4 ADD MSTORE POP POP POP JUMP JUMPDEST PUSH0 PUSH2 0x26D PUSH2 0x268 DUP5 PUSH2 0x21D JUMP JUMPDEST PUSH2 0x203 JUMP JUMPDEST SWAP1 POP DUP3 DUP2 MSTORE PUSH1 0x20 DUP2 ADD DUP5 DUP5 DUP5 ADD GT ISZERO PUSH2 0x289 JUMPI PUSH2 0x288 PUSH2 0x191 JUMP JUMPDEST JUMPDEST PUSH2 0x294 DUP5 DUP3 DUP6 PUSH2 0x24D JUMP JUMPDEST POP SWAP4 SWAP3 POP POP POP JUMP JUMPDEST PUSH0 DUP3 PUSH1 0x1F DUP4 ADD SLT PUSH2 0x2B0 JUMPI PUSH2 0x2AF PUSH2 0x18D JUMP JUMPDEST JUMPDEST DUP2 MLOAD PUSH2 0x2C0 DUP5 DUP3 PUSH1 0x20 DUP7 ADD PUSH2 0x25B JUMP JUMPDEST SWAP2 POP POP SWAP3 SWAP2 POP POP JUMP JUMPDEST PUSH0 PUSH1 0xFF DUP3 AND SWAP1 POP SWAP2 SWAP1 POP JUMP JUMPDEST PUSH2 0x2DE DUP2 PUSH2 0x2C9 JUMP JUMPDEST DUP2 EQ PUSH2 0x2E8 JUMPI PUSH0 PUSH0 REVERT JUMPDEST POP JUMP JUMPDEST PUSH0 DUP2 MLOAD SWAP1 POP PUSH2 0x2F9 DUP2 PUSH2 0x2D5 JUMP JUMPDEST SWAP3 SWAP2 POP POP JUMP JUMPDEST PUSH0 DUP2 SWAP1 POP SWAP2 SWAP1 POP JUMP JUMPDEST PUSH2 0x311 DUP2 PUSH2 0x2FF JUMP JUMPDEST DUP2 EQ PUSH2 0x31B JUMPI PUSH0 PUSH0 REVERT JUMPDEST POP JUMP JUMPDEST PUSH0 DUP2 MLOAD SWAP1 POP PUSH2 0x32C DUP2 PUSH2 0x308 JUMP JUMPDEST SWAP3 SWAP2 POP POP JUMP JUMPDEST PUSH0 PUSH0 PUSH0 PUSH0 PUSH1 0x80 DUP6 DUP8 SUB SLT ISZERO PUSH2 0x34A JUMPI PUSH2 0x349 PUSH2 0x185 JUMP JUMPDEST JUMPDEST PUSH0 DUP6 ADD MLOAD PUSH8 0xFFFFFFFFFFFFFFFF DUP2 GT ISZERO PUSH2 0x367 JUMPI PUSH2 0x366 PUSH2 0x189 JUMP JUMPDEST JUMPDEST PUSH2 0x373 DUP8 DUP3 DUP9 ADD PUSH2 0x29C JUMP JUMPDEST SWAP5 POP POP PUSH1 0x20 DUP6 ADD MLOAD PUSH8 0xFFFFFFFFFFFFFFFF DUP2 GT ISZERO PUSH2 0x394 JUMPI PUSH2 0x393 PUSH2 0x189 JUMP JUMPDEST JUMPDEST PUSH2 0x3A0 DUP8 DUP3 DUP9 ADD PUSH2 0x29C JUMP JUMPDEST SWAP4 POP POP PUSH1 0x40 PUSH2 0x3B1 DUP8 DUP3 DUP9 ADD PUSH2 0x2EB JUMP JUMPDEST SWAP3 POP POP PUSH1 0x60 PUSH2 0x3C2 DUP8 DUP3 DUP9 ADD PUSH2 0x31E JUMP JUMPDEST SWAP2 POP POP SWAP3 SWAP6 SWAP2 SWAP5 POP SWAP3 POP JUMP JUMPDEST PUSH0 DUP2 MLOAD SWAP1 POP SWAP2 SWAP1 POP JUMP JUMPDEST PUSH32 0x4E487B7100000000000000000000000000000000000000000000000000000000 PUSH0 MSTORE PUSH1 0x22 PUSH1 0x4 MSTORE PUSH1 0x24 PUSH0 REVERT JUMPDEST PUSH0 PUSH1 0x2 DUP3 DIV SWAP1 POP PUSH1 0x1 DUP3 AND DUP1 PUSH2 0x41C JUMPI PUSH1 0x7F DUP3 AND SWAP2 POP JUMPDEST PUSH1 0x20 DUP3 LT DUP2 SUB PUSH2 0x42F JUMPI PUSH2 0x42E PUSH2 0x3D8 JUMP JUMPDEST JUMPDEST POP SWAP2 SWAP1 POP JUMP JUMPDEST PUSH0 DUP2 SWAP1 POP DUP2 PUSH0 MSTORE PUSH1 0x20 PUSH0 KECCAK256 SWAP1 POP SWAP2 SWAP1 POP JUMP JUMPDEST PUSH0 PUSH1 0x20 PUSH1 0x1F DUP4 ADD DIV SWAP1 POP SWAP2 SWAP1 POP JUMP JUMPDEST PUSH0 DUP3 DUP3 SHL SWAP1 POP SWAP3 SWAP2 POP POP JUMP JUMPDEST PUSH0 PUSH1 0x8 DUP4 MUL PUSH2 0x491 PUSH32 0xFFFFFFFFFFFFFFFFFFFFFFFFFFFFFFFFFFFFFFFFFFFFFFFFFFFFFFFFFFFFFFFF DUP3 PUSH2 0x456 JUMP JUMPDEST PUSH2 0x49B DUP7 DUP4 PUSH2 0x456 JUMP JUMPDEST SWAP6 POP DUP1 NOT DUP5 AND SWAP4 POP DUP1 DUP7 AND DUP5 OR SWAP3 POP POP POP SWAP4 SWAP3 POP POP POP JUMP JUMPDEST PUSH0 DUP2 SWAP1 POP SWAP2 SWAP1 POP JUMP JUMPDEST PUSH0 PUSH2 0x4D6 PUSH2 0x4D1 PUSH2 0x4CC DUP5 PUSH2 0x2FF JUMP JUMPDEST PUSH2 0x4B3 JUMP JUMPDEST PUSH2 0x2FF JUMP JUMPDEST SWAP1 POP SWAP2 SWAP1 POP JUMP JUMPDEST PUSH0 DUP2 SWAP1 POP SWAP2 SWAP1 POP JUMP JUMPDEST PUSH2 0x4EF DUP4 PUSH2 0x4BC JUMP JUMPDEST PUSH2 0x503 PUSH2 0x4FB DUP3 PUSH2 0x4DD JUMP JUMPDEST DUP5 DUP5 SLOAD PUSH2 0x462 JUMP JUMPDEST DUP3 SSTORE POP POP POP POP JUMP JUMPDEST PUSH0 PUSH0 SWAP1 POP SWAP1 JUMP JUMPDEST PUSH2 0x51A PUSH2 0x50B JUMP JUMPDEST PUSH2 0x525 DUP2 DUP5 DUP5 PUSH2 0x4E6 JUMP JUMPDEST POP POP POP JUMP JUMPDEST JUMPDEST DUP2 DUP2 LT ISZERO PUSH2 0x548 JUMPI PUSH2 0x53D PUSH0 DUP3 PUSH2 0x512 JUMP JUMPDEST PUSH1 0x1 DUP2 ADD SWAP1 POP PUSH2 0x52B JUMP JUMPDEST POP POP JUMP JUMPDEST PUSH1 0x1F DUP3 GT ISZERO PUSH2 0x58D JUMPI PUSH2 0x55E DUP2 PUSH2 0x435 JUMP JUMPDEST PUSH2 0x567 DUP5 PUSH2 0x447 JUMP JUMPDEST DUP2 ADD PUSH1 0x20 DUP6 LT ISZERO PUSH2 0x576 JUMPI DUP2 SWAP1 POP JUMPDEST PUSH2 0x58A PUSH2 0x582 DUP6 PUSH2 0x447 JUMP JUMPDEST DUP4 ADD DUP3 PUSH2 0x52A JUMP JUMPDEST POP POP JUMPDEST POP POP POP JUMP JUMPDEST PUSH0 DUP3 DUP3 SHR SWAP1 POP SWAP3 SWAP2 POP POP JUMP JUMPDEST PUSH0 PUSH2 0x5AD PUSH0 NOT DUP5 PUSH1 0x8 MUL PUSH2 0x592 JUMP JUMPDEST NOT DUP1 DUP4 AND SWAP2 POP POP SWAP3 SWAP2 POP POP JUMP JUMPDEST PUSH0 PUSH2 0x5C5 DUP4 DUP4 PUSH2 0x59E JUMP JUMPDEST SWAP2 POP DUP3 PUSH1 0x2 MUL DUP3 OR SWAP1 POP SWAP3 SWAP2 POP POP JUMP JUMPDEST PUSH2 0x5DE DUP3 PUSH2 0x3CE JUMP JUMPDEST PUSH8 0xFFFFFFFFFFFFFFFF DUP2 GT ISZERO PUSH2 0x5F7 JUMPI PUSH2 0x5F6 PUSH2 0x1A5 JUMP JUMPDEST JUMPDEST PUSH2 0x601 DUP3 SLOAD PUSH2 0x405 JUMP JUMPDEST PUSH2 0x60C DUP3 DUP3 DUP6 PUSH2 0x54C JUMP JUMPDEST PUSH0 PUSH1 0x20 SWAP1 POP PUSH1 0x1F DUP4 GT PUSH1 0x1 DUP2 EQ PUSH2 0x63D JUMPI PUSH0 DUP5 ISZERO PUSH2 0x62B JUMPI DUP3 DUP8 ADD MLOAD SWAP1 POP JUMPDEST PUSH2 0x635 DUP6 DUP3 PUSH2 0x5BA JUMP JUMPDEST DUP7 SSTORE POP PUSH2 0x69C JUMP JUMPDEST PUSH1 0x1F NOT DUP5 AND PUSH2 0x64B DUP7 PUSH2 0x435 JUMP JUMPDEST PUSH0 JUMPDEST DUP3 DUP2 LT ISZERO PUSH2 0x672 JUMPI DUP5 DUP10 ADD MLOAD DUP3 SSTORE PUSH1 0x1 DUP3 ADD SWAP2 POP PUSH1 0x20 DUP6 ADD SWAP5 POP PUSH1 0x20 DUP2 ADD SWAP1 POP PUSH2 0x64D JUMP JUMPDEST DUP7 DUP4 LT ISZERO PUSH2 0x68F JUMPI DUP5 DUP10 ADD MLOAD PUSH2 0x68B PUSH1 0x1F DUP10 AND DUP3 PUSH2 0x59E JUMP JUMPDEST DUP4 SSTORE POP JUMPDEST PUSH1 0x1 PUSH1 0x2 DUP9 MUL ADD DUP9 SSTORE POP POP POP JUMPDEST POP POP POP POP POP POP JUMP JUMPDEST PUSH32 0x4E487B7100000000000000000000000000000000000000000000000000000000 PUSH0 MSTORE PUSH1 0x11 PUSH1 0x4 MSTORE PUSH1 0x24 PUSH0 REVERT JUMPDEST PUSH0 DUP2 PUSH1 0x1 SHR SWAP1 POP SWAP2 SWAP1 POP JUMP JUMPDEST PUSH0 PUSH0 DUP3 SWAP2 POP DUP4 SWAP1 POP JUMPDEST PUSH1 0x1 DUP6 GT ISZERO PUSH2 0x726 JUMPI DUP1 DUP7 DIV DUP2 GT ISZERO PUSH2 0x702 JUMPI PUSH2 0x701 PUSH2 0x6A4 JUMP JUMPDEST JUMPDEST PUSH1 0x1 DUP6 AND ISZERO PUSH2 0x711 JUMPI DUP1 DUP3 MUL SWAP2 POP JUMPDEST DUP1 DUP2 MUL SWAP1 POP PUSH2 0x71F DUP6 PUSH2 0x6D1 JUMP JUMPDEST SWAP5 POP PUSH2 0x6E6 JUMP JUMPDEST SWAP5 POP SWAP5 SWAP3 POP POP POP JUMP JUMPDEST PUSH0 DUP3 PUSH2 0x73E JUMPI PUSH1 0x1 SWAP1 POP PUSH2 0x7F9 JUMP JUMPDEST DUP2 PUSH2 0x74B JUMPI PUSH0 SWAP1 POP PUSH2 0x7F9 JUMP JUMPDEST DUP2 PUSH1 0x1 DUP2 EQ PUSH2 0x761 JUMPI PUSH1 0x2 DUP2 EQ PUSH2 0x76B JUMPI PUSH2 0x79A JUMP JUMPDEST PUSH1 0x1 SWAP2 POP POP PUSH2 0x7F9 JUMP JUMPDEST PUSH1 0xFF DUP5 GT ISZERO PUSH2 0x77D JUMPI PUSH2 0x77C PUSH2 0x6A4 JUMP JUMPDEST JUMPDEST DUP4 PUSH1 0x2 EXP SWAP2 POP DUP5 DUP3 GT ISZERO PUSH2 0x794 JUMPI PUSH2 0x793 PUSH2 0x6A4 JUMP JUMPDEST JUMPDEST POP PUSH2 0x7F9 JUMP JUMPDEST POP PUSH1 0x20 DUP4 LT PUSH2 0x133 DUP4 LT AND PUSH1 0x4E DUP5 LT PUSH1 0xB DUP5 LT AND OR ISZERO PUSH2 0x7CF JUMPI DUP3 DUP3 EXP SWAP1 POP DUP4 DUP2 GT ISZERO PUSH2 0x7CA JUMPI PUSH2 0x7C9 PUSH2 0x6A4 JUMP JUMPDEST JUMPDEST PUSH2 0x7F9 JUMP JUMPDEST PUSH2 0x7DC DUP5 DUP5 DUP5 PUSH1 0x1 PUSH2 0x6DD JUMP JUMPDEST SWAP3 POP SWAP1 POP DUP2 DUP5 DIV DUP2 GT ISZERO PUSH2 0x7F3 JUMPI PUSH2 0x7F2 PUSH2 0x6A4 JUMP JUMPDEST JUMPDEST DUP2 DUP2 MUL SWAP1 POP JUMPDEST SWAP4 SWAP3 POP POP POP JUMP JUMPDEST PUSH0 PUSH2 0x80A DUP3 PUSH2 0x2FF JUMP JUMPDEST SWAP2 POP PUSH2 0x815 DUP4 PUSH2 0x2C9 JUMP JUMPDEST SWAP3 POP PUSH2 0x842 PUSH32 0xFFFFFFFFFFFFFFFFFFFFFFFFFFFFFFFFFFFFFFFFFFFFFFFFFFFFFFFFFFFFFFFF DUP5 DUP5 PUSH2 0x72F JUMP JUMPDEST SWAP1 POP SWAP3 SWAP2 POP POP JUMP JUMPDEST PUSH0 PUSH2 0x854 DUP3 PUSH2 0x2FF JUMP JUMPDEST SWAP2 POP PUSH2 0x85F DUP4 PUSH2 0x2FF JUMP JUMPDEST SWAP3 POP DUP3 DUP3 MUL PUSH2 0x86D DUP2 PUSH2 0x2FF JUMP JUMPDEST SWAP2 POP DUP3 DUP3 DIV DUP5 EQ DUP4 ISZERO OR PUSH2 0x884 JUMPI PUSH2 0x883 PUSH2 0x6A4 JUMP JUMPDEST JUMPDEST POP SWAP3 SWAP2 POP POP JUMP JUMPDEST PUSH2 0x894 DUP2 PUSH2 0x2FF JUMP JUMPDEST DUP3 MSTORE POP POP JUMP JUMPDEST PUSH0 PUSH1 0x20 DUP3 ADD SWAP1 POP PUSH2 0x8AD PUSH0 DUP4 ADD DUP5 PUSH2 0x88B JUMP JUMPDEST SWAP3 SWAP2 POP POP JUMP JUMPDEST PUSH2 0x1565 DUP1 PUSH2 0x8C0 PUSH0 CODECOPY PUSH0 RETURN INVALID PUSH1 0x80 PUSH1 0x40 MSTORE CALLVALUE DUP1 ISZERO PUSH2 0xF JUMPI PUSH0 PUSH0 REVERT JUMPDEST POP PUSH1 0x4 CALLDATASIZE LT PUSH2 0xB2 JUMPI PUSH0 CALLDATALOAD PUSH1 0xE0 SHR DUP1 PUSH4 0x42966C68 GT PUSH2 0x6F JUMPI DUP1 PUSH4 0x42966C68 EQ PUSH2 0x18C JUMPI DUP1 PUSH4 0x70A08231 EQ PUSH2 0x1A8 JUMPI DUP1 PUSH4 0x8DA5CB5B EQ PUSH2 0x1D8 JUMPI DUP1 PUSH4 0x95D89B41 EQ PUSH2 0x1F6 JUMPI DUP1 PUSH4 0xA9059CBB EQ PUSH2 0x214 JUMPI DUP1 PUSH4 0xDD62ED3E EQ PUSH2 0x244 JUMPI PUSH2 0xB2 JUMP JUMPDEST DUP1 PUSH4 0x6FDDE03 EQ PUSH2 0xB6 JUMPI DUP1 PUSH4 0x95EA7B3 EQ PUSH2 0xD4 JUMPI DUP1 PUSH4 0x18160DDD EQ PUSH2 0x104 JUMPI DUP1 PUSH4 0x23B872DD EQ PUSH2 0x122 JUMPI DUP1 PUSH4 0x313CE567 EQ PUSH2 0x152 JUMPI DUP1 PUSH4 0x40C10F19 EQ PUSH2 0x170 JUMPI JUMPDEST PUSH0 PUSH0 REVERT JUMPDEST PUSH2 0xBE PUSH2 0x274 JUMP JUMPDEST PUSH1 0x40 MLOAD PUSH2 0xCB SWAP2 SWAP1 PUSH2 0xE75 JUMP JUMPDEST PUSH1 0x40 MLOAD DUP1 SWAP2 SUB SWAP1 RETURN JUMPDEST PUSH2 0xEE PUSH1 0x4 DUP1 CALLDATASIZE SUB DUP2 ADD SWAP1 PUSH2 0xE9 SWAP2 SWAP1 PUSH2 0xF26 JUMP JUMPDEST PUSH2 0x2FF JUMP JUMPDEST PUSH1 0x40 MLOAD PUSH2 0xFB SWAP2 SWAP1 PUSH2 0xF7E JUMP JUMPDEST PUSH1 0x40 MLOAD DUP1 SWAP2 SUB SWAP1 RETURN JUMPDEST PUSH2 0x10C PUSH2 0x45A JUMP JUMPDEST PUSH1 0x40 MLOAD PUSH2 0x119 SWAP2 SWAP1 PUSH2 0xFA6 JUMP JUMPDEST PUSH1 0x40 MLOAD DUP1 SWAP2 SUB SWAP1 RETURN JUMPDEST PUSH2 0x13C PUSH1 0x4 DUP1 CALLDATASIZE SUB DUP2 ADD SWAP1 PUSH2 0x137 SWAP2 SWAP1 PUSH2 0xFBF JUMP JUMPDEST PUSH2 0x460 JUMP JUMPDEST PUSH1 0x40 MLOAD PUSH2 0x149 SWAP2 SWAP1 PUSH2 0xF7E JUMP JUMPDEST PUSH1 0x40 MLOAD DUP1 SWAP2 SUB SWAP1 RETURN JUMPDEST PUSH2 0x15A PUSH2 0x7E5 JUMP JUMPDEST PUSH1 0x40 MLOAD PUSH2 0x167 SWAP2 SWAP1 PUSH2 0x102A JUMP JUMPDEST PUSH1 0x40 MLOAD DUP1 SWAP2 SUB SWAP1 RETURN JUMPDEST PUSH2 0x18A PUSH1 0x4 DUP1 CALLDATASIZE SUB DUP2 ADD SWAP1 PUSH2 0x185 SWAP2 SWAP1 PUSH2 0xF26 JUMP JUMPDEST PUSH2 0x7F7 JUMP JUMPDEST STOP JUMPDEST PUSH2 0x1A6 PUSH1 0x4 DUP1 CALLDATASIZE SUB DUP2 ADD SWAP1 PUSH2 0x1A1 SWAP2 SWAP1 PUSH2 0x1043 JUMP JUMPDEST PUSH2 0x9C8 JUMP JUMPDEST STOP JUMPDEST PUSH2 0x1C2 PUSH1 0x4 DUP1 CALLDATASIZE SUB DUP2 ADD SWAP1 PUSH2 0x1BD SWAP2 SWAP1 PUSH2 0x106E JUMP JUMPDEST PUSH2 0xB1B JUMP JUMPDEST PUSH1 0x40 MLOAD PUSH2 0x1CF SWAP2 SWAP1 PUSH2 0xFA6 JUMP JUMPDEST PUSH1 0x40 MLOAD DUP1 SWAP2 SUB SWAP1 RETURN JUMPDEST PUSH2 0x1E0 PUSH2 0xB30 JUMP JUMPDEST PUSH1 0x40 MLOAD PUSH2 0x1ED SWAP2 SWAP1 PUSH2 0x10A8 JUMP JUMPDEST PUSH1 0x40 MLOAD DUP1 SWAP2 SUB SWAP1 RETURN JUMPDEST PUSH2 0x1FE PUSH2 0xB55 JUMP JUMPDEST PUSH1 0x40 MLOAD PUSH2 0x20B SWAP2 SWAP1 PUSH2 0xE75 JUMP JUMPDEST PUSH1 0x40 MLOAD DUP1 SWAP2 SUB SWAP1 RETURN JUMPDEST PUSH2 0x22E PUSH1 0x4 DUP1 CALLDATASIZE SUB DUP2 ADD SWAP1 PUSH2 0x229 SWAP2 SWAP1 PUSH2 0xF26 JUMP JUMPDEST PUSH2 0xBE1 JUMP JUMPDEST PUSH1 0x40 MLOAD PUSH2 0x23B SWAP2 SWAP1 PUSH2 0xF7E JUMP JUMPDEST PUSH1 0x40 MLOAD DUP1 SWAP2 SUB SWAP1 RETURN JUMPDEST PUSH2 0x25E PUSH1 0x4 DUP1 CALLDATASIZE SUB DUP2 ADD SWAP1 PUSH2 0x259 SWAP2 SWAP1 PUSH2 0x10C1 JUMP JUMPDEST PUSH2 0xDE5 JUMP JUMPDEST PUSH1 0x40 MLOAD PUSH2 0x26B SWAP2 SWAP1 PUSH2 0xFA6 JUMP JUMPDEST PUSH1 0x40 MLOAD DUP1 SWAP2 SUB SWAP1 RETURN JUMPDEST PUSH0 DUP1 SLOAD PUSH2 0x280 SWAP1 PUSH2 0x112C JUMP JUMPDEST DUP1 PUSH1 0x1F ADD PUSH1 0x20 DUP1 SWAP2 DIV MUL PUSH1 0x20 ADD PUSH1 0x40 MLOAD SWAP1 DUP2 ADD PUSH1 0x40 MSTORE DUP1 SWAP3 SWAP2 SWAP1 DUP2 DUP2 MSTORE PUSH1 0x20 ADD DUP3 DUP1 SLOAD PUSH2 0x2AC SWAP1 PUSH2 0x112C JUMP JUMPDEST DUP1 ISZERO PUSH2 0x2F7 JUMPI DUP1 PUSH1 0x1F LT PUSH2 0x2CE JUMPI PUSH2 0x100 DUP1 DUP4 SLOAD DIV MUL DUP4 MSTORE SWAP2 PUSH1 0x20 ADD SWAP2 PUSH2 0x2F7 JUMP JUMPDEST DUP3 ADD SWAP2 SWAP1 PUSH0 MSTORE PUSH1 0x20 PUSH0 KECCAK256 SWAP1 JUMPDEST DUP2 SLOAD DUP2 MSTORE SWAP1 PUSH1 0x1 ADD SWAP1 PUSH1 0x20 ADD DUP1 DUP4 GT PUSH2 0x2DA JUMPI DUP3 SWAP1 SUB PUSH1 0x1F AND DUP3 ADD SWAP2 JUMPDEST POP POP POP POP POP DUP2 JUMP JUMPDEST PUSH0 PUSH0 PUSH20 0xFFFFFFFFFFFFFFFFFFFFFFFFFFFFFFFFFFFFFFFF AND DUP4 PUSH20 0xFFFFFFFFFFFFFFFFFFFFFFFFFFFFFFFFFFFFFFFF AND SUB PUSH2 0x36E JUMPI PUSH1 0x40 MLOAD PUSH32 0x8C379A000000000000000000000000000000000000000000000000000000000 DUP2 MSTORE PUSH1 0x4 ADD PUSH2 0x365 SWAP1 PUSH2 0x11A6 JUMP JUMPDEST PUSH1 0x40 MLOAD DUP1 SWAP2 SUB SWAP1 REVERT JUMPDEST DUP2 PUSH1 0x5 PUSH0 CALLER PUSH20 0xFFFFFFFFFFFFFFFFFFFFFFFFFFFFFFFFFFFFFFFF AND PUSH20 0xFFFFFFFFFFFFFFFFFFFFFFFFFFFFFFFFFFFFFFFF AND DUP2 MSTORE PUSH1 0x20 ADD SWAP1 DUP2 MSTORE PUSH1 0x20 ADD PUSH0 KECCAK256 PUSH0 DUP6 PUSH20 0xFFFFFFFFFFFFFFFFFFFFFFFFFFFFFFFFFFFFFFFF AND PUSH20 0xFFFFFFFFFFFFFFFFFFFFFFFFFFFFFFFFFFFFFFFF AND DUP2 MSTORE PUSH1 0x20 ADD SWAP1 DUP2 MSTORE PUSH1 0x20 ADD PUSH0 KECCAK256 DUP2 SWAP1 SSTORE POP DUP3 PUSH20 0xFFFFFFFFFFFFFFFFFFFFFFFFFFFFFFFFFFFFFFFF AND CALLER PUSH20 0xFFFFFFFFFFFFFFFFFFFFFFFFFFFFFFFFFFFFFFFF AND PUSH32 0x8C5BE1E5EBEC7D5BD14F71427D1E84F3DD0314C0F7B2291E5B200AC8C7C3B925 DUP5 PUSH1 0x40 MLOAD PUSH2 0x448 SWAP2 SWAP1 PUSH2 0xFA6 JUMP JUMPDEST PUSH1 0x40 MLOAD DUP1 SWAP2 SUB SWAP1 LOG3 PUSH1 0x1 SWAP1 POP SWAP3 SWAP2 POP POP JUMP JUMPDEST PUSH1 0x3 SLOAD DUP2 JUMP JUMPDEST PUSH0 PUSH0 PUSH20 0xFFFFFFFFFFFFFFFFFFFFFFFFFFFFFFFFFFFFFFFF AND DUP5 PUSH20 0xFFFFFFFFFFFFFFFFFFFFFFFFFFFFFFFFFFFFFFFF AND SUB PUSH2 0x4CF JUMPI PUSH1 0x40 MLOAD PUSH32 0x8C379A000000000000000000000000000000000000000000000000000000000 DUP2 MSTORE PUSH1 0x4 ADD PUSH2 0x4C6 SWAP1 PUSH2 0x120E JUMP JUMPDEST PUSH1 0x40 MLOAD DUP1 SWAP2 SUB SWAP1 REVERT JUMPDEST PUSH0 PUSH20 0xFFFFFFFFFFFFFFFFFFFFFFFFFFFFFFFFFFFFFFFF AND DUP4 PUSH20 0xFFFFFFFFFFFFFFFFFFFFFFFFFFFFFFFFFFFFFFFF AND SUB PUSH2 0x53D JUMPI PUSH1 0x40 MLOAD PUSH32 0x8C379A000000000000000000000000000000000000000000000000000000000 DUP2 MSTORE PUSH1 0x4 ADD PUSH2 0x534 SWAP1 PUSH2 0x1276 JUMP JUMPDEST PUSH1 0x40 MLOAD DUP1 SWAP2 SUB SWAP1 REVERT JUMPDEST DUP2 PUSH1 0x4 PUSH0 DUP7 PUSH20 0xFFFFFFFFFFFFFFFFFFFFFFFFFFFFFFFFFFFFFFFF AND PUSH20 0xFFFFFFFFFFFFFFFFFFFFFFFFFFFFFFFFFFFFFFFF AND DUP2 MSTORE PUSH1 0x20 ADD SWAP1 DUP2 MSTORE PUSH1 0x20 ADD PUSH0 KECCAK256 SLOAD LT ISZERO PUSH2 0x5BD JUMPI PUSH1 0x40 MLOAD PUSH32 0x8C379A000000000000000000000000000000000000000000000000000000000 DUP2 MSTORE PUSH1 0x4 ADD PUSH2 0x5B4 SWAP1 PUSH2 0x12DE JUMP JUMPDEST PUSH1 0x40 MLOAD DUP1 SWAP2 SUB SWAP1 REVERT JUMPDEST DUP2 PUSH1 0x5 PUSH0 DUP7 PUSH20 0xFFFFFFFFFFFFFFFFFFFFFFFFFFFFFFFFFFFFFFFF AND PUSH20 0xFFFFFFFFFFFFFFFFFFFFFFFFFFFFFFFFFFFFFFFF AND DUP2 MSTORE PUSH1 0x20 ADD SWAP1 DUP2 MSTORE PUSH1 0x20 ADD PUSH0 KECCAK256 PUSH0 CALLER PUSH20 0xFFFFFFFFFFFFFFFFFFFFFFFFFFFFFFFFFFFFFFFF AND PUSH20 0xFFFFFFFFFFFFFFFFFFFFFFFFFFFFFFFFFFFFFFFF AND DUP2 MSTORE PUSH1 0x20 ADD SWAP1 DUP2 MSTORE PUSH1 0x20 ADD PUSH0 KECCAK256 SLOAD LT ISZERO PUSH2 0x641 JUMPI PUSH0 PUSH0 REVERT JUMPDEST DUP2 PUSH1 0x4 PUSH0 DUP7 PUSH20 0xFFFFFFFFFFFFFFFFFFFFFFFFFFFFFFFFFFFFFFFF AND PUSH20 0xFFFFFFFFFFFFFFFFFFFFFFFFFFFFFFFFFFFFFFFF AND DUP2 MSTORE PUSH1 0x20 ADD SWAP1 DUP2 MSTORE PUSH1 0x20 ADD PUSH0 KECCAK256 PUSH0 DUP3 DUP3 SLOAD PUSH2 0x68D SWAP2 SWAP1 PUSH2 0x1329 JUMP JUMPDEST SWAP3 POP POP DUP2 SWAP1 SSTORE POP DUP2 PUSH1 0x4 PUSH0 DUP6 PUSH20 0xFFFFFFFFFFFFFFFFFFFFFFFFFFFFFFFFFFFFFFFF AND PUSH20 0xFFFFFFFFFFFFFFFFFFFFFFFFFFFFFFFFFFFFFFFF AND DUP2 MSTORE PUSH1 0x20 ADD SWAP1 DUP2 MSTORE PUSH1 0x20 ADD PUSH0 KECCAK256 PUSH0 DUP3 DUP3 SLOAD PUSH2 0x6E0 SWAP2 SWAP1 PUSH2 0x135C JUMP JUMPDEST SWAP3 POP POP DUP2 SWAP1 SSTORE POP DUP2 PUSH1 0x5 PUSH0 DUP7 PUSH20 0xFFFFFFFFFFFFFFFFFFFFFFFFFFFFFFFFFFFFFFFF AND PUSH20 0xFFFFFFFFFFFFFFFFFFFFFFFFFFFFFFFFFFFFFFFF AND DUP2 MSTORE PUSH1 0x20 ADD SWAP1 DUP2 MSTORE PUSH1 0x20 ADD PUSH0 KECCAK256 PUSH0 CALLER PUSH20 0xFFFFFFFFFFFFFFFFFFFFFFFFFFFFFFFFFFFFFFFF AND PUSH20 0xFFFFFFFFFFFFFFFFFFFFFFFFFFFFFFFFFFFFFFFF AND DUP2 MSTORE PUSH1 0x20 ADD SWAP1 DUP2 MSTORE PUSH1 0x20 ADD PUSH0 KECCAK256 PUSH0 DUP3 DUP3 SLOAD PUSH2 0x76E SWAP2 SWAP1 PUSH2 0x1329 JUMP JUMPDEST SWAP3 POP POP DUP2 SWAP1 SSTORE POP DUP3 PUSH20 0xFFFFFFFFFFFFFFFFFFFFFFFFFFFFFFFFFFFFFFFF AND DUP5 PUSH20 0xFFFFFFFFFFFFFFFFFFFFFFFFFFFFFFFFFFFFFFFF AND PUSH32 0xDDF252AD1BE2C89B69C2B068FC378DAA952BA7F163C4A11628F55A4DF523B3EF DUP5 PUSH1 0x40 MLOAD PUSH2 0x7D2 SWAP2 SWAP1 PUSH2 0xFA6 JUMP JUMPDEST PUSH1 0x40 MLOAD DUP1 SWAP2 SUB SWAP1 LOG3 PUSH1 0x1 SWAP1 POP SWAP4 SWAP3 POP POP POP JUMP JUMPDEST PUSH1 0x2 PUSH0 SWAP1 SLOAD SWAP1 PUSH2 0x100 EXP SWAP1 DIV PUSH1 0xFF AND DUP2 JUMP JUMPDEST PUSH1 0x6 PUSH0 SWAP1 SLOAD SWAP1 PUSH2 0x100 EXP SWAP1 DIV PUSH20 0xFFFFFFFFFFFFFFFFFFFFFFFFFFFFFFFFFFFFFFFF AND PUSH20 0xFFFFFFFFFFFFFFFFFFFFFFFFFFFFFFFFFFFFFFFF AND CALLER PUSH20 0xFFFFFFFFFFFFFFFFFFFFFFFFFFFFFFFFFFFFFFFF AND EQ PUSH2 0x886 JUMPI PUSH1 0x40 MLOAD PUSH32 0x8C379A000000000000000000000000000000000000000000000000000000000 DUP2 MSTORE PUSH1 0x4 ADD PUSH2 0x87D SWAP1 PUSH2 0x13D9 JUMP JUMPDEST PUSH1 0x40 MLOAD DUP1 SWAP2 SUB SWAP1 REVERT JUMPDEST PUSH0 PUSH20 0xFFFFFFFFFFFFFFFFFFFFFFFFFFFFFFFFFFFFFFFF AND DUP3 PUSH20 0xFFFFFFFFFFFFFFFFFFFFFFFFFFFFFFFFFFFFFFFF AND SUB PUSH2 0x8F4 JUMPI PUSH1 0x40 MLOAD PUSH32 0x8C379A000000000000000000000000000000000000000000000000000000000 DUP2 MSTORE PUSH1 0x4 ADD PUSH2 0x8EB SWAP1 PUSH2 0x1441 JUMP JUMPDEST PUSH1 0x40 MLOAD DUP1 SWAP2 SUB SWAP1 REVERT JUMPDEST DUP1 PUSH1 0x3 PUSH0 DUP3 DUP3 SLOAD PUSH2 0x905 SWAP2 SWAP1 PUSH2 0x135C JUMP JUMPDEST SWAP3 POP POP DUP2 SWAP1 SSTORE POP DUP1 PUSH1 0x4 PUSH0 DUP5 PUSH20 0xFFFFFFFFFFFFFFFFFFFFFFFFFFFFFFFFFFFFFFFF AND PUSH20 0xFFFFFFFFFFFFFFFFFFFFFFFFFFFFFFFFFFFFFFFF AND DUP2 MSTORE PUSH1 0x20 ADD SWAP1 DUP2 MSTORE PUSH1 0x20 ADD PUSH0 KECCAK256 PUSH0 DUP3 DUP3 SLOAD PUSH2 0x958 SWAP2 SWAP1 PUSH2 0x135C JUMP JUMPDEST SWAP3 POP POP DUP2 SWAP1 SSTORE POP DUP2 PUSH20 0xFFFFFFFFFFFFFFFFFFFFFFFFFFFFFFFFFFFFFFFF AND PUSH0 PUSH20 0xFFFFFFFFFFFFFFFFFFFFFFFFFFFFFFFFFFFFFFFF AND PUSH32 0xDDF252AD1BE2C89B69C2B068FC378DAA952BA7F163C4A11628F55A4DF523B3EF DUP4 PUSH1 0x40 MLOAD PUSH2 0x9BC SWAP2 SWAP1 PUSH2 0xFA6 JUMP JUMPDEST PUSH1 0x40 MLOAD DUP1 SWAP2 SUB SWAP1 LOG3 POP POP JUMP JUMPDEST DUP1 PUSH1 0x4 PUSH0 CALLER PUSH20 0xFFFFFFFFFFFFFFFFFFFFFFFFFFFFFFFFFFFFFFFF AND PUSH20 0xFFFFFFFFFFFFFFFFFFFFFFFFFFFFFFFFFFFFFFFF AND DUP2 MSTORE PUSH1 0x20 ADD SWAP1 DUP2 MSTORE PUSH1 0x20 ADD PUSH0 KECCAK256 SLOAD LT ISZERO PUSH2 0xA48 JUMPI PUSH1 0x40 MLOAD PUSH32 0x8C379A000000000000000000000000000000000000000000000000000000000 DUP2 MSTORE PUSH1 0x4 ADD PUSH2 0xA3F SWAP1 PUSH2 0x14A9 JUMP JUMPDEST PUSH1 0x40 MLOAD DUP1 SWAP2 SUB SWAP1 REVERT JUMPDEST DUP1 PUSH1 0x3 PUSH0 DUP3 DUP3 SLOAD PUSH2 0xA59 SWAP2 SWAP1 PUSH2 0x1329 JUMP JUMPDEST SWAP3 POP POP DUP2 SWAP1 SSTORE POP DUP1 PUSH1 0x4 PUSH0 CALLER PUSH20 0xFFFFFFFFFFFFFFFFFFFFFFFFFFFFFFFFFFFFFFFF AND PUSH20 0xFFFFFFFFFFFFFFFFFFFFFFFFFFFFFFFFFFFFFFFF AND DUP2 MSTORE PUSH1 0x20 ADD SWAP1 DUP2 MSTORE PUSH1 0x20 ADD PUSH0 KECCAK256 PUSH0 DUP3 DUP3 SLOAD PUSH2 0xAAC SWAP2 SWAP1 PUSH2 0x1329 JUMP JUMPDEST SWAP3 POP POP DUP2 SWAP1 SSTORE POP PUSH0 PUSH20 0xFFFFFFFFFFFFFFFFFFFFFFFFFFFFFFFFFFFFFFFF AND CALLER PUSH20 0xFFFFFFFFFFFFFFFFFFFFFFFFFFFFFFFFFFFFFFFF AND PUSH32 0xDDF252AD1BE2C89B69C2B068FC378DAA952BA7F163C4A11628F55A4DF523B3EF DUP4 PUSH1 0x40 MLOAD PUSH2 0xB10 SWAP2 SWAP1 PUSH2 0xFA6 JUMP JUMPDEST PUSH1 0x40 MLOAD DUP1 SWAP2 SUB SWAP1 LOG3 POP JUMP JUMPDEST PUSH1 0x4 PUSH1 0x20 MSTORE DUP1 PUSH0 MSTORE PUSH1 0x40 PUSH0 KECCAK256 PUSH0 SWAP2 POP SWAP1 POP SLOAD DUP2 JUMP JUMPDEST PUSH1 0x6 PUSH0 SWAP1 SLOAD SWAP1 PUSH2 0x100 EXP SWAP1 DIV PUSH20 0xFFFFFFFFFFFFFFFFFFFFFFFFFFFFFFFFFFFFFFFF AND DUP2 JUMP JUMPDEST PUSH1 0x1 DUP1 SLOAD PUSH2 0xB62 SWAP1 PUSH2 0x112C JUMP JUMPDEST DUP1 PUSH1 0x1F ADD PUSH1 0x20 DUP1 SWAP2 DIV MUL PUSH1 0x20 ADD PUSH1 0x40 MLOAD SWAP1 DUP2 ADD PUSH1 0x40 MSTORE DUP1 SWAP3 SWAP2 SWAP1 DUP2 DUP2 MSTORE PUSH1 0x20 ADD DUP3 DUP1 SLOAD PUSH2 0xB8E SWAP1 PUSH2 0x112C JUMP JUMPDEST DUP1 ISZERO PUSH2 0xBD9 JUMPI DUP1 PUSH1 0x1F LT PUSH2 0xBB0 JUMPI PUSH2 0x100 DUP1 DUP4 SLOAD DIV MUL DUP4 MSTORE SWAP2 PUSH1 0x20 ADD SWAP2 PUSH2 0xBD9 JUMP JUMPDEST DUP3 ADD SWAP2 SWAP1 PUSH0 MSTORE PUSH1 0x20 PUSH0 KECCAK256 SWAP1 JUMPDEST DUP2 SLOAD DUP2 MSTORE SWAP1 PUSH1 0x1 ADD SWAP1 PUSH1 0x20 ADD DUP1 DUP4 GT PUSH2 0xBBC JUMPI DUP3 SWAP1 SUB PUSH1 0x1F AND DUP3 ADD SWAP2 JUMPDEST POP POP POP POP POP DUP2 JUMP JUMPDEST PUSH0 PUSH0 PUSH20 0xFFFFFFFFFFFFFFFFFFFFFFFFFFFFFFFFFFFFFFFF AND DUP4 PUSH20 0xFFFFFFFFFFFFFFFFFFFFFFFFFFFFFFFFFFFFFFFF AND SUB PUSH2 0xC50 JUMPI PUSH1 0x40 MLOAD PUSH32 0x8C379A000000000000000000000000000000000000000000000000000000000 DUP2 MSTORE PUSH1 0x4 ADD PUSH2 0xC47 SWAP1 PUSH2 0x1511 JUMP JUMPDEST PUSH1 0x40 MLOAD DUP1 SWAP2 SUB SWAP1 REVERT JUMPDEST DUP2 PUSH1 0x4 PUSH0 CALLER PUSH20 0xFFFFFFFFFFFFFFFFFFFFFFFFFFFFFFFFFFFFFFFF AND PUSH20 0xFFFFFFFFFFFFFFFFFFFFFFFFFFFFFFFFFFFFFFFF AND DUP2 MSTORE PUSH1 0x20 ADD SWAP1 DUP2 MSTORE PUSH1 0x20 ADD PUSH0 KECCAK256 SLOAD LT ISZERO PUSH2 0xCD0 JUMPI PUSH1 0x40 MLOAD PUSH32 0x8C379A000000000000000000000000000000000000000000000000000000000 DUP2 MSTORE PUSH1 0x4 ADD PUSH2 0xCC7 SWAP1 PUSH2 0x12DE JUMP JUMPDEST PUSH1 0x40 MLOAD DUP1 SWAP2 SUB SWAP1 REVERT JUMPDEST DUP2 PUSH1 0x4 PUSH0 CALLER PUSH20 0xFFFFFFFFFFFFFFFFFFFFFFFFFFFFFFFFFFFFFFFF AND PUSH20 0xFFFFFFFFFFFFFFFFFFFFFFFFFFFFFFFFFFFFFFFF AND DUP2 MSTORE PUSH1 0x20 ADD SWAP1 DUP2 MSTORE PUSH1 0x20 ADD PUSH0 KECCAK256 PUSH0 DUP3 DUP3 SLOAD PUSH2 0xD1C SWAP2 SWAP1 PUSH2 0x1329 JUMP JUMPDEST SWAP3 POP POP DUP2 SWAP1 SSTORE POP DUP2 PUSH1 0x4 PUSH0 DUP6 PUSH20 0xFFFFFFFFFFFFFFFFFFFFFFFFFFFFFFFFFFFFFFFF AND PUSH20 0xFFFFFFFFFFFFFFFFFFFFFFFFFFFFFFFFFFFFFFFF AND DUP2 MSTORE PUSH1 0x20 ADD SWAP1 DUP2 MSTORE PUSH1 0x20 ADD PUSH0 KECCAK256 PUSH0 DUP3 DUP3 SLOAD PUSH2 0xD6F SWAP2 SWAP1 PUSH2 0x135C JUMP JUMPDEST SWAP3 POP POP DUP2 SWAP1 SSTORE POP DUP3 PUSH20 0xFFFFFFFFFFFFFFFFFFFFFFFFFFFFFFFFFFFFFFFF AND CALLER PUSH20 0xFFFFFFFFFFFFFFFFFFFFFFFFFFFFFFFFFFFFFFFF AND PUSH32 0xDDF252AD1BE2C89B69C2B068FC378DAA952BA7F163C4A11628F55A4DF523B3EF DUP5 PUSH1 0x40 MLOAD PUSH2 0xDD3 SWAP2 SWAP1 PUSH2 0xFA6 JUMP JUMPDEST PUSH1 0x40 MLOAD DUP1 SWAP2 SUB SWAP1 LOG3 PUSH1 0x1 SWAP1 POP SWAP3 SWAP2 POP POP JUMP JUMPDEST PUSH1 0x5 PUSH1 0x20 MSTORE DUP2 PUSH0 MSTORE PUSH1 0x40 PUSH0 KECCAK256 PUSH1 0x20 MSTORE DUP1 PUSH0 MSTORE PUSH1 0x40 PUSH0 KECCAK256 PUSH0 SWAP2 POP SWAP2 POP POP SLOAD DUP2 JUMP JUMPDEST PUSH0 DUP2 MLOAD SWAP1 POP SWAP2 SWAP1 POP JUMP JUMPDEST PUSH0 DUP3 DUP3 MSTORE PUSH1 0x20 DUP3 ADD SWAP1 POP SWAP3 SWAP2 POP POP JUMP JUMPDEST DUP3 DUP2 DUP4 MCOPY PUSH0 DUP4 DUP4 ADD MSTORE POP POP POP JUMP JUMPDEST PUSH0 PUSH1 0x1F NOT PUSH1 0x1F DUP4 ADD AND SWAP1 POP SWAP2 SWAP1 POP JUMP JUMPDEST PUSH0 PUSH2 0xE47 DUP3 PUSH2 0xE05 JUMP JUMPDEST PUSH2 0xE51 DUP2 DUP6 PUSH2 0xE0F JUMP JUMPDEST SWAP4 POP PUSH2 0xE61 DUP2 DUP6 PUSH1 0x20 DUP7 ADD PUSH2 0xE1F JUMP JUMPDEST PUSH2 0xE6A DUP2 PUSH2 0xE2D JUMP JUMPDEST DUP5 ADD SWAP2 POP POP SWAP3 SWAP2 POP POP JUMP JUMPDEST PUSH0 PUSH1 0x20 DUP3 ADD SWAP1 POP DUP2 DUP2 SUB PUSH0 DUP4 ADD MSTORE PUSH2 0xE8D DUP2 DUP5 PUSH2 0xE3D JUMP JUMPDEST SWAP1 POP SWAP3 SWAP2 POP POP JUMP JUMPDEST PUSH0 PUSH0 REVERT JUMPDEST PUSH0 PUSH20 0xFFFFFFFFFFFFFFFFFFFFFFFFFFFFFFFFFFFFFFFF DUP3 AND SWAP1 POP SWAP2 SWAP1 POP JUMP JUMPDEST PUSH0 PUSH2 0xEC2 DUP3 PUSH2 0xE99 JUMP JUMPDEST SWAP1 POP SWAP2 SWAP1 POP JUMP JUMPDEST PUSH2 0xED2 DUP2 PUSH2 0xEB8 JUMP JUMPDEST DUP2 EQ PUSH2 0xEDC JUMPI PUSH0 PUSH0 REVERT JUMPDEST POP JUMP JUMPDEST PUSH0 DUP2 CALLDATALOAD SWAP1 POP PUSH2 0xEED DUP2 PUSH2 0xEC9 JUMP JUMPDEST SWAP3 SWAP2 POP POP JUMP JUMPDEST PUSH0 DUP2 SWAP1 POP SWAP2 SWAP1 POP JUMP JUMPDEST PUSH2 0xF05 DUP2 PUSH2 0xEF3 JUMP JUMPDEST DUP2 EQ PUSH2 0xF0F JUMPI PUSH0 PUSH0 REVERT JUMPDEST POP JUMP JUMPDEST PUSH0 DUP2 CALLDATALOAD SWAP1 POP PUSH2 0xF20 DUP2 PUSH2 0xEFC JUMP JUMPDEST SWAP3 SWAP2 POP POP JUMP JUMPDEST PUSH0 PUSH0 PUSH1 0x40 DUP4 DUP6 SUB SLT ISZERO PUSH2 0xF3C JUMPI PUSH2 0xF3B PUSH2 0xE95 JUMP JUMPDEST JUMPDEST PUSH0 PUSH2 0xF49 DUP6 DUP3 DUP7 ADD PUSH2 0xEDF JUMP JUMPDEST SWAP3 POP POP PUSH1 0x20 PUSH2 0xF5A DUP6 DUP3 DUP7 ADD PUSH2 0xF12 JUMP JUMPDEST SWAP2 POP POP SWAP3 POP SWAP3 SWAP1 POP JUMP JUMPDEST PUSH0 DUP2 ISZERO ISZERO SWAP1 POP SWAP2 SWAP1 POP JUMP JUMPDEST PUSH2 0xF78 DUP2 PUSH2 0xF64 JUMP JUMPDEST DUP3 MSTORE POP POP JUMP JUMPDEST PUSH0 PUSH1 0x20 DUP3 ADD SWAP1 POP PUSH2 0xF91 PUSH0 DUP4 ADD DUP5 PUSH2 0xF6F JUMP JUMPDEST SWAP3 SWAP2 POP POP JUMP JUMPDEST PUSH2 0xFA0 DUP2 PUSH2 0xEF3 JUMP JUMPDEST DUP3 MSTORE POP POP JUMP JUMPDEST PUSH0 PUSH1 0x20 DUP3 ADD SWAP1 POP PUSH2 0xFB9 PUSH0 DUP4 ADD DUP5 PUSH2 0xF97 JUMP JUMPDEST SWAP3 SWAP2 POP POP JUMP JUMPDEST PUSH0 PUSH0 PUSH0 PUSH1 0x60 DUP5 DUP7 SUB SLT ISZERO PUSH2 0xFD6 JUMPI PUSH2 0xFD5 PUSH2 0xE95 JUMP JUMPDEST JUMPDEST PUSH0 PUSH2 0xFE3 DUP7 DUP3 DUP8 ADD PUSH2 0xEDF JUMP JUMPDEST SWAP4 POP POP PUSH1 0x20 PUSH2 0xFF4 DUP7 DUP3 DUP8 ADD PUSH2 0xEDF JUMP JUMPDEST SWAP3 POP POP PUSH1 0x40 PUSH2 0x1005 DUP7 DUP3 DUP8 ADD PUSH2 0xF12 JUMP JUMPDEST SWAP2 POP POP SWAP3 POP SWAP3 POP SWAP3 JUMP JUMPDEST PUSH0 PUSH1 0xFF DUP3 AND SWAP1 POP SWAP2 SWAP1 POP JUMP JUMPDEST PUSH2 0x1024 DUP2 PUSH2 0x100F JUMP JUMPDEST DUP3 MSTORE POP POP JUMP JUMPDEST PUSH0 PUSH1 0x20 DUP3 ADD SWAP1 POP PUSH2 0x103D PUSH0 DUP4 ADD DUP5 PUSH2 0x101B JUMP JUMPDEST SWAP3 SWAP2 POP POP JUMP JUMPDEST PUSH0 PUSH1 0x20 DUP3 DUP5 SUB SLT ISZERO PUSH2 0x1058 JUMPI PUSH2 0x1057 PUSH2 0xE95 JUMP JUMPDEST JUMPDEST PUSH0 PUSH2 0x1065 DUP5 DUP3 DUP6 ADD PUSH2 0xF12 JUMP JUMPDEST SWAP2 POP POP SWAP3 SWAP2 POP POP JUMP JUMPDEST PUSH0 PUSH1 0x20 DUP3 DUP5 SUB SLT ISZERO PUSH2 0x1083 JUMPI PUSH2 0x1082 PUSH2 0xE95 JUMP JUMPDEST JUMPDEST PUSH0 PUSH2 0x1090 DUP5 DUP3 DUP6 ADD PUSH2 0xEDF JUMP JUMPDEST SWAP2 POP POP SWAP3 SWAP2 POP POP JUMP JUMPDEST PUSH2 0x10A2 DUP2 PUSH2 0xEB8 JUMP JUMPDEST DUP3 MSTORE POP POP JUMP JUMPDEST PUSH0 PUSH1 0x20 DUP3 ADD SWAP1 POP PUSH2 0x10BB PUSH0 DUP4 ADD DUP5 PUSH2 0x1099 JUMP JUMPDEST SWAP3 SWAP2 POP POP JUMP JUMPDEST PUSH0 PUSH0 PUSH1 0x40 DUP4 DUP6 SUB SLT ISZERO PUSH2 0x10D7 JUMPI PUSH2 0x10D6 PUSH2 0xE95 JUMP JUMPDEST JUMPDEST PUSH0 PUSH2 0x10E4 DUP6 DUP3 DUP7 ADD PUSH2 0xEDF JUMP JUMPDEST SWAP3 POP POP PUSH1 0x20 PUSH2 0x10F5 DUP6 DUP3 DUP7 ADD PUSH2 0xEDF JUMP JUMPDEST SWAP2 POP POP SWAP3 POP SWAP3 SWAP1 POP JUMP JUMPDEST PUSH32 0x4E487B7100000000000000000000000000000000000000000000000000000000 PUSH0 MSTORE PUSH1 0x22 PUSH1 0x4 MSTORE PUSH1 0x24 PUSH0 REVERT JUMPDEST PUSH0 PUSH1 0x2 DUP3 DIV SWAP1 POP PUSH1 0x1 DUP3 AND DUP1 PUSH2 0x1143 JUMPI PUSH1 0x7F DUP3 AND SWAP2 POP JUMPDEST PUSH1 0x20 DUP3 LT DUP2 SUB PUSH2 0x1156 JUMPI PUSH2 0x1155 PUSH2 0x10FF JUMP JUMPDEST JUMPDEST POP SWAP2 SWAP1 POP JUMP JUMPDEST PUSH32 0x43616E6E6F7420617070726F7665207A65726F20616464726573730000000000 PUSH0 DUP3 ADD MSTORE POP JUMP JUMPDEST PUSH0 PUSH2 0x1190 PUSH1 0x1B DUP4 PUSH2 0xE0F JUMP JUMPDEST SWAP2 POP PUSH2 0x119B DUP3 PUSH2 0x115C JUMP JUMPDEST PUSH1 0x20 DUP3 ADD SWAP1 POP SWAP2 SWAP1 POP JUMP JUMPDEST PUSH0 PUSH1 0x20 DUP3 ADD SWAP1 POP DUP2 DUP2 SUB PUSH0 DUP4 ADD MSTORE PUSH2 0x11BD DUP2 PUSH2 0x1184 JUMP JUMPDEST SWAP1 POP SWAP2 SWAP1 POP JUMP JUMPDEST PUSH32 0x46726F6D207A65726F2061646472657373000000000000000000000000000000 PUSH0 DUP3 ADD MSTORE POP JUMP JUMPDEST PUSH0 PUSH2 0x11F8 PUSH1 0x11 DUP4 PUSH2 0xE0F JUMP JUMPDEST SWAP2 POP PUSH2 0x1203 DUP3 PUSH2 0x11C4 JUMP JUMPDEST PUSH1 0x20 DUP3 ADD SWAP1 POP SWAP2 SWAP1 POP JUMP JUMPDEST PUSH0 PUSH1 0x20 DUP3 ADD SWAP1 POP DUP2 DUP2 SUB PUSH0 DUP4 ADD MSTORE PUSH2 0x1225 DUP2 PUSH2 0x11EC JUMP JUMPDEST SWAP1 POP SWAP2 SWAP1 POP JUMP JUMPDEST PUSH32 0x546F207A65726F20616464726573730000000000000000000000000000000000 PUSH0 DUP3 ADD MSTORE POP JUMP JUMPDEST PUSH0 PUSH2 0x1260 PUSH1 0xF DUP4 PUSH2 0xE0F JUMP JUMPDEST SWAP2 POP PUSH2 0x126B DUP3 PUSH2 0x122C JUMP JUMPDEST PUSH1 0x20 DUP3 ADD SWAP1 POP SWAP2 SWAP1 POP JUMP JUMPDEST PUSH0 PUSH1 0x20 DUP3 ADD SWAP1 POP DUP2 DUP2 SUB PUSH0 DUP4 ADD MSTORE PUSH2 0x128D DUP2 PUSH2 0x1254 JUMP JUMPDEST SWAP1 POP SWAP2 SWAP1 POP JUMP JUMPDEST PUSH32 0x496E73756666696369656E742062616C616E6365000000000000000000000000 PUSH0 DUP3 ADD MSTORE POP JUMP JUMPDEST PUSH0 PUSH2 0x12C8 PUSH1 0x14 DUP4 PUSH2 0xE0F JUMP JUMPDEST SWAP2 POP PUSH2 0x12D3 DUP3 PUSH2 0x1294 JUMP JUMPDEST PUSH1 0x20 DUP3 ADD SWAP1 POP SWAP2 SWAP1 POP JUMP JUMPDEST PUSH0 PUSH1 0x20 DUP3 ADD SWAP1 POP DUP2 DUP2 SUB PUSH0 DUP4 ADD MSTORE PUSH2 0x12F5 DUP2 PUSH2 0x12BC JUMP JUMPDEST SWAP1 POP SWAP2 SWAP1 POP JUMP JUMPDEST PUSH32 0x4E487B7100000000000000000000000000000000000000000000000000000000 PUSH0 MSTORE PUSH1 0x11 PUSH1 0x4 MSTORE PUSH1 0x24 PUSH0 REVERT JUMPDEST PUSH0 PUSH2 0x1333 DUP3 PUSH2 0xEF3 JUMP JUMPDEST SWAP2 POP PUSH2 0x133E DUP4 PUSH2 0xEF3 JUMP JUMPDEST SWAP3 POP DUP3 DUP3 SUB SWAP1 POP DUP2 DUP2 GT ISZERO PUSH2 0x1356 JUMPI PUSH2 0x1355 PUSH2 0x12FC JUMP JUMPDEST JUMPDEST SWAP3 SWAP2 POP POP JUMP JUMPDEST PUSH0 PUSH2 0x1366 DUP3 PUSH2 0xEF3 JUMP JUMPDEST SWAP2 POP PUSH2 0x1371 DUP4 PUSH2 0xEF3 JUMP JUMPDEST SWAP3 POP DUP3 DUP3 ADD SWAP1 POP DUP1 DUP3 GT ISZERO PUSH2 0x1389 JUMPI PUSH2 0x1388 PUSH2 0x12FC JUMP JUMPDEST JUMPDEST SWAP3 SWAP2 POP POP JUMP JUMPDEST PUSH32 0x4F6E6C79206F776E65722063616E2063616C6C20746869730000000000000000 PUSH0 DUP3 ADD MSTORE POP JUMP JUMPDEST PUSH0 PUSH2 0x13C3 PUSH1 0x18 DUP4 PUSH2 0xE0F JUMP JUMPDEST SWAP2 POP PUSH2 0x13CE DUP3 PUSH2 0x138F JUMP JUMPDEST PUSH1 0x20 DUP3 ADD SWAP1 POP SWAP2 SWAP1 POP JUMP JUMPDEST PUSH0 PUSH1 0x20 DUP3 ADD SWAP1 POP DUP2 DUP2 SUB PUSH0 DUP4 ADD MSTORE PUSH2 0x13F0 DUP2 PUSH2 0x13B7 JUMP JUMPDEST SWAP1 POP SWAP2 SWAP1 POP JUMP JUMPDEST PUSH32 0x43616E6E6F74206D696E74207A65726F20616464726573730000000000000000 PUSH0 DUP3 ADD MSTORE POP JUMP JUMPDEST PUSH0 PUSH2 0x142B PUSH1 0x18 DUP4 PUSH2 0xE0F JUMP JUMPDEST SWAP2 POP PUSH2 0x1436 DUP3 PUSH2 0x13F7 JUMP JUMPDEST PUSH1 0x20 DUP3 ADD SWAP1 POP SWAP2 SWAP1 POP JUMP JUMPDEST PUSH0 PUSH1 0x20 DUP3 ADD SWAP1 POP DUP2 DUP2 SUB PUSH0 DUP4 ADD MSTORE PUSH2 0x1458 DUP2 PUSH2 0x141F JUMP JUMPDEST SWAP1 POP SWAP2 SWAP1 POP JUMP JUMPDEST PUSH32 0x496E73756666696369656E742062616C616E636520746F206275726E00000000 PUSH0 DUP3 ADD MSTORE POP JUMP JUMPDEST PUSH0 PUSH2 0x1493 PUSH1 0x1C DUP4 PUSH2 0xE0F JUMP JUMPDEST SWAP2 POP PUSH2 0x149E DUP3 PUSH2 0x145F JUMP JUMPDEST PUSH1 0x20 DUP3 ADD SWAP1 POP SWAP2 SWAP1 POP JUMP JUMPDEST PUSH0 PUSH1 0x20 DUP3 ADD SWAP1 POP DUP2 DUP2 SUB PUSH0 DUP4 ADD MSTORE PUSH2 0x14C0 DUP2 PUSH2 0x1487 JUMP JUMPDEST SWAP1 POP SWAP2 SWAP1 POP JUMP JUMPDEST PUSH32 0x43616E6E6F74207472616E7366657220746F207A65726F206164647265737300 PUSH0 DUP3 ADD MSTORE POP JUMP JUMPDEST PUSH0 PUSH2 0x14FB PUSH1 0x1F DUP4 PUSH2 0xE0F JUMP JUMPDEST SWAP2 POP PUSH2 0x1506 DUP3 PUSH2 0x14C7 JUMP JUMPDEST PUSH1 0x20 DUP3 ADD SWAP1 POP SWAP2 SWAP1 POP JUMP JUMPDEST PUSH0 PUSH1 0x20 DUP3 ADD SWAP1 POP DUP2 DUP2 SUB PUSH0 DUP4 ADD MSTORE PUSH2 0x1528 DUP2 PUSH2 0x14EF JUMP JUMPDEST SWAP1 POP SWAP2 SWAP1 POP JUMP INVALID LOG2 PUSH5 0x6970667358 0x22 SLT KECCAK256 SUB 0xD2 0xB4 PUSH30 0x74F192DF56A08A49EE86F0855FDB83C9935F5163653064616B53ECC06473 PUSH16 0x6C634300081E00330000000000000000 "
				},
				"gasEstimates": {
					"creation": {
						"codeDepositCost": "1095400",
						"executionCost": "infinite",
						"totalCost": "infinite"
					},
					"external": {
						"allowance(address,address)": "infinite",
						"approve(address,uint256)": "infinite",
						"balanceOf(address)": "2824",
						"burn(uint256)": "infinite",
						"decimals()": "2555",
						"mint(address,uint256)": "infinite",
						"name()": "infinite",
						"owner()": "2552",
						"symbol()": "infinite",
						"totalSupply()": "2470",
						"transfer(address,uint256)": "infinite",
						"transferFrom(address,address,uint256)": "infinite"
					}
				},
				"methodIdentifiers": {
					"allowance(address,address)": "dd62ed3e",
					"approve(address,uint256)": "095ea7b3",
					"balanceOf(address)": "70a08231",
					"burn(uint256)": "42966c68",
					"decimals()": "313ce567",
					"mint(address,uint256)": "40c10f19",
					"name()": "06fdde03",
					"owner()": "8da5cb5b",
					"symbol()": "95d89b41",
					"totalSupply()": "18160ddd",
					"transfer(address,uint256)": "a9059cbb",
					"transferFrom(address,address,uint256)": "23b872dd"
				}
			},
			"storageLayout": {
				"storage": [
					{
						"astId": 3,
						"contract": "lesson/lesson05/MyToken.sol:MyToken",
						"label": "name",
						"offset": 0,
						"slot": "0",
						"type": "t_string_storage"
					},
					{
						"astId": 5,
						"contract": "lesson/lesson05/MyToken.sol:MyToken",
						"label": "symbol",
						"offset": 0,
						"slot": "1",
						"type": "t_string_storage"
					},
					{
						"astId": 7,
						"contract": "lesson/lesson05/MyToken.sol:MyToken",
						"label": "decimals",
						"offset": 0,
						"slot": "2",
						"type": "t_uint8"
					},
					{
						"astId": 9,
						"contract": "lesson/lesson05/MyToken.sol:MyToken",
						"label": "totalSupply",
						"offset": 0,
						"slot": "3",
						"type": "t_uint256"
					},
					{
						"astId": 13,
						"contract": "lesson/lesson05/MyToken.sol:MyToken",
						"label": "balanceOf",
						"offset": 0,
						"slot": "4",
						"type": "t_mapping(t_address,t_uint256)"
					},
					{
						"astId": 19,
						"contract": "lesson/lesson05/MyToken.sol:MyToken",
						"label": "allowance",
						"offset": 0,
						"slot": "5",
						"type": "t_mapping(t_address,t_mapping(t_address,t_uint256))"
					},
					{
						"astId": 21,
						"contract": "lesson/lesson05/MyToken.sol:MyToken",
						"label": "owner",
						"offset": 0,
						"slot": "6",
						"type": "t_address"
					}
				],
				"types": {
					"t_address": {
						"encoding": "inplace",
						"label": "address",
						"numberOfBytes": "20"
					},
					"t_mapping(t_address,t_mapping(t_address,t_uint256))": {
						"encoding": "mapping",
						"key": "t_address",
						"label": "mapping(address => mapping(address => uint256))",
						"numberOfBytes": "32",
						"value": "t_mapping(t_address,t_uint256)"
					},
					"t_mapping(t_address,t_uint256)": {
						"encoding": "mapping",
						"key": "t_address",
						"label": "mapping(address => uint256)",
						"numberOfBytes": "32",
						"value": "t_uint256"
					},
					"t_string_storage": {
						"encoding": "bytes",
						"label": "string",
						"numberOfBytes": "32"
					},
					"t_uint256": {
						"encoding": "inplace",
						"label": "uint256",
						"numberOfBytes": "32"
					},
					"t_uint8": {
						"encoding": "inplace",
						"label": "uint8",
						"numberOfBytes": "1"
					}
				}
			},
			"userdoc": {
				"kind": "user",
				"methods": {},
				"version": 1
			}
		}
	}
}