{
	"lesson/lesson10/NFTMarketplace.sol": {
		"NFTMarketplace": {
			"abi": [
				{
					"inputs": [
						{
							"internalType": "address",
							"name": "_feeRecipient",
							"type": "address"
						}
					],
					"stateMutability": "nonpayable",
					"type": "constructor"
				},
				{
					"anonymous": false,
					"inputs": [
						{
							"indexed": true,
							"internalType": "uint256",
							"name": "auctionId",
							"type": "uint256"
						},
						{
							"indexed": true,
							"internalType": "address",
							"name": "seller",
							"type": "address"
						},
						{
							"indexed": true,
							"internalType": "address",
							"name": "nftContract",
							"type": "address"
						},
						{
							"indexed": false,
							"internalType": "uint256",
							"name": "tokenId",
							"type": "uint256"
						},
						{
							"indexed": false,
							"internalType": "uint256",
							"name": "startPrice",
							"type": "uint256"
						},
						{
							"indexed": false,
							"internalType": "uint256",
							"name": "endTime",
							"type": "uint256"
						}
					],
					"name": "AuctionCreated",
					"type": "event"
				},
				{
					"anonymous": false,
					"inputs": [
						{
							"indexed": true,
							"internalType": "uint256",
							"name": "auctionId",
							"type": "uint256"
						},
						{
							"indexed": true,
							"internalType": "address",
							"name": "winner",
							"type": "address"
						},
						{
							"indexed": false,
							"internalType": "uint256",
							"name": "finalPrice",
							"type": "uint256"
						}
					],
					"name": "AuctionEnded",
					"type": "event"
				},
				{
					"anonymous": false,
					"inputs": [
						{
							"indexed": true,
							"internalType": "uint256",
							"name": "auctionId",
							"type": "uint256"
						},
						{
							"indexed": true,
							"internalType": "address",
							"name": "bidder",
							"type": "address"
						},
						{
							"indexed": false,
							"internalType": "uint256",
							"name": "amount",
							"type": "uint256"
						}
					],
					"name": "BidPlaced",
					"type": "event"
				},
				{
					"anonymous": false,
					"inputs": [
						{
							"indexed": true,
							"internalType": "uint256",
							"name": "listingId",
							"type": "uint256"
						}
					],
					"name": "NFTDelisted",
					"type": "event"
				},
				{
					"anonymous": false,
					"inputs": [
						{
							"indexed": true,
							"internalType": "uint256",
							"name": "listingId",
							"type": "uint256"
						},
						{
							"indexed": true,
							"internalType": "address",
							"name": "seller",
							"type": "address"
						},
						{
							"indexed": true,
							"internalType": "address",
							"name": "nftContract",
							"type": "address"
						},
						{
							"indexed": false,
							"internalType": "uint256",
							"name": "tokenId",
							"type": "uint256"
						},
						{
							"indexed": false,
							"internalType": "uint256",
							"name": "price",
							"type": "uint256"
						}
					],
					"name": "NFTListed",
					"type": "event"
				},
				{
					"anonymous": false,
					"inputs": [
						{
							"indexed": true,
							"internalType": "uint256",
							"name": "listingId",
							"type": "uint256"
						},
						{
							"indexed": true,
							"internalType": "address",
							"name": "buyer",
							"type": "address"
						},
						{
							"indexed": true,
							"internalType": "address",
							"name": "seller",
							"type": "address"
						},
						{
							"indexed": false,
							"internalType": "uint256",
							"name": "price",
							"type": "uint256"
						}
					],
					"name": "NFTSold",
					"type": "event"
				},
				{
					"anonymous": false,
					"inputs": [
						{
							"indexed": true,
							"internalType": "uint256",
							"name": "listingId",
							"type": "uint256"
						},
						{
							"indexed": false,
							"internalType": "uint256",
							"name": "newPrice",
							"type": "uint256"
						}
					],
					"name": "PriceUpdated",
					"type": "event"
				},
				{
					"inputs": [],
					"name": "auctionCounter",
					"outputs": [
						{
							"internalType": "uint256",
							"name": "",
							"type": "uint256"
						}
					],
					"stateMutability": "view",
					"type": "function"
				},
				{
					"inputs": [
						{
							"internalType": "uint256",
							"name": "",
							"type": "uint256"
						}
					],
					"name": "auctions",
					"outputs": [
						{
							"internalType": "address",
							"name": "seller",
							"type": "address"
						},
						{
							"internalType": "address",
							"name": "nftContract",
							"type": "address"
						},
						{
							"internalType": "uint256",
							"name": "tokenId",
							"type": "uint256"
						},
						{
							"internalType": "uint256",
							"name": "startPrice",
							"type": "uint256"
						},
						{
							"internalType": "uint256",
							"name": "highestBid",
							"type": "uint256"
						},
						{
							"internalType": "address",
							"name": "highestBidder",
							"type": "address"
						},
						{
							"internalType": "uint256",
							"name": "endTime",
							"type": "uint256"
						},
						{
							"internalType": "bool",
							"name": "active",
							"type": "bool"
						}
					],
					"stateMutability": "view",
					"type": "function"
				},
				{
					"inputs": [
						{
							"internalType": "uint256",
							"name": "listingId",
							"type": "uint256"
						}
					],
					"name": "buyNFT",
					"outputs": [],
					"stateMutability": "payable",
					"type": "function"
				},
				{
					"inputs": [
						{
							"internalType": "address",
							"name": "nftContract",
							"type": "address"
						},
						{
							"internalType": "uint256",
							"name": "tokenId",
							"type": "uint256"
						},
						{
							"internalType": "uint256",
							"name": "startPrice",
							"type": "uint256"
						},
						{
							"internalType": "uint256",
							"name": "durationHours",
							"type": "uint256"
						}
					],
					"name": "createAuction",
					"outputs": [
						{
							"internalType": "uint256",
							"name": "",
							"type": "uint256"
						}
					],
					"stateMutability": "nonpayable",
					"type": "function"
				},
				{
					"inputs": [
						{
							"internalType": "uint256",
							"name": "listingId",
							"type": "uint256"
						}
					],
					"name": "delistNFT",
					"outputs": [],
					"stateMutability": "nonpayable",
					"type": "function"
				},
				{
					"inputs": [
						{
							"internalType": "uint256",
							"name": "auctionId",
							"type": "uint256"
						}
					],
					"name": "endAuction",
					"outputs": [],
					"stateMutability": "nonpayable",
					"type": "function"
				},
				{
					"inputs": [],
					"name": "feeRecipient",
					"outputs": [
						{
							"internalType": "address",
							"name": "",
							"type": "address"
						}
					],
					"stateMutability": "view",
					"type": "function"
				},
				{
					"inputs": [
						{
							"internalType": "uint256",
							"name": "auctionId",
							"type": "uint256"
						}
					],
					"name": "getAuction",
					"outputs": [
						{
							"internalType": "address",
							"name": "seller",
							"type": "address"
						},
						{
							"internalType": "address",
							"name": "nftContract",
							"type": "address"
						},
						{
							"internalType": "uint256",
							"name": "tokenId",
							"type": "uint256"
						},
						{
							"internalType": "uint256",
							"name": "startPrice",
							"type": "uint256"
						},
						{
							"internalType": "uint256",
							"name": "highestBid",
							"type": "uint256"
						},
						{
							"internalType": "address",
							"name": "highestBidder",
							"type": "address"
						},
						{
							"internalType": "uint256",
							"name": "endTime",
							"type": "uint256"
						},
						{
							"internalType": "bool",
							"name": "active",
							"type": "bool"
						}
					],
					"stateMutability": "view",
					"type": "function"
				},
				{
					"inputs": [
						{
							"internalType": "uint256",
							"name": "listingId",
							"type": "uint256"
						}
					],
					"name": "getListing",
					"outputs": [
						{
							"internalType": "address",
							"name": "seller",
							"type": "address"
						},
						{
							"internalType": "address",
							"name": "nftContract",
							"type": "address"
						},
						{
							"internalType": "uint256",
							"name": "tokenId",
							"type": "uint256"
						},
						{
							"internalType": "uint256",
							"name": "price",
							"type": "uint256"
						},
						{
							"internalType": "bool",
							"name": "active",
							"type": "bool"
						}
					],
					"stateMutability": "view",
					"type": "function"
				},
				{
					"inputs": [
						{
							"internalType": "address",
							"name": "nftContract",
							"type": "address"
						},
						{
							"internalType": "uint256",
							"name": "tokenId",
							"type": "uint256"
						},
						{
							"internalType": "uint256",
							"name": "price",
							"type": "uint256"
						}
					],
					"name": "listNFT",
					"outputs": [
						{
							"internalType": "uint256",
							"name": "",
							"type": "uint256"
						}
					],
					"stateMutability": "nonpayable",
					"type": "function"
				},
				{
					"inputs": [],
					"name": "listingCounter",
					"outputs": [
						{
							"internalType": "uint256",
							"name": "",
							"type": "uint256"
						}
					],
					"stateMutability": "view",
					"type": "function"
				},
				{
					"inputs": [
						{
							"internalType": "uint256",
							"name": "",
							"type": "uint256"
						}
					],
					"name": "listings",
					"outputs": [
						{
							"internalType": "address",
							"name": "seller",
							"type": "address"
						},
						{
							"internalType": "address",
							"name": "nftContract",
							"type": "address"
						},
						{
							"internalType": "uint256",
							"name": "tokenId",
							"type": "uint256"
						},
						{
							"internalType": "uint256",
							"name": "price",
							"type": "uint256"
						},
						{
							"internalType": "bool",
							"name": "active",
							"type": "bool"
						}
					],
					"stateMutability": "view",
					"type": "function"
				},
				{
					"inputs": [
						{
							"internalType": "uint256",
							"name": "",
							"type": "uint256"
						},
						{
							"internalType": "address",
							"name": "",
							"type": "address"
						}
					],
					"name": "pendingReturns",
					"outputs": [
						{
							"internalType": "uint256",
							"name": "",
							"type": "uint256"
						}
					],
					"stateMutability": "view",
					"type": "function"
				},
				{
					"inputs": [
						{
							"internalType": "uint256",
							"name": "auctionId",
							"type": "uint256"
						}
					],
					"name": "placeBid",
					"outputs": [],
					"stateMutability": "payable",
					"type": "function"
				},
				{
					"inputs": [],
					"name": "platformFee",
					"outputs": [
						{
							"internalType": "uint256",
							"name": "",
							"type": "uint256"
						}
					],
					"stateMutability": "view",
					"type": "function"
				},
				{
					"inputs": [
						{
							"internalType": "uint256",
							"name": "newFee",
							"type": "uint256"
						}
					],
					"name": "setPlatformFee",
					"outputs": [],
					"stateMutability": "nonpayable",
					"type": "function"
				},
				{
					"inputs": [
						{
							"internalType": "address",
							"name": "newRecipient",
							"type": "address"
						}
					],
					"name": "updateFeeRecipient",
					"outputs": [],
					"stateMutability": "nonpayable",
					"type": "function"
				},
				{
					"inputs": [
						{
							"internalType": "uint256",
							"name": "listingId",
							"type": "uint256"
						},
						{
							"internalType": "uint256",
							"name": "newPrice",
							"type": "uint256"
						}
					],
					"name": "updatePrice",
					"outputs": [],
					"stateMutability": "nonpayable",
					"type": "function"
				},
				{
					"inputs": [
						{
							"internalType": "uint256",
							"name": "auctionId",
							"type": "uint256"
						}
					],
					"name": "withdrawBid",
					"outputs": [],
					"stateMutability": "nonpayable",
					"type": "function"
				}
			],
			"devdoc": {
				"details": "完整的NFT交易市场合约，支持上架、购买、版税和拍卖功能",
				"kind": "dev",
				"methods": {
					"buyNFT(uint256)": {
						"details": "购买NFT",
						"params": {
							"listingId": "挂单ID"
						}
					},
					"constructor": {
						"details": "构造函数",
						"params": {
							"_feeRecipient": "手续费接收地址"
						}
					},
					"delistNFT(uint256)": {
						"details": "下架NFT",
						"params": {
							"listingId": "挂单ID"
						}
					},
					"endAuction(uint256)": {
						"details": "结束拍卖",
						"params": {
							"auctionId": "拍卖ID"
						}
					},
					"getAuction(uint256)": {
						"details": "查询拍卖信息",
						"params": {
							"auctionId": "拍卖ID"
						},
						"returns": {
							"active": "是否激活",
							"endTime": "结束时间",
							"highestBid": "当前最高出价",
							"highestBidder": "当前最高出价者",
							"nftContract": "NFT合约地址",
							"seller": "卖家地址",
							"startPrice": "起拍价",
							"tokenId": "Token ID"
						}
					},
					"getListing(uint256)": {
						"details": "查询挂单信息",
						"params": {
							"listingId": "挂单ID"
						},
						"returns": {
							"active": "是否激活",
							"nftContract": "NFT合约地址",
							"price": "售价",
							"seller": "卖家地址",
							"tokenId": "tokeID"
						}
					},
					"listNFT(address,uint256,uint256)": {
						"details": "上架NFT",
						"params": {
							"nftContract": "NFT合约地址",
							"price": "售价(wei)",
							"tokenId": "TokeID"
						},
						"returns": {
							"_0": "listingId 挂单ID"
						}
					},
					"placeBid(uint256)": {
						"details": "出价",
						"params": {
							"auctionId": "拍卖ID"
						}
					},
					"setPlatformFee(uint256)": {
						"details": "设置平台手续费",
						"params": {
							"newFee": "新的手续费(基点)"
						}
					},
					"updateFeeRecipient(address)": {
						"details": "更新手续费接收地址",
						"params": {
							"newRecipient": "新的接收地址"
						}
					},
					"updatePrice(uint256,uint256)": {
						"details": "更新挂单价格",
						"params": {
							"listingId": "挂单Id",
							"newPrice": "新价格(wei)"
						}
					},
					"withdrawBid(uint256)": {
						"details": "提取出价退款",
						"params": {
							"auctionId": "拍卖ID"
						}
					}
				},
				"title": "NFTMarketplace",
				"version": 1
			},
			"evm": {
				"assembly": "    /* \"lesson/lesson10/NFTMarketplace.sol\":730:16186  contract NFTMarketplace is ReentrancyGuard {... */\n  mstore(0x40, 0x80)\n    /* \"lesson/lesson10/NFTMarketplace.sol\":1959:1962  250 */\n  0xfa\n    /* \"lesson/lesson10/NFTMarketplace.sol\":1930:1962  uint256 public platformFee = 250 */\n  0x06\n  sstore\n    /* \"lesson/lesson10/NFTMarketplace.sol\":3276:3430  constructor(address _feeRecipient) {... */\n  callvalue\n  dup1\n  iszero\n  tag_1\n  jumpi\n  revert(0x00, 0x00)\ntag_1:\n  pop\n  mload(0x40)\n  sub(codesize, bytecodeSize)\n  dup1\n  bytecodeSize\n  dup4\n  codecopy\n  dup2\n  dup2\n  add\n  0x40\n  mstore\n  dup2\n  add\n  swap1\n  tag_2\n  swap2\n  swap1\n  tag_3\n  jump\t// in\ntag_2:\n    /* \"@openzeppelin/contracts/security/ReentrancyGuard.sol\":1716:1717  1 */\n  0x01\n    /* \"@openzeppelin/contracts/security/ReentrancyGuard.sol\":1821:1828  _status */\n  0x00\n    /* \"@openzeppelin/contracts/security/ReentrancyGuard.sol\":1821:1843  _status = _NOT_ENTERED */\n  dup2\n  swap1\n  sstore\n  pop\n    /* \"lesson/lesson10/NFTMarketplace.sol\":3355:3356  0 */\n  0x00\n    /* \"lesson/lesson10/NFTMarketplace.sol\":3330:3357  _feeRecipient != address(0) */\n  0xffffffffffffffffffffffffffffffffffffffff\n  and\n    /* \"lesson/lesson10/NFTMarketplace.sol\":3330:3343  _feeRecipient */\n  dup2\n    /* \"lesson/lesson10/NFTMarketplace.sol\":3330:3357  _feeRecipient != address(0) */\n  0xffffffffffffffffffffffffffffffffffffffff\n  and\n  sub\n    /* \"lesson/lesson10/NFTMarketplace.sol\":3322:3383  require(_feeRecipient != address(0), \"Invalid fee recipient\") */\n  tag_8\n  jumpi\n  mload(0x40)\n  0x08c379a000000000000000000000000000000000000000000000000000000000\n  dup2\n  mstore\n  0x04\n  add\n  tag_9\n  swap1\n  tag_10\n  jump\t// in\ntag_9:\n  mload(0x40)\n  dup1\n  swap2\n  sub\n  swap1\n  revert\ntag_8:\n    /* \"lesson/lesson10/NFTMarketplace.sol\":3409:3422  _feeRecipient */\n  dup1\n    /* \"lesson/lesson10/NFTMarketplace.sol\":3394:3406  feeRecipient */\n  0x07\n  0x00\n    /* \"lesson/lesson10/NFTMarketplace.sol\":3394:3422  feeRecipient = _feeRecipient */\n  0x0100\n  exp\n  dup2\n  sload\n  dup2\n  0xffffffffffffffffffffffffffffffffffffffff\n  mul\n  not\n  and\n  swap1\n  dup4\n  0xffffffffffffffffffffffffffffffffffffffff\n  and\n  mul\n  or\n  swap1\n  sstore\n  pop\n    /* \"lesson/lesson10/NFTMarketplace.sol\":3276:3430  constructor(address _feeRecipient) {... */\n  pop\n    /* \"lesson/lesson10/NFTMarketplace.sol\":730:16186  contract NFTMarketplace is ReentrancyGuard {... */\n  jump(tag_11)\n    /* \"#utility.yul\":88:205   */\ntag_13:\n    /* \"#utility.yul\":197:198   */\n  0x00\n    /* \"#utility.yul\":194:195   */\n  0x00\n    /* \"#utility.yul\":187:199   */\n  revert\n    /* \"#utility.yul\":334:460   */\ntag_15:\n    /* \"#utility.yul\":371:378   */\n  0x00\n    /* \"#utility.yul\":411:453   */\n  0xffffffffffffffffffffffffffffffffffffffff\n    /* \"#utility.yul\":404:409   */\n  dup3\n    /* \"#utility.yul\":400:454   */\n  and\n    /* \"#utility.yul\":389:454   */\n  swap1\n  pop\n    /* \"#utility.yul\":334:460   */\n  swap2\n  swap1\n  pop\n  jump\t// out\n    /* \"#utility.yul\":466:562   */\ntag_16:\n    /* \"#utility.yul\":503:510   */\n  0x00\n    /* \"#utility.yul\":532:556   */\n  tag_28\n    /* \"#utility.yul\":550:555   */\n  dup3\n    /* \"#utility.yul\":532:556   */\n  tag_15\n  jump\t// in\ntag_28:\n    /* \"#utility.yul\":521:556   */\n  swap1\n  pop\n    /* \"#utility.yul\":466:562   */\n  swap2\n  swap1\n  pop\n  jump\t// out\n    /* \"#utility.yul\":568:690   */\ntag_17:\n    /* \"#utility.yul\":641:665   */\n  tag_30\n    /* \"#utility.yul\":659:664   */\n  dup2\n    /* \"#utility.yul\":641:665   */\n  tag_16\n  jump\t// in\ntag_30:\n    /* \"#utility.yul\":634:639   */\n  dup2\n    /* \"#utility.yul\":631:666   */\n  eq\n    /* \"#utility.yul\":621:684   */\n  tag_31\n  jumpi\n    /* \"#utility.yul\":680:681   */\n  0x00\n    /* \"#utility.yul\":677:678   */\n  0x00\n    /* \"#utility.yul\":670:682   */\n  revert\n    /* \"#utility.yul\":621:684   */\ntag_31:\n    /* \"#utility.yul\":568:690   */\n  pop\n  jump\t// out\n    /* \"#utility.yul\":696:839   */\ntag_18:\n    /* \"#utility.yul\":753:758   */\n  0x00\n    /* \"#utility.yul\":784:790   */\n  dup2\n    /* \"#utility.yul\":778:791   */\n  mload\n    /* \"#utility.yul\":769:791   */\n  swap1\n  pop\n    /* \"#utility.yul\":800:833   */\n  tag_33\n    /* \"#utility.yul\":827:832   */\n  dup2\n    /* \"#utility.yul\":800:833   */\n  tag_17\n  jump\t// in\ntag_33:\n    /* \"#utility.yul\":696:839   */\n  swap3\n  swap2\n  pop\n  pop\n  jump\t// out\n    /* \"#utility.yul\":845:1196   */\ntag_3:\n    /* \"#utility.yul\":915:921   */\n  0x00\n    /* \"#utility.yul\":964:966   */\n  0x20\n    /* \"#utility.yul\":952:961   */\n  dup3\n    /* \"#utility.yul\":943:950   */\n  dup5\n    /* \"#utility.yul\":939:962   */\n  sub\n    /* \"#utility.yul\":935:967   */\n  slt\n    /* \"#utility.yul\":932:1051   */\n  iszero\n  tag_35\n  jumpi\n    /* \"#utility.yul\":970:1049   */\n  tag_36\n  tag_13\n  jump\t// in\ntag_36:\n    /* \"#utility.yul\":932:1051   */\ntag_35:\n    /* \"#utility.yul\":1090:1091   */\n  0x00\n    /* \"#utility.yul\":1115:1179   */\n  tag_37\n    /* \"#utility.yul\":1171:1178   */\n  dup5\n    /* \"#utility.yul\":1162:1168   */\n  dup3\n    /* \"#utility.yul\":1151:1160   */\n  dup6\n    /* \"#utility.yul\":1147:1169   */\n  add\n    /* \"#utility.yul\":1115:1179   */\n  tag_18\n  jump\t// in\ntag_37:\n    /* \"#utility.yul\":1105:1179   */\n  swap2\n  pop\n    /* \"#utility.yul\":1061:1189   */\n  pop\n    /* \"#utility.yul\":845:1196   */\n  swap3\n  swap2\n  pop\n  pop\n  jump\t// out\n    /* \"#utility.yul\":1202:1371   */\ntag_19:\n    /* \"#utility.yul\":1286:1297   */\n  0x00\n    /* \"#utility.yul\":1320:1326   */\n  dup3\n    /* \"#utility.yul\":1315:1318   */\n  dup3\n    /* \"#utility.yul\":1308:1327   */\n  mstore\n    /* \"#utility.yul\":1360:1364   */\n  0x20\n    /* \"#utility.yul\":1355:1358   */\n  dup3\n    /* \"#utility.yul\":1351:1365   */\n  add\n    /* \"#utility.yul\":1336:1365   */\n  swap1\n  pop\n    /* \"#utility.yul\":1202:1371   */\n  swap3\n  swap2\n  pop\n  pop\n  jump\t// out\n    /* \"#utility.yul\":1377:1548   */\ntag_20:\n    /* \"#utility.yul\":1517:1540   */\n  0x496e76616c69642066656520726563697069656e740000000000000000000000\n    /* \"#utility.yul\":1513:1514   */\n  0x00\n    /* \"#utility.yul\":1505:1511   */\n  dup3\n    /* \"#utility.yul\":1501:1515   */\n  add\n    /* \"#utility.yul\":1494:1541   */\n  mstore\n    /* \"#utility.yul\":1377:1548   */\n  pop\n  jump\t// out\n    /* \"#utility.yul\":1554:1920   */\ntag_21:\n    /* \"#utility.yul\":1696:1699   */\n  0x00\n    /* \"#utility.yul\":1717:1784   */\n  tag_41\n    /* \"#utility.yul\":1781:1783   */\n  0x15\n    /* \"#utility.yul\":1776:1779   */\n  dup4\n    /* \"#utility.yul\":1717:1784   */\n  tag_19\n  jump\t// in\ntag_41:\n    /* \"#utility.yul\":1710:1784   */\n  swap2\n  pop\n    /* \"#utility.yul\":1793:1886   */\n  tag_42\n    /* \"#utility.yul\":1882:1885   */\n  dup3\n    /* \"#utility.yul\":1793:1886   */\n  tag_20\n  jump\t// in\ntag_42:\n    /* \"#utility.yul\":1911:1913   */\n  0x20\n    /* \"#utility.yul\":1906:1909   */\n  dup3\n    /* \"#utility.yul\":1902:1914   */\n  add\n    /* \"#utility.yul\":1895:1914   */\n  swap1\n  pop\n    /* \"#utility.yul\":1554:1920   */\n  swap2\n  swap1\n  pop\n  jump\t// out\n    /* \"#utility.yul\":1926:2345   */\ntag_10:\n    /* \"#utility.yul\":2092:2096   */\n  0x00\n    /* \"#utility.yul\":2130:2132   */\n  0x20\n    /* \"#utility.yul\":2119:2128   */\n  dup3\n    /* \"#utility.yul\":2115:2133   */\n  add\n    /* \"#utility.yul\":2107:2133   */\n  swap1\n  pop\n    /* \"#utility.yul\":2179:2188   */\n  dup2\n    /* \"#utility.yul\":2173:2177   */\n  dup2\n    /* \"#utility.yul\":2169:2189   */\n  sub\n    /* \"#utility.yul\":2165:2166   */\n  0x00\n    /* \"#utility.yul\":2154:2163   */\n  dup4\n    /* \"#utility.yul\":2150:2167   */\n  add\n    /* \"#utility.yul\":2143:2190   */\n  mstore\n    /* \"#utility.yul\":2207:2338   */\n  tag_44\n    /* \"#utility.yul\":2333:2337   */\n  dup2\n    /* \"#utility.yul\":2207:2338   */\n  tag_21\n  jump\t// in\ntag_44:\n    /* \"#utility.yul\":2199:2338   */\n  swap1\n  pop\n    /* \"#utility.yul\":1926:2345   */\n  swap2\n  swap1\n  pop\n  jump\t// out\n    /* \"lesson/lesson10/NFTMarketplace.sol\":730:16186  contract NFTMarketplace is ReentrancyGuard {... */\ntag_11:\n  dataSize(sub_0)\n  dup1\n  dataOffset(sub_0)\n  0x00\n  codecopy\n  0x00\n  return\nstop\n\nsub_0: assembly {\n        /* \"lesson/lesson10/NFTMarketplace.sol\":730:16186  contract NFTMarketplace is ReentrancyGuard {... */\n      mstore(0x40, 0x80)\n      jumpi(tag_1, lt(calldatasize, 0x04))\n      shr(0xe0, calldataload(0x00))\n      dup1\n      0x78bd7935\n      gt\n      tag_21\n      jumpi\n      dup1\n      0xad05f1b4\n      gt\n      tag_22\n      jumpi\n      dup1\n      0xad05f1b4\n      eq\n      tag_16\n      jumpi\n      dup1\n      0xb9a2de3a\n      eq\n      tag_17\n      jumpi\n      dup1\n      0xcb917b9c\n      eq\n      tag_18\n      jumpi\n      dup1\n      0xde74e57b\n      eq\n      tag_19\n      jumpi\n      dup1\n      0xf160d369\n      eq\n      tag_20\n      jumpi\n      jump(tag_1)\n    tag_22:\n      dup1\n      0x78bd7935\n      eq\n      tag_11\n      jumpi\n      dup1\n      0x82367b2d\n      eq\n      tag_12\n      jumpi\n      dup1\n      0x8ddac1ef\n      eq\n      tag_13\n      jumpi\n      dup1\n      0x9979ef45\n      eq\n      tag_14\n      jumpi\n      dup1\n      0xa7e76644\n      eq\n      tag_15\n      jumpi\n      jump(tag_1)\n    tag_21:\n      dup1\n      0x46904840\n      gt\n      tag_23\n      jumpi\n      dup1\n      0x46904840\n      eq\n      tag_6\n      jumpi\n      dup1\n      0x51ed8288\n      eq\n      tag_7\n      jumpi\n      dup1\n      0x571a26a0\n      eq\n      tag_8\n      jumpi\n      dup1\n      0x61beb1d7\n      eq\n      tag_9\n      jumpi\n      dup1\n      0x6c2c9c7d\n      eq\n      tag_10\n      jumpi\n      jump(tag_1)\n    tag_23:\n      dup1\n      0x0eaaf4c8\n      eq\n      tag_2\n      jumpi\n      dup1\n      0x107a274a\n      eq\n      tag_3\n      jumpi\n      dup1\n      0x12e8e2c3\n      eq\n      tag_4\n      jumpi\n      dup1\n      0x26232a2e\n      eq\n      tag_5\n      jumpi\n    tag_1:\n      revert(0x00, 0x00)\n        /* \"lesson/lesson10/NFTMarketplace.sol\":10367:10706  function withdrawBid(uint256 auctionId) external {... */\n    tag_2:\n      callvalue\n      dup1\n      iszero\n      tag_24\n      jumpi\n      revert(0x00, 0x00)\n    tag_24:\n      pop\n      tag_25\n      0x04\n      dup1\n      calldatasize\n      sub\n      dup2\n      add\n      swap1\n      tag_26\n      swap2\n      swap1\n      tag_27\n      jump\t// in\n    tag_26:\n      tag_28\n      jump\t// in\n    tag_25:\n      stop\n        /* \"lesson/lesson10/NFTMarketplace.sol\":13907:14344  function getListing(uint256 listingId) external view returns(... */\n    tag_3:\n      callvalue\n      dup1\n      iszero\n      tag_29\n      jumpi\n      revert(0x00, 0x00)\n    tag_29:\n      pop\n      tag_30\n      0x04\n      dup1\n      calldatasize\n      sub\n      dup2\n      add\n      swap1\n      tag_31\n      swap2\n      swap1\n      tag_27\n      jump\t// in\n    tag_31:\n      tag_32\n      jump\t// in\n    tag_30:\n      mload(0x40)\n      tag_33\n      swap6\n      swap5\n      swap4\n      swap3\n      swap2\n      swap1\n      tag_34\n      jump\t// in\n    tag_33:\n      mload(0x40)\n      dup1\n      swap2\n      sub\n      swap1\n      return\n        /* \"lesson/lesson10/NFTMarketplace.sol\":15553:15770  function setPlatformFee(uint256 newFee) external {... */\n    tag_4:\n      callvalue\n      dup1\n      iszero\n      tag_35\n      jumpi\n      revert(0x00, 0x00)\n    tag_35:\n      pop\n      tag_36\n      0x04\n      dup1\n      calldatasize\n      sub\n      dup2\n      add\n      swap1\n      tag_37\n      swap2\n      swap1\n      tag_27\n      jump\t// in\n    tag_37:\n      tag_38\n      jump\t// in\n    tag_36:\n      stop\n        /* \"lesson/lesson10/NFTMarketplace.sol\":1930:1962  uint256 public platformFee = 250 */\n    tag_5:\n      callvalue\n      dup1\n      iszero\n      tag_39\n      jumpi\n      revert(0x00, 0x00)\n    tag_39:\n      pop\n      tag_40\n      tag_41\n      jump\t// in\n    tag_40:\n      mload(0x40)\n      tag_42\n      swap2\n      swap1\n      tag_43\n      jump\t// in\n    tag_42:\n      mload(0x40)\n      dup1\n      swap2\n      sub\n      swap1\n      return\n        /* \"lesson/lesson10/NFTMarketplace.sol\":2026:2053  address public feeRecipient */\n    tag_6:\n      callvalue\n      dup1\n      iszero\n      tag_44\n      jumpi\n      revert(0x00, 0x00)\n    tag_44:\n      pop\n      tag_45\n      tag_46\n      jump\t// in\n    tag_45:\n      mload(0x40)\n      tag_47\n      swap2\n      swap1\n      tag_48\n      jump\t// in\n    tag_47:\n      mload(0x40)\n      dup1\n      swap2\n      sub\n      swap1\n      return\n        /* \"lesson/lesson10/NFTMarketplace.sol\":5777:7672  function buyNFT(uint256 listingId) external payable nonReentrant {... */\n    tag_7:\n      tag_49\n      0x04\n      dup1\n      calldatasize\n      sub\n      dup2\n      add\n      swap1\n      tag_50\n      swap2\n      swap1\n      tag_27\n      jump\t// in\n    tag_50:\n      tag_51\n      jump\t// in\n    tag_49:\n      stop\n        /* \"lesson/lesson10/NFTMarketplace.sol\":1681:1724  mapping(uint256 => Auction) public auctions */\n    tag_8:\n      callvalue\n      dup1\n      iszero\n      tag_52\n      jumpi\n      revert(0x00, 0x00)\n    tag_52:\n      pop\n      tag_53\n      0x04\n      dup1\n      calldatasize\n      sub\n      dup2\n      add\n      swap1\n      tag_54\n      swap2\n      swap1\n      tag_27\n      jump\t// in\n    tag_54:\n      tag_55\n      jump\t// in\n    tag_53:\n      mload(0x40)\n      tag_56\n      swap9\n      swap8\n      swap7\n      swap6\n      swap5\n      swap4\n      swap3\n      swap2\n      swap1\n      tag_57\n      jump\t// in\n    tag_56:\n      mload(0x40)\n      dup1\n      swap2\n      sub\n      swap1\n      return\n        /* \"lesson/lesson10/NFTMarketplace.sol\":7680:9015  function createAuction(... */\n    tag_9:\n      callvalue\n      dup1\n      iszero\n      tag_58\n      jumpi\n      revert(0x00, 0x00)\n    tag_58:\n      pop\n      tag_59\n      0x04\n      dup1\n      calldatasize\n      sub\n      dup2\n      add\n      swap1\n      tag_60\n      swap2\n      swap1\n      tag_61\n      jump\t// in\n    tag_60:\n      tag_62\n      jump\t// in\n    tag_59:\n      mload(0x40)\n      tag_63\n      swap2\n      swap1\n      tag_43\n      jump\t// in\n    tag_63:\n      mload(0x40)\n      dup1\n      swap2\n      sub\n      swap1\n      return\n        /* \"lesson/lesson10/NFTMarketplace.sol\":1622:1651  uint256 public listingCounter */\n    tag_10:\n      callvalue\n      dup1\n      iszero\n      tag_64\n      jumpi\n      revert(0x00, 0x00)\n    tag_64:\n      pop\n      tag_65\n      tag_66\n      jump\t// in\n    tag_65:\n      mload(0x40)\n      tag_67\n      swap2\n      swap1\n      tag_43\n      jump\t// in\n    tag_67:\n      mload(0x40)\n      dup1\n      swap2\n      sub\n      swap1\n      return\n        /* \"lesson/lesson10/NFTMarketplace.sol\":14757:15390  function getAuction(uint256 auctionId) external view returns(... */\n    tag_11:\n      callvalue\n      dup1\n      iszero\n      tag_68\n      jumpi\n      revert(0x00, 0x00)\n    tag_68:\n      pop\n      tag_69\n      0x04\n      dup1\n      calldatasize\n      sub\n      dup2\n      add\n      swap1\n      tag_70\n      swap2\n      swap1\n      tag_27\n      jump\t// in\n    tag_70:\n      tag_71\n      jump\t// in\n    tag_69:\n      mload(0x40)\n      tag_72\n      swap9\n      swap8\n      swap7\n      swap6\n      swap5\n      swap4\n      swap3\n      swap2\n      swap1\n      tag_57\n      jump\t// in\n    tag_72:\n      mload(0x40)\n      dup1\n      swap2\n      sub\n      swap1\n      return\n        /* \"lesson/lesson10/NFTMarketplace.sol\":5184:5622  function updatePrice(uint256 listingId, uint256 newPrice) external {... */\n    tag_12:\n      callvalue\n      dup1\n      iszero\n      tag_73\n      jumpi\n      revert(0x00, 0x00)\n    tag_73:\n      pop\n      tag_74\n      0x04\n      dup1\n      calldatasize\n      sub\n      dup2\n      add\n      swap1\n      tag_75\n      swap2\n      swap1\n      tag_76\n      jump\t// in\n    tag_75:\n      tag_77\n      jump\t// in\n    tag_74:\n      stop\n        /* \"lesson/lesson10/NFTMarketplace.sol\":1807:1876  mapping(uint256 => mapping(address => uint256)) public pendingReturns */\n    tag_13:\n      callvalue\n      dup1\n      iszero\n      tag_78\n      jumpi\n      revert(0x00, 0x00)\n    tag_78:\n      pop\n      tag_79\n      0x04\n      dup1\n      calldatasize\n      sub\n      dup2\n      add\n      swap1\n      tag_80\n      swap2\n      swap1\n      tag_81\n      jump\t// in\n    tag_80:\n      tag_82\n      jump\t// in\n    tag_79:\n      mload(0x40)\n      tag_83\n      swap2\n      swap1\n      tag_43\n      jump\t// in\n    tag_83:\n      mload(0x40)\n      dup1\n      swap2\n      sub\n      swap1\n      return\n        /* \"lesson/lesson10/NFTMarketplace.sol\":9177:10210  function placeBid(uint256 auctionId) external payable{... */\n    tag_14:\n      tag_84\n      0x04\n      dup1\n      calldatasize\n      sub\n      dup2\n      add\n      swap1\n      tag_85\n      swap2\n      swap1\n      tag_27\n      jump\t// in\n    tag_85:\n      tag_86\n      jump\t// in\n    tag_84:\n      stop\n        /* \"lesson/lesson10/NFTMarketplace.sol\":1731:1760  uint256 public auctionCounter */\n    tag_15:\n      callvalue\n      dup1\n      iszero\n      tag_87\n      jumpi\n      revert(0x00, 0x00)\n    tag_87:\n      pop\n      tag_88\n      tag_89\n      jump\t// in\n    tag_88:\n      mload(0x40)\n      tag_90\n      swap2\n      swap1\n      tag_43\n      jump\t// in\n    tag_90:\n      mload(0x40)\n      dup1\n      swap2\n      sub\n      swap1\n      return\n        /* \"lesson/lesson10/NFTMarketplace.sol\":3618:4637  function listNFT(address nftContract, uint256 tokenId, uint256 price) external returns(uint256) {... */\n    tag_16:\n      callvalue\n      dup1\n      iszero\n      tag_91\n      jumpi\n      revert(0x00, 0x00)\n    tag_91:\n      pop\n      tag_92\n      0x04\n      dup1\n      calldatasize\n      sub\n      dup2\n      add\n      swap1\n      tag_93\n      swap2\n      swap1\n      tag_94\n      jump\t// in\n    tag_93:\n      tag_95\n      jump\t// in\n    tag_92:\n      mload(0x40)\n      tag_96\n      swap2\n      swap1\n      tag_43\n      jump\t// in\n    tag_96:\n      mload(0x40)\n      dup1\n      swap2\n      sub\n      swap1\n      return\n        /* \"lesson/lesson10/NFTMarketplace.sol\":10872:12686  function endAuction(uint256 auctionId) external nonReentrant {... */\n    tag_17:\n      callvalue\n      dup1\n      iszero\n      tag_97\n      jumpi\n      revert(0x00, 0x00)\n    tag_97:\n      pop\n      tag_98\n      0x04\n      dup1\n      calldatasize\n      sub\n      dup2\n      add\n      swap1\n      tag_99\n      swap2\n      swap1\n      tag_27\n      jump\t// in\n    tag_99:\n      tag_100\n      jump\t// in\n    tag_98:\n      stop\n        /* \"lesson/lesson10/NFTMarketplace.sol\":4720:5053  function delistNFT(uint256 listingId) external {... */\n    tag_18:\n      callvalue\n      dup1\n      iszero\n      tag_101\n      jumpi\n      revert(0x00, 0x00)\n    tag_101:\n      pop\n      tag_102\n      0x04\n      dup1\n      calldatasize\n      sub\n      dup2\n      add\n      swap1\n      tag_103\n      swap2\n      swap1\n      tag_27\n      jump\t// in\n    tag_103:\n      tag_104\n      jump\t// in\n    tag_102:\n      stop\n        /* \"lesson/lesson10/NFTMarketplace.sol\":1572:1615  mapping(uint256 => Listing) public listings */\n    tag_19:\n      callvalue\n      dup1\n      iszero\n      tag_105\n      jumpi\n      revert(0x00, 0x00)\n    tag_105:\n      pop\n      tag_106\n      0x04\n      dup1\n      calldatasize\n      sub\n      dup2\n      add\n      swap1\n      tag_107\n      swap2\n      swap1\n      tag_27\n      jump\t// in\n    tag_107:\n      tag_108\n      jump\t// in\n    tag_106:\n      mload(0x40)\n      tag_109\n      swap6\n      swap5\n      swap4\n      swap3\n      swap2\n      swap1\n      tag_34\n      jump\t// in\n    tag_109:\n      mload(0x40)\n      dup1\n      swap2\n      sub\n      swap1\n      return\n        /* \"lesson/lesson10/NFTMarketplace.sol\":15940:16179  function updateFeeRecipient(address newRecipient) external {... */\n    tag_20:\n      callvalue\n      dup1\n      iszero\n      tag_110\n      jumpi\n      revert(0x00, 0x00)\n    tag_110:\n      pop\n      tag_111\n      0x04\n      dup1\n      calldatasize\n      sub\n      dup2\n      add\n      swap1\n      tag_112\n      swap2\n      swap1\n      tag_113\n      jump\t// in\n    tag_112:\n      tag_114\n      jump\t// in\n    tag_111:\n      stop\n        /* \"lesson/lesson10/NFTMarketplace.sol\":10367:10706  function withdrawBid(uint256 auctionId) external {... */\n    tag_28:\n        /* \"lesson/lesson10/NFTMarketplace.sol\":10427:10441  uint256 amount */\n      0x00\n        /* \"lesson/lesson10/NFTMarketplace.sol\":10444:10458  pendingReturns */\n      0x05\n        /* \"lesson/lesson10/NFTMarketplace.sol\":10444:10469  pendingReturns[auctionId] */\n      0x00\n        /* \"lesson/lesson10/NFTMarketplace.sol\":10459:10468  auctionId */\n      dup4\n        /* \"lesson/lesson10/NFTMarketplace.sol\":10444:10469  pendingReturns[auctionId] */\n      dup2\n      mstore\n      0x20\n      add\n      swap1\n      dup2\n      mstore\n      0x20\n      add\n      0x00\n      keccak256\n        /* \"lesson/lesson10/NFTMarketplace.sol\":10444:10481  pendingReturns[auctionId][msg.sender] */\n      0x00\n        /* \"lesson/lesson10/NFTMarketplace.sol\":10470:10480  msg.sender */\n      caller\n        /* \"lesson/lesson10/NFTMarketplace.sol\":10444:10481  pendingReturns[auctionId][msg.sender] */\n      0xffffffffffffffffffffffffffffffffffffffff\n      and\n      0xffffffffffffffffffffffffffffffffffffffff\n      and\n      dup2\n      mstore\n      0x20\n      add\n      swap1\n      dup2\n      mstore\n      0x20\n      add\n      0x00\n      keccak256\n      sload\n        /* \"lesson/lesson10/NFTMarketplace.sol\":10427:10481  uint256 amount = pendingReturns[auctionId][msg.sender] */\n      swap1\n      pop\n        /* \"lesson/lesson10/NFTMarketplace.sol\":10509:10510  0 */\n      0x00\n        /* \"lesson/lesson10/NFTMarketplace.sol\":10500:10506  amount */\n      dup2\n        /* \"lesson/lesson10/NFTMarketplace.sol\":10500:10510  amount > 0 */\n      gt\n        /* \"lesson/lesson10/NFTMarketplace.sol\":10492:10532  require(amount > 0, \"No pending return\") */\n      tag_116\n      jumpi\n      mload(0x40)\n      0x08c379a000000000000000000000000000000000000000000000000000000000\n      dup2\n      mstore\n      0x04\n      add\n      tag_117\n      swap1\n      tag_118\n      jump\t// in\n    tag_117:\n      mload(0x40)\n      dup1\n      swap2\n      sub\n      swap1\n      revert\n    tag_116:\n        /* \"lesson/lesson10/NFTMarketplace.sol\":10585:10586  0 */\n      0x00\n        /* \"lesson/lesson10/NFTMarketplace.sol\":10545:10559  pendingReturns */\n      0x05\n        /* \"lesson/lesson10/NFTMarketplace.sol\":10545:10570  pendingReturns[auctionId] */\n      0x00\n        /* \"lesson/lesson10/NFTMarketplace.sol\":10560:10569  auctionId */\n      dup5\n        /* \"lesson/lesson10/NFTMarketplace.sol\":10545:10570  pendingReturns[auctionId] */\n      dup2\n      mstore\n      0x20\n      add\n      swap1\n      dup2\n      mstore\n      0x20\n      add\n      0x00\n      keccak256\n        /* \"lesson/lesson10/NFTMarketplace.sol\":10545:10582  pendingReturns[auctionId][msg.sender] */\n      0x00\n        /* \"lesson/lesson10/NFTMarketplace.sol\":10571:10581  msg.sender */\n      caller\n        /* \"lesson/lesson10/NFTMarketplace.sol\":10545:10582  pendingReturns[auctionId][msg.sender] */\n      0xffffffffffffffffffffffffffffffffffffffff\n      and\n      0xffffffffffffffffffffffffffffffffffffffff\n      and\n      dup2\n      mstore\n      0x20\n      add\n      swap1\n      dup2\n      mstore\n      0x20\n      add\n      0x00\n      keccak256\n        /* \"lesson/lesson10/NFTMarketplace.sol\":10545:10586  pendingReturns[auctionId][msg.sender] = 0 */\n      dup2\n      swap1\n      sstore\n      pop\n        /* \"lesson/lesson10/NFTMarketplace.sol\":10600:10612  bool success */\n      0x00\n        /* \"lesson/lesson10/NFTMarketplace.sol\":10618:10628  msg.sender */\n      caller\n        /* \"lesson/lesson10/NFTMarketplace.sol\":10618:10633  msg.sender.call */\n      0xffffffffffffffffffffffffffffffffffffffff\n      and\n        /* \"lesson/lesson10/NFTMarketplace.sol\":10641:10647  amount */\n      dup3\n        /* \"lesson/lesson10/NFTMarketplace.sol\":10618:10652  msg.sender.call{value: amount}(\"\") */\n      mload(0x40)\n      tag_119\n      swap1\n      tag_120\n      jump\t// in\n    tag_119:\n      0x00\n      mload(0x40)\n      dup1\n      dup4\n      sub\n      dup2\n      dup6\n      dup8\n      gas\n      call\n      swap3\n      pop\n      pop\n      pop\n      returndatasize\n      dup1\n      0x00\n      dup2\n      eq\n      tag_123\n      jumpi\n      mload(0x40)\n      swap2\n      pop\n      and(add(returndatasize, 0x3f), not(0x1f))\n      dup3\n      add\n      0x40\n      mstore\n      returndatasize\n      dup3\n      mstore\n      returndatasize\n      0x00\n      0x20\n      dup5\n      add\n      returndatacopy\n      jump(tag_122)\n    tag_123:\n      0x60\n      swap2\n      pop\n    tag_122:\n      pop\n        /* \"lesson/lesson10/NFTMarketplace.sol\":10599:10652  (bool success, ) = msg.sender.call{value: amount}(\"\") */\n      pop\n      swap1\n      pop\n        /* \"lesson/lesson10/NFTMarketplace.sol\":10671:10678  success */\n      dup1\n        /* \"lesson/lesson10/NFTMarketplace.sol\":10663:10698  require(success, \"Transfer failed\") */\n      tag_124\n      jumpi\n      mload(0x40)\n      0x08c379a000000000000000000000000000000000000000000000000000000000\n      dup2\n      mstore\n      0x04\n      add\n      tag_125\n      swap1\n      tag_126\n      jump\t// in\n    tag_125:\n      mload(0x40)\n      dup1\n      swap2\n      sub\n      swap1\n      revert\n    tag_124:\n        /* \"lesson/lesson10/NFTMarketplace.sol\":10416:10706  {... */\n      pop\n      pop\n        /* \"lesson/lesson10/NFTMarketplace.sol\":10367:10706  function withdrawBid(uint256 auctionId) external {... */\n      pop\n      jump\t// out\n        /* \"lesson/lesson10/NFTMarketplace.sol\":13907:14344  function getListing(uint256 listingId) external view returns(... */\n    tag_32:\n        /* \"lesson/lesson10/NFTMarketplace.sol\":13978:13992  address seller */\n      0x00\n        /* \"lesson/lesson10/NFTMarketplace.sol\":14003:14022  address nftContract */\n      0x00\n        /* \"lesson/lesson10/NFTMarketplace.sol\":14033:14048  uint256 tokenId */\n      0x00\n        /* \"lesson/lesson10/NFTMarketplace.sol\":14059:14072  uint256 price */\n      0x00\n        /* \"lesson/lesson10/NFTMarketplace.sol\":14083:14094  bool active */\n      0x00\n        /* \"lesson/lesson10/NFTMarketplace.sol\":14113:14135  Listing memory listing */\n      0x00\n        /* \"lesson/lesson10/NFTMarketplace.sol\":14138:14146  listings */\n      0x01\n        /* \"lesson/lesson10/NFTMarketplace.sol\":14138:14157  listings[listingId] */\n      0x00\n        /* \"lesson/lesson10/NFTMarketplace.sol\":14147:14156  listingId */\n      dup9\n        /* \"lesson/lesson10/NFTMarketplace.sol\":14138:14157  listings[listingId] */\n      dup2\n      mstore\n      0x20\n      add\n      swap1\n      dup2\n      mstore\n      0x20\n      add\n      0x00\n      keccak256\n        /* \"lesson/lesson10/NFTMarketplace.sol\":14113:14157  Listing memory listing = listings[listingId] */\n      mload(0x40)\n      dup1\n      0xa0\n      add\n      0x40\n      mstore\n      swap1\n      dup2\n      0x00\n      dup3\n      add\n      0x00\n      swap1\n      sload\n      swap1\n      0x0100\n      exp\n      swap1\n      div\n      0xffffffffffffffffffffffffffffffffffffffff\n      and\n      0xffffffffffffffffffffffffffffffffffffffff\n      and\n      0xffffffffffffffffffffffffffffffffffffffff\n      and\n      dup2\n      mstore\n      0x20\n      add\n      0x01\n      dup3\n      add\n      0x00\n      swap1\n      sload\n      swap1\n      0x0100\n      exp\n      swap1\n      div\n      0xffffffffffffffffffffffffffffffffffffffff\n      and\n      0xffffffffffffffffffffffffffffffffffffffff\n      and\n      0xffffffffffffffffffffffffffffffffffffffff\n      and\n      dup2\n      mstore\n      0x20\n      add\n      0x02\n      dup3\n      add\n      sload\n      dup2\n      mstore\n      0x20\n      add\n      0x03\n      dup3\n      add\n      sload\n      dup2\n      mstore\n      0x20\n      add\n      0x04\n      dup3\n      add\n      0x00\n      swap1\n      sload\n      swap1\n      0x0100\n      exp\n      swap1\n      div\n      0xff\n      and\n      iszero\n      iszero\n      iszero\n      iszero\n      dup2\n      mstore\n      pop\n      pop\n      swap1\n      pop\n        /* \"lesson/lesson10/NFTMarketplace.sol\":14190:14197  listing */\n      dup1\n        /* \"lesson/lesson10/NFTMarketplace.sol\":14190:14204  listing.seller */\n      0x00\n      add\n      mload\n        /* \"lesson/lesson10/NFTMarketplace.sol\":14219:14226  listing */\n      dup2\n        /* \"lesson/lesson10/NFTMarketplace.sol\":14219:14238  listing.nftContract */\n      0x20\n      add\n      mload\n        /* \"lesson/lesson10/NFTMarketplace.sol\":14253:14260  listing */\n      dup3\n        /* \"lesson/lesson10/NFTMarketplace.sol\":14253:14268  listing.tokenId */\n      0x40\n      add\n      mload\n        /* \"lesson/lesson10/NFTMarketplace.sol\":14283:14290  listing */\n      dup4\n        /* \"lesson/lesson10/NFTMarketplace.sol\":14283:14296  listing.price */\n      0x60\n      add\n      mload\n        /* \"lesson/lesson10/NFTMarketplace.sol\":14311:14318  listing */\n      dup5\n        /* \"lesson/lesson10/NFTMarketplace.sol\":14311:14325  listing.active */\n      0x80\n      add\n      mload\n        /* \"lesson/lesson10/NFTMarketplace.sol\":14168:14336  return (... */\n      swap6\n      pop\n      swap6\n      pop\n      swap6\n      pop\n      swap6\n      pop\n      swap6\n      pop\n      pop\n        /* \"lesson/lesson10/NFTMarketplace.sol\":13907:14344  function getListing(uint256 listingId) external view returns(... */\n      swap2\n      swap4\n      swap6\n      swap1\n      swap3\n      swap5\n      pop\n      jump\t// out\n        /* \"lesson/lesson10/NFTMarketplace.sol\":15553:15770  function setPlatformFee(uint256 newFee) external {... */\n    tag_38:\n        /* \"lesson/lesson10/NFTMarketplace.sol\":15635:15647  feeRecipient */\n      0x07\n      0x00\n      swap1\n      sload\n      swap1\n      0x0100\n      exp\n      swap1\n      div\n      0xffffffffffffffffffffffffffffffffffffffff\n      and\n        /* \"lesson/lesson10/NFTMarketplace.sol\":15621:15647  msg.sender == feeRecipient */\n      0xffffffffffffffffffffffffffffffffffffffff\n      and\n        /* \"lesson/lesson10/NFTMarketplace.sol\":15621:15631  msg.sender */\n      caller\n        /* \"lesson/lesson10/NFTMarketplace.sol\":15621:15647  msg.sender == feeRecipient */\n      0xffffffffffffffffffffffffffffffffffffffff\n      and\n      eq\n        /* \"lesson/lesson10/NFTMarketplace.sol\":15613:15669  require(msg.sender == feeRecipient, \"Not fee recipient\") */\n      tag_129\n      jumpi\n      mload(0x40)\n      0x08c379a000000000000000000000000000000000000000000000000000000000\n      dup2\n      mstore\n      0x04\n      add\n      tag_130\n      swap1\n      tag_131\n      jump\t// in\n    tag_130:\n      mload(0x40)\n      dup1\n      swap2\n      sub\n      swap1\n      revert\n    tag_129:\n        /* \"lesson/lesson10/NFTMarketplace.sol\":15698:15702  1000 */\n      0x03e8\n        /* \"lesson/lesson10/NFTMarketplace.sol\":15688:15694  newFee */\n      dup2\n        /* \"lesson/lesson10/NFTMarketplace.sol\":15688:15702  newFee <= 1000 */\n      gt\n      iszero\n        /* \"lesson/lesson10/NFTMarketplace.sol\":15680:15719  require(newFee <= 1000, \"Fee too high\") */\n      tag_132\n      jumpi\n      mload(0x40)\n      0x08c379a000000000000000000000000000000000000000000000000000000000\n      dup2\n      mstore\n      0x04\n      add\n      tag_133\n      swap1\n      tag_134\n      jump\t// in\n    tag_133:\n      mload(0x40)\n      dup1\n      swap2\n      sub\n      swap1\n      revert\n    tag_132:\n        /* \"lesson/lesson10/NFTMarketplace.sol\":15756:15762  newFee */\n      dup1\n        /* \"lesson/lesson10/NFTMarketplace.sol\":15742:15753  platformFee */\n      0x06\n        /* \"lesson/lesson10/NFTMarketplace.sol\":15742:15762  platformFee = newFee */\n      dup2\n      swap1\n      sstore\n      pop\n        /* \"lesson/lesson10/NFTMarketplace.sol\":15553:15770  function setPlatformFee(uint256 newFee) external {... */\n      pop\n      jump\t// out\n        /* \"lesson/lesson10/NFTMarketplace.sol\":1930:1962  uint256 public platformFee = 250 */\n    tag_41:\n      sload(0x06)\n      dup2\n      jump\t// out\n        /* \"lesson/lesson10/NFTMarketplace.sol\":2026:2053  address public feeRecipient */\n    tag_46:\n      0x07\n      0x00\n      swap1\n      sload\n      swap1\n      0x0100\n      exp\n      swap1\n      div\n      0xffffffffffffffffffffffffffffffffffffffff\n      and\n      dup2\n      jump\t// out\n        /* \"lesson/lesson10/NFTMarketplace.sol\":5777:7672  function buyNFT(uint256 listingId) external payable nonReentrant {... */\n    tag_51:\n        /* \"@openzeppelin/contracts/security/ReentrancyGuard.sol\":2261:2282  _nonReentrantBefore() */\n      tag_136\n        /* \"@openzeppelin/contracts/security/ReentrancyGuard.sol\":2261:2280  _nonReentrantBefore */\n      tag_137\n        /* \"@openzeppelin/contracts/security/ReentrancyGuard.sol\":2261:2282  _nonReentrantBefore() */\n      jump\t// in\n    tag_136:\n        /* \"lesson/lesson10/NFTMarketplace.sol\":5853:5876  Listing storage listing */\n      0x00\n        /* \"lesson/lesson10/NFTMarketplace.sol\":5879:5887  listings */\n      0x01\n        /* \"lesson/lesson10/NFTMarketplace.sol\":5879:5898  listings[listingId] */\n      0x00\n        /* \"lesson/lesson10/NFTMarketplace.sol\":5888:5897  listingId */\n      dup4\n        /* \"lesson/lesson10/NFTMarketplace.sol\":5879:5898  listings[listingId] */\n      dup2\n      mstore\n      0x20\n      add\n      swap1\n      dup2\n      mstore\n      0x20\n      add\n      0x00\n      keccak256\n        /* \"lesson/lesson10/NFTMarketplace.sol\":5853:5898  Listing storage listing = listings[listingId] */\n      swap1\n      pop\n        /* \"lesson/lesson10/NFTMarketplace.sol\":5919:5926  listing */\n      dup1\n        /* \"lesson/lesson10/NFTMarketplace.sol\":5919:5933  listing.active */\n      0x04\n      add\n      0x00\n      swap1\n      sload\n      swap1\n      0x0100\n      exp\n      swap1\n      div\n      0xff\n      and\n        /* \"lesson/lesson10/NFTMarketplace.sol\":5911:5956  require(listing.active, \"Listing not active\") */\n      tag_139\n      jumpi\n      mload(0x40)\n      0x08c379a000000000000000000000000000000000000000000000000000000000\n      dup2\n      mstore\n      0x04\n      add\n      tag_140\n      swap1\n      tag_141\n      jump\t// in\n    tag_140:\n      mload(0x40)\n      dup1\n      swap2\n      sub\n      swap1\n      revert\n    tag_139:\n        /* \"lesson/lesson10/NFTMarketplace.sol\":5988:5995  listing */\n      dup1\n        /* \"lesson/lesson10/NFTMarketplace.sol\":5988:6001  listing.price */\n      0x03\n      add\n      sload\n        /* \"lesson/lesson10/NFTMarketplace.sol\":5975:5984  msg.value */\n      callvalue\n        /* \"lesson/lesson10/NFTMarketplace.sol\":5975:6001  msg.value >= listing.price */\n      lt\n      iszero\n        /* \"lesson/lesson10/NFTMarketplace.sol\":5967:6026  require(msg.value >= listing.price, \"Insufficient payment\") */\n      tag_142\n      jumpi\n      mload(0x40)\n      0x08c379a000000000000000000000000000000000000000000000000000000000\n      dup2\n      mstore\n      0x04\n      add\n      tag_143\n      swap1\n      tag_144\n      jump\t// in\n    tag_143:\n      mload(0x40)\n      dup1\n      swap2\n      sub\n      swap1\n      revert\n    tag_142:\n        /* \"lesson/lesson10/NFTMarketplace.sol\":6067:6068  0 */\n      0x00\n        /* \"lesson/lesson10/NFTMarketplace.sol\":6045:6069  msg.sender != address(0) */\n      0xffffffffffffffffffffffffffffffffffffffff\n      and\n        /* \"lesson/lesson10/NFTMarketplace.sol\":6045:6055  msg.sender */\n      caller\n        /* \"lesson/lesson10/NFTMarketplace.sol\":6045:6069  msg.sender != address(0) */\n      0xffffffffffffffffffffffffffffffffffffffff\n      and\n      sub\n        /* \"lesson/lesson10/NFTMarketplace.sol\":6037:6097  require(msg.sender != address(0), \"Cannot buy your own NFT\") */\n      tag_145\n      jumpi\n      mload(0x40)\n      0x08c379a000000000000000000000000000000000000000000000000000000000\n      dup2\n      mstore\n      0x04\n      add\n      tag_146\n      swap1\n      tag_147\n      jump\t// in\n    tag_146:\n      mload(0x40)\n      dup1\n      swap2\n      sub\n      swap1\n      revert\n    tag_145:\n        /* \"lesson/lesson10/NFTMarketplace.sol\":6166:6171  false */\n      0x00\n        /* \"lesson/lesson10/NFTMarketplace.sol\":6149:6156  listing */\n      dup2\n        /* \"lesson/lesson10/NFTMarketplace.sol\":6149:6163  listing.active */\n      0x04\n      add\n      0x00\n        /* \"lesson/lesson10/NFTMarketplace.sol\":6149:6171  listing.active = false */\n      0x0100\n      exp\n      dup2\n      sload\n      dup2\n      0xff\n      mul\n      not\n      and\n      swap1\n      dup4\n      iszero\n      iszero\n      mul\n      or\n      swap1\n      sstore\n      pop\n        /* \"lesson/lesson10/NFTMarketplace.sol\":6212:6223  uint256 fee */\n      0x00\n        /* \"lesson/lesson10/NFTMarketplace.sol\":6258:6263  10000 */\n      0x2710\n        /* \"lesson/lesson10/NFTMarketplace.sol\":6243:6254  platformFee */\n      sload(0x06)\n        /* \"lesson/lesson10/NFTMarketplace.sol\":6227:6234  listing */\n      dup4\n        /* \"lesson/lesson10/NFTMarketplace.sol\":6227:6240  listing.price */\n      0x03\n      add\n      sload\n        /* \"lesson/lesson10/NFTMarketplace.sol\":6227:6254  listing.price * platformFee */\n      tag_148\n      swap2\n      swap1\n      tag_149\n      jump\t// in\n    tag_148:\n        /* \"lesson/lesson10/NFTMarketplace.sol\":6226:6263  (listing.price * platformFee) / 10000 */\n      tag_150\n      swap2\n      swap1\n      tag_151\n      jump\t// in\n    tag_150:\n        /* \"lesson/lesson10/NFTMarketplace.sol\":6212:6263  uint256 fee = (listing.price * platformFee) / 10000 */\n      swap1\n      pop\n        /* \"lesson/lesson10/NFTMarketplace.sol\":6308:6331  address royaltyReceiver */\n      0x00\n        /* \"lesson/lesson10/NFTMarketplace.sol\":6333:6354  uint256 royaltyAmount */\n      0x00\n        /* \"lesson/lesson10/NFTMarketplace.sol\":6358:6476  _getRoyaltyInfo(... */\n      tag_152\n        /* \"lesson/lesson10/NFTMarketplace.sol\":6388:6395  listing */\n      dup5\n        /* \"lesson/lesson10/NFTMarketplace.sol\":6388:6407  listing.nftContract */\n      0x01\n      add\n      0x00\n      swap1\n      sload\n      swap1\n      0x0100\n      exp\n      swap1\n      div\n      0xffffffffffffffffffffffffffffffffffffffff\n      and\n        /* \"lesson/lesson10/NFTMarketplace.sol\":6422:6429  listing */\n      dup6\n        /* \"lesson/lesson10/NFTMarketplace.sol\":6422:6437  listing.tokenId */\n      0x02\n      add\n      sload\n        /* \"lesson/lesson10/NFTMarketplace.sol\":6452:6459  listing */\n      dup7\n        /* \"lesson/lesson10/NFTMarketplace.sol\":6452:6465  listing.price */\n      0x03\n      add\n      sload\n        /* \"lesson/lesson10/NFTMarketplace.sol\":6358:6373  _getRoyaltyInfo */\n      tag_153\n        /* \"lesson/lesson10/NFTMarketplace.sol\":6358:6476  _getRoyaltyInfo(... */\n      jump\t// in\n    tag_152:\n        /* \"lesson/lesson10/NFTMarketplace.sol\":6307:6476  (address royaltyReceiver, uint256 royaltyAmount) = _getRoyaltyInfo(... */\n      swap2\n      pop\n      swap2\n      pop\n        /* \"lesson/lesson10/NFTMarketplace.sol\":6520:6540  uint256 sellerAmount */\n      0x00\n        /* \"lesson/lesson10/NFTMarketplace.sol\":6565:6578  royaltyAmount */\n      dup2\n        /* \"lesson/lesson10/NFTMarketplace.sol\":6559:6562  fee */\n      dup5\n        /* \"lesson/lesson10/NFTMarketplace.sol\":6543:6550  listing */\n      dup7\n        /* \"lesson/lesson10/NFTMarketplace.sol\":6543:6556  listing.price */\n      0x03\n      add\n      sload\n        /* \"lesson/lesson10/NFTMarketplace.sol\":6543:6562  listing.price - fee */\n      tag_154\n      swap2\n      swap1\n      tag_155\n      jump\t// in\n    tag_154:\n        /* \"lesson/lesson10/NFTMarketplace.sol\":6543:6578  listing.price - fee - royaltyAmount */\n      tag_156\n      swap2\n      swap1\n      tag_155\n      jump\t// in\n    tag_156:\n        /* \"lesson/lesson10/NFTMarketplace.sol\":6520:6578  uint256 sellerAmount = listing.price - fee - royaltyAmount */\n      swap1\n      pop\n        /* \"lesson/lesson10/NFTMarketplace.sol\":6621:6628  listing */\n      dup5\n        /* \"lesson/lesson10/NFTMarketplace.sol\":6621:6640  listing.nftContract */\n      0x01\n      add\n      0x00\n      swap1\n      sload\n      swap1\n      0x0100\n      exp\n      swap1\n      div\n      0xffffffffffffffffffffffffffffffffffffffff\n      and\n        /* \"lesson/lesson10/NFTMarketplace.sol\":6613:6658  IERC721(listing.nftContract).safeTransferFrom */\n      0xffffffffffffffffffffffffffffffffffffffff\n      and\n      0x42842e0e\n        /* \"lesson/lesson10/NFTMarketplace.sol\":6673:6680  listing */\n      dup7\n        /* \"lesson/lesson10/NFTMarketplace.sol\":6673:6687  listing.seller */\n      0x00\n      add\n      0x00\n      swap1\n      sload\n      swap1\n      0x0100\n      exp\n      swap1\n      div\n      0xffffffffffffffffffffffffffffffffffffffff\n      and\n        /* \"lesson/lesson10/NFTMarketplace.sol\":6702:6712  msg.sender */\n      caller\n        /* \"lesson/lesson10/NFTMarketplace.sol\":6727:6734  listing */\n      dup9\n        /* \"lesson/lesson10/NFTMarketplace.sol\":6727:6742  listing.tokenId */\n      0x02\n      add\n      sload\n        /* \"lesson/lesson10/NFTMarketplace.sol\":6613:6753  IERC721(listing.nftContract).safeTransferFrom(... */\n      mload(0x40)\n      dup5\n      0xffffffff\n      and\n      0xe0\n      shl\n      dup2\n      mstore\n      0x04\n      add\n      tag_157\n      swap4\n      swap3\n      swap2\n      swap1\n      tag_158\n      jump\t// in\n    tag_157:\n      0x00\n      mload(0x40)\n      dup1\n      dup4\n      sub\n      dup2\n      0x00\n      dup8\n      dup1\n      extcodesize\n      iszero\n      dup1\n      iszero\n      tag_159\n      jumpi\n      revert(0x00, 0x00)\n    tag_159:\n      pop\n      gas\n      call\n      iszero\n      dup1\n      iszero\n      tag_161\n      jumpi\n      returndatacopy(0x00, 0x00, returndatasize)\n      revert(0x00, returndatasize)\n    tag_161:\n      pop\n      pop\n      pop\n      pop\n        /* \"lesson/lesson10/NFTMarketplace.sol\":6855:6856  0 */\n      0x00\n        /* \"lesson/lesson10/NFTMarketplace.sol\":6839:6852  royaltyAmount */\n      dup3\n        /* \"lesson/lesson10/NFTMarketplace.sol\":6839:6856  royaltyAmount > 0 */\n      gt\n        /* \"lesson/lesson10/NFTMarketplace.sol\":6839:6889  royaltyAmount > 0 && royaltyReceiver != address(0) */\n      dup1\n      iszero\n      tag_162\n      jumpi\n      pop\n        /* \"lesson/lesson10/NFTMarketplace.sol\":6887:6888  0 */\n      0x00\n        /* \"lesson/lesson10/NFTMarketplace.sol\":6860:6889  royaltyReceiver != address(0) */\n      0xffffffffffffffffffffffffffffffffffffffff\n      and\n        /* \"lesson/lesson10/NFTMarketplace.sol\":6860:6875  royaltyReceiver */\n      dup4\n        /* \"lesson/lesson10/NFTMarketplace.sol\":6860:6889  royaltyReceiver != address(0) */\n      0xffffffffffffffffffffffffffffffffffffffff\n      and\n      eq\n      iszero\n        /* \"lesson/lesson10/NFTMarketplace.sol\":6839:6889  royaltyAmount > 0 && royaltyReceiver != address(0) */\n    tag_162:\n        /* \"lesson/lesson10/NFTMarketplace.sol\":6835:7055  if (royaltyAmount > 0 && royaltyReceiver != address(0)) {... */\n      iszero\n      tag_163\n      jumpi\n        /* \"lesson/lesson10/NFTMarketplace.sol\":6907:6926  bool successRoyalty */\n      0x00\n        /* \"lesson/lesson10/NFTMarketplace.sol\":6932:6947  royaltyReceiver */\n      dup4\n        /* \"lesson/lesson10/NFTMarketplace.sol\":6932:6952  royaltyReceiver.call */\n      0xffffffffffffffffffffffffffffffffffffffff\n      and\n        /* \"lesson/lesson10/NFTMarketplace.sol\":6960:6973  royaltyAmount */\n      dup4\n        /* \"lesson/lesson10/NFTMarketplace.sol\":6932:6978  royaltyReceiver.call{value: royaltyAmount}(\"\") */\n      mload(0x40)\n      tag_164\n      swap1\n      tag_120\n      jump\t// in\n    tag_164:\n      0x00\n      mload(0x40)\n      dup1\n      dup4\n      sub\n      dup2\n      dup6\n      dup8\n      gas\n      call\n      swap3\n      pop\n      pop\n      pop\n      returndatasize\n      dup1\n      0x00\n      dup2\n      eq\n      tag_167\n      jumpi\n      mload(0x40)\n      swap2\n      pop\n      and(add(returndatasize, 0x3f), not(0x1f))\n      dup3\n      add\n      0x40\n      mstore\n      returndatasize\n      dup3\n      mstore\n      returndatasize\n      0x00\n      0x20\n      dup5\n      add\n      returndatacopy\n      jump(tag_166)\n    tag_167:\n      0x60\n      swap2\n      pop\n    tag_166:\n      pop\n        /* \"lesson/lesson10/NFTMarketplace.sol\":6906:6978  (bool successRoyalty, ) = royaltyReceiver.call{value: royaltyAmount}(\"\") */\n      pop\n      swap1\n      pop\n        /* \"lesson/lesson10/NFTMarketplace.sol\":7001:7015  successRoyalty */\n      dup1\n        /* \"lesson/lesson10/NFTMarketplace.sol\":6993:7043  require(successRoyalty, \"Royalty transfer failed\") */\n      tag_168\n      jumpi\n      mload(0x40)\n      0x08c379a000000000000000000000000000000000000000000000000000000000\n      dup2\n      mstore\n      0x04\n      add\n      tag_169\n      swap1\n      tag_170\n      jump\t// in\n    tag_169:\n      mload(0x40)\n      dup1\n      swap2\n      sub\n      swap1\n      revert\n    tag_168:\n        /* \"lesson/lesson10/NFTMarketplace.sol\":6891:7055  {... */\n      pop\n        /* \"lesson/lesson10/NFTMarketplace.sol\":6835:7055  if (royaltyAmount > 0 && royaltyReceiver != address(0)) {... */\n    tag_163:\n        /* \"lesson/lesson10/NFTMarketplace.sol\":7068:7086  bool successSeller */\n      0x00\n        /* \"lesson/lesson10/NFTMarketplace.sol\":7092:7099  listing */\n      dup6\n        /* \"lesson/lesson10/NFTMarketplace.sol\":7092:7106  listing.seller */\n      0x00\n      add\n      0x00\n      swap1\n      sload\n      swap1\n      0x0100\n      exp\n      swap1\n      div\n      0xffffffffffffffffffffffffffffffffffffffff\n      and\n        /* \"lesson/lesson10/NFTMarketplace.sol\":7092:7111  listing.seller.call */\n      0xffffffffffffffffffffffffffffffffffffffff\n      and\n        /* \"lesson/lesson10/NFTMarketplace.sol\":7119:7131  sellerAmount */\n      dup3\n        /* \"lesson/lesson10/NFTMarketplace.sol\":7092:7136  listing.seller.call{value: sellerAmount}(\"\") */\n      mload(0x40)\n      tag_171\n      swap1\n      tag_120\n      jump\t// in\n    tag_171:\n      0x00\n      mload(0x40)\n      dup1\n      dup4\n      sub\n      dup2\n      dup6\n      dup8\n      gas\n      call\n      swap3\n      pop\n      pop\n      pop\n      returndatasize\n      dup1\n      0x00\n      dup2\n      eq\n      tag_174\n      jumpi\n      mload(0x40)\n      swap2\n      pop\n      and(add(returndatasize, 0x3f), not(0x1f))\n      dup3\n      add\n      0x40\n      mstore\n      returndatasize\n      dup3\n      mstore\n      returndatasize\n      0x00\n      0x20\n      dup5\n      add\n      returndatacopy\n      jump(tag_173)\n    tag_174:\n      0x60\n      swap2\n      pop\n    tag_173:\n      pop\n        /* \"lesson/lesson10/NFTMarketplace.sol\":7067:7136  (bool successSeller, ) = listing.seller.call{value: sellerAmount}(\"\") */\n      pop\n      swap1\n      pop\n        /* \"lesson/lesson10/NFTMarketplace.sol\":7155:7168  successSeller */\n      dup1\n        /* \"lesson/lesson10/NFTMarketplace.sol\":7147:7198  require(successSeller, \"Transfer to seller failed\") */\n      tag_175\n      jumpi\n      mload(0x40)\n      0x08c379a000000000000000000000000000000000000000000000000000000000\n      dup2\n      mstore\n      0x04\n      add\n      tag_176\n      swap1\n      tag_177\n      jump\t// in\n    tag_176:\n      mload(0x40)\n      dup1\n      swap2\n      sub\n      swap1\n      revert\n    tag_175:\n        /* \"lesson/lesson10/NFTMarketplace.sol\":7212:7227  bool successFee */\n      0x00\n        /* \"lesson/lesson10/NFTMarketplace.sol\":7233:7245  feeRecipient */\n      0x07\n      0x00\n      swap1\n      sload\n      swap1\n      0x0100\n      exp\n      swap1\n      div\n      0xffffffffffffffffffffffffffffffffffffffff\n      and\n        /* \"lesson/lesson10/NFTMarketplace.sol\":7233:7250  feeRecipient.call */\n      0xffffffffffffffffffffffffffffffffffffffff\n      and\n        /* \"lesson/lesson10/NFTMarketplace.sol\":7258:7261  fee */\n      dup7\n        /* \"lesson/lesson10/NFTMarketplace.sol\":7233:7266  feeRecipient.call{value: fee}(\"\") */\n      mload(0x40)\n      tag_178\n      swap1\n      tag_120\n      jump\t// in\n    tag_178:\n      0x00\n      mload(0x40)\n      dup1\n      dup4\n      sub\n      dup2\n      dup6\n      dup8\n      gas\n      call\n      swap3\n      pop\n      pop\n      pop\n      returndatasize\n      dup1\n      0x00\n      dup2\n      eq\n      tag_181\n      jumpi\n      mload(0x40)\n      swap2\n      pop\n      and(add(returndatasize, 0x3f), not(0x1f))\n      dup3\n      add\n      0x40\n      mstore\n      returndatasize\n      dup3\n      mstore\n      returndatasize\n      0x00\n      0x20\n      dup5\n      add\n      returndatacopy\n      jump(tag_180)\n    tag_181:\n      0x60\n      swap2\n      pop\n    tag_180:\n      pop\n        /* \"lesson/lesson10/NFTMarketplace.sol\":7211:7266  (bool successFee, ) = feeRecipient.call{value: fee}(\"\") */\n      pop\n      swap1\n      pop\n        /* \"lesson/lesson10/NFTMarketplace.sol\":7285:7295  successFee */\n      dup1\n        /* \"lesson/lesson10/NFTMarketplace.sol\":7277:7319  require(successFee, \"Transfer fee failed\") */\n      tag_182\n      jumpi\n      mload(0x40)\n      0x08c379a000000000000000000000000000000000000000000000000000000000\n      dup2\n      mstore\n      0x04\n      add\n      tag_183\n      swap1\n      tag_184\n      jump\t// in\n    tag_183:\n      mload(0x40)\n      dup1\n      swap2\n      sub\n      swap1\n      revert\n    tag_182:\n        /* \"lesson/lesson10/NFTMarketplace.sol\":7379:7386  listing */\n      dup7\n        /* \"lesson/lesson10/NFTMarketplace.sol\":7379:7392  listing.price */\n      0x03\n      add\n      sload\n        /* \"lesson/lesson10/NFTMarketplace.sol\":7367:7376  msg.value */\n      callvalue\n        /* \"lesson/lesson10/NFTMarketplace.sol\":7367:7392  msg.value > listing.price */\n      gt\n        /* \"lesson/lesson10/NFTMarketplace.sol\":7363:7586  if (msg.value > listing.price) {... */\n      iszero\n      tag_185\n      jumpi\n        /* \"lesson/lesson10/NFTMarketplace.sol\":7410:7428  bool successRefund */\n      0x00\n        /* \"lesson/lesson10/NFTMarketplace.sol\":7434:7444  msg.sender */\n      caller\n        /* \"lesson/lesson10/NFTMarketplace.sol\":7434:7449  msg.sender.call */\n      0xffffffffffffffffffffffffffffffffffffffff\n      and\n        /* \"lesson/lesson10/NFTMarketplace.sol\":7488:7495  listing */\n      dup9\n        /* \"lesson/lesson10/NFTMarketplace.sol\":7488:7501  listing.price */\n      0x03\n      add\n      sload\n        /* \"lesson/lesson10/NFTMarketplace.sol\":7476:7485  msg.value */\n      callvalue\n        /* \"lesson/lesson10/NFTMarketplace.sol\":7476:7501  msg.value - listing.price */\n      tag_186\n      swap2\n      swap1\n      tag_155\n      jump\t// in\n    tag_186:\n        /* \"lesson/lesson10/NFTMarketplace.sol\":7434:7520  msg.sender.call {... */\n      mload(0x40)\n      tag_187\n      swap1\n      tag_120\n      jump\t// in\n    tag_187:\n      0x00\n      mload(0x40)\n      dup1\n      dup4\n      sub\n      dup2\n      dup6\n      dup8\n      gas\n      call\n      swap3\n      pop\n      pop\n      pop\n      returndatasize\n      dup1\n      0x00\n      dup2\n      eq\n      tag_190\n      jumpi\n      mload(0x40)\n      swap2\n      pop\n      and(add(returndatasize, 0x3f), not(0x1f))\n      dup3\n      add\n      0x40\n      mstore\n      returndatasize\n      dup3\n      mstore\n      returndatasize\n      0x00\n      0x20\n      dup5\n      add\n      returndatacopy\n      jump(tag_189)\n    tag_190:\n      0x60\n      swap2\n      pop\n    tag_189:\n      pop\n        /* \"lesson/lesson10/NFTMarketplace.sol\":7409:7520  (bool successRefund, ) = msg.sender.call {... */\n      pop\n      swap1\n      pop\n        /* \"lesson/lesson10/NFTMarketplace.sol\":7543:7556  successRefund */\n      dup1\n        /* \"lesson/lesson10/NFTMarketplace.sol\":7535:7574  require(successRefund, \"Refund failed\") */\n      tag_191\n      jumpi\n      mload(0x40)\n      0x08c379a000000000000000000000000000000000000000000000000000000000\n      dup2\n      mstore\n      0x04\n      add\n      tag_192\n      swap1\n      tag_193\n      jump\t// in\n    tag_192:\n      mload(0x40)\n      dup1\n      swap2\n      sub\n      swap1\n      revert\n    tag_191:\n        /* \"lesson/lesson10/NFTMarketplace.sol\":7394:7586  {... */\n      pop\n        /* \"lesson/lesson10/NFTMarketplace.sol\":7363:7586  if (msg.value > listing.price) {... */\n    tag_185:\n        /* \"lesson/lesson10/NFTMarketplace.sol\":7634:7641  listing */\n      dup7\n        /* \"lesson/lesson10/NFTMarketplace.sol\":7634:7648  listing.seller */\n      0x00\n      add\n      0x00\n      swap1\n      sload\n      swap1\n      0x0100\n      exp\n      swap1\n      div\n      0xffffffffffffffffffffffffffffffffffffffff\n      and\n        /* \"lesson/lesson10/NFTMarketplace.sol\":7603:7664  NFTSold(listingId, msg.sender, listing.seller, listing.price) */\n      0xffffffffffffffffffffffffffffffffffffffff\n      and\n        /* \"lesson/lesson10/NFTMarketplace.sol\":7622:7632  msg.sender */\n      caller\n        /* \"lesson/lesson10/NFTMarketplace.sol\":7603:7664  NFTSold(listingId, msg.sender, listing.seller, listing.price) */\n      0xffffffffffffffffffffffffffffffffffffffff\n      and\n        /* \"lesson/lesson10/NFTMarketplace.sol\":7611:7620  listingId */\n      dup10\n        /* \"lesson/lesson10/NFTMarketplace.sol\":7603:7664  NFTSold(listingId, msg.sender, listing.seller, listing.price) */\n      0x8562eb94748e30bb0071e932744ce902b460c683474fcb3bfd567ffa16b1afb2\n        /* \"lesson/lesson10/NFTMarketplace.sol\":7650:7657  listing */\n      dup11\n        /* \"lesson/lesson10/NFTMarketplace.sol\":7650:7663  listing.price */\n      0x03\n      add\n      sload\n        /* \"lesson/lesson10/NFTMarketplace.sol\":7603:7664  NFTSold(listingId, msg.sender, listing.seller, listing.price) */\n      mload(0x40)\n      tag_194\n      swap2\n      swap1\n      tag_43\n      jump\t// in\n    tag_194:\n      mload(0x40)\n      dup1\n      swap2\n      sub\n      swap1\n      log4\n        /* \"lesson/lesson10/NFTMarketplace.sol\":5842:7672  {... */\n      pop\n      pop\n      pop\n      pop\n      pop\n      pop\n      pop\n        /* \"@openzeppelin/contracts/security/ReentrancyGuard.sol\":2303:2323  _nonReentrantAfter() */\n      tag_195\n        /* \"@openzeppelin/contracts/security/ReentrancyGuard.sol\":2303:2321  _nonReentrantAfter */\n      tag_196\n        /* \"@openzeppelin/contracts/security/ReentrancyGuard.sol\":2303:2323  _nonReentrantAfter() */\n      jump\t// in\n    tag_195:\n        /* \"lesson/lesson10/NFTMarketplace.sol\":5777:7672  function buyNFT(uint256 listingId) external payable nonReentrant {... */\n      pop\n      jump\t// out\n        /* \"lesson/lesson10/NFTMarketplace.sol\":1681:1724  mapping(uint256 => Auction) public auctions */\n    tag_55:\n      mstore(0x20, 0x03)\n      dup1\n      0x00\n      mstore\n      keccak256(0x00, 0x40)\n      0x00\n      swap2\n      pop\n      swap1\n      pop\n      dup1\n      0x00\n      add\n      0x00\n      swap1\n      sload\n      swap1\n      0x0100\n      exp\n      swap1\n      div\n      0xffffffffffffffffffffffffffffffffffffffff\n      and\n      swap1\n      dup1\n      0x01\n      add\n      0x00\n      swap1\n      sload\n      swap1\n      0x0100\n      exp\n      swap1\n      div\n      0xffffffffffffffffffffffffffffffffffffffff\n      and\n      swap1\n      dup1\n      0x02\n      add\n      sload\n      swap1\n      dup1\n      0x03\n      add\n      sload\n      swap1\n      dup1\n      0x04\n      add\n      sload\n      swap1\n      dup1\n      0x05\n      add\n      0x00\n      swap1\n      sload\n      swap1\n      0x0100\n      exp\n      swap1\n      div\n      0xffffffffffffffffffffffffffffffffffffffff\n      and\n      swap1\n      dup1\n      0x06\n      add\n      sload\n      swap1\n      dup1\n      0x07\n      add\n      0x00\n      swap1\n      sload\n      swap1\n      0x0100\n      exp\n      swap1\n      div\n      0xff\n      and\n      swap1\n      pop\n      dup9\n      jump\t// out\n        /* \"lesson/lesson10/NFTMarketplace.sol\":7680:9015  function createAuction(... */\n    tag_62:\n        /* \"lesson/lesson10/NFTMarketplace.sol\":7844:7851  uint256 */\n      0x00\n        /* \"lesson/lesson10/NFTMarketplace.sol\":7885:7886  0 */\n      0x00\n        /* \"lesson/lesson10/NFTMarketplace.sol\":7872:7882  startPrice */\n      dup4\n        /* \"lesson/lesson10/NFTMarketplace.sol\":7872:7886  startPrice > 0 */\n      gt\n        /* \"lesson/lesson10/NFTMarketplace.sol\":7864:7925  require(startPrice > 0, \"Start price must be greater than 0\") */\n      tag_198\n      jumpi\n      mload(0x40)\n      0x08c379a000000000000000000000000000000000000000000000000000000000\n      dup2\n      mstore\n      0x04\n      add\n      tag_199\n      swap1\n      tag_200\n      jump\t// in\n    tag_199:\n      mload(0x40)\n      dup1\n      swap2\n      sub\n      swap1\n      revert\n    tag_198:\n        /* \"lesson/lesson10/NFTMarketplace.sol\":7961:7962  1 */\n      0x01\n        /* \"lesson/lesson10/NFTMarketplace.sol\":7944:7957  durationHours */\n      dup3\n        /* \"lesson/lesson10/NFTMarketplace.sol\":7944:7962  durationHours >= 1 */\n      lt\n      iszero\n        /* \"lesson/lesson10/NFTMarketplace.sol\":7936:7999  require(durationHours >= 1, \"Duration must be at least 1 hour\") */\n      tag_201\n      jumpi\n      mload(0x40)\n      0x08c379a000000000000000000000000000000000000000000000000000000000\n      dup2\n      mstore\n      0x04\n      add\n      tag_202\n      swap1\n      tag_203\n      jump\t// in\n    tag_202:\n      mload(0x40)\n      dup1\n      swap2\n      sub\n      swap1\n      revert\n    tag_201:\n        /* \"lesson/lesson10/NFTMarketplace.sol\":8041:8042  0 */\n      0x00\n        /* \"lesson/lesson10/NFTMarketplace.sol\":8018:8043  nftContract != address(0) */\n      0xffffffffffffffffffffffffffffffffffffffff\n      and\n        /* \"lesson/lesson10/NFTMarketplace.sol\":8018:8029  nftContract */\n      dup6\n        /* \"lesson/lesson10/NFTMarketplace.sol\":8018:8043  nftContract != address(0) */\n      0xffffffffffffffffffffffffffffffffffffffff\n      and\n      sub\n        /* \"lesson/lesson10/NFTMarketplace.sol\":8010:8068  require(nftContract != address(0), \"Invalid NFT contract\") */\n      tag_204\n      jumpi\n      mload(0x40)\n      0x08c379a000000000000000000000000000000000000000000000000000000000\n      dup2\n      mstore\n      0x04\n      add\n      tag_205\n      swap1\n      tag_206\n      jump\t// in\n    tag_205:\n      mload(0x40)\n      dup1\n      swap2\n      sub\n      swap1\n      revert\n    tag_204:\n        /* \"lesson/lesson10/NFTMarketplace.sol\":8081:8092  IERC721 nft */\n      0x00\n        /* \"lesson/lesson10/NFTMarketplace.sol\":8103:8114  nftContract */\n      dup6\n        /* \"lesson/lesson10/NFTMarketplace.sol\":8081:8115  IERC721 nft = IERC721(nftContract) */\n      swap1\n      pop\n        /* \"lesson/lesson10/NFTMarketplace.sol\":8188:8198  msg.sender */\n      caller\n        /* \"lesson/lesson10/NFTMarketplace.sol\":8164:8198  nft.ownerOf(tokenId) == msg.sender */\n      0xffffffffffffffffffffffffffffffffffffffff\n      and\n        /* \"lesson/lesson10/NFTMarketplace.sol\":8164:8167  nft */\n      dup2\n        /* \"lesson/lesson10/NFTMarketplace.sol\":8164:8175  nft.ownerOf */\n      0xffffffffffffffffffffffffffffffffffffffff\n      and\n      0x6352211e\n        /* \"lesson/lesson10/NFTMarketplace.sol\":8176:8183  tokenId */\n      dup8\n        /* \"lesson/lesson10/NFTMarketplace.sol\":8164:8184  nft.ownerOf(tokenId) */\n      mload(0x40)\n      dup3\n      0xffffffff\n      and\n      0xe0\n      shl\n      dup2\n      mstore\n      0x04\n      add\n      tag_207\n      swap2\n      swap1\n      tag_43\n      jump\t// in\n    tag_207:\n      0x20\n      mload(0x40)\n      dup1\n      dup4\n      sub\n      dup2\n      dup7\n      gas\n      staticcall\n      iszero\n      dup1\n      iszero\n      tag_209\n      jumpi\n      returndatacopy(0x00, 0x00, returndatasize)\n      revert(0x00, returndatasize)\n    tag_209:\n      pop\n      pop\n      pop\n      pop\n      mload(0x40)\n      returndatasize\n      not(0x1f)\n      0x1f\n      dup3\n      add\n      and\n      dup3\n      add\n      dup1\n      0x40\n      mstore\n      pop\n      dup2\n      add\n      swap1\n      tag_210\n      swap2\n      swap1\n      tag_211\n      jump\t// in\n    tag_210:\n        /* \"lesson/lesson10/NFTMarketplace.sol\":8164:8198  nft.ownerOf(tokenId) == msg.sender */\n      0xffffffffffffffffffffffffffffffffffffffff\n      and\n      eq\n        /* \"lesson/lesson10/NFTMarketplace.sol\":8156:8216  require(nft.ownerOf(tokenId) == msg.sender, \"Not the owner\") */\n      tag_212\n      jumpi\n      mload(0x40)\n      0x08c379a000000000000000000000000000000000000000000000000000000000\n      dup2\n      mstore\n      0x04\n      add\n      tag_213\n      swap1\n      tag_214\n      jump\t// in\n    tag_213:\n      mload(0x40)\n      dup1\n      swap2\n      sub\n      swap1\n      revert\n    tag_212:\n        /* \"lesson/lesson10/NFTMarketplace.sol\":8312:8316  this */\n      address\n        /* \"lesson/lesson10/NFTMarketplace.sol\":8276:8317  nft.getApproved(tokenId) == address(this) */\n      0xffffffffffffffffffffffffffffffffffffffff\n      and\n        /* \"lesson/lesson10/NFTMarketplace.sol\":8276:8279  nft */\n      dup2\n        /* \"lesson/lesson10/NFTMarketplace.sol\":8276:8291  nft.getApproved */\n      0xffffffffffffffffffffffffffffffffffffffff\n      and\n      0x081812fc\n        /* \"lesson/lesson10/NFTMarketplace.sol\":8292:8299  tokenId */\n      dup8\n        /* \"lesson/lesson10/NFTMarketplace.sol\":8276:8300  nft.getApproved(tokenId) */\n      mload(0x40)\n      dup3\n      0xffffffff\n      and\n      0xe0\n      shl\n      dup2\n      mstore\n      0x04\n      add\n      tag_215\n      swap2\n      swap1\n      tag_43\n      jump\t// in\n    tag_215:\n      0x20\n      mload(0x40)\n      dup1\n      dup4\n      sub\n      dup2\n      dup7\n      gas\n      staticcall\n      iszero\n      dup1\n      iszero\n      tag_217\n      jumpi\n      returndatacopy(0x00, 0x00, returndatasize)\n      revert(0x00, returndatasize)\n    tag_217:\n      pop\n      pop\n      pop\n      pop\n      mload(0x40)\n      returndatasize\n      not(0x1f)\n      0x1f\n      dup3\n      add\n      and\n      dup3\n      add\n      dup1\n      0x40\n      mstore\n      pop\n      dup2\n      add\n      swap1\n      tag_218\n      swap2\n      swap1\n      tag_211\n      jump\t// in\n    tag_218:\n        /* \"lesson/lesson10/NFTMarketplace.sol\":8276:8317  nft.getApproved(tokenId) == address(this) */\n      0xffffffffffffffffffffffffffffffffffffffff\n      and\n      eq\n        /* \"lesson/lesson10/NFTMarketplace.sol\":8276:8381  nft.getApproved(tokenId) == address(this) ||... */\n      dup1\n      tag_219\n      jumpi\n      pop\n        /* \"lesson/lesson10/NFTMarketplace.sol\":8334:8337  nft */\n      dup1\n        /* \"lesson/lesson10/NFTMarketplace.sol\":8334:8354  nft.isApprovedForAll */\n      0xffffffffffffffffffffffffffffffffffffffff\n      and\n      0xe985e9c5\n        /* \"lesson/lesson10/NFTMarketplace.sol\":8355:8365  msg.sender */\n      caller\n        /* \"lesson/lesson10/NFTMarketplace.sol\":8375:8379  this */\n      address\n        /* \"lesson/lesson10/NFTMarketplace.sol\":8334:8381  nft.isApprovedForAll(msg.sender, address(this)) */\n      mload(0x40)\n      dup4\n      0xffffffff\n      and\n      0xe0\n      shl\n      dup2\n      mstore\n      0x04\n      add\n      tag_220\n      swap3\n      swap2\n      swap1\n      tag_221\n      jump\t// in\n    tag_220:\n      0x20\n      mload(0x40)\n      dup1\n      dup4\n      sub\n      dup2\n      dup7\n      gas\n      staticcall\n      iszero\n      dup1\n      iszero\n      tag_223\n      jumpi\n      returndatacopy(0x00, 0x00, returndatasize)\n      revert(0x00, returndatasize)\n    tag_223:\n      pop\n      pop\n      pop\n      pop\n      mload(0x40)\n      returndatasize\n      not(0x1f)\n      0x1f\n      dup3\n      add\n      and\n      dup3\n      add\n      dup1\n      0x40\n      mstore\n      pop\n      dup2\n      add\n      swap1\n      tag_224\n      swap2\n      swap1\n      tag_225\n      jump\t// in\n    tag_224:\n        /* \"lesson/lesson10/NFTMarketplace.sol\":8276:8381  nft.getApproved(tokenId) == address(this) ||... */\n    tag_219:\n        /* \"lesson/lesson10/NFTMarketplace.sol\":8254:8433  require(... */\n      tag_226\n      jumpi\n      mload(0x40)\n      0x08c379a000000000000000000000000000000000000000000000000000000000\n      dup2\n      mstore\n      0x04\n      add\n      tag_227\n      swap1\n      tag_228\n      jump\t// in\n    tag_227:\n      mload(0x40)\n      dup1\n      swap2\n      sub\n      swap1\n      revert\n    tag_226:\n        /* \"lesson/lesson10/NFTMarketplace.sol\":8471:8485  auctionCounter */\n      0x04\n      0x00\n        /* \"lesson/lesson10/NFTMarketplace.sol\":8471:8487  auctionCounter++ */\n      dup2\n      sload\n      dup1\n      swap3\n      swap2\n      swap1\n      tag_229\n      swap1\n      tag_230\n      jump\t// in\n    tag_229:\n      swap2\n      swap1\n      pop\n      sstore\n      pop\n        /* \"lesson/lesson10/NFTMarketplace.sol\":8525:8847  Auction({... */\n      mload(0x40)\n      dup1\n      0x0100\n      add\n      0x40\n      mstore\n      dup1\n        /* \"lesson/lesson10/NFTMarketplace.sol\":8556:8566  msg.sender */\n      caller\n        /* \"lesson/lesson10/NFTMarketplace.sol\":8525:8847  Auction({... */\n      0xffffffffffffffffffffffffffffffffffffffff\n      and\n      dup2\n      mstore\n      0x20\n      add\n        /* \"lesson/lesson10/NFTMarketplace.sol\":8594:8605  nftContract */\n      dup8\n        /* \"lesson/lesson10/NFTMarketplace.sol\":8525:8847  Auction({... */\n      0xffffffffffffffffffffffffffffffffffffffff\n      and\n      dup2\n      mstore\n      0x20\n      add\n        /* \"lesson/lesson10/NFTMarketplace.sol\":8629:8636  tokenId */\n      dup7\n        /* \"lesson/lesson10/NFTMarketplace.sol\":8525:8847  Auction({... */\n      dup2\n      mstore\n      0x20\n      add\n        /* \"lesson/lesson10/NFTMarketplace.sol\":8663:8673  startPrice */\n      dup6\n        /* \"lesson/lesson10/NFTMarketplace.sol\":8525:8847  Auction({... */\n      dup2\n      mstore\n      0x20\n      add\n        /* \"lesson/lesson10/NFTMarketplace.sol\":8700:8701  0 */\n      0x00\n        /* \"lesson/lesson10/NFTMarketplace.sol\":8525:8847  Auction({... */\n      dup2\n      mstore\n      0x20\n      add\n        /* \"lesson/lesson10/NFTMarketplace.sol\":8739:8740  0 */\n      0x00\n        /* \"lesson/lesson10/NFTMarketplace.sol\":8525:8847  Auction({... */\n      0xffffffffffffffffffffffffffffffffffffffff\n      and\n      dup2\n      mstore\n      0x20\n      add\n        /* \"lesson/lesson10/NFTMarketplace.sol\":8800:8807  1 hours */\n      0x0e10\n        /* \"lesson/lesson10/NFTMarketplace.sol\":8784:8797  durationHours */\n      dup6\n        /* \"lesson/lesson10/NFTMarketplace.sol\":8784:8807  durationHours * 1 hours */\n      tag_231\n      swap2\n      swap1\n      tag_149\n      jump\t// in\n    tag_231:\n        /* \"lesson/lesson10/NFTMarketplace.sol\":8765:8780  block.timestamp */\n      timestamp\n        /* \"lesson/lesson10/NFTMarketplace.sol\":8765:8808  block.timestamp + (durationHours * 1 hours) */\n      tag_232\n      swap2\n      swap1\n      tag_233\n      jump\t// in\n    tag_232:\n        /* \"lesson/lesson10/NFTMarketplace.sol\":8525:8847  Auction({... */\n      dup2\n      mstore\n      0x20\n      add\n        /* \"lesson/lesson10/NFTMarketplace.sol\":8831:8835  true */\n      0x01\n        /* \"lesson/lesson10/NFTMarketplace.sol\":8525:8847  Auction({... */\n      iszero\n      iszero\n      dup2\n      mstore\n      pop\n        /* \"lesson/lesson10/NFTMarketplace.sol\":8498:8506  auctions */\n      0x03\n        /* \"lesson/lesson10/NFTMarketplace.sol\":8498:8522  auctions[auctionCounter] */\n      0x00\n        /* \"lesson/lesson10/NFTMarketplace.sol\":8507:8521  auctionCounter */\n      sload(0x04)\n        /* \"lesson/lesson10/NFTMarketplace.sol\":8498:8522  auctions[auctionCounter] */\n      dup2\n      mstore\n      0x20\n      add\n      swap1\n      dup2\n      mstore\n      0x20\n      add\n      0x00\n      keccak256\n        /* \"lesson/lesson10/NFTMarketplace.sol\":8498:8847  auctions[auctionCounter] = Auction({... */\n      0x00\n      dup3\n      add\n      mload\n      dup2\n      0x00\n      add\n      exp(0x0100, 0x00)\n      dup2\n      sload\n      dup2\n      0xffffffffffffffffffffffffffffffffffffffff\n      mul\n      not\n      and\n      swap1\n      dup4\n      0xffffffffffffffffffffffffffffffffffffffff\n      and\n      mul\n      or\n      swap1\n      sstore\n      pop\n      0x20\n      dup3\n      add\n      mload\n      dup2\n      0x01\n      add\n      exp(0x0100, 0x00)\n      dup2\n      sload\n      dup2\n      0xffffffffffffffffffffffffffffffffffffffff\n      mul\n      not\n      and\n      swap1\n      dup4\n      0xffffffffffffffffffffffffffffffffffffffff\n      and\n      mul\n      or\n      swap1\n      sstore\n      pop\n      0x40\n      dup3\n      add\n      mload\n      dup2\n      0x02\n      add\n      sstore\n      0x60\n      dup3\n      add\n      mload\n      dup2\n      0x03\n      add\n      sstore\n      0x80\n      dup3\n      add\n      mload\n      dup2\n      0x04\n      add\n      sstore\n      0xa0\n      dup3\n      add\n      mload\n      dup2\n      0x05\n      add\n      exp(0x0100, 0x00)\n      dup2\n      sload\n      dup2\n      0xffffffffffffffffffffffffffffffffffffffff\n      mul\n      not\n      and\n      swap1\n      dup4\n      0xffffffffffffffffffffffffffffffffffffffff\n      and\n      mul\n      or\n      swap1\n      sstore\n      pop\n      0xc0\n      dup3\n      add\n      mload\n      dup2\n      0x06\n      add\n      sstore\n      0xe0\n      dup3\n      add\n      mload\n      dup2\n      0x07\n      add\n      exp(0x0100, 0x00)\n      dup2\n      sload\n      dup2\n      0xff\n      mul\n      not\n      and\n      swap1\n      dup4\n      iszero\n      iszero\n      mul\n      or\n      swap1\n      sstore\n      pop\n      swap1\n      pop\n      pop\n        /* \"lesson/lesson10/NFTMarketplace.sol\":8908:8919  nftContract */\n      dup6\n        /* \"lesson/lesson10/NFTMarketplace.sol\":8865:8975  AuctionCreated(auctionCounter, msg.sender, nftContract, tokenId, startPrice, auctions[auctionCounter].endTime) */\n      0xffffffffffffffffffffffffffffffffffffffff\n      and\n        /* \"lesson/lesson10/NFTMarketplace.sol\":8896:8906  msg.sender */\n      caller\n        /* \"lesson/lesson10/NFTMarketplace.sol\":8865:8975  AuctionCreated(auctionCounter, msg.sender, nftContract, tokenId, startPrice, auctions[auctionCounter].endTime) */\n      0xffffffffffffffffffffffffffffffffffffffff\n      and\n        /* \"lesson/lesson10/NFTMarketplace.sol\":8880:8894  auctionCounter */\n      sload(0x04)\n        /* \"lesson/lesson10/NFTMarketplace.sol\":8865:8975  AuctionCreated(auctionCounter, msg.sender, nftContract, tokenId, startPrice, auctions[auctionCounter].endTime) */\n      0x06b9e486c68303eb64052e0493f906f3d93a1b7149b6b8dcff221aebd16c3513\n        /* \"lesson/lesson10/NFTMarketplace.sol\":8921:8928  tokenId */\n      dup9\n        /* \"lesson/lesson10/NFTMarketplace.sol\":8930:8940  startPrice */\n      dup9\n        /* \"lesson/lesson10/NFTMarketplace.sol\":8942:8950  auctions */\n      0x03\n        /* \"lesson/lesson10/NFTMarketplace.sol\":8942:8966  auctions[auctionCounter] */\n      0x00\n        /* \"lesson/lesson10/NFTMarketplace.sol\":8951:8965  auctionCounter */\n      sload(0x04)\n        /* \"lesson/lesson10/NFTMarketplace.sol\":8942:8966  auctions[auctionCounter] */\n      dup2\n      mstore\n      0x20\n      add\n      swap1\n      dup2\n      mstore\n      0x20\n      add\n      0x00\n      keccak256\n        /* \"lesson/lesson10/NFTMarketplace.sol\":8942:8974  auctions[auctionCounter].endTime */\n      0x06\n      add\n      sload\n        /* \"lesson/lesson10/NFTMarketplace.sol\":8865:8975  AuctionCreated(auctionCounter, msg.sender, nftContract, tokenId, startPrice, auctions[auctionCounter].endTime) */\n      mload(0x40)\n      tag_234\n      swap4\n      swap3\n      swap2\n      swap1\n      tag_235\n      jump\t// in\n    tag_234:\n      mload(0x40)\n      dup1\n      swap2\n      sub\n      swap1\n      log4\n        /* \"lesson/lesson10/NFTMarketplace.sol\":8993:9007  auctionCounter */\n      sload(0x04)\n        /* \"lesson/lesson10/NFTMarketplace.sol\":8986:9007  return auctionCounter */\n      swap2\n      pop\n      pop\n        /* \"lesson/lesson10/NFTMarketplace.sol\":7680:9015  function createAuction(... */\n      swap5\n      swap4\n      pop\n      pop\n      pop\n      pop\n      jump\t// out\n        /* \"lesson/lesson10/NFTMarketplace.sol\":1622:1651  uint256 public listingCounter */\n    tag_66:\n      sload(0x02)\n      dup2\n      jump\t// out\n        /* \"lesson/lesson10/NFTMarketplace.sol\":14757:15390  function getAuction(uint256 auctionId) external view returns(... */\n    tag_71:\n        /* \"lesson/lesson10/NFTMarketplace.sol\":14828:14842  address seller */\n      0x00\n        /* \"lesson/lesson10/NFTMarketplace.sol\":14853:14872  address nftContract */\n      0x00\n        /* \"lesson/lesson10/NFTMarketplace.sol\":14883:14898  uint256 tokenId */\n      0x00\n        /* \"lesson/lesson10/NFTMarketplace.sol\":14909:14927  uint256 startPrice */\n      0x00\n        /* \"lesson/lesson10/NFTMarketplace.sol\":14938:14956  uint256 highestBid */\n      0x00\n        /* \"lesson/lesson10/NFTMarketplace.sol\":14967:14988  address highestBidder */\n      0x00\n        /* \"lesson/lesson10/NFTMarketplace.sol\":14999:15014  uint256 endTime */\n      0x00\n        /* \"lesson/lesson10/NFTMarketplace.sol\":15025:15036  bool active */\n      0x00\n        /* \"lesson/lesson10/NFTMarketplace.sol\":15055:15077  Auction memory auction */\n      0x00\n        /* \"lesson/lesson10/NFTMarketplace.sol\":15080:15088  auctions */\n      0x03\n        /* \"lesson/lesson10/NFTMarketplace.sol\":15080:15099  auctions[auctionId] */\n      0x00\n        /* \"lesson/lesson10/NFTMarketplace.sol\":15089:15098  auctionId */\n      dup12\n        /* \"lesson/lesson10/NFTMarketplace.sol\":15080:15099  auctions[auctionId] */\n      dup2\n      mstore\n      0x20\n      add\n      swap1\n      dup2\n      mstore\n      0x20\n      add\n      0x00\n      keccak256\n        /* \"lesson/lesson10/NFTMarketplace.sol\":15055:15099  Auction memory auction = auctions[auctionId] */\n      mload(0x40)\n      dup1\n      0x0100\n      add\n      0x40\n      mstore\n      swap1\n      dup2\n      0x00\n      dup3\n      add\n      0x00\n      swap1\n      sload\n      swap1\n      0x0100\n      exp\n      swap1\n      div\n      0xffffffffffffffffffffffffffffffffffffffff\n      and\n      0xffffffffffffffffffffffffffffffffffffffff\n      and\n      0xffffffffffffffffffffffffffffffffffffffff\n      and\n      dup2\n      mstore\n      0x20\n      add\n      0x01\n      dup3\n      add\n      0x00\n      swap1\n      sload\n      swap1\n      0x0100\n      exp\n      swap1\n      div\n      0xffffffffffffffffffffffffffffffffffffffff\n      and\n      0xffffffffffffffffffffffffffffffffffffffff\n      and\n      0xffffffffffffffffffffffffffffffffffffffff\n      and\n      dup2\n      mstore\n      0x20\n      add\n      0x02\n      dup3\n      add\n      sload\n      dup2\n      mstore\n      0x20\n      add\n      0x03\n      dup3\n      add\n      sload\n      dup2\n      mstore\n      0x20\n      add\n      0x04\n      dup3\n      add\n      sload\n      dup2\n      mstore\n      0x20\n      add\n      0x05\n      dup3\n      add\n      0x00\n      swap1\n      sload\n      swap1\n      0x0100\n      exp\n      swap1\n      div\n      0xffffffffffffffffffffffffffffffffffffffff\n      and\n      0xffffffffffffffffffffffffffffffffffffffff\n      and\n      0xffffffffffffffffffffffffffffffffffffffff\n      and\n      dup2\n      mstore\n      0x20\n      add\n      0x06\n      dup3\n      add\n      sload\n      dup2\n      mstore\n      0x20\n      add\n      0x07\n      dup3\n      add\n      0x00\n      swap1\n      sload\n      swap1\n      0x0100\n      exp\n      swap1\n      div\n      0xff\n      and\n      iszero\n      iszero\n      iszero\n      iszero\n      dup2\n      mstore\n      pop\n      pop\n      swap1\n      pop\n        /* \"lesson/lesson10/NFTMarketplace.sol\":15132:15139  auction */\n      dup1\n        /* \"lesson/lesson10/NFTMarketplace.sol\":15132:15146  auction.seller */\n      0x00\n      add\n      mload\n        /* \"lesson/lesson10/NFTMarketplace.sol\":15161:15168  auction */\n      dup2\n        /* \"lesson/lesson10/NFTMarketplace.sol\":15161:15180  auction.nftContract */\n      0x20\n      add\n      mload\n        /* \"lesson/lesson10/NFTMarketplace.sol\":15195:15202  auction */\n      dup3\n        /* \"lesson/lesson10/NFTMarketplace.sol\":15195:15210  auction.tokenId */\n      0x40\n      add\n      mload\n        /* \"lesson/lesson10/NFTMarketplace.sol\":15225:15232  auction */\n      dup4\n        /* \"lesson/lesson10/NFTMarketplace.sol\":15225:15243  auction.startPrice */\n      0x60\n      add\n      mload\n        /* \"lesson/lesson10/NFTMarketplace.sol\":15258:15265  auction */\n      dup5\n        /* \"lesson/lesson10/NFTMarketplace.sol\":15258:15276  auction.highestBid */\n      0x80\n      add\n      mload\n        /* \"lesson/lesson10/NFTMarketplace.sol\":15291:15298  auction */\n      dup6\n        /* \"lesson/lesson10/NFTMarketplace.sol\":15291:15312  auction.highestBidder */\n      0xa0\n      add\n      mload\n        /* \"lesson/lesson10/NFTMarketplace.sol\":15327:15334  auction */\n      dup7\n        /* \"lesson/lesson10/NFTMarketplace.sol\":15327:15342  auction.endTime */\n      0xc0\n      add\n      mload\n        /* \"lesson/lesson10/NFTMarketplace.sol\":15357:15364  auction */\n      dup8\n        /* \"lesson/lesson10/NFTMarketplace.sol\":15357:15371  auction.active */\n      0xe0\n      add\n      mload\n        /* \"lesson/lesson10/NFTMarketplace.sol\":15110:15382  return (... */\n      swap9\n      pop\n      swap9\n      pop\n      swap9\n      pop\n      swap9\n      pop\n      swap9\n      pop\n      swap9\n      pop\n      swap9\n      pop\n      swap9\n      pop\n      pop\n        /* \"lesson/lesson10/NFTMarketplace.sol\":14757:15390  function getAuction(uint256 auctionId) external view returns(... */\n      swap2\n      swap4\n      swap6\n      swap8\n      pop\n      swap2\n      swap4\n      swap6\n      swap8\n      jump\t// out\n        /* \"lesson/lesson10/NFTMarketplace.sol\":5184:5622  function updatePrice(uint256 listingId, uint256 newPrice) external {... */\n    tag_77:\n        /* \"lesson/lesson10/NFTMarketplace.sol\":5281:5282  0 */\n      0x00\n        /* \"lesson/lesson10/NFTMarketplace.sol\":5270:5278  newPrice */\n      dup2\n        /* \"lesson/lesson10/NFTMarketplace.sol\":5270:5282  newPrice > 0 */\n      gt\n        /* \"lesson/lesson10/NFTMarketplace.sol\":5262:5315  require(newPrice > 0, \"Price must be greater than 0\") */\n      tag_238\n      jumpi\n      mload(0x40)\n      0x08c379a000000000000000000000000000000000000000000000000000000000\n      dup2\n      mstore\n      0x04\n      add\n      tag_239\n      swap1\n      tag_240\n      jump\t// in\n    tag_239:\n      mload(0x40)\n      dup1\n      swap2\n      sub\n      swap1\n      revert\n    tag_238:\n        /* \"lesson/lesson10/NFTMarketplace.sol\":5328:5351  Listing storage listing */\n      0x00\n        /* \"lesson/lesson10/NFTMarketplace.sol\":5354:5362  listings */\n      0x01\n        /* \"lesson/lesson10/NFTMarketplace.sol\":5354:5373  listings[listingId] */\n      0x00\n        /* \"lesson/lesson10/NFTMarketplace.sol\":5363:5372  listingId */\n      dup5\n        /* \"lesson/lesson10/NFTMarketplace.sol\":5354:5373  listings[listingId] */\n      dup2\n      mstore\n      0x20\n      add\n      swap1\n      dup2\n      mstore\n      0x20\n      add\n      0x00\n      keccak256\n        /* \"lesson/lesson10/NFTMarketplace.sol\":5328:5373  Listing storage listing = listings[listingId] */\n      swap1\n      pop\n        /* \"lesson/lesson10/NFTMarketplace.sol\":5392:5399  listing */\n      dup1\n        /* \"lesson/lesson10/NFTMarketplace.sol\":5392:5406  listing.active */\n      0x04\n      add\n      0x00\n      swap1\n      sload\n      swap1\n      0x0100\n      exp\n      swap1\n      div\n      0xff\n      and\n        /* \"lesson/lesson10/NFTMarketplace.sol\":5384:5429  require(listing.active, \"Listing not active\") */\n      tag_241\n      jumpi\n      mload(0x40)\n      0x08c379a000000000000000000000000000000000000000000000000000000000\n      dup2\n      mstore\n      0x04\n      add\n      tag_242\n      swap1\n      tag_141\n      jump\t// in\n    tag_242:\n      mload(0x40)\n      dup1\n      swap2\n      sub\n      swap1\n      revert\n    tag_241:\n        /* \"lesson/lesson10/NFTMarketplace.sol\":5466:5476  msg.sender */\n      caller\n        /* \"lesson/lesson10/NFTMarketplace.sol\":5448:5476  listing.seller == msg.sender */\n      0xffffffffffffffffffffffffffffffffffffffff\n      and\n        /* \"lesson/lesson10/NFTMarketplace.sol\":5448:5455  listing */\n      dup2\n        /* \"lesson/lesson10/NFTMarketplace.sol\":5448:5462  listing.seller */\n      0x00\n      add\n      0x00\n      swap1\n      sload\n      swap1\n      0x0100\n      exp\n      swap1\n      div\n      0xffffffffffffffffffffffffffffffffffffffff\n      and\n        /* \"lesson/lesson10/NFTMarketplace.sol\":5448:5476  listing.seller == msg.sender */\n      0xffffffffffffffffffffffffffffffffffffffff\n      and\n      eq\n        /* \"lesson/lesson10/NFTMarketplace.sol\":5440:5495  require(listing.seller == msg.sender, \"Not the seller\") */\n      tag_243\n      jumpi\n      mload(0x40)\n      0x08c379a000000000000000000000000000000000000000000000000000000000\n      dup2\n      mstore\n      0x04\n      add\n      tag_244\n      swap1\n      tag_245\n      jump\t// in\n    tag_244:\n      mload(0x40)\n      dup1\n      swap2\n      sub\n      swap1\n      revert\n    tag_243:\n        /* \"lesson/lesson10/NFTMarketplace.sol\":5524:5532  newPrice */\n      dup2\n        /* \"lesson/lesson10/NFTMarketplace.sol\":5508:5515  listing */\n      dup2\n        /* \"lesson/lesson10/NFTMarketplace.sol\":5508:5521  listing.price */\n      0x03\n      add\n        /* \"lesson/lesson10/NFTMarketplace.sol\":5508:5532  listing.price = newPrice */\n      dup2\n      swap1\n      sstore\n      pop\n        /* \"lesson/lesson10/NFTMarketplace.sol\":5594:5603  listingId */\n      dup3\n        /* \"lesson/lesson10/NFTMarketplace.sol\":5581:5614  PriceUpdated(listingId, newPrice) */\n      0x945c1c4e99aa89f648fbfe3df471b916f719e16d960fcec0737d4d56bd696838\n        /* \"lesson/lesson10/NFTMarketplace.sol\":5605:5613  newPrice */\n      dup4\n        /* \"lesson/lesson10/NFTMarketplace.sol\":5581:5614  PriceUpdated(listingId, newPrice) */\n      mload(0x40)\n      tag_246\n      swap2\n      swap1\n      tag_43\n      jump\t// in\n    tag_246:\n      mload(0x40)\n      dup1\n      swap2\n      sub\n      swap1\n      log2\n        /* \"lesson/lesson10/NFTMarketplace.sol\":5251:5622  {... */\n      pop\n        /* \"lesson/lesson10/NFTMarketplace.sol\":5184:5622  function updatePrice(uint256 listingId, uint256 newPrice) external {... */\n      pop\n      pop\n      jump\t// out\n        /* \"lesson/lesson10/NFTMarketplace.sol\":1807:1876  mapping(uint256 => mapping(address => uint256)) public pendingReturns */\n    tag_82:\n      mstore(0x20, 0x05)\n      dup2\n      0x00\n      mstore\n      mstore(0x20, keccak256(0x00, 0x40))\n      dup1\n      0x00\n      mstore\n      keccak256(0x00, 0x40)\n      0x00\n      swap2\n      pop\n      swap2\n      pop\n      pop\n      sload\n      dup2\n      jump\t// out\n        /* \"lesson/lesson10/NFTMarketplace.sol\":9177:10210  function placeBid(uint256 auctionId) external payable{... */\n    tag_86:\n        /* \"lesson/lesson10/NFTMarketplace.sol\":9241:9264  Auction storage auction */\n      0x00\n        /* \"lesson/lesson10/NFTMarketplace.sol\":9267:9275  auctions */\n      0x03\n        /* \"lesson/lesson10/NFTMarketplace.sol\":9267:9286  auctions[auctionId] */\n      0x00\n        /* \"lesson/lesson10/NFTMarketplace.sol\":9276:9285  auctionId */\n      dup4\n        /* \"lesson/lesson10/NFTMarketplace.sol\":9267:9286  auctions[auctionId] */\n      dup2\n      mstore\n      0x20\n      add\n      swap1\n      dup2\n      mstore\n      0x20\n      add\n      0x00\n      keccak256\n        /* \"lesson/lesson10/NFTMarketplace.sol\":9241:9286  Auction storage auction = auctions[auctionId] */\n      swap1\n      pop\n        /* \"lesson/lesson10/NFTMarketplace.sol\":9307:9314  auction */\n      dup1\n        /* \"lesson/lesson10/NFTMarketplace.sol\":9307:9321  auction.active */\n      0x07\n      add\n      0x00\n      swap1\n      sload\n      swap1\n      0x0100\n      exp\n      swap1\n      div\n      0xff\n      and\n        /* \"lesson/lesson10/NFTMarketplace.sol\":9299:9344  require(auction.active, \"Auction not active\") */\n      tag_248\n      jumpi\n      mload(0x40)\n      0x08c379a000000000000000000000000000000000000000000000000000000000\n      dup2\n      mstore\n      0x04\n      add\n      tag_249\n      swap1\n      tag_250\n      jump\t// in\n    tag_249:\n      mload(0x40)\n      dup1\n      swap2\n      sub\n      swap1\n      revert\n    tag_248:\n        /* \"lesson/lesson10/NFTMarketplace.sol\":9381:9388  auction */\n      dup1\n        /* \"lesson/lesson10/NFTMarketplace.sol\":9381:9396  auction.endTime */\n      0x06\n      add\n      sload\n        /* \"lesson/lesson10/NFTMarketplace.sol\":9363:9378  block.timestamp */\n      timestamp\n        /* \"lesson/lesson10/NFTMarketplace.sol\":9363:9396  block.timestamp < auction.endTime */\n      lt\n        /* \"lesson/lesson10/NFTMarketplace.sol\":9355:9414  require(block.timestamp < auction.endTime, \"Auction ended\") */\n      tag_251\n      jumpi\n      mload(0x40)\n      0x08c379a000000000000000000000000000000000000000000000000000000000\n      dup2\n      mstore\n      0x04\n      add\n      tag_252\n      swap1\n      tag_253\n      jump\t// in\n    tag_252:\n      mload(0x40)\n      dup1\n      swap2\n      sub\n      swap1\n      revert\n    tag_251:\n        /* \"lesson/lesson10/NFTMarketplace.sol\":9447:9454  auction */\n      dup1\n        /* \"lesson/lesson10/NFTMarketplace.sol\":9447:9461  auction.seller */\n      0x00\n      add\n      0x00\n      swap1\n      sload\n      swap1\n      0x0100\n      exp\n      swap1\n      div\n      0xffffffffffffffffffffffffffffffffffffffff\n      and\n        /* \"lesson/lesson10/NFTMarketplace.sol\":9433:9461  msg.sender != auction.seller */\n      0xffffffffffffffffffffffffffffffffffffffff\n      and\n        /* \"lesson/lesson10/NFTMarketplace.sol\":9433:9443  msg.sender */\n      caller\n        /* \"lesson/lesson10/NFTMarketplace.sol\":9433:9461  msg.sender != auction.seller */\n      0xffffffffffffffffffffffffffffffffffffffff\n      and\n      sub\n        /* \"lesson/lesson10/NFTMarketplace.sol\":9425:9483  require(msg.sender != auction.seller, \"Seller cannot bid\") */\n      tag_254\n      jumpi\n      mload(0x40)\n      0x08c379a000000000000000000000000000000000000000000000000000000000\n      dup2\n      mstore\n      0x04\n      add\n      tag_255\n      swap1\n      tag_256\n      jump\t// in\n    tag_255:\n      mload(0x40)\n      dup1\n      swap2\n      sub\n      swap1\n      revert\n    tag_254:\n        /* \"lesson/lesson10/NFTMarketplace.sol\":9527:9541  uint256 minBid */\n      0x00\n        /* \"lesson/lesson10/NFTMarketplace.sol\":9578:9579  0 */\n      0x00\n        /* \"lesson/lesson10/NFTMarketplace.sol\":9556:9563  auction */\n      dup3\n        /* \"lesson/lesson10/NFTMarketplace.sol\":9556:9574  auction.highestBid */\n      0x04\n      add\n      sload\n        /* \"lesson/lesson10/NFTMarketplace.sol\":9556:9579  auction.highestBid == 0 */\n      sub\n        /* \"lesson/lesson10/NFTMarketplace.sol\":9552:9744  if (auction.highestBid == 0) {... */\n      tag_257\n      jumpi\n        /* \"lesson/lesson10/NFTMarketplace.sol\":9605:9612  auction */\n      dup2\n        /* \"lesson/lesson10/NFTMarketplace.sol\":9605:9623  auction.startPrice */\n      0x03\n      add\n      sload\n        /* \"lesson/lesson10/NFTMarketplace.sol\":9596:9623  minBid = auction.startPrice */\n      swap1\n      pop\n        /* \"lesson/lesson10/NFTMarketplace.sol\":9552:9744  if (auction.highestBid == 0) {... */\n      jump(tag_258)\n    tag_257:\n        /* \"lesson/lesson10/NFTMarketplace.sol\":9712:9715  100 */\n      0x64\n        /* \"lesson/lesson10/NFTMarketplace.sol\":9708:9709  5 */\n      0x05\n        /* \"lesson/lesson10/NFTMarketplace.sol\":9687:9694  auction */\n      dup4\n        /* \"lesson/lesson10/NFTMarketplace.sol\":9687:9705  auction.highestBid */\n      0x04\n      add\n      sload\n        /* \"lesson/lesson10/NFTMarketplace.sol\":9687:9709  auction.highestBid * 5 */\n      tag_259\n      swap2\n      swap1\n      tag_149\n      jump\t// in\n    tag_259:\n        /* \"lesson/lesson10/NFTMarketplace.sol\":9687:9715  auction.highestBid * 5 / 100 */\n      tag_260\n      swap2\n      swap1\n      tag_151\n      jump\t// in\n    tag_260:\n        /* \"lesson/lesson10/NFTMarketplace.sol\":9665:9672  auction */\n      dup3\n        /* \"lesson/lesson10/NFTMarketplace.sol\":9665:9683  auction.highestBid */\n      0x04\n      add\n      sload\n        /* \"lesson/lesson10/NFTMarketplace.sol\":9665:9716  auction.highestBid + (auction.highestBid * 5 / 100) */\n      tag_261\n      swap2\n      swap1\n      tag_233\n      jump\t// in\n    tag_261:\n        /* \"lesson/lesson10/NFTMarketplace.sol\":9656:9716  minBid = auction.highestBid + (auction.highestBid * 5 / 100) */\n      swap1\n      pop\n        /* \"lesson/lesson10/NFTMarketplace.sol\":9552:9744  if (auction.highestBid == 0) {... */\n    tag_258:\n        /* \"lesson/lesson10/NFTMarketplace.sol\":9777:9783  minBid */\n      dup1\n        /* \"lesson/lesson10/NFTMarketplace.sol\":9764:9773  msg.value */\n      callvalue\n        /* \"lesson/lesson10/NFTMarketplace.sol\":9764:9783  msg.value >= minBid */\n      lt\n      iszero\n        /* \"lesson/lesson10/NFTMarketplace.sol\":9756:9799  require(msg.value >= minBid, \"Bid too low\") */\n      tag_262\n      jumpi\n      mload(0x40)\n      0x08c379a000000000000000000000000000000000000000000000000000000000\n      dup2\n      mstore\n      0x04\n      add\n      tag_263\n      swap1\n      tag_264\n      jump\t// in\n    tag_263:\n      mload(0x40)\n      dup1\n      swap2\n      sub\n      swap1\n      revert\n    tag_262:\n        /* \"lesson/lesson10/NFTMarketplace.sol\":9922:9923  0 */\n      0x00\n        /* \"lesson/lesson10/NFTMarketplace.sol\":9889:9924  auction.highestBidder != address(0) */\n      0xffffffffffffffffffffffffffffffffffffffff\n      and\n        /* \"lesson/lesson10/NFTMarketplace.sol\":9889:9896  auction */\n      dup3\n        /* \"lesson/lesson10/NFTMarketplace.sol\":9889:9910  auction.highestBidder */\n      0x05\n      add\n      0x00\n      swap1\n      sload\n      swap1\n      0x0100\n      exp\n      swap1\n      div\n      0xffffffffffffffffffffffffffffffffffffffff\n      and\n        /* \"lesson/lesson10/NFTMarketplace.sol\":9889:9924  auction.highestBidder != address(0) */\n      0xffffffffffffffffffffffffffffffffffffffff\n      and\n      eq\n        /* \"lesson/lesson10/NFTMarketplace.sol\":9885:10023  if (auction.highestBidder != address(0)) {... */\n      tag_265\n      jumpi\n        /* \"lesson/lesson10/NFTMarketplace.sol\":9993:10000  auction */\n      dup2\n        /* \"lesson/lesson10/NFTMarketplace.sol\":9993:10011  auction.highestBid */\n      0x04\n      add\n      sload\n        /* \"lesson/lesson10/NFTMarketplace.sol\":9941:9955  pendingReturns */\n      0x05\n        /* \"lesson/lesson10/NFTMarketplace.sol\":9941:9966  pendingReturns[auctionId] */\n      0x00\n        /* \"lesson/lesson10/NFTMarketplace.sol\":9956:9965  auctionId */\n      dup6\n        /* \"lesson/lesson10/NFTMarketplace.sol\":9941:9966  pendingReturns[auctionId] */\n      dup2\n      mstore\n      0x20\n      add\n      swap1\n      dup2\n      mstore\n      0x20\n      add\n      0x00\n      keccak256\n        /* \"lesson/lesson10/NFTMarketplace.sol\":9941:9989  pendingReturns[auctionId][auction.highestBidder] */\n      0x00\n        /* \"lesson/lesson10/NFTMarketplace.sol\":9967:9974  auction */\n      dup5\n        /* \"lesson/lesson10/NFTMarketplace.sol\":9967:9988  auction.highestBidder */\n      0x05\n      add\n      0x00\n      swap1\n      sload\n      swap1\n      0x0100\n      exp\n      swap1\n      div\n      0xffffffffffffffffffffffffffffffffffffffff\n      and\n        /* \"lesson/lesson10/NFTMarketplace.sol\":9941:9989  pendingReturns[auctionId][auction.highestBidder] */\n      0xffffffffffffffffffffffffffffffffffffffff\n      and\n      0xffffffffffffffffffffffffffffffffffffffff\n      and\n      dup2\n      mstore\n      0x20\n      add\n      swap1\n      dup2\n      mstore\n      0x20\n      add\n      0x00\n      keccak256\n      0x00\n        /* \"lesson/lesson10/NFTMarketplace.sol\":9941:10011  pendingReturns[auctionId][auction.highestBidder] += auction.highestBid */\n      dup3\n      dup3\n      sload\n      tag_266\n      swap2\n      swap1\n      tag_233\n      jump\t// in\n    tag_266:\n      swap3\n      pop\n      pop\n      dup2\n      swap1\n      sstore\n      pop\n        /* \"lesson/lesson10/NFTMarketplace.sol\":9885:10023  if (auction.highestBidder != address(0)) {... */\n    tag_265:\n        /* \"lesson/lesson10/NFTMarketplace.sol\":10087:10096  msg.value */\n      callvalue\n        /* \"lesson/lesson10/NFTMarketplace.sol\":10066:10073  auction */\n      dup3\n        /* \"lesson/lesson10/NFTMarketplace.sol\":10066:10084  auction.highestBid */\n      0x04\n      add\n        /* \"lesson/lesson10/NFTMarketplace.sol\":10066:10096  auction.highestBid = msg.value */\n      dup2\n      swap1\n      sstore\n      pop\n        /* \"lesson/lesson10/NFTMarketplace.sol\":10131:10141  msg.sender */\n      caller\n        /* \"lesson/lesson10/NFTMarketplace.sol\":10107:10114  auction */\n      dup3\n        /* \"lesson/lesson10/NFTMarketplace.sol\":10107:10128  auction.highestBidder */\n      0x05\n      add\n      0x00\n        /* \"lesson/lesson10/NFTMarketplace.sol\":10107:10141  auction.highestBidder = msg.sender */\n      0x0100\n      exp\n      dup2\n      sload\n      dup2\n      0xffffffffffffffffffffffffffffffffffffffff\n      mul\n      not\n      and\n      swap1\n      dup4\n      0xffffffffffffffffffffffffffffffffffffffff\n      and\n      mul\n      or\n      swap1\n      sstore\n      pop\n        /* \"lesson/lesson10/NFTMarketplace.sol\":10180:10190  msg.sender */\n      caller\n        /* \"lesson/lesson10/NFTMarketplace.sol\":10159:10202  BidPlaced(auctionId, msg.sender, msg.value) */\n      0xffffffffffffffffffffffffffffffffffffffff\n      and\n        /* \"lesson/lesson10/NFTMarketplace.sol\":10169:10178  auctionId */\n      dup4\n        /* \"lesson/lesson10/NFTMarketplace.sol\":10159:10202  BidPlaced(auctionId, msg.sender, msg.value) */\n      0x0e54eff26401bf69b81b26f60bd85ef47f5d85275c1d268d84f68d6897431c47\n        /* \"lesson/lesson10/NFTMarketplace.sol\":10192:10201  msg.value */\n      callvalue\n        /* \"lesson/lesson10/NFTMarketplace.sol\":10159:10202  BidPlaced(auctionId, msg.sender, msg.value) */\n      mload(0x40)\n      tag_267\n      swap2\n      swap1\n      tag_43\n      jump\t// in\n    tag_267:\n      mload(0x40)\n      dup1\n      swap2\n      sub\n      swap1\n      log3\n        /* \"lesson/lesson10/NFTMarketplace.sol\":9230:10210  {... */\n      pop\n      pop\n        /* \"lesson/lesson10/NFTMarketplace.sol\":9177:10210  function placeBid(uint256 auctionId) external payable{... */\n      pop\n      jump\t// out\n        /* \"lesson/lesson10/NFTMarketplace.sol\":1731:1760  uint256 public auctionCounter */\n    tag_89:\n      sload(0x04)\n      dup2\n      jump\t// out\n        /* \"lesson/lesson10/NFTMarketplace.sol\":3618:4637  function listNFT(address nftContract, uint256 tokenId, uint256 price) external returns(uint256) {... */\n    tag_95:\n        /* \"lesson/lesson10/NFTMarketplace.sol\":3705:3712  uint256 */\n      0x00\n        /* \"lesson/lesson10/NFTMarketplace.sol\":3741:3742  0 */\n      0x00\n        /* \"lesson/lesson10/NFTMarketplace.sol\":3733:3738  price */\n      dup3\n        /* \"lesson/lesson10/NFTMarketplace.sol\":3733:3742  price > 0 */\n      gt\n        /* \"lesson/lesson10/NFTMarketplace.sol\":3725:3775  require(price > 0, \"Price must be greater than 0\") */\n      tag_269\n      jumpi\n      mload(0x40)\n      0x08c379a000000000000000000000000000000000000000000000000000000000\n      dup2\n      mstore\n      0x04\n      add\n      tag_270\n      swap1\n      tag_240\n      jump\t// in\n    tag_270:\n      mload(0x40)\n      dup1\n      swap2\n      sub\n      swap1\n      revert\n    tag_269:\n        /* \"lesson/lesson10/NFTMarketplace.sol\":3817:3818  0 */\n      0x00\n        /* \"lesson/lesson10/NFTMarketplace.sol\":3794:3819  nftContract != address(0) */\n      0xffffffffffffffffffffffffffffffffffffffff\n      and\n        /* \"lesson/lesson10/NFTMarketplace.sol\":3794:3805  nftContract */\n      dup5\n        /* \"lesson/lesson10/NFTMarketplace.sol\":3794:3819  nftContract != address(0) */\n      0xffffffffffffffffffffffffffffffffffffffff\n      and\n      sub\n        /* \"lesson/lesson10/NFTMarketplace.sol\":3786:3844  require(nftContract != address(0), \"Invalid NFT contract\") */\n      tag_271\n      jumpi\n      mload(0x40)\n      0x08c379a000000000000000000000000000000000000000000000000000000000\n      dup2\n      mstore\n      0x04\n      add\n      tag_272\n      swap1\n      tag_206\n      jump\t// in\n    tag_272:\n      mload(0x40)\n      dup1\n      swap2\n      sub\n      swap1\n      revert\n    tag_271:\n        /* \"lesson/lesson10/NFTMarketplace.sol\":3857:3868  IERC721 nft */\n      0x00\n        /* \"lesson/lesson10/NFTMarketplace.sol\":3879:3890  nftContract */\n      dup5\n        /* \"lesson/lesson10/NFTMarketplace.sol\":3857:3891  IERC721 nft = IERC721(nftContract) */\n      swap1\n      pop\n        /* \"lesson/lesson10/NFTMarketplace.sol\":3964:3974  msg.sender */\n      caller\n        /* \"lesson/lesson10/NFTMarketplace.sol\":3940:3974  nft.ownerOf(tokenId) == msg.sender */\n      0xffffffffffffffffffffffffffffffffffffffff\n      and\n        /* \"lesson/lesson10/NFTMarketplace.sol\":3940:3943  nft */\n      dup2\n        /* \"lesson/lesson10/NFTMarketplace.sol\":3940:3951  nft.ownerOf */\n      0xffffffffffffffffffffffffffffffffffffffff\n      and\n      0x6352211e\n        /* \"lesson/lesson10/NFTMarketplace.sol\":3952:3959  tokenId */\n      dup7\n        /* \"lesson/lesson10/NFTMarketplace.sol\":3940:3960  nft.ownerOf(tokenId) */\n      mload(0x40)\n      dup3\n      0xffffffff\n      and\n      0xe0\n      shl\n      dup2\n      mstore\n      0x04\n      add\n      tag_273\n      swap2\n      swap1\n      tag_43\n      jump\t// in\n    tag_273:\n      0x20\n      mload(0x40)\n      dup1\n      dup4\n      sub\n      dup2\n      dup7\n      gas\n      staticcall\n      iszero\n      dup1\n      iszero\n      tag_275\n      jumpi\n      returndatacopy(0x00, 0x00, returndatasize)\n      revert(0x00, returndatasize)\n    tag_275:\n      pop\n      pop\n      pop\n      pop\n      mload(0x40)\n      returndatasize\n      not(0x1f)\n      0x1f\n      dup3\n      add\n      and\n      dup3\n      add\n      dup1\n      0x40\n      mstore\n      pop\n      dup2\n      add\n      swap1\n      tag_276\n      swap2\n      swap1\n      tag_211\n      jump\t// in\n    tag_276:\n        /* \"lesson/lesson10/NFTMarketplace.sol\":3940:3974  nft.ownerOf(tokenId) == msg.sender */\n      0xffffffffffffffffffffffffffffffffffffffff\n      and\n      eq\n        /* \"lesson/lesson10/NFTMarketplace.sol\":3932:3993  require(nft.ownerOf(tokenId) == msg.sender, \"Not then owner\") */\n      tag_277\n      jumpi\n      mload(0x40)\n      0x08c379a000000000000000000000000000000000000000000000000000000000\n      dup2\n      mstore\n      0x04\n      add\n      tag_278\n      swap1\n      tag_279\n      jump\t// in\n    tag_278:\n      mload(0x40)\n      dup1\n      swap2\n      sub\n      swap1\n      revert\n    tag_277:\n        /* \"lesson/lesson10/NFTMarketplace.sol\":4089:4093  this */\n      address\n        /* \"lesson/lesson10/NFTMarketplace.sol\":4053:4094  nft.getApproved(tokenId) == address(this) */\n      0xffffffffffffffffffffffffffffffffffffffff\n      and\n        /* \"lesson/lesson10/NFTMarketplace.sol\":4053:4056  nft */\n      dup2\n        /* \"lesson/lesson10/NFTMarketplace.sol\":4053:4068  nft.getApproved */\n      0xffffffffffffffffffffffffffffffffffffffff\n      and\n      0x081812fc\n        /* \"lesson/lesson10/NFTMarketplace.sol\":4069:4076  tokenId */\n      dup7\n        /* \"lesson/lesson10/NFTMarketplace.sol\":4053:4077  nft.getApproved(tokenId) */\n      mload(0x40)\n      dup3\n      0xffffffff\n      and\n      0xe0\n      shl\n      dup2\n      mstore\n      0x04\n      add\n      tag_280\n      swap2\n      swap1\n      tag_43\n      jump\t// in\n    tag_280:\n      0x20\n      mload(0x40)\n      dup1\n      dup4\n      sub\n      dup2\n      dup7\n      gas\n      staticcall\n      iszero\n      dup1\n      iszero\n      tag_282\n      jumpi\n      returndatacopy(0x00, 0x00, returndatasize)\n      revert(0x00, returndatasize)\n    tag_282:\n      pop\n      pop\n      pop\n      pop\n      mload(0x40)\n      returndatasize\n      not(0x1f)\n      0x1f\n      dup3\n      add\n      and\n      dup3\n      add\n      dup1\n      0x40\n      mstore\n      pop\n      dup2\n      add\n      swap1\n      tag_283\n      swap2\n      swap1\n      tag_211\n      jump\t// in\n    tag_283:\n        /* \"lesson/lesson10/NFTMarketplace.sol\":4053:4094  nft.getApproved(tokenId) == address(this) */\n      0xffffffffffffffffffffffffffffffffffffffff\n      and\n      eq\n        /* \"lesson/lesson10/NFTMarketplace.sol\":4053:4158  nft.getApproved(tokenId) == address(this) ||... */\n      dup1\n      tag_284\n      jumpi\n      pop\n        /* \"lesson/lesson10/NFTMarketplace.sol\":4111:4114  nft */\n      dup1\n        /* \"lesson/lesson10/NFTMarketplace.sol\":4111:4131  nft.isApprovedForAll */\n      0xffffffffffffffffffffffffffffffffffffffff\n      and\n      0xe985e9c5\n        /* \"lesson/lesson10/NFTMarketplace.sol\":4132:4142  msg.sender */\n      caller\n        /* \"lesson/lesson10/NFTMarketplace.sol\":4152:4156  this */\n      address\n        /* \"lesson/lesson10/NFTMarketplace.sol\":4111:4158  nft.isApprovedForAll(msg.sender, address(this)) */\n      mload(0x40)\n      dup4\n      0xffffffff\n      and\n      0xe0\n      shl\n      dup2\n      mstore\n      0x04\n      add\n      tag_285\n      swap3\n      swap2\n      swap1\n      tag_221\n      jump\t// in\n    tag_285:\n      0x20\n      mload(0x40)\n      dup1\n      dup4\n      sub\n      dup2\n      dup7\n      gas\n      staticcall\n      iszero\n      dup1\n      iszero\n      tag_287\n      jumpi\n      returndatacopy(0x00, 0x00, returndatasize)\n      revert(0x00, returndatasize)\n    tag_287:\n      pop\n      pop\n      pop\n      pop\n      mload(0x40)\n      returndatasize\n      not(0x1f)\n      0x1f\n      dup3\n      add\n      and\n      dup3\n      add\n      dup1\n      0x40\n      mstore\n      pop\n      dup2\n      add\n      swap1\n      tag_288\n      swap2\n      swap1\n      tag_225\n      jump\t// in\n    tag_288:\n        /* \"lesson/lesson10/NFTMarketplace.sol\":4053:4158  nft.getApproved(tokenId) == address(this) ||... */\n    tag_284:\n        /* \"lesson/lesson10/NFTMarketplace.sol\":4031:4210  require(... */\n      tag_289\n      jumpi\n      mload(0x40)\n      0x08c379a000000000000000000000000000000000000000000000000000000000\n      dup2\n      mstore\n      0x04\n      add\n      tag_290\n      swap1\n      tag_228\n      jump\t// in\n    tag_290:\n      mload(0x40)\n      dup1\n      swap2\n      sub\n      swap1\n      revert\n    tag_289:\n        /* \"lesson/lesson10/NFTMarketplace.sol\":4248:4262  listingCounter */\n      0x02\n      0x00\n        /* \"lesson/lesson10/NFTMarketplace.sol\":4248:4264  listingCounter++ */\n      dup2\n      sload\n      dup1\n      swap3\n      swap2\n      swap1\n      tag_291\n      swap1\n      tag_230\n      jump\t// in\n    tag_291:\n      swap2\n      swap1\n      pop\n      sstore\n      pop\n        /* \"lesson/lesson10/NFTMarketplace.sol\":4302:4479  Listing({... */\n      mload(0x40)\n      dup1\n      0xa0\n      add\n      0x40\n      mstore\n      dup1\n        /* \"lesson/lesson10/NFTMarketplace.sol\":4333:4343  msg.sender */\n      caller\n        /* \"lesson/lesson10/NFTMarketplace.sol\":4302:4479  Listing({... */\n      0xffffffffffffffffffffffffffffffffffffffff\n      and\n      dup2\n      mstore\n      0x20\n      add\n        /* \"lesson/lesson10/NFTMarketplace.sol\":4371:4382  nftContract */\n      dup7\n        /* \"lesson/lesson10/NFTMarketplace.sol\":4302:4479  Listing({... */\n      0xffffffffffffffffffffffffffffffffffffffff\n      and\n      dup2\n      mstore\n      0x20\n      add\n        /* \"lesson/lesson10/NFTMarketplace.sol\":4406:4413  tokenId */\n      dup6\n        /* \"lesson/lesson10/NFTMarketplace.sol\":4302:4479  Listing({... */\n      dup2\n      mstore\n      0x20\n      add\n        /* \"lesson/lesson10/NFTMarketplace.sol\":4435:4440  price */\n      dup5\n        /* \"lesson/lesson10/NFTMarketplace.sol\":4302:4479  Listing({... */\n      dup2\n      mstore\n      0x20\n      add\n        /* \"lesson/lesson10/NFTMarketplace.sol\":4463:4467  true */\n      0x01\n        /* \"lesson/lesson10/NFTMarketplace.sol\":4302:4479  Listing({... */\n      iszero\n      iszero\n      dup2\n      mstore\n      pop\n        /* \"lesson/lesson10/NFTMarketplace.sol\":4275:4283  listings */\n      0x01\n        /* \"lesson/lesson10/NFTMarketplace.sol\":4275:4299  listings[listingCounter] */\n      0x00\n        /* \"lesson/lesson10/NFTMarketplace.sol\":4284:4298  listingCounter */\n      sload(0x02)\n        /* \"lesson/lesson10/NFTMarketplace.sol\":4275:4299  listings[listingCounter] */\n      dup2\n      mstore\n      0x20\n      add\n      swap1\n      dup2\n      mstore\n      0x20\n      add\n      0x00\n      keccak256\n        /* \"lesson/lesson10/NFTMarketplace.sol\":4275:4479  listings[listingCounter] = Listing({... */\n      0x00\n      dup3\n      add\n      mload\n      dup2\n      0x00\n      add\n      exp(0x0100, 0x00)\n      dup2\n      sload\n      dup2\n      0xffffffffffffffffffffffffffffffffffffffff\n      mul\n      not\n      and\n      swap1\n      dup4\n      0xffffffffffffffffffffffffffffffffffffffff\n      and\n      mul\n      or\n      swap1\n      sstore\n      pop\n      0x20\n      dup3\n      add\n      mload\n      dup2\n      0x01\n      add\n      exp(0x0100, 0x00)\n      dup2\n      sload\n      dup2\n      0xffffffffffffffffffffffffffffffffffffffff\n      mul\n      not\n      and\n      swap1\n      dup4\n      0xffffffffffffffffffffffffffffffffffffffff\n      and\n      mul\n      or\n      swap1\n      sstore\n      pop\n      0x40\n      dup3\n      add\n      mload\n      dup2\n      0x02\n      add\n      sstore\n      0x60\n      dup3\n      add\n      mload\n      dup2\n      0x03\n      add\n      sstore\n      0x80\n      dup3\n      add\n      mload\n      dup2\n      0x04\n      add\n      exp(0x0100, 0x00)\n      dup2\n      sload\n      dup2\n      0xff\n      mul\n      not\n      and\n      swap1\n      dup4\n      iszero\n      iszero\n      mul\n      or\n      swap1\n      sstore\n      pop\n      swap1\n      pop\n      pop\n        /* \"lesson/lesson10/NFTMarketplace.sol\":4569:4580  nftContract */\n      dup5\n        /* \"lesson/lesson10/NFTMarketplace.sol\":4531:4597  NFTListed(listingCounter, msg.sender, nftContract, tokenId, price) */\n      0xffffffffffffffffffffffffffffffffffffffff\n      and\n        /* \"lesson/lesson10/NFTMarketplace.sol\":4557:4567  msg.sender */\n      caller\n        /* \"lesson/lesson10/NFTMarketplace.sol\":4531:4597  NFTListed(listingCounter, msg.sender, nftContract, tokenId, price) */\n      0xffffffffffffffffffffffffffffffffffffffff\n      and\n        /* \"lesson/lesson10/NFTMarketplace.sol\":4541:4555  listingCounter */\n      sload(0x02)\n        /* \"lesson/lesson10/NFTMarketplace.sol\":4531:4597  NFTListed(listingCounter, msg.sender, nftContract, tokenId, price) */\n      0xb0fe4922ac99799c17a4130d5c045ba2ecdf6e15b75b9ea84aaf0dc28724a42b\n        /* \"lesson/lesson10/NFTMarketplace.sol\":4582:4589  tokenId */\n      dup8\n        /* \"lesson/lesson10/NFTMarketplace.sol\":4591:4596  price */\n      dup8\n        /* \"lesson/lesson10/NFTMarketplace.sol\":4531:4597  NFTListed(listingCounter, msg.sender, nftContract, tokenId, price) */\n      mload(0x40)\n      tag_292\n      swap3\n      swap2\n      swap1\n      tag_293\n      jump\t// in\n    tag_292:\n      mload(0x40)\n      dup1\n      swap2\n      sub\n      swap1\n      log4\n        /* \"lesson/lesson10/NFTMarketplace.sol\":4615:4629  listingCounter */\n      sload(0x02)\n        /* \"lesson/lesson10/NFTMarketplace.sol\":4608:4629  return listingCounter */\n      swap2\n      pop\n      pop\n        /* \"lesson/lesson10/NFTMarketplace.sol\":3618:4637  function listNFT(address nftContract, uint256 tokenId, uint256 price) external returns(uint256) {... */\n      swap4\n      swap3\n      pop\n      pop\n      pop\n      jump\t// out\n        /* \"lesson/lesson10/NFTMarketplace.sol\":10872:12686  function endAuction(uint256 auctionId) external nonReentrant {... */\n    tag_100:\n        /* \"@openzeppelin/contracts/security/ReentrancyGuard.sol\":2261:2282  _nonReentrantBefore() */\n      tag_295\n        /* \"@openzeppelin/contracts/security/ReentrancyGuard.sol\":2261:2280  _nonReentrantBefore */\n      tag_137\n        /* \"@openzeppelin/contracts/security/ReentrancyGuard.sol\":2261:2282  _nonReentrantBefore() */\n      jump\t// in\n    tag_295:\n        /* \"lesson/lesson10/NFTMarketplace.sol\":10944:10967  Auction storage auction */\n      0x00\n        /* \"lesson/lesson10/NFTMarketplace.sol\":10970:10978  auctions */\n      0x03\n        /* \"lesson/lesson10/NFTMarketplace.sol\":10970:10989  auctions[auctionId] */\n      0x00\n        /* \"lesson/lesson10/NFTMarketplace.sol\":10979:10988  auctionId */\n      dup4\n        /* \"lesson/lesson10/NFTMarketplace.sol\":10970:10989  auctions[auctionId] */\n      dup2\n      mstore\n      0x20\n      add\n      swap1\n      dup2\n      mstore\n      0x20\n      add\n      0x00\n      keccak256\n        /* \"lesson/lesson10/NFTMarketplace.sol\":10944:10989  Auction storage auction = auctions[auctionId] */\n      swap1\n      pop\n        /* \"lesson/lesson10/NFTMarketplace.sol\":11010:11017  auction */\n      dup1\n        /* \"lesson/lesson10/NFTMarketplace.sol\":11010:11024  auction.active */\n      0x07\n      add\n      0x00\n      swap1\n      sload\n      swap1\n      0x0100\n      exp\n      swap1\n      div\n      0xff\n      and\n        /* \"lesson/lesson10/NFTMarketplace.sol\":11002:11047  require(auction.active, \"Auction not active\") */\n      tag_297\n      jumpi\n      mload(0x40)\n      0x08c379a000000000000000000000000000000000000000000000000000000000\n      dup2\n      mstore\n      0x04\n      add\n      tag_298\n      swap1\n      tag_250\n      jump\t// in\n    tag_298:\n      mload(0x40)\n      dup1\n      swap2\n      sub\n      swap1\n      revert\n    tag_297:\n        /* \"lesson/lesson10/NFTMarketplace.sol\":11085:11092  auction */\n      dup1\n        /* \"lesson/lesson10/NFTMarketplace.sol\":11085:11100  auction.endTime */\n      0x06\n      add\n      sload\n        /* \"lesson/lesson10/NFTMarketplace.sol\":11066:11081  block.timestamp */\n      timestamp\n        /* \"lesson/lesson10/NFTMarketplace.sol\":11066:11100  block.timestamp >= auction.endTime */\n      lt\n      iszero\n        /* \"lesson/lesson10/NFTMarketplace.sol\":11058:11120  require(block.timestamp >= auction.endTime, \"Auction not end\") */\n      tag_299\n      jumpi\n      mload(0x40)\n      0x08c379a000000000000000000000000000000000000000000000000000000000\n      dup2\n      mstore\n      0x04\n      add\n      tag_300\n      swap1\n      tag_301\n      jump\t// in\n    tag_300:\n      mload(0x40)\n      dup1\n      swap2\n      sub\n      swap1\n      revert\n    tag_299:\n        /* \"lesson/lesson10/NFTMarketplace.sol\":11150:11155  false */\n      0x00\n        /* \"lesson/lesson10/NFTMarketplace.sol\":11133:11140  auction */\n      dup2\n        /* \"lesson/lesson10/NFTMarketplace.sol\":11133:11147  auction.active */\n      0x07\n      add\n      0x00\n        /* \"lesson/lesson10/NFTMarketplace.sol\":11133:11155  auction.active = false */\n      0x0100\n      exp\n      dup2\n      sload\n      dup2\n      0xff\n      mul\n      not\n      and\n      swap1\n      dup4\n      iszero\n      iszero\n      mul\n      or\n      swap1\n      sstore\n      pop\n        /* \"lesson/lesson10/NFTMarketplace.sol\":11205:11206  0 */\n      0x00\n        /* \"lesson/lesson10/NFTMarketplace.sol\":11172:11207  auction.highestBidder != address(0) */\n      0xffffffffffffffffffffffffffffffffffffffff\n      and\n        /* \"lesson/lesson10/NFTMarketplace.sol\":11172:11179  auction */\n      dup2\n        /* \"lesson/lesson10/NFTMarketplace.sol\":11172:11193  auction.highestBidder */\n      0x05\n      add\n      0x00\n      swap1\n      sload\n      swap1\n      0x0100\n      exp\n      swap1\n      div\n      0xffffffffffffffffffffffffffffffffffffffff\n      and\n        /* \"lesson/lesson10/NFTMarketplace.sol\":11172:11207  auction.highestBidder != address(0) */\n      0xffffffffffffffffffffffffffffffffffffffff\n      and\n      eq\n        /* \"lesson/lesson10/NFTMarketplace.sol\":11168:12679  if (auction.highestBidder != address(0)) {... */\n      tag_302\n      jumpi\n        /* \"lesson/lesson10/NFTMarketplace.sol\":11268:11279  uint256 fee */\n      0x00\n        /* \"lesson/lesson10/NFTMarketplace.sol\":11319:11324  10000 */\n      0x2710\n        /* \"lesson/lesson10/NFTMarketplace.sol\":11304:11315  platformFee */\n      sload(0x06)\n        /* \"lesson/lesson10/NFTMarketplace.sol\":11283:11290  auction */\n      dup4\n        /* \"lesson/lesson10/NFTMarketplace.sol\":11283:11301  auction.highestBid */\n      0x04\n      add\n      sload\n        /* \"lesson/lesson10/NFTMarketplace.sol\":11283:11315  auction.highestBid * platformFee */\n      tag_303\n      swap2\n      swap1\n      tag_149\n      jump\t// in\n    tag_303:\n        /* \"lesson/lesson10/NFTMarketplace.sol\":11282:11324  (auction.highestBid * platformFee) / 10000 */\n      tag_304\n      swap2\n      swap1\n      tag_151\n      jump\t// in\n    tag_304:\n        /* \"lesson/lesson10/NFTMarketplace.sol\":11268:11324  uint256 fee = (auction.highestBid * platformFee) / 10000 */\n      swap1\n      pop\n        /* \"lesson/lesson10/NFTMarketplace.sol\":11342:11365  address royaltyReceiver */\n      0x00\n        /* \"lesson/lesson10/NFTMarketplace.sol\":11367:11388  uint256 royaltyAmount */\n      0x00\n        /* \"lesson/lesson10/NFTMarketplace.sol\":11392:11531  _getRoyaltyInfo(... */\n      tag_305\n        /* \"lesson/lesson10/NFTMarketplace.sol\":11426:11433  auction */\n      dup5\n        /* \"lesson/lesson10/NFTMarketplace.sol\":11426:11445  auction.nftContract */\n      0x01\n      add\n      0x00\n      swap1\n      sload\n      swap1\n      0x0100\n      exp\n      swap1\n      div\n      0xffffffffffffffffffffffffffffffffffffffff\n      and\n        /* \"lesson/lesson10/NFTMarketplace.sol\":11464:11471  auction */\n      dup6\n        /* \"lesson/lesson10/NFTMarketplace.sol\":11464:11479  auction.tokenId */\n      0x02\n      add\n      sload\n        /* \"lesson/lesson10/NFTMarketplace.sol\":11498:11505  auction */\n      dup7\n        /* \"lesson/lesson10/NFTMarketplace.sol\":11498:11516  auction.highestBid */\n      0x04\n      add\n      sload\n        /* \"lesson/lesson10/NFTMarketplace.sol\":11392:11407  _getRoyaltyInfo */\n      tag_153\n        /* \"lesson/lesson10/NFTMarketplace.sol\":11392:11531  _getRoyaltyInfo(... */\n      jump\t// in\n    tag_305:\n        /* \"lesson/lesson10/NFTMarketplace.sol\":11341:11531  (address royaltyReceiver, uint256 royaltyAmount) = _getRoyaltyInfo(... */\n      swap2\n      pop\n      swap2\n      pop\n        /* \"lesson/lesson10/NFTMarketplace.sol\":11548:11568  uint256 sellerAmount */\n      0x00\n        /* \"lesson/lesson10/NFTMarketplace.sol\":11598:11611  royaltyAmount */\n      dup2\n        /* \"lesson/lesson10/NFTMarketplace.sol\":11592:11595  fee */\n      dup5\n        /* \"lesson/lesson10/NFTMarketplace.sol\":11571:11578  auction */\n      dup7\n        /* \"lesson/lesson10/NFTMarketplace.sol\":11571:11589  auction.highestBid */\n      0x04\n      add\n      sload\n        /* \"lesson/lesson10/NFTMarketplace.sol\":11571:11595  auction.highestBid - fee */\n      tag_306\n      swap2\n      swap1\n      tag_155\n      jump\t// in\n    tag_306:\n        /* \"lesson/lesson10/NFTMarketplace.sol\":11571:11611  auction.highestBid - fee - royaltyAmount */\n      tag_307\n      swap2\n      swap1\n      tag_155\n      jump\t// in\n    tag_307:\n        /* \"lesson/lesson10/NFTMarketplace.sol\":11548:11611  uint256 sellerAmount = auction.highestBid - fee - royaltyAmount */\n      swap1\n      pop\n        /* \"lesson/lesson10/NFTMarketplace.sol\":11662:11669  auction */\n      dup5\n        /* \"lesson/lesson10/NFTMarketplace.sol\":11662:11681  auction.nftContract */\n      0x01\n      add\n      0x00\n      swap1\n      sload\n      swap1\n      0x0100\n      exp\n      swap1\n      div\n      0xffffffffffffffffffffffffffffffffffffffff\n      and\n        /* \"lesson/lesson10/NFTMarketplace.sol\":11654:11699  IERC721(auction.nftContract).safeTransferFrom */\n      0xffffffffffffffffffffffffffffffffffffffff\n      and\n      0x42842e0e\n        /* \"lesson/lesson10/NFTMarketplace.sol\":11718:11725  auction */\n      dup7\n        /* \"lesson/lesson10/NFTMarketplace.sol\":11718:11732  auction.seller */\n      0x00\n      add\n      0x00\n      swap1\n      sload\n      swap1\n      0x0100\n      exp\n      swap1\n      div\n      0xffffffffffffffffffffffffffffffffffffffff\n      and\n        /* \"lesson/lesson10/NFTMarketplace.sol\":11751:11758  auction */\n      dup8\n        /* \"lesson/lesson10/NFTMarketplace.sol\":11751:11772  auction.highestBidder */\n      0x05\n      add\n      0x00\n      swap1\n      sload\n      swap1\n      0x0100\n      exp\n      swap1\n      div\n      0xffffffffffffffffffffffffffffffffffffffff\n      and\n        /* \"lesson/lesson10/NFTMarketplace.sol\":11791:11798  auction */\n      dup9\n        /* \"lesson/lesson10/NFTMarketplace.sol\":11791:11806  auction.tokenId */\n      0x02\n      add\n      sload\n        /* \"lesson/lesson10/NFTMarketplace.sol\":11654:11821  IERC721(auction.nftContract).safeTransferFrom(... */\n      mload(0x40)\n      dup5\n      0xffffffff\n      and\n      0xe0\n      shl\n      dup2\n      mstore\n      0x04\n      add\n      tag_308\n      swap4\n      swap3\n      swap2\n      swap1\n      tag_158\n      jump\t// in\n    tag_308:\n      0x00\n      mload(0x40)\n      dup1\n      dup4\n      sub\n      dup2\n      0x00\n      dup8\n      dup1\n      extcodesize\n      iszero\n      dup1\n      iszero\n      tag_309\n      jumpi\n      revert(0x00, 0x00)\n    tag_309:\n      pop\n      gas\n      call\n      iszero\n      dup1\n      iszero\n      tag_311\n      jumpi\n      returndatacopy(0x00, 0x00, returndatasize)\n      revert(0x00, returndatasize)\n    tag_311:\n      pop\n      pop\n      pop\n      pop\n        /* \"lesson/lesson10/NFTMarketplace.sol\":11887:11888  0 */\n      0x00\n        /* \"lesson/lesson10/NFTMarketplace.sol\":11871:11884  royaltyAmount */\n      dup3\n        /* \"lesson/lesson10/NFTMarketplace.sol\":11871:11888  royaltyAmount > 0 */\n      gt\n        /* \"lesson/lesson10/NFTMarketplace.sol\":11871:11921  royaltyAmount > 0 && royaltyReceiver != address(0) */\n      dup1\n      iszero\n      tag_312\n      jumpi\n      pop\n        /* \"lesson/lesson10/NFTMarketplace.sol\":11919:11920  0 */\n      0x00\n        /* \"lesson/lesson10/NFTMarketplace.sol\":11892:11921  royaltyReceiver != address(0) */\n      0xffffffffffffffffffffffffffffffffffffffff\n      and\n        /* \"lesson/lesson10/NFTMarketplace.sol\":11892:11907  royaltyReceiver */\n      dup4\n        /* \"lesson/lesson10/NFTMarketplace.sol\":11892:11921  royaltyReceiver != address(0) */\n      0xffffffffffffffffffffffffffffffffffffffff\n      and\n      eq\n      iszero\n        /* \"lesson/lesson10/NFTMarketplace.sol\":11871:11921  royaltyAmount > 0 && royaltyReceiver != address(0) */\n    tag_312:\n        /* \"lesson/lesson10/NFTMarketplace.sol\":11867:12100  if (royaltyAmount > 0 && royaltyReceiver != address(0)) {... */\n      iszero\n      tag_313\n      jumpi\n        /* \"lesson/lesson10/NFTMarketplace.sol\":11943:11962  bool successRoyalty */\n      0x00\n        /* \"lesson/lesson10/NFTMarketplace.sol\":11968:11983  royaltyReceiver */\n      dup4\n        /* \"lesson/lesson10/NFTMarketplace.sol\":11968:11988  royaltyReceiver.call */\n      0xffffffffffffffffffffffffffffffffffffffff\n      and\n        /* \"lesson/lesson10/NFTMarketplace.sol\":11996:12009  royaltyAmount */\n      dup4\n        /* \"lesson/lesson10/NFTMarketplace.sol\":11968:12015  royaltyReceiver.call{value: royaltyAmount} (\"\") */\n      mload(0x40)\n      tag_314\n      swap1\n      tag_120\n      jump\t// in\n    tag_314:\n      0x00\n      mload(0x40)\n      dup1\n      dup4\n      sub\n      dup2\n      dup6\n      dup8\n      gas\n      call\n      swap3\n      pop\n      pop\n      pop\n      returndatasize\n      dup1\n      0x00\n      dup2\n      eq\n      tag_317\n      jumpi\n      mload(0x40)\n      swap2\n      pop\n      and(add(returndatasize, 0x3f), not(0x1f))\n      dup3\n      add\n      0x40\n      mstore\n      returndatasize\n      dup3\n      mstore\n      returndatasize\n      0x00\n      0x20\n      dup5\n      add\n      returndatacopy\n      jump(tag_316)\n    tag_317:\n      0x60\n      swap2\n      pop\n    tag_316:\n      pop\n        /* \"lesson/lesson10/NFTMarketplace.sol\":11942:12015  (bool successRoyalty, ) = royaltyReceiver.call{value: royaltyAmount} (\"\") */\n      pop\n      swap1\n      pop\n        /* \"lesson/lesson10/NFTMarketplace.sol\":12042:12056  successRoyalty */\n      dup1\n        /* \"lesson/lesson10/NFTMarketplace.sol\":12034:12084  require(successRoyalty, \"Royalty transfer failed\") */\n      tag_318\n      jumpi\n      mload(0x40)\n      0x08c379a000000000000000000000000000000000000000000000000000000000\n      dup2\n      mstore\n      0x04\n      add\n      tag_319\n      swap1\n      tag_170\n      jump\t// in\n    tag_319:\n      mload(0x40)\n      dup1\n      swap2\n      sub\n      swap1\n      revert\n    tag_318:\n        /* \"lesson/lesson10/NFTMarketplace.sol\":11923:12100  {... */\n      pop\n        /* \"lesson/lesson10/NFTMarketplace.sol\":11867:12100  if (royaltyAmount > 0 && royaltyReceiver != address(0)) {... */\n    tag_313:\n        /* \"lesson/lesson10/NFTMarketplace.sol\":12117:12135  bool successSeller */\n      0x00\n        /* \"lesson/lesson10/NFTMarketplace.sol\":12141:12148  auction */\n      dup6\n        /* \"lesson/lesson10/NFTMarketplace.sol\":12141:12155  auction.seller */\n      0x00\n      add\n      0x00\n      swap1\n      sload\n      swap1\n      0x0100\n      exp\n      swap1\n      div\n      0xffffffffffffffffffffffffffffffffffffffff\n      and\n        /* \"lesson/lesson10/NFTMarketplace.sol\":12141:12160  auction.seller.call */\n      0xffffffffffffffffffffffffffffffffffffffff\n      and\n        /* \"lesson/lesson10/NFTMarketplace.sol\":12168:12180  sellerAmount */\n      dup3\n        /* \"lesson/lesson10/NFTMarketplace.sol\":12141:12185  auction.seller.call{value: sellerAmount}(\"\") */\n      mload(0x40)\n      tag_320\n      swap1\n      tag_120\n      jump\t// in\n    tag_320:\n      0x00\n      mload(0x40)\n      dup1\n      dup4\n      sub\n      dup2\n      dup6\n      dup8\n      gas\n      call\n      swap3\n      pop\n      pop\n      pop\n      returndatasize\n      dup1\n      0x00\n      dup2\n      eq\n      tag_323\n      jumpi\n      mload(0x40)\n      swap2\n      pop\n      and(add(returndatasize, 0x3f), not(0x1f))\n      dup3\n      add\n      0x40\n      mstore\n      returndatasize\n      dup3\n      mstore\n      returndatasize\n      0x00\n      0x20\n      dup5\n      add\n      returndatacopy\n      jump(tag_322)\n    tag_323:\n      0x60\n      swap2\n      pop\n    tag_322:\n      pop\n        /* \"lesson/lesson10/NFTMarketplace.sol\":12116:12185  (bool successSeller, ) = auction.seller.call{value: sellerAmount}(\"\") */\n      pop\n      swap1\n      pop\n        /* \"lesson/lesson10/NFTMarketplace.sol\":12208:12221  successSeller */\n      dup1\n        /* \"lesson/lesson10/NFTMarketplace.sol\":12200:12251  require(successSeller, \"Transfer to seller failed\") */\n      tag_324\n      jumpi\n      mload(0x40)\n      0x08c379a000000000000000000000000000000000000000000000000000000000\n      dup2\n      mstore\n      0x04\n      add\n      tag_325\n      swap1\n      tag_177\n      jump\t// in\n    tag_325:\n      mload(0x40)\n      dup1\n      swap2\n      sub\n      swap1\n      revert\n    tag_324:\n        /* \"lesson/lesson10/NFTMarketplace.sol\":12269:12284  bool successFee */\n      0x00\n        /* \"lesson/lesson10/NFTMarketplace.sol\":12290:12297  auction */\n      dup7\n        /* \"lesson/lesson10/NFTMarketplace.sol\":12290:12304  auction.seller */\n      0x00\n      add\n      0x00\n      swap1\n      sload\n      swap1\n      0x0100\n      exp\n      swap1\n      div\n      0xffffffffffffffffffffffffffffffffffffffff\n      and\n        /* \"lesson/lesson10/NFTMarketplace.sol\":12290:12309  auction.seller.call */\n      0xffffffffffffffffffffffffffffffffffffffff\n      and\n        /* \"lesson/lesson10/NFTMarketplace.sol\":12317:12329  sellerAmount */\n      dup4\n        /* \"lesson/lesson10/NFTMarketplace.sol\":12290:12334  auction.seller.call{value: sellerAmount}(\"\") */\n      mload(0x40)\n      tag_326\n      swap1\n      tag_120\n      jump\t// in\n    tag_326:\n      0x00\n      mload(0x40)\n      dup1\n      dup4\n      sub\n      dup2\n      dup6\n      dup8\n      gas\n      call\n      swap3\n      pop\n      pop\n      pop\n      returndatasize\n      dup1\n      0x00\n      dup2\n      eq\n      tag_329\n      jumpi\n      mload(0x40)\n      swap2\n      pop\n      and(add(returndatasize, 0x3f), not(0x1f))\n      dup3\n      add\n      0x40\n      mstore\n      returndatasize\n      dup3\n      mstore\n      returndatasize\n      0x00\n      0x20\n      dup5\n      add\n      returndatacopy\n      jump(tag_328)\n    tag_329:\n      0x60\n      swap2\n      pop\n    tag_328:\n      pop\n        /* \"lesson/lesson10/NFTMarketplace.sol\":12268:12334  (bool successFee, ) = auction.seller.call{value: sellerAmount}(\"\") */\n      pop\n      swap1\n      pop\n        /* \"lesson/lesson10/NFTMarketplace.sol\":12357:12367  successFee */\n      dup1\n        /* \"lesson/lesson10/NFTMarketplace.sol\":12349:12391  require(successFee, \"Transfer fee failed\") */\n      tag_330\n      jumpi\n      mload(0x40)\n      0x08c379a000000000000000000000000000000000000000000000000000000000\n      dup2\n      mstore\n      0x04\n      add\n      tag_331\n      swap1\n      tag_184\n      jump\t// in\n    tag_331:\n      mload(0x40)\n      dup1\n      swap2\n      sub\n      swap1\n      revert\n    tag_330:\n        /* \"lesson/lesson10/NFTMarketplace.sol\":12472:12479  auction */\n      dup7\n        /* \"lesson/lesson10/NFTMarketplace.sol\":12472:12493  auction.highestBidder */\n      0x05\n      add\n      0x00\n      swap1\n      sload\n      swap1\n      0x0100\n      exp\n      swap1\n      div\n      0xffffffffffffffffffffffffffffffffffffffff\n      and\n        /* \"lesson/lesson10/NFTMarketplace.sol\":12413:12545  AuctionEnded(... */\n      0xffffffffffffffffffffffffffffffffffffffff\n      and\n        /* \"lesson/lesson10/NFTMarketplace.sol\":12444:12453  auctionId */\n      dup9\n        /* \"lesson/lesson10/NFTMarketplace.sol\":12413:12545  AuctionEnded(... */\n      0xd2aa34a4fdbbc6dff6a3e56f46e0f3ae2a31d7785ff3487aa5c95c642acea501\n        /* \"lesson/lesson10/NFTMarketplace.sol\":12512:12519  auction */\n      dup10\n        /* \"lesson/lesson10/NFTMarketplace.sol\":12512:12530  auction.highestBid */\n      0x04\n      add\n      sload\n        /* \"lesson/lesson10/NFTMarketplace.sol\":12413:12545  AuctionEnded(... */\n      mload(0x40)\n      tag_332\n      swap2\n      swap1\n      tag_43\n      jump\t// in\n    tag_332:\n      mload(0x40)\n      dup1\n      swap2\n      sub\n      swap1\n      log3\n        /* \"lesson/lesson10/NFTMarketplace.sol\":11209:12557  {... */\n      pop\n      pop\n      pop\n      pop\n      pop\n      pop\n        /* \"lesson/lesson10/NFTMarketplace.sol\":11168:12679  if (auction.highestBidder != address(0)) {... */\n      jump(tag_333)\n    tag_302:\n        /* \"lesson/lesson10/NFTMarketplace.sol\":12661:12662  0 */\n      0x00\n        /* \"lesson/lesson10/NFTMarketplace.sol\":12629:12667  AuctionEnded(auctionId, address(0), 0) */\n      0xffffffffffffffffffffffffffffffffffffffff\n      and\n        /* \"lesson/lesson10/NFTMarketplace.sol\":12642:12651  auctionId */\n      dup3\n        /* \"lesson/lesson10/NFTMarketplace.sol\":12629:12667  AuctionEnded(auctionId, address(0), 0) */\n      0xd2aa34a4fdbbc6dff6a3e56f46e0f3ae2a31d7785ff3487aa5c95c642acea501\n        /* \"lesson/lesson10/NFTMarketplace.sol\":12665:12666  0 */\n      0x00\n        /* \"lesson/lesson10/NFTMarketplace.sol\":12629:12667  AuctionEnded(auctionId, address(0), 0) */\n      mload(0x40)\n      tag_334\n      swap2\n      swap1\n      tag_335\n      jump\t// in\n    tag_334:\n      mload(0x40)\n      dup1\n      swap2\n      sub\n      swap1\n      log3\n        /* \"lesson/lesson10/NFTMarketplace.sol\":11168:12679  if (auction.highestBidder != address(0)) {... */\n    tag_333:\n        /* \"lesson/lesson10/NFTMarketplace.sol\":10933:12686  {... */\n      pop\n        /* \"@openzeppelin/contracts/security/ReentrancyGuard.sol\":2303:2323  _nonReentrantAfter() */\n      tag_336\n        /* \"@openzeppelin/contracts/security/ReentrancyGuard.sol\":2303:2321  _nonReentrantAfter */\n      tag_196\n        /* \"@openzeppelin/contracts/security/ReentrancyGuard.sol\":2303:2323  _nonReentrantAfter() */\n      jump\t// in\n    tag_336:\n        /* \"lesson/lesson10/NFTMarketplace.sol\":10872:12686  function endAuction(uint256 auctionId) external nonReentrant {... */\n      pop\n      jump\t// out\n        /* \"lesson/lesson10/NFTMarketplace.sol\":4720:5053  function delistNFT(uint256 listingId) external {... */\n    tag_104:\n        /* \"lesson/lesson10/NFTMarketplace.sol\":4778:4801  Listing storage listing */\n      0x00\n        /* \"lesson/lesson10/NFTMarketplace.sol\":4804:4812  listings */\n      0x01\n        /* \"lesson/lesson10/NFTMarketplace.sol\":4804:4823  listings[listingId] */\n      0x00\n        /* \"lesson/lesson10/NFTMarketplace.sol\":4813:4822  listingId */\n      dup4\n        /* \"lesson/lesson10/NFTMarketplace.sol\":4804:4823  listings[listingId] */\n      dup2\n      mstore\n      0x20\n      add\n      swap1\n      dup2\n      mstore\n      0x20\n      add\n      0x00\n      keccak256\n        /* \"lesson/lesson10/NFTMarketplace.sol\":4778:4823  Listing storage listing = listings[listingId] */\n      swap1\n      pop\n        /* \"lesson/lesson10/NFTMarketplace.sol\":4844:4851  listing */\n      dup1\n        /* \"lesson/lesson10/NFTMarketplace.sol\":4844:4858  listing.active */\n      0x04\n      add\n      0x00\n      swap1\n      sload\n      swap1\n      0x0100\n      exp\n      swap1\n      div\n      0xff\n      and\n        /* \"lesson/lesson10/NFTMarketplace.sol\":4836:4881  require(listing.active, \"Listing not active\") */\n      tag_338\n      jumpi\n      mload(0x40)\n      0x08c379a000000000000000000000000000000000000000000000000000000000\n      dup2\n      mstore\n      0x04\n      add\n      tag_339\n      swap1\n      tag_141\n      jump\t// in\n    tag_339:\n      mload(0x40)\n      dup1\n      swap2\n      sub\n      swap1\n      revert\n    tag_338:\n        /* \"lesson/lesson10/NFTMarketplace.sol\":4918:4928  msg.sender */\n      caller\n        /* \"lesson/lesson10/NFTMarketplace.sol\":4900:4928  listing.seller == msg.sender */\n      0xffffffffffffffffffffffffffffffffffffffff\n      and\n        /* \"lesson/lesson10/NFTMarketplace.sol\":4900:4907  listing */\n      dup2\n        /* \"lesson/lesson10/NFTMarketplace.sol\":4900:4914  listing.seller */\n      0x00\n      add\n      0x00\n      swap1\n      sload\n      swap1\n      0x0100\n      exp\n      swap1\n      div\n      0xffffffffffffffffffffffffffffffffffffffff\n      and\n        /* \"lesson/lesson10/NFTMarketplace.sol\":4900:4928  listing.seller == msg.sender */\n      0xffffffffffffffffffffffffffffffffffffffff\n      and\n      eq\n        /* \"lesson/lesson10/NFTMarketplace.sol\":4892:4947  require(listing.seller == msg.sender, \"Not the seller\") */\n      tag_340\n      jumpi\n      mload(0x40)\n      0x08c379a000000000000000000000000000000000000000000000000000000000\n      dup2\n      mstore\n      0x04\n      add\n      tag_341\n      swap1\n      tag_245\n      jump\t// in\n    tag_341:\n      mload(0x40)\n      dup1\n      swap2\n      sub\n      swap1\n      revert\n    tag_340:\n        /* \"lesson/lesson10/NFTMarketplace.sol\":4977:4982  false */\n      0x00\n        /* \"lesson/lesson10/NFTMarketplace.sol\":4960:4967  listing */\n      dup2\n        /* \"lesson/lesson10/NFTMarketplace.sol\":4960:4974  listing.active */\n      0x04\n      add\n      0x00\n        /* \"lesson/lesson10/NFTMarketplace.sol\":4960:4982  listing.active = false */\n      0x0100\n      exp\n      dup2\n      sload\n      dup2\n      0xff\n      mul\n      not\n      and\n      swap1\n      dup4\n      iszero\n      iszero\n      mul\n      or\n      swap1\n      sstore\n      pop\n        /* \"lesson/lesson10/NFTMarketplace.sol\":5035:5044  listingId */\n      dup2\n        /* \"lesson/lesson10/NFTMarketplace.sol\":5023:5045  NFTDelisted(listingId) */\n      0xc0c55a6edead4433d18cb1e287a0a20a2fa003a6f483bc9823d2e504d70d1c67\n      mload(0x40)\n      mload(0x40)\n      dup1\n      swap2\n      sub\n      swap1\n      log2\n        /* \"lesson/lesson10/NFTMarketplace.sol\":4767:5053  {... */\n      pop\n        /* \"lesson/lesson10/NFTMarketplace.sol\":4720:5053  function delistNFT(uint256 listingId) external {... */\n      pop\n      jump\t// out\n        /* \"lesson/lesson10/NFTMarketplace.sol\":1572:1615  mapping(uint256 => Listing) public listings */\n    tag_108:\n      mstore(0x20, 0x01)\n      dup1\n      0x00\n      mstore\n      keccak256(0x00, 0x40)\n      0x00\n      swap2\n      pop\n      swap1\n      pop\n      dup1\n      0x00\n      add\n      0x00\n      swap1\n      sload\n      swap1\n      0x0100\n      exp\n      swap1\n      div\n      0xffffffffffffffffffffffffffffffffffffffff\n      and\n      swap1\n      dup1\n      0x01\n      add\n      0x00\n      swap1\n      sload\n      swap1\n      0x0100\n      exp\n      swap1\n      div\n      0xffffffffffffffffffffffffffffffffffffffff\n      and\n      swap1\n      dup1\n      0x02\n      add\n      sload\n      swap1\n      dup1\n      0x03\n      add\n      sload\n      swap1\n      dup1\n      0x04\n      add\n      0x00\n      swap1\n      sload\n      swap1\n      0x0100\n      exp\n      swap1\n      div\n      0xff\n      and\n      swap1\n      pop\n      dup6\n      jump\t// out\n        /* \"lesson/lesson10/NFTMarketplace.sol\":15940:16179  function updateFeeRecipient(address newRecipient) external {... */\n    tag_114:\n        /* \"lesson/lesson10/NFTMarketplace.sol\":16032:16044  feeRecipient */\n      0x07\n      0x00\n      swap1\n      sload\n      swap1\n      0x0100\n      exp\n      swap1\n      div\n      0xffffffffffffffffffffffffffffffffffffffff\n      and\n        /* \"lesson/lesson10/NFTMarketplace.sol\":16018:16044  msg.sender == feeRecipient */\n      0xffffffffffffffffffffffffffffffffffffffff\n      and\n        /* \"lesson/lesson10/NFTMarketplace.sol\":16018:16028  msg.sender */\n      caller\n        /* \"lesson/lesson10/NFTMarketplace.sol\":16018:16044  msg.sender == feeRecipient */\n      0xffffffffffffffffffffffffffffffffffffffff\n      and\n      eq\n        /* \"lesson/lesson10/NFTMarketplace.sol\":16010:16066  require(msg.sender == feeRecipient, \"Not fee recipient\") */\n      tag_343\n      jumpi\n      mload(0x40)\n      0x08c379a000000000000000000000000000000000000000000000000000000000\n      dup2\n      mstore\n      0x04\n      add\n      tag_344\n      swap1\n      tag_131\n      jump\t// in\n    tag_344:\n      mload(0x40)\n      dup1\n      swap2\n      sub\n      swap1\n      revert\n    tag_343:\n        /* \"lesson/lesson10/NFTMarketplace.sol\":16109:16110  0 */\n      0x00\n        /* \"lesson/lesson10/NFTMarketplace.sol\":16085:16111  newRecipient != address(0) */\n      0xffffffffffffffffffffffffffffffffffffffff\n      and\n        /* \"lesson/lesson10/NFTMarketplace.sol\":16085:16097  newRecipient */\n      dup2\n        /* \"lesson/lesson10/NFTMarketplace.sol\":16085:16111  newRecipient != address(0) */\n      0xffffffffffffffffffffffffffffffffffffffff\n      and\n      sub\n        /* \"lesson/lesson10/NFTMarketplace.sol\":16077:16131  require(newRecipient != address(0), \"Invalid address\") */\n      tag_345\n      jumpi\n      mload(0x40)\n      0x08c379a000000000000000000000000000000000000000000000000000000000\n      dup2\n      mstore\n      0x04\n      add\n      tag_346\n      swap1\n      tag_347\n      jump\t// in\n    tag_346:\n      mload(0x40)\n      dup1\n      swap2\n      sub\n      swap1\n      revert\n    tag_345:\n        /* \"lesson/lesson10/NFTMarketplace.sol\":16159:16171  newRecipient */\n      dup1\n        /* \"lesson/lesson10/NFTMarketplace.sol\":16144:16156  feeRecipient */\n      0x07\n      0x00\n        /* \"lesson/lesson10/NFTMarketplace.sol\":16144:16171  feeRecipient = newRecipient */\n      0x0100\n      exp\n      dup2\n      sload\n      dup2\n      0xffffffffffffffffffffffffffffffffffffffff\n      mul\n      not\n      and\n      swap1\n      dup4\n      0xffffffffffffffffffffffffffffffffffffffff\n      and\n      mul\n      or\n      swap1\n      sstore\n      pop\n        /* \"lesson/lesson10/NFTMarketplace.sol\":15940:16179  function updateFeeRecipient(address newRecipient) external {... */\n      pop\n      jump\t// out\n        /* \"@openzeppelin/contracts/security/ReentrancyGuard.sol\":2336:2623  function _nonReentrantBefore() private {... */\n    tag_137:\n        /* \"@openzeppelin/contracts/security/ReentrancyGuard.sol\":1759:1760  2 */\n      0x02\n        /* \"@openzeppelin/contracts/security/ReentrancyGuard.sol\":2468:2475  _status */\n      sload(0x00)\n        /* \"@openzeppelin/contracts/security/ReentrancyGuard.sol\":2468:2487  _status != _ENTERED */\n      sub\n        /* \"@openzeppelin/contracts/security/ReentrancyGuard.sol\":2460:2523  require(_status != _ENTERED, \"ReentrancyGuard: reentrant call\") */\n      tag_349\n      jumpi\n      mload(0x40)\n      0x08c379a000000000000000000000000000000000000000000000000000000000\n      dup2\n      mstore\n      0x04\n      add\n      tag_350\n      swap1\n      tag_351\n      jump\t// in\n    tag_350:\n      mload(0x40)\n      dup1\n      swap2\n      sub\n      swap1\n      revert\n    tag_349:\n        /* \"@openzeppelin/contracts/security/ReentrancyGuard.sol\":1759:1760  2 */\n      0x02\n        /* \"@openzeppelin/contracts/security/ReentrancyGuard.sol\":2598:2605  _status */\n      0x00\n        /* \"@openzeppelin/contracts/security/ReentrancyGuard.sol\":2598:2616  _status = _ENTERED */\n      dup2\n      swap1\n      sstore\n      pop\n        /* \"@openzeppelin/contracts/security/ReentrancyGuard.sol\":2336:2623  function _nonReentrantBefore() private {... */\n      jump\t// out\n        /* \"lesson/lesson10/NFTMarketplace.sol\":13008:13567  function _getRoyaltyInfo(address nftContract, uint256 tokenId, uint256 salePrice)... */\n    tag_153:\n        /* \"lesson/lesson10/NFTMarketplace.sol\":13122:13138  address receiver */\n      0x00\n        /* \"lesson/lesson10/NFTMarketplace.sol\":13140:13161  uint256 royaltyAmount */\n      0x00\n        /* \"lesson/lesson10/NFTMarketplace.sol\":13245:13256  nftContract */\n      dup5\n        /* \"lesson/lesson10/NFTMarketplace.sol\":13237:13275  IERC165(nftContract).supportsInterface */\n      0xffffffffffffffffffffffffffffffffffffffff\n      and\n      0x01ffc9a7\n        /* \"lesson/lesson10/NFTMarketplace.sol\":13276:13302  type(IERC2981).interfaceId */\n      0x2a55205a00000000000000000000000000000000000000000000000000000000\n        /* \"lesson/lesson10/NFTMarketplace.sol\":13237:13303  IERC165(nftContract).supportsInterface(type(IERC2981).interfaceId) */\n      mload(0x40)\n      dup3\n      0xffffffff\n      and\n      0xe0\n      shl\n      dup2\n      mstore\n      0x04\n      add\n      tag_353\n      swap2\n      swap1\n      tag_354\n      jump\t// in\n    tag_353:\n      0x20\n      mload(0x40)\n      dup1\n      dup4\n      sub\n      dup2\n      dup7\n      gas\n      staticcall\n      iszero\n      dup1\n      iszero\n      tag_356\n      jumpi\n      returndatacopy(0x00, 0x00, returndatasize)\n      revert(0x00, returndatasize)\n    tag_356:\n      pop\n      pop\n      pop\n      pop\n      mload(0x40)\n      returndatasize\n      not(0x1f)\n      0x1f\n      dup3\n      add\n      and\n      dup3\n      add\n      dup1\n      0x40\n      mstore\n      pop\n      dup2\n      add\n      swap1\n      tag_357\n      swap2\n      swap1\n      tag_225\n      jump\t// in\n    tag_357:\n        /* \"lesson/lesson10/NFTMarketplace.sol\":13233:13560  if (IERC165(nftContract).supportsInterface(type(IERC2981).interfaceId)) {... */\n      iszero\n      tag_358\n      jumpi\n        /* \"lesson/lesson10/NFTMarketplace.sol\":13357:13368  nftContract */\n      dup5\n        /* \"lesson/lesson10/NFTMarketplace.sol\":13348:13381  IERC2981(nftContract).royaltyInfo */\n      0xffffffffffffffffffffffffffffffffffffffff\n      and\n      0x2a55205a\n        /* \"lesson/lesson10/NFTMarketplace.sol\":13382:13389  tokenId */\n      dup6\n        /* \"lesson/lesson10/NFTMarketplace.sol\":13391:13400  salePrice */\n      dup6\n        /* \"lesson/lesson10/NFTMarketplace.sol\":13348:13401  IERC2981(nftContract).royaltyInfo(tokenId, salePrice) */\n      mload(0x40)\n      dup4\n      0xffffffff\n      and\n      0xe0\n      shl\n      dup2\n      mstore\n      0x04\n      add\n      tag_359\n      swap3\n      swap2\n      swap1\n      tag_293\n      jump\t// in\n    tag_359:\n      0x40\n      dup1\n      mload\n      dup1\n      dup4\n      sub\n      dup2\n      dup7\n      gas\n      staticcall\n      iszero\n      dup1\n      iszero\n      tag_361\n      jumpi\n      returndatacopy(0x00, 0x00, returndatasize)\n      revert(0x00, returndatasize)\n    tag_361:\n      pop\n      pop\n      pop\n      pop\n      mload(0x40)\n      returndatasize\n      not(0x1f)\n      0x1f\n      dup3\n      add\n      and\n      dup3\n      add\n      dup1\n      0x40\n      mstore\n      pop\n      dup2\n      add\n      swap1\n      tag_362\n      swap2\n      swap1\n      tag_363\n      jump\t// in\n    tag_362:\n        /* \"lesson/lesson10/NFTMarketplace.sol\":13320:13401  (receiver, royaltyAmount) = IERC2981(nftContract).royaltyInfo(tokenId, salePrice) */\n      dup1\n      swap3\n      pop\n      dup2\n      swap4\n      pop\n      pop\n      pop\n        /* \"lesson/lesson10/NFTMarketplace.sol\":13233:13560  if (IERC165(nftContract).supportsInterface(type(IERC2981).interfaceId)) {... */\n      jump(tag_364)\n    tag_358:\n        /* \"lesson/lesson10/NFTMarketplace.sol\":13514:13515  0 */\n      0x00\n        /* \"lesson/lesson10/NFTMarketplace.sol\":13495:13516  receiver = address(0) */\n      swap2\n      pop\n        /* \"lesson/lesson10/NFTMarketplace.sol\":13547:13548  0 */\n      0x00\n        /* \"lesson/lesson10/NFTMarketplace.sol\":13531:13548  royaltyAmount = 0 */\n      swap1\n      pop\n        /* \"lesson/lesson10/NFTMarketplace.sol\":13233:13560  if (IERC165(nftContract).supportsInterface(type(IERC2981).interfaceId)) {... */\n    tag_364:\n        /* \"lesson/lesson10/NFTMarketplace.sol\":13008:13567  function _getRoyaltyInfo(address nftContract, uint256 tokenId, uint256 salePrice)... */\n      swap4\n      pop\n      swap4\n      swap2\n      pop\n      pop\n      jump\t// out\n        /* \"@openzeppelin/contracts/security/ReentrancyGuard.sol\":2629:2838  function _nonReentrantAfter() private {... */\n    tag_196:\n        /* \"@openzeppelin/contracts/security/ReentrancyGuard.sol\":1716:1717  1 */\n      0x01\n        /* \"@openzeppelin/contracts/security/ReentrancyGuard.sol\":2809:2816  _status */\n      0x00\n        /* \"@openzeppelin/contracts/security/ReentrancyGuard.sol\":2809:2831  _status = _NOT_ENTERED */\n      dup2\n      swap1\n      sstore\n      pop\n        /* \"@openzeppelin/contracts/security/ReentrancyGuard.sol\":2629:2838  function _nonReentrantAfter() private {... */\n      jump\t// out\n        /* \"#utility.yul\":88:205   */\n    tag_367:\n        /* \"#utility.yul\":197:198   */\n      0x00\n        /* \"#utility.yul\":194:195   */\n      0x00\n        /* \"#utility.yul\":187:199   */\n      revert\n        /* \"#utility.yul\":334:411   */\n    tag_369:\n        /* \"#utility.yul\":371:378   */\n      0x00\n        /* \"#utility.yul\":400:405   */\n      dup2\n        /* \"#utility.yul\":389:405   */\n      swap1\n      pop\n        /* \"#utility.yul\":334:411   */\n      swap2\n      swap1\n      pop\n      jump\t// out\n        /* \"#utility.yul\":417:539   */\n    tag_370:\n        /* \"#utility.yul\":490:514   */\n      tag_454\n        /* \"#utility.yul\":508:513   */\n      dup2\n        /* \"#utility.yul\":490:514   */\n      tag_369\n      jump\t// in\n    tag_454:\n        /* \"#utility.yul\":483:488   */\n      dup2\n        /* \"#utility.yul\":480:515   */\n      eq\n        /* \"#utility.yul\":470:533   */\n      tag_455\n      jumpi\n        /* \"#utility.yul\":529:530   */\n      0x00\n        /* \"#utility.yul\":526:527   */\n      0x00\n        /* \"#utility.yul\":519:531   */\n      revert\n        /* \"#utility.yul\":470:533   */\n    tag_455:\n        /* \"#utility.yul\":417:539   */\n      pop\n      jump\t// out\n        /* \"#utility.yul\":545:684   */\n    tag_371:\n        /* \"#utility.yul\":591:596   */\n      0x00\n        /* \"#utility.yul\":629:635   */\n      dup2\n        /* \"#utility.yul\":616:636   */\n      calldataload\n        /* \"#utility.yul\":607:636   */\n      swap1\n      pop\n        /* \"#utility.yul\":645:678   */\n      tag_457\n        /* \"#utility.yul\":672:677   */\n      dup2\n        /* \"#utility.yul\":645:678   */\n      tag_370\n      jump\t// in\n    tag_457:\n        /* \"#utility.yul\":545:684   */\n      swap3\n      swap2\n      pop\n      pop\n      jump\t// out\n        /* \"#utility.yul\":690:1019   */\n    tag_27:\n        /* \"#utility.yul\":749:755   */\n      0x00\n        /* \"#utility.yul\":798:800   */\n      0x20\n        /* \"#utility.yul\":786:795   */\n      dup3\n        /* \"#utility.yul\":777:784   */\n      dup5\n        /* \"#utility.yul\":773:796   */\n      sub\n        /* \"#utility.yul\":769:801   */\n      slt\n        /* \"#utility.yul\":766:885   */\n      iszero\n      tag_459\n      jumpi\n        /* \"#utility.yul\":804:883   */\n      tag_460\n      tag_367\n      jump\t// in\n    tag_460:\n        /* \"#utility.yul\":766:885   */\n    tag_459:\n        /* \"#utility.yul\":924:925   */\n      0x00\n        /* \"#utility.yul\":949:1002   */\n      tag_461\n        /* \"#utility.yul\":994:1001   */\n      dup5\n        /* \"#utility.yul\":985:991   */\n      dup3\n        /* \"#utility.yul\":974:983   */\n      dup6\n        /* \"#utility.yul\":970:992   */\n      add\n        /* \"#utility.yul\":949:1002   */\n      tag_371\n      jump\t// in\n    tag_461:\n        /* \"#utility.yul\":939:1002   */\n      swap2\n      pop\n        /* \"#utility.yul\":895:1012   */\n      pop\n        /* \"#utility.yul\":690:1019   */\n      swap3\n      swap2\n      pop\n      pop\n      jump\t// out\n        /* \"#utility.yul\":1025:1151   */\n    tag_372:\n        /* \"#utility.yul\":1062:1069   */\n      0x00\n        /* \"#utility.yul\":1102:1144   */\n      0xffffffffffffffffffffffffffffffffffffffff\n        /* \"#utility.yul\":1095:1100   */\n      dup3\n        /* \"#utility.yul\":1091:1145   */\n      and\n        /* \"#utility.yul\":1080:1145   */\n      swap1\n      pop\n        /* \"#utility.yul\":1025:1151   */\n      swap2\n      swap1\n      pop\n      jump\t// out\n        /* \"#utility.yul\":1157:1253   */\n    tag_373:\n        /* \"#utility.yul\":1194:1201   */\n      0x00\n        /* \"#utility.yul\":1223:1247   */\n      tag_464\n        /* \"#utility.yul\":1241:1246   */\n      dup3\n        /* \"#utility.yul\":1223:1247   */\n      tag_372\n      jump\t// in\n    tag_464:\n        /* \"#utility.yul\":1212:1247   */\n      swap1\n      pop\n        /* \"#utility.yul\":1157:1253   */\n      swap2\n      swap1\n      pop\n      jump\t// out\n        /* \"#utility.yul\":1259:1377   */\n    tag_374:\n        /* \"#utility.yul\":1346:1370   */\n      tag_466\n        /* \"#utility.yul\":1364:1369   */\n      dup2\n        /* \"#utility.yul\":1346:1370   */\n      tag_373\n      jump\t// in\n    tag_466:\n        /* \"#utility.yul\":1341:1344   */\n      dup3\n        /* \"#utility.yul\":1334:1371   */\n      mstore\n        /* \"#utility.yul\":1259:1377   */\n      pop\n      pop\n      jump\t// out\n        /* \"#utility.yul\":1383:1501   */\n    tag_375:\n        /* \"#utility.yul\":1470:1494   */\n      tag_468\n        /* \"#utility.yul\":1488:1493   */\n      dup2\n        /* \"#utility.yul\":1470:1494   */\n      tag_369\n      jump\t// in\n    tag_468:\n        /* \"#utility.yul\":1465:1468   */\n      dup3\n        /* \"#utility.yul\":1458:1495   */\n      mstore\n        /* \"#utility.yul\":1383:1501   */\n      pop\n      pop\n      jump\t// out\n        /* \"#utility.yul\":1507:1597   */\n    tag_376:\n        /* \"#utility.yul\":1541:1548   */\n      0x00\n        /* \"#utility.yul\":1584:1589   */\n      dup2\n        /* \"#utility.yul\":1577:1590   */\n      iszero\n        /* \"#utility.yul\":1570:1591   */\n      iszero\n        /* \"#utility.yul\":1559:1591   */\n      swap1\n      pop\n        /* \"#utility.yul\":1507:1597   */\n      swap2\n      swap1\n      pop\n      jump\t// out\n        /* \"#utility.yul\":1603:1712   */\n    tag_377:\n        /* \"#utility.yul\":1684:1705   */\n      tag_471\n        /* \"#utility.yul\":1699:1704   */\n      dup2\n        /* \"#utility.yul\":1684:1705   */\n      tag_376\n      jump\t// in\n    tag_471:\n        /* \"#utility.yul\":1679:1682   */\n      dup3\n        /* \"#utility.yul\":1672:1706   */\n      mstore\n        /* \"#utility.yul\":1603:1712   */\n      pop\n      pop\n      jump\t// out\n        /* \"#utility.yul\":1718:2370   */\n    tag_34:\n        /* \"#utility.yul\":1917:1921   */\n      0x00\n        /* \"#utility.yul\":1955:1958   */\n      0xa0\n        /* \"#utility.yul\":1944:1953   */\n      dup3\n        /* \"#utility.yul\":1940:1959   */\n      add\n        /* \"#utility.yul\":1932:1959   */\n      swap1\n      pop\n        /* \"#utility.yul\":1969:2040   */\n      tag_473\n        /* \"#utility.yul\":2037:2038   */\n      0x00\n        /* \"#utility.yul\":2026:2035   */\n      dup4\n        /* \"#utility.yul\":2022:2039   */\n      add\n        /* \"#utility.yul\":2013:2019   */\n      dup9\n        /* \"#utility.yul\":1969:2040   */\n      tag_374\n      jump\t// in\n    tag_473:\n        /* \"#utility.yul\":2050:2122   */\n      tag_474\n        /* \"#utility.yul\":2118:2120   */\n      0x20\n        /* \"#utility.yul\":2107:2116   */\n      dup4\n        /* \"#utility.yul\":2103:2121   */\n      add\n        /* \"#utility.yul\":2094:2100   */\n      dup8\n        /* \"#utility.yul\":2050:2122   */\n      tag_374\n      jump\t// in\n    tag_474:\n        /* \"#utility.yul\":2132:2204   */\n      tag_475\n        /* \"#utility.yul\":2200:2202   */\n      0x40\n        /* \"#utility.yul\":2189:2198   */\n      dup4\n        /* \"#utility.yul\":2185:2203   */\n      add\n        /* \"#utility.yul\":2176:2182   */\n      dup7\n        /* \"#utility.yul\":2132:2204   */\n      tag_375\n      jump\t// in\n    tag_475:\n        /* \"#utility.yul\":2214:2286   */\n      tag_476\n        /* \"#utility.yul\":2282:2284   */\n      0x60\n        /* \"#utility.yul\":2271:2280   */\n      dup4\n        /* \"#utility.yul\":2267:2285   */\n      add\n        /* \"#utility.yul\":2258:2264   */\n      dup6\n        /* \"#utility.yul\":2214:2286   */\n      tag_375\n      jump\t// in\n    tag_476:\n        /* \"#utility.yul\":2296:2363   */\n      tag_477\n        /* \"#utility.yul\":2358:2361   */\n      0x80\n        /* \"#utility.yul\":2347:2356   */\n      dup4\n        /* \"#utility.yul\":2343:2362   */\n      add\n        /* \"#utility.yul\":2334:2340   */\n      dup5\n        /* \"#utility.yul\":2296:2363   */\n      tag_377\n      jump\t// in\n    tag_477:\n        /* \"#utility.yul\":1718:2370   */\n      swap7\n      swap6\n      pop\n      pop\n      pop\n      pop\n      pop\n      pop\n      jump\t// out\n        /* \"#utility.yul\":2376:2598   */\n    tag_43:\n        /* \"#utility.yul\":2469:2473   */\n      0x00\n        /* \"#utility.yul\":2507:2509   */\n      0x20\n        /* \"#utility.yul\":2496:2505   */\n      dup3\n        /* \"#utility.yul\":2492:2510   */\n      add\n        /* \"#utility.yul\":2484:2510   */\n      swap1\n      pop\n        /* \"#utility.yul\":2520:2591   */\n      tag_479\n        /* \"#utility.yul\":2588:2589   */\n      0x00\n        /* \"#utility.yul\":2577:2586   */\n      dup4\n        /* \"#utility.yul\":2573:2590   */\n      add\n        /* \"#utility.yul\":2564:2570   */\n      dup5\n        /* \"#utility.yul\":2520:2591   */\n      tag_375\n      jump\t// in\n    tag_479:\n        /* \"#utility.yul\":2376:2598   */\n      swap3\n      swap2\n      pop\n      pop\n      jump\t// out\n        /* \"#utility.yul\":2604:2826   */\n    tag_48:\n        /* \"#utility.yul\":2697:2701   */\n      0x00\n        /* \"#utility.yul\":2735:2737   */\n      0x20\n        /* \"#utility.yul\":2724:2733   */\n      dup3\n        /* \"#utility.yul\":2720:2738   */\n      add\n        /* \"#utility.yul\":2712:2738   */\n      swap1\n      pop\n        /* \"#utility.yul\":2748:2819   */\n      tag_481\n        /* \"#utility.yul\":2816:2817   */\n      0x00\n        /* \"#utility.yul\":2805:2814   */\n      dup4\n        /* \"#utility.yul\":2801:2818   */\n      add\n        /* \"#utility.yul\":2792:2798   */\n      dup5\n        /* \"#utility.yul\":2748:2819   */\n      tag_374\n      jump\t// in\n    tag_481:\n        /* \"#utility.yul\":2604:2826   */\n      swap3\n      swap2\n      pop\n      pop\n      jump\t// out\n        /* \"#utility.yul\":2832:3817   */\n    tag_57:\n        /* \"#utility.yul\":3115:3119   */\n      0x00\n        /* \"#utility.yul\":3153:3156   */\n      0x0100\n        /* \"#utility.yul\":3142:3151   */\n      dup3\n        /* \"#utility.yul\":3138:3157   */\n      add\n        /* \"#utility.yul\":3130:3157   */\n      swap1\n      pop\n        /* \"#utility.yul\":3167:3238   */\n      tag_483\n        /* \"#utility.yul\":3235:3236   */\n      0x00\n        /* \"#utility.yul\":3224:3233   */\n      dup4\n        /* \"#utility.yul\":3220:3237   */\n      add\n        /* \"#utility.yul\":3211:3217   */\n      dup12\n        /* \"#utility.yul\":3167:3238   */\n      tag_374\n      jump\t// in\n    tag_483:\n        /* \"#utility.yul\":3248:3320   */\n      tag_484\n        /* \"#utility.yul\":3316:3318   */\n      0x20\n        /* \"#utility.yul\":3305:3314   */\n      dup4\n        /* \"#utility.yul\":3301:3319   */\n      add\n        /* \"#utility.yul\":3292:3298   */\n      dup11\n        /* \"#utility.yul\":3248:3320   */\n      tag_374\n      jump\t// in\n    tag_484:\n        /* \"#utility.yul\":3330:3402   */\n      tag_485\n        /* \"#utility.yul\":3398:3400   */\n      0x40\n        /* \"#utility.yul\":3387:3396   */\n      dup4\n        /* \"#utility.yul\":3383:3401   */\n      add\n        /* \"#utility.yul\":3374:3380   */\n      dup10\n        /* \"#utility.yul\":3330:3402   */\n      tag_375\n      jump\t// in\n    tag_485:\n        /* \"#utility.yul\":3412:3484   */\n      tag_486\n        /* \"#utility.yul\":3480:3482   */\n      0x60\n        /* \"#utility.yul\":3469:3478   */\n      dup4\n        /* \"#utility.yul\":3465:3483   */\n      add\n        /* \"#utility.yul\":3456:3462   */\n      dup9\n        /* \"#utility.yul\":3412:3484   */\n      tag_375\n      jump\t// in\n    tag_486:\n        /* \"#utility.yul\":3494:3567   */\n      tag_487\n        /* \"#utility.yul\":3562:3565   */\n      0x80\n        /* \"#utility.yul\":3551:3560   */\n      dup4\n        /* \"#utility.yul\":3547:3566   */\n      add\n        /* \"#utility.yul\":3538:3544   */\n      dup8\n        /* \"#utility.yul\":3494:3567   */\n      tag_375\n      jump\t// in\n    tag_487:\n        /* \"#utility.yul\":3577:3650   */\n      tag_488\n        /* \"#utility.yul\":3645:3648   */\n      0xa0\n        /* \"#utility.yul\":3634:3643   */\n      dup4\n        /* \"#utility.yul\":3630:3649   */\n      add\n        /* \"#utility.yul\":3621:3627   */\n      dup7\n        /* \"#utility.yul\":3577:3650   */\n      tag_374\n      jump\t// in\n    tag_488:\n        /* \"#utility.yul\":3660:3733   */\n      tag_489\n        /* \"#utility.yul\":3728:3731   */\n      0xc0\n        /* \"#utility.yul\":3717:3726   */\n      dup4\n        /* \"#utility.yul\":3713:3732   */\n      add\n        /* \"#utility.yul\":3704:3710   */\n      dup6\n        /* \"#utility.yul\":3660:3733   */\n      tag_375\n      jump\t// in\n    tag_489:\n        /* \"#utility.yul\":3743:3810   */\n      tag_490\n        /* \"#utility.yul\":3805:3808   */\n      0xe0\n        /* \"#utility.yul\":3794:3803   */\n      dup4\n        /* \"#utility.yul\":3790:3809   */\n      add\n        /* \"#utility.yul\":3781:3787   */\n      dup5\n        /* \"#utility.yul\":3743:3810   */\n      tag_377\n      jump\t// in\n    tag_490:\n        /* \"#utility.yul\":2832:3817   */\n      swap10\n      swap9\n      pop\n      pop\n      pop\n      pop\n      pop\n      pop\n      pop\n      pop\n      pop\n      jump\t// out\n        /* \"#utility.yul\":3823:3945   */\n    tag_378:\n        /* \"#utility.yul\":3896:3920   */\n      tag_492\n        /* \"#utility.yul\":3914:3919   */\n      dup2\n        /* \"#utility.yul\":3896:3920   */\n      tag_373\n      jump\t// in\n    tag_492:\n        /* \"#utility.yul\":3889:3894   */\n      dup2\n        /* \"#utility.yul\":3886:3921   */\n      eq\n        /* \"#utility.yul\":3876:3939   */\n      tag_493\n      jumpi\n        /* \"#utility.yul\":3935:3936   */\n      0x00\n        /* \"#utility.yul\":3932:3933   */\n      0x00\n        /* \"#utility.yul\":3925:3937   */\n      revert\n        /* \"#utility.yul\":3876:3939   */\n    tag_493:\n        /* \"#utility.yul\":3823:3945   */\n      pop\n      jump\t// out\n        /* \"#utility.yul\":3951:4090   */\n    tag_379:\n        /* \"#utility.yul\":3997:4002   */\n      0x00\n        /* \"#utility.yul\":4035:4041   */\n      dup2\n        /* \"#utility.yul\":4022:4042   */\n      calldataload\n        /* \"#utility.yul\":4013:4042   */\n      swap1\n      pop\n        /* \"#utility.yul\":4051:4084   */\n      tag_495\n        /* \"#utility.yul\":4078:4083   */\n      dup2\n        /* \"#utility.yul\":4051:4084   */\n      tag_378\n      jump\t// in\n    tag_495:\n        /* \"#utility.yul\":3951:4090   */\n      swap3\n      swap2\n      pop\n      pop\n      jump\t// out\n        /* \"#utility.yul\":4096:4861   */\n    tag_61:\n        /* \"#utility.yul\":4182:4188   */\n      0x00\n        /* \"#utility.yul\":4190:4196   */\n      0x00\n        /* \"#utility.yul\":4198:4204   */\n      0x00\n        /* \"#utility.yul\":4206:4212   */\n      0x00\n        /* \"#utility.yul\":4255:4258   */\n      0x80\n        /* \"#utility.yul\":4243:4252   */\n      dup6\n        /* \"#utility.yul\":4234:4241   */\n      dup8\n        /* \"#utility.yul\":4230:4253   */\n      sub\n        /* \"#utility.yul\":4226:4259   */\n      slt\n        /* \"#utility.yul\":4223:4343   */\n      iszero\n      tag_497\n      jumpi\n        /* \"#utility.yul\":4262:4341   */\n      tag_498\n      tag_367\n      jump\t// in\n    tag_498:\n        /* \"#utility.yul\":4223:4343   */\n    tag_497:\n        /* \"#utility.yul\":4382:4383   */\n      0x00\n        /* \"#utility.yul\":4407:4460   */\n      tag_499\n        /* \"#utility.yul\":4452:4459   */\n      dup8\n        /* \"#utility.yul\":4443:4449   */\n      dup3\n        /* \"#utility.yul\":4432:4441   */\n      dup9\n        /* \"#utility.yul\":4428:4450   */\n      add\n        /* \"#utility.yul\":4407:4460   */\n      tag_379\n      jump\t// in\n    tag_499:\n        /* \"#utility.yul\":4397:4460   */\n      swap5\n      pop\n        /* \"#utility.yul\":4353:4470   */\n      pop\n        /* \"#utility.yul\":4509:4511   */\n      0x20\n        /* \"#utility.yul\":4535:4588   */\n      tag_500\n        /* \"#utility.yul\":4580:4587   */\n      dup8\n        /* \"#utility.yul\":4571:4577   */\n      dup3\n        /* \"#utility.yul\":4560:4569   */\n      dup9\n        /* \"#utility.yul\":4556:4578   */\n      add\n        /* \"#utility.yul\":4535:4588   */\n      tag_371\n      jump\t// in\n    tag_500:\n        /* \"#utility.yul\":4525:4588   */\n      swap4\n      pop\n        /* \"#utility.yul\":4480:4598   */\n      pop\n        /* \"#utility.yul\":4637:4639   */\n      0x40\n        /* \"#utility.yul\":4663:4716   */\n      tag_501\n        /* \"#utility.yul\":4708:4715   */\n      dup8\n        /* \"#utility.yul\":4699:4705   */\n      dup3\n        /* \"#utility.yul\":4688:4697   */\n      dup9\n        /* \"#utility.yul\":4684:4706   */\n      add\n        /* \"#utility.yul\":4663:4716   */\n      tag_371\n      jump\t// in\n    tag_501:\n        /* \"#utility.yul\":4653:4716   */\n      swap3\n      pop\n        /* \"#utility.yul\":4608:4726   */\n      pop\n        /* \"#utility.yul\":4765:4767   */\n      0x60\n        /* \"#utility.yul\":4791:4844   */\n      tag_502\n        /* \"#utility.yul\":4836:4843   */\n      dup8\n        /* \"#utility.yul\":4827:4833   */\n      dup3\n        /* \"#utility.yul\":4816:4825   */\n      dup9\n        /* \"#utility.yul\":4812:4834   */\n      add\n        /* \"#utility.yul\":4791:4844   */\n      tag_371\n      jump\t// in\n    tag_502:\n        /* \"#utility.yul\":4781:4844   */\n      swap2\n      pop\n        /* \"#utility.yul\":4736:4854   */\n      pop\n        /* \"#utility.yul\":4096:4861   */\n      swap3\n      swap6\n      swap2\n      swap5\n      pop\n      swap3\n      pop\n      jump\t// out\n        /* \"#utility.yul\":4867:5341   */\n    tag_76:\n        /* \"#utility.yul\":4935:4941   */\n      0x00\n        /* \"#utility.yul\":4943:4949   */\n      0x00\n        /* \"#utility.yul\":4992:4994   */\n      0x40\n        /* \"#utility.yul\":4980:4989   */\n      dup4\n        /* \"#utility.yul\":4971:4978   */\n      dup6\n        /* \"#utility.yul\":4967:4990   */\n      sub\n        /* \"#utility.yul\":4963:4995   */\n      slt\n        /* \"#utility.yul\":4960:5079   */\n      iszero\n      tag_504\n      jumpi\n        /* \"#utility.yul\":4998:5077   */\n      tag_505\n      tag_367\n      jump\t// in\n    tag_505:\n        /* \"#utility.yul\":4960:5079   */\n    tag_504:\n        /* \"#utility.yul\":5118:5119   */\n      0x00\n        /* \"#utility.yul\":5143:5196   */\n      tag_506\n        /* \"#utility.yul\":5188:5195   */\n      dup6\n        /* \"#utility.yul\":5179:5185   */\n      dup3\n        /* \"#utility.yul\":5168:5177   */\n      dup7\n        /* \"#utility.yul\":5164:5186   */\n      add\n        /* \"#utility.yul\":5143:5196   */\n      tag_371\n      jump\t// in\n    tag_506:\n        /* \"#utility.yul\":5133:5196   */\n      swap3\n      pop\n        /* \"#utility.yul\":5089:5206   */\n      pop\n        /* \"#utility.yul\":5245:5247   */\n      0x20\n        /* \"#utility.yul\":5271:5324   */\n      tag_507\n        /* \"#utility.yul\":5316:5323   */\n      dup6\n        /* \"#utility.yul\":5307:5313   */\n      dup3\n        /* \"#utility.yul\":5296:5305   */\n      dup7\n        /* \"#utility.yul\":5292:5314   */\n      add\n        /* \"#utility.yul\":5271:5324   */\n      tag_371\n      jump\t// in\n    tag_507:\n        /* \"#utility.yul\":5261:5324   */\n      swap2\n      pop\n        /* \"#utility.yul\":5216:5334   */\n      pop\n        /* \"#utility.yul\":4867:5341   */\n      swap3\n      pop\n      swap3\n      swap1\n      pop\n      jump\t// out\n        /* \"#utility.yul\":5347:5821   */\n    tag_81:\n        /* \"#utility.yul\":5415:5421   */\n      0x00\n        /* \"#utility.yul\":5423:5429   */\n      0x00\n        /* \"#utility.yul\":5472:5474   */\n      0x40\n        /* \"#utility.yul\":5460:5469   */\n      dup4\n        /* \"#utility.yul\":5451:5458   */\n      dup6\n        /* \"#utility.yul\":5447:5470   */\n      sub\n        /* \"#utility.yul\":5443:5475   */\n      slt\n        /* \"#utility.yul\":5440:5559   */\n      iszero\n      tag_509\n      jumpi\n        /* \"#utility.yul\":5478:5557   */\n      tag_510\n      tag_367\n      jump\t// in\n    tag_510:\n        /* \"#utility.yul\":5440:5559   */\n    tag_509:\n        /* \"#utility.yul\":5598:5599   */\n      0x00\n        /* \"#utility.yul\":5623:5676   */\n      tag_511\n        /* \"#utility.yul\":5668:5675   */\n      dup6\n        /* \"#utility.yul\":5659:5665   */\n      dup3\n        /* \"#utility.yul\":5648:5657   */\n      dup7\n        /* \"#utility.yul\":5644:5666   */\n      add\n        /* \"#utility.yul\":5623:5676   */\n      tag_371\n      jump\t// in\n    tag_511:\n        /* \"#utility.yul\":5613:5676   */\n      swap3\n      pop\n        /* \"#utility.yul\":5569:5686   */\n      pop\n        /* \"#utility.yul\":5725:5727   */\n      0x20\n        /* \"#utility.yul\":5751:5804   */\n      tag_512\n        /* \"#utility.yul\":5796:5803   */\n      dup6\n        /* \"#utility.yul\":5787:5793   */\n      dup3\n        /* \"#utility.yul\":5776:5785   */\n      dup7\n        /* \"#utility.yul\":5772:5794   */\n      add\n        /* \"#utility.yul\":5751:5804   */\n      tag_379\n      jump\t// in\n    tag_512:\n        /* \"#utility.yul\":5741:5804   */\n      swap2\n      pop\n        /* \"#utility.yul\":5696:5814   */\n      pop\n        /* \"#utility.yul\":5347:5821   */\n      swap3\n      pop\n      swap3\n      swap1\n      pop\n      jump\t// out\n        /* \"#utility.yul\":5827:6446   */\n    tag_94:\n        /* \"#utility.yul\":5904:5910   */\n      0x00\n        /* \"#utility.yul\":5912:5918   */\n      0x00\n        /* \"#utility.yul\":5920:5926   */\n      0x00\n        /* \"#utility.yul\":5969:5971   */\n      0x60\n        /* \"#utility.yul\":5957:5966   */\n      dup5\n        /* \"#utility.yul\":5948:5955   */\n      dup7\n        /* \"#utility.yul\":5944:5967   */\n      sub\n        /* \"#utility.yul\":5940:5972   */\n      slt\n        /* \"#utility.yul\":5937:6056   */\n      iszero\n      tag_514\n      jumpi\n        /* \"#utility.yul\":5975:6054   */\n      tag_515\n      tag_367\n      jump\t// in\n    tag_515:\n        /* \"#utility.yul\":5937:6056   */\n    tag_514:\n        /* \"#utility.yul\":6095:6096   */\n      0x00\n        /* \"#utility.yul\":6120:6173   */\n      tag_516\n        /* \"#utility.yul\":6165:6172   */\n      dup7\n        /* \"#utility.yul\":6156:6162   */\n      dup3\n        /* \"#utility.yul\":6145:6154   */\n      dup8\n        /* \"#utility.yul\":6141:6163   */\n      add\n        /* \"#utility.yul\":6120:6173   */\n      tag_379\n      jump\t// in\n    tag_516:\n        /* \"#utility.yul\":6110:6173   */\n      swap4\n      pop\n        /* \"#utility.yul\":6066:6183   */\n      pop\n        /* \"#utility.yul\":6222:6224   */\n      0x20\n        /* \"#utility.yul\":6248:6301   */\n      tag_517\n        /* \"#utility.yul\":6293:6300   */\n      dup7\n        /* \"#utility.yul\":6284:6290   */\n      dup3\n        /* \"#utility.yul\":6273:6282   */\n      dup8\n        /* \"#utility.yul\":6269:6291   */\n      add\n        /* \"#utility.yul\":6248:6301   */\n      tag_371\n      jump\t// in\n    tag_517:\n        /* \"#utility.yul\":6238:6301   */\n      swap3\n      pop\n        /* \"#utility.yul\":6193:6311   */\n      pop\n        /* \"#utility.yul\":6350:6352   */\n      0x40\n        /* \"#utility.yul\":6376:6429   */\n      tag_518\n        /* \"#utility.yul\":6421:6428   */\n      dup7\n        /* \"#utility.yul\":6412:6418   */\n      dup3\n        /* \"#utility.yul\":6401:6410   */\n      dup8\n        /* \"#utility.yul\":6397:6419   */\n      add\n        /* \"#utility.yul\":6376:6429   */\n      tag_371\n      jump\t// in\n    tag_518:\n        /* \"#utility.yul\":6366:6429   */\n      swap2\n      pop\n        /* \"#utility.yul\":6321:6439   */\n      pop\n        /* \"#utility.yul\":5827:6446   */\n      swap3\n      pop\n      swap3\n      pop\n      swap3\n      jump\t// out\n        /* \"#utility.yul\":6452:6781   */\n    tag_113:\n        /* \"#utility.yul\":6511:6517   */\n      0x00\n        /* \"#utility.yul\":6560:6562   */\n      0x20\n        /* \"#utility.yul\":6548:6557   */\n      dup3\n        /* \"#utility.yul\":6539:6546   */\n      dup5\n        /* \"#utility.yul\":6535:6558   */\n      sub\n        /* \"#utility.yul\":6531:6563   */\n      slt\n        /* \"#utility.yul\":6528:6647   */\n      iszero\n      tag_520\n      jumpi\n        /* \"#utility.yul\":6566:6645   */\n      tag_521\n      tag_367\n      jump\t// in\n    tag_521:\n        /* \"#utility.yul\":6528:6647   */\n    tag_520:\n        /* \"#utility.yul\":6686:6687   */\n      0x00\n        /* \"#utility.yul\":6711:6764   */\n      tag_522\n        /* \"#utility.yul\":6756:6763   */\n      dup5\n        /* \"#utility.yul\":6747:6753   */\n      dup3\n        /* \"#utility.yul\":6736:6745   */\n      dup6\n        /* \"#utility.yul\":6732:6754   */\n      add\n        /* \"#utility.yul\":6711:6764   */\n      tag_379\n      jump\t// in\n    tag_522:\n        /* \"#utility.yul\":6701:6764   */\n      swap2\n      pop\n        /* \"#utility.yul\":6657:6774   */\n      pop\n        /* \"#utility.yul\":6452:6781   */\n      swap3\n      swap2\n      pop\n      pop\n      jump\t// out\n        /* \"#utility.yul\":6787:6956   */\n    tag_380:\n        /* \"#utility.yul\":6871:6882   */\n      0x00\n        /* \"#utility.yul\":6905:6911   */\n      dup3\n        /* \"#utility.yul\":6900:6903   */\n      dup3\n        /* \"#utility.yul\":6893:6912   */\n      mstore\n        /* \"#utility.yul\":6945:6949   */\n      0x20\n        /* \"#utility.yul\":6940:6943   */\n      dup3\n        /* \"#utility.yul\":6936:6950   */\n      add\n        /* \"#utility.yul\":6921:6950   */\n      swap1\n      pop\n        /* \"#utility.yul\":6787:6956   */\n      swap3\n      swap2\n      pop\n      pop\n      jump\t// out\n        /* \"#utility.yul\":6962:7129   */\n    tag_381:\n        /* \"#utility.yul\":7102:7121   */\n      0x4e6f2070656e64696e672072657475726e000000000000000000000000000000\n        /* \"#utility.yul\":7098:7099   */\n      0x00\n        /* \"#utility.yul\":7090:7096   */\n      dup3\n        /* \"#utility.yul\":7086:7100   */\n      add\n        /* \"#utility.yul\":7079:7122   */\n      mstore\n        /* \"#utility.yul\":6962:7129   */\n      pop\n      jump\t// out\n        /* \"#utility.yul\":7135:7501   */\n    tag_382:\n        /* \"#utility.yul\":7277:7280   */\n      0x00\n        /* \"#utility.yul\":7298:7365   */\n      tag_526\n        /* \"#utility.yul\":7362:7364   */\n      0x11\n        /* \"#utility.yul\":7357:7360   */\n      dup4\n        /* \"#utility.yul\":7298:7365   */\n      tag_380\n      jump\t// in\n    tag_526:\n        /* \"#utility.yul\":7291:7365   */\n      swap2\n      pop\n        /* \"#utility.yul\":7374:7467   */\n      tag_527\n        /* \"#utility.yul\":7463:7466   */\n      dup3\n        /* \"#utility.yul\":7374:7467   */\n      tag_381\n      jump\t// in\n    tag_527:\n        /* \"#utility.yul\":7492:7494   */\n      0x20\n        /* \"#utility.yul\":7487:7490   */\n      dup3\n        /* \"#utility.yul\":7483:7495   */\n      add\n        /* \"#utility.yul\":7476:7495   */\n      swap1\n      pop\n        /* \"#utility.yul\":7135:7501   */\n      swap2\n      swap1\n      pop\n      jump\t// out\n        /* \"#utility.yul\":7507:7926   */\n    tag_118:\n        /* \"#utility.yul\":7673:7677   */\n      0x00\n        /* \"#utility.yul\":7711:7713   */\n      0x20\n        /* \"#utility.yul\":7700:7709   */\n      dup3\n        /* \"#utility.yul\":7696:7714   */\n      add\n        /* \"#utility.yul\":7688:7714   */\n      swap1\n      pop\n        /* \"#utility.yul\":7760:7769   */\n      dup2\n        /* \"#utility.yul\":7754:7758   */\n      dup2\n        /* \"#utility.yul\":7750:7770   */\n      sub\n        /* \"#utility.yul\":7746:7747   */\n      0x00\n        /* \"#utility.yul\":7735:7744   */\n      dup4\n        /* \"#utility.yul\":7731:7748   */\n      add\n        /* \"#utility.yul\":7724:7771   */\n      mstore\n        /* \"#utility.yul\":7788:7919   */\n      tag_529\n        /* \"#utility.yul\":7914:7918   */\n      dup2\n        /* \"#utility.yul\":7788:7919   */\n      tag_382\n      jump\t// in\n    tag_529:\n        /* \"#utility.yul\":7780:7919   */\n      swap1\n      pop\n        /* \"#utility.yul\":7507:7926   */\n      swap2\n      swap1\n      pop\n      jump\t// out\n        /* \"#utility.yul\":7932:8079   */\n    tag_383:\n        /* \"#utility.yul\":8033:8044   */\n      0x00\n        /* \"#utility.yul\":8070:8073   */\n      dup2\n        /* \"#utility.yul\":8055:8073   */\n      swap1\n      pop\n        /* \"#utility.yul\":7932:8079   */\n      swap3\n      swap2\n      pop\n      pop\n      jump\t// out\n        /* \"#utility.yul\":8085:8199   */\n    tag_384:\n      pop\n      jump\t// out\n        /* \"#utility.yul\":8205:8603   */\n    tag_385:\n        /* \"#utility.yul\":8364:8367   */\n      0x00\n        /* \"#utility.yul\":8385:8468   */\n      tag_533\n        /* \"#utility.yul\":8466:8467   */\n      0x00\n        /* \"#utility.yul\":8461:8464   */\n      dup4\n        /* \"#utility.yul\":8385:8468   */\n      tag_383\n      jump\t// in\n    tag_533:\n        /* \"#utility.yul\":8378:8468   */\n      swap2\n      pop\n        /* \"#utility.yul\":8477:8570   */\n      tag_534\n        /* \"#utility.yul\":8566:8569   */\n      dup3\n        /* \"#utility.yul\":8477:8570   */\n      tag_384\n      jump\t// in\n    tag_534:\n        /* \"#utility.yul\":8595:8596   */\n      0x00\n        /* \"#utility.yul\":8590:8593   */\n      dup3\n        /* \"#utility.yul\":8586:8597   */\n      add\n        /* \"#utility.yul\":8579:8597   */\n      swap1\n      pop\n        /* \"#utility.yul\":8205:8603   */\n      swap2\n      swap1\n      pop\n      jump\t// out\n        /* \"#utility.yul\":8609:8988   */\n    tag_120:\n        /* \"#utility.yul\":8793:8796   */\n      0x00\n        /* \"#utility.yul\":8815:8962   */\n      tag_536\n        /* \"#utility.yul\":8958:8961   */\n      dup3\n        /* \"#utility.yul\":8815:8962   */\n      tag_385\n      jump\t// in\n    tag_536:\n        /* \"#utility.yul\":8808:8962   */\n      swap2\n      pop\n        /* \"#utility.yul\":8979:8982   */\n      dup2\n        /* \"#utility.yul\":8972:8982   */\n      swap1\n      pop\n        /* \"#utility.yul\":8609:8988   */\n      swap2\n      swap1\n      pop\n      jump\t// out\n        /* \"#utility.yul\":8994:9159   */\n    tag_386:\n        /* \"#utility.yul\":9134:9151   */\n      0x5472616e73666572206661696c65640000000000000000000000000000000000\n        /* \"#utility.yul\":9130:9131   */\n      0x00\n        /* \"#utility.yul\":9122:9128   */\n      dup3\n        /* \"#utility.yul\":9118:9132   */\n      add\n        /* \"#utility.yul\":9111:9152   */\n      mstore\n        /* \"#utility.yul\":8994:9159   */\n      pop\n      jump\t// out\n        /* \"#utility.yul\":9165:9531   */\n    tag_387:\n        /* \"#utility.yul\":9307:9310   */\n      0x00\n        /* \"#utility.yul\":9328:9395   */\n      tag_539\n        /* \"#utility.yul\":9392:9394   */\n      0x0f\n        /* \"#utility.yul\":9387:9390   */\n      dup4\n        /* \"#utility.yul\":9328:9395   */\n      tag_380\n      jump\t// in\n    tag_539:\n        /* \"#utility.yul\":9321:9395   */\n      swap2\n      pop\n        /* \"#utility.yul\":9404:9497   */\n      tag_540\n        /* \"#utility.yul\":9493:9496   */\n      dup3\n        /* \"#utility.yul\":9404:9497   */\n      tag_386\n      jump\t// in\n    tag_540:\n        /* \"#utility.yul\":9522:9524   */\n      0x20\n        /* \"#utility.yul\":9517:9520   */\n      dup3\n        /* \"#utility.yul\":9513:9525   */\n      add\n        /* \"#utility.yul\":9506:9525   */\n      swap1\n      pop\n        /* \"#utility.yul\":9165:9531   */\n      swap2\n      swap1\n      pop\n      jump\t// out\n        /* \"#utility.yul\":9537:9956   */\n    tag_126:\n        /* \"#utility.yul\":9703:9707   */\n      0x00\n        /* \"#utility.yul\":9741:9743   */\n      0x20\n        /* \"#utility.yul\":9730:9739   */\n      dup3\n        /* \"#utility.yul\":9726:9744   */\n      add\n        /* \"#utility.yul\":9718:9744   */\n      swap1\n      pop\n        /* \"#utility.yul\":9790:9799   */\n      dup2\n        /* \"#utility.yul\":9784:9788   */\n      dup2\n        /* \"#utility.yul\":9780:9800   */\n      sub\n        /* \"#utility.yul\":9776:9777   */\n      0x00\n        /* \"#utility.yul\":9765:9774   */\n      dup4\n        /* \"#utility.yul\":9761:9778   */\n      add\n        /* \"#utility.yul\":9754:9801   */\n      mstore\n        /* \"#utility.yul\":9818:9949   */\n      tag_542\n        /* \"#utility.yul\":9944:9948   */\n      dup2\n        /* \"#utility.yul\":9818:9949   */\n      tag_387\n      jump\t// in\n    tag_542:\n        /* \"#utility.yul\":9810:9949   */\n      swap1\n      pop\n        /* \"#utility.yul\":9537:9956   */\n      swap2\n      swap1\n      pop\n      jump\t// out\n        /* \"#utility.yul\":9962:10129   */\n    tag_388:\n        /* \"#utility.yul\":10102:10121   */\n      0x4e6f742066656520726563697069656e74000000000000000000000000000000\n        /* \"#utility.yul\":10098:10099   */\n      0x00\n        /* \"#utility.yul\":10090:10096   */\n      dup3\n        /* \"#utility.yul\":10086:10100   */\n      add\n        /* \"#utility.yul\":10079:10122   */\n      mstore\n        /* \"#utility.yul\":9962:10129   */\n      pop\n      jump\t// out\n        /* \"#utility.yul\":10135:10501   */\n    tag_389:\n        /* \"#utility.yul\":10277:10280   */\n      0x00\n        /* \"#utility.yul\":10298:10365   */\n      tag_545\n        /* \"#utility.yul\":10362:10364   */\n      0x11\n        /* \"#utility.yul\":10357:10360   */\n      dup4\n        /* \"#utility.yul\":10298:10365   */\n      tag_380\n      jump\t// in\n    tag_545:\n        /* \"#utility.yul\":10291:10365   */\n      swap2\n      pop\n        /* \"#utility.yul\":10374:10467   */\n      tag_546\n        /* \"#utility.yul\":10463:10466   */\n      dup3\n        /* \"#utility.yul\":10374:10467   */\n      tag_388\n      jump\t// in\n    tag_546:\n        /* \"#utility.yul\":10492:10494   */\n      0x20\n        /* \"#utility.yul\":10487:10490   */\n      dup3\n        /* \"#utility.yul\":10483:10495   */\n      add\n        /* \"#utility.yul\":10476:10495   */\n      swap1\n      pop\n        /* \"#utility.yul\":10135:10501   */\n      swap2\n      swap1\n      pop\n      jump\t// out\n        /* \"#utility.yul\":10507:10926   */\n    tag_131:\n        /* \"#utility.yul\":10673:10677   */\n      0x00\n        /* \"#utility.yul\":10711:10713   */\n      0x20\n        /* \"#utility.yul\":10700:10709   */\n      dup3\n        /* \"#utility.yul\":10696:10714   */\n      add\n        /* \"#utility.yul\":10688:10714   */\n      swap1\n      pop\n        /* \"#utility.yul\":10760:10769   */\n      dup2\n        /* \"#utility.yul\":10754:10758   */\n      dup2\n        /* \"#utility.yul\":10750:10770   */\n      sub\n        /* \"#utility.yul\":10746:10747   */\n      0x00\n        /* \"#utility.yul\":10735:10744   */\n      dup4\n        /* \"#utility.yul\":10731:10748   */\n      add\n        /* \"#utility.yul\":10724:10771   */\n      mstore\n        /* \"#utility.yul\":10788:10919   */\n      tag_548\n        /* \"#utility.yul\":10914:10918   */\n      dup2\n        /* \"#utility.yul\":10788:10919   */\n      tag_389\n      jump\t// in\n    tag_548:\n        /* \"#utility.yul\":10780:10919   */\n      swap1\n      pop\n        /* \"#utility.yul\":10507:10926   */\n      swap2\n      swap1\n      pop\n      jump\t// out\n        /* \"#utility.yul\":10932:11094   */\n    tag_390:\n        /* \"#utility.yul\":11072:11086   */\n      0x46656520746f6f20686967680000000000000000000000000000000000000000\n        /* \"#utility.yul\":11068:11069   */\n      0x00\n        /* \"#utility.yul\":11060:11066   */\n      dup3\n        /* \"#utility.yul\":11056:11070   */\n      add\n        /* \"#utility.yul\":11049:11087   */\n      mstore\n        /* \"#utility.yul\":10932:11094   */\n      pop\n      jump\t// out\n        /* \"#utility.yul\":11100:11466   */\n    tag_391:\n        /* \"#utility.yul\":11242:11245   */\n      0x00\n        /* \"#utility.yul\":11263:11330   */\n      tag_551\n        /* \"#utility.yul\":11327:11329   */\n      0x0c\n        /* \"#utility.yul\":11322:11325   */\n      dup4\n        /* \"#utility.yul\":11263:11330   */\n      tag_380\n      jump\t// in\n    tag_551:\n        /* \"#utility.yul\":11256:11330   */\n      swap2\n      pop\n        /* \"#utility.yul\":11339:11432   */\n      tag_552\n        /* \"#utility.yul\":11428:11431   */\n      dup3\n        /* \"#utility.yul\":11339:11432   */\n      tag_390\n      jump\t// in\n    tag_552:\n        /* \"#utility.yul\":11457:11459   */\n      0x20\n        /* \"#utility.yul\":11452:11455   */\n      dup3\n        /* \"#utility.yul\":11448:11460   */\n      add\n        /* \"#utility.yul\":11441:11460   */\n      swap1\n      pop\n        /* \"#utility.yul\":11100:11466   */\n      swap2\n      swap1\n      pop\n      jump\t// out\n        /* \"#utility.yul\":11472:11891   */\n    tag_134:\n        /* \"#utility.yul\":11638:11642   */\n      0x00\n        /* \"#utility.yul\":11676:11678   */\n      0x20\n        /* \"#utility.yul\":11665:11674   */\n      dup3\n        /* \"#utility.yul\":11661:11679   */\n      add\n        /* \"#utility.yul\":11653:11679   */\n      swap1\n      pop\n        /* \"#utility.yul\":11725:11734   */\n      dup2\n        /* \"#utility.yul\":11719:11723   */\n      dup2\n        /* \"#utility.yul\":11715:11735   */\n      sub\n        /* \"#utility.yul\":11711:11712   */\n      0x00\n        /* \"#utility.yul\":11700:11709   */\n      dup4\n        /* \"#utility.yul\":11696:11713   */\n      add\n        /* \"#utility.yul\":11689:11736   */\n      mstore\n        /* \"#utility.yul\":11753:11884   */\n      tag_554\n        /* \"#utility.yul\":11879:11883   */\n      dup2\n        /* \"#utility.yul\":11753:11884   */\n      tag_391\n      jump\t// in\n    tag_554:\n        /* \"#utility.yul\":11745:11884   */\n      swap1\n      pop\n        /* \"#utility.yul\":11472:11891   */\n      swap2\n      swap1\n      pop\n      jump\t// out\n        /* \"#utility.yul\":11897:12065   */\n    tag_392:\n        /* \"#utility.yul\":12037:12057   */\n      0x4c697374696e67206e6f74206163746976650000000000000000000000000000\n        /* \"#utility.yul\":12033:12034   */\n      0x00\n        /* \"#utility.yul\":12025:12031   */\n      dup3\n        /* \"#utility.yul\":12021:12035   */\n      add\n        /* \"#utility.yul\":12014:12058   */\n      mstore\n        /* \"#utility.yul\":11897:12065   */\n      pop\n      jump\t// out\n        /* \"#utility.yul\":12071:12437   */\n    tag_393:\n        /* \"#utility.yul\":12213:12216   */\n      0x00\n        /* \"#utility.yul\":12234:12301   */\n      tag_557\n        /* \"#utility.yul\":12298:12300   */\n      0x12\n        /* \"#utility.yul\":12293:12296   */\n      dup4\n        /* \"#utility.yul\":12234:12301   */\n      tag_380\n      jump\t// in\n    tag_557:\n        /* \"#utility.yul\":12227:12301   */\n      swap2\n      pop\n        /* \"#utility.yul\":12310:12403   */\n      tag_558\n        /* \"#utility.yul\":12399:12402   */\n      dup3\n        /* \"#utility.yul\":12310:12403   */\n      tag_392\n      jump\t// in\n    tag_558:\n        /* \"#utility.yul\":12428:12430   */\n      0x20\n        /* \"#utility.yul\":12423:12426   */\n      dup3\n        /* \"#utility.yul\":12419:12431   */\n      add\n        /* \"#utility.yul\":12412:12431   */\n      swap1\n      pop\n        /* \"#utility.yul\":12071:12437   */\n      swap2\n      swap1\n      pop\n      jump\t// out\n        /* \"#utility.yul\":12443:12862   */\n    tag_141:\n        /* \"#utility.yul\":12609:12613   */\n      0x00\n        /* \"#utility.yul\":12647:12649   */\n      0x20\n        /* \"#utility.yul\":12636:12645   */\n      dup3\n        /* \"#utility.yul\":12632:12650   */\n      add\n        /* \"#utility.yul\":12624:12650   */\n      swap1\n      pop\n        /* \"#utility.yul\":12696:12705   */\n      dup2\n        /* \"#utility.yul\":12690:12694   */\n      dup2\n        /* \"#utility.yul\":12686:12706   */\n      sub\n        /* \"#utility.yul\":12682:12683   */\n      0x00\n        /* \"#utility.yul\":12671:12680   */\n      dup4\n        /* \"#utility.yul\":12667:12684   */\n      add\n        /* \"#utility.yul\":12660:12707   */\n      mstore\n        /* \"#utility.yul\":12724:12855   */\n      tag_560\n        /* \"#utility.yul\":12850:12854   */\n      dup2\n        /* \"#utility.yul\":12724:12855   */\n      tag_393\n      jump\t// in\n    tag_560:\n        /* \"#utility.yul\":12716:12855   */\n      swap1\n      pop\n        /* \"#utility.yul\":12443:12862   */\n      swap2\n      swap1\n      pop\n      jump\t// out\n        /* \"#utility.yul\":12868:13038   */\n    tag_394:\n        /* \"#utility.yul\":13008:13030   */\n      0x496e73756666696369656e74207061796d656e74000000000000000000000000\n        /* \"#utility.yul\":13004:13005   */\n      0x00\n        /* \"#utility.yul\":12996:13002   */\n      dup3\n        /* \"#utility.yul\":12992:13006   */\n      add\n        /* \"#utility.yul\":12985:13031   */\n      mstore\n        /* \"#utility.yul\":12868:13038   */\n      pop\n      jump\t// out\n        /* \"#utility.yul\":13044:13410   */\n    tag_395:\n        /* \"#utility.yul\":13186:13189   */\n      0x00\n        /* \"#utility.yul\":13207:13274   */\n      tag_563\n        /* \"#utility.yul\":13271:13273   */\n      0x14\n        /* \"#utility.yul\":13266:13269   */\n      dup4\n        /* \"#utility.yul\":13207:13274   */\n      tag_380\n      jump\t// in\n    tag_563:\n        /* \"#utility.yul\":13200:13274   */\n      swap2\n      pop\n        /* \"#utility.yul\":13283:13376   */\n      tag_564\n        /* \"#utility.yul\":13372:13375   */\n      dup3\n        /* \"#utility.yul\":13283:13376   */\n      tag_394\n      jump\t// in\n    tag_564:\n        /* \"#utility.yul\":13401:13403   */\n      0x20\n        /* \"#utility.yul\":13396:13399   */\n      dup3\n        /* \"#utility.yul\":13392:13404   */\n      add\n        /* \"#utility.yul\":13385:13404   */\n      swap1\n      pop\n        /* \"#utility.yul\":13044:13410   */\n      swap2\n      swap1\n      pop\n      jump\t// out\n        /* \"#utility.yul\":13416:13835   */\n    tag_144:\n        /* \"#utility.yul\":13582:13586   */\n      0x00\n        /* \"#utility.yul\":13620:13622   */\n      0x20\n        /* \"#utility.yul\":13609:13618   */\n      dup3\n        /* \"#utility.yul\":13605:13623   */\n      add\n        /* \"#utility.yul\":13597:13623   */\n      swap1\n      pop\n        /* \"#utility.yul\":13669:13678   */\n      dup2\n        /* \"#utility.yul\":13663:13667   */\n      dup2\n        /* \"#utility.yul\":13659:13679   */\n      sub\n        /* \"#utility.yul\":13655:13656   */\n      0x00\n        /* \"#utility.yul\":13644:13653   */\n      dup4\n        /* \"#utility.yul\":13640:13657   */\n      add\n        /* \"#utility.yul\":13633:13680   */\n      mstore\n        /* \"#utility.yul\":13697:13828   */\n      tag_566\n        /* \"#utility.yul\":13823:13827   */\n      dup2\n        /* \"#utility.yul\":13697:13828   */\n      tag_395\n      jump\t// in\n    tag_566:\n        /* \"#utility.yul\":13689:13828   */\n      swap1\n      pop\n        /* \"#utility.yul\":13416:13835   */\n      swap2\n      swap1\n      pop\n      jump\t// out\n        /* \"#utility.yul\":13841:14014   */\n    tag_396:\n        /* \"#utility.yul\":13981:14006   */\n      0x43616e6e6f742062757920796f7572206f776e204e4654000000000000000000\n        /* \"#utility.yul\":13977:13978   */\n      0x00\n        /* \"#utility.yul\":13969:13975   */\n      dup3\n        /* \"#utility.yul\":13965:13979   */\n      add\n        /* \"#utility.yul\":13958:14007   */\n      mstore\n        /* \"#utility.yul\":13841:14014   */\n      pop\n      jump\t// out\n        /* \"#utility.yul\":14020:14386   */\n    tag_397:\n        /* \"#utility.yul\":14162:14165   */\n      0x00\n        /* \"#utility.yul\":14183:14250   */\n      tag_569\n        /* \"#utility.yul\":14247:14249   */\n      0x17\n        /* \"#utility.yul\":14242:14245   */\n      dup4\n        /* \"#utility.yul\":14183:14250   */\n      tag_380\n      jump\t// in\n    tag_569:\n        /* \"#utility.yul\":14176:14250   */\n      swap2\n      pop\n        /* \"#utility.yul\":14259:14352   */\n      tag_570\n        /* \"#utility.yul\":14348:14351   */\n      dup3\n        /* \"#utility.yul\":14259:14352   */\n      tag_396\n      jump\t// in\n    tag_570:\n        /* \"#utility.yul\":14377:14379   */\n      0x20\n        /* \"#utility.yul\":14372:14375   */\n      dup3\n        /* \"#utility.yul\":14368:14380   */\n      add\n        /* \"#utility.yul\":14361:14380   */\n      swap1\n      pop\n        /* \"#utility.yul\":14020:14386   */\n      swap2\n      swap1\n      pop\n      jump\t// out\n        /* \"#utility.yul\":14392:14811   */\n    tag_147:\n        /* \"#utility.yul\":14558:14562   */\n      0x00\n        /* \"#utility.yul\":14596:14598   */\n      0x20\n        /* \"#utility.yul\":14585:14594   */\n      dup3\n        /* \"#utility.yul\":14581:14599   */\n      add\n        /* \"#utility.yul\":14573:14599   */\n      swap1\n      pop\n        /* \"#utility.yul\":14645:14654   */\n      dup2\n        /* \"#utility.yul\":14639:14643   */\n      dup2\n        /* \"#utility.yul\":14635:14655   */\n      sub\n        /* \"#utility.yul\":14631:14632   */\n      0x00\n        /* \"#utility.yul\":14620:14629   */\n      dup4\n        /* \"#utility.yul\":14616:14633   */\n      add\n        /* \"#utility.yul\":14609:14656   */\n      mstore\n        /* \"#utility.yul\":14673:14804   */\n      tag_572\n        /* \"#utility.yul\":14799:14803   */\n      dup2\n        /* \"#utility.yul\":14673:14804   */\n      tag_397\n      jump\t// in\n    tag_572:\n        /* \"#utility.yul\":14665:14804   */\n      swap1\n      pop\n        /* \"#utility.yul\":14392:14811   */\n      swap2\n      swap1\n      pop\n      jump\t// out\n        /* \"#utility.yul\":14817:14997   */\n    tag_398:\n        /* \"#utility.yul\":14865:14942   */\n      0x4e487b7100000000000000000000000000000000000000000000000000000000\n        /* \"#utility.yul\":14862:14863   */\n      0x00\n        /* \"#utility.yul\":14855:14943   */\n      mstore\n        /* \"#utility.yul\":14962:14966   */\n      0x11\n        /* \"#utility.yul\":14959:14960   */\n      0x04\n        /* \"#utility.yul\":14952:14967   */\n      mstore\n        /* \"#utility.yul\":14986:14990   */\n      0x24\n        /* \"#utility.yul\":14983:14984   */\n      0x00\n        /* \"#utility.yul\":14976:14991   */\n      revert\n        /* \"#utility.yul\":15003:15413   */\n    tag_149:\n        /* \"#utility.yul\":15043:15050   */\n      0x00\n        /* \"#utility.yul\":15066:15086   */\n      tag_575\n        /* \"#utility.yul\":15084:15085   */\n      dup3\n        /* \"#utility.yul\":15066:15086   */\n      tag_369\n      jump\t// in\n    tag_575:\n        /* \"#utility.yul\":15061:15086   */\n      swap2\n      pop\n        /* \"#utility.yul\":15100:15120   */\n      tag_576\n        /* \"#utility.yul\":15118:15119   */\n      dup4\n        /* \"#utility.yul\":15100:15120   */\n      tag_369\n      jump\t// in\n    tag_576:\n        /* \"#utility.yul\":15095:15120   */\n      swap3\n      pop\n        /* \"#utility.yul\":15155:15156   */\n      dup3\n        /* \"#utility.yul\":15152:15153   */\n      dup3\n        /* \"#utility.yul\":15148:15157   */\n      mul\n        /* \"#utility.yul\":15177:15207   */\n      tag_577\n        /* \"#utility.yul\":15195:15206   */\n      dup2\n        /* \"#utility.yul\":15177:15207   */\n      tag_369\n      jump\t// in\n    tag_577:\n        /* \"#utility.yul\":15166:15207   */\n      swap2\n      pop\n        /* \"#utility.yul\":15356:15357   */\n      dup3\n        /* \"#utility.yul\":15347:15354   */\n      dup3\n        /* \"#utility.yul\":15343:15358   */\n      div\n        /* \"#utility.yul\":15340:15341   */\n      dup5\n        /* \"#utility.yul\":15337:15359   */\n      eq\n        /* \"#utility.yul\":15317:15318   */\n      dup4\n        /* \"#utility.yul\":15310:15319   */\n      iszero\n        /* \"#utility.yul\":15290:15373   */\n      or\n        /* \"#utility.yul\":15267:15406   */\n      tag_578\n      jumpi\n        /* \"#utility.yul\":15386:15404   */\n      tag_579\n      tag_398\n      jump\t// in\n    tag_579:\n        /* \"#utility.yul\":15267:15406   */\n    tag_578:\n        /* \"#utility.yul\":15051:15413   */\n      pop\n        /* \"#utility.yul\":15003:15413   */\n      swap3\n      swap2\n      pop\n      pop\n      jump\t// out\n        /* \"#utility.yul\":15419:15599   */\n    tag_399:\n        /* \"#utility.yul\":15467:15544   */\n      0x4e487b7100000000000000000000000000000000000000000000000000000000\n        /* \"#utility.yul\":15464:15465   */\n      0x00\n        /* \"#utility.yul\":15457:15545   */\n      mstore\n        /* \"#utility.yul\":15564:15568   */\n      0x12\n        /* \"#utility.yul\":15561:15562   */\n      0x04\n        /* \"#utility.yul\":15554:15569   */\n      mstore\n        /* \"#utility.yul\":15588:15592   */\n      0x24\n        /* \"#utility.yul\":15585:15586   */\n      0x00\n        /* \"#utility.yul\":15578:15593   */\n      revert\n        /* \"#utility.yul\":15605:15790   */\n    tag_151:\n        /* \"#utility.yul\":15645:15646   */\n      0x00\n        /* \"#utility.yul\":15662:15682   */\n      tag_582\n        /* \"#utility.yul\":15680:15681   */\n      dup3\n        /* \"#utility.yul\":15662:15682   */\n      tag_369\n      jump\t// in\n    tag_582:\n        /* \"#utility.yul\":15657:15682   */\n      swap2\n      pop\n        /* \"#utility.yul\":15696:15716   */\n      tag_583\n        /* \"#utility.yul\":15714:15715   */\n      dup4\n        /* \"#utility.yul\":15696:15716   */\n      tag_369\n      jump\t// in\n    tag_583:\n        /* \"#utility.yul\":15691:15716   */\n      swap3\n      pop\n        /* \"#utility.yul\":15735:15736   */\n      dup3\n        /* \"#utility.yul\":15725:15760   */\n      tag_584\n      jumpi\n        /* \"#utility.yul\":15740:15758   */\n      tag_585\n      tag_399\n      jump\t// in\n    tag_585:\n        /* \"#utility.yul\":15725:15760   */\n    tag_584:\n        /* \"#utility.yul\":15782:15783   */\n      dup3\n        /* \"#utility.yul\":15779:15780   */\n      dup3\n        /* \"#utility.yul\":15775:15784   */\n      div\n        /* \"#utility.yul\":15770:15784   */\n      swap1\n      pop\n        /* \"#utility.yul\":15605:15790   */\n      swap3\n      swap2\n      pop\n      pop\n      jump\t// out\n        /* \"#utility.yul\":15796:15990   */\n    tag_155:\n        /* \"#utility.yul\":15836:15840   */\n      0x00\n        /* \"#utility.yul\":15856:15876   */\n      tag_587\n        /* \"#utility.yul\":15874:15875   */\n      dup3\n        /* \"#utility.yul\":15856:15876   */\n      tag_369\n      jump\t// in\n    tag_587:\n        /* \"#utility.yul\":15851:15876   */\n      swap2\n      pop\n        /* \"#utility.yul\":15890:15910   */\n      tag_588\n        /* \"#utility.yul\":15908:15909   */\n      dup4\n        /* \"#utility.yul\":15890:15910   */\n      tag_369\n      jump\t// in\n    tag_588:\n        /* \"#utility.yul\":15885:15910   */\n      swap3\n      pop\n        /* \"#utility.yul\":15934:15935   */\n      dup3\n        /* \"#utility.yul\":15931:15932   */\n      dup3\n        /* \"#utility.yul\":15927:15936   */\n      sub\n        /* \"#utility.yul\":15919:15936   */\n      swap1\n      pop\n        /* \"#utility.yul\":15958:15959   */\n      dup2\n        /* \"#utility.yul\":15952:15956   */\n      dup2\n        /* \"#utility.yul\":15949:15960   */\n      gt\n        /* \"#utility.yul\":15946:15983   */\n      iszero\n      tag_589\n      jumpi\n        /* \"#utility.yul\":15963:15981   */\n      tag_590\n      tag_398\n      jump\t// in\n    tag_590:\n        /* \"#utility.yul\":15946:15983   */\n    tag_589:\n        /* \"#utility.yul\":15796:15990   */\n      swap3\n      swap2\n      pop\n      pop\n      jump\t// out\n        /* \"#utility.yul\":15996:16438   */\n    tag_158:\n        /* \"#utility.yul\":16145:16149   */\n      0x00\n        /* \"#utility.yul\":16183:16185   */\n      0x60\n        /* \"#utility.yul\":16172:16181   */\n      dup3\n        /* \"#utility.yul\":16168:16186   */\n      add\n        /* \"#utility.yul\":16160:16186   */\n      swap1\n      pop\n        /* \"#utility.yul\":16196:16267   */\n      tag_592\n        /* \"#utility.yul\":16264:16265   */\n      0x00\n        /* \"#utility.yul\":16253:16262   */\n      dup4\n        /* \"#utility.yul\":16249:16266   */\n      add\n        /* \"#utility.yul\":16240:16246   */\n      dup7\n        /* \"#utility.yul\":16196:16267   */\n      tag_374\n      jump\t// in\n    tag_592:\n        /* \"#utility.yul\":16277:16349   */\n      tag_593\n        /* \"#utility.yul\":16345:16347   */\n      0x20\n        /* \"#utility.yul\":16334:16343   */\n      dup4\n        /* \"#utility.yul\":16330:16348   */\n      add\n        /* \"#utility.yul\":16321:16327   */\n      dup6\n        /* \"#utility.yul\":16277:16349   */\n      tag_374\n      jump\t// in\n    tag_593:\n        /* \"#utility.yul\":16359:16431   */\n      tag_594\n        /* \"#utility.yul\":16427:16429   */\n      0x40\n        /* \"#utility.yul\":16416:16425   */\n      dup4\n        /* \"#utility.yul\":16412:16430   */\n      add\n        /* \"#utility.yul\":16403:16409   */\n      dup5\n        /* \"#utility.yul\":16359:16431   */\n      tag_375\n      jump\t// in\n    tag_594:\n        /* \"#utility.yul\":15996:16438   */\n      swap5\n      swap4\n      pop\n      pop\n      pop\n      pop\n      jump\t// out\n        /* \"#utility.yul\":16444:16617   */\n    tag_400:\n        /* \"#utility.yul\":16584:16609   */\n      0x526f79616c7479207472616e73666572206661696c6564000000000000000000\n        /* \"#utility.yul\":16580:16581   */\n      0x00\n        /* \"#utility.yul\":16572:16578   */\n      dup3\n        /* \"#utility.yul\":16568:16582   */\n      add\n        /* \"#utility.yul\":16561:16610   */\n      mstore\n        /* \"#utility.yul\":16444:16617   */\n      pop\n      jump\t// out\n        /* \"#utility.yul\":16623:16989   */\n    tag_401:\n        /* \"#utility.yul\":16765:16768   */\n      0x00\n        /* \"#utility.yul\":16786:16853   */\n      tag_597\n        /* \"#utility.yul\":16850:16852   */\n      0x17\n        /* \"#utility.yul\":16845:16848   */\n      dup4\n        /* \"#utility.yul\":16786:16853   */\n      tag_380\n      jump\t// in\n    tag_597:\n        /* \"#utility.yul\":16779:16853   */\n      swap2\n      pop\n        /* \"#utility.yul\":16862:16955   */\n      tag_598\n        /* \"#utility.yul\":16951:16954   */\n      dup3\n        /* \"#utility.yul\":16862:16955   */\n      tag_400\n      jump\t// in\n    tag_598:\n        /* \"#utility.yul\":16980:16982   */\n      0x20\n        /* \"#utility.yul\":16975:16978   */\n      dup3\n        /* \"#utility.yul\":16971:16983   */\n      add\n        /* \"#utility.yul\":16964:16983   */\n      swap1\n      pop\n        /* \"#utility.yul\":16623:16989   */\n      swap2\n      swap1\n      pop\n      jump\t// out\n        /* \"#utility.yul\":16995:17414   */\n    tag_170:\n        /* \"#utility.yul\":17161:17165   */\n      0x00\n        /* \"#utility.yul\":17199:17201   */\n      0x20\n        /* \"#utility.yul\":17188:17197   */\n      dup3\n        /* \"#utility.yul\":17184:17202   */\n      add\n        /* \"#utility.yul\":17176:17202   */\n      swap1\n      pop\n        /* \"#utility.yul\":17248:17257   */\n      dup2\n        /* \"#utility.yul\":17242:17246   */\n      dup2\n        /* \"#utility.yul\":17238:17258   */\n      sub\n        /* \"#utility.yul\":17234:17235   */\n      0x00\n        /* \"#utility.yul\":17223:17232   */\n      dup4\n        /* \"#utility.yul\":17219:17236   */\n      add\n        /* \"#utility.yul\":17212:17259   */\n      mstore\n        /* \"#utility.yul\":17276:17407   */\n      tag_600\n        /* \"#utility.yul\":17402:17406   */\n      dup2\n        /* \"#utility.yul\":17276:17407   */\n      tag_401\n      jump\t// in\n    tag_600:\n        /* \"#utility.yul\":17268:17407   */\n      swap1\n      pop\n        /* \"#utility.yul\":16995:17414   */\n      swap2\n      swap1\n      pop\n      jump\t// out\n        /* \"#utility.yul\":17420:17595   */\n    tag_402:\n        /* \"#utility.yul\":17560:17587   */\n      0x5472616e7366657220746f2073656c6c6572206661696c656400000000000000\n        /* \"#utility.yul\":17556:17557   */\n      0x00\n        /* \"#utility.yul\":17548:17554   */\n      dup3\n        /* \"#utility.yul\":17544:17558   */\n      add\n        /* \"#utility.yul\":17537:17588   */\n      mstore\n        /* \"#utility.yul\":17420:17595   */\n      pop\n      jump\t// out\n        /* \"#utility.yul\":17601:17967   */\n    tag_403:\n        /* \"#utility.yul\":17743:17746   */\n      0x00\n        /* \"#utility.yul\":17764:17831   */\n      tag_603\n        /* \"#utility.yul\":17828:17830   */\n      0x19\n        /* \"#utility.yul\":17823:17826   */\n      dup4\n        /* \"#utility.yul\":17764:17831   */\n      tag_380\n      jump\t// in\n    tag_603:\n        /* \"#utility.yul\":17757:17831   */\n      swap2\n      pop\n        /* \"#utility.yul\":17840:17933   */\n      tag_604\n        /* \"#utility.yul\":17929:17932   */\n      dup3\n        /* \"#utility.yul\":17840:17933   */\n      tag_402\n      jump\t// in\n    tag_604:\n        /* \"#utility.yul\":17958:17960   */\n      0x20\n        /* \"#utility.yul\":17953:17956   */\n      dup3\n        /* \"#utility.yul\":17949:17961   */\n      add\n        /* \"#utility.yul\":17942:17961   */\n      swap1\n      pop\n        /* \"#utility.yul\":17601:17967   */\n      swap2\n      swap1\n      pop\n      jump\t// out\n        /* \"#utility.yul\":17973:18392   */\n    tag_177:\n        /* \"#utility.yul\":18139:18143   */\n      0x00\n        /* \"#utility.yul\":18177:18179   */\n      0x20\n        /* \"#utility.yul\":18166:18175   */\n      dup3\n        /* \"#utility.yul\":18162:18180   */\n      add\n        /* \"#utility.yul\":18154:18180   */\n      swap1\n      pop\n        /* \"#utility.yul\":18226:18235   */\n      dup2\n        /* \"#utility.yul\":18220:18224   */\n      dup2\n        /* \"#utility.yul\":18216:18236   */\n      sub\n        /* \"#utility.yul\":18212:18213   */\n      0x00\n        /* \"#utility.yul\":18201:18210   */\n      dup4\n        /* \"#utility.yul\":18197:18214   */\n      add\n        /* \"#utility.yul\":18190:18237   */\n      mstore\n        /* \"#utility.yul\":18254:18385   */\n      tag_606\n        /* \"#utility.yul\":18380:18384   */\n      dup2\n        /* \"#utility.yul\":18254:18385   */\n      tag_403\n      jump\t// in\n    tag_606:\n        /* \"#utility.yul\":18246:18385   */\n      swap1\n      pop\n        /* \"#utility.yul\":17973:18392   */\n      swap2\n      swap1\n      pop\n      jump\t// out\n        /* \"#utility.yul\":18398:18567   */\n    tag_404:\n        /* \"#utility.yul\":18538:18559   */\n      0x5472616e7366657220666565206661696c656400000000000000000000000000\n        /* \"#utility.yul\":18534:18535   */\n      0x00\n        /* \"#utility.yul\":18526:18532   */\n      dup3\n        /* \"#utility.yul\":18522:18536   */\n      add\n        /* \"#utility.yul\":18515:18560   */\n      mstore\n        /* \"#utility.yul\":18398:18567   */\n      pop\n      jump\t// out\n        /* \"#utility.yul\":18573:18939   */\n    tag_405:\n        /* \"#utility.yul\":18715:18718   */\n      0x00\n        /* \"#utility.yul\":18736:18803   */\n      tag_609\n        /* \"#utility.yul\":18800:18802   */\n      0x13\n        /* \"#utility.yul\":18795:18798   */\n      dup4\n        /* \"#utility.yul\":18736:18803   */\n      tag_380\n      jump\t// in\n    tag_609:\n        /* \"#utility.yul\":18729:18803   */\n      swap2\n      pop\n        /* \"#utility.yul\":18812:18905   */\n      tag_610\n        /* \"#utility.yul\":18901:18904   */\n      dup3\n        /* \"#utility.yul\":18812:18905   */\n      tag_404\n      jump\t// in\n    tag_610:\n        /* \"#utility.yul\":18930:18932   */\n      0x20\n        /* \"#utility.yul\":18925:18928   */\n      dup3\n        /* \"#utility.yul\":18921:18933   */\n      add\n        /* \"#utility.yul\":18914:18933   */\n      swap1\n      pop\n        /* \"#utility.yul\":18573:18939   */\n      swap2\n      swap1\n      pop\n      jump\t// out\n        /* \"#utility.yul\":18945:19364   */\n    tag_184:\n        /* \"#utility.yul\":19111:19115   */\n      0x00\n        /* \"#utility.yul\":19149:19151   */\n      0x20\n        /* \"#utility.yul\":19138:19147   */\n      dup3\n        /* \"#utility.yul\":19134:19152   */\n      add\n        /* \"#utility.yul\":19126:19152   */\n      swap1\n      pop\n        /* \"#utility.yul\":19198:19207   */\n      dup2\n        /* \"#utility.yul\":19192:19196   */\n      dup2\n        /* \"#utility.yul\":19188:19208   */\n      sub\n        /* \"#utility.yul\":19184:19185   */\n      0x00\n        /* \"#utility.yul\":19173:19182   */\n      dup4\n        /* \"#utility.yul\":19169:19186   */\n      add\n        /* \"#utility.yul\":19162:19209   */\n      mstore\n        /* \"#utility.yul\":19226:19357   */\n      tag_612\n        /* \"#utility.yul\":19352:19356   */\n      dup2\n        /* \"#utility.yul\":19226:19357   */\n      tag_405\n      jump\t// in\n    tag_612:\n        /* \"#utility.yul\":19218:19357   */\n      swap1\n      pop\n        /* \"#utility.yul\":18945:19364   */\n      swap2\n      swap1\n      pop\n      jump\t// out\n        /* \"#utility.yul\":19370:19533   */\n    tag_406:\n        /* \"#utility.yul\":19510:19525   */\n      0x526566756e64206661696c656400000000000000000000000000000000000000\n        /* \"#utility.yul\":19506:19507   */\n      0x00\n        /* \"#utility.yul\":19498:19504   */\n      dup3\n        /* \"#utility.yul\":19494:19508   */\n      add\n        /* \"#utility.yul\":19487:19526   */\n      mstore\n        /* \"#utility.yul\":19370:19533   */\n      pop\n      jump\t// out\n        /* \"#utility.yul\":19539:19905   */\n    tag_407:\n        /* \"#utility.yul\":19681:19684   */\n      0x00\n        /* \"#utility.yul\":19702:19769   */\n      tag_615\n        /* \"#utility.yul\":19766:19768   */\n      0x0d\n        /* \"#utility.yul\":19761:19764   */\n      dup4\n        /* \"#utility.yul\":19702:19769   */\n      tag_380\n      jump\t// in\n    tag_615:\n        /* \"#utility.yul\":19695:19769   */\n      swap2\n      pop\n        /* \"#utility.yul\":19778:19871   */\n      tag_616\n        /* \"#utility.yul\":19867:19870   */\n      dup3\n        /* \"#utility.yul\":19778:19871   */\n      tag_406\n      jump\t// in\n    tag_616:\n        /* \"#utility.yul\":19896:19898   */\n      0x20\n        /* \"#utility.yul\":19891:19894   */\n      dup3\n        /* \"#utility.yul\":19887:19899   */\n      add\n        /* \"#utility.yul\":19880:19899   */\n      swap1\n      pop\n        /* \"#utility.yul\":19539:19905   */\n      swap2\n      swap1\n      pop\n      jump\t// out\n        /* \"#utility.yul\":19911:20330   */\n    tag_193:\n        /* \"#utility.yul\":20077:20081   */\n      0x00\n        /* \"#utility.yul\":20115:20117   */\n      0x20\n        /* \"#utility.yul\":20104:20113   */\n      dup3\n        /* \"#utility.yul\":20100:20118   */\n      add\n        /* \"#utility.yul\":20092:20118   */\n      swap1\n      pop\n        /* \"#utility.yul\":20164:20173   */\n      dup2\n        /* \"#utility.yul\":20158:20162   */\n      dup2\n        /* \"#utility.yul\":20154:20174   */\n      sub\n        /* \"#utility.yul\":20150:20151   */\n      0x00\n        /* \"#utility.yul\":20139:20148   */\n      dup4\n        /* \"#utility.yul\":20135:20152   */\n      add\n        /* \"#utility.yul\":20128:20175   */\n      mstore\n        /* \"#utility.yul\":20192:20323   */\n      tag_618\n        /* \"#utility.yul\":20318:20322   */\n      dup2\n        /* \"#utility.yul\":20192:20323   */\n      tag_407\n      jump\t// in\n    tag_618:\n        /* \"#utility.yul\":20184:20323   */\n      swap1\n      pop\n        /* \"#utility.yul\":19911:20330   */\n      swap2\n      swap1\n      pop\n      jump\t// out\n        /* \"#utility.yul\":20336:20557   */\n    tag_408:\n        /* \"#utility.yul\":20476:20510   */\n      0x5374617274207072696365206d7573742062652067726561746572207468616e\n        /* \"#utility.yul\":20472:20473   */\n      0x00\n        /* \"#utility.yul\":20464:20470   */\n      dup3\n        /* \"#utility.yul\":20460:20474   */\n      add\n        /* \"#utility.yul\":20453:20511   */\n      mstore\n        /* \"#utility.yul\":20545:20549   */\n      0x2030000000000000000000000000000000000000000000000000000000000000\n        /* \"#utility.yul\":20540:20542   */\n      0x20\n        /* \"#utility.yul\":20532:20538   */\n      dup3\n        /* \"#utility.yul\":20528:20543   */\n      add\n        /* \"#utility.yul\":20521:20550   */\n      mstore\n        /* \"#utility.yul\":20336:20557   */\n      pop\n      jump\t// out\n        /* \"#utility.yul\":20563:20929   */\n    tag_409:\n        /* \"#utility.yul\":20705:20708   */\n      0x00\n        /* \"#utility.yul\":20726:20793   */\n      tag_621\n        /* \"#utility.yul\":20790:20792   */\n      0x22\n        /* \"#utility.yul\":20785:20788   */\n      dup4\n        /* \"#utility.yul\":20726:20793   */\n      tag_380\n      jump\t// in\n    tag_621:\n        /* \"#utility.yul\":20719:20793   */\n      swap2\n      pop\n        /* \"#utility.yul\":20802:20895   */\n      tag_622\n        /* \"#utility.yul\":20891:20894   */\n      dup3\n        /* \"#utility.yul\":20802:20895   */\n      tag_408\n      jump\t// in\n    tag_622:\n        /* \"#utility.yul\":20920:20922   */\n      0x40\n        /* \"#utility.yul\":20915:20918   */\n      dup3\n        /* \"#utility.yul\":20911:20923   */\n      add\n        /* \"#utility.yul\":20904:20923   */\n      swap1\n      pop\n        /* \"#utility.yul\":20563:20929   */\n      swap2\n      swap1\n      pop\n      jump\t// out\n        /* \"#utility.yul\":20935:21354   */\n    tag_200:\n        /* \"#utility.yul\":21101:21105   */\n      0x00\n        /* \"#utility.yul\":21139:21141   */\n      0x20\n        /* \"#utility.yul\":21128:21137   */\n      dup3\n        /* \"#utility.yul\":21124:21142   */\n      add\n        /* \"#utility.yul\":21116:21142   */\n      swap1\n      pop\n        /* \"#utility.yul\":21188:21197   */\n      dup2\n        /* \"#utility.yul\":21182:21186   */\n      dup2\n        /* \"#utility.yul\":21178:21198   */\n      sub\n        /* \"#utility.yul\":21174:21175   */\n      0x00\n        /* \"#utility.yul\":21163:21172   */\n      dup4\n        /* \"#utility.yul\":21159:21176   */\n      add\n        /* \"#utility.yul\":21152:21199   */\n      mstore\n        /* \"#utility.yul\":21216:21347   */\n      tag_624\n        /* \"#utility.yul\":21342:21346   */\n      dup2\n        /* \"#utility.yul\":21216:21347   */\n      tag_409\n      jump\t// in\n    tag_624:\n        /* \"#utility.yul\":21208:21347   */\n      swap1\n      pop\n        /* \"#utility.yul\":20935:21354   */\n      swap2\n      swap1\n      pop\n      jump\t// out\n        /* \"#utility.yul\":21360:21542   */\n    tag_410:\n        /* \"#utility.yul\":21500:21534   */\n      0x4475726174696f6e206d757374206265206174206c65617374203120686f7572\n        /* \"#utility.yul\":21496:21497   */\n      0x00\n        /* \"#utility.yul\":21488:21494   */\n      dup3\n        /* \"#utility.yul\":21484:21498   */\n      add\n        /* \"#utility.yul\":21477:21535   */\n      mstore\n        /* \"#utility.yul\":21360:21542   */\n      pop\n      jump\t// out\n        /* \"#utility.yul\":21548:21914   */\n    tag_411:\n        /* \"#utility.yul\":21690:21693   */\n      0x00\n        /* \"#utility.yul\":21711:21778   */\n      tag_627\n        /* \"#utility.yul\":21775:21777   */\n      0x20\n        /* \"#utility.yul\":21770:21773   */\n      dup4\n        /* \"#utility.yul\":21711:21778   */\n      tag_380\n      jump\t// in\n    tag_627:\n        /* \"#utility.yul\":21704:21778   */\n      swap2\n      pop\n        /* \"#utility.yul\":21787:21880   */\n      tag_628\n        /* \"#utility.yul\":21876:21879   */\n      dup3\n        /* \"#utility.yul\":21787:21880   */\n      tag_410\n      jump\t// in\n    tag_628:\n        /* \"#utility.yul\":21905:21907   */\n      0x20\n        /* \"#utility.yul\":21900:21903   */\n      dup3\n        /* \"#utility.yul\":21896:21908   */\n      add\n        /* \"#utility.yul\":21889:21908   */\n      swap1\n      pop\n        /* \"#utility.yul\":21548:21914   */\n      swap2\n      swap1\n      pop\n      jump\t// out\n        /* \"#utility.yul\":21920:22339   */\n    tag_203:\n        /* \"#utility.yul\":22086:22090   */\n      0x00\n        /* \"#utility.yul\":22124:22126   */\n      0x20\n        /* \"#utility.yul\":22113:22122   */\n      dup3\n        /* \"#utility.yul\":22109:22127   */\n      add\n        /* \"#utility.yul\":22101:22127   */\n      swap1\n      pop\n        /* \"#utility.yul\":22173:22182   */\n      dup2\n        /* \"#utility.yul\":22167:22171   */\n      dup2\n        /* \"#utility.yul\":22163:22183   */\n      sub\n        /* \"#utility.yul\":22159:22160   */\n      0x00\n        /* \"#utility.yul\":22148:22157   */\n      dup4\n        /* \"#utility.yul\":22144:22161   */\n      add\n        /* \"#utility.yul\":22137:22184   */\n      mstore\n        /* \"#utility.yul\":22201:22332   */\n      tag_630\n        /* \"#utility.yul\":22327:22331   */\n      dup2\n        /* \"#utility.yul\":22201:22332   */\n      tag_411\n      jump\t// in\n    tag_630:\n        /* \"#utility.yul\":22193:22332   */\n      swap1\n      pop\n        /* \"#utility.yul\":21920:22339   */\n      swap2\n      swap1\n      pop\n      jump\t// out\n        /* \"#utility.yul\":22345:22515   */\n    tag_412:\n        /* \"#utility.yul\":22485:22507   */\n      0x496e76616c6964204e465420636f6e7472616374000000000000000000000000\n        /* \"#utility.yul\":22481:22482   */\n      0x00\n        /* \"#utility.yul\":22473:22479   */\n      dup3\n        /* \"#utility.yul\":22469:22483   */\n      add\n        /* \"#utility.yul\":22462:22508   */\n      mstore\n        /* \"#utility.yul\":22345:22515   */\n      pop\n      jump\t// out\n        /* \"#utility.yul\":22521:22887   */\n    tag_413:\n        /* \"#utility.yul\":22663:22666   */\n      0x00\n        /* \"#utility.yul\":22684:22751   */\n      tag_633\n        /* \"#utility.yul\":22748:22750   */\n      0x14\n        /* \"#utility.yul\":22743:22746   */\n      dup4\n        /* \"#utility.yul\":22684:22751   */\n      tag_380\n      jump\t// in\n    tag_633:\n        /* \"#utility.yul\":22677:22751   */\n      swap2\n      pop\n        /* \"#utility.yul\":22760:22853   */\n      tag_634\n        /* \"#utility.yul\":22849:22852   */\n      dup3\n        /* \"#utility.yul\":22760:22853   */\n      tag_412\n      jump\t// in\n    tag_634:\n        /* \"#utility.yul\":22878:22880   */\n      0x20\n        /* \"#utility.yul\":22873:22876   */\n      dup3\n        /* \"#utility.yul\":22869:22881   */\n      add\n        /* \"#utility.yul\":22862:22881   */\n      swap1\n      pop\n        /* \"#utility.yul\":22521:22887   */\n      swap2\n      swap1\n      pop\n      jump\t// out\n        /* \"#utility.yul\":22893:23312   */\n    tag_206:\n        /* \"#utility.yul\":23059:23063   */\n      0x00\n        /* \"#utility.yul\":23097:23099   */\n      0x20\n        /* \"#utility.yul\":23086:23095   */\n      dup3\n        /* \"#utility.yul\":23082:23100   */\n      add\n        /* \"#utility.yul\":23074:23100   */\n      swap1\n      pop\n        /* \"#utility.yul\":23146:23155   */\n      dup2\n        /* \"#utility.yul\":23140:23144   */\n      dup2\n        /* \"#utility.yul\":23136:23156   */\n      sub\n        /* \"#utility.yul\":23132:23133   */\n      0x00\n        /* \"#utility.yul\":23121:23130   */\n      dup4\n        /* \"#utility.yul\":23117:23134   */\n      add\n        /* \"#utility.yul\":23110:23157   */\n      mstore\n        /* \"#utility.yul\":23174:23305   */\n      tag_636\n        /* \"#utility.yul\":23300:23304   */\n      dup2\n        /* \"#utility.yul\":23174:23305   */\n      tag_413\n      jump\t// in\n    tag_636:\n        /* \"#utility.yul\":23166:23305   */\n      swap1\n      pop\n        /* \"#utility.yul\":22893:23312   */\n      swap2\n      swap1\n      pop\n      jump\t// out\n        /* \"#utility.yul\":23318:23461   */\n    tag_414:\n        /* \"#utility.yul\":23375:23380   */\n      0x00\n        /* \"#utility.yul\":23406:23412   */\n      dup2\n        /* \"#utility.yul\":23400:23413   */\n      mload\n        /* \"#utility.yul\":23391:23413   */\n      swap1\n      pop\n        /* \"#utility.yul\":23422:23455   */\n      tag_638\n        /* \"#utility.yul\":23449:23454   */\n      dup2\n        /* \"#utility.yul\":23422:23455   */\n      tag_378\n      jump\t// in\n    tag_638:\n        /* \"#utility.yul\":23318:23461   */\n      swap3\n      swap2\n      pop\n      pop\n      jump\t// out\n        /* \"#utility.yul\":23467:23818   */\n    tag_211:\n        /* \"#utility.yul\":23537:23543   */\n      0x00\n        /* \"#utility.yul\":23586:23588   */\n      0x20\n        /* \"#utility.yul\":23574:23583   */\n      dup3\n        /* \"#utility.yul\":23565:23572   */\n      dup5\n        /* \"#utility.yul\":23561:23584   */\n      sub\n        /* \"#utility.yul\":23557:23589   */\n      slt\n        /* \"#utility.yul\":23554:23673   */\n      iszero\n      tag_640\n      jumpi\n        /* \"#utility.yul\":23592:23671   */\n      tag_641\n      tag_367\n      jump\t// in\n    tag_641:\n        /* \"#utility.yul\":23554:23673   */\n    tag_640:\n        /* \"#utility.yul\":23712:23713   */\n      0x00\n        /* \"#utility.yul\":23737:23801   */\n      tag_642\n        /* \"#utility.yul\":23793:23800   */\n      dup5\n        /* \"#utility.yul\":23784:23790   */\n      dup3\n        /* \"#utility.yul\":23773:23782   */\n      dup6\n        /* \"#utility.yul\":23769:23791   */\n      add\n        /* \"#utility.yul\":23737:23801   */\n      tag_414\n      jump\t// in\n    tag_642:\n        /* \"#utility.yul\":23727:23801   */\n      swap2\n      pop\n        /* \"#utility.yul\":23683:23811   */\n      pop\n        /* \"#utility.yul\":23467:23818   */\n      swap3\n      swap2\n      pop\n      pop\n      jump\t// out\n        /* \"#utility.yul\":23824:23987   */\n    tag_415:\n        /* \"#utility.yul\":23964:23979   */\n      0x4e6f7420746865206f776e657200000000000000000000000000000000000000\n        /* \"#utility.yul\":23960:23961   */\n      0x00\n        /* \"#utility.yul\":23952:23958   */\n      dup3\n        /* \"#utility.yul\":23948:23962   */\n      add\n        /* \"#utility.yul\":23941:23980   */\n      mstore\n        /* \"#utility.yul\":23824:23987   */\n      pop\n      jump\t// out\n        /* \"#utility.yul\":23993:24359   */\n    tag_416:\n        /* \"#utility.yul\":24135:24138   */\n      0x00\n        /* \"#utility.yul\":24156:24223   */\n      tag_645\n        /* \"#utility.yul\":24220:24222   */\n      0x0d\n        /* \"#utility.yul\":24215:24218   */\n      dup4\n        /* \"#utility.yul\":24156:24223   */\n      tag_380\n      jump\t// in\n    tag_645:\n        /* \"#utility.yul\":24149:24223   */\n      swap2\n      pop\n        /* \"#utility.yul\":24232:24325   */\n      tag_646\n        /* \"#utility.yul\":24321:24324   */\n      dup3\n        /* \"#utility.yul\":24232:24325   */\n      tag_415\n      jump\t// in\n    tag_646:\n        /* \"#utility.yul\":24350:24352   */\n      0x20\n        /* \"#utility.yul\":24345:24348   */\n      dup3\n        /* \"#utility.yul\":24341:24353   */\n      add\n        /* \"#utility.yul\":24334:24353   */\n      swap1\n      pop\n        /* \"#utility.yul\":23993:24359   */\n      swap2\n      swap1\n      pop\n      jump\t// out\n        /* \"#utility.yul\":24365:24784   */\n    tag_214:\n        /* \"#utility.yul\":24531:24535   */\n      0x00\n        /* \"#utility.yul\":24569:24571   */\n      0x20\n        /* \"#utility.yul\":24558:24567   */\n      dup3\n        /* \"#utility.yul\":24554:24572   */\n      add\n        /* \"#utility.yul\":24546:24572   */\n      swap1\n      pop\n        /* \"#utility.yul\":24618:24627   */\n      dup2\n        /* \"#utility.yul\":24612:24616   */\n      dup2\n        /* \"#utility.yul\":24608:24628   */\n      sub\n        /* \"#utility.yul\":24604:24605   */\n      0x00\n        /* \"#utility.yul\":24593:24602   */\n      dup4\n        /* \"#utility.yul\":24589:24606   */\n      add\n        /* \"#utility.yul\":24582:24629   */\n      mstore\n        /* \"#utility.yul\":24646:24777   */\n      tag_648\n        /* \"#utility.yul\":24772:24776   */\n      dup2\n        /* \"#utility.yul\":24646:24777   */\n      tag_416\n      jump\t// in\n    tag_648:\n        /* \"#utility.yul\":24638:24777   */\n      swap1\n      pop\n        /* \"#utility.yul\":24365:24784   */\n      swap2\n      swap1\n      pop\n      jump\t// out\n        /* \"#utility.yul\":24790:25122   */\n    tag_221:\n        /* \"#utility.yul\":24911:24915   */\n      0x00\n        /* \"#utility.yul\":24949:24951   */\n      0x40\n        /* \"#utility.yul\":24938:24947   */\n      dup3\n        /* \"#utility.yul\":24934:24952   */\n      add\n        /* \"#utility.yul\":24926:24952   */\n      swap1\n      pop\n        /* \"#utility.yul\":24962:25033   */\n      tag_650\n        /* \"#utility.yul\":25030:25031   */\n      0x00\n        /* \"#utility.yul\":25019:25028   */\n      dup4\n        /* \"#utility.yul\":25015:25032   */\n      add\n        /* \"#utility.yul\":25006:25012   */\n      dup6\n        /* \"#utility.yul\":24962:25033   */\n      tag_374\n      jump\t// in\n    tag_650:\n        /* \"#utility.yul\":25043:25115   */\n      tag_651\n        /* \"#utility.yul\":25111:25113   */\n      0x20\n        /* \"#utility.yul\":25100:25109   */\n      dup4\n        /* \"#utility.yul\":25096:25114   */\n      add\n        /* \"#utility.yul\":25087:25093   */\n      dup5\n        /* \"#utility.yul\":25043:25115   */\n      tag_374\n      jump\t// in\n    tag_651:\n        /* \"#utility.yul\":24790:25122   */\n      swap4\n      swap3\n      pop\n      pop\n      pop\n      jump\t// out\n        /* \"#utility.yul\":25128:25244   */\n    tag_417:\n        /* \"#utility.yul\":25198:25219   */\n      tag_653\n        /* \"#utility.yul\":25213:25218   */\n      dup2\n        /* \"#utility.yul\":25198:25219   */\n      tag_376\n      jump\t// in\n    tag_653:\n        /* \"#utility.yul\":25191:25196   */\n      dup2\n        /* \"#utility.yul\":25188:25220   */\n      eq\n        /* \"#utility.yul\":25178:25238   */\n      tag_654\n      jumpi\n        /* \"#utility.yul\":25234:25235   */\n      0x00\n        /* \"#utility.yul\":25231:25232   */\n      0x00\n        /* \"#utility.yul\":25224:25236   */\n      revert\n        /* \"#utility.yul\":25178:25238   */\n    tag_654:\n        /* \"#utility.yul\":25128:25244   */\n      pop\n      jump\t// out\n        /* \"#utility.yul\":25250:25387   */\n    tag_418:\n        /* \"#utility.yul\":25304:25309   */\n      0x00\n        /* \"#utility.yul\":25335:25341   */\n      dup2\n        /* \"#utility.yul\":25329:25342   */\n      mload\n        /* \"#utility.yul\":25320:25342   */\n      swap1\n      pop\n        /* \"#utility.yul\":25351:25381   */\n      tag_656\n        /* \"#utility.yul\":25375:25380   */\n      dup2\n        /* \"#utility.yul\":25351:25381   */\n      tag_417\n      jump\t// in\n    tag_656:\n        /* \"#utility.yul\":25250:25387   */\n      swap3\n      swap2\n      pop\n      pop\n      jump\t// out\n        /* \"#utility.yul\":25393:25738   */\n    tag_225:\n        /* \"#utility.yul\":25460:25466   */\n      0x00\n        /* \"#utility.yul\":25509:25511   */\n      0x20\n        /* \"#utility.yul\":25497:25506   */\n      dup3\n        /* \"#utility.yul\":25488:25495   */\n      dup5\n        /* \"#utility.yul\":25484:25507   */\n      sub\n        /* \"#utility.yul\":25480:25512   */\n      slt\n        /* \"#utility.yul\":25477:25596   */\n      iszero\n      tag_658\n      jumpi\n        /* \"#utility.yul\":25515:25594   */\n      tag_659\n      tag_367\n      jump\t// in\n    tag_659:\n        /* \"#utility.yul\":25477:25596   */\n    tag_658:\n        /* \"#utility.yul\":25635:25636   */\n      0x00\n        /* \"#utility.yul\":25660:25721   */\n      tag_660\n        /* \"#utility.yul\":25713:25720   */\n      dup5\n        /* \"#utility.yul\":25704:25710   */\n      dup3\n        /* \"#utility.yul\":25693:25702   */\n      dup6\n        /* \"#utility.yul\":25689:25711   */\n      add\n        /* \"#utility.yul\":25660:25721   */\n      tag_418\n      jump\t// in\n    tag_660:\n        /* \"#utility.yul\":25650:25721   */\n      swap2\n      pop\n        /* \"#utility.yul\":25606:25731   */\n      pop\n        /* \"#utility.yul\":25393:25738   */\n      swap3\n      swap2\n      pop\n      pop\n      jump\t// out\n        /* \"#utility.yul\":25744:25918   */\n    tag_419:\n        /* \"#utility.yul\":25884:25910   */\n      0x4d61726b6574706c616365206e6f7420617070726f7665640000000000000000\n        /* \"#utility.yul\":25880:25881   */\n      0x00\n        /* \"#utility.yul\":25872:25878   */\n      dup3\n        /* \"#utility.yul\":25868:25882   */\n      add\n        /* \"#utility.yul\":25861:25911   */\n      mstore\n        /* \"#utility.yul\":25744:25918   */\n      pop\n      jump\t// out\n        /* \"#utility.yul\":25924:26290   */\n    tag_420:\n        /* \"#utility.yul\":26066:26069   */\n      0x00\n        /* \"#utility.yul\":26087:26154   */\n      tag_663\n        /* \"#utility.yul\":26151:26153   */\n      0x18\n        /* \"#utility.yul\":26146:26149   */\n      dup4\n        /* \"#utility.yul\":26087:26154   */\n      tag_380\n      jump\t// in\n    tag_663:\n        /* \"#utility.yul\":26080:26154   */\n      swap2\n      pop\n        /* \"#utility.yul\":26163:26256   */\n      tag_664\n        /* \"#utility.yul\":26252:26255   */\n      dup3\n        /* \"#utility.yul\":26163:26256   */\n      tag_419\n      jump\t// in\n    tag_664:\n        /* \"#utility.yul\":26281:26283   */\n      0x20\n        /* \"#utility.yul\":26276:26279   */\n      dup3\n        /* \"#utility.yul\":26272:26284   */\n      add\n        /* \"#utility.yul\":26265:26284   */\n      swap1\n      pop\n        /* \"#utility.yul\":25924:26290   */\n      swap2\n      swap1\n      pop\n      jump\t// out\n        /* \"#utility.yul\":26296:26715   */\n    tag_228:\n        /* \"#utility.yul\":26462:26466   */\n      0x00\n        /* \"#utility.yul\":26500:26502   */\n      0x20\n        /* \"#utility.yul\":26489:26498   */\n      dup3\n        /* \"#utility.yul\":26485:26503   */\n      add\n        /* \"#utility.yul\":26477:26503   */\n      swap1\n      pop\n        /* \"#utility.yul\":26549:26558   */\n      dup2\n        /* \"#utility.yul\":26543:26547   */\n      dup2\n        /* \"#utility.yul\":26539:26559   */\n      sub\n        /* \"#utility.yul\":26535:26536   */\n      0x00\n        /* \"#utility.yul\":26524:26533   */\n      dup4\n        /* \"#utility.yul\":26520:26537   */\n      add\n        /* \"#utility.yul\":26513:26560   */\n      mstore\n        /* \"#utility.yul\":26577:26708   */\n      tag_666\n        /* \"#utility.yul\":26703:26707   */\n      dup2\n        /* \"#utility.yul\":26577:26708   */\n      tag_420\n      jump\t// in\n    tag_666:\n        /* \"#utility.yul\":26569:26708   */\n      swap1\n      pop\n        /* \"#utility.yul\":26296:26715   */\n      swap2\n      swap1\n      pop\n      jump\t// out\n        /* \"#utility.yul\":26721:26954   */\n    tag_230:\n        /* \"#utility.yul\":26760:26763   */\n      0x00\n        /* \"#utility.yul\":26783:26807   */\n      tag_668\n        /* \"#utility.yul\":26801:26806   */\n      dup3\n        /* \"#utility.yul\":26783:26807   */\n      tag_369\n      jump\t// in\n    tag_668:\n        /* \"#utility.yul\":26774:26807   */\n      swap2\n      pop\n        /* \"#utility.yul\":26829:26895   */\n      0xffffffffffffffffffffffffffffffffffffffffffffffffffffffffffffffff\n        /* \"#utility.yul\":26822:26827   */\n      dup3\n        /* \"#utility.yul\":26819:26896   */\n      sub\n        /* \"#utility.yul\":26816:26919   */\n      tag_669\n      jumpi\n        /* \"#utility.yul\":26899:26917   */\n      tag_670\n      tag_398\n      jump\t// in\n    tag_670:\n        /* \"#utility.yul\":26816:26919   */\n    tag_669:\n        /* \"#utility.yul\":26946:26947   */\n      0x01\n        /* \"#utility.yul\":26939:26944   */\n      dup3\n        /* \"#utility.yul\":26935:26948   */\n      add\n        /* \"#utility.yul\":26928:26948   */\n      swap1\n      pop\n        /* \"#utility.yul\":26721:26954   */\n      swap2\n      swap1\n      pop\n      jump\t// out\n        /* \"#utility.yul\":26960:27151   */\n    tag_233:\n        /* \"#utility.yul\":27000:27003   */\n      0x00\n        /* \"#utility.yul\":27019:27039   */\n      tag_672\n        /* \"#utility.yul\":27037:27038   */\n      dup3\n        /* \"#utility.yul\":27019:27039   */\n      tag_369\n      jump\t// in\n    tag_672:\n        /* \"#utility.yul\":27014:27039   */\n      swap2\n      pop\n        /* \"#utility.yul\":27053:27073   */\n      tag_673\n        /* \"#utility.yul\":27071:27072   */\n      dup4\n        /* \"#utility.yul\":27053:27073   */\n      tag_369\n      jump\t// in\n    tag_673:\n        /* \"#utility.yul\":27048:27073   */\n      swap3\n      pop\n        /* \"#utility.yul\":27096:27097   */\n      dup3\n        /* \"#utility.yul\":27093:27094   */\n      dup3\n        /* \"#utility.yul\":27089:27098   */\n      add\n        /* \"#utility.yul\":27082:27098   */\n      swap1\n      pop\n        /* \"#utility.yul\":27117:27120   */\n      dup1\n        /* \"#utility.yul\":27114:27115   */\n      dup3\n        /* \"#utility.yul\":27111:27121   */\n      gt\n        /* \"#utility.yul\":27108:27144   */\n      iszero\n      tag_674\n      jumpi\n        /* \"#utility.yul\":27124:27142   */\n      tag_675\n      tag_398\n      jump\t// in\n    tag_675:\n        /* \"#utility.yul\":27108:27144   */\n    tag_674:\n        /* \"#utility.yul\":26960:27151   */\n      swap3\n      swap2\n      pop\n      pop\n      jump\t// out\n        /* \"#utility.yul\":27157:27599   */\n    tag_235:\n        /* \"#utility.yul\":27306:27310   */\n      0x00\n        /* \"#utility.yul\":27344:27346   */\n      0x60\n        /* \"#utility.yul\":27333:27342   */\n      dup3\n        /* \"#utility.yul\":27329:27347   */\n      add\n        /* \"#utility.yul\":27321:27347   */\n      swap1\n      pop\n        /* \"#utility.yul\":27357:27428   */\n      tag_677\n        /* \"#utility.yul\":27425:27426   */\n      0x00\n        /* \"#utility.yul\":27414:27423   */\n      dup4\n        /* \"#utility.yul\":27410:27427   */\n      add\n        /* \"#utility.yul\":27401:27407   */\n      dup7\n        /* \"#utility.yul\":27357:27428   */\n      tag_375\n      jump\t// in\n    tag_677:\n        /* \"#utility.yul\":27438:27510   */\n      tag_678\n        /* \"#utility.yul\":27506:27508   */\n      0x20\n        /* \"#utility.yul\":27495:27504   */\n      dup4\n        /* \"#utility.yul\":27491:27509   */\n      add\n        /* \"#utility.yul\":27482:27488   */\n      dup6\n        /* \"#utility.yul\":27438:27510   */\n      tag_375\n      jump\t// in\n    tag_678:\n        /* \"#utility.yul\":27520:27592   */\n      tag_679\n        /* \"#utility.yul\":27588:27590   */\n      0x40\n        /* \"#utility.yul\":27577:27586   */\n      dup4\n        /* \"#utility.yul\":27573:27591   */\n      add\n        /* \"#utility.yul\":27564:27570   */\n      dup5\n        /* \"#utility.yul\":27520:27592   */\n      tag_375\n      jump\t// in\n    tag_679:\n        /* \"#utility.yul\":27157:27599   */\n      swap5\n      swap4\n      pop\n      pop\n      pop\n      pop\n      jump\t// out\n        /* \"#utility.yul\":27605:27783   */\n    tag_421:\n        /* \"#utility.yul\":27745:27775   */\n      0x5072696365206d7573742062652067726561746572207468616e203000000000\n        /* \"#utility.yul\":27741:27742   */\n      0x00\n        /* \"#utility.yul\":27733:27739   */\n      dup3\n        /* \"#utility.yul\":27729:27743   */\n      add\n        /* \"#utility.yul\":27722:27776   */\n      mstore\n        /* \"#utility.yul\":27605:27783   */\n      pop\n      jump\t// out\n        /* \"#utility.yul\":27789:28155   */\n    tag_422:\n        /* \"#utility.yul\":27931:27934   */\n      0x00\n        /* \"#utility.yul\":27952:28019   */\n      tag_682\n        /* \"#utility.yul\":28016:28018   */\n      0x1c\n        /* \"#utility.yul\":28011:28014   */\n      dup4\n        /* \"#utility.yul\":27952:28019   */\n      tag_380\n      jump\t// in\n    tag_682:\n        /* \"#utility.yul\":27945:28019   */\n      swap2\n      pop\n        /* \"#utility.yul\":28028:28121   */\n      tag_683\n        /* \"#utility.yul\":28117:28120   */\n      dup3\n        /* \"#utility.yul\":28028:28121   */\n      tag_421\n      jump\t// in\n    tag_683:\n        /* \"#utility.yul\":28146:28148   */\n      0x20\n        /* \"#utility.yul\":28141:28144   */\n      dup3\n        /* \"#utility.yul\":28137:28149   */\n      add\n        /* \"#utility.yul\":28130:28149   */\n      swap1\n      pop\n        /* \"#utility.yul\":27789:28155   */\n      swap2\n      swap1\n      pop\n      jump\t// out\n        /* \"#utility.yul\":28161:28580   */\n    tag_240:\n        /* \"#utility.yul\":28327:28331   */\n      0x00\n        /* \"#utility.yul\":28365:28367   */\n      0x20\n        /* \"#utility.yul\":28354:28363   */\n      dup3\n        /* \"#utility.yul\":28350:28368   */\n      add\n        /* \"#utility.yul\":28342:28368   */\n      swap1\n      pop\n        /* \"#utility.yul\":28414:28423   */\n      dup2\n        /* \"#utility.yul\":28408:28412   */\n      dup2\n        /* \"#utility.yul\":28404:28424   */\n      sub\n        /* \"#utility.yul\":28400:28401   */\n      0x00\n        /* \"#utility.yul\":28389:28398   */\n      dup4\n        /* \"#utility.yul\":28385:28402   */\n      add\n        /* \"#utility.yul\":28378:28425   */\n      mstore\n        /* \"#utility.yul\":28442:28573   */\n      tag_685\n        /* \"#utility.yul\":28568:28572   */\n      dup2\n        /* \"#utility.yul\":28442:28573   */\n      tag_422\n      jump\t// in\n    tag_685:\n        /* \"#utility.yul\":28434:28573   */\n      swap1\n      pop\n        /* \"#utility.yul\":28161:28580   */\n      swap2\n      swap1\n      pop\n      jump\t// out\n        /* \"#utility.yul\":28586:28750   */\n    tag_423:\n        /* \"#utility.yul\":28726:28742   */\n      0x4e6f74207468652073656c6c6572000000000000000000000000000000000000\n        /* \"#utility.yul\":28722:28723   */\n      0x00\n        /* \"#utility.yul\":28714:28720   */\n      dup3\n        /* \"#utility.yul\":28710:28724   */\n      add\n        /* \"#utility.yul\":28703:28743   */\n      mstore\n        /* \"#utility.yul\":28586:28750   */\n      pop\n      jump\t// out\n        /* \"#utility.yul\":28756:29122   */\n    tag_424:\n        /* \"#utility.yul\":28898:28901   */\n      0x00\n        /* \"#utility.yul\":28919:28986   */\n      tag_688\n        /* \"#utility.yul\":28983:28985   */\n      0x0e\n        /* \"#utility.yul\":28978:28981   */\n      dup4\n        /* \"#utility.yul\":28919:28986   */\n      tag_380\n      jump\t// in\n    tag_688:\n        /* \"#utility.yul\":28912:28986   */\n      swap2\n      pop\n        /* \"#utility.yul\":28995:29088   */\n      tag_689\n        /* \"#utility.yul\":29084:29087   */\n      dup3\n        /* \"#utility.yul\":28995:29088   */\n      tag_423\n      jump\t// in\n    tag_689:\n        /* \"#utility.yul\":29113:29115   */\n      0x20\n        /* \"#utility.yul\":29108:29111   */\n      dup3\n        /* \"#utility.yul\":29104:29116   */\n      add\n        /* \"#utility.yul\":29097:29116   */\n      swap1\n      pop\n        /* \"#utility.yul\":28756:29122   */\n      swap2\n      swap1\n      pop\n      jump\t// out\n        /* \"#utility.yul\":29128:29547   */\n    tag_245:\n        /* \"#utility.yul\":29294:29298   */\n      0x00\n        /* \"#utility.yul\":29332:29334   */\n      0x20\n        /* \"#utility.yul\":29321:29330   */\n      dup3\n        /* \"#utility.yul\":29317:29335   */\n      add\n        /* \"#utility.yul\":29309:29335   */\n      swap1\n      pop\n        /* \"#utility.yul\":29381:29390   */\n      dup2\n        /* \"#utility.yul\":29375:29379   */\n      dup2\n        /* \"#utility.yul\":29371:29391   */\n      sub\n        /* \"#utility.yul\":29367:29368   */\n      0x00\n        /* \"#utility.yul\":29356:29365   */\n      dup4\n        /* \"#utility.yul\":29352:29369   */\n      add\n        /* \"#utility.yul\":29345:29392   */\n      mstore\n        /* \"#utility.yul\":29409:29540   */\n      tag_691\n        /* \"#utility.yul\":29535:29539   */\n      dup2\n        /* \"#utility.yul\":29409:29540   */\n      tag_424\n      jump\t// in\n    tag_691:\n        /* \"#utility.yul\":29401:29540   */\n      swap1\n      pop\n        /* \"#utility.yul\":29128:29547   */\n      swap2\n      swap1\n      pop\n      jump\t// out\n        /* \"#utility.yul\":29553:29721   */\n    tag_425:\n        /* \"#utility.yul\":29693:29713   */\n      0x41756374696f6e206e6f74206163746976650000000000000000000000000000\n        /* \"#utility.yul\":29689:29690   */\n      0x00\n        /* \"#utility.yul\":29681:29687   */\n      dup3\n        /* \"#utility.yul\":29677:29691   */\n      add\n        /* \"#utility.yul\":29670:29714   */\n      mstore\n        /* \"#utility.yul\":29553:29721   */\n      pop\n      jump\t// out\n        /* \"#utility.yul\":29727:30093   */\n    tag_426:\n        /* \"#utility.yul\":29869:29872   */\n      0x00\n        /* \"#utility.yul\":29890:29957   */\n      tag_694\n        /* \"#utility.yul\":29954:29956   */\n      0x12\n        /* \"#utility.yul\":29949:29952   */\n      dup4\n        /* \"#utility.yul\":29890:29957   */\n      tag_380\n      jump\t// in\n    tag_694:\n        /* \"#utility.yul\":29883:29957   */\n      swap2\n      pop\n        /* \"#utility.yul\":29966:30059   */\n      tag_695\n        /* \"#utility.yul\":30055:30058   */\n      dup3\n        /* \"#utility.yul\":29966:30059   */\n      tag_425\n      jump\t// in\n    tag_695:\n        /* \"#utility.yul\":30084:30086   */\n      0x20\n        /* \"#utility.yul\":30079:30082   */\n      dup3\n        /* \"#utility.yul\":30075:30087   */\n      add\n        /* \"#utility.yul\":30068:30087   */\n      swap1\n      pop\n        /* \"#utility.yul\":29727:30093   */\n      swap2\n      swap1\n      pop\n      jump\t// out\n        /* \"#utility.yul\":30099:30518   */\n    tag_250:\n        /* \"#utility.yul\":30265:30269   */\n      0x00\n        /* \"#utility.yul\":30303:30305   */\n      0x20\n        /* \"#utility.yul\":30292:30301   */\n      dup3\n        /* \"#utility.yul\":30288:30306   */\n      add\n        /* \"#utility.yul\":30280:30306   */\n      swap1\n      pop\n        /* \"#utility.yul\":30352:30361   */\n      dup2\n        /* \"#utility.yul\":30346:30350   */\n      dup2\n        /* \"#utility.yul\":30342:30362   */\n      sub\n        /* \"#utility.yul\":30338:30339   */\n      0x00\n        /* \"#utility.yul\":30327:30336   */\n      dup4\n        /* \"#utility.yul\":30323:30340   */\n      add\n        /* \"#utility.yul\":30316:30363   */\n      mstore\n        /* \"#utility.yul\":30380:30511   */\n      tag_697\n        /* \"#utility.yul\":30506:30510   */\n      dup2\n        /* \"#utility.yul\":30380:30511   */\n      tag_426\n      jump\t// in\n    tag_697:\n        /* \"#utility.yul\":30372:30511   */\n      swap1\n      pop\n        /* \"#utility.yul\":30099:30518   */\n      swap2\n      swap1\n      pop\n      jump\t// out\n        /* \"#utility.yul\":30524:30687   */\n    tag_427:\n        /* \"#utility.yul\":30664:30679   */\n      0x41756374696f6e20656e64656400000000000000000000000000000000000000\n        /* \"#utility.yul\":30660:30661   */\n      0x00\n        /* \"#utility.yul\":30652:30658   */\n      dup3\n        /* \"#utility.yul\":30648:30662   */\n      add\n        /* \"#utility.yul\":30641:30680   */\n      mstore\n        /* \"#utility.yul\":30524:30687   */\n      pop\n      jump\t// out\n        /* \"#utility.yul\":30693:31059   */\n    tag_428:\n        /* \"#utility.yul\":30835:30838   */\n      0x00\n        /* \"#utility.yul\":30856:30923   */\n      tag_700\n        /* \"#utility.yul\":30920:30922   */\n      0x0d\n        /* \"#utility.yul\":30915:30918   */\n      dup4\n        /* \"#utility.yul\":30856:30923   */\n      tag_380\n      jump\t// in\n    tag_700:\n        /* \"#utility.yul\":30849:30923   */\n      swap2\n      pop\n        /* \"#utility.yul\":30932:31025   */\n      tag_701\n        /* \"#utility.yul\":31021:31024   */\n      dup3\n        /* \"#utility.yul\":30932:31025   */\n      tag_427\n      jump\t// in\n    tag_701:\n        /* \"#utility.yul\":31050:31052   */\n      0x20\n        /* \"#utility.yul\":31045:31048   */\n      dup3\n        /* \"#utility.yul\":31041:31053   */\n      add\n        /* \"#utility.yul\":31034:31053   */\n      swap1\n      pop\n        /* \"#utility.yul\":30693:31059   */\n      swap2\n      swap1\n      pop\n      jump\t// out\n        /* \"#utility.yul\":31065:31484   */\n    tag_253:\n        /* \"#utility.yul\":31231:31235   */\n      0x00\n        /* \"#utility.yul\":31269:31271   */\n      0x20\n        /* \"#utility.yul\":31258:31267   */\n      dup3\n        /* \"#utility.yul\":31254:31272   */\n      add\n        /* \"#utility.yul\":31246:31272   */\n      swap1\n      pop\n        /* \"#utility.yul\":31318:31327   */\n      dup2\n        /* \"#utility.yul\":31312:31316   */\n      dup2\n        /* \"#utility.yul\":31308:31328   */\n      sub\n        /* \"#utility.yul\":31304:31305   */\n      0x00\n        /* \"#utility.yul\":31293:31302   */\n      dup4\n        /* \"#utility.yul\":31289:31306   */\n      add\n        /* \"#utility.yul\":31282:31329   */\n      mstore\n        /* \"#utility.yul\":31346:31477   */\n      tag_703\n        /* \"#utility.yul\":31472:31476   */\n      dup2\n        /* \"#utility.yul\":31346:31477   */\n      tag_428\n      jump\t// in\n    tag_703:\n        /* \"#utility.yul\":31338:31477   */\n      swap1\n      pop\n        /* \"#utility.yul\":31065:31484   */\n      swap2\n      swap1\n      pop\n      jump\t// out\n        /* \"#utility.yul\":31490:31657   */\n    tag_429:\n        /* \"#utility.yul\":31630:31649   */\n      0x53656c6c65722063616e6e6f7420626964000000000000000000000000000000\n        /* \"#utility.yul\":31626:31627   */\n      0x00\n        /* \"#utility.yul\":31618:31624   */\n      dup3\n        /* \"#utility.yul\":31614:31628   */\n      add\n        /* \"#utility.yul\":31607:31650   */\n      mstore\n        /* \"#utility.yul\":31490:31657   */\n      pop\n      jump\t// out\n        /* \"#utility.yul\":31663:32029   */\n    tag_430:\n        /* \"#utility.yul\":31805:31808   */\n      0x00\n        /* \"#utility.yul\":31826:31893   */\n      tag_706\n        /* \"#utility.yul\":31890:31892   */\n      0x11\n        /* \"#utility.yul\":31885:31888   */\n      dup4\n        /* \"#utility.yul\":31826:31893   */\n      tag_380\n      jump\t// in\n    tag_706:\n        /* \"#utility.yul\":31819:31893   */\n      swap2\n      pop\n        /* \"#utility.yul\":31902:31995   */\n      tag_707\n        /* \"#utility.yul\":31991:31994   */\n      dup3\n        /* \"#utility.yul\":31902:31995   */\n      tag_429\n      jump\t// in\n    tag_707:\n        /* \"#utility.yul\":32020:32022   */\n      0x20\n        /* \"#utility.yul\":32015:32018   */\n      dup3\n        /* \"#utility.yul\":32011:32023   */\n      add\n        /* \"#utility.yul\":32004:32023   */\n      swap1\n      pop\n        /* \"#utility.yul\":31663:32029   */\n      swap2\n      swap1\n      pop\n      jump\t// out\n        /* \"#utility.yul\":32035:32454   */\n    tag_256:\n        /* \"#utility.yul\":32201:32205   */\n      0x00\n        /* \"#utility.yul\":32239:32241   */\n      0x20\n        /* \"#utility.yul\":32228:32237   */\n      dup3\n        /* \"#utility.yul\":32224:32242   */\n      add\n        /* \"#utility.yul\":32216:32242   */\n      swap1\n      pop\n        /* \"#utility.yul\":32288:32297   */\n      dup2\n        /* \"#utility.yul\":32282:32286   */\n      dup2\n        /* \"#utility.yul\":32278:32298   */\n      sub\n        /* \"#utility.yul\":32274:32275   */\n      0x00\n        /* \"#utility.yul\":32263:32272   */\n      dup4\n        /* \"#utility.yul\":32259:32276   */\n      add\n        /* \"#utility.yul\":32252:32299   */\n      mstore\n        /* \"#utility.yul\":32316:32447   */\n      tag_709\n        /* \"#utility.yul\":32442:32446   */\n      dup2\n        /* \"#utility.yul\":32316:32447   */\n      tag_430\n      jump\t// in\n    tag_709:\n        /* \"#utility.yul\":32308:32447   */\n      swap1\n      pop\n        /* \"#utility.yul\":32035:32454   */\n      swap2\n      swap1\n      pop\n      jump\t// out\n        /* \"#utility.yul\":32460:32621   */\n    tag_431:\n        /* \"#utility.yul\":32600:32613   */\n      0x42696420746f6f206c6f77000000000000000000000000000000000000000000\n        /* \"#utility.yul\":32596:32597   */\n      0x00\n        /* \"#utility.yul\":32588:32594   */\n      dup3\n        /* \"#utility.yul\":32584:32598   */\n      add\n        /* \"#utility.yul\":32577:32614   */\n      mstore\n        /* \"#utility.yul\":32460:32621   */\n      pop\n      jump\t// out\n        /* \"#utility.yul\":32627:32993   */\n    tag_432:\n        /* \"#utility.yul\":32769:32772   */\n      0x00\n        /* \"#utility.yul\":32790:32857   */\n      tag_712\n        /* \"#utility.yul\":32854:32856   */\n      0x0b\n        /* \"#utility.yul\":32849:32852   */\n      dup4\n        /* \"#utility.yul\":32790:32857   */\n      tag_380\n      jump\t// in\n    tag_712:\n        /* \"#utility.yul\":32783:32857   */\n      swap2\n      pop\n        /* \"#utility.yul\":32866:32959   */\n      tag_713\n        /* \"#utility.yul\":32955:32958   */\n      dup3\n        /* \"#utility.yul\":32866:32959   */\n      tag_431\n      jump\t// in\n    tag_713:\n        /* \"#utility.yul\":32984:32986   */\n      0x20\n        /* \"#utility.yul\":32979:32982   */\n      dup3\n        /* \"#utility.yul\":32975:32987   */\n      add\n        /* \"#utility.yul\":32968:32987   */\n      swap1\n      pop\n        /* \"#utility.yul\":32627:32993   */\n      swap2\n      swap1\n      pop\n      jump\t// out\n        /* \"#utility.yul\":32999:33418   */\n    tag_264:\n        /* \"#utility.yul\":33165:33169   */\n      0x00\n        /* \"#utility.yul\":33203:33205   */\n      0x20\n        /* \"#utility.yul\":33192:33201   */\n      dup3\n        /* \"#utility.yul\":33188:33206   */\n      add\n        /* \"#utility.yul\":33180:33206   */\n      swap1\n      pop\n        /* \"#utility.yul\":33252:33261   */\n      dup2\n        /* \"#utility.yul\":33246:33250   */\n      dup2\n        /* \"#utility.yul\":33242:33262   */\n      sub\n        /* \"#utility.yul\":33238:33239   */\n      0x00\n        /* \"#utility.yul\":33227:33236   */\n      dup4\n        /* \"#utility.yul\":33223:33240   */\n      add\n        /* \"#utility.yul\":33216:33263   */\n      mstore\n        /* \"#utility.yul\":33280:33411   */\n      tag_715\n        /* \"#utility.yul\":33406:33410   */\n      dup2\n        /* \"#utility.yul\":33280:33411   */\n      tag_432\n      jump\t// in\n    tag_715:\n        /* \"#utility.yul\":33272:33411   */\n      swap1\n      pop\n        /* \"#utility.yul\":32999:33418   */\n      swap2\n      swap1\n      pop\n      jump\t// out\n        /* \"#utility.yul\":33424:33588   */\n    tag_433:\n        /* \"#utility.yul\":33564:33580   */\n      0x4e6f74207468656e206f776e6572000000000000000000000000000000000000\n        /* \"#utility.yul\":33560:33561   */\n      0x00\n        /* \"#utility.yul\":33552:33558   */\n      dup3\n        /* \"#utility.yul\":33548:33562   */\n      add\n        /* \"#utility.yul\":33541:33581   */\n      mstore\n        /* \"#utility.yul\":33424:33588   */\n      pop\n      jump\t// out\n        /* \"#utility.yul\":33594:33960   */\n    tag_434:\n        /* \"#utility.yul\":33736:33739   */\n      0x00\n        /* \"#utility.yul\":33757:33824   */\n      tag_718\n        /* \"#utility.yul\":33821:33823   */\n      0x0e\n        /* \"#utility.yul\":33816:33819   */\n      dup4\n        /* \"#utility.yul\":33757:33824   */\n      tag_380\n      jump\t// in\n    tag_718:\n        /* \"#utility.yul\":33750:33824   */\n      swap2\n      pop\n        /* \"#utility.yul\":33833:33926   */\n      tag_719\n        /* \"#utility.yul\":33922:33925   */\n      dup3\n        /* \"#utility.yul\":33833:33926   */\n      tag_433\n      jump\t// in\n    tag_719:\n        /* \"#utility.yul\":33951:33953   */\n      0x20\n        /* \"#utility.yul\":33946:33949   */\n      dup3\n        /* \"#utility.yul\":33942:33954   */\n      add\n        /* \"#utility.yul\":33935:33954   */\n      swap1\n      pop\n        /* \"#utility.yul\":33594:33960   */\n      swap2\n      swap1\n      pop\n      jump\t// out\n        /* \"#utility.yul\":33966:34385   */\n    tag_279:\n        /* \"#utility.yul\":34132:34136   */\n      0x00\n        /* \"#utility.yul\":34170:34172   */\n      0x20\n        /* \"#utility.yul\":34159:34168   */\n      dup3\n        /* \"#utility.yul\":34155:34173   */\n      add\n        /* \"#utility.yul\":34147:34173   */\n      swap1\n      pop\n        /* \"#utility.yul\":34219:34228   */\n      dup2\n        /* \"#utility.yul\":34213:34217   */\n      dup2\n        /* \"#utility.yul\":34209:34229   */\n      sub\n        /* \"#utility.yul\":34205:34206   */\n      0x00\n        /* \"#utility.yul\":34194:34203   */\n      dup4\n        /* \"#utility.yul\":34190:34207   */\n      add\n        /* \"#utility.yul\":34183:34230   */\n      mstore\n        /* \"#utility.yul\":34247:34378   */\n      tag_721\n        /* \"#utility.yul\":34373:34377   */\n      dup2\n        /* \"#utility.yul\":34247:34378   */\n      tag_434\n      jump\t// in\n    tag_721:\n        /* \"#utility.yul\":34239:34378   */\n      swap1\n      pop\n        /* \"#utility.yul\":33966:34385   */\n      swap2\n      swap1\n      pop\n      jump\t// out\n        /* \"#utility.yul\":34391:34723   */\n    tag_293:\n        /* \"#utility.yul\":34512:34516   */\n      0x00\n        /* \"#utility.yul\":34550:34552   */\n      0x40\n        /* \"#utility.yul\":34539:34548   */\n      dup3\n        /* \"#utility.yul\":34535:34553   */\n      add\n        /* \"#utility.yul\":34527:34553   */\n      swap1\n      pop\n        /* \"#utility.yul\":34563:34634   */\n      tag_723\n        /* \"#utility.yul\":34631:34632   */\n      0x00\n        /* \"#utility.yul\":34620:34629   */\n      dup4\n        /* \"#utility.yul\":34616:34633   */\n      add\n        /* \"#utility.yul\":34607:34613   */\n      dup6\n        /* \"#utility.yul\":34563:34634   */\n      tag_375\n      jump\t// in\n    tag_723:\n        /* \"#utility.yul\":34644:34716   */\n      tag_724\n        /* \"#utility.yul\":34712:34714   */\n      0x20\n        /* \"#utility.yul\":34701:34710   */\n      dup4\n        /* \"#utility.yul\":34697:34715   */\n      add\n        /* \"#utility.yul\":34688:34694   */\n      dup5\n        /* \"#utility.yul\":34644:34716   */\n      tag_375\n      jump\t// in\n    tag_724:\n        /* \"#utility.yul\":34391:34723   */\n      swap4\n      swap3\n      pop\n      pop\n      pop\n      jump\t// out\n        /* \"#utility.yul\":34729:34894   */\n    tag_435:\n        /* \"#utility.yul\":34869:34886   */\n      0x41756374696f6e206e6f7420656e640000000000000000000000000000000000\n        /* \"#utility.yul\":34865:34866   */\n      0x00\n        /* \"#utility.yul\":34857:34863   */\n      dup3\n        /* \"#utility.yul\":34853:34867   */\n      add\n        /* \"#utility.yul\":34846:34887   */\n      mstore\n        /* \"#utility.yul\":34729:34894   */\n      pop\n      jump\t// out\n        /* \"#utility.yul\":34900:35266   */\n    tag_436:\n        /* \"#utility.yul\":35042:35045   */\n      0x00\n        /* \"#utility.yul\":35063:35130   */\n      tag_727\n        /* \"#utility.yul\":35127:35129   */\n      0x0f\n        /* \"#utility.yul\":35122:35125   */\n      dup4\n        /* \"#utility.yul\":35063:35130   */\n      tag_380\n      jump\t// in\n    tag_727:\n        /* \"#utility.yul\":35056:35130   */\n      swap2\n      pop\n        /* \"#utility.yul\":35139:35232   */\n      tag_728\n        /* \"#utility.yul\":35228:35231   */\n      dup3\n        /* \"#utility.yul\":35139:35232   */\n      tag_435\n      jump\t// in\n    tag_728:\n        /* \"#utility.yul\":35257:35259   */\n      0x20\n        /* \"#utility.yul\":35252:35255   */\n      dup3\n        /* \"#utility.yul\":35248:35260   */\n      add\n        /* \"#utility.yul\":35241:35260   */\n      swap1\n      pop\n        /* \"#utility.yul\":34900:35266   */\n      swap2\n      swap1\n      pop\n      jump\t// out\n        /* \"#utility.yul\":35272:35691   */\n    tag_301:\n        /* \"#utility.yul\":35438:35442   */\n      0x00\n        /* \"#utility.yul\":35476:35478   */\n      0x20\n        /* \"#utility.yul\":35465:35474   */\n      dup3\n        /* \"#utility.yul\":35461:35479   */\n      add\n        /* \"#utility.yul\":35453:35479   */\n      swap1\n      pop\n        /* \"#utility.yul\":35525:35534   */\n      dup2\n        /* \"#utility.yul\":35519:35523   */\n      dup2\n        /* \"#utility.yul\":35515:35535   */\n      sub\n        /* \"#utility.yul\":35511:35512   */\n      0x00\n        /* \"#utility.yul\":35500:35509   */\n      dup4\n        /* \"#utility.yul\":35496:35513   */\n      add\n        /* \"#utility.yul\":35489:35536   */\n      mstore\n        /* \"#utility.yul\":35553:35684   */\n      tag_730\n        /* \"#utility.yul\":35679:35683   */\n      dup2\n        /* \"#utility.yul\":35553:35684   */\n      tag_436\n      jump\t// in\n    tag_730:\n        /* \"#utility.yul\":35545:35684   */\n      swap1\n      pop\n        /* \"#utility.yul\":35272:35691   */\n      swap2\n      swap1\n      pop\n      jump\t// out\n        /* \"#utility.yul\":35697:35782   */\n    tag_437:\n        /* \"#utility.yul\":35742:35749   */\n      0x00\n        /* \"#utility.yul\":35771:35776   */\n      dup2\n        /* \"#utility.yul\":35760:35776   */\n      swap1\n      pop\n        /* \"#utility.yul\":35697:35782   */\n      swap2\n      swap1\n      pop\n      jump\t// out\n        /* \"#utility.yul\":35788:35848   */\n    tag_438:\n        /* \"#utility.yul\":35816:35819   */\n      0x00\n        /* \"#utility.yul\":35837:35842   */\n      dup2\n        /* \"#utility.yul\":35830:35842   */\n      swap1\n      pop\n        /* \"#utility.yul\":35788:35848   */\n      swap2\n      swap1\n      pop\n      jump\t// out\n        /* \"#utility.yul\":35854:36012   */\n    tag_439:\n        /* \"#utility.yul\":35912:35921   */\n      0x00\n        /* \"#utility.yul\":35945:36006   */\n      tag_734\n        /* \"#utility.yul\":35963:36005   */\n      tag_735\n        /* \"#utility.yul\":35972:36004   */\n      tag_736\n        /* \"#utility.yul\":35998:36003   */\n      dup5\n        /* \"#utility.yul\":35972:36004   */\n      tag_437\n      jump\t// in\n    tag_736:\n        /* \"#utility.yul\":35963:36005   */\n      tag_438\n      jump\t// in\n    tag_735:\n        /* \"#utility.yul\":35945:36006   */\n      tag_369\n      jump\t// in\n    tag_734:\n        /* \"#utility.yul\":35932:36006   */\n      swap1\n      pop\n        /* \"#utility.yul\":35854:36012   */\n      swap2\n      swap1\n      pop\n      jump\t// out\n        /* \"#utility.yul\":36018:36165   */\n    tag_440:\n        /* \"#utility.yul\":36113:36158   */\n      tag_738\n        /* \"#utility.yul\":36152:36157   */\n      dup2\n        /* \"#utility.yul\":36113:36158   */\n      tag_439\n      jump\t// in\n    tag_738:\n        /* \"#utility.yul\":36108:36111   */\n      dup3\n        /* \"#utility.yul\":36101:36159   */\n      mstore\n        /* \"#utility.yul\":36018:36165   */\n      pop\n      pop\n      jump\t// out\n        /* \"#utility.yul\":36171:36409   */\n    tag_335:\n        /* \"#utility.yul\":36272:36276   */\n      0x00\n        /* \"#utility.yul\":36310:36312   */\n      0x20\n        /* \"#utility.yul\":36299:36308   */\n      dup3\n        /* \"#utility.yul\":36295:36313   */\n      add\n        /* \"#utility.yul\":36287:36313   */\n      swap1\n      pop\n        /* \"#utility.yul\":36323:36402   */\n      tag_740\n        /* \"#utility.yul\":36399:36400   */\n      0x00\n        /* \"#utility.yul\":36388:36397   */\n      dup4\n        /* \"#utility.yul\":36384:36401   */\n      add\n        /* \"#utility.yul\":36375:36381   */\n      dup5\n        /* \"#utility.yul\":36323:36402   */\n      tag_440\n      jump\t// in\n    tag_740:\n        /* \"#utility.yul\":36171:36409   */\n      swap3\n      swap2\n      pop\n      pop\n      jump\t// out\n        /* \"#utility.yul\":36415:36580   */\n    tag_441:\n        /* \"#utility.yul\":36555:36572   */\n      0x496e76616c696420616464726573730000000000000000000000000000000000\n        /* \"#utility.yul\":36551:36552   */\n      0x00\n        /* \"#utility.yul\":36543:36549   */\n      dup3\n        /* \"#utility.yul\":36539:36553   */\n      add\n        /* \"#utility.yul\":36532:36573   */\n      mstore\n        /* \"#utility.yul\":36415:36580   */\n      pop\n      jump\t// out\n        /* \"#utility.yul\":36586:36952   */\n    tag_442:\n        /* \"#utility.yul\":36728:36731   */\n      0x00\n        /* \"#utility.yul\":36749:36816   */\n      tag_743\n        /* \"#utility.yul\":36813:36815   */\n      0x0f\n        /* \"#utility.yul\":36808:36811   */\n      dup4\n        /* \"#utility.yul\":36749:36816   */\n      tag_380\n      jump\t// in\n    tag_743:\n        /* \"#utility.yul\":36742:36816   */\n      swap2\n      pop\n        /* \"#utility.yul\":36825:36918   */\n      tag_744\n        /* \"#utility.yul\":36914:36917   */\n      dup3\n        /* \"#utility.yul\":36825:36918   */\n      tag_441\n      jump\t// in\n    tag_744:\n        /* \"#utility.yul\":36943:36945   */\n      0x20\n        /* \"#utility.yul\":36938:36941   */\n      dup3\n        /* \"#utility.yul\":36934:36946   */\n      add\n        /* \"#utility.yul\":36927:36946   */\n      swap1\n      pop\n        /* \"#utility.yul\":36586:36952   */\n      swap2\n      swap1\n      pop\n      jump\t// out\n        /* \"#utility.yul\":36958:37377   */\n    tag_347:\n        /* \"#utility.yul\":37124:37128   */\n      0x00\n        /* \"#utility.yul\":37162:37164   */\n      0x20\n        /* \"#utility.yul\":37151:37160   */\n      dup3\n        /* \"#utility.yul\":37147:37165   */\n      add\n        /* \"#utility.yul\":37139:37165   */\n      swap1\n      pop\n        /* \"#utility.yul\":37211:37220   */\n      dup2\n        /* \"#utility.yul\":37205:37209   */\n      dup2\n        /* \"#utility.yul\":37201:37221   */\n      sub\n        /* \"#utility.yul\":37197:37198   */\n      0x00\n        /* \"#utility.yul\":37186:37195   */\n      dup4\n        /* \"#utility.yul\":37182:37199   */\n      add\n        /* \"#utility.yul\":37175:37222   */\n      mstore\n        /* \"#utility.yul\":37239:37370   */\n      tag_746\n        /* \"#utility.yul\":37365:37369   */\n      dup2\n        /* \"#utility.yul\":37239:37370   */\n      tag_442\n      jump\t// in\n    tag_746:\n        /* \"#utility.yul\":37231:37370   */\n      swap1\n      pop\n        /* \"#utility.yul\":36958:37377   */\n      swap2\n      swap1\n      pop\n      jump\t// out\n        /* \"#utility.yul\":37383:37564   */\n    tag_443:\n        /* \"#utility.yul\":37523:37556   */\n      0x5265656e7472616e637947756172643a207265656e7472616e742063616c6c00\n        /* \"#utility.yul\":37519:37520   */\n      0x00\n        /* \"#utility.yul\":37511:37517   */\n      dup3\n        /* \"#utility.yul\":37507:37521   */\n      add\n        /* \"#utility.yul\":37500:37557   */\n      mstore\n        /* \"#utility.yul\":37383:37564   */\n      pop\n      jump\t// out\n        /* \"#utility.yul\":37570:37936   */\n    tag_444:\n        /* \"#utility.yul\":37712:37715   */\n      0x00\n        /* \"#utility.yul\":37733:37800   */\n      tag_749\n        /* \"#utility.yul\":37797:37799   */\n      0x1f\n        /* \"#utility.yul\":37792:37795   */\n      dup4\n        /* \"#utility.yul\":37733:37800   */\n      tag_380\n      jump\t// in\n    tag_749:\n        /* \"#utility.yul\":37726:37800   */\n      swap2\n      pop\n        /* \"#utility.yul\":37809:37902   */\n      tag_750\n        /* \"#utility.yul\":37898:37901   */\n      dup3\n        /* \"#utility.yul\":37809:37902   */\n      tag_443\n      jump\t// in\n    tag_750:\n        /* \"#utility.yul\":37927:37929   */\n      0x20\n        /* \"#utility.yul\":37922:37925   */\n      dup3\n        /* \"#utility.yul\":37918:37930   */\n      add\n        /* \"#utility.yul\":37911:37930   */\n      swap1\n      pop\n        /* \"#utility.yul\":37570:37936   */\n      swap2\n      swap1\n      pop\n      jump\t// out\n        /* \"#utility.yul\":37942:38361   */\n    tag_351:\n        /* \"#utility.yul\":38108:38112   */\n      0x00\n        /* \"#utility.yul\":38146:38148   */\n      0x20\n        /* \"#utility.yul\":38135:38144   */\n      dup3\n        /* \"#utility.yul\":38131:38149   */\n      add\n        /* \"#utility.yul\":38123:38149   */\n      swap1\n      pop\n        /* \"#utility.yul\":38195:38204   */\n      dup2\n        /* \"#utility.yul\":38189:38193   */\n      dup2\n        /* \"#utility.yul\":38185:38205   */\n      sub\n        /* \"#utility.yul\":38181:38182   */\n      0x00\n        /* \"#utility.yul\":38170:38179   */\n      dup4\n        /* \"#utility.yul\":38166:38183   */\n      add\n        /* \"#utility.yul\":38159:38206   */\n      mstore\n        /* \"#utility.yul\":38223:38354   */\n      tag_752\n        /* \"#utility.yul\":38349:38353   */\n      dup2\n        /* \"#utility.yul\":38223:38354   */\n      tag_444\n      jump\t// in\n    tag_752:\n        /* \"#utility.yul\":38215:38354   */\n      swap1\n      pop\n        /* \"#utility.yul\":37942:38361   */\n      swap2\n      swap1\n      pop\n      jump\t// out\n        /* \"#utility.yul\":38367:38516   */\n    tag_445:\n        /* \"#utility.yul\":38403:38410   */\n      0x00\n        /* \"#utility.yul\":38443:38509   */\n      0xffffffff00000000000000000000000000000000000000000000000000000000\n        /* \"#utility.yul\":38436:38441   */\n      dup3\n        /* \"#utility.yul\":38432:38510   */\n      and\n        /* \"#utility.yul\":38421:38510   */\n      swap1\n      pop\n        /* \"#utility.yul\":38367:38516   */\n      swap2\n      swap1\n      pop\n      jump\t// out\n        /* \"#utility.yul\":38522:38637   */\n    tag_446:\n        /* \"#utility.yul\":38607:38630   */\n      tag_755\n        /* \"#utility.yul\":38624:38629   */\n      dup2\n        /* \"#utility.yul\":38607:38630   */\n      tag_445\n      jump\t// in\n    tag_755:\n        /* \"#utility.yul\":38602:38605   */\n      dup3\n        /* \"#utility.yul\":38595:38631   */\n      mstore\n        /* \"#utility.yul\":38522:38637   */\n      pop\n      pop\n      jump\t// out\n        /* \"#utility.yul\":38643:38861   */\n    tag_354:\n        /* \"#utility.yul\":38734:38738   */\n      0x00\n        /* \"#utility.yul\":38772:38774   */\n      0x20\n        /* \"#utility.yul\":38761:38770   */\n      dup3\n        /* \"#utility.yul\":38757:38775   */\n      add\n        /* \"#utility.yul\":38749:38775   */\n      swap1\n      pop\n        /* \"#utility.yul\":38785:38854   */\n      tag_757\n        /* \"#utility.yul\":38851:38852   */\n      0x00\n        /* \"#utility.yul\":38840:38849   */\n      dup4\n        /* \"#utility.yul\":38836:38853   */\n      add\n        /* \"#utility.yul\":38827:38833   */\n      dup5\n        /* \"#utility.yul\":38785:38854   */\n      tag_446\n      jump\t// in\n    tag_757:\n        /* \"#utility.yul\":38643:38861   */\n      swap3\n      swap2\n      pop\n      pop\n      jump\t// out\n        /* \"#utility.yul\":38867:39010   */\n    tag_447:\n        /* \"#utility.yul\":38924:38929   */\n      0x00\n        /* \"#utility.yul\":38955:38961   */\n      dup2\n        /* \"#utility.yul\":38949:38962   */\n      mload\n        /* \"#utility.yul\":38940:38962   */\n      swap1\n      pop\n        /* \"#utility.yul\":38971:39004   */\n      tag_759\n        /* \"#utility.yul\":38998:39003   */\n      dup2\n        /* \"#utility.yul\":38971:39004   */\n      tag_370\n      jump\t// in\n    tag_759:\n        /* \"#utility.yul\":38867:39010   */\n      swap3\n      swap2\n      pop\n      pop\n      jump\t// out\n        /* \"#utility.yul\":39016:39523   */\n    tag_363:\n        /* \"#utility.yul\":39095:39101   */\n      0x00\n        /* \"#utility.yul\":39103:39109   */\n      0x00\n        /* \"#utility.yul\":39152:39154   */\n      0x40\n        /* \"#utility.yul\":39140:39149   */\n      dup4\n        /* \"#utility.yul\":39131:39138   */\n      dup6\n        /* \"#utility.yul\":39127:39150   */\n      sub\n        /* \"#utility.yul\":39123:39155   */\n      slt\n        /* \"#utility.yul\":39120:39239   */\n      iszero\n      tag_761\n      jumpi\n        /* \"#utility.yul\":39158:39237   */\n      tag_762\n      tag_367\n      jump\t// in\n    tag_762:\n        /* \"#utility.yul\":39120:39239   */\n    tag_761:\n        /* \"#utility.yul\":39278:39279   */\n      0x00\n        /* \"#utility.yul\":39303:39367   */\n      tag_763\n        /* \"#utility.yul\":39359:39366   */\n      dup6\n        /* \"#utility.yul\":39350:39356   */\n      dup3\n        /* \"#utility.yul\":39339:39348   */\n      dup7\n        /* \"#utility.yul\":39335:39357   */\n      add\n        /* \"#utility.yul\":39303:39367   */\n      tag_414\n      jump\t// in\n    tag_763:\n        /* \"#utility.yul\":39293:39367   */\n      swap3\n      pop\n        /* \"#utility.yul\":39249:39377   */\n      pop\n        /* \"#utility.yul\":39416:39418   */\n      0x20\n        /* \"#utility.yul\":39442:39506   */\n      tag_764\n        /* \"#utility.yul\":39498:39505   */\n      dup6\n        /* \"#utility.yul\":39489:39495   */\n      dup3\n        /* \"#utility.yul\":39478:39487   */\n      dup7\n        /* \"#utility.yul\":39474:39496   */\n      add\n        /* \"#utility.yul\":39442:39506   */\n      tag_447\n      jump\t// in\n    tag_764:\n        /* \"#utility.yul\":39432:39506   */\n      swap2\n      pop\n        /* \"#utility.yul\":39387:39516   */\n      pop\n        /* \"#utility.yul\":39016:39523   */\n      swap3\n      pop\n      swap3\n      swap1\n      pop\n      jump\t// out\n\n    auxdata: 0xa26469706673582212203468d9bbd1ed2fc91ef26b67c90fe7e942b3343ea8357db4c22941197710aecd64736f6c634300081e0033\n}\n",
				"bytecode": {
					"linkReferences": {},
					"object": "608060405260fa600655348015610014575f5ffd5b50604051613efa380380613efa8339818101604052810190610036919061014f565b60015f819055505f73ffffffffffffffffffffffffffffffffffffffff168173ffffffffffffffffffffffffffffffffffffffff16036100ab576040517f08c379a00000000000000000000000000000000000000000000000000000000081526004016100a2906101d4565b60405180910390fd5b8060075f6101000a81548173ffffffffffffffffffffffffffffffffffffffff021916908373ffffffffffffffffffffffffffffffffffffffff160217905550506101f2565b5f5ffd5b5f73ffffffffffffffffffffffffffffffffffffffff82169050919050565b5f61011e826100f5565b9050919050565b61012e81610114565b8114610138575f5ffd5b50565b5f8151905061014981610125565b92915050565b5f60208284031215610164576101636100f1565b5b5f6101718482850161013b565b91505092915050565b5f82825260208201905092915050565b7f496e76616c69642066656520726563697069656e7400000000000000000000005f82015250565b5f6101be60158361017a565b91506101c98261018a565b602082019050919050565b5f6020820190508181035f8301526101eb816101b2565b9050919050565b613cfb806101ff5f395ff3fe608060405260043610610113575f3560e01c806378bd79351161009f578063ad05f1b411610063578063ad05f1b4146103ad578063b9a2de3a146103e9578063cb917b9c14610411578063de74e57b14610439578063f160d3691461047957610113565b806378bd7935146102c057806382367b2d146103035780638ddac1ef1461032b5780639979ef4514610367578063a7e766441461038357610113565b806346904840116100e657806346904840146101d157806351ed8288146101fb578063571a26a01461021757806361beb1d71461025a5780636c2c9c7d1461029657610113565b80630eaaf4c814610117578063107a274a1461013f57806312e8e2c31461017f57806326232a2e146101a7575b5f5ffd5b348015610122575f5ffd5b5061013d60048036038101906101389190612ae3565b6104a1565b005b34801561014a575f5ffd5b5061016560048036038101906101609190612ae3565b610631565b604051610176959493929190612b76565b60405180910390f35b34801561018a575f5ffd5b506101a560048036038101906101a09190612ae3565b610758565b005b3480156101b2575f5ffd5b506101bb610836565b6040516101c89190612bc7565b60405180910390f35b3480156101dc575f5ffd5b506101e561083c565b6040516101f29190612be0565b60405180910390f35b61021560048036038101906102109190612ae3565b610861565b005b348015610222575f5ffd5b5061023d60048036038101906102389190612ae3565b610eac565b604051610251989796959493929190612bf9565b60405180910390f35b348015610265575f5ffd5b50610280600480360381019061027b9190612c9f565b610f59565b60405161028d9190612bc7565b60405180910390f35b3480156102a1575f5ffd5b506102aa611508565b6040516102b79190612bc7565b60405180910390f35b3480156102cb575f5ffd5b506102e660048036038101906102e19190612ae3565b61150e565b6040516102fa989796959493929190612bf9565b60405180910390f35b34801561030e575f5ffd5b5061032960048036038101906103249190612d03565b6116b9565b005b348015610336575f5ffd5b50610351600480360381019061034c9190612d41565b611835565b60405161035e9190612bc7565b60405180910390f35b610381600480360381019061037c9190612ae3565b611855565b005b34801561038e575f5ffd5b50610397611b98565b6040516103a49190612bc7565b60405180910390f35b3480156103b8575f5ffd5b506103d360048036038101906103ce9190612d7f565b611b9e565b6040516103e09190612bc7565b60405180910390f35b3480156103f4575f5ffd5b5061040f600480360381019061040a9190612ae3565b612055565b005b34801561041c575f5ffd5b5061043760048036038101906104329190612ae3565b612626565b005b348015610444575f5ffd5b5061045f600480360381019061045a9190612ae3565b612766565b604051610470959493929190612b76565b60405180910390f35b348015610484575f5ffd5b5061049f600480360381019061049a9190612dcf565b6127e2565b005b5f60055f8381526020019081526020015f205f3373ffffffffffffffffffffffffffffffffffffffff1673ffffffffffffffffffffffffffffffffffffffff1681526020019081526020015f205490505f8111610533576040517f08c379a000000000000000000000000000000000000000000000000000000000815260040161052a90612e54565b60405180910390fd5b5f60055f8481526020019081526020015f205f3373ffffffffffffffffffffffffffffffffffffffff1673ffffffffffffffffffffffffffffffffffffffff1681526020019081526020015f20819055505f3373ffffffffffffffffffffffffffffffffffffffff16826040516105a990612e9f565b5f6040518083038185875af1925050503d805f81146105e3576040519150601f19603f3d011682016040523d82523d5f602084013e6105e8565b606091505b505090508061062c576040517f08c379a000000000000000000000000000000000000000000000000000000000815260040161062390612efd565b60405180910390fd5b505050565b5f5f5f5f5f5f60015f8881526020019081526020015f206040518060a00160405290815f82015f9054906101000a900473ffffffffffffffffffffffffffffffffffffffff1673ffffffffffffffffffffffffffffffffffffffff1673ffffffffffffffffffffffffffffffffffffffff168152602001600182015f9054906101000a900473ffffffffffffffffffffffffffffffffffffffff1673ffffffffffffffffffffffffffffffffffffffff1673ffffffffffffffffffffffffffffffffffffffff1681526020016002820154815260200160038201548152602001600482015f9054906101000a900460ff1615151515815250509050805f01518160200151826040015183606001518460800151955095509550955095505091939590929450565b60075f9054906101000a900473ffffffffffffffffffffffffffffffffffffffff1673ffffffffffffffffffffffffffffffffffffffff163373ffffffffffffffffffffffffffffffffffffffff16146107e7576040517f08c379a00000000000000000000000000000000000000000000000000000000081526004016107de90612f65565b60405180910390fd5b6103e881111561082c576040517f08c379a000000000000000000000000000000000000000000000000000000000815260040161082390612fcd565b60405180910390fd5b8060068190555050565b60065481565b60075f9054906101000a900473ffffffffffffffffffffffffffffffffffffffff1681565b610869612922565b5f60015f8381526020019081526020015f209050806004015f9054906101000a900460ff166108cd576040517f08c379a00000000000000000000000000000000000000000000000000000000081526004016108c490613035565b60405180910390fd5b8060030154341015610914576040517f08c379a000000000000000000000000000000000000000000000000000000000815260040161090b9061309d565b60405180910390fd5b5f73ffffffffffffffffffffffffffffffffffffffff163373ffffffffffffffffffffffffffffffffffffffff1603610982576040517f08c379a000000000000000000000000000000000000000000000000000000000815260040161097990613105565b60405180910390fd5b5f816004015f6101000a81548160ff0219169083151502179055505f61271060065483600301546109b39190613150565b6109bd91906131be565b90505f5f6109f7846001015f9054906101000a900473ffffffffffffffffffffffffffffffffffffffff168560020154866003015461296f565b915091505f81848660030154610a0d91906131ee565b610a1791906131ee565b9050846001015f9054906101000a900473ffffffffffffffffffffffffffffffffffffffff1673ffffffffffffffffffffffffffffffffffffffff166342842e0e865f015f9054906101000a900473ffffffffffffffffffffffffffffffffffffffff163388600201546040518463ffffffff1660e01b8152600401610a9f93929190613221565b5f604051808303815f87803b158015610ab6575f5ffd5b505af1158015610ac8573d5f5f3e3d5ffd5b505050505f82118015610b0757505f73ffffffffffffffffffffffffffffffffffffffff168373ffffffffffffffffffffffffffffffffffffffff1614155b15610bb6575f8373ffffffffffffffffffffffffffffffffffffffff1683604051610b3190612e9f565b5f6040518083038185875af1925050503d805f8114610b6b576040519150601f19603f3d011682016040523d82523d5f602084013e610b70565b606091505b5050905080610bb4576040517f08c379a0000000000000000000000000000000000000000000000000000000008152600401610bab906132a0565b60405180910390fd5b505b5f855f015f9054906101000a900473ffffffffffffffffffffffffffffffffffffffff1673ffffffffffffffffffffffffffffffffffffffff1682604051610bfd90612e9f565b5f6040518083038185875af1925050503d805f8114610c37576040519150601f19603f3d011682016040523d82523d5f602084013e610c3c565b606091505b5050905080610c80576040517f08c379a0000000000000000000000000000000000000000000000000000000008152600401610c7790613308565b60405180910390fd5b5f60075f9054906101000a900473ffffffffffffffffffffffffffffffffffffffff1673ffffffffffffffffffffffffffffffffffffffff1686604051610cc690612e9f565b5f6040518083038185875af1925050503d805f8114610d00576040519150601f19603f3d011682016040523d82523d5f602084013e610d05565b606091505b5050905080610d49576040517f08c379a0000000000000000000000000000000000000000000000000000000008152600401610d4090613370565b60405180910390fd5b8660030154341115610e0e575f3373ffffffffffffffffffffffffffffffffffffffff16886003015434610d7d91906131ee565b604051610d8990612e9f565b5f6040518083038185875af1925050503d805f8114610dc3576040519150601f19603f3d011682016040523d82523d5f602084013e610dc8565b606091505b5050905080610e0c576040517f08c379a0000000000000000000000000000000000000000000000000000000008152600401610e03906133d8565b60405180910390fd5b505b865f015f9054906101000a900473ffffffffffffffffffffffffffffffffffffffff1673ffffffffffffffffffffffffffffffffffffffff163373ffffffffffffffffffffffffffffffffffffffff16897f8562eb94748e30bb0071e932744ce902b460c683474fcb3bfd567ffa16b1afb28a60030154604051610e929190612bc7565b60405180910390a450505050505050610ea9612aa3565b50565b6003602052805f5260405f205f91509050805f015f9054906101000a900473ffffffffffffffffffffffffffffffffffffffff1690806001015f9054906101000a900473ffffffffffffffffffffffffffffffffffffffff1690806002015490806003015490806004015490806005015f9054906101000a900473ffffffffffffffffffffffffffffffffffffffff1690806006015490806007015f9054906101000a900460ff16905088565b5f5f8311610f9c576040517f08c379a0000000000000000000000000000000000000000000000000000000008152600401610f9390613466565b60405180910390fd5b6001821015610fe0576040517f08c379a0000000000000000000000000000000000000000000000000000000008152600401610fd7906134ce565b60405180910390fd5b5f73ffffffffffffffffffffffffffffffffffffffff168573ffffffffffffffffffffffffffffffffffffffff160361104e576040517f08c379a000000000000000000000000000000000000000000000000000000000815260040161104590613536565b60405180910390fd5b5f8590503373ffffffffffffffffffffffffffffffffffffffff168173ffffffffffffffffffffffffffffffffffffffff16636352211e876040518263ffffffff1660e01b81526004016110a29190612bc7565b602060405180830381865afa1580156110bd573d5f5f3e3d5ffd5b505050506040513d601f19601f820116820180604052508101906110e19190613568565b73ffffffffffffffffffffffffffffffffffffffff1614611137576040517f08c379a000000000000000000000000000000000000000000000000000000000815260040161112e906135dd565b60405180910390fd5b3073ffffffffffffffffffffffffffffffffffffffff168173ffffffffffffffffffffffffffffffffffffffff1663081812fc876040518263ffffffff1660e01b81526004016111879190612bc7565b602060405180830381865afa1580156111a2573d5f5f3e3d5ffd5b505050506040513d601f19601f820116820180604052508101906111c69190613568565b73ffffffffffffffffffffffffffffffffffffffff16148061125e57508073ffffffffffffffffffffffffffffffffffffffff1663e985e9c533306040518363ffffffff1660e01b815260040161121e9291906135fb565b602060405180830381865afa158015611239573d5f5f3e3d5ffd5b505050506040513d601f19601f8201168201806040525081019061125d919061364c565b5b61129d576040517f08c379a0000000000000000000000000000000000000000000000000000000008152600401611294906136c1565b60405180910390fd5b60045f8154809291906112af906136df565b91905055506040518061010001604052803373ffffffffffffffffffffffffffffffffffffffff1681526020018773ffffffffffffffffffffffffffffffffffffffff1681526020018681526020018581526020015f81526020015f73ffffffffffffffffffffffffffffffffffffffff168152602001610e10856113349190613150565b4261133f9190613726565b81526020016001151581525060035f60045481526020019081526020015f205f820151815f015f6101000a81548173ffffffffffffffffffffffffffffffffffffffff021916908373ffffffffffffffffffffffffffffffffffffffff1602179055506020820151816001015f6101000a81548173ffffffffffffffffffffffffffffffffffffffff021916908373ffffffffffffffffffffffffffffffffffffffff16021790555060408201518160020155606082015181600301556080820151816004015560a0820151816005015f6101000a81548173ffffffffffffffffffffffffffffffffffffffff021916908373ffffffffffffffffffffffffffffffffffffffff16021790555060c0820151816006015560e0820151816007015f6101000a81548160ff0219169083151502179055509050508573ffffffffffffffffffffffffffffffffffffffff163373ffffffffffffffffffffffffffffffffffffffff166004547f06b9e486c68303eb64052e0493f906f3d93a1b7149b6b8dcff221aebd16c3513888860035f60045481526020019081526020015f20600601546040516114f293929190613759565b60405180910390a4600454915050949350505050565b60025481565b5f5f5f5f5f5f5f5f5f60035f8b81526020019081526020015f20604051806101000160405290815f82015f9054906101000a900473ffffffffffffffffffffffffffffffffffffffff1673ffffffffffffffffffffffffffffffffffffffff1673ffffffffffffffffffffffffffffffffffffffff168152602001600182015f9054906101000a900473ffffffffffffffffffffffffffffffffffffffff1673ffffffffffffffffffffffffffffffffffffffff1673ffffffffffffffffffffffffffffffffffffffff168152602001600282015481526020016003820154815260200160048201548152602001600582015f9054906101000a900473ffffffffffffffffffffffffffffffffffffffff1673ffffffffffffffffffffffffffffffffffffffff1673ffffffffffffffffffffffffffffffffffffffff16815260200160068201548152602001600782015f9054906101000a900460ff1615151515815250509050805f015181602001518260400151836060015184608001518560a001518660c001518760e001519850985098509850985098509850985050919395975091939597565b5f81116116fb576040517f08c379a00000000000000000000000000000000000000000000000000000000081526004016116f2906137d8565b60405180910390fd5b5f60015f8481526020019081526020015f209050806004015f9054906101000a900460ff1661175f576040517f08c379a000000000000000000000000000000000000000000000000000000000815260040161175690613035565b60405180910390fd5b3373ffffffffffffffffffffffffffffffffffffffff16815f015f9054906101000a900473ffffffffffffffffffffffffffffffffffffffff1673ffffffffffffffffffffffffffffffffffffffff16146117ef576040517f08c379a00000000000000000000000000000000000000000000000000000000081526004016117e690613840565b60405180910390fd5b818160030181905550827f945c1c4e99aa89f648fbfe3df471b916f719e16d960fcec0737d4d56bd696838836040516118289190612bc7565b60405180910390a2505050565b6005602052815f5260405f20602052805f5260405f205f91509150505481565b5f60035f8381526020019081526020015f209050806007015f9054906101000a900460ff166118b9576040517f08c379a00000000000000000000000000000000000000000000000000000000081526004016118b0906138a8565b60405180910390fd5b806006015442106118ff576040517f08c379a00000000000000000000000000000000000000000000000000000000081526004016118f690613910565b60405180910390fd5b805f015f9054906101000a900473ffffffffffffffffffffffffffffffffffffffff1673ffffffffffffffffffffffffffffffffffffffff163373ffffffffffffffffffffffffffffffffffffffff160361198f576040517f08c379a000000000000000000000000000000000000000000000000000000000815260040161198690613978565b60405180910390fd5b5f5f8260040154036119a757816003015490506119d6565b6064600583600401546119ba9190613150565b6119c491906131be565b82600401546119d39190613726565b90505b80341015611a19576040517f08c379a0000000000000000000000000000000000000000000000000000000008152600401611a10906139e0565b60405180910390fd5b5f73ffffffffffffffffffffffffffffffffffffffff16826005015f9054906101000a900473ffffffffffffffffffffffffffffffffffffffff1673ffffffffffffffffffffffffffffffffffffffff1614611af957816004015460055f8581526020019081526020015f205f846005015f9054906101000a900473ffffffffffffffffffffffffffffffffffffffff1673ffffffffffffffffffffffffffffffffffffffff1673ffffffffffffffffffffffffffffffffffffffff1681526020019081526020015f205f828254611af19190613726565b925050819055505b34826004018190555033826005015f6101000a81548173ffffffffffffffffffffffffffffffffffffffff021916908373ffffffffffffffffffffffffffffffffffffffff1602179055503373ffffffffffffffffffffffffffffffffffffffff16837f0e54eff26401bf69b81b26f60bd85ef47f5d85275c1d268d84f68d6897431c4734604051611b8b9190612bc7565b60405180910390a3505050565b60045481565b5f5f8211611be1576040517f08c379a0000000000000000000000000000000000000000000000000000000008152600401611bd8906137d8565b60405180910390fd5b5f73ffffffffffffffffffffffffffffffffffffffff168473ffffffffffffffffffffffffffffffffffffffff1603611c4f576040517f08c379a0000000000000000000000000000000000000000000000000000000008152600401611c4690613536565b60405180910390fd5b5f8490503373ffffffffffffffffffffffffffffffffffffffff168173ffffffffffffffffffffffffffffffffffffffff16636352211e866040518263ffffffff1660e01b8152600401611ca39190612bc7565b602060405180830381865afa158015611cbe573d5f5f3e3d5ffd5b505050506040513d601f19601f82011682018060405250810190611ce29190613568565b73ffffffffffffffffffffffffffffffffffffffff1614611d38576040517f08c379a0000000000000000000000000000000000000000000000000000000008152600401611d2f90613a48565b60405180910390fd5b3073ffffffffffffffffffffffffffffffffffffffff168173ffffffffffffffffffffffffffffffffffffffff1663081812fc866040518263ffffffff1660e01b8152600401611d889190612bc7565b602060405180830381865afa158015611da3573d5f5f3e3d5ffd5b505050506040513d601f19601f82011682018060405250810190611dc79190613568565b73ffffffffffffffffffffffffffffffffffffffff161480611e5f57508073ffffffffffffffffffffffffffffffffffffffff1663e985e9c533306040518363ffffffff1660e01b8152600401611e1f9291906135fb565b602060405180830381865afa158015611e3a573d5f5f3e3d5ffd5b505050506040513d601f19601f82011682018060405250810190611e5e919061364c565b5b611e9e576040517f08c379a0000000000000000000000000000000000000000000000000000000008152600401611e95906136c1565b60405180910390fd5b60025f815480929190611eb0906136df565b91905055506040518060a001604052803373ffffffffffffffffffffffffffffffffffffffff1681526020018673ffffffffffffffffffffffffffffffffffffffff1681526020018581526020018481526020016001151581525060015f60025481526020019081526020015f205f820151815f015f6101000a81548173ffffffffffffffffffffffffffffffffffffffff021916908373ffffffffffffffffffffffffffffffffffffffff1602179055506020820151816001015f6101000a81548173ffffffffffffffffffffffffffffffffffffffff021916908373ffffffffffffffffffffffffffffffffffffffff16021790555060408201518160020155606082015181600301556080820151816004015f6101000a81548160ff0219169083151502179055509050508473ffffffffffffffffffffffffffffffffffffffff163373ffffffffffffffffffffffffffffffffffffffff166002547fb0fe4922ac99799c17a4130d5c045ba2ecdf6e15b75b9ea84aaf0dc28724a42b8787604051612040929190613a66565b60405180910390a46002549150509392505050565b61205d612922565b5f60035f8381526020019081526020015f209050806007015f9054906101000a900460ff166120c1576040517f08c379a00000000000000000000000000000000000000000000000000000000081526004016120b8906138a8565b60405180910390fd5b8060060154421015612108576040517f08c379a00000000000000000000000000000000000000000000000000000000081526004016120ff90613ad7565b60405180910390fd5b5f816007015f6101000a81548160ff0219169083151502179055505f73ffffffffffffffffffffffffffffffffffffffff16816005015f9054906101000a900473ffffffffffffffffffffffffffffffffffffffff1673ffffffffffffffffffffffffffffffffffffffff16146125ca575f612710600654836004015461218f9190613150565b61219991906131be565b90505f5f6121d3846001015f9054906101000a900473ffffffffffffffffffffffffffffffffffffffff168560020154866004015461296f565b915091505f818486600401546121e991906131ee565b6121f391906131ee565b9050846001015f9054906101000a900473ffffffffffffffffffffffffffffffffffffffff1673ffffffffffffffffffffffffffffffffffffffff166342842e0e865f015f9054906101000a900473ffffffffffffffffffffffffffffffffffffffff16876005015f9054906101000a900473ffffffffffffffffffffffffffffffffffffffff1688600201546040518463ffffffff1660e01b815260040161229e93929190613221565b5f604051808303815f87803b1580156122b5575f5ffd5b505af11580156122c7573d5f5f3e3d5ffd5b505050505f8211801561230657505f73ffffffffffffffffffffffffffffffffffffffff168373ffffffffffffffffffffffffffffffffffffffff1614155b156123b5575f8373ffffffffffffffffffffffffffffffffffffffff168360405161233090612e9f565b5f6040518083038185875af1925050503d805f811461236a576040519150601f19603f3d011682016040523d82523d5f602084013e61236f565b606091505b50509050806123b3576040517f08c379a00000000000000000000000000000000000000000000000000000000081526004016123aa906132a0565b60405180910390fd5b505b5f855f015f9054906101000a900473ffffffffffffffffffffffffffffffffffffffff1673ffffffffffffffffffffffffffffffffffffffff16826040516123fc90612e9f565b5f6040518083038185875af1925050503d805f8114612436576040519150601f19603f3d011682016040523d82523d5f602084013e61243b565b606091505b505090508061247f576040517f08c379a000000000000000000000000000000000000000000000000000000000815260040161247690613308565b60405180910390fd5b5f865f015f9054906101000a900473ffffffffffffffffffffffffffffffffffffffff1673ffffffffffffffffffffffffffffffffffffffff16836040516124c690612e9f565b5f6040518083038185875af1925050503d805f8114612500576040519150601f19603f3d011682016040523d82523d5f602084013e612505565b606091505b5050905080612549576040517f08c379a000000000000000000000000000000000000000000000000000000000815260040161254090613370565b60405180910390fd5b866005015f9054906101000a900473ffffffffffffffffffffffffffffffffffffffff1673ffffffffffffffffffffffffffffffffffffffff16887fd2aa34a4fdbbc6dff6a3e56f46e0f3ae2a31d7785ff3487aa5c95c642acea50189600401546040516125b79190612bc7565b60405180910390a350505050505061261a565b5f73ffffffffffffffffffffffffffffffffffffffff16827fd2aa34a4fdbbc6dff6a3e56f46e0f3ae2a31d7785ff3487aa5c95c642acea5015f6040516126119190613b37565b60405180910390a35b50612623612aa3565b50565b5f60015f8381526020019081526020015f209050806004015f9054906101000a900460ff1661268a576040517f08c379a000000000000000000000000000000000000000000000000000000000815260040161268190613035565b60405180910390fd5b3373ffffffffffffffffffffffffffffffffffffffff16815f015f9054906101000a900473ffffffffffffffffffffffffffffffffffffffff1673ffffffffffffffffffffffffffffffffffffffff161461271a576040517f08c379a000000000000000000000000000000000000000000000000000000000815260040161271190613840565b60405180910390fd5b5f816004015f6101000a81548160ff021916908315150217905550817fc0c55a6edead4433d18cb1e287a0a20a2fa003a6f483bc9823d2e504d70d1c6760405160405180910390a25050565b6001602052805f5260405f205f91509050805f015f9054906101000a900473ffffffffffffffffffffffffffffffffffffffff1690806001015f9054906101000a900473ffffffffffffffffffffffffffffffffffffffff1690806002015490806003015490806004015f9054906101000a900460ff16905085565b60075f9054906101000a900473ffffffffffffffffffffffffffffffffffffffff1673ffffffffffffffffffffffffffffffffffffffff163373ffffffffffffffffffffffffffffffffffffffff1614612871576040517f08c379a000000000000000000000000000000000000000000000000000000000815260040161286890612f65565b60405180910390fd5b5f73ffffffffffffffffffffffffffffffffffffffff168173ffffffffffffffffffffffffffffffffffffffff16036128df576040517f08c379a00000000000000000000000000000000000000000000000000000000081526004016128d690613b9a565b60405180910390fd5b8060075f6101000a81548173ffffffffffffffffffffffffffffffffffffffff021916908373ffffffffffffffffffffffffffffffffffffffff16021790555050565b60025f5403612966576040517f08c379a000000000000000000000000000000000000000000000000000000000815260040161295d90613c02565b60405180910390fd5b60025f81905550565b5f5f8473ffffffffffffffffffffffffffffffffffffffff166301ffc9a77f2a55205a000000000000000000000000000000000000000000000000000000006040518263ffffffff1660e01b81526004016129ca9190613c5a565b602060405180830381865afa1580156129e5573d5f5f3e3d5ffd5b505050506040513d601f19601f82011682018060405250810190612a09919061364c565b15612a94578473ffffffffffffffffffffffffffffffffffffffff16632a55205a85856040518363ffffffff1660e01b8152600401612a49929190613a66565b6040805180830381865afa158015612a63573d5f5f3e3d5ffd5b505050506040513d601f19601f82011682018060405250810190612a879190613c87565b8092508193505050612a9b565b5f91505f90505b935093915050565b60015f81905550565b5f5ffd5b5f819050919050565b612ac281612ab0565b8114612acc575f5ffd5b50565b5f81359050612add81612ab9565b92915050565b5f60208284031215612af857612af7612aac565b5b5f612b0584828501612acf565b91505092915050565b5f73ffffffffffffffffffffffffffffffffffffffff82169050919050565b5f612b3782612b0e565b9050919050565b612b4781612b2d565b82525050565b612b5681612ab0565b82525050565b5f8115159050919050565b612b7081612b5c565b82525050565b5f60a082019050612b895f830188612b3e565b612b966020830187612b3e565b612ba36040830186612b4d565b612bb06060830185612b4d565b612bbd6080830184612b67565b9695505050505050565b5f602082019050612bda5f830184612b4d565b92915050565b5f602082019050612bf35f830184612b3e565b92915050565b5f61010082019050612c0d5f83018b612b3e565b612c1a602083018a612b3e565b612c276040830189612b4d565b612c346060830188612b4d565b612c416080830187612b4d565b612c4e60a0830186612b3e565b612c5b60c0830185612b4d565b612c6860e0830184612b67565b9998505050505050505050565b612c7e81612b2d565b8114612c88575f5ffd5b50565b5f81359050612c9981612c75565b92915050565b5f5f5f5f60808587031215612cb757612cb6612aac565b5b5f612cc487828801612c8b565b9450506020612cd587828801612acf565b9350506040612ce687828801612acf565b9250506060612cf787828801612acf565b91505092959194509250565b5f5f60408385031215612d1957612d18612aac565b5b5f612d2685828601612acf565b9250506020612d3785828601612acf565b9150509250929050565b5f5f60408385031215612d5757612d56612aac565b5b5f612d6485828601612acf565b9250506020612d7585828601612c8b565b9150509250929050565b5f5f5f60608486031215612d9657612d95612aac565b5b5f612da386828701612c8b565b9350506020612db486828701612acf565b9250506040612dc586828701612acf565b9150509250925092565b5f60208284031215612de457612de3612aac565b5b5f612df184828501612c8b565b91505092915050565b5f82825260208201905092915050565b7f4e6f2070656e64696e672072657475726e0000000000000000000000000000005f82015250565b5f612e3e601183612dfa565b9150612e4982612e0a565b602082019050919050565b5f6020820190508181035f830152612e6b81612e32565b9050919050565b5f81905092915050565b50565b5f612e8a5f83612e72565b9150612e9582612e7c565b5f82019050919050565b5f612ea982612e7f565b9150819050919050565b7f5472616e73666572206661696c656400000000000000000000000000000000005f82015250565b5f612ee7600f83612dfa565b9150612ef282612eb3565b602082019050919050565b5f6020820190508181035f830152612f1481612edb565b9050919050565b7f4e6f742066656520726563697069656e740000000000000000000000000000005f82015250565b5f612f4f601183612dfa565b9150612f5a82612f1b565b602082019050919050565b5f6020820190508181035f830152612f7c81612f43565b9050919050565b7f46656520746f6f206869676800000000000000000000000000000000000000005f82015250565b5f612fb7600c83612dfa565b9150612fc282612f83565b602082019050919050565b5f6020820190508181035f830152612fe481612fab565b9050919050565b7f4c697374696e67206e6f742061637469766500000000000000000000000000005f82015250565b5f61301f601283612dfa565b915061302a82612feb565b602082019050919050565b5f6020820190508181035f83015261304c81613013565b9050919050565b7f496e73756666696369656e74207061796d656e740000000000000000000000005f82015250565b5f613087601483612dfa565b915061309282613053565b602082019050919050565b5f6020820190508181035f8301526130b48161307b565b9050919050565b7f43616e6e6f742062757920796f7572206f776e204e46540000000000000000005f82015250565b5f6130ef601783612dfa565b91506130fa826130bb565b602082019050919050565b5f6020820190508181035f83015261311c816130e3565b9050919050565b7f4e487b71000000000000000000000000000000000000000000000000000000005f52601160045260245ffd5b5f61315a82612ab0565b915061316583612ab0565b925082820261317381612ab0565b9150828204841483151761318a57613189613123565b5b5092915050565b7f4e487b71000000000000000000000000000000000000000000000000000000005f52601260045260245ffd5b5f6131c882612ab0565b91506131d383612ab0565b9250826131e3576131e2613191565b5b828204905092915050565b5f6131f882612ab0565b915061320383612ab0565b925082820390508181111561321b5761321a613123565b5b92915050565b5f6060820190506132345f830186612b3e565b6132416020830185612b3e565b61324e6040830184612b4d565b949350505050565b7f526f79616c7479207472616e73666572206661696c65640000000000000000005f82015250565b5f61328a601783612dfa565b915061329582613256565b602082019050919050565b5f6020820190508181035f8301526132b78161327e565b9050919050565b7f5472616e7366657220746f2073656c6c6572206661696c6564000000000000005f82015250565b5f6132f2601983612dfa565b91506132fd826132be565b602082019050919050565b5f6020820190508181035f83015261331f816132e6565b9050919050565b7f5472616e7366657220666565206661696c6564000000000000000000000000005f82015250565b5f61335a601383612dfa565b915061336582613326565b602082019050919050565b5f6020820190508181035f8301526133878161334e565b9050919050565b7f526566756e64206661696c6564000000000000000000000000000000000000005f82015250565b5f6133c2600d83612dfa565b91506133cd8261338e565b602082019050919050565b5f6020820190508181035f8301526133ef816133b6565b9050919050565b7f5374617274207072696365206d7573742062652067726561746572207468616e5f8201527f2030000000000000000000000000000000000000000000000000000000000000602082015250565b5f613450602283612dfa565b915061345b826133f6565b604082019050919050565b5f6020820190508181035f83015261347d81613444565b9050919050565b7f4475726174696f6e206d757374206265206174206c65617374203120686f75725f82015250565b5f6134b8602083612dfa565b91506134c382613484565b602082019050919050565b5f6020820190508181035f8301526134e5816134ac565b9050919050565b7f496e76616c6964204e465420636f6e74726163740000000000000000000000005f82015250565b5f613520601483612dfa565b915061352b826134ec565b602082019050919050565b5f6020820190508181035f83015261354d81613514565b9050919050565b5f8151905061356281612c75565b92915050565b5f6020828403121561357d5761357c612aac565b5b5f61358a84828501613554565b91505092915050565b7f4e6f7420746865206f776e6572000000000000000000000000000000000000005f82015250565b5f6135c7600d83612dfa565b91506135d282613593565b602082019050919050565b5f6020820190508181035f8301526135f4816135bb565b9050919050565b5f60408201905061360e5f830185612b3e565b61361b6020830184612b3e565b9392505050565b61362b81612b5c565b8114613635575f5ffd5b50565b5f8151905061364681613622565b92915050565b5f6020828403121561366157613660612aac565b5b5f61366e84828501613638565b91505092915050565b7f4d61726b6574706c616365206e6f7420617070726f76656400000000000000005f82015250565b5f6136ab601883612dfa565b91506136b682613677565b602082019050919050565b5f6020820190508181035f8301526136d88161369f565b9050919050565b5f6136e982612ab0565b91507fffffffffffffffffffffffffffffffffffffffffffffffffffffffffffffffff820361371b5761371a613123565b5b600182019050919050565b5f61373082612ab0565b915061373b83612ab0565b925082820190508082111561375357613752613123565b5b92915050565b5f60608201905061376c5f830186612b4d565b6137796020830185612b4d565b6137866040830184612b4d565b949350505050565b7f5072696365206d7573742062652067726561746572207468616e2030000000005f82015250565b5f6137c2601c83612dfa565b91506137cd8261378e565b602082019050919050565b5f6020820190508181035f8301526137ef816137b6565b9050919050565b7f4e6f74207468652073656c6c65720000000000000000000000000000000000005f82015250565b5f61382a600e83612dfa565b9150613835826137f6565b602082019050919050565b5f6020820190508181035f8301526138578161381e565b9050919050565b7f41756374696f6e206e6f742061637469766500000000000000000000000000005f82015250565b5f613892601283612dfa565b915061389d8261385e565b602082019050919050565b5f6020820190508181035f8301526138bf81613886565b9050919050565b7f41756374696f6e20656e646564000000000000000000000000000000000000005f82015250565b5f6138fa600d83612dfa565b9150613905826138c6565b602082019050919050565b5f6020820190508181035f830152613927816138ee565b9050919050565b7f53656c6c65722063616e6e6f74206269640000000000000000000000000000005f82015250565b5f613962601183612dfa565b915061396d8261392e565b602082019050919050565b5f6020820190508181035f83015261398f81613956565b9050919050565b7f42696420746f6f206c6f770000000000000000000000000000000000000000005f82015250565b5f6139ca600b83612dfa565b91506139d582613996565b602082019050919050565b5f6020820190508181035f8301526139f7816139be565b9050919050565b7f4e6f74207468656e206f776e65720000000000000000000000000000000000005f82015250565b5f613a32600e83612dfa565b9150613a3d826139fe565b602082019050919050565b5f6020820190508181035f830152613a5f81613a26565b9050919050565b5f604082019050613a795f830185612b4d565b613a866020830184612b4d565b9392505050565b7f41756374696f6e206e6f7420656e6400000000000000000000000000000000005f82015250565b5f613ac1600f83612dfa565b9150613acc82613a8d565b602082019050919050565b5f6020820190508181035f830152613aee81613ab5565b9050919050565b5f819050919050565b5f819050919050565b5f613b21613b1c613b1784613af5565b613afe565b612ab0565b9050919050565b613b3181613b07565b82525050565b5f602082019050613b4a5f830184613b28565b92915050565b7f496e76616c6964206164647265737300000000000000000000000000000000005f82015250565b5f613b84600f83612dfa565b9150613b8f82613b50565b602082019050919050565b5f6020820190508181035f830152613bb181613b78565b9050919050565b7f5265656e7472616e637947756172643a207265656e7472616e742063616c6c005f82015250565b5f613bec601f83612dfa565b9150613bf782613bb8565b602082019050919050565b5f6020820190508181035f830152613c1981613be0565b9050919050565b5f7fffffffff0000000000000000000000000000000000000000000000000000000082169050919050565b613c5481613c20565b82525050565b5f602082019050613c6d5f830184613c4b565b92915050565b5f81519050613c8181612ab9565b92915050565b5f5f60408385031215613c9d57613c9c612aac565b5b5f613caa85828601613554565b9250506020613cbb85828601613c73565b915050925092905056fea26469706673582212203468d9bbd1ed2fc91ef26b67c90fe7e942b3343ea8357db4c22941197710aecd64736f6c634300081e0033",
					"opcodes": "PUSH1 0x80 PUSH1 0x40 MSTORE PUSH1 0xFA PUSH1 0x6 SSTORE CALLVALUE DUP1 ISZERO PUSH2 0x14 JUMPI PUSH0 PUSH0 REVERT JUMPDEST POP PUSH1 0x40 MLOAD PUSH2 0x3EFA CODESIZE SUB DUP1 PUSH2 0x3EFA DUP4 CODECOPY DUP2 DUP2 ADD PUSH1 0x40 MSTORE DUP2 ADD SWAP1 PUSH2 0x36 SWAP2 SWAP1 PUSH2 0x14F JUMP JUMPDEST PUSH1 0x1 PUSH0 DUP2 SWAP1 SSTORE POP PUSH0 PUSH20 0xFFFFFFFFFFFFFFFFFFFFFFFFFFFFFFFFFFFFFFFF AND DUP2 PUSH20 0xFFFFFFFFFFFFFFFFFFFFFFFFFFFFFFFFFFFFFFFF AND SUB PUSH2 0xAB JUMPI PUSH1 0x40 MLOAD PUSH32 0x8C379A000000000000000000000000000000000000000000000000000000000 DUP2 MSTORE PUSH1 0x4 ADD PUSH2 0xA2 SWAP1 PUSH2 0x1D4 JUMP JUMPDEST PUSH1 0x40 MLOAD DUP1 SWAP2 SUB SWAP1 REVERT JUMPDEST DUP1 PUSH1 0x7 PUSH0 PUSH2 0x100 EXP DUP2 SLOAD DUP2 PUSH20 0xFFFFFFFFFFFFFFFFFFFFFFFFFFFFFFFFFFFFFFFF MUL NOT AND SWAP1 DUP4 PUSH20 0xFFFFFFFFFFFFFFFFFFFFFFFFFFFFFFFFFFFFFFFF AND MUL OR SWAP1 SSTORE POP POP PUSH2 0x1F2 JUMP JUMPDEST PUSH0 PUSH0 REVERT JUMPDEST PUSH0 PUSH20 0xFFFFFFFFFFFFFFFFFFFFFFFFFFFFFFFFFFFFFFFF DUP3 AND SWAP1 POP SWAP2 SWAP1 POP JUMP JUMPDEST PUSH0 PUSH2 0x11E DUP3 PUSH2 0xF5 JUMP JUMPDEST SWAP1 POP SWAP2 SWAP1 POP JUMP JUMPDEST PUSH2 0x12E DUP2 PUSH2 0x114 JUMP JUMPDEST DUP2 EQ PUSH2 0x138 JUMPI PUSH0 PUSH0 REVERT JUMPDEST POP JUMP JUMPDEST PUSH0 DUP2 MLOAD SWAP1 POP PUSH2 0x149 DUP2 PUSH2 0x125 JUMP JUMPDEST SWAP3 SWAP2 POP POP JUMP JUMPDEST PUSH0 PUSH1 0x20 DUP3 DUP5 SUB SLT ISZERO PUSH2 0x164 JUMPI PUSH2 0x163 PUSH2 0xF1 JUMP JUMPDEST JUMPDEST PUSH0 PUSH2 0x171 DUP5 DUP3 DUP6 ADD PUSH2 0x13B JUMP JUMPDEST SWAP2 POP POP SWAP3 SWAP2 POP POP JUMP JUMPDEST PUSH0 DUP3 DUP3 MSTORE PUSH1 0x20 DUP3 ADD SWAP1 POP SWAP3 SWAP2 POP POP JUMP JUMPDEST PUSH32 0x496E76616C69642066656520726563697069656E740000000000000000000000 PUSH0 DUP3 ADD MSTORE POP JUMP JUMPDEST PUSH0 PUSH2 0x1BE PUSH1 0x15 DUP4 PUSH2 0x17A JUMP JUMPDEST SWAP2 POP PUSH2 0x1C9 DUP3 PUSH2 0x18A JUMP JUMPDEST PUSH1 0x20 DUP3 ADD SWAP1 POP SWAP2 SWAP1 POP JUMP JUMPDEST PUSH0 PUSH1 0x20 DUP3 ADD SWAP1 POP DUP2 DUP2 SUB PUSH0 DUP4 ADD MSTORE PUSH2 0x1EB DUP2 PUSH2 0x1B2 JUMP JUMPDEST SWAP1 POP SWAP2 SWAP1 POP JUMP JUMPDEST PUSH2 0x3CFB DUP1 PUSH2 0x1FF PUSH0 CODECOPY PUSH0 RETURN INVALID PUSH1 0x80 PUSH1 0x40 MSTORE PUSH1 0x4 CALLDATASIZE LT PUSH2 0x113 JUMPI PUSH0 CALLDATALOAD PUSH1 0xE0 SHR DUP1 PUSH4 0x78BD7935 GT PUSH2 0x9F JUMPI DUP1 PUSH4 0xAD05F1B4 GT PUSH2 0x63 JUMPI DUP1 PUSH4 0xAD05F1B4 EQ PUSH2 0x3AD JUMPI DUP1 PUSH4 0xB9A2DE3A EQ PUSH2 0x3E9 JUMPI DUP1 PUSH4 0xCB917B9C EQ PUSH2 0x411 JUMPI DUP1 PUSH4 0xDE74E57B EQ PUSH2 0x439 JUMPI DUP1 PUSH4 0xF160D369 EQ PUSH2 0x479 JUMPI PUSH2 0x113 JUMP JUMPDEST DUP1 PUSH4 0x78BD7935 EQ PUSH2 0x2C0 JUMPI DUP1 PUSH4 0x82367B2D EQ PUSH2 0x303 JUMPI DUP1 PUSH4 0x8DDAC1EF EQ PUSH2 0x32B JUMPI DUP1 PUSH4 0x9979EF45 EQ PUSH2 0x367 JUMPI DUP1 PUSH4 0xA7E76644 EQ PUSH2 0x383 JUMPI PUSH2 0x113 JUMP JUMPDEST DUP1 PUSH4 0x46904840 GT PUSH2 0xE6 JUMPI DUP1 PUSH4 0x46904840 EQ PUSH2 0x1D1 JUMPI DUP1 PUSH4 0x51ED8288 EQ PUSH2 0x1FB JUMPI DUP1 PUSH4 0x571A26A0 EQ PUSH2 0x217 JUMPI DUP1 PUSH4 0x61BEB1D7 EQ PUSH2 0x25A JUMPI DUP1 PUSH4 0x6C2C9C7D EQ PUSH2 0x296 JUMPI PUSH2 0x113 JUMP JUMPDEST DUP1 PUSH4 0xEAAF4C8 EQ PUSH2 0x117 JUMPI DUP1 PUSH4 0x107A274A EQ PUSH2 0x13F JUMPI DUP1 PUSH4 0x12E8E2C3 EQ PUSH2 0x17F JUMPI DUP1 PUSH4 0x26232A2E EQ PUSH2 0x1A7 JUMPI JUMPDEST PUSH0 PUSH0 REVERT JUMPDEST CALLVALUE DUP1 ISZERO PUSH2 0x122 JUMPI PUSH0 PUSH0 REVERT JUMPDEST POP PUSH2 0x13D PUSH1 0x4 DUP1 CALLDATASIZE SUB DUP2 ADD SWAP1 PUSH2 0x138 SWAP2 SWAP1 PUSH2 0x2AE3 JUMP JUMPDEST PUSH2 0x4A1 JUMP JUMPDEST STOP JUMPDEST CALLVALUE DUP1 ISZERO PUSH2 0x14A JUMPI PUSH0 PUSH0 REVERT JUMPDEST POP PUSH2 0x165 PUSH1 0x4 DUP1 CALLDATASIZE SUB DUP2 ADD SWAP1 PUSH2 0x160 SWAP2 SWAP1 PUSH2 0x2AE3 JUMP JUMPDEST PUSH2 0x631 JUMP JUMPDEST PUSH1 0x40 MLOAD PUSH2 0x176 SWAP6 SWAP5 SWAP4 SWAP3 SWAP2 SWAP1 PUSH2 0x2B76 JUMP JUMPDEST PUSH1 0x40 MLOAD DUP1 SWAP2 SUB SWAP1 RETURN JUMPDEST CALLVALUE DUP1 ISZERO PUSH2 0x18A JUMPI PUSH0 PUSH0 REVERT JUMPDEST POP PUSH2 0x1A5 PUSH1 0x4 DUP1 CALLDATASIZE SUB DUP2 ADD SWAP1 PUSH2 0x1A0 SWAP2 SWAP1 PUSH2 0x2AE3 JUMP JUMPDEST PUSH2 0x758 JUMP JUMPDEST STOP JUMPDEST CALLVALUE DUP1 ISZERO PUSH2 0x1B2 JUMPI PUSH0 PUSH0 REVERT JUMPDEST POP PUSH2 0x1BB PUSH2 0x836 JUMP JUMPDEST PUSH1 0x40 MLOAD PUSH2 0x1C8 SWAP2 SWAP1 PUSH2 0x2BC7 JUMP JUMPDEST PUSH1 0x40 MLOAD DUP1 SWAP2 SUB SWAP1 RETURN JUMPDEST CALLVALUE DUP1 ISZERO PUSH2 0x1DC JUMPI PUSH0 PUSH0 REVERT JUMPDEST POP PUSH2 0x1E5 PUSH2 0x83C JUMP JUMPDEST PUSH1 0x40 MLOAD PUSH2 0x1F2 SWAP2 SWAP1 PUSH2 0x2BE0 JUMP JUMPDEST PUSH1 0x40 MLOAD DUP1 SWAP2 SUB SWAP1 RETURN JUMPDEST PUSH2 0x215 PUSH1 0x4 DUP1 CALLDATASIZE SUB DUP2 ADD SWAP1 PUSH2 0x210 SWAP2 SWAP1 PUSH2 0x2AE3 JUMP JUMPDEST PUSH2 0x861 JUMP JUMPDEST STOP JUMPDEST CALLVALUE DUP1 ISZERO PUSH2 0x222 JUMPI PUSH0 PUSH0 REVERT JUMPDEST POP PUSH2 0x23D PUSH1 0x4 DUP1 CALLDATASIZE SUB DUP2 ADD SWAP1 PUSH2 0x238 SWAP2 SWAP1 PUSH2 0x2AE3 JUMP JUMPDEST PUSH2 0xEAC JUMP JUMPDEST PUSH1 0x40 MLOAD PUSH2 0x251 SWAP9 SWAP8 SWAP7 SWAP6 SWAP5 SWAP4 SWAP3 SWAP2 SWAP1 PUSH2 0x2BF9 JUMP JUMPDEST PUSH1 0x40 MLOAD DUP1 SWAP2 SUB SWAP1 RETURN JUMPDEST CALLVALUE DUP1 ISZERO PUSH2 0x265 JUMPI PUSH0 PUSH0 REVERT JUMPDEST POP PUSH2 0x280 PUSH1 0x4 DUP1 CALLDATASIZE SUB DUP2 ADD SWAP1 PUSH2 0x27B SWAP2 SWAP1 PUSH2 0x2C9F JUMP JUMPDEST PUSH2 0xF59 JUMP JUMPDEST PUSH1 0x40 MLOAD PUSH2 0x28D SWAP2 SWAP1 PUSH2 0x2BC7 JUMP JUMPDEST PUSH1 0x40 MLOAD DUP1 SWAP2 SUB SWAP1 RETURN JUMPDEST CALLVALUE DUP1 ISZERO PUSH2 0x2A1 JUMPI PUSH0 PUSH0 REVERT JUMPDEST POP PUSH2 0x2AA PUSH2 0x1508 JUMP JUMPDEST PUSH1 0x40 MLOAD PUSH2 0x2B7 SWAP2 SWAP1 PUSH2 0x2BC7 JUMP JUMPDEST PUSH1 0x40 MLOAD DUP1 SWAP2 SUB SWAP1 RETURN JUMPDEST CALLVALUE DUP1 ISZERO PUSH2 0x2CB JUMPI PUSH0 PUSH0 REVERT JUMPDEST POP PUSH2 0x2E6 PUSH1 0x4 DUP1 CALLDATASIZE SUB DUP2 ADD SWAP1 PUSH2 0x2E1 SWAP2 SWAP1 PUSH2 0x2AE3 JUMP JUMPDEST PUSH2 0x150E JUMP JUMPDEST PUSH1 0x40 MLOAD PUSH2 0x2FA SWAP9 SWAP8 SWAP7 SWAP6 SWAP5 SWAP4 SWAP3 SWAP2 SWAP1 PUSH2 0x2BF9 JUMP JUMPDEST PUSH1 0x40 MLOAD DUP1 SWAP2 SUB SWAP1 RETURN JUMPDEST CALLVALUE DUP1 ISZERO PUSH2 0x30E JUMPI PUSH0 PUSH0 REVERT JUMPDEST POP PUSH2 0x329 PUSH1 0x4 DUP1 CALLDATASIZE SUB DUP2 ADD SWAP1 PUSH2 0x324 SWAP2 SWAP1 PUSH2 0x2D03 JUMP JUMPDEST PUSH2 0x16B9 JUMP JUMPDEST STOP JUMPDEST CALLVALUE DUP1 ISZERO PUSH2 0x336 JUMPI PUSH0 PUSH0 REVERT JUMPDEST POP PUSH2 0x351 PUSH1 0x4 DUP1 CALLDATASIZE SUB DUP2 ADD SWAP1 PUSH2 0x34C SWAP2 SWAP1 PUSH2 0x2D41 JUMP JUMPDEST PUSH2 0x1835 JUMP JUMPDEST PUSH1 0x40 MLOAD PUSH2 0x35E SWAP2 SWAP1 PUSH2 0x2BC7 JUMP JUMPDEST PUSH1 0x40 MLOAD DUP1 SWAP2 SUB SWAP1 RETURN JUMPDEST PUSH2 0x381 PUSH1 0x4 DUP1 CALLDATASIZE SUB DUP2 ADD SWAP1 PUSH2 0x37C SWAP2 SWAP1 PUSH2 0x2AE3 JUMP JUMPDEST PUSH2 0x1855 JUMP JUMPDEST STOP JUMPDEST CALLVALUE DUP1 ISZERO PUSH2 0x38E JUMPI PUSH0 PUSH0 REVERT JUMPDEST POP PUSH2 0x397 PUSH2 0x1B98 JUMP JUMPDEST PUSH1 0x40 MLOAD PUSH2 0x3A4 SWAP2 SWAP1 PUSH2 0x2BC7 JUMP JUMPDEST PUSH1 0x40 MLOAD DUP1 SWAP2 SUB SWAP1 RETURN JUMPDEST CALLVALUE DUP1 ISZERO PUSH2 0x3B8 JUMPI PUSH0 PUSH0 REVERT JUMPDEST POP PUSH2 0x3D3 PUSH1 0x4 DUP1 CALLDATASIZE SUB DUP2 ADD SWAP1 PUSH2 0x3CE SWAP2 SWAP1 PUSH2 0x2D7F JUMP JUMPDEST PUSH2 0x1B9E JUMP JUMPDEST PUSH1 0x40 MLOAD PUSH2 0x3E0 SWAP2 SWAP1 PUSH2 0x2BC7 JUMP JUMPDEST PUSH1 0x40 MLOAD DUP1 SWAP2 SUB SWAP1 RETURN JUMPDEST CALLVALUE DUP1 ISZERO PUSH2 0x3F4 JUMPI PUSH0 PUSH0 REVERT JUMPDEST POP PUSH2 0x40F PUSH1 0x4 DUP1 CALLDATASIZE SUB DUP2 ADD SWAP1 PUSH2 0x40A SWAP2 SWAP1 PUSH2 0x2AE3 JUMP JUMPDEST PUSH2 0x2055 JUMP JUMPDEST STOP JUMPDEST CALLVALUE DUP1 ISZERO PUSH2 0x41C JUMPI PUSH0 PUSH0 REVERT JUMPDEST POP PUSH2 0x437 PUSH1 0x4 DUP1 CALLDATASIZE SUB DUP2 ADD SWAP1 PUSH2 0x432 SWAP2 SWAP1 PUSH2 0x2AE3 JUMP JUMPDEST PUSH2 0x2626 JUMP JUMPDEST STOP JUMPDEST CALLVALUE DUP1 ISZERO PUSH2 0x444 JUMPI PUSH0 PUSH0 REVERT JUMPDEST POP PUSH2 0x45F PUSH1 0x4 DUP1 CALLDATASIZE SUB DUP2 ADD SWAP1 PUSH2 0x45A SWAP2 SWAP1 PUSH2 0x2AE3 JUMP JUMPDEST PUSH2 0x2766 JUMP JUMPDEST PUSH1 0x40 MLOAD PUSH2 0x470 SWAP6 SWAP5 SWAP4 SWAP3 SWAP2 SWAP1 PUSH2 0x2B76 JUMP JUMPDEST PUSH1 0x40 MLOAD DUP1 SWAP2 SUB SWAP1 RETURN JUMPDEST CALLVALUE DUP1 ISZERO PUSH2 0x484 JUMPI PUSH0 PUSH0 REVERT JUMPDEST POP PUSH2 0x49F PUSH1 0x4 DUP1 CALLDATASIZE SUB DUP2 ADD SWAP1 PUSH2 0x49A SWAP2 SWAP1 PUSH2 0x2DCF JUMP JUMPDEST PUSH2 0x27E2 JUMP JUMPDEST STOP JUMPDEST PUSH0 PUSH1 0x5 PUSH0 DUP4 DUP2 MSTORE PUSH1 0x20 ADD SWAP1 DUP2 MSTORE PUSH1 0x20 ADD PUSH0 KECCAK256 PUSH0 CALLER PUSH20 0xFFFFFFFFFFFFFFFFFFFFFFFFFFFFFFFFFFFFFFFF AND PUSH20 0xFFFFFFFFFFFFFFFFFFFFFFFFFFFFFFFFFFFFFFFF AND DUP2 MSTORE PUSH1 0x20 ADD SWAP1 DUP2 MSTORE PUSH1 0x20 ADD PUSH0 KECCAK256 SLOAD SWAP1 POP PUSH0 DUP2 GT PUSH2 0x533 JUMPI PUSH1 0x40 MLOAD PUSH32 0x8C379A000000000000000000000000000000000000000000000000000000000 DUP2 MSTORE PUSH1 0x4 ADD PUSH2 0x52A SWAP1 PUSH2 0x2E54 JUMP JUMPDEST PUSH1 0x40 MLOAD DUP1 SWAP2 SUB SWAP1 REVERT JUMPDEST PUSH0 PUSH1 0x5 PUSH0 DUP5 DUP2 MSTORE PUSH1 0x20 ADD SWAP1 DUP2 MSTORE PUSH1 0x20 ADD PUSH0 KECCAK256 PUSH0 CALLER PUSH20 0xFFFFFFFFFFFFFFFFFFFFFFFFFFFFFFFFFFFFFFFF AND PUSH20 0xFFFFFFFFFFFFFFFFFFFFFFFFFFFFFFFFFFFFFFFF AND DUP2 MSTORE PUSH1 0x20 ADD SWAP1 DUP2 MSTORE PUSH1 0x20 ADD PUSH0 KECCAK256 DUP2 SWAP1 SSTORE POP PUSH0 CALLER PUSH20 0xFFFFFFFFFFFFFFFFFFFFFFFFFFFFFFFFFFFFFFFF AND DUP3 PUSH1 0x40 MLOAD PUSH2 0x5A9 SWAP1 PUSH2 0x2E9F JUMP JUMPDEST PUSH0 PUSH1 0x40 MLOAD DUP1 DUP4 SUB DUP2 DUP6 DUP8 GAS CALL SWAP3 POP POP POP RETURNDATASIZE DUP1 PUSH0 DUP2 EQ PUSH2 0x5E3 JUMPI PUSH1 0x40 MLOAD SWAP2 POP PUSH1 0x1F NOT PUSH1 0x3F RETURNDATASIZE ADD AND DUP3 ADD PUSH1 0x40 MSTORE RETURNDATASIZE DUP3 MSTORE RETURNDATASIZE PUSH0 PUSH1 0x20 DUP5 ADD RETURNDATACOPY PUSH2 0x5E8 JUMP JUMPDEST PUSH1 0x60 SWAP2 POP JUMPDEST POP POP SWAP1 POP DUP1 PUSH2 0x62C JUMPI PUSH1 0x40 MLOAD PUSH32 0x8C379A000000000000000000000000000000000000000000000000000000000 DUP2 MSTORE PUSH1 0x4 ADD PUSH2 0x623 SWAP1 PUSH2 0x2EFD JUMP JUMPDEST PUSH1 0x40 MLOAD DUP1 SWAP2 SUB SWAP1 REVERT JUMPDEST POP POP POP JUMP JUMPDEST PUSH0 PUSH0 PUSH0 PUSH0 PUSH0 PUSH0 PUSH1 0x1 PUSH0 DUP9 DUP2 MSTORE PUSH1 0x20 ADD SWAP1 DUP2 MSTORE PUSH1 0x20 ADD PUSH0 KECCAK256 PUSH1 0x40 MLOAD DUP1 PUSH1 0xA0 ADD PUSH1 0x40 MSTORE SWAP1 DUP2 PUSH0 DUP3 ADD PUSH0 SWAP1 SLOAD SWAP1 PUSH2 0x100 EXP SWAP1 DIV PUSH20 0xFFFFFFFFFFFFFFFFFFFFFFFFFFFFFFFFFFFFFFFF AND PUSH20 0xFFFFFFFFFFFFFFFFFFFFFFFFFFFFFFFFFFFFFFFF AND PUSH20 0xFFFFFFFFFFFFFFFFFFFFFFFFFFFFFFFFFFFFFFFF AND DUP2 MSTORE PUSH1 0x20 ADD PUSH1 0x1 DUP3 ADD PUSH0 SWAP1 SLOAD SWAP1 PUSH2 0x100 EXP SWAP1 DIV PUSH20 0xFFFFFFFFFFFFFFFFFFFFFFFFFFFFFFFFFFFFFFFF AND PUSH20 0xFFFFFFFFFFFFFFFFFFFFFFFFFFFFFFFFFFFFFFFF AND PUSH20 0xFFFFFFFFFFFFFFFFFFFFFFFFFFFFFFFFFFFFFFFF AND DUP2 MSTORE PUSH1 0x20 ADD PUSH1 0x2 DUP3 ADD SLOAD DUP2 MSTORE PUSH1 0x20 ADD PUSH1 0x3 DUP3 ADD SLOAD DUP2 MSTORE PUSH1 0x20 ADD PUSH1 0x4 DUP3 ADD PUSH0 SWAP1 SLOAD SWAP1 PUSH2 0x100 EXP SWAP1 DIV PUSH1 0xFF AND ISZERO ISZERO ISZERO ISZERO DUP2 MSTORE POP POP SWAP1 POP DUP1 PUSH0 ADD MLOAD DUP2 PUSH1 0x20 ADD MLOAD DUP3 PUSH1 0x40 ADD MLOAD DUP4 PUSH1 0x60 ADD MLOAD DUP5 PUSH1 0x80 ADD MLOAD SWAP6 POP SWAP6 POP SWAP6 POP SWAP6 POP SWAP6 POP POP SWAP2 SWAP4 SWAP6 SWAP1 SWAP3 SWAP5 POP JUMP JUMPDEST PUSH1 0x7 PUSH0 SWAP1 SLOAD SWAP1 PUSH2 0x100 EXP SWAP1 DIV PUSH20 0xFFFFFFFFFFFFFFFFFFFFFFFFFFFFFFFFFFFFFFFF AND PUSH20 0xFFFFFFFFFFFFFFFFFFFFFFFFFFFFFFFFFFFFFFFF AND CALLER PUSH20 0xFFFFFFFFFFFFFFFFFFFFFFFFFFFFFFFFFFFFFFFF AND EQ PUSH2 0x7E7 JUMPI PUSH1 0x40 MLOAD PUSH32 0x8C379A000000000000000000000000000000000000000000000000000000000 DUP2 MSTORE PUSH1 0x4 ADD PUSH2 0x7DE SWAP1 PUSH2 0x2F65 JUMP JUMPDEST PUSH1 0x40 MLOAD DUP1 SWAP2 SUB SWAP1 REVERT JUMPDEST PUSH2 0x3E8 DUP2 GT ISZERO PUSH2 0x82C JUMPI PUSH1 0x40 MLOAD PUSH32 0x8C379A000000000000000000000000000000000000000000000000000000000 DUP2 MSTORE PUSH1 0x4 ADD PUSH2 0x823 SWAP1 PUSH2 0x2FCD JUMP JUMPDEST PUSH1 0x40 MLOAD DUP1 SWAP2 SUB SWAP1 REVERT JUMPDEST DUP1 PUSH1 0x6 DUP2 SWAP1 SSTORE POP POP JUMP JUMPDEST PUSH1 0x6 SLOAD DUP2 JUMP JUMPDEST PUSH1 0x7 PUSH0 SWAP1 SLOAD SWAP1 PUSH2 0x100 EXP SWAP1 DIV PUSH20 0xFFFFFFFFFFFFFFFFFFFFFFFFFFFFFFFFFFFFFFFF AND DUP2 JUMP JUMPDEST PUSH2 0x869 PUSH2 0x2922 JUMP JUMPDEST PUSH0 PUSH1 0x1 PUSH0 DUP4 DUP2 MSTORE PUSH1 0x20 ADD SWAP1 DUP2 MSTORE PUSH1 0x20 ADD PUSH0 KECCAK256 SWAP1 POP DUP1 PUSH1 0x4 ADD PUSH0 SWAP1 SLOAD SWAP1 PUSH2 0x100 EXP SWAP1 DIV PUSH1 0xFF AND PUSH2 0x8CD JUMPI PUSH1 0x40 MLOAD PUSH32 0x8C379A000000000000000000000000000000000000000000000000000000000 DUP2 MSTORE PUSH1 0x4 ADD PUSH2 0x8C4 SWAP1 PUSH2 0x3035 JUMP JUMPDEST PUSH1 0x40 MLOAD DUP1 SWAP2 SUB SWAP1 REVERT JUMPDEST DUP1 PUSH1 0x3 ADD SLOAD CALLVALUE LT ISZERO PUSH2 0x914 JUMPI PUSH1 0x40 MLOAD PUSH32 0x8C379A000000000000000000000000000000000000000000000000000000000 DUP2 MSTORE PUSH1 0x4 ADD PUSH2 0x90B SWAP1 PUSH2 0x309D JUMP JUMPDEST PUSH1 0x40 MLOAD DUP1 SWAP2 SUB SWAP1 REVERT JUMPDEST PUSH0 PUSH20 0xFFFFFFFFFFFFFFFFFFFFFFFFFFFFFFFFFFFFFFFF AND CALLER PUSH20 0xFFFFFFFFFFFFFFFFFFFFFFFFFFFFFFFFFFFFFFFF AND SUB PUSH2 0x982 JUMPI PUSH1 0x40 MLOAD PUSH32 0x8C379A000000000000000000000000000000000000000000000000000000000 DUP2 MSTORE PUSH1 0x4 ADD PUSH2 0x979 SWAP1 PUSH2 0x3105 JUMP JUMPDEST PUSH1 0x40 MLOAD DUP1 SWAP2 SUB SWAP1 REVERT JUMPDEST PUSH0 DUP2 PUSH1 0x4 ADD PUSH0 PUSH2 0x100 EXP DUP2 SLOAD DUP2 PUSH1 0xFF MUL NOT AND SWAP1 DUP4 ISZERO ISZERO MUL OR SWAP1 SSTORE POP PUSH0 PUSH2 0x2710 PUSH1 0x6 SLOAD DUP4 PUSH1 0x3 ADD SLOAD PUSH2 0x9B3 SWAP2 SWAP1 PUSH2 0x3150 JUMP JUMPDEST PUSH2 0x9BD SWAP2 SWAP1 PUSH2 0x31BE JUMP JUMPDEST SWAP1 POP PUSH0 PUSH0 PUSH2 0x9F7 DUP5 PUSH1 0x1 ADD PUSH0 SWAP1 SLOAD SWAP1 PUSH2 0x100 EXP SWAP1 DIV PUSH20 0xFFFFFFFFFFFFFFFFFFFFFFFFFFFFFFFFFFFFFFFF AND DUP6 PUSH1 0x2 ADD SLOAD DUP7 PUSH1 0x3 ADD SLOAD PUSH2 0x296F JUMP JUMPDEST SWAP2 POP SWAP2 POP PUSH0 DUP2 DUP5 DUP7 PUSH1 0x3 ADD SLOAD PUSH2 0xA0D SWAP2 SWAP1 PUSH2 0x31EE JUMP JUMPDEST PUSH2 0xA17 SWAP2 SWAP1 PUSH2 0x31EE JUMP JUMPDEST SWAP1 POP DUP5 PUSH1 0x1 ADD PUSH0 SWAP1 SLOAD SWAP1 PUSH2 0x100 EXP SWAP1 DIV PUSH20 0xFFFFFFFFFFFFFFFFFFFFFFFFFFFFFFFFFFFFFFFF AND PUSH20 0xFFFFFFFFFFFFFFFFFFFFFFFFFFFFFFFFFFFFFFFF AND PUSH4 0x42842E0E DUP7 PUSH0 ADD PUSH0 SWAP1 SLOAD SWAP1 PUSH2 0x100 EXP SWAP1 DIV PUSH20 0xFFFFFFFFFFFFFFFFFFFFFFFFFFFFFFFFFFFFFFFF AND CALLER DUP9 PUSH1 0x2 ADD SLOAD PUSH1 0x40 MLOAD DUP5 PUSH4 0xFFFFFFFF AND PUSH1 0xE0 SHL DUP2 MSTORE PUSH1 0x4 ADD PUSH2 0xA9F SWAP4 SWAP3 SWAP2 SWAP1 PUSH2 0x3221 JUMP JUMPDEST PUSH0 PUSH1 0x40 MLOAD DUP1 DUP4 SUB DUP2 PUSH0 DUP8 DUP1 EXTCODESIZE ISZERO DUP1 ISZERO PUSH2 0xAB6 JUMPI PUSH0 PUSH0 REVERT JUMPDEST POP GAS CALL ISZERO DUP1 ISZERO PUSH2 0xAC8 JUMPI RETURNDATASIZE PUSH0 PUSH0 RETURNDATACOPY RETURNDATASIZE PUSH0 REVERT JUMPDEST POP POP POP POP PUSH0 DUP3 GT DUP1 ISZERO PUSH2 0xB07 JUMPI POP PUSH0 PUSH20 0xFFFFFFFFFFFFFFFFFFFFFFFFFFFFFFFFFFFFFFFF AND DUP4 PUSH20 0xFFFFFFFFFFFFFFFFFFFFFFFFFFFFFFFFFFFFFFFF AND EQ ISZERO JUMPDEST ISZERO PUSH2 0xBB6 JUMPI PUSH0 DUP4 PUSH20 0xFFFFFFFFFFFFFFFFFFFFFFFFFFFFFFFFFFFFFFFF AND DUP4 PUSH1 0x40 MLOAD PUSH2 0xB31 SWAP1 PUSH2 0x2E9F JUMP JUMPDEST PUSH0 PUSH1 0x40 MLOAD DUP1 DUP4 SUB DUP2 DUP6 DUP8 GAS CALL SWAP3 POP POP POP RETURNDATASIZE DUP1 PUSH0 DUP2 EQ PUSH2 0xB6B JUMPI PUSH1 0x40 MLOAD SWAP2 POP PUSH1 0x1F NOT PUSH1 0x3F RETURNDATASIZE ADD AND DUP3 ADD PUSH1 0x40 MSTORE RETURNDATASIZE DUP3 MSTORE RETURNDATASIZE PUSH0 PUSH1 0x20 DUP5 ADD RETURNDATACOPY PUSH2 0xB70 JUMP JUMPDEST PUSH1 0x60 SWAP2 POP JUMPDEST POP POP SWAP1 POP DUP1 PUSH2 0xBB4 JUMPI PUSH1 0x40 MLOAD PUSH32 0x8C379A000000000000000000000000000000000000000000000000000000000 DUP2 MSTORE PUSH1 0x4 ADD PUSH2 0xBAB SWAP1 PUSH2 0x32A0 JUMP JUMPDEST PUSH1 0x40 MLOAD DUP1 SWAP2 SUB SWAP1 REVERT JUMPDEST POP JUMPDEST PUSH0 DUP6 PUSH0 ADD PUSH0 SWAP1 SLOAD SWAP1 PUSH2 0x100 EXP SWAP1 DIV PUSH20 0xFFFFFFFFFFFFFFFFFFFFFFFFFFFFFFFFFFFFFFFF AND PUSH20 0xFFFFFFFFFFFFFFFFFFFFFFFFFFFFFFFFFFFFFFFF AND DUP3 PUSH1 0x40 MLOAD PUSH2 0xBFD SWAP1 PUSH2 0x2E9F JUMP JUMPDEST PUSH0 PUSH1 0x40 MLOAD DUP1 DUP4 SUB DUP2 DUP6 DUP8 GAS CALL SWAP3 POP POP POP RETURNDATASIZE DUP1 PUSH0 DUP2 EQ PUSH2 0xC37 JUMPI PUSH1 0x40 MLOAD SWAP2 POP PUSH1 0x1F NOT PUSH1 0x3F RETURNDATASIZE ADD AND DUP3 ADD PUSH1 0x40 MSTORE RETURNDATASIZE DUP3 MSTORE RETURNDATASIZE PUSH0 PUSH1 0x20 DUP5 ADD RETURNDATACOPY PUSH2 0xC3C JUMP JUMPDEST PUSH1 0x60 SWAP2 POP JUMPDEST POP POP SWAP1 POP DUP1 PUSH2 0xC80 JUMPI PUSH1 0x40 MLOAD PUSH32 0x8C379A000000000000000000000000000000000000000000000000000000000 DUP2 MSTORE PUSH1 0x4 ADD PUSH2 0xC77 SWAP1 PUSH2 0x3308 JUMP JUMPDEST PUSH1 0x40 MLOAD DUP1 SWAP2 SUB SWAP1 REVERT JUMPDEST PUSH0 PUSH1 0x7 PUSH0 SWAP1 SLOAD SWAP1 PUSH2 0x100 EXP SWAP1 DIV PUSH20 0xFFFFFFFFFFFFFFFFFFFFFFFFFFFFFFFFFFFFFFFF AND PUSH20 0xFFFFFFFFFFFFFFFFFFFFFFFFFFFFFFFFFFFFFFFF AND DUP7 PUSH1 0x40 MLOAD PUSH2 0xCC6 SWAP1 PUSH2 0x2E9F JUMP JUMPDEST PUSH0 PUSH1 0x40 MLOAD DUP1 DUP4 SUB DUP2 DUP6 DUP8 GAS CALL SWAP3 POP POP POP RETURNDATASIZE DUP1 PUSH0 DUP2 EQ PUSH2 0xD00 JUMPI PUSH1 0x40 MLOAD SWAP2 POP PUSH1 0x1F NOT PUSH1 0x3F RETURNDATASIZE ADD AND DUP3 ADD PUSH1 0x40 MSTORE RETURNDATASIZE DUP3 MSTORE RETURNDATASIZE PUSH0 PUSH1 0x20 DUP5 ADD RETURNDATACOPY PUSH2 0xD05 JUMP JUMPDEST PUSH1 0x60 SWAP2 POP JUMPDEST POP POP SWAP1 POP DUP1 PUSH2 0xD49 JUMPI PUSH1 0x40 MLOAD PUSH32 0x8C379A000000000000000000000000000000000000000000000000000000000 DUP2 MSTORE PUSH1 0x4 ADD PUSH2 0xD40 SWAP1 PUSH2 0x3370 JUMP JUMPDEST PUSH1 0x40 MLOAD DUP1 SWAP2 SUB SWAP1 REVERT JUMPDEST DUP7 PUSH1 0x3 ADD SLOAD CALLVALUE GT ISZERO PUSH2 0xE0E JUMPI PUSH0 CALLER PUSH20 0xFFFFFFFFFFFFFFFFFFFFFFFFFFFFFFFFFFFFFFFF AND DUP9 PUSH1 0x3 ADD SLOAD CALLVALUE PUSH2 0xD7D SWAP2 SWAP1 PUSH2 0x31EE JUMP JUMPDEST PUSH1 0x40 MLOAD PUSH2 0xD89 SWAP1 PUSH2 0x2E9F JUMP JUMPDEST PUSH0 PUSH1 0x40 MLOAD DUP1 DUP4 SUB DUP2 DUP6 DUP8 GAS CALL SWAP3 POP POP POP RETURNDATASIZE DUP1 PUSH0 DUP2 EQ PUSH2 0xDC3 JUMPI PUSH1 0x40 MLOAD SWAP2 POP PUSH1 0x1F NOT PUSH1 0x3F RETURNDATASIZE ADD AND DUP3 ADD PUSH1 0x40 MSTORE RETURNDATASIZE DUP3 MSTORE RETURNDATASIZE PUSH0 PUSH1 0x20 DUP5 ADD RETURNDATACOPY PUSH2 0xDC8 JUMP JUMPDEST PUSH1 0x60 SWAP2 POP JUMPDEST POP POP SWAP1 POP DUP1 PUSH2 0xE0C JUMPI PUSH1 0x40 MLOAD PUSH32 0x8C379A000000000000000000000000000000000000000000000000000000000 DUP2 MSTORE PUSH1 0x4 ADD PUSH2 0xE03 SWAP1 PUSH2 0x33D8 JUMP JUMPDEST PUSH1 0x40 MLOAD DUP1 SWAP2 SUB SWAP1 REVERT JUMPDEST POP JUMPDEST DUP7 PUSH0 ADD PUSH0 SWAP1 SLOAD SWAP1 PUSH2 0x100 EXP SWAP1 DIV PUSH20 0xFFFFFFFFFFFFFFFFFFFFFFFFFFFFFFFFFFFFFFFF AND PUSH20 0xFFFFFFFFFFFFFFFFFFFFFFFFFFFFFFFFFFFFFFFF AND CALLER PUSH20 0xFFFFFFFFFFFFFFFFFFFFFFFFFFFFFFFFFFFFFFFF AND DUP10 PUSH32 0x8562EB94748E30BB0071E932744CE902B460C683474FCB3BFD567FFA16B1AFB2 DUP11 PUSH1 0x3 ADD SLOAD PUSH1 0x40 MLOAD PUSH2 0xE92 SWAP2 SWAP1 PUSH2 0x2BC7 JUMP JUMPDEST PUSH1 0x40 MLOAD DUP1 SWAP2 SUB SWAP1 LOG4 POP POP POP POP POP POP POP PUSH2 0xEA9 PUSH2 0x2AA3 JUMP JUMPDEST POP JUMP JUMPDEST PUSH1 0x3 PUSH1 0x20 MSTORE DUP1 PUSH0 MSTORE PUSH1 0x40 PUSH0 KECCAK256 PUSH0 SWAP2 POP SWAP1 POP DUP1 PUSH0 ADD PUSH0 SWAP1 SLOAD SWAP1 PUSH2 0x100 EXP SWAP1 DIV PUSH20 0xFFFFFFFFFFFFFFFFFFFFFFFFFFFFFFFFFFFFFFFF AND SWAP1 DUP1 PUSH1 0x1 ADD PUSH0 SWAP1 SLOAD SWAP1 PUSH2 0x100 EXP SWAP1 DIV PUSH20 0xFFFFFFFFFFFFFFFFFFFFFFFFFFFFFFFFFFFFFFFF AND SWAP1 DUP1 PUSH1 0x2 ADD SLOAD SWAP1 DUP1 PUSH1 0x3 ADD SLOAD SWAP1 DUP1 PUSH1 0x4 ADD SLOAD SWAP1 DUP1 PUSH1 0x5 ADD PUSH0 SWAP1 SLOAD SWAP1 PUSH2 0x100 EXP SWAP1 DIV PUSH20 0xFFFFFFFFFFFFFFFFFFFFFFFFFFFFFFFFFFFFFFFF AND SWAP1 DUP1 PUSH1 0x6 ADD SLOAD SWAP1 DUP1 PUSH1 0x7 ADD PUSH0 SWAP1 SLOAD SWAP1 PUSH2 0x100 EXP SWAP1 DIV PUSH1 0xFF AND SWAP1 POP DUP9 JUMP JUMPDEST PUSH0 PUSH0 DUP4 GT PUSH2 0xF9C JUMPI PUSH1 0x40 MLOAD PUSH32 0x8C379A000000000000000000000000000000000000000000000000000000000 DUP2 MSTORE PUSH1 0x4 ADD PUSH2 0xF93 SWAP1 PUSH2 0x3466 JUMP JUMPDEST PUSH1 0x40 MLOAD DUP1 SWAP2 SUB SWAP1 REVERT JUMPDEST PUSH1 0x1 DUP3 LT ISZERO PUSH2 0xFE0 JUMPI PUSH1 0x40 MLOAD PUSH32 0x8C379A000000000000000000000000000000000000000000000000000000000 DUP2 MSTORE PUSH1 0x4 ADD PUSH2 0xFD7 SWAP1 PUSH2 0x34CE JUMP JUMPDEST PUSH1 0x40 MLOAD DUP1 SWAP2 SUB SWAP1 REVERT JUMPDEST PUSH0 PUSH20 0xFFFFFFFFFFFFFFFFFFFFFFFFFFFFFFFFFFFFFFFF AND DUP6 PUSH20 0xFFFFFFFFFFFFFFFFFFFFFFFFFFFFFFFFFFFFFFFF AND SUB PUSH2 0x104E JUMPI PUSH1 0x40 MLOAD PUSH32 0x8C379A000000000000000000000000000000000000000000000000000000000 DUP2 MSTORE PUSH1 0x4 ADD PUSH2 0x1045 SWAP1 PUSH2 0x3536 JUMP JUMPDEST PUSH1 0x40 MLOAD DUP1 SWAP2 SUB SWAP1 REVERT JUMPDEST PUSH0 DUP6 SWAP1 POP CALLER PUSH20 0xFFFFFFFFFFFFFFFFFFFFFFFFFFFFFFFFFFFFFFFF AND DUP2 PUSH20 0xFFFFFFFFFFFFFFFFFFFFFFFFFFFFFFFFFFFFFFFF AND PUSH4 0x6352211E DUP8 PUSH1 0x40 MLOAD DUP3 PUSH4 0xFFFFFFFF AND PUSH1 0xE0 SHL DUP2 MSTORE PUSH1 0x4 ADD PUSH2 0x10A2 SWAP2 SWAP1 PUSH2 0x2BC7 JUMP JUMPDEST PUSH1 0x20 PUSH1 0x40 MLOAD DUP1 DUP4 SUB DUP2 DUP7 GAS STATICCALL ISZERO DUP1 ISZERO PUSH2 0x10BD JUMPI RETURNDATASIZE PUSH0 PUSH0 RETURNDATACOPY RETURNDATASIZE PUSH0 REVERT JUMPDEST POP POP POP POP PUSH1 0x40 MLOAD RETURNDATASIZE PUSH1 0x1F NOT PUSH1 0x1F DUP3 ADD AND DUP3 ADD DUP1 PUSH1 0x40 MSTORE POP DUP2 ADD SWAP1 PUSH2 0x10E1 SWAP2 SWAP1 PUSH2 0x3568 JUMP JUMPDEST PUSH20 0xFFFFFFFFFFFFFFFFFFFFFFFFFFFFFFFFFFFFFFFF AND EQ PUSH2 0x1137 JUMPI PUSH1 0x40 MLOAD PUSH32 0x8C379A000000000000000000000000000000000000000000000000000000000 DUP2 MSTORE PUSH1 0x4 ADD PUSH2 0x112E SWAP1 PUSH2 0x35DD JUMP JUMPDEST PUSH1 0x40 MLOAD DUP1 SWAP2 SUB SWAP1 REVERT JUMPDEST ADDRESS PUSH20 0xFFFFFFFFFFFFFFFFFFFFFFFFFFFFFFFFFFFFFFFF AND DUP2 PUSH20 0xFFFFFFFFFFFFFFFFFFFFFFFFFFFFFFFFFFFFFFFF AND PUSH4 0x81812FC DUP8 PUSH1 0x40 MLOAD DUP3 PUSH4 0xFFFFFFFF AND PUSH1 0xE0 SHL DUP2 MSTORE PUSH1 0x4 ADD PUSH2 0x1187 SWAP2 SWAP1 PUSH2 0x2BC7 JUMP JUMPDEST PUSH1 0x20 PUSH1 0x40 MLOAD DUP1 DUP4 SUB DUP2 DUP7 GAS STATICCALL ISZERO DUP1 ISZERO PUSH2 0x11A2 JUMPI RETURNDATASIZE PUSH0 PUSH0 RETURNDATACOPY RETURNDATASIZE PUSH0 REVERT JUMPDEST POP POP POP POP PUSH1 0x40 MLOAD RETURNDATASIZE PUSH1 0x1F NOT PUSH1 0x1F DUP3 ADD AND DUP3 ADD DUP1 PUSH1 0x40 MSTORE POP DUP2 ADD SWAP1 PUSH2 0x11C6 SWAP2 SWAP1 PUSH2 0x3568 JUMP JUMPDEST PUSH20 0xFFFFFFFFFFFFFFFFFFFFFFFFFFFFFFFFFFFFFFFF AND EQ DUP1 PUSH2 0x125E JUMPI POP DUP1 PUSH20 0xFFFFFFFFFFFFFFFFFFFFFFFFFFFFFFFFFFFFFFFF AND PUSH4 0xE985E9C5 CALLER ADDRESS PUSH1 0x40 MLOAD DUP4 PUSH4 0xFFFFFFFF AND PUSH1 0xE0 SHL DUP2 MSTORE PUSH1 0x4 ADD PUSH2 0x121E SWAP3 SWAP2 SWAP1 PUSH2 0x35FB JUMP JUMPDEST PUSH1 0x20 PUSH1 0x40 MLOAD DUP1 DUP4 SUB DUP2 DUP7 GAS STATICCALL ISZERO DUP1 ISZERO PUSH2 0x1239 JUMPI RETURNDATASIZE PUSH0 PUSH0 RETURNDATACOPY RETURNDATASIZE PUSH0 REVERT JUMPDEST POP POP POP POP PUSH1 0x40 MLOAD RETURNDATASIZE PUSH1 0x1F NOT PUSH1 0x1F DUP3 ADD AND DUP3 ADD DUP1 PUSH1 0x40 MSTORE POP DUP2 ADD SWAP1 PUSH2 0x125D SWAP2 SWAP1 PUSH2 0x364C JUMP JUMPDEST JUMPDEST PUSH2 0x129D JUMPI PUSH1 0x40 MLOAD PUSH32 0x8C379A000000000000000000000000000000000000000000000000000000000 DUP2 MSTORE PUSH1 0x4 ADD PUSH2 0x1294 SWAP1 PUSH2 0x36C1 JUMP JUMPDEST PUSH1 0x40 MLOAD DUP1 SWAP2 SUB SWAP1 REVERT JUMPDEST PUSH1 0x4 PUSH0 DUP2 SLOAD DUP1 SWAP3 SWAP2 SWAP1 PUSH2 0x12AF SWAP1 PUSH2 0x36DF JUMP JUMPDEST SWAP2 SWAP1 POP SSTORE POP PUSH1 0x40 MLOAD DUP1 PUSH2 0x100 ADD PUSH1 0x40 MSTORE DUP1 CALLER PUSH20 0xFFFFFFFFFFFFFFFFFFFFFFFFFFFFFFFFFFFFFFFF AND DUP2 MSTORE PUSH1 0x20 ADD DUP8 PUSH20 0xFFFFFFFFFFFFFFFFFFFFFFFFFFFFFFFFFFFFFFFF AND DUP2 MSTORE PUSH1 0x20 ADD DUP7 DUP2 MSTORE PUSH1 0x20 ADD DUP6 DUP2 MSTORE PUSH1 0x20 ADD PUSH0 DUP2 MSTORE PUSH1 0x20 ADD PUSH0 PUSH20 0xFFFFFFFFFFFFFFFFFFFFFFFFFFFFFFFFFFFFFFFF AND DUP2 MSTORE PUSH1 0x20 ADD PUSH2 0xE10 DUP6 PUSH2 0x1334 SWAP2 SWAP1 PUSH2 0x3150 JUMP JUMPDEST TIMESTAMP PUSH2 0x133F SWAP2 SWAP1 PUSH2 0x3726 JUMP JUMPDEST DUP2 MSTORE PUSH1 0x20 ADD PUSH1 0x1 ISZERO ISZERO DUP2 MSTORE POP PUSH1 0x3 PUSH0 PUSH1 0x4 SLOAD DUP2 MSTORE PUSH1 0x20 ADD SWAP1 DUP2 MSTORE PUSH1 0x20 ADD PUSH0 KECCAK256 PUSH0 DUP3 ADD MLOAD DUP2 PUSH0 ADD PUSH0 PUSH2 0x100 EXP DUP2 SLOAD DUP2 PUSH20 0xFFFFFFFFFFFFFFFFFFFFFFFFFFFFFFFFFFFFFFFF MUL NOT AND SWAP1 DUP4 PUSH20 0xFFFFFFFFFFFFFFFFFFFFFFFFFFFFFFFFFFFFFFFF AND MUL OR SWAP1 SSTORE POP PUSH1 0x20 DUP3 ADD MLOAD DUP2 PUSH1 0x1 ADD PUSH0 PUSH2 0x100 EXP DUP2 SLOAD DUP2 PUSH20 0xFFFFFFFFFFFFFFFFFFFFFFFFFFFFFFFFFFFFFFFF MUL NOT AND SWAP1 DUP4 PUSH20 0xFFFFFFFFFFFFFFFFFFFFFFFFFFFFFFFFFFFFFFFF AND MUL OR SWAP1 SSTORE POP PUSH1 0x40 DUP3 ADD MLOAD DUP2 PUSH1 0x2 ADD SSTORE PUSH1 0x60 DUP3 ADD MLOAD DUP2 PUSH1 0x3 ADD SSTORE PUSH1 0x80 DUP3 ADD MLOAD DUP2 PUSH1 0x4 ADD SSTORE PUSH1 0xA0 DUP3 ADD MLOAD DUP2 PUSH1 0x5 ADD PUSH0 PUSH2 0x100 EXP DUP2 SLOAD DUP2 PUSH20 0xFFFFFFFFFFFFFFFFFFFFFFFFFFFFFFFFFFFFFFFF MUL NOT AND SWAP1 DUP4 PUSH20 0xFFFFFFFFFFFFFFFFFFFFFFFFFFFFFFFFFFFFFFFF AND MUL OR SWAP1 SSTORE POP PUSH1 0xC0 DUP3 ADD MLOAD DUP2 PUSH1 0x6 ADD SSTORE PUSH1 0xE0 DUP3 ADD MLOAD DUP2 PUSH1 0x7 ADD PUSH0 PUSH2 0x100 EXP DUP2 SLOAD DUP2 PUSH1 0xFF MUL NOT AND SWAP1 DUP4 ISZERO ISZERO MUL OR SWAP1 SSTORE POP SWAP1 POP POP DUP6 PUSH20 0xFFFFFFFFFFFFFFFFFFFFFFFFFFFFFFFFFFFFFFFF AND CALLER PUSH20 0xFFFFFFFFFFFFFFFFFFFFFFFFFFFFFFFFFFFFFFFF AND PUSH1 0x4 SLOAD PUSH32 0x6B9E486C68303EB64052E0493F906F3D93A1B7149B6B8DCFF221AEBD16C3513 DUP9 DUP9 PUSH1 0x3 PUSH0 PUSH1 0x4 SLOAD DUP2 MSTORE PUSH1 0x20 ADD SWAP1 DUP2 MSTORE PUSH1 0x20 ADD PUSH0 KECCAK256 PUSH1 0x6 ADD SLOAD PUSH1 0x40 MLOAD PUSH2 0x14F2 SWAP4 SWAP3 SWAP2 SWAP1 PUSH2 0x3759 JUMP JUMPDEST PUSH1 0x40 MLOAD DUP1 SWAP2 SUB SWAP1 LOG4 PUSH1 0x4 SLOAD SWAP2 POP POP SWAP5 SWAP4 POP POP POP POP JUMP JUMPDEST PUSH1 0x2 SLOAD DUP2 JUMP JUMPDEST PUSH0 PUSH0 PUSH0 PUSH0 PUSH0 PUSH0 PUSH0 PUSH0 PUSH0 PUSH1 0x3 PUSH0 DUP12 DUP2 MSTORE PUSH1 0x20 ADD SWAP1 DUP2 MSTORE PUSH1 0x20 ADD PUSH0 KECCAK256 PUSH1 0x40 MLOAD DUP1 PUSH2 0x100 ADD PUSH1 0x40 MSTORE SWAP1 DUP2 PUSH0 DUP3 ADD PUSH0 SWAP1 SLOAD SWAP1 PUSH2 0x100 EXP SWAP1 DIV PUSH20 0xFFFFFFFFFFFFFFFFFFFFFFFFFFFFFFFFFFFFFFFF AND PUSH20 0xFFFFFFFFFFFFFFFFFFFFFFFFFFFFFFFFFFFFFFFF AND PUSH20 0xFFFFFFFFFFFFFFFFFFFFFFFFFFFFFFFFFFFFFFFF AND DUP2 MSTORE PUSH1 0x20 ADD PUSH1 0x1 DUP3 ADD PUSH0 SWAP1 SLOAD SWAP1 PUSH2 0x100 EXP SWAP1 DIV PUSH20 0xFFFFFFFFFFFFFFFFFFFFFFFFFFFFFFFFFFFFFFFF AND PUSH20 0xFFFFFFFFFFFFFFFFFFFFFFFFFFFFFFFFFFFFFFFF AND PUSH20 0xFFFFFFFFFFFFFFFFFFFFFFFFFFFFFFFFFFFFFFFF AND DUP2 MSTORE PUSH1 0x20 ADD PUSH1 0x2 DUP3 ADD SLOAD DUP2 MSTORE PUSH1 0x20 ADD PUSH1 0x3 DUP3 ADD SLOAD DUP2 MSTORE PUSH1 0x20 ADD PUSH1 0x4 DUP3 ADD SLOAD DUP2 MSTORE PUSH1 0x20 ADD PUSH1 0x5 DUP3 ADD PUSH0 SWAP1 SLOAD SWAP1 PUSH2 0x100 EXP SWAP1 DIV PUSH20 0xFFFFFFFFFFFFFFFFFFFFFFFFFFFFFFFFFFFFFFFF AND PUSH20 0xFFFFFFFFFFFFFFFFFFFFFFFFFFFFFFFFFFFFFFFF AND PUSH20 0xFFFFFFFFFFFFFFFFFFFFFFFFFFFFFFFFFFFFFFFF AND DUP2 MSTORE PUSH1 0x20 ADD PUSH1 0x6 DUP3 ADD SLOAD DUP2 MSTORE PUSH1 0x20 ADD PUSH1 0x7 DUP3 ADD PUSH0 SWAP1 SLOAD SWAP1 PUSH2 0x100 EXP SWAP1 DIV PUSH1 0xFF AND ISZERO ISZERO ISZERO ISZERO DUP2 MSTORE POP POP SWAP1 POP DUP1 PUSH0 ADD MLOAD DUP2 PUSH1 0x20 ADD MLOAD DUP3 PUSH1 0x40 ADD MLOAD DUP4 PUSH1 0x60 ADD MLOAD DUP5 PUSH1 0x80 ADD MLOAD DUP6 PUSH1 0xA0 ADD MLOAD DUP7 PUSH1 0xC0 ADD MLOAD DUP8 PUSH1 0xE0 ADD MLOAD SWAP9 POP SWAP9 POP SWAP9 POP SWAP9 POP SWAP9 POP SWAP9 POP SWAP9 POP SWAP9 POP POP SWAP2 SWAP4 SWAP6 SWAP8 POP SWAP2 SWAP4 SWAP6 SWAP8 JUMP JUMPDEST PUSH0 DUP2 GT PUSH2 0x16FB JUMPI PUSH1 0x40 MLOAD PUSH32 0x8C379A000000000000000000000000000000000000000000000000000000000 DUP2 MSTORE PUSH1 0x4 ADD PUSH2 0x16F2 SWAP1 PUSH2 0x37D8 JUMP JUMPDEST PUSH1 0x40 MLOAD DUP1 SWAP2 SUB SWAP1 REVERT JUMPDEST PUSH0 PUSH1 0x1 PUSH0 DUP5 DUP2 MSTORE PUSH1 0x20 ADD SWAP1 DUP2 MSTORE PUSH1 0x20 ADD PUSH0 KECCAK256 SWAP1 POP DUP1 PUSH1 0x4 ADD PUSH0 SWAP1 SLOAD SWAP1 PUSH2 0x100 EXP SWAP1 DIV PUSH1 0xFF AND PUSH2 0x175F JUMPI PUSH1 0x40 MLOAD PUSH32 0x8C379A000000000000000000000000000000000000000000000000000000000 DUP2 MSTORE PUSH1 0x4 ADD PUSH2 0x1756 SWAP1 PUSH2 0x3035 JUMP JUMPDEST PUSH1 0x40 MLOAD DUP1 SWAP2 SUB SWAP1 REVERT JUMPDEST CALLER PUSH20 0xFFFFFFFFFFFFFFFFFFFFFFFFFFFFFFFFFFFFFFFF AND DUP2 PUSH0 ADD PUSH0 SWAP1 SLOAD SWAP1 PUSH2 0x100 EXP SWAP1 DIV PUSH20 0xFFFFFFFFFFFFFFFFFFFFFFFFFFFFFFFFFFFFFFFF AND PUSH20 0xFFFFFFFFFFFFFFFFFFFFFFFFFFFFFFFFFFFFFFFF AND EQ PUSH2 0x17EF JUMPI PUSH1 0x40 MLOAD PUSH32 0x8C379A000000000000000000000000000000000000000000000000000000000 DUP2 MSTORE PUSH1 0x4 ADD PUSH2 0x17E6 SWAP1 PUSH2 0x3840 JUMP JUMPDEST PUSH1 0x40 MLOAD DUP1 SWAP2 SUB SWAP1 REVERT JUMPDEST DUP2 DUP2 PUSH1 0x3 ADD DUP2 SWAP1 SSTORE POP DUP3 PUSH32 0x945C1C4E99AA89F648FBFE3DF471B916F719E16D960FCEC0737D4D56BD696838 DUP4 PUSH1 0x40 MLOAD PUSH2 0x1828 SWAP2 SWAP1 PUSH2 0x2BC7 JUMP JUMPDEST PUSH1 0x40 MLOAD DUP1 SWAP2 SUB SWAP1 LOG2 POP POP POP JUMP JUMPDEST PUSH1 0x5 PUSH1 0x20 MSTORE DUP2 PUSH0 MSTORE PUSH1 0x40 PUSH0 KECCAK256 PUSH1 0x20 MSTORE DUP1 PUSH0 MSTORE PUSH1 0x40 PUSH0 KECCAK256 PUSH0 SWAP2 POP SWAP2 POP POP SLOAD DUP2 JUMP JUMPDEST PUSH0 PUSH1 0x3 PUSH0 DUP4 DUP2 MSTORE PUSH1 0x20 ADD SWAP1 DUP2 MSTORE PUSH1 0x20 ADD PUSH0 KECCAK256 SWAP1 POP DUP1 PUSH1 0x7 ADD PUSH0 SWAP1 SLOAD SWAP1 PUSH2 0x100 EXP SWAP1 DIV PUSH1 0xFF AND PUSH2 0x18B9 JUMPI PUSH1 0x40 MLOAD PUSH32 0x8C379A000000000000000000000000000000000000000000000000000000000 DUP2 MSTORE PUSH1 0x4 ADD PUSH2 0x18B0 SWAP1 PUSH2 0x38A8 JUMP JUMPDEST PUSH1 0x40 MLOAD DUP1 SWAP2 SUB SWAP1 REVERT JUMPDEST DUP1 PUSH1 0x6 ADD SLOAD TIMESTAMP LT PUSH2 0x18FF JUMPI PUSH1 0x40 MLOAD PUSH32 0x8C379A000000000000000000000000000000000000000000000000000000000 DUP2 MSTORE PUSH1 0x4 ADD PUSH2 0x18F6 SWAP1 PUSH2 0x3910 JUMP JUMPDEST PUSH1 0x40 MLOAD DUP1 SWAP2 SUB SWAP1 REVERT JUMPDEST DUP1 PUSH0 ADD PUSH0 SWAP1 SLOAD SWAP1 PUSH2 0x100 EXP SWAP1 DIV PUSH20 0xFFFFFFFFFFFFFFFFFFFFFFFFFFFFFFFFFFFFFFFF AND PUSH20 0xFFFFFFFFFFFFFFFFFFFFFFFFFFFFFFFFFFFFFFFF AND CALLER PUSH20 0xFFFFFFFFFFFFFFFFFFFFFFFFFFFFFFFFFFFFFFFF AND SUB PUSH2 0x198F JUMPI PUSH1 0x40 MLOAD PUSH32 0x8C379A000000000000000000000000000000000000000000000000000000000 DUP2 MSTORE PUSH1 0x4 ADD PUSH2 0x1986 SWAP1 PUSH2 0x3978 JUMP JUMPDEST PUSH1 0x40 MLOAD DUP1 SWAP2 SUB SWAP1 REVERT JUMPDEST PUSH0 PUSH0 DUP3 PUSH1 0x4 ADD SLOAD SUB PUSH2 0x19A7 JUMPI DUP2 PUSH1 0x3 ADD SLOAD SWAP1 POP PUSH2 0x19D6 JUMP JUMPDEST PUSH1 0x64 PUSH1 0x5 DUP4 PUSH1 0x4 ADD SLOAD PUSH2 0x19BA SWAP2 SWAP1 PUSH2 0x3150 JUMP JUMPDEST PUSH2 0x19C4 SWAP2 SWAP1 PUSH2 0x31BE JUMP JUMPDEST DUP3 PUSH1 0x4 ADD SLOAD PUSH2 0x19D3 SWAP2 SWAP1 PUSH2 0x3726 JUMP JUMPDEST SWAP1 POP JUMPDEST DUP1 CALLVALUE LT ISZERO PUSH2 0x1A19 JUMPI PUSH1 0x40 MLOAD PUSH32 0x8C379A000000000000000000000000000000000000000000000000000000000 DUP2 MSTORE PUSH1 0x4 ADD PUSH2 0x1A10 SWAP1 PUSH2 0x39E0 JUMP JUMPDEST PUSH1 0x40 MLOAD DUP1 SWAP2 SUB SWAP1 REVERT JUMPDEST PUSH0 PUSH20 0xFFFFFFFFFFFFFFFFFFFFFFFFFFFFFFFFFFFFFFFF AND DUP3 PUSH1 0x5 ADD PUSH0 SWAP1 SLOAD SWAP1 PUSH2 0x100 EXP SWAP1 DIV PUSH20 0xFFFFFFFFFFFFFFFFFFFFFFFFFFFFFFFFFFFFFFFF AND PUSH20 0xFFFFFFFFFFFFFFFFFFFFFFFFFFFFFFFFFFFFFFFF AND EQ PUSH2 0x1AF9 JUMPI DUP2 PUSH1 0x4 ADD SLOAD PUSH1 0x5 PUSH0 DUP6 DUP2 MSTORE PUSH1 0x20 ADD SWAP1 DUP2 MSTORE PUSH1 0x20 ADD PUSH0 KECCAK256 PUSH0 DUP5 PUSH1 0x5 ADD PUSH0 SWAP1 SLOAD SWAP1 PUSH2 0x100 EXP SWAP1 DIV PUSH20 0xFFFFFFFFFFFFFFFFFFFFFFFFFFFFFFFFFFFFFFFF AND PUSH20 0xFFFFFFFFFFFFFFFFFFFFFFFFFFFFFFFFFFFFFFFF AND PUSH20 0xFFFFFFFFFFFFFFFFFFFFFFFFFFFFFFFFFFFFFFFF AND DUP2 MSTORE PUSH1 0x20 ADD SWAP1 DUP2 MSTORE PUSH1 0x20 ADD PUSH0 KECCAK256 PUSH0 DUP3 DUP3 SLOAD PUSH2 0x1AF1 SWAP2 SWAP1 PUSH2 0x3726 JUMP JUMPDEST SWAP3 POP POP DUP2 SWAP1 SSTORE POP JUMPDEST CALLVALUE DUP3 PUSH1 0x4 ADD DUP2 SWAP1 SSTORE POP CALLER DUP3 PUSH1 0x5 ADD PUSH0 PUSH2 0x100 EXP DUP2 SLOAD DUP2 PUSH20 0xFFFFFFFFFFFFFFFFFFFFFFFFFFFFFFFFFFFFFFFF MUL NOT AND SWAP1 DUP4 PUSH20 0xFFFFFFFFFFFFFFFFFFFFFFFFFFFFFFFFFFFFFFFF AND MUL OR SWAP1 SSTORE POP CALLER PUSH20 0xFFFFFFFFFFFFFFFFFFFFFFFFFFFFFFFFFFFFFFFF AND DUP4 PUSH32 0xE54EFF26401BF69B81B26F60BD85EF47F5D85275C1D268D84F68D6897431C47 CALLVALUE PUSH1 0x40 MLOAD PUSH2 0x1B8B SWAP2 SWAP1 PUSH2 0x2BC7 JUMP JUMPDEST PUSH1 0x40 MLOAD DUP1 SWAP2 SUB SWAP1 LOG3 POP POP POP JUMP JUMPDEST PUSH1 0x4 SLOAD DUP2 JUMP JUMPDEST PUSH0 PUSH0 DUP3 GT PUSH2 0x1BE1 JUMPI PUSH1 0x40 MLOAD PUSH32 0x8C379A000000000000000000000000000000000000000000000000000000000 DUP2 MSTORE PUSH1 0x4 ADD PUSH2 0x1BD8 SWAP1 PUSH2 0x37D8 JUMP JUMPDEST PUSH1 0x40 MLOAD DUP1 SWAP2 SUB SWAP1 REVERT JUMPDEST PUSH0 PUSH20 0xFFFFFFFFFFFFFFFFFFFFFFFFFFFFFFFFFFFFFFFF AND DUP5 PUSH20 0xFFFFFFFFFFFFFFFFFFFFFFFFFFFFFFFFFFFFFFFF AND SUB PUSH2 0x1C4F JUMPI PUSH1 0x40 MLOAD PUSH32 0x8C379A000000000000000000000000000000000000000000000000000000000 DUP2 MSTORE PUSH1 0x4 ADD PUSH2 0x1C46 SWAP1 PUSH2 0x3536 JUMP JUMPDEST PUSH1 0x40 MLOAD DUP1 SWAP2 SUB SWAP1 REVERT JUMPDEST PUSH0 DUP5 SWAP1 POP CALLER PUSH20 0xFFFFFFFFFFFFFFFFFFFFFFFFFFFFFFFFFFFFFFFF AND DUP2 PUSH20 0xFFFFFFFFFFFFFFFFFFFFFFFFFFFFFFFFFFFFFFFF AND PUSH4 0x6352211E DUP7 PUSH1 0x40 MLOAD DUP3 PUSH4 0xFFFFFFFF AND PUSH1 0xE0 SHL DUP2 MSTORE PUSH1 0x4 ADD PUSH2 0x1CA3 SWAP2 SWAP1 PUSH2 0x2BC7 JUMP JUMPDEST PUSH1 0x20 PUSH1 0x40 MLOAD DUP1 DUP4 SUB DUP2 DUP7 GAS STATICCALL ISZERO DUP1 ISZERO PUSH2 0x1CBE JUMPI RETURNDATASIZE PUSH0 PUSH0 RETURNDATACOPY RETURNDATASIZE PUSH0 REVERT JUMPDEST POP POP POP POP PUSH1 0x40 MLOAD RETURNDATASIZE PUSH1 0x1F NOT PUSH1 0x1F DUP3 ADD AND DUP3 ADD DUP1 PUSH1 0x40 MSTORE POP DUP2 ADD SWAP1 PUSH2 0x1CE2 SWAP2 SWAP1 PUSH2 0x3568 JUMP JUMPDEST PUSH20 0xFFFFFFFFFFFFFFFFFFFFFFFFFFFFFFFFFFFFFFFF AND EQ PUSH2 0x1D38 JUMPI PUSH1 0x40 MLOAD PUSH32 0x8C379A000000000000000000000000000000000000000000000000000000000 DUP2 MSTORE PUSH1 0x4 ADD PUSH2 0x1D2F SWAP1 PUSH2 0x3A48 JUMP JUMPDEST PUSH1 0x40 MLOAD DUP1 SWAP2 SUB SWAP1 REVERT JUMPDEST ADDRESS PUSH20 0xFFFFFFFFFFFFFFFFFFFFFFFFFFFFFFFFFFFFFFFF AND DUP2 PUSH20 0xFFFFFFFFFFFFFFFFFFFFFFFFFFFFFFFFFFFFFFFF AND PUSH4 0x81812FC DUP7 PUSH1 0x40 MLOAD DUP3 PUSH4 0xFFFFFFFF AND PUSH1 0xE0 SHL DUP2 MSTORE PUSH1 0x4 ADD PUSH2 0x1D88 SWAP2 SWAP1 PUSH2 0x2BC7 JUMP JUMPDEST PUSH1 0x20 PUSH1 0x40 MLOAD DUP1 DUP4 SUB DUP2 DUP7 GAS STATICCALL ISZERO DUP1 ISZERO PUSH2 0x1DA3 JUMPI RETURNDATASIZE PUSH0 PUSH0 RETURNDATACOPY RETURNDATASIZE PUSH0 REVERT JUMPDEST POP POP POP POP PUSH1 0x40 MLOAD RETURNDATASIZE PUSH1 0x1F NOT PUSH1 0x1F DUP3 ADD AND DUP3 ADD DUP1 PUSH1 0x40 MSTORE POP DUP2 ADD SWAP1 PUSH2 0x1DC7 SWAP2 SWAP1 PUSH2 0x3568 JUMP JUMPDEST PUSH20 0xFFFFFFFFFFFFFFFFFFFFFFFFFFFFFFFFFFFFFFFF AND EQ DUP1 PUSH2 0x1E5F JUMPI POP DUP1 PUSH20 0xFFFFFFFFFFFFFFFFFFFFFFFFFFFFFFFFFFFFFFFF AND PUSH4 0xE985E9C5 CALLER ADDRESS PUSH1 0x40 MLOAD DUP4 PUSH4 0xFFFFFFFF AND PUSH1 0xE0 SHL DUP2 MSTORE PUSH1 0x4 ADD PUSH2 0x1E1F SWAP3 SWAP2 SWAP1 PUSH2 0x35FB JUMP JUMPDEST PUSH1 0x20 PUSH1 0x40 MLOAD DUP1 DUP4 SUB DUP2 DUP7 GAS STATICCALL ISZERO DUP1 ISZERO PUSH2 0x1E3A JUMPI RETURNDATASIZE PUSH0 PUSH0 RETURNDATACOPY RETURNDATASIZE PUSH0 REVERT JUMPDEST POP POP POP POP PUSH1 0x40 MLOAD RETURNDATASIZE PUSH1 0x1F NOT PUSH1 0x1F DUP3 ADD AND DUP3 ADD DUP1 PUSH1 0x40 MSTORE POP DUP2 ADD SWAP1 PUSH2 0x1E5E SWAP2 SWAP1 PUSH2 0x364C JUMP JUMPDEST JUMPDEST PUSH2 0x1E9E JUMPI PUSH1 0x40 MLOAD PUSH32 0x8C379A000000000000000000000000000000000000000000000000000000000 DUP2 MSTORE PUSH1 0x4 ADD PUSH2 0x1E95 SWAP1 PUSH2 0x36C1 JUMP JUMPDEST PUSH1 0x40 MLOAD DUP1 SWAP2 SUB SWAP1 REVERT JUMPDEST PUSH1 0x2 PUSH0 DUP2 SLOAD DUP1 SWAP3 SWAP2 SWAP1 PUSH2 0x1EB0 SWAP1 PUSH2 0x36DF JUMP JUMPDEST SWAP2 SWAP1 POP SSTORE POP PUSH1 0x40 MLOAD DUP1 PUSH1 0xA0 ADD PUSH1 0x40 MSTORE DUP1 CALLER PUSH20 0xFFFFFFFFFFFFFFFFFFFFFFFFFFFFFFFFFFFFFFFF AND DUP2 MSTORE PUSH1 0x20 ADD DUP7 PUSH20 0xFFFFFFFFFFFFFFFFFFFFFFFFFFFFFFFFFFFFFFFF AND DUP2 MSTORE PUSH1 0x20 ADD DUP6 DUP2 MSTORE PUSH1 0x20 ADD DUP5 DUP2 MSTORE PUSH1 0x20 ADD PUSH1 0x1 ISZERO ISZERO DUP2 MSTORE POP PUSH1 0x1 PUSH0 PUSH1 0x2 SLOAD DUP2 MSTORE PUSH1 0x20 ADD SWAP1 DUP2 MSTORE PUSH1 0x20 ADD PUSH0 KECCAK256 PUSH0 DUP3 ADD MLOAD DUP2 PUSH0 ADD PUSH0 PUSH2 0x100 EXP DUP2 SLOAD DUP2 PUSH20 0xFFFFFFFFFFFFFFFFFFFFFFFFFFFFFFFFFFFFFFFF MUL NOT AND SWAP1 DUP4 PUSH20 0xFFFFFFFFFFFFFFFFFFFFFFFFFFFFFFFFFFFFFFFF AND MUL OR SWAP1 SSTORE POP PUSH1 0x20 DUP3 ADD MLOAD DUP2 PUSH1 0x1 ADD PUSH0 PUSH2 0x100 EXP DUP2 SLOAD DUP2 PUSH20 0xFFFFFFFFFFFFFFFFFFFFFFFFFFFFFFFFFFFFFFFF MUL NOT AND SWAP1 DUP4 PUSH20 0xFFFFFFFFFFFFFFFFFFFFFFFFFFFFFFFFFFFFFFFF AND MUL OR SWAP1 SSTORE POP PUSH1 0x40 DUP3 ADD MLOAD DUP2 PUSH1 0x2 ADD SSTORE PUSH1 0x60 DUP3 ADD MLOAD DUP2 PUSH1 0x3 ADD SSTORE PUSH1 0x80 DUP3 ADD MLOAD DUP2 PUSH1 0x4 ADD PUSH0 PUSH2 0x100 EXP DUP2 SLOAD DUP2 PUSH1 0xFF MUL NOT AND SWAP1 DUP4 ISZERO ISZERO MUL OR SWAP1 SSTORE POP SWAP1 POP POP DUP5 PUSH20 0xFFFFFFFFFFFFFFFFFFFFFFFFFFFFFFFFFFFFFFFF AND CALLER PUSH20 0xFFFFFFFFFFFFFFFFFFFFFFFFFFFFFFFFFFFFFFFF AND PUSH1 0x2 SLOAD PUSH32 0xB0FE4922AC99799C17A4130D5C045BA2ECDF6E15B75B9EA84AAF0DC28724A42B DUP8 DUP8 PUSH1 0x40 MLOAD PUSH2 0x2040 SWAP3 SWAP2 SWAP1 PUSH2 0x3A66 JUMP JUMPDEST PUSH1 0x40 MLOAD DUP1 SWAP2 SUB SWAP1 LOG4 PUSH1 0x2 SLOAD SWAP2 POP POP SWAP4 SWAP3 POP POP POP JUMP JUMPDEST PUSH2 0x205D PUSH2 0x2922 JUMP JUMPDEST PUSH0 PUSH1 0x3 PUSH0 DUP4 DUP2 MSTORE PUSH1 0x20 ADD SWAP1 DUP2 MSTORE PUSH1 0x20 ADD PUSH0 KECCAK256 SWAP1 POP DUP1 PUSH1 0x7 ADD PUSH0 SWAP1 SLOAD SWAP1 PUSH2 0x100 EXP SWAP1 DIV PUSH1 0xFF AND PUSH2 0x20C1 JUMPI PUSH1 0x40 MLOAD PUSH32 0x8C379A000000000000000000000000000000000000000000000000000000000 DUP2 MSTORE PUSH1 0x4 ADD PUSH2 0x20B8 SWAP1 PUSH2 0x38A8 JUMP JUMPDEST PUSH1 0x40 MLOAD DUP1 SWAP2 SUB SWAP1 REVERT JUMPDEST DUP1 PUSH1 0x6 ADD SLOAD TIMESTAMP LT ISZERO PUSH2 0x2108 JUMPI PUSH1 0x40 MLOAD PUSH32 0x8C379A000000000000000000000000000000000000000000000000000000000 DUP2 MSTORE PUSH1 0x4 ADD PUSH2 0x20FF SWAP1 PUSH2 0x3AD7 JUMP JUMPDEST PUSH1 0x40 MLOAD DUP1 SWAP2 SUB SWAP1 REVERT JUMPDEST PUSH0 DUP2 PUSH1 0x7 ADD PUSH0 PUSH2 0x100 EXP DUP2 SLOAD DUP2 PUSH1 0xFF MUL NOT AND SWAP1 DUP4 ISZERO ISZERO MUL OR SWAP1 SSTORE POP PUSH0 PUSH20 0xFFFFFFFFFFFFFFFFFFFFFFFFFFFFFFFFFFFFFFFF AND DUP2 PUSH1 0x5 ADD PUSH0 SWAP1 SLOAD SWAP1 PUSH2 0x100 EXP SWAP1 DIV PUSH20 0xFFFFFFFFFFFFFFFFFFFFFFFFFFFFFFFFFFFFFFFF AND PUSH20 0xFFFFFFFFFFFFFFFFFFFFFFFFFFFFFFFFFFFFFFFF AND EQ PUSH2 0x25CA JUMPI PUSH0 PUSH2 0x2710 PUSH1 0x6 SLOAD DUP4 PUSH1 0x4 ADD SLOAD PUSH2 0x218F SWAP2 SWAP1 PUSH2 0x3150 JUMP JUMPDEST PUSH2 0x2199 SWAP2 SWAP1 PUSH2 0x31BE JUMP JUMPDEST SWAP1 POP PUSH0 PUSH0 PUSH2 0x21D3 DUP5 PUSH1 0x1 ADD PUSH0 SWAP1 SLOAD SWAP1 PUSH2 0x100 EXP SWAP1 DIV PUSH20 0xFFFFFFFFFFFFFFFFFFFFFFFFFFFFFFFFFFFFFFFF AND DUP6 PUSH1 0x2 ADD SLOAD DUP7 PUSH1 0x4 ADD SLOAD PUSH2 0x296F JUMP JUMPDEST SWAP2 POP SWAP2 POP PUSH0 DUP2 DUP5 DUP7 PUSH1 0x4 ADD SLOAD PUSH2 0x21E9 SWAP2 SWAP1 PUSH2 0x31EE JUMP JUMPDEST PUSH2 0x21F3 SWAP2 SWAP1 PUSH2 0x31EE JUMP JUMPDEST SWAP1 POP DUP5 PUSH1 0x1 ADD PUSH0 SWAP1 SLOAD SWAP1 PUSH2 0x100 EXP SWAP1 DIV PUSH20 0xFFFFFFFFFFFFFFFFFFFFFFFFFFFFFFFFFFFFFFFF AND PUSH20 0xFFFFFFFFFFFFFFFFFFFFFFFFFFFFFFFFFFFFFFFF AND PUSH4 0x42842E0E DUP7 PUSH0 ADD PUSH0 SWAP1 SLOAD SWAP1 PUSH2 0x100 EXP SWAP1 DIV PUSH20 0xFFFFFFFFFFFFFFFFFFFFFFFFFFFFFFFFFFFFFFFF AND DUP8 PUSH1 0x5 ADD PUSH0 SWAP1 SLOAD SWAP1 PUSH2 0x100 EXP SWAP1 DIV PUSH20 0xFFFFFFFFFFFFFFFFFFFFFFFFFFFFFFFFFFFFFFFF AND DUP9 PUSH1 0x2 ADD SLOAD PUSH1 0x40 MLOAD DUP5 PUSH4 0xFFFFFFFF AND PUSH1 0xE0 SHL DUP2 MSTORE PUSH1 0x4 ADD PUSH2 0x229E SWAP4 SWAP3 SWAP2 SWAP1 PUSH2 0x3221 JUMP JUMPDEST PUSH0 PUSH1 0x40 MLOAD DUP1 DUP4 SUB DUP2 PUSH0 DUP8 DUP1 EXTCODESIZE ISZERO DUP1 ISZERO PUSH2 0x22B5 JUMPI PUSH0 PUSH0 REVERT JUMPDEST POP GAS CALL ISZERO DUP1 ISZERO PUSH2 0x22C7 JUMPI RETURNDATASIZE PUSH0 PUSH0 RETURNDATACOPY RETURNDATASIZE PUSH0 REVERT JUMPDEST POP POP POP POP PUSH0 DUP3 GT DUP1 ISZERO PUSH2 0x2306 JUMPI POP PUSH0 PUSH20 0xFFFFFFFFFFFFFFFFFFFFFFFFFFFFFFFFFFFFFFFF AND DUP4 PUSH20 0xFFFFFFFFFFFFFFFFFFFFFFFFFFFFFFFFFFFFFFFF AND EQ ISZERO JUMPDEST ISZERO PUSH2 0x23B5 JUMPI PUSH0 DUP4 PUSH20 0xFFFFFFFFFFFFFFFFFFFFFFFFFFFFFFFFFFFFFFFF AND DUP4 PUSH1 0x40 MLOAD PUSH2 0x2330 SWAP1 PUSH2 0x2E9F JUMP JUMPDEST PUSH0 PUSH1 0x40 MLOAD DUP1 DUP4 SUB DUP2 DUP6 DUP8 GAS CALL SWAP3 POP POP POP RETURNDATASIZE DUP1 PUSH0 DUP2 EQ PUSH2 0x236A JUMPI PUSH1 0x40 MLOAD SWAP2 POP PUSH1 0x1F NOT PUSH1 0x3F RETURNDATASIZE ADD AND DUP3 ADD PUSH1 0x40 MSTORE RETURNDATASIZE DUP3 MSTORE RETURNDATASIZE PUSH0 PUSH1 0x20 DUP5 ADD RETURNDATACOPY PUSH2 0x236F JUMP JUMPDEST PUSH1 0x60 SWAP2 POP JUMPDEST POP POP SWAP1 POP DUP1 PUSH2 0x23B3 JUMPI PUSH1 0x40 MLOAD PUSH32 0x8C379A000000000000000000000000000000000000000000000000000000000 DUP2 MSTORE PUSH1 0x4 ADD PUSH2 0x23AA SWAP1 PUSH2 0x32A0 JUMP JUMPDEST PUSH1 0x40 MLOAD DUP1 SWAP2 SUB SWAP1 REVERT JUMPDEST POP JUMPDEST PUSH0 DUP6 PUSH0 ADD PUSH0 SWAP1 SLOAD SWAP1 PUSH2 0x100 EXP SWAP1 DIV PUSH20 0xFFFFFFFFFFFFFFFFFFFFFFFFFFFFFFFFFFFFFFFF AND PUSH20 0xFFFFFFFFFFFFFFFFFFFFFFFFFFFFFFFFFFFFFFFF AND DUP3 PUSH1 0x40 MLOAD PUSH2 0x23FC SWAP1 PUSH2 0x2E9F JUMP JUMPDEST PUSH0 PUSH1 0x40 MLOAD DUP1 DUP4 SUB DUP2 DUP6 DUP8 GAS CALL SWAP3 POP POP POP RETURNDATASIZE DUP1 PUSH0 DUP2 EQ PUSH2 0x2436 JUMPI PUSH1 0x40 MLOAD SWAP2 POP PUSH1 0x1F NOT PUSH1 0x3F RETURNDATASIZE ADD AND DUP3 ADD PUSH1 0x40 MSTORE RETURNDATASIZE DUP3 MSTORE RETURNDATASIZE PUSH0 PUSH1 0x20 DUP5 ADD RETURNDATACOPY PUSH2 0x243B JUMP JUMPDEST PUSH1 0x60 SWAP2 POP JUMPDEST POP POP SWAP1 POP DUP1 PUSH2 0x247F JUMPI PUSH1 0x40 MLOAD PUSH32 0x8C379A000000000000000000000000000000000000000000000000000000000 DUP2 MSTORE PUSH1 0x4 ADD PUSH2 0x2476 SWAP1 PUSH2 0x3308 JUMP JUMPDEST PUSH1 0x40 MLOAD DUP1 SWAP2 SUB SWAP1 REVERT JUMPDEST PUSH0 DUP7 PUSH0 ADD PUSH0 SWAP1 SLOAD SWAP1 PUSH2 0x100 EXP SWAP1 DIV PUSH20 0xFFFFFFFFFFFFFFFFFFFFFFFFFFFFFFFFFFFFFFFF AND PUSH20 0xFFFFFFFFFFFFFFFFFFFFFFFFFFFFFFFFFFFFFFFF AND DUP4 PUSH1 0x40 MLOAD PUSH2 0x24C6 SWAP1 PUSH2 0x2E9F JUMP JUMPDEST PUSH0 PUSH1 0x40 MLOAD DUP1 DUP4 SUB DUP2 DUP6 DUP8 GAS CALL SWAP3 POP POP POP RETURNDATASIZE DUP1 PUSH0 DUP2 EQ PUSH2 0x2500 JUMPI PUSH1 0x40 MLOAD SWAP2 POP PUSH1 0x1F NOT PUSH1 0x3F RETURNDATASIZE ADD AND DUP3 ADD PUSH1 0x40 MSTORE RETURNDATASIZE DUP3 MSTORE RETURNDATASIZE PUSH0 PUSH1 0x20 DUP5 ADD RETURNDATACOPY PUSH2 0x2505 JUMP JUMPDEST PUSH1 0x60 SWAP2 POP JUMPDEST POP POP SWAP1 POP DUP1 PUSH2 0x2549 JUMPI PUSH1 0x40 MLOAD PUSH32 0x8C379A000000000000000000000000000000000000000000000000000000000 DUP2 MSTORE PUSH1 0x4 ADD PUSH2 0x2540 SWAP1 PUSH2 0x3370 JUMP JUMPDEST PUSH1 0x40 MLOAD DUP1 SWAP2 SUB SWAP1 REVERT JUMPDEST DUP7 PUSH1 0x5 ADD PUSH0 SWAP1 SLOAD SWAP1 PUSH2 0x100 EXP SWAP1 DIV PUSH20 0xFFFFFFFFFFFFFFFFFFFFFFFFFFFFFFFFFFFFFFFF AND PUSH20 0xFFFFFFFFFFFFFFFFFFFFFFFFFFFFFFFFFFFFFFFF AND DUP9 PUSH32 0xD2AA34A4FDBBC6DFF6A3E56F46E0F3AE2A31D7785FF3487AA5C95C642ACEA501 DUP10 PUSH1 0x4 ADD SLOAD PUSH1 0x40 MLOAD PUSH2 0x25B7 SWAP2 SWAP1 PUSH2 0x2BC7 JUMP JUMPDEST PUSH1 0x40 MLOAD DUP1 SWAP2 SUB SWAP1 LOG3 POP POP POP POP POP POP PUSH2 0x261A JUMP JUMPDEST PUSH0 PUSH20 0xFFFFFFFFFFFFFFFFFFFFFFFFFFFFFFFFFFFFFFFF AND DUP3 PUSH32 0xD2AA34A4FDBBC6DFF6A3E56F46E0F3AE2A31D7785FF3487AA5C95C642ACEA501 PUSH0 PUSH1 0x40 MLOAD PUSH2 0x2611 SWAP2 SWAP1 PUSH2 0x3B37 JUMP JUMPDEST PUSH1 0x40 MLOAD DUP1 SWAP2 SUB SWAP1 LOG3 JUMPDEST POP PUSH2 0x2623 PUSH2 0x2AA3 JUMP JUMPDEST POP JUMP JUMPDEST PUSH0 PUSH1 0x1 PUSH0 DUP4 DUP2 MSTORE PUSH1 0x20 ADD SWAP1 DUP2 MSTORE PUSH1 0x20 ADD PUSH0 KECCAK256 SWAP1 POP DUP1 PUSH1 0x4 ADD PUSH0 SWAP1 SLOAD SWAP1 PUSH2 0x100 EXP SWAP1 DIV PUSH1 0xFF AND PUSH2 0x268A JUMPI PUSH1 0x40 MLOAD PUSH32 0x8C379A000000000000000000000000000000000000000000000000000000000 DUP2 MSTORE PUSH1 0x4 ADD PUSH2 0x2681 SWAP1 PUSH2 0x3035 JUMP JUMPDEST PUSH1 0x40 MLOAD DUP1 SWAP2 SUB SWAP1 REVERT JUMPDEST CALLER PUSH20 0xFFFFFFFFFFFFFFFFFFFFFFFFFFFFFFFFFFFFFFFF AND DUP2 PUSH0 ADD PUSH0 SWAP1 SLOAD SWAP1 PUSH2 0x100 EXP SWAP1 DIV PUSH20 0xFFFFFFFFFFFFFFFFFFFFFFFFFFFFFFFFFFFFFFFF AND PUSH20 0xFFFFFFFFFFFFFFFFFFFFFFFFFFFFFFFFFFFFFFFF AND EQ PUSH2 0x271A JUMPI PUSH1 0x40 MLOAD PUSH32 0x8C379A000000000000000000000000000000000000000000000000000000000 DUP2 MSTORE PUSH1 0x4 ADD PUSH2 0x2711 SWAP1 PUSH2 0x3840 JUMP JUMPDEST PUSH1 0x40 MLOAD DUP1 SWAP2 SUB SWAP1 REVERT JUMPDEST PUSH0 DUP2 PUSH1 0x4 ADD PUSH0 PUSH2 0x100 EXP DUP2 SLOAD DUP2 PUSH1 0xFF MUL NOT AND SWAP1 DUP4 ISZERO ISZERO MUL OR SWAP1 SSTORE POP DUP2 PUSH32 0xC0C55A6EDEAD4433D18CB1E287A0A20A2FA003A6F483BC9823D2E504D70D1C67 PUSH1 0x40 MLOAD PUSH1 0x40 MLOAD DUP1 SWAP2 SUB SWAP1 LOG2 POP POP JUMP JUMPDEST PUSH1 0x1 PUSH1 0x20 MSTORE DUP1 PUSH0 MSTORE PUSH1 0x40 PUSH0 KECCAK256 PUSH0 SWAP2 POP SWAP1 POP DUP1 PUSH0 ADD PUSH0 SWAP1 SLOAD SWAP1 PUSH2 0x100 EXP SWAP1 DIV PUSH20 0xFFFFFFFFFFFFFFFFFFFFFFFFFFFFFFFFFFFFFFFF AND SWAP1 DUP1 PUSH1 0x1 ADD PUSH0 SWAP1 SLOAD SWAP1 PUSH2 0x100 EXP SWAP1 DIV PUSH20 0xFFFFFFFFFFFFFFFFFFFFFFFFFFFFFFFFFFFFFFFF AND SWAP1 DUP1 PUSH1 0x2 ADD SLOAD SWAP1 DUP1 PUSH1 0x3 ADD SLOAD SWAP1 DUP1 PUSH1 0x4 ADD PUSH0 SWAP1 SLOAD SWAP1 PUSH2 0x100 EXP SWAP1 DIV PUSH1 0xFF AND SWAP1 POP DUP6 JUMP JUMPDEST PUSH1 0x7 PUSH0 SWAP1 SLOAD SWAP1 PUSH2 0x100 EXP SWAP1 DIV PUSH20 0xFFFFFFFFFFFFFFFFFFFFFFFFFFFFFFFFFFFFFFFF AND PUSH20 0xFFFFFFFFFFFFFFFFFFFFFFFFFFFFFFFFFFFFFFFF AND CALLER PUSH20 0xFFFFFFFFFFFFFFFFFFFFFFFFFFFFFFFFFFFFFFFF AND EQ PUSH2 0x2871 JUMPI PUSH1 0x40 MLOAD PUSH32 0x8C379A000000000000000000000000000000000000000000000000000000000 DUP2 MSTORE PUSH1 0x4 ADD PUSH2 0x2868 SWAP1 PUSH2 0x2F65 JUMP JUMPDEST PUSH1 0x40 MLOAD DUP1 SWAP2 SUB SWAP1 REVERT JUMPDEST PUSH0 PUSH20 0xFFFFFFFFFFFFFFFFFFFFFFFFFFFFFFFFFFFFFFFF AND DUP2 PUSH20 0xFFFFFFFFFFFFFFFFFFFFFFFFFFFFFFFFFFFFFFFF AND SUB PUSH2 0x28DF JUMPI PUSH1 0x40 MLOAD PUSH32 0x8C379A000000000000000000000000000000000000000000000000000000000 DUP2 MSTORE PUSH1 0x4 ADD PUSH2 0x28D6 SWAP1 PUSH2 0x3B9A JUMP JUMPDEST PUSH1 0x40 MLOAD DUP1 SWAP2 SUB SWAP1 REVERT JUMPDEST DUP1 PUSH1 0x7 PUSH0 PUSH2 0x100 EXP DUP2 SLOAD DUP2 PUSH20 0xFFFFFFFFFFFFFFFFFFFFFFFFFFFFFFFFFFFFFFFF MUL NOT AND SWAP1 DUP4 PUSH20 0xFFFFFFFFFFFFFFFFFFFFFFFFFFFFFFFFFFFFFFFF AND MUL OR SWAP1 SSTORE POP POP JUMP JUMPDEST PUSH1 0x2 PUSH0 SLOAD SUB PUSH2 0x2966 JUMPI PUSH1 0x40 MLOAD PUSH32 0x8C379A000000000000000000000000000000000000000000000000000000000 DUP2 MSTORE PUSH1 0x4 ADD PUSH2 0x295D SWAP1 PUSH2 0x3C02 JUMP JUMPDEST PUSH1 0x40 MLOAD DUP1 SWAP2 SUB SWAP1 REVERT JUMPDEST PUSH1 0x2 PUSH0 DUP2 SWAP1 SSTORE POP JUMP JUMPDEST PUSH0 PUSH0 DUP5 PUSH20 0xFFFFFFFFFFFFFFFFFFFFFFFFFFFFFFFFFFFFFFFF AND PUSH4 0x1FFC9A7 PUSH32 0x2A55205A00000000000000000000000000000000000000000000000000000000 PUSH1 0x40 MLOAD DUP3 PUSH4 0xFFFFFFFF AND PUSH1 0xE0 SHL DUP2 MSTORE PUSH1 0x4 ADD PUSH2 0x29CA SWAP2 SWAP1 PUSH2 0x3C5A JUMP JUMPDEST PUSH1 0x20 PUSH1 0x40 MLOAD DUP1 DUP4 SUB DUP2 DUP7 GAS STATICCALL ISZERO DUP1 ISZERO PUSH2 0x29E5 JUMPI RETURNDATASIZE PUSH0 PUSH0 RETURNDATACOPY RETURNDATASIZE PUSH0 REVERT JUMPDEST POP POP POP POP PUSH1 0x40 MLOAD RETURNDATASIZE PUSH1 0x1F NOT PUSH1 0x1F DUP3 ADD AND DUP3 ADD DUP1 PUSH1 0x40 MSTORE POP DUP2 ADD SWAP1 PUSH2 0x2A09 SWAP2 SWAP1 PUSH2 0x364C JUMP JUMPDEST ISZERO PUSH2 0x2A94 JUMPI DUP5 PUSH20 0xFFFFFFFFFFFFFFFFFFFFFFFFFFFFFFFFFFFFFFFF AND PUSH4 0x2A55205A DUP6 DUP6 PUSH1 0x40 MLOAD DUP4 PUSH4 0xFFFFFFFF AND PUSH1 0xE0 SHL DUP2 MSTORE PUSH1 0x4 ADD PUSH2 0x2A49 SWAP3 SWAP2 SWAP1 PUSH2 0x3A66 JUMP JUMPDEST PUSH1 0x40 DUP1 MLOAD DUP1 DUP4 SUB DUP2 DUP7 GAS STATICCALL ISZERO DUP1 ISZERO PUSH2 0x2A63 JUMPI RETURNDATASIZE PUSH0 PUSH0 RETURNDATACOPY RETURNDATASIZE PUSH0 REVERT JUMPDEST POP POP POP POP PUSH1 0x40 MLOAD RETURNDATASIZE PUSH1 0x1F NOT PUSH1 0x1F DUP3 ADD AND DUP3 ADD DUP1 PUSH1 0x40 MSTORE POP DUP2 ADD SWAP1 PUSH2 0x2A87 SWAP2 SWAP1 PUSH2 0x3C87 JUMP JUMPDEST DUP1 SWAP3 POP DUP2 SWAP4 POP POP POP PUSH2 0x2A9B JUMP JUMPDEST PUSH0 SWAP2 POP PUSH0 SWAP1 POP JUMPDEST SWAP4 POP SWAP4 SWAP2 POP POP JUMP JUMPDEST PUSH1 0x1 PUSH0 DUP2 SWAP1 SSTORE POP JUMP JUMPDEST PUSH0 PUSH0 REVERT JUMPDEST PUSH0 DUP2 SWAP1 POP SWAP2 SWAP1 POP JUMP JUMPDEST PUSH2 0x2AC2 DUP2 PUSH2 0x2AB0 JUMP JUMPDEST DUP2 EQ PUSH2 0x2ACC JUMPI PUSH0 PUSH0 REVERT JUMPDEST POP JUMP JUMPDEST PUSH0 DUP2 CALLDATALOAD SWAP1 POP PUSH2 0x2ADD DUP2 PUSH2 0x2AB9 JUMP JUMPDEST SWAP3 SWAP2 POP POP JUMP JUMPDEST PUSH0 PUSH1 0x20 DUP3 DUP5 SUB SLT ISZERO PUSH2 0x2AF8 JUMPI PUSH2 0x2AF7 PUSH2 0x2AAC JUMP JUMPDEST JUMPDEST PUSH0 PUSH2 0x2B05 DUP5 DUP3 DUP6 ADD PUSH2 0x2ACF JUMP JUMPDEST SWAP2 POP POP SWAP3 SWAP2 POP POP JUMP JUMPDEST PUSH0 PUSH20 0xFFFFFFFFFFFFFFFFFFFFFFFFFFFFFFFFFFFFFFFF DUP3 AND SWAP1 POP SWAP2 SWAP1 POP JUMP JUMPDEST PUSH0 PUSH2 0x2B37 DUP3 PUSH2 0x2B0E JUMP JUMPDEST SWAP1 POP SWAP2 SWAP1 POP JUMP JUMPDEST PUSH2 0x2B47 DUP2 PUSH2 0x2B2D JUMP JUMPDEST DUP3 MSTORE POP POP JUMP JUMPDEST PUSH2 0x2B56 DUP2 PUSH2 0x2AB0 JUMP JUMPDEST DUP3 MSTORE POP POP JUMP JUMPDEST PUSH0 DUP2 ISZERO ISZERO SWAP1 POP SWAP2 SWAP1 POP JUMP JUMPDEST PUSH2 0x2B70 DUP2 PUSH2 0x2B5C JUMP JUMPDEST DUP3 MSTORE POP POP JUMP JUMPDEST PUSH0 PUSH1 0xA0 DUP3 ADD SWAP1 POP PUSH2 0x2B89 PUSH0 DUP4 ADD DUP9 PUSH2 0x2B3E JUMP JUMPDEST PUSH2 0x2B96 PUSH1 0x20 DUP4 ADD DUP8 PUSH2 0x2B3E JUMP JUMPDEST PUSH2 0x2BA3 PUSH1 0x40 DUP4 ADD DUP7 PUSH2 0x2B4D JUMP JUMPDEST PUSH2 0x2BB0 PUSH1 0x60 DUP4 ADD DUP6 PUSH2 0x2B4D JUMP JUMPDEST PUSH2 0x2BBD PUSH1 0x80 DUP4 ADD DUP5 PUSH2 0x2B67 JUMP JUMPDEST SWAP7 SWAP6 POP POP POP POP POP POP JUMP JUMPDEST PUSH0 PUSH1 0x20 DUP3 ADD SWAP1 POP PUSH2 0x2BDA PUSH0 DUP4 ADD DUP5 PUSH2 0x2B4D JUMP JUMPDEST SWAP3 SWAP2 POP POP JUMP JUMPDEST PUSH0 PUSH1 0x20 DUP3 ADD SWAP1 POP PUSH2 0x2BF3 PUSH0 DUP4 ADD DUP5 PUSH2 0x2B3E JUMP JUMPDEST SWAP3 SWAP2 POP POP JUMP JUMPDEST PUSH0 PUSH2 0x100 DUP3 ADD SWAP1 POP PUSH2 0x2C0D PUSH0 DUP4 ADD DUP12 PUSH2 0x2B3E JUMP JUMPDEST PUSH2 0x2C1A PUSH1 0x20 DUP4 ADD DUP11 PUSH2 0x2B3E JUMP JUMPDEST PUSH2 0x2C27 PUSH1 0x40 DUP4 ADD DUP10 PUSH2 0x2B4D JUMP JUMPDEST PUSH2 0x2C34 PUSH1 0x60 DUP4 ADD DUP9 PUSH2 0x2B4D JUMP JUMPDEST PUSH2 0x2C41 PUSH1 0x80 DUP4 ADD DUP8 PUSH2 0x2B4D JUMP JUMPDEST PUSH2 0x2C4E PUSH1 0xA0 DUP4 ADD DUP7 PUSH2 0x2B3E JUMP JUMPDEST PUSH2 0x2C5B PUSH1 0xC0 DUP4 ADD DUP6 PUSH2 0x2B4D JUMP JUMPDEST PUSH2 0x2C68 PUSH1 0xE0 DUP4 ADD DUP5 PUSH2 0x2B67 JUMP JUMPDEST SWAP10 SWAP9 POP POP POP POP POP POP POP POP POP JUMP JUMPDEST PUSH2 0x2C7E DUP2 PUSH2 0x2B2D JUMP JUMPDEST DUP2 EQ PUSH2 0x2C88 JUMPI PUSH0 PUSH0 REVERT JUMPDEST POP JUMP JUMPDEST PUSH0 DUP2 CALLDATALOAD SWAP1 POP PUSH2 0x2C99 DUP2 PUSH2 0x2C75 JUMP JUMPDEST SWAP3 SWAP2 POP POP JUMP JUMPDEST PUSH0 PUSH0 PUSH0 PUSH0 PUSH1 0x80 DUP6 DUP8 SUB SLT ISZERO PUSH2 0x2CB7 JUMPI PUSH2 0x2CB6 PUSH2 0x2AAC JUMP JUMPDEST JUMPDEST PUSH0 PUSH2 0x2CC4 DUP8 DUP3 DUP9 ADD PUSH2 0x2C8B JUMP JUMPDEST SWAP5 POP POP PUSH1 0x20 PUSH2 0x2CD5 DUP8 DUP3 DUP9 ADD PUSH2 0x2ACF JUMP JUMPDEST SWAP4 POP POP PUSH1 0x40 PUSH2 0x2CE6 DUP8 DUP3 DUP9 ADD PUSH2 0x2ACF JUMP JUMPDEST SWAP3 POP POP PUSH1 0x60 PUSH2 0x2CF7 DUP8 DUP3 DUP9 ADD PUSH2 0x2ACF JUMP JUMPDEST SWAP2 POP POP SWAP3 SWAP6 SWAP2 SWAP5 POP SWAP3 POP JUMP JUMPDEST PUSH0 PUSH0 PUSH1 0x40 DUP4 DUP6 SUB SLT ISZERO PUSH2 0x2D19 JUMPI PUSH2 0x2D18 PUSH2 0x2AAC JUMP JUMPDEST JUMPDEST PUSH0 PUSH2 0x2D26 DUP6 DUP3 DUP7 ADD PUSH2 0x2ACF JUMP JUMPDEST SWAP3 POP POP PUSH1 0x20 PUSH2 0x2D37 DUP6 DUP3 DUP7 ADD PUSH2 0x2ACF JUMP JUMPDEST SWAP2 POP POP SWAP3 POP SWAP3 SWAP1 POP JUMP JUMPDEST PUSH0 PUSH0 PUSH1 0x40 DUP4 DUP6 SUB SLT ISZERO PUSH2 0x2D57 JUMPI PUSH2 0x2D56 PUSH2 0x2AAC JUMP JUMPDEST JUMPDEST PUSH0 PUSH2 0x2D64 DUP6 DUP3 DUP7 ADD PUSH2 0x2ACF JUMP JUMPDEST SWAP3 POP POP PUSH1 0x20 PUSH2 0x2D75 DUP6 DUP3 DUP7 ADD PUSH2 0x2C8B JUMP JUMPDEST SWAP2 POP POP SWAP3 POP SWAP3 SWAP1 POP JUMP JUMPDEST PUSH0 PUSH0 PUSH0 PUSH1 0x60 DUP5 DUP7 SUB SLT ISZERO PUSH2 0x2D96 JUMPI PUSH2 0x2D95 PUSH2 0x2AAC JUMP JUMPDEST JUMPDEST PUSH0 PUSH2 0x2DA3 DUP7 DUP3 DUP8 ADD PUSH2 0x2C8B JUMP JUMPDEST SWAP4 POP POP PUSH1 0x20 PUSH2 0x2DB4 DUP7 DUP3 DUP8 ADD PUSH2 0x2ACF JUMP JUMPDEST SWAP3 POP POP PUSH1 0x40 PUSH2 0x2DC5 DUP7 DUP3 DUP8 ADD PUSH2 0x2ACF JUMP JUMPDEST SWAP2 POP POP SWAP3 POP SWAP3 POP SWAP3 JUMP JUMPDEST PUSH0 PUSH1 0x20 DUP3 DUP5 SUB SLT ISZERO PUSH2 0x2DE4 JUMPI PUSH2 0x2DE3 PUSH2 0x2AAC JUMP JUMPDEST JUMPDEST PUSH0 PUSH2 0x2DF1 DUP5 DUP3 DUP6 ADD PUSH2 0x2C8B JUMP JUMPDEST SWAP2 POP POP SWAP3 SWAP2 POP POP JUMP JUMPDEST PUSH0 DUP3 DUP3 MSTORE PUSH1 0x20 DUP3 ADD SWAP1 POP SWAP3 SWAP2 POP POP JUMP JUMPDEST PUSH32 0x4E6F2070656E64696E672072657475726E000000000000000000000000000000 PUSH0 DUP3 ADD MSTORE POP JUMP JUMPDEST PUSH0 PUSH2 0x2E3E PUSH1 0x11 DUP4 PUSH2 0x2DFA JUMP JUMPDEST SWAP2 POP PUSH2 0x2E49 DUP3 PUSH2 0x2E0A JUMP JUMPDEST PUSH1 0x20 DUP3 ADD SWAP1 POP SWAP2 SWAP1 POP JUMP JUMPDEST PUSH0 PUSH1 0x20 DUP3 ADD SWAP1 POP DUP2 DUP2 SUB PUSH0 DUP4 ADD MSTORE PUSH2 0x2E6B DUP2 PUSH2 0x2E32 JUMP JUMPDEST SWAP1 POP SWAP2 SWAP1 POP JUMP JUMPDEST PUSH0 DUP2 SWAP1 POP SWAP3 SWAP2 POP POP JUMP JUMPDEST POP JUMP JUMPDEST PUSH0 PUSH2 0x2E8A PUSH0 DUP4 PUSH2 0x2E72 JUMP JUMPDEST SWAP2 POP PUSH2 0x2E95 DUP3 PUSH2 0x2E7C JUMP JUMPDEST PUSH0 DUP3 ADD SWAP1 POP SWAP2 SWAP1 POP JUMP JUMPDEST PUSH0 PUSH2 0x2EA9 DUP3 PUSH2 0x2E7F JUMP JUMPDEST SWAP2 POP DUP2 SWAP1 POP SWAP2 SWAP1 POP JUMP JUMPDEST PUSH32 0x5472616E73666572206661696C65640000000000000000000000000000000000 PUSH0 DUP3 ADD MSTORE POP JUMP JUMPDEST PUSH0 PUSH2 0x2EE7 PUSH1 0xF DUP4 PUSH2 0x2DFA JUMP JUMPDEST SWAP2 POP PUSH2 0x2EF2 DUP3 PUSH2 0x2EB3 JUMP JUMPDEST PUSH1 0x20 DUP3 ADD SWAP1 POP SWAP2 SWAP1 POP JUMP JUMPDEST PUSH0 PUSH1 0x20 DUP3 ADD SWAP1 POP DUP2 DUP2 SUB PUSH0 DUP4 ADD MSTORE PUSH2 0x2F14 DUP2 PUSH2 0x2EDB JUMP JUMPDEST SWAP1 POP SWAP2 SWAP1 POP JUMP JUMPDEST PUSH32 0x4E6F742066656520726563697069656E74000000000000000000000000000000 PUSH0 DUP3 ADD MSTORE POP JUMP JUMPDEST PUSH0 PUSH2 0x2F4F PUSH1 0x11 DUP4 PUSH2 0x2DFA JUMP JUMPDEST SWAP2 POP PUSH2 0x2F5A DUP3 PUSH2 0x2F1B JUMP JUMPDEST PUSH1 0x20 DUP3 ADD SWAP1 POP SWAP2 SWAP1 POP JUMP JUMPDEST PUSH0 PUSH1 0x20 DUP3 ADD SWAP1 POP DUP2 DUP2 SUB PUSH0 DUP4 ADD MSTORE PUSH2 0x2F7C DUP2 PUSH2 0x2F43 JUMP JUMPDEST SWAP1 POP SWAP2 SWAP1 POP JUMP JUMPDEST PUSH32 0x46656520746F6F20686967680000000000000000000000000000000000000000 PUSH0 DUP3 ADD MSTORE POP JUMP JUMPDEST PUSH0 PUSH2 0x2FB7 PUSH1 0xC DUP4 PUSH2 0x2DFA JUMP JUMPDEST SWAP2 POP PUSH2 0x2FC2 DUP3 PUSH2 0x2F83 JUMP JUMPDEST PUSH1 0x20 DUP3 ADD SWAP1 POP SWAP2 SWAP1 POP JUMP JUMPDEST PUSH0 PUSH1 0x20 DUP3 ADD SWAP1 POP DUP2 DUP2 SUB PUSH0 DUP4 ADD MSTORE PUSH2 0x2FE4 DUP2 PUSH2 0x2FAB JUMP JUMPDEST SWAP1 POP SWAP2 SWAP1 POP JUMP JUMPDEST PUSH32 0x4C697374696E67206E6F74206163746976650000000000000000000000000000 PUSH0 DUP3 ADD MSTORE POP JUMP JUMPDEST PUSH0 PUSH2 0x301F PUSH1 0x12 DUP4 PUSH2 0x2DFA JUMP JUMPDEST SWAP2 POP PUSH2 0x302A DUP3 PUSH2 0x2FEB JUMP JUMPDEST PUSH1 0x20 DUP3 ADD SWAP1 POP SWAP2 SWAP1 POP JUMP JUMPDEST PUSH0 PUSH1 0x20 DUP3 ADD SWAP1 POP DUP2 DUP2 SUB PUSH0 DUP4 ADD MSTORE PUSH2 0x304C DUP2 PUSH2 0x3013 JUMP JUMPDEST SWAP1 POP SWAP2 SWAP1 POP JUMP JUMPDEST PUSH32 0x496E73756666696369656E74207061796D656E74000000000000000000000000 PUSH0 DUP3 ADD MSTORE POP JUMP JUMPDEST PUSH0 PUSH2 0x3087 PUSH1 0x14 DUP4 PUSH2 0x2DFA JUMP JUMPDEST SWAP2 POP PUSH2 0x3092 DUP3 PUSH2 0x3053 JUMP JUMPDEST PUSH1 0x20 DUP3 ADD SWAP1 POP SWAP2 SWAP1 POP JUMP JUMPDEST PUSH0 PUSH1 0x20 DUP3 ADD SWAP1 POP DUP2 DUP2 SUB PUSH0 DUP4 ADD MSTORE PUSH2 0x30B4 DUP2 PUSH2 0x307B JUMP JUMPDEST SWAP1 POP SWAP2 SWAP1 POP JUMP JUMPDEST PUSH32 0x43616E6E6F742062757920796F7572206F776E204E4654000000000000000000 PUSH0 DUP3 ADD MSTORE POP JUMP JUMPDEST PUSH0 PUSH2 0x30EF PUSH1 0x17 DUP4 PUSH2 0x2DFA JUMP JUMPDEST SWAP2 POP PUSH2 0x30FA DUP3 PUSH2 0x30BB JUMP JUMPDEST PUSH1 0x20 DUP3 ADD SWAP1 POP SWAP2 SWAP1 POP JUMP JUMPDEST PUSH0 PUSH1 0x20 DUP3 ADD SWAP1 POP DUP2 DUP2 SUB PUSH0 DUP4 ADD MSTORE PUSH2 0x311C DUP2 PUSH2 0x30E3 JUMP JUMPDEST SWAP1 POP SWAP2 SWAP1 POP JUMP JUMPDEST PUSH32 0x4E487B7100000000000000000000000000000000000000000000000000000000 PUSH0 MSTORE PUSH1 0x11 PUSH1 0x4 MSTORE PUSH1 0x24 PUSH0 REVERT JUMPDEST PUSH0 PUSH2 0x315A DUP3 PUSH2 0x2AB0 JUMP JUMPDEST SWAP2 POP PUSH2 0x3165 DUP4 PUSH2 0x2AB0 JUMP JUMPDEST SWAP3 POP DUP3 DUP3 MUL PUSH2 0x3173 DUP2 PUSH2 0x2AB0 JUMP JUMPDEST SWAP2 POP DUP3 DUP3 DIV DUP5 EQ DUP4 ISZERO OR PUSH2 0x318A JUMPI PUSH2 0x3189 PUSH2 0x3123 JUMP JUMPDEST JUMPDEST POP SWAP3 SWAP2 POP POP JUMP JUMPDEST PUSH32 0x4E487B7100000000000000000000000000000000000000000000000000000000 PUSH0 MSTORE PUSH1 0x12 PUSH1 0x4 MSTORE PUSH1 0x24 PUSH0 REVERT JUMPDEST PUSH0 PUSH2 0x31C8 DUP3 PUSH2 0x2AB0 JUMP JUMPDEST SWAP2 POP PUSH2 0x31D3 DUP4 PUSH2 0x2AB0 JUMP JUMPDEST SWAP3 POP DUP3 PUSH2 0x31E3 JUMPI PUSH2 0x31E2 PUSH2 0x3191 JUMP JUMPDEST JUMPDEST DUP3 DUP3 DIV SWAP1 POP SWAP3 SWAP2 POP POP JUMP JUMPDEST PUSH0 PUSH2 0x31F8 DUP3 PUSH2 0x2AB0 JUMP JUMPDEST SWAP2 POP PUSH2 0x3203 DUP4 PUSH2 0x2AB0 JUMP JUMPDEST SWAP3 POP DUP3 DUP3 SUB SWAP1 POP DUP2 DUP2 GT ISZERO PUSH2 0x321B JUMPI PUSH2 0x321A PUSH2 0x3123 JUMP JUMPDEST JUMPDEST SWAP3 SWAP2 POP POP JUMP JUMPDEST PUSH0 PUSH1 0x60 DUP3 ADD SWAP1 POP PUSH2 0x3234 PUSH0 DUP4 ADD DUP7 PUSH2 0x2B3E JUMP JUMPDEST PUSH2 0x3241 PUSH1 0x20 DUP4 ADD DUP6 PUSH2 0x2B3E JUMP JUMPDEST PUSH2 0x324E PUSH1 0x40 DUP4 ADD DUP5 PUSH2 0x2B4D JUMP JUMPDEST SWAP5 SWAP4 POP POP POP POP JUMP JUMPDEST PUSH32 0x526F79616C7479207472616E73666572206661696C6564000000000000000000 PUSH0 DUP3 ADD MSTORE POP JUMP JUMPDEST PUSH0 PUSH2 0x328A PUSH1 0x17 DUP4 PUSH2 0x2DFA JUMP JUMPDEST SWAP2 POP PUSH2 0x3295 DUP3 PUSH2 0x3256 JUMP JUMPDEST PUSH1 0x20 DUP3 ADD SWAP1 POP SWAP2 SWAP1 POP JUMP JUMPDEST PUSH0 PUSH1 0x20 DUP3 ADD SWAP1 POP DUP2 DUP2 SUB PUSH0 DUP4 ADD MSTORE PUSH2 0x32B7 DUP2 PUSH2 0x327E JUMP JUMPDEST SWAP1 POP SWAP2 SWAP1 POP JUMP JUMPDEST PUSH32 0x5472616E7366657220746F2073656C6C6572206661696C656400000000000000 PUSH0 DUP3 ADD MSTORE POP JUMP JUMPDEST PUSH0 PUSH2 0x32F2 PUSH1 0x19 DUP4 PUSH2 0x2DFA JUMP JUMPDEST SWAP2 POP PUSH2 0x32FD DUP3 PUSH2 0x32BE JUMP JUMPDEST PUSH1 0x20 DUP3 ADD SWAP1 POP SWAP2 SWAP1 POP JUMP JUMPDEST PUSH0 PUSH1 0x20 DUP3 ADD SWAP1 POP DUP2 DUP2 SUB PUSH0 DUP4 ADD MSTORE PUSH2 0x331F DUP2 PUSH2 0x32E6 JUMP JUMPDEST SWAP1 POP SWAP2 SWAP1 POP JUMP JUMPDEST PUSH32 0x5472616E7366657220666565206661696C656400000000000000000000000000 PUSH0 DUP3 ADD MSTORE POP JUMP JUMPDEST PUSH0 PUSH2 0x335A PUSH1 0x13 DUP4 PUSH2 0x2DFA JUMP JUMPDEST SWAP2 POP PUSH2 0x3365 DUP3 PUSH2 0x3326 JUMP JUMPDEST PUSH1 0x20 DUP3 ADD SWAP1 POP SWAP2 SWAP1 POP JUMP JUMPDEST PUSH0 PUSH1 0x20 DUP3 ADD SWAP1 POP DUP2 DUP2 SUB PUSH0 DUP4 ADD MSTORE PUSH2 0x3387 DUP2 PUSH2 0x334E JUMP JUMPDEST SWAP1 POP SWAP2 SWAP1 POP JUMP JUMPDEST PUSH32 0x526566756E64206661696C656400000000000000000000000000000000000000 PUSH0 DUP3 ADD MSTORE POP JUMP JUMPDEST PUSH0 PUSH2 0x33C2 PUSH1 0xD DUP4 PUSH2 0x2DFA JUMP JUMPDEST SWAP2 POP PUSH2 0x33CD DUP3 PUSH2 0x338E JUMP JUMPDEST PUSH1 0x20 DUP3 ADD SWAP1 POP SWAP2 SWAP1 POP JUMP JUMPDEST PUSH0 PUSH1 0x20 DUP3 ADD SWAP1 POP DUP2 DUP2 SUB PUSH0 DUP4 ADD MSTORE PUSH2 0x33EF DUP2 PUSH2 0x33B6 JUMP JUMPDEST SWAP1 POP SWAP2 SWAP1 POP JUMP JUMPDEST PUSH32 0x5374617274207072696365206D7573742062652067726561746572207468616E PUSH0 DUP3 ADD MSTORE PUSH32 0x2030000000000000000000000000000000000000000000000000000000000000 PUSH1 0x20 DUP3 ADD MSTORE POP JUMP JUMPDEST PUSH0 PUSH2 0x3450 PUSH1 0x22 DUP4 PUSH2 0x2DFA JUMP JUMPDEST SWAP2 POP PUSH2 0x345B DUP3 PUSH2 0x33F6 JUMP JUMPDEST PUSH1 0x40 DUP3 ADD SWAP1 POP SWAP2 SWAP1 POP JUMP JUMPDEST PUSH0 PUSH1 0x20 DUP3 ADD SWAP1 POP DUP2 DUP2 SUB PUSH0 DUP4 ADD MSTORE PUSH2 0x347D DUP2 PUSH2 0x3444 JUMP JUMPDEST SWAP1 POP SWAP2 SWAP1 POP JUMP JUMPDEST PUSH32 0x4475726174696F6E206D757374206265206174206C65617374203120686F7572 PUSH0 DUP3 ADD MSTORE POP JUMP JUMPDEST PUSH0 PUSH2 0x34B8 PUSH1 0x20 DUP4 PUSH2 0x2DFA JUMP JUMPDEST SWAP2 POP PUSH2 0x34C3 DUP3 PUSH2 0x3484 JUMP JUMPDEST PUSH1 0x20 DUP3 ADD SWAP1 POP SWAP2 SWAP1 POP JUMP JUMPDEST PUSH0 PUSH1 0x20 DUP3 ADD SWAP1 POP DUP2 DUP2 SUB PUSH0 DUP4 ADD MSTORE PUSH2 0x34E5 DUP2 PUSH2 0x34AC JUMP JUMPDEST SWAP1 POP SWAP2 SWAP1 POP JUMP JUMPDEST PUSH32 0x496E76616C6964204E465420636F6E7472616374000000000000000000000000 PUSH0 DUP3 ADD MSTORE POP JUMP JUMPDEST PUSH0 PUSH2 0x3520 PUSH1 0x14 DUP4 PUSH2 0x2DFA JUMP JUMPDEST SWAP2 POP PUSH2 0x352B DUP3 PUSH2 0x34EC JUMP JUMPDEST PUSH1 0x20 DUP3 ADD SWAP1 POP SWAP2 SWAP1 POP JUMP JUMPDEST PUSH0 PUSH1 0x20 DUP3 ADD SWAP1 POP DUP2 DUP2 SUB PUSH0 DUP4 ADD MSTORE PUSH2 0x354D DUP2 PUSH2 0x3514 JUMP JUMPDEST SWAP1 POP SWAP2 SWAP1 POP JUMP JUMPDEST PUSH0 DUP2 MLOAD SWAP1 POP PUSH2 0x3562 DUP2 PUSH2 0x2C75 JUMP JUMPDEST SWAP3 SWAP2 POP POP JUMP JUMPDEST PUSH0 PUSH1 0x20 DUP3 DUP5 SUB SLT ISZERO PUSH2 0x357D JUMPI PUSH2 0x357C PUSH2 0x2AAC JUMP JUMPDEST JUMPDEST PUSH0 PUSH2 0x358A DUP5 DUP3 DUP6 ADD PUSH2 0x3554 JUMP JUMPDEST SWAP2 POP POP SWAP3 SWAP2 POP POP JUMP JUMPDEST PUSH32 0x4E6F7420746865206F776E657200000000000000000000000000000000000000 PUSH0 DUP3 ADD MSTORE POP JUMP JUMPDEST PUSH0 PUSH2 0x35C7 PUSH1 0xD DUP4 PUSH2 0x2DFA JUMP JUMPDEST SWAP2 POP PUSH2 0x35D2 DUP3 PUSH2 0x3593 JUMP JUMPDEST PUSH1 0x20 DUP3 ADD SWAP1 POP SWAP2 SWAP1 POP JUMP JUMPDEST PUSH0 PUSH1 0x20 DUP3 ADD SWAP1 POP DUP2 DUP2 SUB PUSH0 DUP4 ADD MSTORE PUSH2 0x35F4 DUP2 PUSH2 0x35BB JUMP JUMPDEST SWAP1 POP SWAP2 SWAP1 POP JUMP JUMPDEST PUSH0 PUSH1 0x40 DUP3 ADD SWAP1 POP PUSH2 0x360E PUSH0 DUP4 ADD DUP6 PUSH2 0x2B3E JUMP JUMPDEST PUSH2 0x361B PUSH1 0x20 DUP4 ADD DUP5 PUSH2 0x2B3E JUMP JUMPDEST SWAP4 SWAP3 POP POP POP JUMP JUMPDEST PUSH2 0x362B DUP2 PUSH2 0x2B5C JUMP JUMPDEST DUP2 EQ PUSH2 0x3635 JUMPI PUSH0 PUSH0 REVERT JUMPDEST POP JUMP JUMPDEST PUSH0 DUP2 MLOAD SWAP1 POP PUSH2 0x3646 DUP2 PUSH2 0x3622 JUMP JUMPDEST SWAP3 SWAP2 POP POP JUMP JUMPDEST PUSH0 PUSH1 0x20 DUP3 DUP5 SUB SLT ISZERO PUSH2 0x3661 JUMPI PUSH2 0x3660 PUSH2 0x2AAC JUMP JUMPDEST JUMPDEST PUSH0 PUSH2 0x366E DUP5 DUP3 DUP6 ADD PUSH2 0x3638 JUMP JUMPDEST SWAP2 POP POP SWAP3 SWAP2 POP POP JUMP JUMPDEST PUSH32 0x4D61726B6574706C616365206E6F7420617070726F7665640000000000000000 PUSH0 DUP3 ADD MSTORE POP JUMP JUMPDEST PUSH0 PUSH2 0x36AB PUSH1 0x18 DUP4 PUSH2 0x2DFA JUMP JUMPDEST SWAP2 POP PUSH2 0x36B6 DUP3 PUSH2 0x3677 JUMP JUMPDEST PUSH1 0x20 DUP3 ADD SWAP1 POP SWAP2 SWAP1 POP JUMP JUMPDEST PUSH0 PUSH1 0x20 DUP3 ADD SWAP1 POP DUP2 DUP2 SUB PUSH0 DUP4 ADD MSTORE PUSH2 0x36D8 DUP2 PUSH2 0x369F JUMP JUMPDEST SWAP1 POP SWAP2 SWAP1 POP JUMP JUMPDEST PUSH0 PUSH2 0x36E9 DUP3 PUSH2 0x2AB0 JUMP JUMPDEST SWAP2 POP PUSH32 0xFFFFFFFFFFFFFFFFFFFFFFFFFFFFFFFFFFFFFFFFFFFFFFFFFFFFFFFFFFFFFFFF DUP3 SUB PUSH2 0x371B JUMPI PUSH2 0x371A PUSH2 0x3123 JUMP JUMPDEST JUMPDEST PUSH1 0x1 DUP3 ADD SWAP1 POP SWAP2 SWAP1 POP JUMP JUMPDEST PUSH0 PUSH2 0x3730 DUP3 PUSH2 0x2AB0 JUMP JUMPDEST SWAP2 POP PUSH2 0x373B DUP4 PUSH2 0x2AB0 JUMP JUMPDEST SWAP3 POP DUP3 DUP3 ADD SWAP1 POP DUP1 DUP3 GT ISZERO PUSH2 0x3753 JUMPI PUSH2 0x3752 PUSH2 0x3123 JUMP JUMPDEST JUMPDEST SWAP3 SWAP2 POP POP JUMP JUMPDEST PUSH0 PUSH1 0x60 DUP3 ADD SWAP1 POP PUSH2 0x376C PUSH0 DUP4 ADD DUP7 PUSH2 0x2B4D JUMP JUMPDEST PUSH2 0x3779 PUSH1 0x20 DUP4 ADD DUP6 PUSH2 0x2B4D JUMP JUMPDEST PUSH2 0x3786 PUSH1 0x40 DUP4 ADD DUP5 PUSH2 0x2B4D JUMP JUMPDEST SWAP5 SWAP4 POP POP POP POP JUMP JUMPDEST PUSH32 0x5072696365206D7573742062652067726561746572207468616E203000000000 PUSH0 DUP3 ADD MSTORE POP JUMP JUMPDEST PUSH0 PUSH2 0x37C2 PUSH1 0x1C DUP4 PUSH2 0x2DFA JUMP JUMPDEST SWAP2 POP PUSH2 0x37CD DUP3 PUSH2 0x378E JUMP JUMPDEST PUSH1 0x20 DUP3 ADD SWAP1 POP SWAP2 SWAP1 POP JUMP JUMPDEST PUSH0 PUSH1 0x20 DUP3 ADD SWAP1 POP DUP2 DUP2 SUB PUSH0 DUP4 ADD MSTORE PUSH2 0x37EF DUP2 PUSH2 0x37B6 JUMP JUMPDEST SWAP1 POP SWAP2 SWAP1 POP JUMP JUMPDEST PUSH32 0x4E6F74207468652073656C6C6572000000000000000000000000000000000000 PUSH0 DUP3 ADD MSTORE POP JUMP JUMPDEST PUSH0 PUSH2 0x382A PUSH1 0xE DUP4 PUSH2 0x2DFA JUMP JUMPDEST SWAP2 POP PUSH2 0x3835 DUP3 PUSH2 0x37F6 JUMP JUMPDEST PUSH1 0x20 DUP3 ADD SWAP1 POP SWAP2 SWAP1 POP JUMP JUMPDEST PUSH0 PUSH1 0x20 DUP3 ADD SWAP1 POP DUP2 DUP2 SUB PUSH0 DUP4 ADD MSTORE PUSH2 0x3857 DUP2 PUSH2 0x381E JUMP JUMPDEST SWAP1 POP SWAP2 SWAP1 POP JUMP JUMPDEST PUSH32 0x41756374696F6E206E6F74206163746976650000000000000000000000000000 PUSH0 DUP3 ADD MSTORE POP JUMP JUMPDEST PUSH0 PUSH2 0x3892 PUSH1 0x12 DUP4 PUSH2 0x2DFA JUMP JUMPDEST SWAP2 POP PUSH2 0x389D DUP3 PUSH2 0x385E JUMP JUMPDEST PUSH1 0x20 DUP3 ADD SWAP1 POP SWAP2 SWAP1 POP JUMP JUMPDEST PUSH0 PUSH1 0x20 DUP3 ADD SWAP1 POP DUP2 DUP2 SUB PUSH0 DUP4 ADD MSTORE PUSH2 0x38BF DUP2 PUSH2 0x3886 JUMP JUMPDEST SWAP1 POP SWAP2 SWAP1 POP JUMP JUMPDEST PUSH32 0x41756374696F6E20656E64656400000000000000000000000000000000000000 PUSH0 DUP3 ADD MSTORE POP JUMP JUMPDEST PUSH0 PUSH2 0x38FA PUSH1 0xD DUP4 PUSH2 0x2DFA JUMP JUMPDEST SWAP2 POP PUSH2 0x3905 DUP3 PUSH2 0x38C6 JUMP JUMPDEST PUSH1 0x20 DUP3 ADD SWAP1 POP SWAP2 SWAP1 POP JUMP JUMPDEST PUSH0 PUSH1 0x20 DUP3 ADD SWAP1 POP DUP2 DUP2 SUB PUSH0 DUP4 ADD MSTORE PUSH2 0x3927 DUP2 PUSH2 0x38EE JUMP JUMPDEST SWAP1 POP SWAP2 SWAP1 POP JUMP JUMPDEST PUSH32 0x53656C6C65722063616E6E6F7420626964000000000000000000000000000000 PUSH0 DUP3 ADD MSTORE POP JUMP JUMPDEST PUSH0 PUSH2 0x3962 PUSH1 0x11 DUP4 PUSH2 0x2DFA JUMP JUMPDEST SWAP2 POP PUSH2 0x396D DUP3 PUSH2 0x392E JUMP JUMPDEST PUSH1 0x20 DUP3 ADD SWAP1 POP SWAP2 SWAP1 POP JUMP JUMPDEST PUSH0 PUSH1 0x20 DUP3 ADD SWAP1 POP DUP2 DUP2 SUB PUSH0 DUP4 ADD MSTORE PUSH2 0x398F DUP2 PUSH2 0x3956 JUMP JUMPDEST SWAP1 POP SWAP2 SWAP1 POP JUMP JUMPDEST PUSH32 0x42696420746F6F206C6F77000000000000000000000000000000000000000000 PUSH0 DUP3 ADD MSTORE POP JUMP JUMPDEST PUSH0 PUSH2 0x39CA PUSH1 0xB DUP4 PUSH2 0x2DFA JUMP JUMPDEST SWAP2 POP PUSH2 0x39D5 DUP3 PUSH2 0x3996 JUMP JUMPDEST PUSH1 0x20 DUP3 ADD SWAP1 POP SWAP2 SWAP1 POP JUMP JUMPDEST PUSH0 PUSH1 0x20 DUP3 ADD SWAP1 POP DUP2 DUP2 SUB PUSH0 DUP4 ADD MSTORE PUSH2 0x39F7 DUP2 PUSH2 0x39BE JUMP JUMPDEST SWAP1 POP SWAP2 SWAP1 POP JUMP JUMPDEST PUSH32 0x4E6F74207468656E206F776E6572000000000000000000000000000000000000 PUSH0 DUP3 ADD MSTORE POP JUMP JUMPDEST PUSH0 PUSH2 0x3A32 PUSH1 0xE DUP4 PUSH2 0x2DFA JUMP JUMPDEST SWAP2 POP PUSH2 0x3A3D DUP3 PUSH2 0x39FE JUMP JUMPDEST PUSH1 0x20 DUP3 ADD SWAP1 POP SWAP2 SWAP1 POP JUMP JUMPDEST PUSH0 PUSH1 0x20 DUP3 ADD SWAP1 POP DUP2 DUP2 SUB PUSH0 DUP4 ADD MSTORE PUSH2 0x3A5F DUP2 PUSH2 0x3A26 JUMP JUMPDEST SWAP1 POP SWAP2 SWAP1 POP JUMP JUMPDEST PUSH0 PUSH1 0x40 DUP3 ADD SWAP1 POP PUSH2 0x3A79 PUSH0 DUP4 ADD DUP6 PUSH2 0x2B4D JUMP JUMPDEST PUSH2 0x3A86 PUSH1 0x20 DUP4 ADD DUP5 PUSH2 0x2B4D JUMP JUMPDEST SWAP4 SWAP3 POP POP POP JUMP JUMPDEST PUSH32 0x41756374696F6E206E6F7420656E640000000000000000000000000000000000 PUSH0 DUP3 ADD MSTORE POP JUMP JUMPDEST PUSH0 PUSH2 0x3AC1 PUSH1 0xF DUP4 PUSH2 0x2DFA JUMP JUMPDEST SWAP2 POP PUSH2 0x3ACC DUP3 PUSH2 0x3A8D JUMP JUMPDEST PUSH1 0x20 DUP3 ADD SWAP1 POP SWAP2 SWAP1 POP JUMP JUMPDEST PUSH0 PUSH1 0x20 DUP3 ADD SWAP1 POP DUP2 DUP2 SUB PUSH0 DUP4 ADD MSTORE PUSH2 0x3AEE DUP2 PUSH2 0x3AB5 JUMP JUMPDEST SWAP1 POP SWAP2 SWAP1 POP JUMP JUMPDEST PUSH0 DUP2 SWAP1 POP SWAP2 SWAP1 POP JUMP JUMPDEST PUSH0 DUP2 SWAP1 POP SWAP2 SWAP1 POP JUMP JUMPDEST PUSH0 PUSH2 0x3B21 PUSH2 0x3B1C PUSH2 0x3B17 DUP5 PUSH2 0x3AF5 JUMP JUMPDEST PUSH2 0x3AFE JUMP JUMPDEST PUSH2 0x2AB0 JUMP JUMPDEST SWAP1 POP SWAP2 SWAP1 POP JUMP JUMPDEST PUSH2 0x3B31 DUP2 PUSH2 0x3B07 JUMP JUMPDEST DUP3 MSTORE POP POP JUMP JUMPDEST PUSH0 PUSH1 0x20 DUP3 ADD SWAP1 POP PUSH2 0x3B4A PUSH0 DUP4 ADD DUP5 PUSH2 0x3B28 JUMP JUMPDEST SWAP3 SWAP2 POP POP JUMP JUMPDEST PUSH32 0x496E76616C696420616464726573730000000000000000000000000000000000 PUSH0 DUP3 ADD MSTORE POP JUMP JUMPDEST PUSH0 PUSH2 0x3B84 PUSH1 0xF DUP4 PUSH2 0x2DFA JUMP JUMPDEST SWAP2 POP PUSH2 0x3B8F DUP3 PUSH2 0x3B50 JUMP JUMPDEST PUSH1 0x20 DUP3 ADD SWAP1 POP SWAP2 SWAP1 POP JUMP JUMPDEST PUSH0 PUSH1 0x20 DUP3 ADD SWAP1 POP DUP2 DUP2 SUB PUSH0 DUP4 ADD MSTORE PUSH2 0x3BB1 DUP2 PUSH2 0x3B78 JUMP JUMPDEST SWAP1 POP SWAP2 SWAP1 POP JUMP JUMPDEST PUSH32 0x5265656E7472616E637947756172643A207265656E7472616E742063616C6C00 PUSH0 DUP3 ADD MSTORE POP JUMP JUMPDEST PUSH0 PUSH2 0x3BEC PUSH1 0x1F DUP4 PUSH2 0x2DFA JUMP JUMPDEST SWAP2 POP PUSH2 0x3BF7 DUP3 PUSH2 0x3BB8 JUMP JUMPDEST PUSH1 0x20 DUP3 ADD SWAP1 POP SWAP2 SWAP1 POP JUMP JUMPDEST PUSH0 PUSH1 0x20 DUP3 ADD SWAP1 POP DUP2 DUP2 SUB PUSH0 DUP4 ADD MSTORE PUSH2 0x3C19 DUP2 PUSH2 0x3BE0 JUMP JUMPDEST SWAP1 POP SWAP2 SWAP1 POP JUMP JUMPDEST PUSH0 PUSH32 0xFFFFFFFF00000000000000000000000000000000000000000000000000000000 DUP3 AND SWAP1 POP SWAP2 SWAP1 POP JUMP JUMPDEST PUSH2 0x3C54 DUP2 PUSH2 0x3C20 JUMP JUMPDEST DUP3 MSTORE POP POP JUMP JUMPDEST PUSH0 PUSH1 0x20 DUP3 ADD SWAP1 POP PUSH2 0x3C6D PUSH0 DUP4 ADD DUP5 PUSH2 0x3C4B JUMP JUMPDEST SWAP3 SWAP2 POP POP JUMP JUMPDEST PUSH0 DUP2 MLOAD SWAP1 POP PUSH2 0x3C81 DUP2 PUSH2 0x2AB9 JUMP JUMPDEST SWAP3 SWAP2 POP POP JUMP JUMPDEST PUSH0 PUSH0 PUSH1 0x40 DUP4 DUP6 SUB SLT ISZERO PUSH2 0x3C9D JUMPI PUSH2 0x3C9C PUSH2 0x2AAC JUMP JUMPDEST JUMPDEST PUSH0 PUSH2 0x3CAA DUP6 DUP3 DUP7 ADD PUSH2 0x3554 JUMP JUMPDEST SWAP3 POP POP PUSH1 0x20 PUSH2 0x3CBB DUP6 DUP3 DUP7 ADD PUSH2 0x3C73 JUMP JUMPDEST SWAP2 POP POP SWAP3 POP SWAP3 SWAP1 POP JUMP INVALID LOG2 PUSH5 0x6970667358 0x22 SLT KECCAK256 CALLVALUE PUSH9 0xD9BBD1ED2FC91EF26B PUSH8 0xC90FE7E942B3343E 0xA8 CALLDATALOAD PUSH30 0xB4C22941197710AECD64736F6C634300081E003300000000000000000000 "
				},
				"gasEstimates": {
					"creation": {
						"codeDepositCost": "3122200",
						"executionCost": "infinite",
						"totalCost": "infinite"
					},
					"external": {
						"auctionCounter()": "2536",
						"auctions(uint256)": "infinite",
						"buyNFT(uint256)": "infinite",
						"createAuction(address,uint256,uint256,uint256)": "infinite",
						"delistNFT(uint256)": "30313",
						"endAuction(uint256)": "infinite",
						"feeRecipient()": "2531",
						"getAuction(uint256)": "infinite",
						"getListing(uint256)": "infinite",
						"listNFT(address,uint256,uint256)": "infinite",
						"listingCounter()": "2536",
						"listings(uint256)": "infinite",
						"pendingReturns(uint256,address)": "infinite",
						"placeBid(uint256)": "infinite",
						"platformFee()": "2515",
						"setPlatformFee(uint256)": "24778",
						"updateFeeRecipient(address)": "27028",
						"updatePrice(uint256,uint256)": "infinite",
						"withdrawBid(uint256)": "infinite"
					},
					"internal": {
						"_getRoyaltyInfo(address,uint256,uint256)": "infinite"
					}
				},
				"methodIdentifiers": {
					"auctionCounter()": "a7e76644",
					"auctions(uint256)": "571a26a0",
					"buyNFT(uint256)": "51ed8288",
					"createAuction(address,uint256,uint256,uint256)": "61beb1d7",
					"delistNFT(uint256)": "cb917b9c",
					"endAuction(uint256)": "b9a2de3a",
					"feeRecipient()": "46904840",
					"getAuction(uint256)": "78bd7935",
					"getListing(uint256)": "107a274a",
					"listNFT(address,uint256,uint256)": "ad05f1b4",
					"listingCounter()": "6c2c9c7d",
					"listings(uint256)": "de74e57b",
					"pendingReturns(uint256,address)": "8ddac1ef",
					"placeBid(uint256)": "9979ef45",
					"platformFee()": "26232a2e",
					"setPlatformFee(uint256)": "12e8e2c3",
					"updateFeeRecipient(address)": "f160d369",
					"updatePrice(uint256,uint256)": "82367b2d",
					"withdrawBid(uint256)": "0eaaf4c8"
				}
			},
			"storageLayout": {
				"storage": [
					{
						"astId": 10,
						"contract": "lesson/lesson10/NFTMarketplace.sol:NFTMarketplace",
						"label": "_status",
						"offset": 0,
						"slot": "0",
						"type": "t_uint256"
					},
					{
						"astId": 270,
						"contract": "lesson/lesson10/NFTMarketplace.sol:NFTMarketplace",
						"label": "listings",
						"offset": 0,
						"slot": "1",
						"type": "t_mapping(t_uint256,t_struct(Listing)247_storage)"
					},
					{
						"astId": 272,
						"contract": "lesson/lesson10/NFTMarketplace.sol:NFTMarketplace",
						"label": "listingCounter",
						"offset": 0,
						"slot": "2",
						"type": "t_uint256"
					},
					{
						"astId": 277,
						"contract": "lesson/lesson10/NFTMarketplace.sol:NFTMarketplace",
						"label": "auctions",
						"offset": 0,
						"slot": "3",
						"type": "t_mapping(t_uint256,t_struct(Auction)265_storage)"
					},
					{
						"astId": 279,
						"contract": "lesson/lesson10/NFTMarketplace.sol:NFTMarketplace",
						"label": "auctionCounter",
						"offset": 0,
						"slot": "4",
						"type": "t_uint256"
					},
					{
						"astId": 285,
						"contract": "lesson/lesson10/NFTMarketplace.sol:NFTMarketplace",
						"label": "pendingReturns",
						"offset": 0,
						"slot": "5",
						"type": "t_mapping(t_uint256,t_mapping(t_address,t_uint256))"
					},
					{
						"astId": 288,
						"contract": "lesson/lesson10/NFTMarketplace.sol:NFTMarketplace",
						"label": "platformFee",
						"offset": 0,
						"slot": "6",
						"type": "t_uint256"
					},
					{
						"astId": 290,
						"contract": "lesson/lesson10/NFTMarketplace.sol:NFTMarketplace",
						"label": "feeRecipient",
						"offset": 0,
						"slot": "7",
						"type": "t_address"
					}
				],
				"types": {
					"t_address": {
						"encoding": "inplace",
						"label": "address",
						"numberOfBytes": "20"
					},
					"t_bool": {
						"encoding": "inplace",
						"label": "bool",
						"numberOfBytes": "1"
					},
					"t_mapping(t_address,t_uint256)": {
						"encoding": "mapping",
						"key": "t_address",
						"label": "mapping(address => uint256)",
						"numberOfBytes": "32",
						"value": "t_uint256"
					},
					"t_mapping(t_uint256,t_mapping(t_address,t_uint256))": {
						"encoding": "mapping",
						"key": "t_uint256",
						"label": "mapping(uint256 => mapping(address => uint256))",
						"numberOfBytes": "32",
						"value": "t_mapping(t_address,t_uint256)"
					},
					"t_mapping(t_uint256,t_struct(Auction)265_storage)": {
						"encoding": "mapping",
						"key": "t_uint256",
						"label": "mapping(uint256 => struct NFTMarketplace.Auction)",
						"numberOfBytes": "32",
						"value": "t_struct(Auction)265_storage"
					},
					"t_mapping(t_uint256,t_struct(Listing)247_storage)": {
						"encoding": "mapping",
						"key": "t_uint256",
						"label": "mapping(uint256 => struct NFTMarketplace.Listing)",
						"numberOfBytes": "32",
						"value": "t_struct(Listing)247_storage"
					},
					"t_struct(Auction)265_storage": {
						"encoding": "inplace",
						"label": "struct NFTMarketplace.Auction",
						"members": [
							{
								"astId": 250,
								"contract": "lesson/lesson10/NFTMarketplace.sol:NFTMarketplace",
								"label": "seller",
								"offset": 0,
								"slot": "0",
								"type": "t_address"
							},
							{
								"astId": 252,
								"contract": "lesson/lesson10/NFTMarketplace.sol:NFTMarketplace",
								"label": "nftContract",
								"offset": 0,
								"slot": "1",
								"type": "t_address"
							},
							{
								"astId": 254,
								"contract": "lesson/lesson10/NFTMarketplace.sol:NFTMarketplace",
								"label": "tokenId",
								"offset": 0,
								"slot": "2",
								"type": "t_uint256"
							},
							{
								"astId": 256,
								"contract": "lesson/lesson10/NFTMarketplace.sol:NFTMarketplace",
								"label": "startPrice",
								"offset": 0,
								"slot": "3",
								"type": "t_uint256"
							},
							{
								"astId": 258,
								"contract": "lesson/lesson10/NFTMarketplace.sol:NFTMarketplace",
								"label": "highestBid",
								"offset": 0,
								"slot": "4",
								"type": "t_uint256"
							},
							{
								"astId": 260,
								"contract": "lesson/lesson10/NFTMarketplace.sol:NFTMarketplace",
								"label": "highestBidder",
								"offset": 0,
								"slot": "5",
								"type": "t_address"
							},
							{
								"astId": 262,
								"contract": "lesson/lesson10/NFTMarketplace.sol:NFTMarketplace",
								"label": "endTime",
								"offset": 0,
								"slot": "6",
								"type": "t_uint256"
							},
							{
								"astId": 264,
								"contract": "lesson/lesson10/NFTMarketplace.sol:NFTMarketplace",
								"label": "active",
								"offset": 0,
								"slot": "7",
								"type": "t_bool"
							}
						],
						"numberOfBytes": "256"
					},
					"t_struct(Listing)247_storage": {
						"encoding": "inplace",
						"label": "struct NFTMarketplace.Listing",
						"members": [
							{
								"astId": 238,
								"contract": "lesson/lesson10/NFTMarketplace.sol:NFTMarketplace",
								"label": "seller",
								"offset": 0,
								"slot": "0",
								"type": "t_address"
							},
							{
								"astId": 240,
								"contract": "lesson/lesson10/NFTMarketplace.sol:NFTMarketplace",
								"label": "nftContract",
								"offset": 0,
								"slot": "1",
								"type": "t_address"
							},
							{
								"astId": 242,
								"contract": "lesson/lesson10/NFTMarketplace.sol:NFTMarketplace",
								"label": "tokenId",
								"offset": 0,
								"slot": "2",
								"type": "t_uint256"
							},
							{
								"astId": 244,
								"contract": "lesson/lesson10/NFTMarketplace.sol:NFTMarketplace",
								"label": "price",
								"offset": 0,
								"slot": "3",
								"type": "t_uint256"
							},
							{
								"astId": 246,
								"contract": "lesson/lesson10/NFTMarketplace.sol:NFTMarketplace",
								"label": "active",
								"offset": 0,
								"slot": "4",
								"type": "t_bool"
							}
						],
						"numberOfBytes": "160"
					},
					"t_uint256": {
						"encoding": "inplace",
						"label": "uint256",
						"numberOfBytes": "32"
					}
				}
			},
			"userdoc": {
				"kind": "user",
				"methods": {
					"buyNFT(uint256)": {
						"notice": "需要支付足够的ETH，多余部分会自动退还"
					},
					"endAuction(uint256)": {
						"notice": "任何人都可以在拍卖结束后调用此函数进行结算"
					},
					"getListing(uint256)": {
						"notice": "内部函数，检查NFT合约是否支持ERC2981标准"
					},
					"placeBid(uint256)": {
						"notice": "需要支付足够的ETH，出价必须高于当前最高价的5%"
					},
					"setPlatformFee(uint256)": {
						"notice": "只有手续费接收地址可以调用"
					},
					"updateFeeRecipient(address)": {
						"notice": "只有手续费接收地址可以调用"
					},
					"withdrawBid(uint256)": {
						"notice": "被超越的出价者可以提取他们的资金"
					}
				},
				"notice": "使用ReentrancyGuard 防止重入攻击",
				"version": 1
			}
		}
	}
}