{
	"lesson/lesson03/SafeArrayManager.sol": {
		"SafeArrayManager": {
			"abi": [
				{
					"anonymous": false,
					"inputs": [
						{
							"indexed": false,
							"internalType": "uint256",
							"name": "value",
							"type": "uint256"
						},
						{
							"indexed": false,
							"internalType": "uint256",
							"name": "index",
							"type": "uint256"
						}
					],
					"name": "ElementAdded",
					"type": "event"
				},
				{
					"anonymous": false,
					"inputs": [
						{
							"indexed": false,
							"internalType": "uint256",
							"name": "index",
							"type": "uint256"
						},
						{
							"indexed": false,
							"internalType": "uint256",
							"name": "value",
							"type": "uint256"
						}
					],
					"name": "ElementRemoved",
					"type": "event"
				},
				{
					"inputs": [],
					"name": "MAX_SIZE",
					"outputs": [
						{
							"internalType": "uint256",
							"name": "",
							"type": "uint256"
						}
					],
					"stateMutability": "view",
					"type": "function"
				},
				{
					"inputs": [
						{
							"internalType": "uint256",
							"name": "",
							"type": "uint256"
						}
					],
					"name": "data",
					"outputs": [
						{
							"internalType": "uint256",
							"name": "",
							"type": "uint256"
						}
					],
					"stateMutability": "view",
					"type": "function"
				},
				{
					"inputs": [
						{
							"internalType": "uint256",
							"name": "value",
							"type": "uint256"
						}
					],
					"name": "findElement",
					"outputs": [
						{
							"internalType": "bool",
							"name": "",
							"type": "bool"
						},
						{
							"internalType": "uint256",
							"name": "",
							"type": "uint256"
						}
					],
					"stateMutability": "view",
					"type": "function"
				},
				{
					"inputs": [
						{
							"internalType": "uint256",
							"name": "value",
							"type": "uint256"
						}
					],
					"name": "findElementV2",
					"outputs": [
						{
							"internalType": "bool",
							"name": "",
							"type": "bool"
						},
						{
							"internalType": "uint256",
							"name": "",
							"type": "uint256"
						}
					],
					"stateMutability": "view",
					"type": "function"
				},
				{
					"inputs": [],
					"name": "getAll",
					"outputs": [
						{
							"internalType": "uint256[]",
							"name": "",
							"type": "uint256[]"
						}
					],
					"stateMutability": "view",
					"type": "function"
				},
				{
					"inputs": [
						{
							"internalType": "uint256",
							"name": "index",
							"type": "uint256"
						}
					],
					"name": "removeOrdered",
					"outputs": [],
					"stateMutability": "nonpayable",
					"type": "function"
				},
				{
					"inputs": [
						{
							"internalType": "uint256",
							"name": "index",
							"type": "uint256"
						}
					],
					"name": "removeUnordered",
					"outputs": [],
					"stateMutability": "nonpayable",
					"type": "function"
				},
				{
					"inputs": [
						{
							"internalType": "uint256",
							"name": "value",
							"type": "uint256"
						}
					],
					"name": "safePush",
					"outputs": [],
					"stateMutability": "nonpayable",
					"type": "function"
				},
				{
					"inputs": [
						{
							"internalType": "uint256",
							"name": "start",
							"type": "uint256"
						},
						{
							"internalType": "uint256",
							"name": "end",
							"type": "uint256"
						}
					],
					"name": "sumRange",
					"outputs": [
						{
							"internalType": "uint256",
							"name": "",
							"type": "uint256"
						}
					],
					"stateMutability": "view",
					"type": "function"
				}
			],
			"devdoc": {
				"kind": "dev",
				"methods": {},
				"version": 1
			},
			"evm": {
				"assembly": "    /* \"lesson/lesson03/SafeArrayManager.sol\":60:3143  contract SafeArrayManager {... */\n  mstore(0x40, 0x80)\n  callvalue\n  dup1\n  iszero\n  tag_1\n  jumpi\n  revert(0x00, 0x00)\ntag_1:\n  pop\n  dataSize(sub_0)\n  dup1\n  dataOffset(sub_0)\n  0x00\n  codecopy\n  0x00\n  return\nstop\n\nsub_0: assembly {\n        /* \"lesson/lesson03/SafeArrayManager.sol\":60:3143  contract SafeArrayManager {... */\n      mstore(0x40, 0x80)\n      callvalue\n      dup1\n      iszero\n      tag_1\n      jumpi\n      revert(0x00, 0x00)\n    tag_1:\n      pop\n      jumpi(tag_2, lt(calldatasize, 0x04))\n      shr(0xe0, calldataload(0x00))\n      dup1\n      0x8d67799e\n      gt\n      tag_12\n      jumpi\n      dup1\n      0x8d67799e\n      eq\n      tag_7\n      jumpi\n      dup1\n      0xa214547f\n      eq\n      tag_8\n      jumpi\n      dup1\n      0xa6158fdb\n      eq\n      tag_9\n      jumpi\n      dup1\n      0xe990b43d\n      eq\n      tag_10\n      jumpi\n      dup1\n      0xf0ba8440\n      eq\n      tag_11\n      jumpi\n      jump(tag_2)\n    tag_12:\n      dup1\n      0x2bd1a184\n      eq\n      tag_3\n      jumpi\n      dup1\n      0x3b3c4ec5\n      eq\n      tag_4\n      jumpi\n      dup1\n      0x3e275690\n      eq\n      tag_5\n      jumpi\n      dup1\n      0x53ed5143\n      eq\n      tag_6\n      jumpi\n    tag_2:\n      revert(0x00, 0x00)\n        /* \"lesson/lesson03/SafeArrayManager.sol\":2404:2983  function findElementV2(uint value) public view returns (bool, uint) {... */\n    tag_3:\n      tag_13\n      0x04\n      dup1\n      calldatasize\n      sub\n      dup2\n      add\n      swap1\n      tag_14\n      swap2\n      swap1\n      tag_15\n      jump\t// in\n    tag_14:\n      tag_16\n      jump\t// in\n    tag_13:\n      mload(0x40)\n      tag_17\n      swap3\n      swap2\n      swap1\n      tag_18\n      jump\t// in\n    tag_17:\n      mload(0x40)\n      dup1\n      swap2\n      sub\n      swap1\n      return\n        /* \"lesson/lesson03/SafeArrayManager.sol\":1015:1409  function removeUnordered(uint index) public {... */\n    tag_4:\n      tag_19\n      0x04\n      dup1\n      calldatasize\n      sub\n      dup2\n      add\n      swap1\n      tag_20\n      swap2\n      swap1\n      tag_15\n      jump\t// in\n    tag_20:\n      tag_21\n      jump\t// in\n    tag_19:\n      stop\n        /* \"lesson/lesson03/SafeArrayManager.sol\":335:492  function safePush(uint value) public {... */\n    tag_5:\n      tag_22\n      0x04\n      dup1\n      calldatasize\n      sub\n      dup2\n      add\n      swap1\n      tag_23\n      swap2\n      swap1\n      tag_15\n      jump\t// in\n    tag_23:\n      tag_24\n      jump\t// in\n    tag_22:\n      stop\n        /* \"lesson/lesson03/SafeArrayManager.sol\":3025:3140  function getAll() public view returns (uint[] memory) {... */\n    tag_6:\n      tag_25\n      tag_26\n      jump\t// in\n    tag_25:\n      mload(0x40)\n      tag_27\n      swap2\n      swap1\n      tag_28\n      jump\t// in\n    tag_27:\n      mload(0x40)\n      dup1\n      swap2\n      sub\n      swap1\n      return\n        /* \"lesson/lesson03/SafeArrayManager.sol\":118:153  uint public constant MAX_SIZE = 100 */\n    tag_7:\n      tag_29\n      tag_30\n      jump\t// in\n    tag_29:\n      mload(0x40)\n      tag_31\n      swap2\n      swap1\n      tag_32\n      jump\t// in\n    tag_31:\n      mload(0x40)\n      dup1\n      swap2\n      sub\n      swap1\n      return\n        /* \"lesson/lesson03/SafeArrayManager.sol\":1445:1959  function sumRange(uint start, uint end) public view returns (uint) {... */\n    tag_8:\n      tag_33\n      0x04\n      dup1\n      calldatasize\n      sub\n      dup2\n      add\n      swap1\n      tag_34\n      swap2\n      swap1\n      tag_35\n      jump\t// in\n    tag_34:\n      tag_36\n      jump\t// in\n    tag_33:\n      mload(0x40)\n      tag_37\n      swap2\n      swap1\n      tag_32\n      jump\t// in\n    tag_37:\n      mload(0x40)\n      dup1\n      swap2\n      sub\n      swap1\n      return\n        /* \"lesson/lesson03/SafeArrayManager.sol\":528:979  function removeOrdered(uint index) public {... */\n    tag_9:\n      tag_38\n      0x04\n      dup1\n      calldatasize\n      sub\n      dup2\n      add\n      swap1\n      tag_39\n      swap2\n      swap1\n      tag_15\n      jump\t// in\n    tag_39:\n      tag_40\n      jump\t// in\n    tag_38:\n      stop\n        /* \"lesson/lesson03/SafeArrayManager.sol\":1995:2372  function findElement(uint value) public view returns (bool, uint) {... */\n    tag_10:\n      tag_41\n      0x04\n      dup1\n      calldatasize\n      sub\n      dup2\n      add\n      swap1\n      tag_42\n      swap2\n      swap1\n      tag_15\n      jump\t// in\n    tag_42:\n      tag_43\n      jump\t// in\n    tag_41:\n      mload(0x40)\n      tag_44\n      swap3\n      swap2\n      swap1\n      tag_18\n      jump\t// in\n    tag_44:\n      mload(0x40)\n      dup1\n      swap2\n      sub\n      swap1\n      return\n        /* \"lesson/lesson03/SafeArrayManager.sol\":93:111  uint[] public data */\n    tag_11:\n      tag_45\n      0x04\n      dup1\n      calldatasize\n      sub\n      dup2\n      add\n      swap1\n      tag_46\n      swap2\n      swap1\n      tag_15\n      jump\t// in\n    tag_46:\n      tag_47\n      jump\t// in\n    tag_45:\n      mload(0x40)\n      tag_48\n      swap2\n      swap1\n      tag_32\n      jump\t// in\n    tag_48:\n      mload(0x40)\n      dup1\n      swap2\n      sub\n      swap1\n      return\n        /* \"lesson/lesson03/SafeArrayManager.sol\":2404:2983  function findElementV2(uint value) public view returns (bool, uint) {... */\n    tag_16:\n        /* \"lesson/lesson03/SafeArrayManager.sol\":2460:2464  bool */\n      0x00\n        /* \"lesson/lesson03/SafeArrayManager.sol\":2466:2470  uint */\n      0x00\n        /* \"lesson/lesson03/SafeArrayManager.sol\":2508:2517  uint left */\n      0x00\n        /* \"lesson/lesson03/SafeArrayManager.sol\":2520:2521  0 */\n      0x00\n        /* \"lesson/lesson03/SafeArrayManager.sol\":2508:2521  uint left = 0 */\n      swap1\n      pop\n        /* \"lesson/lesson03/SafeArrayManager.sol\":2532:2542  uint right */\n      0x00\n        /* \"lesson/lesson03/SafeArrayManager.sol\":2559:2560  1 */\n      0x01\n        /* \"lesson/lesson03/SafeArrayManager.sol\":2545:2549  data */\n      0x00\n        /* \"lesson/lesson03/SafeArrayManager.sol\":2545:2556  data.length */\n      dup1\n      sload\n      swap1\n      pop\n        /* \"lesson/lesson03/SafeArrayManager.sol\":2545:2560  data.length - 1 */\n      tag_50\n      swap2\n      swap1\n      tag_51\n      jump\t// in\n    tag_50:\n        /* \"lesson/lesson03/SafeArrayManager.sol\":2532:2560  uint right = data.length - 1 */\n      swap1\n      pop\n        /* \"lesson/lesson03/SafeArrayManager.sol\":2581:2908  while(left <= right) {... */\n    tag_52:\n        /* \"lesson/lesson03/SafeArrayManager.sol\":2595:2600  right */\n      dup1\n        /* \"lesson/lesson03/SafeArrayManager.sol\":2587:2591  left */\n      dup3\n        /* \"lesson/lesson03/SafeArrayManager.sol\":2587:2600  left <= right */\n      gt\n        /* \"lesson/lesson03/SafeArrayManager.sol\":2581:2908  while(left <= right) {... */\n      tag_53\n      jumpi\n        /* \"lesson/lesson03/SafeArrayManager.sol\":2617:2625  uint mid */\n      0x00\n        /* \"lesson/lesson03/SafeArrayManager.sol\":2644:2645  2 */\n      0x02\n        /* \"lesson/lesson03/SafeArrayManager.sol\":2636:2641  right */\n      dup3\n        /* \"lesson/lesson03/SafeArrayManager.sol\":2636:2645  right / 2 */\n      tag_54\n      swap2\n      swap1\n      tag_55\n      jump\t// in\n    tag_54:\n        /* \"lesson/lesson03/SafeArrayManager.sol\":2628:2632  left */\n      dup4\n        /* \"lesson/lesson03/SafeArrayManager.sol\":2628:2646  left + (right / 2) */\n      tag_56\n      swap2\n      swap1\n      tag_57\n      jump\t// in\n    tag_56:\n        /* \"lesson/lesson03/SafeArrayManager.sol\":2617:2646  uint mid = left + (right / 2) */\n      swap1\n      pop\n        /* \"lesson/lesson03/SafeArrayManager.sol\":2661:2668  uint _v */\n      0x00\n        /* \"lesson/lesson03/SafeArrayManager.sol\":2671:2675  data */\n      0x00\n        /* \"lesson/lesson03/SafeArrayManager.sol\":2676:2679  mid */\n      dup3\n        /* \"lesson/lesson03/SafeArrayManager.sol\":2671:2680  data[mid] */\n      dup2\n      sload\n      dup2\n      lt\n      tag_58\n      jumpi\n      tag_59\n      tag_60\n      jump\t// in\n    tag_59:\n    tag_58:\n      swap1\n      0x00\n      mstore\n      keccak256(0x00, 0x20)\n      add\n      sload\n        /* \"lesson/lesson03/SafeArrayManager.sol\":2661:2680  uint _v = data[mid] */\n      swap1\n      pop\n        /* \"lesson/lesson03/SafeArrayManager.sol\":2705:2710  value */\n      dup7\n        /* \"lesson/lesson03/SafeArrayManager.sol\":2699:2701  _v */\n      dup2\n        /* \"lesson/lesson03/SafeArrayManager.sol\":2699:2710  _v == value */\n      sub\n        /* \"lesson/lesson03/SafeArrayManager.sol\":2695:2897  if (_v == value) {... */\n      tag_62\n      jumpi\n        /* \"lesson/lesson03/SafeArrayManager.sol\":2739:2743  true */\n      0x01\n        /* \"lesson/lesson03/SafeArrayManager.sol\":2745:2748  mid */\n      dup3\n        /* \"lesson/lesson03/SafeArrayManager.sol\":2731:2749  return (true, mid) */\n      swap6\n      pop\n      swap6\n      pop\n      pop\n      pop\n      pop\n      pop\n      jump(tag_49)\n        /* \"lesson/lesson03/SafeArrayManager.sol\":2695:2897  if (_v == value) {... */\n    tag_62:\n        /* \"lesson/lesson03/SafeArrayManager.sol\":2778:2783  value */\n      dup7\n        /* \"lesson/lesson03/SafeArrayManager.sol\":2773:2775  _v */\n      dup2\n        /* \"lesson/lesson03/SafeArrayManager.sol\":2773:2783  _v < value */\n      lt\n        /* \"lesson/lesson03/SafeArrayManager.sol\":2770:2897  if(_v < value) {... */\n      iszero\n      tag_64\n      jumpi\n        /* \"lesson/lesson03/SafeArrayManager.sol\":2811:2814  mid */\n      dup2\n        /* \"lesson/lesson03/SafeArrayManager.sol\":2804:2814  left = mid */\n      swap4\n      pop\n        /* \"lesson/lesson03/SafeArrayManager.sol\":2770:2897  if(_v < value) {... */\n      jump(tag_65)\n    tag_64:\n        /* \"lesson/lesson03/SafeArrayManager.sol\":2844:2849  value */\n      dup7\n        /* \"lesson/lesson03/SafeArrayManager.sol\":2839:2841  _v */\n      dup2\n        /* \"lesson/lesson03/SafeArrayManager.sol\":2839:2849  _v > value */\n      gt\n        /* \"lesson/lesson03/SafeArrayManager.sol\":2835:2897  if (_v > value) {... */\n      iszero\n      tag_66\n      jumpi\n        /* \"lesson/lesson03/SafeArrayManager.sol\":2878:2881  mid */\n      dup2\n        /* \"lesson/lesson03/SafeArrayManager.sol\":2870:2881  right = mid */\n      swap3\n      pop\n        /* \"lesson/lesson03/SafeArrayManager.sol\":2835:2897  if (_v > value) {... */\n    tag_66:\n        /* \"lesson/lesson03/SafeArrayManager.sol\":2770:2897  if(_v < value) {... */\n    tag_65:\n        /* \"lesson/lesson03/SafeArrayManager.sol\":2602:2908  {... */\n      pop\n      pop\n        /* \"lesson/lesson03/SafeArrayManager.sol\":2581:2908  while(left <= right) {... */\n      jump(tag_52)\n    tag_53:\n        /* \"lesson/lesson03/SafeArrayManager.sol\":2926:2931  false */\n      0x00\n        /* \"lesson/lesson03/SafeArrayManager.sol\":2933:2934  0 */\n      0x00\n        /* \"lesson/lesson03/SafeArrayManager.sol\":2918:2935  return (false, 0) */\n      swap4\n      pop\n      swap4\n      pop\n      pop\n      pop\n        /* \"lesson/lesson03/SafeArrayManager.sol\":2404:2983  function findElementV2(uint value) public view returns (bool, uint) {... */\n    tag_49:\n      swap2\n      pop\n      swap2\n      jump\t// out\n        /* \"lesson/lesson03/SafeArrayManager.sol\":1015:1409  function removeUnordered(uint index) public {... */\n    tag_21:\n        /* \"lesson/lesson03/SafeArrayManager.sol\":1095:1106  uint256 len */\n      0x00\n        /* \"lesson/lesson03/SafeArrayManager.sol\":1109:1113  data */\n      0x00\n        /* \"lesson/lesson03/SafeArrayManager.sol\":1109:1120  data.length */\n      dup1\n      sload\n      swap1\n      pop\n        /* \"lesson/lesson03/SafeArrayManager.sol\":1095:1120  uint256 len = data.length */\n      swap1\n      pop\n        /* \"lesson/lesson03/SafeArrayManager.sol\":1142:1143  0 */\n      0x00\n        /* \"lesson/lesson03/SafeArrayManager.sol\":1135:1138  len */\n      dup2\n        /* \"lesson/lesson03/SafeArrayManager.sol\":1135:1143  len == 0 */\n      sub\n        /* \"lesson/lesson03/SafeArrayManager.sol\":1131:1234  if (len == 0) {... */\n      tag_68\n      jumpi\n        /* \"lesson/lesson03/SafeArrayManager.sol\":1160:1168  return ; */\n      pop\n      jump(tag_67)\n        /* \"lesson/lesson03/SafeArrayManager.sol\":1131:1234  if (len == 0) {... */\n    tag_68:\n        /* \"lesson/lesson03/SafeArrayManager.sol\":1194:1195  1 */\n      0x01\n        /* \"lesson/lesson03/SafeArrayManager.sol\":1187:1190  len */\n      dup2\n        /* \"lesson/lesson03/SafeArrayManager.sol\":1187:1195  len == 1 */\n      sub\n        /* \"lesson/lesson03/SafeArrayManager.sol\":1184:1234  if(len == 1) {... */\n      tag_70\n      jumpi\n        /* \"lesson/lesson03/SafeArrayManager.sol\":1212:1216  data */\n      0x00\n        /* \"lesson/lesson03/SafeArrayManager.sol\":1212:1222  data.pop() */\n      dup1\n      sload\n      dup1\n      tag_71\n      jumpi\n      tag_72\n      tag_73\n      jump\t// in\n    tag_72:\n    tag_71:\n      0x01\n      swap1\n      sub\n      dup2\n      dup2\n      swap1\n      0x00\n      mstore\n      keccak256(0x00, 0x20)\n      add\n      0x00\n      swap1\n      sstore\n      swap1\n      sstore\n        /* \"lesson/lesson03/SafeArrayManager.sol\":1184:1234  if(len == 1) {... */\n    tag_70:\n        /* \"lesson/lesson03/SafeArrayManager.sol\":1260:1263  len */\n      dup1\n        /* \"lesson/lesson03/SafeArrayManager.sol\":1252:1257  index */\n      dup3\n        /* \"lesson/lesson03/SafeArrayManager.sol\":1252:1263  index < len */\n      lt\n        /* \"lesson/lesson03/SafeArrayManager.sol\":1244:1292  require(index < len, \"index is out array legth\") */\n      tag_75\n      jumpi\n      mload(0x40)\n      0x08c379a000000000000000000000000000000000000000000000000000000000\n      dup2\n      mstore\n      0x04\n      add\n      tag_76\n      swap1\n      tag_77\n      jump\t// in\n    tag_76:\n      mload(0x40)\n      dup1\n      swap2\n      sub\n      swap1\n      revert\n    tag_75:\n        /* \"lesson/lesson03/SafeArrayManager.sol\":1351:1355  data */\n      0x00\n        /* \"lesson/lesson03/SafeArrayManager.sol\":1362:1363  1 */\n      0x01\n        /* \"lesson/lesson03/SafeArrayManager.sol\":1356:1359  len */\n      dup3\n        /* \"lesson/lesson03/SafeArrayManager.sol\":1356:1363  len - 1 */\n      tag_78\n      swap2\n      swap1\n      tag_51\n      jump\t// in\n    tag_78:\n        /* \"lesson/lesson03/SafeArrayManager.sol\":1351:1364  data[len - 1] */\n      dup2\n      sload\n      dup2\n      lt\n      tag_79\n      jumpi\n      tag_80\n      tag_60\n      jump\t// in\n    tag_80:\n    tag_79:\n      swap1\n      0x00\n      mstore\n      keccak256(0x00, 0x20)\n      add\n      sload\n        /* \"lesson/lesson03/SafeArrayManager.sol\":1337:1341  data */\n      0x00\n        /* \"lesson/lesson03/SafeArrayManager.sol\":1342:1347  index */\n      dup4\n        /* \"lesson/lesson03/SafeArrayManager.sol\":1337:1348  data[index] */\n      dup2\n      sload\n      dup2\n      lt\n      tag_82\n      jumpi\n      tag_83\n      tag_60\n      jump\t// in\n    tag_83:\n    tag_82:\n      swap1\n      0x00\n      mstore\n      keccak256(0x00, 0x20)\n      add\n        /* \"lesson/lesson03/SafeArrayManager.sol\":1337:1364  data[index] = data[len - 1] */\n      dup2\n      swap1\n      sstore\n      pop\n        /* \"lesson/lesson03/SafeArrayManager.sol\":1391:1395  data */\n      0x00\n        /* \"lesson/lesson03/SafeArrayManager.sol\":1391:1401  data.pop() */\n      dup1\n      sload\n      dup1\n      tag_85\n      jumpi\n      tag_86\n      tag_73\n      jump\t// in\n    tag_86:\n    tag_85:\n      0x01\n      swap1\n      sub\n      dup2\n      dup2\n      swap1\n      0x00\n      mstore\n      keccak256(0x00, 0x20)\n      add\n      0x00\n      swap1\n      sstore\n      swap1\n      sstore\n        /* \"lesson/lesson03/SafeArrayManager.sol\":1059:1409  {... */\n      pop\n        /* \"lesson/lesson03/SafeArrayManager.sol\":1015:1409  function removeUnordered(uint index) public {... */\n    tag_67:\n      pop\n      jump\t// out\n        /* \"lesson/lesson03/SafeArrayManager.sol\":335:492  function safePush(uint value) public {... */\n    tag_24:\n        /* \"lesson/lesson03/SafeArrayManager.sol\":150:153  100 */\n      0x64\n        /* \"lesson/lesson03/SafeArrayManager.sol\":391:395  data */\n      0x00\n        /* \"lesson/lesson03/SafeArrayManager.sol\":391:402  data.length */\n      dup1\n      sload\n      swap1\n      pop\n        /* \"lesson/lesson03/SafeArrayManager.sol\":391:414  data.length <= MAX_SIZE */\n      gt\n      iszero\n        /* \"lesson/lesson03/SafeArrayManager.sol\":383:432  require(data.length <= MAX_SIZE, \"array is full\") */\n      tag_89\n      jumpi\n      mload(0x40)\n      0x08c379a000000000000000000000000000000000000000000000000000000000\n      dup2\n      mstore\n      0x04\n      add\n      tag_90\n      swap1\n      tag_91\n      jump\t// in\n    tag_90:\n      mload(0x40)\n      dup1\n      swap2\n      sub\n      swap1\n      revert\n    tag_89:\n        /* \"lesson/lesson03/SafeArrayManager.sol\":468:472  data */\n      0x00\n        /* \"lesson/lesson03/SafeArrayManager.sol\":478:483  value */\n      dup2\n        /* \"lesson/lesson03/SafeArrayManager.sol\":468:484  data.push(value) */\n      swap1\n      dup1\n      0x01\n      dup2\n      sload\n      add\n      dup1\n      dup3\n      sstore\n      dup1\n      swap2\n      pop\n      pop\n      0x01\n      swap1\n      sub\n      swap1\n      0x00\n      mstore\n      keccak256(0x00, 0x20)\n      add\n      0x00\n      swap1\n      swap2\n      swap1\n      swap2\n      swap1\n      swap2\n      pop\n      sstore\n        /* \"lesson/lesson03/SafeArrayManager.sol\":335:492  function safePush(uint value) public {... */\n      pop\n      jump\t// out\n        /* \"lesson/lesson03/SafeArrayManager.sol\":3025:3140  function getAll() public view returns (uint[] memory) {... */\n    tag_26:\n        /* \"lesson/lesson03/SafeArrayManager.sol\":3064:3077  uint[] memory */\n      0x60\n        /* \"lesson/lesson03/SafeArrayManager.sol\":3128:3132  data */\n      0x00\n        /* \"lesson/lesson03/SafeArrayManager.sol\":3121:3132  return data */\n      dup1\n      sload\n      dup1\n      0x20\n      mul\n      0x20\n      add\n      mload(0x40)\n      swap1\n      dup2\n      add\n      0x40\n      mstore\n      dup1\n      swap3\n      swap2\n      swap1\n      dup2\n      dup2\n      mstore\n      0x20\n      add\n      dup3\n      dup1\n      sload\n      dup1\n      iszero\n      tag_94\n      jumpi\n      0x20\n      mul\n      dup3\n      add\n      swap2\n      swap1\n      0x00\n      mstore\n      keccak256(0x00, 0x20)\n      swap1\n    tag_95:\n      dup2\n      sload\n      dup2\n      mstore\n      0x20\n      add\n      swap1\n      0x01\n      add\n      swap1\n      dup1\n      dup4\n      gt\n      tag_95\n      jumpi\n    tag_94:\n      pop\n      pop\n      pop\n      pop\n      pop\n      swap1\n      pop\n        /* \"lesson/lesson03/SafeArrayManager.sol\":3025:3140  function getAll() public view returns (uint[] memory) {... */\n      swap1\n      jump\t// out\n        /* \"lesson/lesson03/SafeArrayManager.sol\":118:153  uint public constant MAX_SIZE = 100 */\n    tag_30:\n        /* \"lesson/lesson03/SafeArrayManager.sol\":150:153  100 */\n      0x64\n        /* \"lesson/lesson03/SafeArrayManager.sol\":118:153  uint public constant MAX_SIZE = 100 */\n      dup2\n      jump\t// out\n        /* \"lesson/lesson03/SafeArrayManager.sol\":1445:1959  function sumRange(uint start, uint end) public view returns (uint) {... */\n    tag_36:\n        /* \"lesson/lesson03/SafeArrayManager.sol\":1506:1510  uint */\n      0x00\n        /* \"lesson/lesson03/SafeArrayManager.sol\":1548:1559  uint256 len */\n      0x00\n        /* \"lesson/lesson03/SafeArrayManager.sol\":1562:1566  data */\n      0x00\n        /* \"lesson/lesson03/SafeArrayManager.sol\":1562:1573  data.length */\n      dup1\n      sload\n      swap1\n      pop\n        /* \"lesson/lesson03/SafeArrayManager.sol\":1548:1573  uint256 len = data.length */\n      swap1\n      pop\n        /* \"lesson/lesson03/SafeArrayManager.sol\":1602:1605  len */\n      dup1\n        /* \"lesson/lesson03/SafeArrayManager.sol\":1594:1599  start */\n      dup5\n        /* \"lesson/lesson03/SafeArrayManager.sol\":1594:1605  start < len */\n      lt\n        /* \"lesson/lesson03/SafeArrayManager.sol\":1594:1618  start < len && end < len */\n      dup1\n      iszero\n      tag_97\n      jumpi\n      pop\n        /* \"lesson/lesson03/SafeArrayManager.sol\":1615:1618  len */\n      dup1\n        /* \"lesson/lesson03/SafeArrayManager.sol\":1609:1612  end */\n      dup4\n        /* \"lesson/lesson03/SafeArrayManager.sol\":1609:1618  end < len */\n      lt\n        /* \"lesson/lesson03/SafeArrayManager.sol\":1594:1618  start < len && end < len */\n    tag_97:\n        /* \"lesson/lesson03/SafeArrayManager.sol\":1586:1642  require(start < len && end < len, \"exceed array length\") */\n      tag_98\n      jumpi\n      mload(0x40)\n      0x08c379a000000000000000000000000000000000000000000000000000000000\n      dup2\n      mstore\n      0x04\n      add\n      tag_99\n      swap1\n      tag_100\n      jump\t// in\n    tag_99:\n      mload(0x40)\n      dup1\n      swap2\n      sub\n      swap1\n      revert\n    tag_98:\n        /* \"lesson/lesson03/SafeArrayManager.sol\":1670:1673  end */\n      dup3\n        /* \"lesson/lesson03/SafeArrayManager.sol\":1661:1666  start */\n      dup5\n        /* \"lesson/lesson03/SafeArrayManager.sol\":1661:1673  start <= end */\n      gt\n      iszero\n        /* \"lesson/lesson03/SafeArrayManager.sol\":1653:1703  require(start <= end, \"start and end value error\") */\n      tag_101\n      jumpi\n      mload(0x40)\n      0x08c379a000000000000000000000000000000000000000000000000000000000\n      dup2\n      mstore\n      0x04\n      add\n      tag_102\n      swap1\n      tag_103\n      jump\t// in\n    tag_102:\n      mload(0x40)\n      dup1\n      swap2\n      sub\n      swap1\n      revert\n    tag_101:\n        /* \"lesson/lesson03/SafeArrayManager.sol\":1737:1740  end */\n      dup3\n        /* \"lesson/lesson03/SafeArrayManager.sol\":1728:1733  start */\n      dup5\n        /* \"lesson/lesson03/SafeArrayManager.sol\":1728:1740  start == end */\n      sub\n        /* \"lesson/lesson03/SafeArrayManager.sol\":1724:1787  if (start == end) {... */\n      tag_104\n      jumpi\n        /* \"lesson/lesson03/SafeArrayManager.sol\":1764:1768  data */\n      0x00\n        /* \"lesson/lesson03/SafeArrayManager.sol\":1769:1774  start */\n      dup5\n        /* \"lesson/lesson03/SafeArrayManager.sol\":1764:1775  data[start] */\n      dup2\n      sload\n      dup2\n      lt\n      tag_105\n      jumpi\n      tag_106\n      tag_60\n      jump\t// in\n    tag_106:\n    tag_105:\n      swap1\n      0x00\n      mstore\n      keccak256(0x00, 0x20)\n      add\n      sload\n        /* \"lesson/lesson03/SafeArrayManager.sol\":1757:1775  return data[start] */\n      swap2\n      pop\n      pop\n      jump(tag_96)\n        /* \"lesson/lesson03/SafeArrayManager.sol\":1724:1787  if (start == end) {... */\n    tag_104:\n        /* \"lesson/lesson03/SafeArrayManager.sol\":1797:1805  uint sum */\n      0x00\n        /* \"lesson/lesson03/SafeArrayManager.sol\":1808:1809  0 */\n      0x00\n        /* \"lesson/lesson03/SafeArrayManager.sol\":1797:1809  uint sum = 0 */\n      swap1\n      pop\n        /* \"lesson/lesson03/SafeArrayManager.sol\":1849:1855  uint i */\n      0x00\n        /* \"lesson/lesson03/SafeArrayManager.sol\":1858:1863  start */\n      dup6\n        /* \"lesson/lesson03/SafeArrayManager.sol\":1849:1863  uint i = start */\n      swap1\n      pop\n        /* \"lesson/lesson03/SafeArrayManager.sol\":1845:1921  for(uint i = start; i < end ; i++) {... */\n    tag_108:\n        /* \"lesson/lesson03/SafeArrayManager.sol\":1869:1872  end */\n      dup5\n        /* \"lesson/lesson03/SafeArrayManager.sol\":1865:1866  i */\n      dup2\n        /* \"lesson/lesson03/SafeArrayManager.sol\":1865:1872  i < end */\n      lt\n        /* \"lesson/lesson03/SafeArrayManager.sol\":1845:1921  for(uint i = start; i < end ; i++) {... */\n      iszero\n      tag_109\n      jumpi\n        /* \"lesson/lesson03/SafeArrayManager.sol\":1902:1906  data */\n      0x00\n        /* \"lesson/lesson03/SafeArrayManager.sol\":1907:1908  i */\n      dup2\n        /* \"lesson/lesson03/SafeArrayManager.sol\":1902:1909  data[i] */\n      dup2\n      sload\n      dup2\n      lt\n      tag_111\n      jumpi\n      tag_112\n      tag_60\n      jump\t// in\n    tag_112:\n    tag_111:\n      swap1\n      0x00\n      mstore\n      keccak256(0x00, 0x20)\n      add\n      sload\n        /* \"lesson/lesson03/SafeArrayManager.sol\":1895:1909  sum += data[i] */\n      dup3\n      tag_114\n      swap2\n      swap1\n      tag_57\n      jump\t// in\n    tag_114:\n      swap2\n      pop\n        /* \"lesson/lesson03/SafeArrayManager.sol\":1875:1878  i++ */\n      dup1\n      dup1\n      0x01\n      add\n      swap2\n      pop\n      pop\n        /* \"lesson/lesson03/SafeArrayManager.sol\":1845:1921  for(uint i = start; i < end ; i++) {... */\n      jump(tag_108)\n    tag_109:\n      pop\n        /* \"lesson/lesson03/SafeArrayManager.sol\":1938:1941  sum */\n      dup1\n        /* \"lesson/lesson03/SafeArrayManager.sol\":1931:1941  return sum */\n      swap3\n      pop\n      pop\n      pop\n        /* \"lesson/lesson03/SafeArrayManager.sol\":1445:1959  function sumRange(uint start, uint end) public view returns (uint) {... */\n    tag_96:\n      swap3\n      swap2\n      pop\n      pop\n      jump\t// out\n        /* \"lesson/lesson03/SafeArrayManager.sol\":528:979  function removeOrdered(uint index) public {... */\n    tag_40:\n        /* \"lesson/lesson03/SafeArrayManager.sol\":606:617  uint256 len */\n      0x00\n        /* \"lesson/lesson03/SafeArrayManager.sol\":620:624  data */\n      0x00\n        /* \"lesson/lesson03/SafeArrayManager.sol\":620:631  data.length */\n      dup1\n      sload\n      swap1\n      pop\n        /* \"lesson/lesson03/SafeArrayManager.sol\":606:631  uint256 len = data.length */\n      swap1\n      pop\n        /* \"lesson/lesson03/SafeArrayManager.sol\":653:654  0 */\n      0x00\n        /* \"lesson/lesson03/SafeArrayManager.sol\":646:649  len */\n      dup2\n        /* \"lesson/lesson03/SafeArrayManager.sol\":646:654  len == 0 */\n      sub\n        /* \"lesson/lesson03/SafeArrayManager.sol\":642:745  if (len == 0) {... */\n      tag_116\n      jumpi\n        /* \"lesson/lesson03/SafeArrayManager.sol\":671:679  return ; */\n      pop\n      jump(tag_115)\n        /* \"lesson/lesson03/SafeArrayManager.sol\":642:745  if (len == 0) {... */\n    tag_116:\n        /* \"lesson/lesson03/SafeArrayManager.sol\":705:706  1 */\n      0x01\n        /* \"lesson/lesson03/SafeArrayManager.sol\":698:701  len */\n      dup2\n        /* \"lesson/lesson03/SafeArrayManager.sol\":698:706  len == 1 */\n      sub\n        /* \"lesson/lesson03/SafeArrayManager.sol\":695:745  if(len == 1) {... */\n      tag_118\n      jumpi\n        /* \"lesson/lesson03/SafeArrayManager.sol\":723:727  data */\n      0x00\n        /* \"lesson/lesson03/SafeArrayManager.sol\":723:733  data.pop() */\n      dup1\n      sload\n      dup1\n      tag_119\n      jumpi\n      tag_120\n      tag_73\n      jump\t// in\n    tag_120:\n    tag_119:\n      0x01\n      swap1\n      sub\n      dup2\n      dup2\n      swap1\n      0x00\n      mstore\n      keccak256(0x00, 0x20)\n      add\n      0x00\n      swap1\n      sstore\n      swap1\n      sstore\n        /* \"lesson/lesson03/SafeArrayManager.sol\":695:745  if(len == 1) {... */\n    tag_118:\n        /* \"lesson/lesson03/SafeArrayManager.sol\":771:774  len */\n      dup1\n        /* \"lesson/lesson03/SafeArrayManager.sol\":763:768  index */\n      dup3\n        /* \"lesson/lesson03/SafeArrayManager.sol\":763:774  index < len */\n      lt\n        /* \"lesson/lesson03/SafeArrayManager.sol\":755:803  require(index < len, \"index is out array legth\") */\n      tag_122\n      jumpi\n      mload(0x40)\n      0x08c379a000000000000000000000000000000000000000000000000000000000\n      dup2\n      mstore\n      0x04\n      add\n      tag_123\n      swap1\n      tag_77\n      jump\t// in\n    tag_123:\n      mload(0x40)\n      dup1\n      swap2\n      sub\n      swap1\n      revert\n    tag_122:\n        /* \"lesson/lesson03/SafeArrayManager.sol\":844:850  uint i */\n      0x00\n        /* \"lesson/lesson03/SafeArrayManager.sol\":853:858  index */\n      dup3\n        /* \"lesson/lesson03/SafeArrayManager.sol\":844:858  uint i = index */\n      swap1\n      pop\n        /* \"lesson/lesson03/SafeArrayManager.sol\":839:923  for (uint i = index; i < len - 1; i++){... */\n    tag_124:\n        /* \"lesson/lesson03/SafeArrayManager.sol\":870:871  1 */\n      0x01\n        /* \"lesson/lesson03/SafeArrayManager.sol\":864:867  len */\n      dup3\n        /* \"lesson/lesson03/SafeArrayManager.sol\":864:871  len - 1 */\n      tag_127\n      swap2\n      swap1\n      tag_51\n      jump\t// in\n    tag_127:\n        /* \"lesson/lesson03/SafeArrayManager.sol\":860:861  i */\n      dup2\n        /* \"lesson/lesson03/SafeArrayManager.sol\":860:871  i < len - 1 */\n      lt\n        /* \"lesson/lesson03/SafeArrayManager.sol\":839:923  for (uint i = index; i < len - 1; i++){... */\n      iszero\n      tag_125\n      jumpi\n        /* \"lesson/lesson03/SafeArrayManager.sol\":902:906  data */\n      0x00\n        /* \"lesson/lesson03/SafeArrayManager.sol\":909:910  1 */\n      0x01\n        /* \"lesson/lesson03/SafeArrayManager.sol\":907:908  i */\n      dup3\n        /* \"lesson/lesson03/SafeArrayManager.sol\":907:910  i+1 */\n      tag_128\n      swap2\n      swap1\n      tag_57\n      jump\t// in\n    tag_128:\n        /* \"lesson/lesson03/SafeArrayManager.sol\":902:911  data[i+1] */\n      dup2\n      sload\n      dup2\n      lt\n      tag_129\n      jumpi\n      tag_130\n      tag_60\n      jump\t// in\n    tag_130:\n    tag_129:\n      swap1\n      0x00\n      mstore\n      keccak256(0x00, 0x20)\n      add\n      sload\n        /* \"lesson/lesson03/SafeArrayManager.sol\":892:896  data */\n      0x00\n        /* \"lesson/lesson03/SafeArrayManager.sol\":897:898  i */\n      dup3\n        /* \"lesson/lesson03/SafeArrayManager.sol\":892:899  data[i] */\n      dup2\n      sload\n      dup2\n      lt\n      tag_132\n      jumpi\n      tag_133\n      tag_60\n      jump\t// in\n    tag_133:\n    tag_132:\n      swap1\n      0x00\n      mstore\n      keccak256(0x00, 0x20)\n      add\n        /* \"lesson/lesson03/SafeArrayManager.sol\":892:911  data[i] = data[i+1] */\n      dup2\n      swap1\n      sstore\n      pop\n        /* \"lesson/lesson03/SafeArrayManager.sol\":873:876  i++ */\n      dup1\n      dup1\n      0x01\n      add\n      swap2\n      pop\n      pop\n        /* \"lesson/lesson03/SafeArrayManager.sol\":839:923  for (uint i = index; i < len - 1; i++){... */\n      jump(tag_124)\n    tag_125:\n      pop\n        /* \"lesson/lesson03/SafeArrayManager.sol\":961:965  data */\n      0x00\n        /* \"lesson/lesson03/SafeArrayManager.sol\":961:971  data.pop() */\n      dup1\n      sload\n      dup1\n      tag_135\n      jumpi\n      tag_136\n      tag_73\n      jump\t// in\n    tag_136:\n    tag_135:\n      0x01\n      swap1\n      sub\n      dup2\n      dup2\n      swap1\n      0x00\n      mstore\n      keccak256(0x00, 0x20)\n      add\n      0x00\n      swap1\n      sstore\n      swap1\n      sstore\n        /* \"lesson/lesson03/SafeArrayManager.sol\":570:979  {... */\n      pop\n        /* \"lesson/lesson03/SafeArrayManager.sol\":528:979  function removeOrdered(uint index) public {... */\n    tag_115:\n      pop\n      jump\t// out\n        /* \"lesson/lesson03/SafeArrayManager.sol\":1995:2372  function findElement(uint value) public view returns (bool, uint) {... */\n    tag_43:\n        /* \"lesson/lesson03/SafeArrayManager.sol\":2049:2053  bool */\n      0x00\n        /* \"lesson/lesson03/SafeArrayManager.sol\":2055:2059  uint */\n      0x00\n        /* \"lesson/lesson03/SafeArrayManager.sol\":2097:2108  uint256 len */\n      0x00\n        /* \"lesson/lesson03/SafeArrayManager.sol\":2111:2115  data */\n      0x00\n        /* \"lesson/lesson03/SafeArrayManager.sol\":2111:2122  data.length */\n      dup1\n      sload\n      swap1\n      pop\n        /* \"lesson/lesson03/SafeArrayManager.sol\":2097:2122  uint256 len = data.length */\n      swap1\n      pop\n        /* \"lesson/lesson03/SafeArrayManager.sol\":2138:2144  uint i */\n      0x00\n        /* \"lesson/lesson03/SafeArrayManager.sol\":2147:2148  0 */\n      0x00\n        /* \"lesson/lesson03/SafeArrayManager.sol\":2138:2148  uint i = 0 */\n      swap1\n      pop\n        /* \"lesson/lesson03/SafeArrayManager.sol\":2133:2297  for (uint i = 0; i < len; i++) {... */\n    tag_139:\n        /* \"lesson/lesson03/SafeArrayManager.sol\":2154:2157  len */\n      dup2\n        /* \"lesson/lesson03/SafeArrayManager.sol\":2150:2151  i */\n      dup2\n        /* \"lesson/lesson03/SafeArrayManager.sol\":2150:2157  i < len */\n      lt\n        /* \"lesson/lesson03/SafeArrayManager.sol\":2133:2297  for (uint i = 0; i < len; i++) {... */\n      iszero\n      tag_140\n      jumpi\n        /* \"lesson/lesson03/SafeArrayManager.sol\":2179:2190  uint _value */\n      0x00\n        /* \"lesson/lesson03/SafeArrayManager.sol\":2193:2197  data */\n      0x00\n        /* \"lesson/lesson03/SafeArrayManager.sol\":2198:2199  i */\n      dup3\n        /* \"lesson/lesson03/SafeArrayManager.sol\":2193:2200  data[i] */\n      dup2\n      sload\n      dup2\n      lt\n      tag_142\n      jumpi\n      tag_143\n      tag_60\n      jump\t// in\n    tag_143:\n    tag_142:\n      swap1\n      0x00\n      mstore\n      keccak256(0x00, 0x20)\n      add\n      sload\n        /* \"lesson/lesson03/SafeArrayManager.sol\":2179:2200  uint _value = data[i] */\n      swap1\n      pop\n        /* \"lesson/lesson03/SafeArrayManager.sol\":2229:2234  value */\n      dup6\n        /* \"lesson/lesson03/SafeArrayManager.sol\":2219:2225  _value */\n      dup2\n        /* \"lesson/lesson03/SafeArrayManager.sol\":2219:2234  _value == value */\n      sub\n        /* \"lesson/lesson03/SafeArrayManager.sol\":2215:2286  if (_value == value){... */\n      tag_145\n      jumpi\n        /* \"lesson/lesson03/SafeArrayManager.sol\":2262:2266  true */\n      0x01\n        /* \"lesson/lesson03/SafeArrayManager.sol\":2268:2269  i */\n      dup3\n        /* \"lesson/lesson03/SafeArrayManager.sol\":2254:2270  return (true, i) */\n      swap5\n      pop\n      swap5\n      pop\n      pop\n      pop\n      pop\n      jump(tag_138)\n        /* \"lesson/lesson03/SafeArrayManager.sol\":2215:2286  if (_value == value){... */\n    tag_145:\n        /* \"lesson/lesson03/SafeArrayManager.sol\":2164:2297  {... */\n      pop\n        /* \"lesson/lesson03/SafeArrayManager.sol\":2159:2162  i++ */\n      dup1\n      dup1\n      0x01\n      add\n      swap2\n      pop\n      pop\n        /* \"lesson/lesson03/SafeArrayManager.sol\":2133:2297  for (uint i = 0; i < len; i++) {... */\n      jump(tag_139)\n    tag_140:\n      pop\n        /* \"lesson/lesson03/SafeArrayManager.sol\":2315:2320  false */\n      0x00\n        /* \"lesson/lesson03/SafeArrayManager.sol\":2322:2323  0 */\n      0x00\n        /* \"lesson/lesson03/SafeArrayManager.sol\":2307:2324  return (false, 0) */\n      swap3\n      pop\n      swap3\n      pop\n      pop\n        /* \"lesson/lesson03/SafeArrayManager.sol\":1995:2372  function findElement(uint value) public view returns (bool, uint) {... */\n    tag_138:\n      swap2\n      pop\n      swap2\n      jump\t// out\n        /* \"lesson/lesson03/SafeArrayManager.sol\":93:111  uint[] public data */\n    tag_47:\n      0x00\n      dup2\n      dup2\n      sload\n      dup2\n      lt\n      tag_146\n      jumpi\n      0x00\n      dup1\n      revert\n    tag_146:\n      swap1\n      0x00\n      mstore\n      keccak256(0x00, 0x20)\n      add\n      0x00\n      swap2\n      pop\n      swap1\n      pop\n      sload\n      dup2\n      jump\t// out\n        /* \"#utility.yul\":88:205   */\n    tag_149:\n        /* \"#utility.yul\":197:198   */\n      0x00\n        /* \"#utility.yul\":194:195   */\n      0x00\n        /* \"#utility.yul\":187:199   */\n      revert\n        /* \"#utility.yul\":334:411   */\n    tag_151:\n        /* \"#utility.yul\":371:378   */\n      0x00\n        /* \"#utility.yul\":400:405   */\n      dup2\n        /* \"#utility.yul\":389:405   */\n      swap1\n      pop\n        /* \"#utility.yul\":334:411   */\n      swap2\n      swap1\n      pop\n      jump\t// out\n        /* \"#utility.yul\":417:539   */\n    tag_152:\n        /* \"#utility.yul\":490:514   */\n      tag_181\n        /* \"#utility.yul\":508:513   */\n      dup2\n        /* \"#utility.yul\":490:514   */\n      tag_151\n      jump\t// in\n    tag_181:\n        /* \"#utility.yul\":483:488   */\n      dup2\n        /* \"#utility.yul\":480:515   */\n      eq\n        /* \"#utility.yul\":470:533   */\n      tag_182\n      jumpi\n        /* \"#utility.yul\":529:530   */\n      0x00\n        /* \"#utility.yul\":526:527   */\n      0x00\n        /* \"#utility.yul\":519:531   */\n      revert\n        /* \"#utility.yul\":470:533   */\n    tag_182:\n        /* \"#utility.yul\":417:539   */\n      pop\n      jump\t// out\n        /* \"#utility.yul\":545:684   */\n    tag_153:\n        /* \"#utility.yul\":591:596   */\n      0x00\n        /* \"#utility.yul\":629:635   */\n      dup2\n        /* \"#utility.yul\":616:636   */\n      calldataload\n        /* \"#utility.yul\":607:636   */\n      swap1\n      pop\n        /* \"#utility.yul\":645:678   */\n      tag_184\n        /* \"#utility.yul\":672:677   */\n      dup2\n        /* \"#utility.yul\":645:678   */\n      tag_152\n      jump\t// in\n    tag_184:\n        /* \"#utility.yul\":545:684   */\n      swap3\n      swap2\n      pop\n      pop\n      jump\t// out\n        /* \"#utility.yul\":690:1019   */\n    tag_15:\n        /* \"#utility.yul\":749:755   */\n      0x00\n        /* \"#utility.yul\":798:800   */\n      0x20\n        /* \"#utility.yul\":786:795   */\n      dup3\n        /* \"#utility.yul\":777:784   */\n      dup5\n        /* \"#utility.yul\":773:796   */\n      sub\n        /* \"#utility.yul\":769:801   */\n      slt\n        /* \"#utility.yul\":766:885   */\n      iszero\n      tag_186\n      jumpi\n        /* \"#utility.yul\":804:883   */\n      tag_187\n      tag_149\n      jump\t// in\n    tag_187:\n        /* \"#utility.yul\":766:885   */\n    tag_186:\n        /* \"#utility.yul\":924:925   */\n      0x00\n        /* \"#utility.yul\":949:1002   */\n      tag_188\n        /* \"#utility.yul\":994:1001   */\n      dup5\n        /* \"#utility.yul\":985:991   */\n      dup3\n        /* \"#utility.yul\":974:983   */\n      dup6\n        /* \"#utility.yul\":970:992   */\n      add\n        /* \"#utility.yul\":949:1002   */\n      tag_153\n      jump\t// in\n    tag_188:\n        /* \"#utility.yul\":939:1002   */\n      swap2\n      pop\n        /* \"#utility.yul\":895:1012   */\n      pop\n        /* \"#utility.yul\":690:1019   */\n      swap3\n      swap2\n      pop\n      pop\n      jump\t// out\n        /* \"#utility.yul\":1025:1115   */\n    tag_154:\n        /* \"#utility.yul\":1059:1066   */\n      0x00\n        /* \"#utility.yul\":1102:1107   */\n      dup2\n        /* \"#utility.yul\":1095:1108   */\n      iszero\n        /* \"#utility.yul\":1088:1109   */\n      iszero\n        /* \"#utility.yul\":1077:1109   */\n      swap1\n      pop\n        /* \"#utility.yul\":1025:1115   */\n      swap2\n      swap1\n      pop\n      jump\t// out\n        /* \"#utility.yul\":1121:1230   */\n    tag_155:\n        /* \"#utility.yul\":1202:1223   */\n      tag_191\n        /* \"#utility.yul\":1217:1222   */\n      dup2\n        /* \"#utility.yul\":1202:1223   */\n      tag_154\n      jump\t// in\n    tag_191:\n        /* \"#utility.yul\":1197:1200   */\n      dup3\n        /* \"#utility.yul\":1190:1224   */\n      mstore\n        /* \"#utility.yul\":1121:1230   */\n      pop\n      pop\n      jump\t// out\n        /* \"#utility.yul\":1236:1354   */\n    tag_156:\n        /* \"#utility.yul\":1323:1347   */\n      tag_193\n        /* \"#utility.yul\":1341:1346   */\n      dup2\n        /* \"#utility.yul\":1323:1347   */\n      tag_151\n      jump\t// in\n    tag_193:\n        /* \"#utility.yul\":1318:1321   */\n      dup3\n        /* \"#utility.yul\":1311:1348   */\n      mstore\n        /* \"#utility.yul\":1236:1354   */\n      pop\n      pop\n      jump\t// out\n        /* \"#utility.yul\":1360:1680   */\n    tag_18:\n        /* \"#utility.yul\":1475:1479   */\n      0x00\n        /* \"#utility.yul\":1513:1515   */\n      0x40\n        /* \"#utility.yul\":1502:1511   */\n      dup3\n        /* \"#utility.yul\":1498:1516   */\n      add\n        /* \"#utility.yul\":1490:1516   */\n      swap1\n      pop\n        /* \"#utility.yul\":1526:1591   */\n      tag_195\n        /* \"#utility.yul\":1588:1589   */\n      0x00\n        /* \"#utility.yul\":1577:1586   */\n      dup4\n        /* \"#utility.yul\":1573:1590   */\n      add\n        /* \"#utility.yul\":1564:1570   */\n      dup6\n        /* \"#utility.yul\":1526:1591   */\n      tag_155\n      jump\t// in\n    tag_195:\n        /* \"#utility.yul\":1601:1673   */\n      tag_196\n        /* \"#utility.yul\":1669:1671   */\n      0x20\n        /* \"#utility.yul\":1658:1667   */\n      dup4\n        /* \"#utility.yul\":1654:1672   */\n      add\n        /* \"#utility.yul\":1645:1651   */\n      dup5\n        /* \"#utility.yul\":1601:1673   */\n      tag_156\n      jump\t// in\n    tag_196:\n        /* \"#utility.yul\":1360:1680   */\n      swap4\n      swap3\n      pop\n      pop\n      pop\n      jump\t// out\n        /* \"#utility.yul\":1686:1800   */\n    tag_157:\n        /* \"#utility.yul\":1753:1759   */\n      0x00\n        /* \"#utility.yul\":1787:1792   */\n      dup2\n        /* \"#utility.yul\":1781:1793   */\n      mload\n        /* \"#utility.yul\":1771:1793   */\n      swap1\n      pop\n        /* \"#utility.yul\":1686:1800   */\n      swap2\n      swap1\n      pop\n      jump\t// out\n        /* \"#utility.yul\":1806:1990   */\n    tag_158:\n        /* \"#utility.yul\":1905:1916   */\n      0x00\n        /* \"#utility.yul\":1939:1945   */\n      dup3\n        /* \"#utility.yul\":1934:1937   */\n      dup3\n        /* \"#utility.yul\":1927:1946   */\n      mstore\n        /* \"#utility.yul\":1979:1983   */\n      0x20\n        /* \"#utility.yul\":1974:1977   */\n      dup3\n        /* \"#utility.yul\":1970:1984   */\n      add\n        /* \"#utility.yul\":1955:1984   */\n      swap1\n      pop\n        /* \"#utility.yul\":1806:1990   */\n      swap3\n      swap2\n      pop\n      pop\n      jump\t// out\n        /* \"#utility.yul\":1996:2128   */\n    tag_159:\n        /* \"#utility.yul\":2063:2067   */\n      0x00\n        /* \"#utility.yul\":2086:2089   */\n      dup2\n        /* \"#utility.yul\":2078:2089   */\n      swap1\n      pop\n        /* \"#utility.yul\":2116:2120   */\n      0x20\n        /* \"#utility.yul\":2111:2114   */\n      dup3\n        /* \"#utility.yul\":2107:2121   */\n      add\n        /* \"#utility.yul\":2099:2121   */\n      swap1\n      pop\n        /* \"#utility.yul\":1996:2128   */\n      swap2\n      swap1\n      pop\n      jump\t// out\n        /* \"#utility.yul\":2134:2242   */\n    tag_160:\n        /* \"#utility.yul\":2211:2235   */\n      tag_201\n        /* \"#utility.yul\":2229:2234   */\n      dup2\n        /* \"#utility.yul\":2211:2235   */\n      tag_151\n      jump\t// in\n    tag_201:\n        /* \"#utility.yul\":2206:2209   */\n      dup3\n        /* \"#utility.yul\":2199:2236   */\n      mstore\n        /* \"#utility.yul\":2134:2242   */\n      pop\n      pop\n      jump\t// out\n        /* \"#utility.yul\":2248:2427   */\n    tag_161:\n        /* \"#utility.yul\":2317:2327   */\n      0x00\n        /* \"#utility.yul\":2338:2384   */\n      tag_203\n        /* \"#utility.yul\":2380:2383   */\n      dup4\n        /* \"#utility.yul\":2372:2378   */\n      dup4\n        /* \"#utility.yul\":2338:2384   */\n      tag_160\n      jump\t// in\n    tag_203:\n        /* \"#utility.yul\":2416:2420   */\n      0x20\n        /* \"#utility.yul\":2411:2414   */\n      dup4\n        /* \"#utility.yul\":2407:2421   */\n      add\n        /* \"#utility.yul\":2393:2421   */\n      swap1\n      pop\n        /* \"#utility.yul\":2248:2427   */\n      swap3\n      swap2\n      pop\n      pop\n      jump\t// out\n        /* \"#utility.yul\":2433:2546   */\n    tag_162:\n        /* \"#utility.yul\":2503:2507   */\n      0x00\n        /* \"#utility.yul\":2535:2539   */\n      0x20\n        /* \"#utility.yul\":2530:2533   */\n      dup3\n        /* \"#utility.yul\":2526:2540   */\n      add\n        /* \"#utility.yul\":2518:2540   */\n      swap1\n      pop\n        /* \"#utility.yul\":2433:2546   */\n      swap2\n      swap1\n      pop\n      jump\t// out\n        /* \"#utility.yul\":2582:3314   */\n    tag_163:\n        /* \"#utility.yul\":2701:2704   */\n      0x00\n        /* \"#utility.yul\":2730:2784   */\n      tag_206\n        /* \"#utility.yul\":2778:2783   */\n      dup3\n        /* \"#utility.yul\":2730:2784   */\n      tag_157\n      jump\t// in\n    tag_206:\n        /* \"#utility.yul\":2800:2886   */\n      tag_207\n        /* \"#utility.yul\":2879:2885   */\n      dup2\n        /* \"#utility.yul\":2874:2877   */\n      dup6\n        /* \"#utility.yul\":2800:2886   */\n      tag_158\n      jump\t// in\n    tag_207:\n        /* \"#utility.yul\":2793:2886   */\n      swap4\n      pop\n        /* \"#utility.yul\":2910:2966   */\n      tag_208\n        /* \"#utility.yul\":2960:2965   */\n      dup4\n        /* \"#utility.yul\":2910:2966   */\n      tag_159\n      jump\t// in\n    tag_208:\n        /* \"#utility.yul\":2989:2996   */\n      dup1\n        /* \"#utility.yul\":3020:3021   */\n      0x00\n        /* \"#utility.yul\":3005:3289   */\n    tag_209:\n        /* \"#utility.yul\":3030:3036   */\n      dup4\n        /* \"#utility.yul\":3027:3028   */\n      dup2\n        /* \"#utility.yul\":3024:3037   */\n      lt\n        /* \"#utility.yul\":3005:3289   */\n      iszero\n      tag_211\n      jumpi\n        /* \"#utility.yul\":3106:3112   */\n      dup2\n        /* \"#utility.yul\":3100:3113   */\n      mload\n        /* \"#utility.yul\":3133:3196   */\n      tag_212\n        /* \"#utility.yul\":3192:3195   */\n      dup9\n        /* \"#utility.yul\":3177:3190   */\n      dup3\n        /* \"#utility.yul\":3133:3196   */\n      tag_161\n      jump\t// in\n    tag_212:\n        /* \"#utility.yul\":3126:3196   */\n      swap8\n      pop\n        /* \"#utility.yul\":3219:3279   */\n      tag_213\n        /* \"#utility.yul\":3272:3278   */\n      dup4\n        /* \"#utility.yul\":3219:3279   */\n      tag_162\n      jump\t// in\n    tag_213:\n        /* \"#utility.yul\":3209:3279   */\n      swap3\n      pop\n        /* \"#utility.yul\":3065:3289   */\n      pop\n        /* \"#utility.yul\":3052:3053   */\n      0x01\n        /* \"#utility.yul\":3049:3050   */\n      dup2\n        /* \"#utility.yul\":3045:3054   */\n      add\n        /* \"#utility.yul\":3040:3054   */\n      swap1\n      pop\n        /* \"#utility.yul\":3005:3289   */\n      jump(tag_209)\n    tag_211:\n        /* \"#utility.yul\":3009:3023   */\n      pop\n        /* \"#utility.yul\":3305:3308   */\n      dup6\n        /* \"#utility.yul\":3298:3308   */\n      swap4\n      pop\n        /* \"#utility.yul\":2706:3314   */\n      pop\n      pop\n      pop\n        /* \"#utility.yul\":2582:3314   */\n      swap3\n      swap2\n      pop\n      pop\n      jump\t// out\n        /* \"#utility.yul\":3320:3693   */\n    tag_28:\n        /* \"#utility.yul\":3463:3467   */\n      0x00\n        /* \"#utility.yul\":3501:3503   */\n      0x20\n        /* \"#utility.yul\":3490:3499   */\n      dup3\n        /* \"#utility.yul\":3486:3504   */\n      add\n        /* \"#utility.yul\":3478:3504   */\n      swap1\n      pop\n        /* \"#utility.yul\":3550:3559   */\n      dup2\n        /* \"#utility.yul\":3544:3548   */\n      dup2\n        /* \"#utility.yul\":3540:3560   */\n      sub\n        /* \"#utility.yul\":3536:3537   */\n      0x00\n        /* \"#utility.yul\":3525:3534   */\n      dup4\n        /* \"#utility.yul\":3521:3538   */\n      add\n        /* \"#utility.yul\":3514:3561   */\n      mstore\n        /* \"#utility.yul\":3578:3686   */\n      tag_215\n        /* \"#utility.yul\":3681:3685   */\n      dup2\n        /* \"#utility.yul\":3672:3678   */\n      dup5\n        /* \"#utility.yul\":3578:3686   */\n      tag_163\n      jump\t// in\n    tag_215:\n        /* \"#utility.yul\":3570:3686   */\n      swap1\n      pop\n        /* \"#utility.yul\":3320:3693   */\n      swap3\n      swap2\n      pop\n      pop\n      jump\t// out\n        /* \"#utility.yul\":3699:3921   */\n    tag_32:\n        /* \"#utility.yul\":3792:3796   */\n      0x00\n        /* \"#utility.yul\":3830:3832   */\n      0x20\n        /* \"#utility.yul\":3819:3828   */\n      dup3\n        /* \"#utility.yul\":3815:3833   */\n      add\n        /* \"#utility.yul\":3807:3833   */\n      swap1\n      pop\n        /* \"#utility.yul\":3843:3914   */\n      tag_217\n        /* \"#utility.yul\":3911:3912   */\n      0x00\n        /* \"#utility.yul\":3900:3909   */\n      dup4\n        /* \"#utility.yul\":3896:3913   */\n      add\n        /* \"#utility.yul\":3887:3893   */\n      dup5\n        /* \"#utility.yul\":3843:3914   */\n      tag_156\n      jump\t// in\n    tag_217:\n        /* \"#utility.yul\":3699:3921   */\n      swap3\n      swap2\n      pop\n      pop\n      jump\t// out\n        /* \"#utility.yul\":3927:4401   */\n    tag_35:\n        /* \"#utility.yul\":3995:4001   */\n      0x00\n        /* \"#utility.yul\":4003:4009   */\n      0x00\n        /* \"#utility.yul\":4052:4054   */\n      0x40\n        /* \"#utility.yul\":4040:4049   */\n      dup4\n        /* \"#utility.yul\":4031:4038   */\n      dup6\n        /* \"#utility.yul\":4027:4050   */\n      sub\n        /* \"#utility.yul\":4023:4055   */\n      slt\n        /* \"#utility.yul\":4020:4139   */\n      iszero\n      tag_219\n      jumpi\n        /* \"#utility.yul\":4058:4137   */\n      tag_220\n      tag_149\n      jump\t// in\n    tag_220:\n        /* \"#utility.yul\":4020:4139   */\n    tag_219:\n        /* \"#utility.yul\":4178:4179   */\n      0x00\n        /* \"#utility.yul\":4203:4256   */\n      tag_221\n        /* \"#utility.yul\":4248:4255   */\n      dup6\n        /* \"#utility.yul\":4239:4245   */\n      dup3\n        /* \"#utility.yul\":4228:4237   */\n      dup7\n        /* \"#utility.yul\":4224:4246   */\n      add\n        /* \"#utility.yul\":4203:4256   */\n      tag_153\n      jump\t// in\n    tag_221:\n        /* \"#utility.yul\":4193:4256   */\n      swap3\n      pop\n        /* \"#utility.yul\":4149:4266   */\n      pop\n        /* \"#utility.yul\":4305:4307   */\n      0x20\n        /* \"#utility.yul\":4331:4384   */\n      tag_222\n        /* \"#utility.yul\":4376:4383   */\n      dup6\n        /* \"#utility.yul\":4367:4373   */\n      dup3\n        /* \"#utility.yul\":4356:4365   */\n      dup7\n        /* \"#utility.yul\":4352:4374   */\n      add\n        /* \"#utility.yul\":4331:4384   */\n      tag_153\n      jump\t// in\n    tag_222:\n        /* \"#utility.yul\":4321:4384   */\n      swap2\n      pop\n        /* \"#utility.yul\":4276:4394   */\n      pop\n        /* \"#utility.yul\":3927:4401   */\n      swap3\n      pop\n      swap3\n      swap1\n      pop\n      jump\t// out\n        /* \"#utility.yul\":4407:4587   */\n    tag_164:\n        /* \"#utility.yul\":4455:4532   */\n      0x4e487b7100000000000000000000000000000000000000000000000000000000\n        /* \"#utility.yul\":4452:4453   */\n      0x00\n        /* \"#utility.yul\":4445:4533   */\n      mstore\n        /* \"#utility.yul\":4552:4556   */\n      0x11\n        /* \"#utility.yul\":4549:4550   */\n      0x04\n        /* \"#utility.yul\":4542:4557   */\n      mstore\n        /* \"#utility.yul\":4576:4580   */\n      0x24\n        /* \"#utility.yul\":4573:4574   */\n      0x00\n        /* \"#utility.yul\":4566:4581   */\n      revert\n        /* \"#utility.yul\":4593:4787   */\n    tag_51:\n        /* \"#utility.yul\":4633:4637   */\n      0x00\n        /* \"#utility.yul\":4653:4673   */\n      tag_225\n        /* \"#utility.yul\":4671:4672   */\n      dup3\n        /* \"#utility.yul\":4653:4673   */\n      tag_151\n      jump\t// in\n    tag_225:\n        /* \"#utility.yul\":4648:4673   */\n      swap2\n      pop\n        /* \"#utility.yul\":4687:4707   */\n      tag_226\n        /* \"#utility.yul\":4705:4706   */\n      dup4\n        /* \"#utility.yul\":4687:4707   */\n      tag_151\n      jump\t// in\n    tag_226:\n        /* \"#utility.yul\":4682:4707   */\n      swap3\n      pop\n        /* \"#utility.yul\":4731:4732   */\n      dup3\n        /* \"#utility.yul\":4728:4729   */\n      dup3\n        /* \"#utility.yul\":4724:4733   */\n      sub\n        /* \"#utility.yul\":4716:4733   */\n      swap1\n      pop\n        /* \"#utility.yul\":4755:4756   */\n      dup2\n        /* \"#utility.yul\":4749:4753   */\n      dup2\n        /* \"#utility.yul\":4746:4757   */\n      gt\n        /* \"#utility.yul\":4743:4780   */\n      iszero\n      tag_227\n      jumpi\n        /* \"#utility.yul\":4760:4778   */\n      tag_228\n      tag_164\n      jump\t// in\n    tag_228:\n        /* \"#utility.yul\":4743:4780   */\n    tag_227:\n        /* \"#utility.yul\":4593:4787   */\n      swap3\n      swap2\n      pop\n      pop\n      jump\t// out\n        /* \"#utility.yul\":4793:4973   */\n    tag_165:\n        /* \"#utility.yul\":4841:4918   */\n      0x4e487b7100000000000000000000000000000000000000000000000000000000\n        /* \"#utility.yul\":4838:4839   */\n      0x00\n        /* \"#utility.yul\":4831:4919   */\n      mstore\n        /* \"#utility.yul\":4938:4942   */\n      0x12\n        /* \"#utility.yul\":4935:4936   */\n      0x04\n        /* \"#utility.yul\":4928:4943   */\n      mstore\n        /* \"#utility.yul\":4962:4966   */\n      0x24\n        /* \"#utility.yul\":4959:4960   */\n      0x00\n        /* \"#utility.yul\":4952:4967   */\n      revert\n        /* \"#utility.yul\":4979:5164   */\n    tag_55:\n        /* \"#utility.yul\":5019:5020   */\n      0x00\n        /* \"#utility.yul\":5036:5056   */\n      tag_231\n        /* \"#utility.yul\":5054:5055   */\n      dup3\n        /* \"#utility.yul\":5036:5056   */\n      tag_151\n      jump\t// in\n    tag_231:\n        /* \"#utility.yul\":5031:5056   */\n      swap2\n      pop\n        /* \"#utility.yul\":5070:5090   */\n      tag_232\n        /* \"#utility.yul\":5088:5089   */\n      dup4\n        /* \"#utility.yul\":5070:5090   */\n      tag_151\n      jump\t// in\n    tag_232:\n        /* \"#utility.yul\":5065:5090   */\n      swap3\n      pop\n        /* \"#utility.yul\":5109:5110   */\n      dup3\n        /* \"#utility.yul\":5099:5134   */\n      tag_233\n      jumpi\n        /* \"#utility.yul\":5114:5132   */\n      tag_234\n      tag_165\n      jump\t// in\n    tag_234:\n        /* \"#utility.yul\":5099:5134   */\n    tag_233:\n        /* \"#utility.yul\":5156:5157   */\n      dup3\n        /* \"#utility.yul\":5153:5154   */\n      dup3\n        /* \"#utility.yul\":5149:5158   */\n      div\n        /* \"#utility.yul\":5144:5158   */\n      swap1\n      pop\n        /* \"#utility.yul\":4979:5164   */\n      swap3\n      swap2\n      pop\n      pop\n      jump\t// out\n        /* \"#utility.yul\":5170:5361   */\n    tag_57:\n        /* \"#utility.yul\":5210:5213   */\n      0x00\n        /* \"#utility.yul\":5229:5249   */\n      tag_236\n        /* \"#utility.yul\":5247:5248   */\n      dup3\n        /* \"#utility.yul\":5229:5249   */\n      tag_151\n      jump\t// in\n    tag_236:\n        /* \"#utility.yul\":5224:5249   */\n      swap2\n      pop\n        /* \"#utility.yul\":5263:5283   */\n      tag_237\n        /* \"#utility.yul\":5281:5282   */\n      dup4\n        /* \"#utility.yul\":5263:5283   */\n      tag_151\n      jump\t// in\n    tag_237:\n        /* \"#utility.yul\":5258:5283   */\n      swap3\n      pop\n        /* \"#utility.yul\":5306:5307   */\n      dup3\n        /* \"#utility.yul\":5303:5304   */\n      dup3\n        /* \"#utility.yul\":5299:5308   */\n      add\n        /* \"#utility.yul\":5292:5308   */\n      swap1\n      pop\n        /* \"#utility.yul\":5327:5330   */\n      dup1\n        /* \"#utility.yul\":5324:5325   */\n      dup3\n        /* \"#utility.yul\":5321:5331   */\n      gt\n        /* \"#utility.yul\":5318:5354   */\n      iszero\n      tag_238\n      jumpi\n        /* \"#utility.yul\":5334:5352   */\n      tag_239\n      tag_164\n      jump\t// in\n    tag_239:\n        /* \"#utility.yul\":5318:5354   */\n    tag_238:\n        /* \"#utility.yul\":5170:5361   */\n      swap3\n      swap2\n      pop\n      pop\n      jump\t// out\n        /* \"#utility.yul\":5367:5547   */\n    tag_60:\n        /* \"#utility.yul\":5415:5492   */\n      0x4e487b7100000000000000000000000000000000000000000000000000000000\n        /* \"#utility.yul\":5412:5413   */\n      0x00\n        /* \"#utility.yul\":5405:5493   */\n      mstore\n        /* \"#utility.yul\":5512:5516   */\n      0x32\n        /* \"#utility.yul\":5509:5510   */\n      0x04\n        /* \"#utility.yul\":5502:5517   */\n      mstore\n        /* \"#utility.yul\":5536:5540   */\n      0x24\n        /* \"#utility.yul\":5533:5534   */\n      0x00\n        /* \"#utility.yul\":5526:5541   */\n      revert\n        /* \"#utility.yul\":5553:5733   */\n    tag_73:\n        /* \"#utility.yul\":5601:5678   */\n      0x4e487b7100000000000000000000000000000000000000000000000000000000\n        /* \"#utility.yul\":5598:5599   */\n      0x00\n        /* \"#utility.yul\":5591:5679   */\n      mstore\n        /* \"#utility.yul\":5698:5702   */\n      0x31\n        /* \"#utility.yul\":5695:5696   */\n      0x04\n        /* \"#utility.yul\":5688:5703   */\n      mstore\n        /* \"#utility.yul\":5722:5726   */\n      0x24\n        /* \"#utility.yul\":5719:5720   */\n      0x00\n        /* \"#utility.yul\":5712:5727   */\n      revert\n        /* \"#utility.yul\":5739:5908   */\n    tag_166:\n        /* \"#utility.yul\":5823:5834   */\n      0x00\n        /* \"#utility.yul\":5857:5863   */\n      dup3\n        /* \"#utility.yul\":5852:5855   */\n      dup3\n        /* \"#utility.yul\":5845:5864   */\n      mstore\n        /* \"#utility.yul\":5897:5901   */\n      0x20\n        /* \"#utility.yul\":5892:5895   */\n      dup3\n        /* \"#utility.yul\":5888:5902   */\n      add\n        /* \"#utility.yul\":5873:5902   */\n      swap1\n      pop\n        /* \"#utility.yul\":5739:5908   */\n      swap3\n      swap2\n      pop\n      pop\n      jump\t// out\n        /* \"#utility.yul\":5914:6088   */\n    tag_167:\n        /* \"#utility.yul\":6054:6080   */\n      0x696e646578206973206f7574206172726179206c656774680000000000000000\n        /* \"#utility.yul\":6050:6051   */\n      0x00\n        /* \"#utility.yul\":6042:6048   */\n      dup3\n        /* \"#utility.yul\":6038:6052   */\n      add\n        /* \"#utility.yul\":6031:6081   */\n      mstore\n        /* \"#utility.yul\":5914:6088   */\n      pop\n      jump\t// out\n        /* \"#utility.yul\":6094:6460   */\n    tag_168:\n        /* \"#utility.yul\":6236:6239   */\n      0x00\n        /* \"#utility.yul\":6257:6324   */\n      tag_245\n        /* \"#utility.yul\":6321:6323   */\n      0x18\n        /* \"#utility.yul\":6316:6319   */\n      dup4\n        /* \"#utility.yul\":6257:6324   */\n      tag_166\n      jump\t// in\n    tag_245:\n        /* \"#utility.yul\":6250:6324   */\n      swap2\n      pop\n        /* \"#utility.yul\":6333:6426   */\n      tag_246\n        /* \"#utility.yul\":6422:6425   */\n      dup3\n        /* \"#utility.yul\":6333:6426   */\n      tag_167\n      jump\t// in\n    tag_246:\n        /* \"#utility.yul\":6451:6453   */\n      0x20\n        /* \"#utility.yul\":6446:6449   */\n      dup3\n        /* \"#utility.yul\":6442:6454   */\n      add\n        /* \"#utility.yul\":6435:6454   */\n      swap1\n      pop\n        /* \"#utility.yul\":6094:6460   */\n      swap2\n      swap1\n      pop\n      jump\t// out\n        /* \"#utility.yul\":6466:6885   */\n    tag_77:\n        /* \"#utility.yul\":6632:6636   */\n      0x00\n        /* \"#utility.yul\":6670:6672   */\n      0x20\n        /* \"#utility.yul\":6659:6668   */\n      dup3\n        /* \"#utility.yul\":6655:6673   */\n      add\n        /* \"#utility.yul\":6647:6673   */\n      swap1\n      pop\n        /* \"#utility.yul\":6719:6728   */\n      dup2\n        /* \"#utility.yul\":6713:6717   */\n      dup2\n        /* \"#utility.yul\":6709:6729   */\n      sub\n        /* \"#utility.yul\":6705:6706   */\n      0x00\n        /* \"#utility.yul\":6694:6703   */\n      dup4\n        /* \"#utility.yul\":6690:6707   */\n      add\n        /* \"#utility.yul\":6683:6730   */\n      mstore\n        /* \"#utility.yul\":6747:6878   */\n      tag_248\n        /* \"#utility.yul\":6873:6877   */\n      dup2\n        /* \"#utility.yul\":6747:6878   */\n      tag_168\n      jump\t// in\n    tag_248:\n        /* \"#utility.yul\":6739:6878   */\n      swap1\n      pop\n        /* \"#utility.yul\":6466:6885   */\n      swap2\n      swap1\n      pop\n      jump\t// out\n        /* \"#utility.yul\":6891:7054   */\n    tag_169:\n        /* \"#utility.yul\":7031:7046   */\n      0x61727261792069732066756c6c00000000000000000000000000000000000000\n        /* \"#utility.yul\":7027:7028   */\n      0x00\n        /* \"#utility.yul\":7019:7025   */\n      dup3\n        /* \"#utility.yul\":7015:7029   */\n      add\n        /* \"#utility.yul\":7008:7047   */\n      mstore\n        /* \"#utility.yul\":6891:7054   */\n      pop\n      jump\t// out\n        /* \"#utility.yul\":7060:7426   */\n    tag_170:\n        /* \"#utility.yul\":7202:7205   */\n      0x00\n        /* \"#utility.yul\":7223:7290   */\n      tag_251\n        /* \"#utility.yul\":7287:7289   */\n      0x0d\n        /* \"#utility.yul\":7282:7285   */\n      dup4\n        /* \"#utility.yul\":7223:7290   */\n      tag_166\n      jump\t// in\n    tag_251:\n        /* \"#utility.yul\":7216:7290   */\n      swap2\n      pop\n        /* \"#utility.yul\":7299:7392   */\n      tag_252\n        /* \"#utility.yul\":7388:7391   */\n      dup3\n        /* \"#utility.yul\":7299:7392   */\n      tag_169\n      jump\t// in\n    tag_252:\n        /* \"#utility.yul\":7417:7419   */\n      0x20\n        /* \"#utility.yul\":7412:7415   */\n      dup3\n        /* \"#utility.yul\":7408:7420   */\n      add\n        /* \"#utility.yul\":7401:7420   */\n      swap1\n      pop\n        /* \"#utility.yul\":7060:7426   */\n      swap2\n      swap1\n      pop\n      jump\t// out\n        /* \"#utility.yul\":7432:7851   */\n    tag_91:\n        /* \"#utility.yul\":7598:7602   */\n      0x00\n        /* \"#utility.yul\":7636:7638   */\n      0x20\n        /* \"#utility.yul\":7625:7634   */\n      dup3\n        /* \"#utility.yul\":7621:7639   */\n      add\n        /* \"#utility.yul\":7613:7639   */\n      swap1\n      pop\n        /* \"#utility.yul\":7685:7694   */\n      dup2\n        /* \"#utility.yul\":7679:7683   */\n      dup2\n        /* \"#utility.yul\":7675:7695   */\n      sub\n        /* \"#utility.yul\":7671:7672   */\n      0x00\n        /* \"#utility.yul\":7660:7669   */\n      dup4\n        /* \"#utility.yul\":7656:7673   */\n      add\n        /* \"#utility.yul\":7649:7696   */\n      mstore\n        /* \"#utility.yul\":7713:7844   */\n      tag_254\n        /* \"#utility.yul\":7839:7843   */\n      dup2\n        /* \"#utility.yul\":7713:7844   */\n      tag_170\n      jump\t// in\n    tag_254:\n        /* \"#utility.yul\":7705:7844   */\n      swap1\n      pop\n        /* \"#utility.yul\":7432:7851   */\n      swap2\n      swap1\n      pop\n      jump\t// out\n        /* \"#utility.yul\":7857:8026   */\n    tag_171:\n        /* \"#utility.yul\":7997:8018   */\n      0x657863656564206172726179206c656e67746800000000000000000000000000\n        /* \"#utility.yul\":7993:7994   */\n      0x00\n        /* \"#utility.yul\":7985:7991   */\n      dup3\n        /* \"#utility.yul\":7981:7995   */\n      add\n        /* \"#utility.yul\":7974:8019   */\n      mstore\n        /* \"#utility.yul\":7857:8026   */\n      pop\n      jump\t// out\n        /* \"#utility.yul\":8032:8398   */\n    tag_172:\n        /* \"#utility.yul\":8174:8177   */\n      0x00\n        /* \"#utility.yul\":8195:8262   */\n      tag_257\n        /* \"#utility.yul\":8259:8261   */\n      0x13\n        /* \"#utility.yul\":8254:8257   */\n      dup4\n        /* \"#utility.yul\":8195:8262   */\n      tag_166\n      jump\t// in\n    tag_257:\n        /* \"#utility.yul\":8188:8262   */\n      swap2\n      pop\n        /* \"#utility.yul\":8271:8364   */\n      tag_258\n        /* \"#utility.yul\":8360:8363   */\n      dup3\n        /* \"#utility.yul\":8271:8364   */\n      tag_171\n      jump\t// in\n    tag_258:\n        /* \"#utility.yul\":8389:8391   */\n      0x20\n        /* \"#utility.yul\":8384:8387   */\n      dup3\n        /* \"#utility.yul\":8380:8392   */\n      add\n        /* \"#utility.yul\":8373:8392   */\n      swap1\n      pop\n        /* \"#utility.yul\":8032:8398   */\n      swap2\n      swap1\n      pop\n      jump\t// out\n        /* \"#utility.yul\":8404:8823   */\n    tag_100:\n        /* \"#utility.yul\":8570:8574   */\n      0x00\n        /* \"#utility.yul\":8608:8610   */\n      0x20\n        /* \"#utility.yul\":8597:8606   */\n      dup3\n        /* \"#utility.yul\":8593:8611   */\n      add\n        /* \"#utility.yul\":8585:8611   */\n      swap1\n      pop\n        /* \"#utility.yul\":8657:8666   */\n      dup2\n        /* \"#utility.yul\":8651:8655   */\n      dup2\n        /* \"#utility.yul\":8647:8667   */\n      sub\n        /* \"#utility.yul\":8643:8644   */\n      0x00\n        /* \"#utility.yul\":8632:8641   */\n      dup4\n        /* \"#utility.yul\":8628:8645   */\n      add\n        /* \"#utility.yul\":8621:8668   */\n      mstore\n        /* \"#utility.yul\":8685:8816   */\n      tag_260\n        /* \"#utility.yul\":8811:8815   */\n      dup2\n        /* \"#utility.yul\":8685:8816   */\n      tag_172\n      jump\t// in\n    tag_260:\n        /* \"#utility.yul\":8677:8816   */\n      swap1\n      pop\n        /* \"#utility.yul\":8404:8823   */\n      swap2\n      swap1\n      pop\n      jump\t// out\n        /* \"#utility.yul\":8829:9004   */\n    tag_173:\n        /* \"#utility.yul\":8969:8996   */\n      0x737461727420616e6420656e642076616c7565206572726f7200000000000000\n        /* \"#utility.yul\":8965:8966   */\n      0x00\n        /* \"#utility.yul\":8957:8963   */\n      dup3\n        /* \"#utility.yul\":8953:8967   */\n      add\n        /* \"#utility.yul\":8946:8997   */\n      mstore\n        /* \"#utility.yul\":8829:9004   */\n      pop\n      jump\t// out\n        /* \"#utility.yul\":9010:9376   */\n    tag_174:\n        /* \"#utility.yul\":9152:9155   */\n      0x00\n        /* \"#utility.yul\":9173:9240   */\n      tag_263\n        /* \"#utility.yul\":9237:9239   */\n      0x19\n        /* \"#utility.yul\":9232:9235   */\n      dup4\n        /* \"#utility.yul\":9173:9240   */\n      tag_166\n      jump\t// in\n    tag_263:\n        /* \"#utility.yul\":9166:9240   */\n      swap2\n      pop\n        /* \"#utility.yul\":9249:9342   */\n      tag_264\n        /* \"#utility.yul\":9338:9341   */\n      dup3\n        /* \"#utility.yul\":9249:9342   */\n      tag_173\n      jump\t// in\n    tag_264:\n        /* \"#utility.yul\":9367:9369   */\n      0x20\n        /* \"#utility.yul\":9362:9365   */\n      dup3\n        /* \"#utility.yul\":9358:9370   */\n      add\n        /* \"#utility.yul\":9351:9370   */\n      swap1\n      pop\n        /* \"#utility.yul\":9010:9376   */\n      swap2\n      swap1\n      pop\n      jump\t// out\n        /* \"#utility.yul\":9382:9801   */\n    tag_103:\n        /* \"#utility.yul\":9548:9552   */\n      0x00\n        /* \"#utility.yul\":9586:9588   */\n      0x20\n        /* \"#utility.yul\":9575:9584   */\n      dup3\n        /* \"#utility.yul\":9571:9589   */\n      add\n        /* \"#utility.yul\":9563:9589   */\n      swap1\n      pop\n        /* \"#utility.yul\":9635:9644   */\n      dup2\n        /* \"#utility.yul\":9629:9633   */\n      dup2\n        /* \"#utility.yul\":9625:9645   */\n      sub\n        /* \"#utility.yul\":9621:9622   */\n      0x00\n        /* \"#utility.yul\":9610:9619   */\n      dup4\n        /* \"#utility.yul\":9606:9623   */\n      add\n        /* \"#utility.yul\":9599:9646   */\n      mstore\n        /* \"#utility.yul\":9663:9794   */\n      tag_266\n        /* \"#utility.yul\":9789:9793   */\n      dup2\n        /* \"#utility.yul\":9663:9794   */\n      tag_174\n      jump\t// in\n    tag_266:\n        /* \"#utility.yul\":9655:9794   */\n      swap1\n      pop\n        /* \"#utility.yul\":9382:9801   */\n      swap2\n      swap1\n      pop\n      jump\t// out\n\n    auxdata: 0xa26469706673582212200ea5ab5ab0e5f5341b5f00735f203140ef62d8bb60a7f5455fe5c78ba2b1810864736f6c634300081e0033\n}\n",
				"bytecode": {
					"linkReferences": {},
					"object": "6080604052348015600e575f5ffd5b50610c148061001c5f395ff3fe608060405234801561000f575f5ffd5b5060043610610091575f3560e01c80638d67799e116100645780638d67799e1461011c578063a214547f1461013a578063a6158fdb1461016a578063e990b43d14610186578063f0ba8440146101b757610091565b80632bd1a184146100955780633b3c4ec5146100c65780633e275690146100e257806353ed5143146100fe575b5f5ffd5b6100af60048036038101906100aa919061073b565b6101e7565b6040516100bd92919061078f565b60405180910390f35b6100e060048036038101906100db919061073b565b61028c565b005b6100fc60048036038101906100f7919061073b565b610380565b005b6101066103f0565b604051610113919061086d565b60405180910390f35b610124610445565b604051610131919061088d565b60405180910390f35b610154600480360381019061014f91906108a6565b61044a565b604051610161919061088d565b60405180910390f35b610184600480360381019061017f919061073b565b610562565b005b6101a0600480360381019061019b919061073b565b61067d565b6040516101ae92919061078f565b60405180910390f35b6101d160048036038101906101cc919061073b565b6106e5565b6040516101de919061088d565b60405180910390f35b5f5f5f5f90505f60015f805490506101ff9190610911565b90505b80821161027e575f6002826102179190610971565b8361022291906109a1565b90505f5f8281548110610238576102376109d4565b5b905f5260205f200154905086810361025a576001829550955050505050610287565b8681101561026a57819350610277565b86811115610276578192505b5b5050610202565b5f5f9350935050505b915091565b5f5f8054905090505f81036102a1575061037d565b600181036102ce575f8054806102ba576102b9610a01565b5b600190038181905f5260205f20015f905590555b808210610310576040517f08c379a000000000000000000000000000000000000000000000000000000000815260040161030790610a88565b60405180910390fd5b5f60018261031e9190610911565b8154811061032f5761032e6109d4565b5b905f5260205f2001545f838154811061034b5761034a6109d4565b5b905f5260205f2001819055505f80548061036857610367610a01565b5b600190038181905f5260205f20015f90559055505b50565b60645f8054905011156103c8576040517f08c379a00000000000000000000000000000000000000000000000000000000081526004016103bf90610af0565b60405180910390fd5b5f81908060018154018082558091505060019003905f5260205f20015f909190919091505550565b60605f80548060200260200160405190810160405280929190818152602001828054801561043b57602002820191905f5260205f20905b815481526020019060010190808311610427575b5050505050905090565b606481565b5f5f5f805490509050808410801561046157508083105b6104a0576040517f08c379a000000000000000000000000000000000000000000000000000000000815260040161049790610b58565b60405180910390fd5b828411156104e3576040517f08c379a00000000000000000000000000000000000000000000000000000000081526004016104da90610bc0565b60405180910390fd5b82840361050e575f84815481106104fd576104fc6109d4565b5b905f5260205f20015491505061055c565b5f5f90505f8590505b84811015610555575f8181548110610532576105316109d4565b5b905f5260205f2001548261054691906109a1565b91508080600101915050610517565b5080925050505b92915050565b5f5f8054905090505f8103610577575061067a565b600181036105a4575f8054806105905761058f610a01565b5b600190038181905f5260205f20015f905590555b8082106105e6576040517f08c379a00000000000000000000000000000000000000000000000000000000081526004016105dd90610a88565b60405180910390fd5b5f8290505b6001826105f89190610911565b811015610653575f60018261060d91906109a1565b8154811061061e5761061d6109d4565b5b905f5260205f2001545f828154811061063a576106396109d4565b5b905f5260205f20018190555080806001019150506105eb565b505f80548061066557610664610a01565b5b600190038181905f5260205f20015f90559055505b50565b5f5f5f5f8054905090505f5f90505b818110156106d7575f5f82815481106106a8576106a76109d4565b5b905f5260205f20015490508581036106c957600182945094505050506106e0565b50808060010191505061068c565b505f5f92509250505b915091565b5f81815481106106f3575f80fd5b905f5260205f20015f915090505481565b5f5ffd5b5f819050919050565b61071a81610708565b8114610724575f5ffd5b50565b5f8135905061073581610711565b92915050565b5f602082840312156107505761074f610704565b5b5f61075d84828501610727565b91505092915050565b5f8115159050919050565b61077a81610766565b82525050565b61078981610708565b82525050565b5f6040820190506107a25f830185610771565b6107af6020830184610780565b9392505050565b5f81519050919050565b5f82825260208201905092915050565b5f819050602082019050919050565b6107e881610708565b82525050565b5f6107f983836107df565b60208301905092915050565b5f602082019050919050565b5f61081b826107b6565b61082581856107c0565b9350610830836107d0565b805f5b8381101561086057815161084788826107ee565b975061085283610805565b925050600181019050610833565b5085935050505092915050565b5f6020820190508181035f8301526108858184610811565b905092915050565b5f6020820190506108a05f830184610780565b92915050565b5f5f604083850312156108bc576108bb610704565b5b5f6108c985828601610727565b92505060206108da85828601610727565b9150509250929050565b7f4e487b71000000000000000000000000000000000000000000000000000000005f52601160045260245ffd5b5f61091b82610708565b915061092683610708565b925082820390508181111561093e5761093d6108e4565b5b92915050565b7f4e487b71000000000000000000000000000000000000000000000000000000005f52601260045260245ffd5b5f61097b82610708565b915061098683610708565b92508261099657610995610944565b5b828204905092915050565b5f6109ab82610708565b91506109b683610708565b92508282019050808211156109ce576109cd6108e4565b5b92915050565b7f4e487b71000000000000000000000000000000000000000000000000000000005f52603260045260245ffd5b7f4e487b71000000000000000000000000000000000000000000000000000000005f52603160045260245ffd5b5f82825260208201905092915050565b7f696e646578206973206f7574206172726179206c6567746800000000000000005f82015250565b5f610a72601883610a2e565b9150610a7d82610a3e565b602082019050919050565b5f6020820190508181035f830152610a9f81610a66565b9050919050565b7f61727261792069732066756c6c000000000000000000000000000000000000005f82015250565b5f610ada600d83610a2e565b9150610ae582610aa6565b602082019050919050565b5f6020820190508181035f830152610b0781610ace565b9050919050565b7f657863656564206172726179206c656e677468000000000000000000000000005f82015250565b5f610b42601383610a2e565b9150610b4d82610b0e565b602082019050919050565b5f6020820190508181035f830152610b6f81610b36565b9050919050565b7f737461727420616e6420656e642076616c7565206572726f72000000000000005f82015250565b5f610baa601983610a2e565b9150610bb582610b76565b602082019050919050565b5f6020820190508181035f830152610bd781610b9e565b905091905056fea26469706673582212200ea5ab5ab0e5f5341b5f00735f203140ef62d8bb60a7f5455fe5c78ba2b1810864736f6c634300081e0033",
					"opcodes": "PUSH1 0x80 PUSH1 0x40 MSTORE CALLVALUE DUP1 ISZERO PUSH1 0xE JUMPI PUSH0 PUSH0 REVERT JUMPDEST POP PUSH2 0xC14 DUP1 PUSH2 0x1C PUSH0 CODECOPY PUSH0 RETURN INVALID PUSH1 0x80 PUSH1 0x40 MSTORE CALLVALUE DUP1 ISZERO PUSH2 0xF JUMPI PUSH0 PUSH0 REVERT JUMPDEST POP PUSH1 0x4 CALLDATASIZE LT PUSH2 0x91 JUMPI PUSH0 CALLDATALOAD PUSH1 0xE0 SHR DUP1 PUSH4 0x8D67799E GT PUSH2 0x64 JUMPI DUP1 PUSH4 0x8D67799E EQ PUSH2 0x11C JUMPI DUP1 PUSH4 0xA214547F EQ PUSH2 0x13A JUMPI DUP1 PUSH4 0xA6158FDB EQ PUSH2 0x16A JUMPI DUP1 PUSH4 0xE990B43D EQ PUSH2 0x186 JUMPI DUP1 PUSH4 0xF0BA8440 EQ PUSH2 0x1B7 JUMPI PUSH2 0x91 JUMP JUMPDEST DUP1 PUSH4 0x2BD1A184 EQ PUSH2 0x95 JUMPI DUP1 PUSH4 0x3B3C4EC5 EQ PUSH2 0xC6 JUMPI DUP1 PUSH4 0x3E275690 EQ PUSH2 0xE2 JUMPI DUP1 PUSH4 0x53ED5143 EQ PUSH2 0xFE JUMPI JUMPDEST PUSH0 PUSH0 REVERT JUMPDEST PUSH2 0xAF PUSH1 0x4 DUP1 CALLDATASIZE SUB DUP2 ADD SWAP1 PUSH2 0xAA SWAP2 SWAP1 PUSH2 0x73B JUMP JUMPDEST PUSH2 0x1E7 JUMP JUMPDEST PUSH1 0x40 MLOAD PUSH2 0xBD SWAP3 SWAP2 SWAP1 PUSH2 0x78F JUMP JUMPDEST PUSH1 0x40 MLOAD DUP1 SWAP2 SUB SWAP1 RETURN JUMPDEST PUSH2 0xE0 PUSH1 0x4 DUP1 CALLDATASIZE SUB DUP2 ADD SWAP1 PUSH2 0xDB SWAP2 SWAP1 PUSH2 0x73B JUMP JUMPDEST PUSH2 0x28C JUMP JUMPDEST STOP JUMPDEST PUSH2 0xFC PUSH1 0x4 DUP1 CALLDATASIZE SUB DUP2 ADD SWAP1 PUSH2 0xF7 SWAP2 SWAP1 PUSH2 0x73B JUMP JUMPDEST PUSH2 0x380 JUMP JUMPDEST STOP JUMPDEST PUSH2 0x106 PUSH2 0x3F0 JUMP JUMPDEST PUSH1 0x40 MLOAD PUSH2 0x113 SWAP2 SWAP1 PUSH2 0x86D JUMP JUMPDEST PUSH1 0x40 MLOAD DUP1 SWAP2 SUB SWAP1 RETURN JUMPDEST PUSH2 0x124 PUSH2 0x445 JUMP JUMPDEST PUSH1 0x40 MLOAD PUSH2 0x131 SWAP2 SWAP1 PUSH2 0x88D JUMP JUMPDEST PUSH1 0x40 MLOAD DUP1 SWAP2 SUB SWAP1 RETURN JUMPDEST PUSH2 0x154 PUSH1 0x4 DUP1 CALLDATASIZE SUB DUP2 ADD SWAP1 PUSH2 0x14F SWAP2 SWAP1 PUSH2 0x8A6 JUMP JUMPDEST PUSH2 0x44A JUMP JUMPDEST PUSH1 0x40 MLOAD PUSH2 0x161 SWAP2 SWAP1 PUSH2 0x88D JUMP JUMPDEST PUSH1 0x40 MLOAD DUP1 SWAP2 SUB SWAP1 RETURN JUMPDEST PUSH2 0x184 PUSH1 0x4 DUP1 CALLDATASIZE SUB DUP2 ADD SWAP1 PUSH2 0x17F SWAP2 SWAP1 PUSH2 0x73B JUMP JUMPDEST PUSH2 0x562 JUMP JUMPDEST STOP JUMPDEST PUSH2 0x1A0 PUSH1 0x4 DUP1 CALLDATASIZE SUB DUP2 ADD SWAP1 PUSH2 0x19B SWAP2 SWAP1 PUSH2 0x73B JUMP JUMPDEST PUSH2 0x67D JUMP JUMPDEST PUSH1 0x40 MLOAD PUSH2 0x1AE SWAP3 SWAP2 SWAP1 PUSH2 0x78F JUMP JUMPDEST PUSH1 0x40 MLOAD DUP1 SWAP2 SUB SWAP1 RETURN JUMPDEST PUSH2 0x1D1 PUSH1 0x4 DUP1 CALLDATASIZE SUB DUP2 ADD SWAP1 PUSH2 0x1CC SWAP2 SWAP1 PUSH2 0x73B JUMP JUMPDEST PUSH2 0x6E5 JUMP JUMPDEST PUSH1 0x40 MLOAD PUSH2 0x1DE SWAP2 SWAP1 PUSH2 0x88D JUMP JUMPDEST PUSH1 0x40 MLOAD DUP1 SWAP2 SUB SWAP1 RETURN JUMPDEST PUSH0 PUSH0 PUSH0 PUSH0 SWAP1 POP PUSH0 PUSH1 0x1 PUSH0 DUP1 SLOAD SWAP1 POP PUSH2 0x1FF SWAP2 SWAP1 PUSH2 0x911 JUMP JUMPDEST SWAP1 POP JUMPDEST DUP1 DUP3 GT PUSH2 0x27E JUMPI PUSH0 PUSH1 0x2 DUP3 PUSH2 0x217 SWAP2 SWAP1 PUSH2 0x971 JUMP JUMPDEST DUP4 PUSH2 0x222 SWAP2 SWAP1 PUSH2 0x9A1 JUMP JUMPDEST SWAP1 POP PUSH0 PUSH0 DUP3 DUP2 SLOAD DUP2 LT PUSH2 0x238 JUMPI PUSH2 0x237 PUSH2 0x9D4 JUMP JUMPDEST JUMPDEST SWAP1 PUSH0 MSTORE PUSH1 0x20 PUSH0 KECCAK256 ADD SLOAD SWAP1 POP DUP7 DUP2 SUB PUSH2 0x25A JUMPI PUSH1 0x1 DUP3 SWAP6 POP SWAP6 POP POP POP POP POP PUSH2 0x287 JUMP JUMPDEST DUP7 DUP2 LT ISZERO PUSH2 0x26A JUMPI DUP2 SWAP4 POP PUSH2 0x277 JUMP JUMPDEST DUP7 DUP2 GT ISZERO PUSH2 0x276 JUMPI DUP2 SWAP3 POP JUMPDEST JUMPDEST POP POP PUSH2 0x202 JUMP JUMPDEST PUSH0 PUSH0 SWAP4 POP SWAP4 POP POP POP JUMPDEST SWAP2 POP SWAP2 JUMP JUMPDEST PUSH0 PUSH0 DUP1 SLOAD SWAP1 POP SWAP1 POP PUSH0 DUP2 SUB PUSH2 0x2A1 JUMPI POP PUSH2 0x37D JUMP JUMPDEST PUSH1 0x1 DUP2 SUB PUSH2 0x2CE JUMPI PUSH0 DUP1 SLOAD DUP1 PUSH2 0x2BA JUMPI PUSH2 0x2B9 PUSH2 0xA01 JUMP JUMPDEST JUMPDEST PUSH1 0x1 SWAP1 SUB DUP2 DUP2 SWAP1 PUSH0 MSTORE PUSH1 0x20 PUSH0 KECCAK256 ADD PUSH0 SWAP1 SSTORE SWAP1 SSTORE JUMPDEST DUP1 DUP3 LT PUSH2 0x310 JUMPI PUSH1 0x40 MLOAD PUSH32 0x8C379A000000000000000000000000000000000000000000000000000000000 DUP2 MSTORE PUSH1 0x4 ADD PUSH2 0x307 SWAP1 PUSH2 0xA88 JUMP JUMPDEST PUSH1 0x40 MLOAD DUP1 SWAP2 SUB SWAP1 REVERT JUMPDEST PUSH0 PUSH1 0x1 DUP3 PUSH2 0x31E SWAP2 SWAP1 PUSH2 0x911 JUMP JUMPDEST DUP2 SLOAD DUP2 LT PUSH2 0x32F JUMPI PUSH2 0x32E PUSH2 0x9D4 JUMP JUMPDEST JUMPDEST SWAP1 PUSH0 MSTORE PUSH1 0x20 PUSH0 KECCAK256 ADD SLOAD PUSH0 DUP4 DUP2 SLOAD DUP2 LT PUSH2 0x34B JUMPI PUSH2 0x34A PUSH2 0x9D4 JUMP JUMPDEST JUMPDEST SWAP1 PUSH0 MSTORE PUSH1 0x20 PUSH0 KECCAK256 ADD DUP2 SWAP1 SSTORE POP PUSH0 DUP1 SLOAD DUP1 PUSH2 0x368 JUMPI PUSH2 0x367 PUSH2 0xA01 JUMP JUMPDEST JUMPDEST PUSH1 0x1 SWAP1 SUB DUP2 DUP2 SWAP1 PUSH0 MSTORE PUSH1 0x20 PUSH0 KECCAK256 ADD PUSH0 SWAP1 SSTORE SWAP1 SSTORE POP JUMPDEST POP JUMP JUMPDEST PUSH1 0x64 PUSH0 DUP1 SLOAD SWAP1 POP GT ISZERO PUSH2 0x3C8 JUMPI PUSH1 0x40 MLOAD PUSH32 0x8C379A000000000000000000000000000000000000000000000000000000000 DUP2 MSTORE PUSH1 0x4 ADD PUSH2 0x3BF SWAP1 PUSH2 0xAF0 JUMP JUMPDEST PUSH1 0x40 MLOAD DUP1 SWAP2 SUB SWAP1 REVERT JUMPDEST PUSH0 DUP2 SWAP1 DUP1 PUSH1 0x1 DUP2 SLOAD ADD DUP1 DUP3 SSTORE DUP1 SWAP2 POP POP PUSH1 0x1 SWAP1 SUB SWAP1 PUSH0 MSTORE PUSH1 0x20 PUSH0 KECCAK256 ADD PUSH0 SWAP1 SWAP2 SWAP1 SWAP2 SWAP1 SWAP2 POP SSTORE POP JUMP JUMPDEST PUSH1 0x60 PUSH0 DUP1 SLOAD DUP1 PUSH1 0x20 MUL PUSH1 0x20 ADD PUSH1 0x40 MLOAD SWAP1 DUP2 ADD PUSH1 0x40 MSTORE DUP1 SWAP3 SWAP2 SWAP1 DUP2 DUP2 MSTORE PUSH1 0x20 ADD DUP3 DUP1 SLOAD DUP1 ISZERO PUSH2 0x43B JUMPI PUSH1 0x20 MUL DUP3 ADD SWAP2 SWAP1 PUSH0 MSTORE PUSH1 0x20 PUSH0 KECCAK256 SWAP1 JUMPDEST DUP2 SLOAD DUP2 MSTORE PUSH1 0x20 ADD SWAP1 PUSH1 0x1 ADD SWAP1 DUP1 DUP4 GT PUSH2 0x427 JUMPI JUMPDEST POP POP POP POP POP SWAP1 POP SWAP1 JUMP JUMPDEST PUSH1 0x64 DUP2 JUMP JUMPDEST PUSH0 PUSH0 PUSH0 DUP1 SLOAD SWAP1 POP SWAP1 POP DUP1 DUP5 LT DUP1 ISZERO PUSH2 0x461 JUMPI POP DUP1 DUP4 LT JUMPDEST PUSH2 0x4A0 JUMPI PUSH1 0x40 MLOAD PUSH32 0x8C379A000000000000000000000000000000000000000000000000000000000 DUP2 MSTORE PUSH1 0x4 ADD PUSH2 0x497 SWAP1 PUSH2 0xB58 JUMP JUMPDEST PUSH1 0x40 MLOAD DUP1 SWAP2 SUB SWAP1 REVERT JUMPDEST DUP3 DUP5 GT ISZERO PUSH2 0x4E3 JUMPI PUSH1 0x40 MLOAD PUSH32 0x8C379A000000000000000000000000000000000000000000000000000000000 DUP2 MSTORE PUSH1 0x4 ADD PUSH2 0x4DA SWAP1 PUSH2 0xBC0 JUMP JUMPDEST PUSH1 0x40 MLOAD DUP1 SWAP2 SUB SWAP1 REVERT JUMPDEST DUP3 DUP5 SUB PUSH2 0x50E JUMPI PUSH0 DUP5 DUP2 SLOAD DUP2 LT PUSH2 0x4FD JUMPI PUSH2 0x4FC PUSH2 0x9D4 JUMP JUMPDEST JUMPDEST SWAP1 PUSH0 MSTORE PUSH1 0x20 PUSH0 KECCAK256 ADD SLOAD SWAP2 POP POP PUSH2 0x55C JUMP JUMPDEST PUSH0 PUSH0 SWAP1 POP PUSH0 DUP6 SWAP1 POP JUMPDEST DUP5 DUP2 LT ISZERO PUSH2 0x555 JUMPI PUSH0 DUP2 DUP2 SLOAD DUP2 LT PUSH2 0x532 JUMPI PUSH2 0x531 PUSH2 0x9D4 JUMP JUMPDEST JUMPDEST SWAP1 PUSH0 MSTORE PUSH1 0x20 PUSH0 KECCAK256 ADD SLOAD DUP3 PUSH2 0x546 SWAP2 SWAP1 PUSH2 0x9A1 JUMP JUMPDEST SWAP2 POP DUP1 DUP1 PUSH1 0x1 ADD SWAP2 POP POP PUSH2 0x517 JUMP JUMPDEST POP DUP1 SWAP3 POP POP POP JUMPDEST SWAP3 SWAP2 POP POP JUMP JUMPDEST PUSH0 PUSH0 DUP1 SLOAD SWAP1 POP SWAP1 POP PUSH0 DUP2 SUB PUSH2 0x577 JUMPI POP PUSH2 0x67A JUMP JUMPDEST PUSH1 0x1 DUP2 SUB PUSH2 0x5A4 JUMPI PUSH0 DUP1 SLOAD DUP1 PUSH2 0x590 JUMPI PUSH2 0x58F PUSH2 0xA01 JUMP JUMPDEST JUMPDEST PUSH1 0x1 SWAP1 SUB DUP2 DUP2 SWAP1 PUSH0 MSTORE PUSH1 0x20 PUSH0 KECCAK256 ADD PUSH0 SWAP1 SSTORE SWAP1 SSTORE JUMPDEST DUP1 DUP3 LT PUSH2 0x5E6 JUMPI PUSH1 0x40 MLOAD PUSH32 0x8C379A000000000000000000000000000000000000000000000000000000000 DUP2 MSTORE PUSH1 0x4 ADD PUSH2 0x5DD SWAP1 PUSH2 0xA88 JUMP JUMPDEST PUSH1 0x40 MLOAD DUP1 SWAP2 SUB SWAP1 REVERT JUMPDEST PUSH0 DUP3 SWAP1 POP JUMPDEST PUSH1 0x1 DUP3 PUSH2 0x5F8 SWAP2 SWAP1 PUSH2 0x911 JUMP JUMPDEST DUP2 LT ISZERO PUSH2 0x653 JUMPI PUSH0 PUSH1 0x1 DUP3 PUSH2 0x60D SWAP2 SWAP1 PUSH2 0x9A1 JUMP JUMPDEST DUP2 SLOAD DUP2 LT PUSH2 0x61E JUMPI PUSH2 0x61D PUSH2 0x9D4 JUMP JUMPDEST JUMPDEST SWAP1 PUSH0 MSTORE PUSH1 0x20 PUSH0 KECCAK256 ADD SLOAD PUSH0 DUP3 DUP2 SLOAD DUP2 LT PUSH2 0x63A JUMPI PUSH2 0x639 PUSH2 0x9D4 JUMP JUMPDEST JUMPDEST SWAP1 PUSH0 MSTORE PUSH1 0x20 PUSH0 KECCAK256 ADD DUP2 SWAP1 SSTORE POP DUP1 DUP1 PUSH1 0x1 ADD SWAP2 POP POP PUSH2 0x5EB JUMP JUMPDEST POP PUSH0 DUP1 SLOAD DUP1 PUSH2 0x665 JUMPI PUSH2 0x664 PUSH2 0xA01 JUMP JUMPDEST JUMPDEST PUSH1 0x1 SWAP1 SUB DUP2 DUP2 SWAP1 PUSH0 MSTORE PUSH1 0x20 PUSH0 KECCAK256 ADD PUSH0 SWAP1 SSTORE SWAP1 SSTORE POP JUMPDEST POP JUMP JUMPDEST PUSH0 PUSH0 PUSH0 PUSH0 DUP1 SLOAD SWAP1 POP SWAP1 POP PUSH0 PUSH0 SWAP1 POP JUMPDEST DUP2 DUP2 LT ISZERO PUSH2 0x6D7 JUMPI PUSH0 PUSH0 DUP3 DUP2 SLOAD DUP2 LT PUSH2 0x6A8 JUMPI PUSH2 0x6A7 PUSH2 0x9D4 JUMP JUMPDEST JUMPDEST SWAP1 PUSH0 MSTORE PUSH1 0x20 PUSH0 KECCAK256 ADD SLOAD SWAP1 POP DUP6 DUP2 SUB PUSH2 0x6C9 JUMPI PUSH1 0x1 DUP3 SWAP5 POP SWAP5 POP POP POP POP PUSH2 0x6E0 JUMP JUMPDEST POP DUP1 DUP1 PUSH1 0x1 ADD SWAP2 POP POP PUSH2 0x68C JUMP JUMPDEST POP PUSH0 PUSH0 SWAP3 POP SWAP3 POP POP JUMPDEST SWAP2 POP SWAP2 JUMP JUMPDEST PUSH0 DUP2 DUP2 SLOAD DUP2 LT PUSH2 0x6F3 JUMPI PUSH0 DUP1 REVERT JUMPDEST SWAP1 PUSH0 MSTORE PUSH1 0x20 PUSH0 KECCAK256 ADD PUSH0 SWAP2 POP SWAP1 POP SLOAD DUP2 JUMP JUMPDEST PUSH0 PUSH0 REVERT JUMPDEST PUSH0 DUP2 SWAP1 POP SWAP2 SWAP1 POP JUMP JUMPDEST PUSH2 0x71A DUP2 PUSH2 0x708 JUMP JUMPDEST DUP2 EQ PUSH2 0x724 JUMPI PUSH0 PUSH0 REVERT JUMPDEST POP JUMP JUMPDEST PUSH0 DUP2 CALLDATALOAD SWAP1 POP PUSH2 0x735 DUP2 PUSH2 0x711 JUMP JUMPDEST SWAP3 SWAP2 POP POP JUMP JUMPDEST PUSH0 PUSH1 0x20 DUP3 DUP5 SUB SLT ISZERO PUSH2 0x750 JUMPI PUSH2 0x74F PUSH2 0x704 JUMP JUMPDEST JUMPDEST PUSH0 PUSH2 0x75D DUP5 DUP3 DUP6 ADD PUSH2 0x727 JUMP JUMPDEST SWAP2 POP POP SWAP3 SWAP2 POP POP JUMP JUMPDEST PUSH0 DUP2 ISZERO ISZERO SWAP1 POP SWAP2 SWAP1 POP JUMP JUMPDEST PUSH2 0x77A DUP2 PUSH2 0x766 JUMP JUMPDEST DUP3 MSTORE POP POP JUMP JUMPDEST PUSH2 0x789 DUP2 PUSH2 0x708 JUMP JUMPDEST DUP3 MSTORE POP POP JUMP JUMPDEST PUSH0 PUSH1 0x40 DUP3 ADD SWAP1 POP PUSH2 0x7A2 PUSH0 DUP4 ADD DUP6 PUSH2 0x771 JUMP JUMPDEST PUSH2 0x7AF PUSH1 0x20 DUP4 ADD DUP5 PUSH2 0x780 JUMP JUMPDEST SWAP4 SWAP3 POP POP POP JUMP JUMPDEST PUSH0 DUP2 MLOAD SWAP1 POP SWAP2 SWAP1 POP JUMP JUMPDEST PUSH0 DUP3 DUP3 MSTORE PUSH1 0x20 DUP3 ADD SWAP1 POP SWAP3 SWAP2 POP POP JUMP JUMPDEST PUSH0 DUP2 SWAP1 POP PUSH1 0x20 DUP3 ADD SWAP1 POP SWAP2 SWAP1 POP JUMP JUMPDEST PUSH2 0x7E8 DUP2 PUSH2 0x708 JUMP JUMPDEST DUP3 MSTORE POP POP JUMP JUMPDEST PUSH0 PUSH2 0x7F9 DUP4 DUP4 PUSH2 0x7DF JUMP JUMPDEST PUSH1 0x20 DUP4 ADD SWAP1 POP SWAP3 SWAP2 POP POP JUMP JUMPDEST PUSH0 PUSH1 0x20 DUP3 ADD SWAP1 POP SWAP2 SWAP1 POP JUMP JUMPDEST PUSH0 PUSH2 0x81B DUP3 PUSH2 0x7B6 JUMP JUMPDEST PUSH2 0x825 DUP2 DUP6 PUSH2 0x7C0 JUMP JUMPDEST SWAP4 POP PUSH2 0x830 DUP4 PUSH2 0x7D0 JUMP JUMPDEST DUP1 PUSH0 JUMPDEST DUP4 DUP2 LT ISZERO PUSH2 0x860 JUMPI DUP2 MLOAD PUSH2 0x847 DUP9 DUP3 PUSH2 0x7EE JUMP JUMPDEST SWAP8 POP PUSH2 0x852 DUP4 PUSH2 0x805 JUMP JUMPDEST SWAP3 POP POP PUSH1 0x1 DUP2 ADD SWAP1 POP PUSH2 0x833 JUMP JUMPDEST POP DUP6 SWAP4 POP POP POP POP SWAP3 SWAP2 POP POP JUMP JUMPDEST PUSH0 PUSH1 0x20 DUP3 ADD SWAP1 POP DUP2 DUP2 SUB PUSH0 DUP4 ADD MSTORE PUSH2 0x885 DUP2 DUP5 PUSH2 0x811 JUMP JUMPDEST SWAP1 POP SWAP3 SWAP2 POP POP JUMP JUMPDEST PUSH0 PUSH1 0x20 DUP3 ADD SWAP1 POP PUSH2 0x8A0 PUSH0 DUP4 ADD DUP5 PUSH2 0x780 JUMP JUMPDEST SWAP3 SWAP2 POP POP JUMP JUMPDEST PUSH0 PUSH0 PUSH1 0x40 DUP4 DUP6 SUB SLT ISZERO PUSH2 0x8BC JUMPI PUSH2 0x8BB PUSH2 0x704 JUMP JUMPDEST JUMPDEST PUSH0 PUSH2 0x8C9 DUP6 DUP3 DUP7 ADD PUSH2 0x727 JUMP JUMPDEST SWAP3 POP POP PUSH1 0x20 PUSH2 0x8DA DUP6 DUP3 DUP7 ADD PUSH2 0x727 JUMP JUMPDEST SWAP2 POP POP SWAP3 POP SWAP3 SWAP1 POP JUMP JUMPDEST PUSH32 0x4E487B7100000000000000000000000000000000000000000000000000000000 PUSH0 MSTORE PUSH1 0x11 PUSH1 0x4 MSTORE PUSH1 0x24 PUSH0 REVERT JUMPDEST PUSH0 PUSH2 0x91B DUP3 PUSH2 0x708 JUMP JUMPDEST SWAP2 POP PUSH2 0x926 DUP4 PUSH2 0x708 JUMP JUMPDEST SWAP3 POP DUP3 DUP3 SUB SWAP1 POP DUP2 DUP2 GT ISZERO PUSH2 0x93E JUMPI PUSH2 0x93D PUSH2 0x8E4 JUMP JUMPDEST JUMPDEST SWAP3 SWAP2 POP POP JUMP JUMPDEST PUSH32 0x4E487B7100000000000000000000000000000000000000000000000000000000 PUSH0 MSTORE PUSH1 0x12 PUSH1 0x4 MSTORE PUSH1 0x24 PUSH0 REVERT JUMPDEST PUSH0 PUSH2 0x97B DUP3 PUSH2 0x708 JUMP JUMPDEST SWAP2 POP PUSH2 0x986 DUP4 PUSH2 0x708 JUMP JUMPDEST SWAP3 POP DUP3 PUSH2 0x996 JUMPI PUSH2 0x995 PUSH2 0x944 JUMP JUMPDEST JUMPDEST DUP3 DUP3 DIV SWAP1 POP SWAP3 SWAP2 POP POP JUMP JUMPDEST PUSH0 PUSH2 0x9AB DUP3 PUSH2 0x708 JUMP JUMPDEST SWAP2 POP PUSH2 0x9B6 DUP4 PUSH2 0x708 JUMP JUMPDEST SWAP3 POP DUP3 DUP3 ADD SWAP1 POP DUP1 DUP3 GT ISZERO PUSH2 0x9CE JUMPI PUSH2 0x9CD PUSH2 0x8E4 JUMP JUMPDEST JUMPDEST SWAP3 SWAP2 POP POP JUMP JUMPDEST PUSH32 0x4E487B7100000000000000000000000000000000000000000000000000000000 PUSH0 MSTORE PUSH1 0x32 PUSH1 0x4 MSTORE PUSH1 0x24 PUSH0 REVERT JUMPDEST PUSH32 0x4E487B7100000000000000000000000000000000000000000000000000000000 PUSH0 MSTORE PUSH1 0x31 PUSH1 0x4 MSTORE PUSH1 0x24 PUSH0 REVERT JUMPDEST PUSH0 DUP3 DUP3 MSTORE PUSH1 0x20 DUP3 ADD SWAP1 POP SWAP3 SWAP2 POP POP JUMP JUMPDEST PUSH32 0x696E646578206973206F7574206172726179206C656774680000000000000000 PUSH0 DUP3 ADD MSTORE POP JUMP JUMPDEST PUSH0 PUSH2 0xA72 PUSH1 0x18 DUP4 PUSH2 0xA2E JUMP JUMPDEST SWAP2 POP PUSH2 0xA7D DUP3 PUSH2 0xA3E JUMP JUMPDEST PUSH1 0x20 DUP3 ADD SWAP1 POP SWAP2 SWAP1 POP JUMP JUMPDEST PUSH0 PUSH1 0x20 DUP3 ADD SWAP1 POP DUP2 DUP2 SUB PUSH0 DUP4 ADD MSTORE PUSH2 0xA9F DUP2 PUSH2 0xA66 JUMP JUMPDEST SWAP1 POP SWAP2 SWAP1 POP JUMP JUMPDEST PUSH32 0x61727261792069732066756C6C00000000000000000000000000000000000000 PUSH0 DUP3 ADD MSTORE POP JUMP JUMPDEST PUSH0 PUSH2 0xADA PUSH1 0xD DUP4 PUSH2 0xA2E JUMP JUMPDEST SWAP2 POP PUSH2 0xAE5 DUP3 PUSH2 0xAA6 JUMP JUMPDEST PUSH1 0x20 DUP3 ADD SWAP1 POP SWAP2 SWAP1 POP JUMP JUMPDEST PUSH0 PUSH1 0x20 DUP3 ADD SWAP1 POP DUP2 DUP2 SUB PUSH0 DUP4 ADD MSTORE PUSH2 0xB07 DUP2 PUSH2 0xACE JUMP JUMPDEST SWAP1 POP SWAP2 SWAP1 POP JUMP JUMPDEST PUSH32 0x657863656564206172726179206C656E67746800000000000000000000000000 PUSH0 DUP3 ADD MSTORE POP JUMP JUMPDEST PUSH0 PUSH2 0xB42 PUSH1 0x13 DUP4 PUSH2 0xA2E JUMP JUMPDEST SWAP2 POP PUSH2 0xB4D DUP3 PUSH2 0xB0E JUMP JUMPDEST PUSH1 0x20 DUP3 ADD SWAP1 POP SWAP2 SWAP1 POP JUMP JUMPDEST PUSH0 PUSH1 0x20 DUP3 ADD SWAP1 POP DUP2 DUP2 SUB PUSH0 DUP4 ADD MSTORE PUSH2 0xB6F DUP2 PUSH2 0xB36 JUMP JUMPDEST SWAP1 POP SWAP2 SWAP1 POP JUMP JUMPDEST PUSH32 0x737461727420616E6420656E642076616C7565206572726F7200000000000000 PUSH0 DUP3 ADD MSTORE POP JUMP JUMPDEST PUSH0 PUSH2 0xBAA PUSH1 0x19 DUP4 PUSH2 0xA2E JUMP JUMPDEST SWAP2 POP PUSH2 0xBB5 DUP3 PUSH2 0xB76 JUMP JUMPDEST PUSH1 0x20 DUP3 ADD SWAP1 POP SWAP2 SWAP1 POP JUMP JUMPDEST PUSH0 PUSH1 0x20 DUP3 ADD SWAP1 POP DUP2 DUP2 SUB PUSH0 DUP4 ADD MSTORE PUSH2 0xBD7 DUP2 PUSH2 0xB9E JUMP JUMPDEST SWAP1 POP SWAP2 SWAP1 POP JUMP INVALID LOG2 PUSH5 0x6970667358 0x22 SLT KECCAK256 0xE 0xA5 0xAB GAS 0xB0 JUMPF 0xF534 SHL PUSH0 STOP PUSH20 0x5F203140EF62D8BB60A7F5455FE5C78BA2B18108 PUSH5 0x736F6C6343 STOP ADDMOD 0x1E STOP CALLER "
				},
				"gasEstimates": {
					"creation": {
						"codeDepositCost": "618400",
						"executionCost": "649",
						"totalCost": "619049"
					},
					"external": {
						"MAX_SIZE()": "325",
						"data(uint256)": "infinite",
						"findElement(uint256)": "infinite",
						"findElementV2(uint256)": "infinite",
						"getAll()": "infinite",
						"removeOrdered(uint256)": "infinite",
						"removeUnordered(uint256)": "infinite",
						"safePush(uint256)": "48998",
						"sumRange(uint256,uint256)": "infinite"
					}
				},
				"methodIdentifiers": {
					"MAX_SIZE()": "8d67799e",
					"data(uint256)": "f0ba8440",
					"findElement(uint256)": "e990b43d",
					"findElementV2(uint256)": "2bd1a184",
					"getAll()": "53ed5143",
					"removeOrdered(uint256)": "a6158fdb",
					"removeUnordered(uint256)": "3b3c4ec5",
					"safePush(uint256)": "3e275690",
					"sumRange(uint256,uint256)": "a214547f"
				}
			},
			"storageLayout": {
				"storage": [
					{
						"astId": 4,
						"contract": "lesson/lesson03/SafeArrayManager.sol:SafeArrayManager",
						"label": "data",
						"offset": 0,
						"slot": "0",
						"type": "t_array(t_uint256)dyn_storage"
					}
				],
				"types": {
					"t_array(t_uint256)dyn_storage": {
						"base": "t_uint256",
						"encoding": "dynamic_array",
						"label": "uint256[]",
						"numberOfBytes": "32"
					},
					"t_uint256": {
						"encoding": "inplace",
						"label": "uint256",
						"numberOfBytes": "32"
					}
				}
			},
			"userdoc": {
				"kind": "user",
				"methods": {},
				"version": 1
			}
		}
	}
}