{
	"task/task1/TypeOperations.sol": {
		"TypeOperations": {
			"abi": [
				{
					"inputs": [
						{
							"internalType": "string",
							"name": "str",
							"type": "string"
						}
					],
					"name": "ReverseString",
					"outputs": [
						{
							"internalType": "string",
							"name": "",
							"type": "string"
						}
					],
					"stateMutability": "pure",
					"type": "function"
				},
				{
					"inputs": [
						{
							"internalType": "uint256[]",
							"name": "addr1",
							"type": "uint256[]"
						},
						{
							"internalType": "uint256[]",
							"name": "addr2",
							"type": "uint256[]"
						}
					],
					"name": "mergeAddr",
					"outputs": [
						{
							"internalType": "uint256[]",
							"name": "",
							"type": "uint256[]"
						}
					],
					"stateMutability": "pure",
					"type": "function"
				},
				{
					"inputs": [
						{
							"internalType": "uint256",
							"name": "_num",
							"type": "uint256"
						}
					],
					"name": "numConvertRome",
					"outputs": [
						{
							"internalType": "string",
							"name": "",
							"type": "string"
						}
					],
					"stateMutability": "pure",
					"type": "function"
				},
				{
					"inputs": [
						{
							"internalType": "string",
							"name": "str",
							"type": "string"
						}
					],
					"name": "romanToInt",
					"outputs": [
						{
							"internalType": "uint256",
							"name": "",
							"type": "uint256"
						}
					],
					"stateMutability": "pure",
					"type": "function"
				},
				{
					"inputs": [
						{
							"internalType": "string",
							"name": "str",
							"type": "string"
						}
					],
					"name": "romeConvertNum",
					"outputs": [
						{
							"internalType": "uint256",
							"name": "",
							"type": "uint256"
						}
					],
					"stateMutability": "pure",
					"type": "function"
				},
				{
					"inputs": [
						{
							"internalType": "uint256[]",
							"name": "addr",
							"type": "uint256[]"
						},
						{
							"internalType": "uint256",
							"name": "target",
							"type": "uint256"
						}
					],
					"name": "searchAddr",
					"outputs": [
						{
							"internalType": "int256",
							"name": "",
							"type": "int256"
						}
					],
					"stateMutability": "pure",
					"type": "function"
				}
			],
			"devdoc": {
				"kind": "dev",
				"methods": {},
				"version": 1
			},
			"evm": {
				"assembly": "    /* \"task/task1/TypeOperations.sol\":60:5059  contract TypeOperations {... */\n  mstore(0x40, 0x80)\n  callvalue\n  dup1\n  iszero\n  tag_1\n  jumpi\n  revert(0x00, 0x00)\ntag_1:\n  pop\n  dataSize(sub_0)\n  dup1\n  dataOffset(sub_0)\n  0x00\n  codecopy\n  0x00\n  return\nstop\n\nsub_0: assembly {\n        /* \"task/task1/TypeOperations.sol\":60:5059  contract TypeOperations {... */\n      mstore(0x40, 0x80)\n      callvalue\n      dup1\n      iszero\n      tag_1\n      jumpi\n      revert(0x00, 0x00)\n    tag_1:\n      pop\n      jumpi(tag_2, lt(calldatasize, 0x04))\n      shr(0xe0, calldataload(0x00))\n      dup1\n      0x05000112\n      eq\n      tag_3\n      jumpi\n      dup1\n      0x19bd3228\n      eq\n      tag_4\n      jumpi\n      dup1\n      0x29e557f0\n      eq\n      tag_5\n      jumpi\n      dup1\n      0x643f0486\n      eq\n      tag_6\n      jumpi\n      dup1\n      0xc8e5bbc3\n      eq\n      tag_7\n      jumpi\n      dup1\n      0xcb159dfe\n      eq\n      tag_8\n      jumpi\n    tag_2:\n      revert(0x00, 0x00)\n        /* \"task/task1/TypeOperations.sol\":3361:4297  function mergeAddr(uint256[] memory addr1, uint256[] memory addr2)public pure returns(uint256[] memory) {... */\n    tag_3:\n      tag_9\n      0x04\n      dup1\n      calldatasize\n      sub\n      dup2\n      add\n      swap1\n      tag_10\n      swap2\n      swap1\n      tag_11\n      jump\t// in\n    tag_10:\n      tag_12\n      jump\t// in\n    tag_9:\n      mload(0x40)\n      tag_13\n      swap2\n      swap1\n      tag_14\n      jump\t// in\n    tag_13:\n      mload(0x40)\n      dup1\n      swap2\n      sub\n      swap1\n      return\n        /* \"task/task1/TypeOperations.sol\":1787:2531  function romeConvertNum(string memory str) public pure returns(uint256) {... */\n    tag_4:\n      tag_15\n      0x04\n      dup1\n      calldatasize\n      sub\n      dup2\n      add\n      swap1\n      tag_16\n      swap2\n      swap1\n      tag_17\n      jump\t// in\n    tag_16:\n      tag_18\n      jump\t// in\n    tag_15:\n      mload(0x40)\n      tag_19\n      swap2\n      swap1\n      tag_20\n      jump\t// in\n    tag_19:\n      mload(0x40)\n      dup1\n      swap2\n      sub\n      swap1\n      return\n        /* \"task/task1/TypeOperations.sol\":479:1175  function numConvertRome(uint256 _num) public pure returns(string memory){... */\n    tag_5:\n      tag_21\n      0x04\n      dup1\n      calldatasize\n      sub\n      dup2\n      add\n      swap1\n      tag_22\n      swap2\n      swap1\n      tag_23\n      jump\t// in\n    tag_22:\n      tag_24\n      jump\t// in\n    tag_21:\n      mload(0x40)\n      tag_25\n      swap2\n      swap1\n      tag_26\n      jump\t// in\n    tag_25:\n      mload(0x40)\n      dup1\n      swap2\n      sub\n      swap1\n      return\n        /* \"task/task1/TypeOperations.sol\":91:441  function ReverseString(string memory str) public pure returns(string memory) {... */\n    tag_6:\n      tag_27\n      0x04\n      dup1\n      calldatasize\n      sub\n      dup2\n      add\n      swap1\n      tag_28\n      swap2\n      swap1\n      tag_17\n      jump\t// in\n    tag_28:\n      tag_29\n      jump\t// in\n    tag_27:\n      mload(0x40)\n      tag_30\n      swap2\n      swap1\n      tag_26\n      jump\t// in\n    tag_30:\n      mload(0x40)\n      dup1\n      swap2\n      sub\n      swap1\n      return\n        /* \"task/task1/TypeOperations.sol\":4305:5054  function searchAddr(uint256[] memory addr, uint256 target) public pure returns(int256) {... */\n    tag_7:\n      tag_31\n      0x04\n      dup1\n      calldatasize\n      sub\n      dup2\n      add\n      swap1\n      tag_32\n      swap2\n      swap1\n      tag_33\n      jump\t// in\n    tag_32:\n      tag_34\n      jump\t// in\n    tag_31:\n      mload(0x40)\n      tag_35\n      swap2\n      swap1\n      tag_36\n      jump\t// in\n    tag_35:\n      mload(0x40)\n      dup1\n      swap2\n      sub\n      swap1\n      return\n        /* \"task/task1/TypeOperations.sol\":1213:1751  function romanToInt(string memory str) public pure returns(uint256) {... */\n    tag_8:\n      tag_37\n      0x04\n      dup1\n      calldatasize\n      sub\n      dup2\n      add\n      swap1\n      tag_38\n      swap2\n      swap1\n      tag_17\n      jump\t// in\n    tag_38:\n      tag_39\n      jump\t// in\n    tag_37:\n      mload(0x40)\n      tag_40\n      swap2\n      swap1\n      tag_20\n      jump\t// in\n    tag_40:\n      mload(0x40)\n      dup1\n      swap2\n      sub\n      swap1\n      return\n        /* \"task/task1/TypeOperations.sol\":3361:4297  function mergeAddr(uint256[] memory addr1, uint256[] memory addr2)public pure returns(uint256[] memory) {... */\n    tag_12:\n        /* \"task/task1/TypeOperations.sol\":3447:3463  uint256[] memory */\n      0x60\n        /* \"task/task1/TypeOperations.sol\":3510:3521  uint256 le1 */\n      0x00\n        /* \"task/task1/TypeOperations.sol\":3524:3529  addr1 */\n      dup4\n        /* \"task/task1/TypeOperations.sol\":3524:3536  addr1.length */\n      mload\n        /* \"task/task1/TypeOperations.sol\":3510:3536  uint256 le1 = addr1.length */\n      swap1\n      pop\n        /* \"task/task1/TypeOperations.sol\":3547:3558  uint256 le2 */\n      0x00\n        /* \"task/task1/TypeOperations.sol\":3561:3566  addr2 */\n      dup4\n        /* \"task/task1/TypeOperations.sol\":3561:3573  addr2.length */\n      mload\n        /* \"task/task1/TypeOperations.sol\":3547:3573  uint256 le2 = addr2.length */\n      swap1\n      pop\n        /* \"task/task1/TypeOperations.sol\":3594:3600  uint i */\n      0x00\n        /* \"task/task1/TypeOperations.sol\":3603:3604  0 */\n      0x00\n        /* \"task/task1/TypeOperations.sol\":3594:3604  uint i = 0 */\n      swap1\n      pop\n        /* \"task/task1/TypeOperations.sol\":3615:3621  uint j */\n      0x00\n        /* \"task/task1/TypeOperations.sol\":3624:3625  0 */\n      0x00\n        /* \"task/task1/TypeOperations.sol\":3615:3625  uint j = 0 */\n      swap1\n      pop\n        /* \"task/task1/TypeOperations.sol\":3636:3646  uint index */\n      0x00\n        /* \"task/task1/TypeOperations.sol\":3649:3650  0 */\n      0x00\n        /* \"task/task1/TypeOperations.sol\":3636:3650  uint index = 0 */\n      swap1\n      pop\n        /* \"task/task1/TypeOperations.sol\":3661:3685  uint256[] memory results */\n      0x00\n        /* \"task/task1/TypeOperations.sol\":3708:3711  le2 */\n      dup5\n        /* \"task/task1/TypeOperations.sol\":3702:3705  le1 */\n      dup7\n        /* \"task/task1/TypeOperations.sol\":3702:3711  le1 + le2 */\n      tag_42\n      swap2\n      swap1\n      tag_43\n      jump\t// in\n    tag_42:\n        /* \"task/task1/TypeOperations.sol\":3688:3712  new uint256[](le1 + le2) */\n      0xffffffffffffffff\n      dup2\n      gt\n      iszero\n      tag_44\n      jumpi\n      tag_45\n      tag_46\n      jump\t// in\n    tag_45:\n    tag_44:\n      mload(0x40)\n      swap1\n      dup1\n      dup3\n      mstore\n      dup1\n      0x20\n      mul\n      0x20\n      add\n      dup3\n      add\n      0x40\n      mstore\n      dup1\n      iszero\n      tag_47\n      jumpi\n      dup2\n      0x20\n      add\n      0x20\n      dup3\n      mul\n      dup1\n      calldatasize\n      dup4\n      calldatacopy\n      dup1\n      dup3\n      add\n      swap2\n      pop\n      pop\n      swap1\n      pop\n    tag_47:\n      pop\n        /* \"task/task1/TypeOperations.sol\":3661:3712  uint256[] memory results = new uint256[](le1 + le2) */\n      swap1\n      pop\n        /* \"task/task1/TypeOperations.sol\":3723:3993  while (i < le1 && j < le2) {... */\n    tag_48:\n        /* \"task/task1/TypeOperations.sol\":3734:3737  le1 */\n      dup6\n        /* \"task/task1/TypeOperations.sol\":3730:3731  i */\n      dup5\n        /* \"task/task1/TypeOperations.sol\":3730:3737  i < le1 */\n      lt\n        /* \"task/task1/TypeOperations.sol\":3730:3748  i < le1 && j < le2 */\n      dup1\n      iszero\n      tag_50\n      jumpi\n      pop\n        /* \"task/task1/TypeOperations.sol\":3745:3748  le2 */\n      dup5\n        /* \"task/task1/TypeOperations.sol\":3741:3742  j */\n      dup4\n        /* \"task/task1/TypeOperations.sol\":3741:3748  j < le2 */\n      lt\n        /* \"task/task1/TypeOperations.sol\":3730:3748  i < le1 && j < le2 */\n    tag_50:\n        /* \"task/task1/TypeOperations.sol\":3723:3993  while (i < le1 && j < le2) {... */\n      iszero\n      tag_49\n      jumpi\n        /* \"task/task1/TypeOperations.sol\":3781:3786  addr2 */\n      dup8\n        /* \"task/task1/TypeOperations.sol\":3787:3788  j */\n      dup4\n        /* \"task/task1/TypeOperations.sol\":3781:3789  addr2[j] */\n      dup2\n      mload\n      dup2\n      lt\n      tag_51\n      jumpi\n      tag_52\n      tag_53\n      jump\t// in\n    tag_52:\n    tag_51:\n      0x20\n      mul\n      0x20\n      add\n      add\n      mload\n        /* \"task/task1/TypeOperations.sol\":3769:3774  addr1 */\n      dup10\n        /* \"task/task1/TypeOperations.sol\":3775:3776  i */\n      dup6\n        /* \"task/task1/TypeOperations.sol\":3769:3777  addr1[i] */\n      dup2\n      mload\n      dup2\n      lt\n      tag_54\n      jumpi\n      tag_55\n      tag_53\n      jump\t// in\n    tag_55:\n    tag_54:\n      0x20\n      mul\n      0x20\n      add\n      add\n      mload\n        /* \"task/task1/TypeOperations.sol\":3769:3789  addr1[i] <= addr2[j] */\n      gt\n        /* \"task/task1/TypeOperations.sol\":3765:3960  if (addr1[i] <= addr2[j]) {... */\n      tag_56\n      jumpi\n        /* \"task/task1/TypeOperations.sol\":3827:3832  addr1 */\n      dup9\n        /* \"task/task1/TypeOperations.sol\":3833:3834  i */\n      dup5\n        /* \"task/task1/TypeOperations.sol\":3827:3835  addr1[i] */\n      dup2\n      mload\n      dup2\n      lt\n      tag_57\n      jumpi\n      tag_58\n      tag_53\n      jump\t// in\n    tag_58:\n    tag_57:\n      0x20\n      mul\n      0x20\n      add\n      add\n      mload\n        /* \"task/task1/TypeOperations.sol\":3810:3817  results */\n      dup2\n        /* \"task/task1/TypeOperations.sol\":3818:3823  index */\n      dup4\n        /* \"task/task1/TypeOperations.sol\":3810:3824  results[index] */\n      dup2\n      mload\n      dup2\n      lt\n      tag_59\n      jumpi\n      tag_60\n      tag_53\n      jump\t// in\n    tag_60:\n    tag_59:\n      0x20\n      mul\n      0x20\n      add\n      add\n        /* \"task/task1/TypeOperations.sol\":3810:3835  results[index] = addr1[i] */\n      dup2\n      dup2\n      mstore\n      pop\n      pop\n        /* \"task/task1/TypeOperations.sol\":3854:3857  i++ */\n      dup4\n      dup1\n      tag_61\n      swap1\n      tag_62\n      jump\t// in\n    tag_61:\n      swap5\n      pop\n      pop\n        /* \"task/task1/TypeOperations.sol\":3765:3960  if (addr1[i] <= addr2[j]) {... */\n      jump(tag_63)\n    tag_56:\n        /* \"task/task1/TypeOperations.sol\":3914:3919  addr2 */\n      dup8\n        /* \"task/task1/TypeOperations.sol\":3920:3921  j */\n      dup4\n        /* \"task/task1/TypeOperations.sol\":3914:3922  addr2[j] */\n      dup2\n      mload\n      dup2\n      lt\n      tag_64\n      jumpi\n      tag_65\n      tag_53\n      jump\t// in\n    tag_65:\n    tag_64:\n      0x20\n      mul\n      0x20\n      add\n      add\n      mload\n        /* \"task/task1/TypeOperations.sol\":3897:3904  results */\n      dup2\n        /* \"task/task1/TypeOperations.sol\":3905:3910  index */\n      dup4\n        /* \"task/task1/TypeOperations.sol\":3897:3911  results[index] */\n      dup2\n      mload\n      dup2\n      lt\n      tag_66\n      jumpi\n      tag_67\n      tag_53\n      jump\t// in\n    tag_67:\n    tag_66:\n      0x20\n      mul\n      0x20\n      add\n      add\n        /* \"task/task1/TypeOperations.sol\":3897:3922  results[index] = addr2[j] */\n      dup2\n      dup2\n      mstore\n      pop\n      pop\n        /* \"task/task1/TypeOperations.sol\":3941:3944  j++ */\n      dup3\n      dup1\n      tag_68\n      swap1\n      tag_62\n      jump\t// in\n    tag_68:\n      swap4\n      pop\n      pop\n        /* \"task/task1/TypeOperations.sol\":3765:3960  if (addr1[i] <= addr2[j]) {... */\n    tag_63:\n        /* \"task/task1/TypeOperations.sol\":3974:3981  index++ */\n      dup2\n      dup1\n      tag_69\n      swap1\n      tag_62\n      jump\t// in\n    tag_69:\n      swap3\n      pop\n      pop\n        /* \"task/task1/TypeOperations.sol\":3723:3993  while (i < le1 && j < le2) {... */\n      jump(tag_48)\n    tag_49:\n        /* \"task/task1/TypeOperations.sol\":4013:4121  while (i < le1) {... */\n    tag_70:\n        /* \"task/task1/TypeOperations.sol\":4024:4027  le1 */\n      dup6\n        /* \"task/task1/TypeOperations.sol\":4020:4021  i */\n      dup5\n        /* \"task/task1/TypeOperations.sol\":4020:4027  i < le1 */\n      lt\n        /* \"task/task1/TypeOperations.sol\":4013:4121  while (i < le1) {... */\n      iszero\n      tag_71\n      jumpi\n        /* \"task/task1/TypeOperations.sol\":4061:4066  addr1 */\n      dup9\n        /* \"task/task1/TypeOperations.sol\":4067:4068  i */\n      dup5\n        /* \"task/task1/TypeOperations.sol\":4061:4069  addr1[i] */\n      dup2\n      mload\n      dup2\n      lt\n      tag_72\n      jumpi\n      tag_73\n      tag_53\n      jump\t// in\n    tag_73:\n    tag_72:\n      0x20\n      mul\n      0x20\n      add\n      add\n      mload\n        /* \"task/task1/TypeOperations.sol\":4044:4051  results */\n      dup2\n        /* \"task/task1/TypeOperations.sol\":4052:4057  index */\n      dup4\n        /* \"task/task1/TypeOperations.sol\":4044:4058  results[index] */\n      dup2\n      mload\n      dup2\n      lt\n      tag_74\n      jumpi\n      tag_75\n      tag_53\n      jump\t// in\n    tag_75:\n    tag_74:\n      0x20\n      mul\n      0x20\n      add\n      add\n        /* \"task/task1/TypeOperations.sol\":4044:4069  results[index] = addr1[i] */\n      dup2\n      dup2\n      mstore\n      pop\n      pop\n        /* \"task/task1/TypeOperations.sol\":4084:4087  i++ */\n      dup4\n      dup1\n      tag_76\n      swap1\n      tag_62\n      jump\t// in\n    tag_76:\n      swap5\n      pop\n      pop\n        /* \"task/task1/TypeOperations.sol\":4102:4109  index++ */\n      dup2\n      dup1\n      tag_77\n      swap1\n      tag_62\n      jump\t// in\n    tag_77:\n      swap3\n      pop\n      pop\n        /* \"task/task1/TypeOperations.sol\":4013:4121  while (i < le1) {... */\n      jump(tag_70)\n    tag_71:\n        /* \"task/task1/TypeOperations.sol\":4159:4265  while(j < le2){... */\n    tag_78:\n        /* \"task/task1/TypeOperations.sol\":4169:4172  le2 */\n      dup5\n        /* \"task/task1/TypeOperations.sol\":4165:4166  j */\n      dup4\n        /* \"task/task1/TypeOperations.sol\":4165:4172  j < le2 */\n      lt\n        /* \"task/task1/TypeOperations.sol\":4159:4265  while(j < le2){... */\n      iszero\n      tag_79\n      jumpi\n        /* \"task/task1/TypeOperations.sol\":4205:4210  addr2 */\n      dup8\n        /* \"task/task1/TypeOperations.sol\":4211:4212  j */\n      dup4\n        /* \"task/task1/TypeOperations.sol\":4205:4213  addr2[j] */\n      dup2\n      mload\n      dup2\n      lt\n      tag_80\n      jumpi\n      tag_81\n      tag_53\n      jump\t// in\n    tag_81:\n    tag_80:\n      0x20\n      mul\n      0x20\n      add\n      add\n      mload\n        /* \"task/task1/TypeOperations.sol\":4188:4195  results */\n      dup2\n        /* \"task/task1/TypeOperations.sol\":4196:4201  index */\n      dup4\n        /* \"task/task1/TypeOperations.sol\":4188:4202  results[index] */\n      dup2\n      mload\n      dup2\n      lt\n      tag_82\n      jumpi\n      tag_83\n      tag_53\n      jump\t// in\n    tag_83:\n    tag_82:\n      0x20\n      mul\n      0x20\n      add\n      add\n        /* \"task/task1/TypeOperations.sol\":4188:4213  results[index] = addr2[j] */\n      dup2\n      dup2\n      mstore\n      pop\n      pop\n        /* \"task/task1/TypeOperations.sol\":4228:4231  j++ */\n      dup3\n      dup1\n      tag_84\n      swap1\n      tag_62\n      jump\t// in\n    tag_84:\n      swap4\n      pop\n      pop\n        /* \"task/task1/TypeOperations.sol\":4246:4253  index++ */\n      dup2\n      dup1\n      tag_85\n      swap1\n      tag_62\n      jump\t// in\n    tag_85:\n      swap3\n      pop\n      pop\n        /* \"task/task1/TypeOperations.sol\":4159:4265  while(j < le2){... */\n      jump(tag_78)\n    tag_79:\n        /* \"task/task1/TypeOperations.sol\":4282:4289  results */\n      dup1\n        /* \"task/task1/TypeOperations.sol\":4275:4289  return results */\n      swap7\n      pop\n      pop\n      pop\n      pop\n      pop\n      pop\n      pop\n        /* \"task/task1/TypeOperations.sol\":3361:4297  function mergeAddr(uint256[] memory addr1, uint256[] memory addr2)public pure returns(uint256[] memory) {... */\n      swap3\n      swap2\n      pop\n      pop\n      jump\t// out\n        /* \"task/task1/TypeOperations.sol\":1787:2531  function romeConvertNum(string memory str) public pure returns(uint256) {... */\n    tag_18:\n        /* \"task/task1/TypeOperations.sol\":1850:1857  uint256 */\n      0x00\n        /* \"task/task1/TypeOperations.sol\":1870:1887  bytes memory bStr */\n      0x00\n        /* \"task/task1/TypeOperations.sol\":1896:1899  str */\n      dup3\n        /* \"task/task1/TypeOperations.sol\":1870:1900  bytes memory bStr = bytes(str) */\n      swap1\n      pop\n        /* \"task/task1/TypeOperations.sol\":2154:2167  uint256 total */\n      0x00\n        /* \"task/task1/TypeOperations.sol\":2170:2171  0 */\n      0x00\n        /* \"task/task1/TypeOperations.sol\":2154:2171  uint256 total = 0 */\n      swap1\n      pop\n        /* \"task/task1/TypeOperations.sol\":2182:2198  uint256 preValue */\n      0x00\n        /* \"task/task1/TypeOperations.sol\":2201:2202  0 */\n      0x00\n        /* \"task/task1/TypeOperations.sol\":2182:2202  uint256 preValue = 0 */\n      swap1\n      pop\n        /* \"task/task1/TypeOperations.sol\":2217:2223  uint i */\n      0x00\n        /* \"task/task1/TypeOperations.sol\":2240:2241  1 */\n      0x01\n        /* \"task/task1/TypeOperations.sol\":2226:2230  bStr */\n      dup5\n        /* \"task/task1/TypeOperations.sol\":2226:2237  bStr.length */\n      mload\n        /* \"task/task1/TypeOperations.sol\":2226:2241  bStr.length - 1 */\n      tag_90\n      swap2\n      swap1\n      tag_91\n      jump\t// in\n    tag_90:\n        /* \"task/task1/TypeOperations.sol\":2217:2241  uint i = bStr.length - 1 */\n      swap1\n      pop\n        /* \"task/task1/TypeOperations.sol\":2213:2501  for(uint i = bStr.length - 1; i >=0; i--){... */\n    tag_87:\n        /* \"task/task1/TypeOperations.sol\":2247:2248  0 */\n      0x00\n        /* \"task/task1/TypeOperations.sol\":2243:2244  i */\n      dup2\n        /* \"task/task1/TypeOperations.sol\":2243:2248  i >=0 */\n      lt\n        /* \"task/task1/TypeOperations.sol\":2213:2501  for(uint i = bStr.length - 1; i >=0; i--){... */\n      tag_88\n      jumpi\n        /* \"task/task1/TypeOperations.sol\":2283:2296  uint256 value */\n      0x00\n        /* \"task/task1/TypeOperations.sol\":2299:2319  charToValue(bStr[i]) */\n      tag_92\n        /* \"task/task1/TypeOperations.sol\":2311:2315  bStr */\n      dup6\n        /* \"task/task1/TypeOperations.sol\":2316:2317  i */\n      dup4\n        /* \"task/task1/TypeOperations.sol\":2311:2318  bStr[i] */\n      dup2\n      mload\n      dup2\n      lt\n      tag_93\n      jumpi\n      tag_94\n      tag_53\n      jump\t// in\n    tag_94:\n    tag_93:\n      0x20\n      add\n      add\n      mload\n      0xf8\n      shr\n      0xf8\n      shl\n        /* \"task/task1/TypeOperations.sol\":2299:2310  charToValue */\n      tag_95\n        /* \"task/task1/TypeOperations.sol\":2299:2319  charToValue(bStr[i]) */\n      jump\t// in\n    tag_92:\n        /* \"task/task1/TypeOperations.sol\":2283:2319  uint256 value = charToValue(bStr[i]) */\n      swap1\n      pop\n        /* \"task/task1/TypeOperations.sol\":2346:2354  preValue */\n      dup3\n        /* \"task/task1/TypeOperations.sol\":2338:2343  value */\n      dup2\n        /* \"task/task1/TypeOperations.sol\":2338:2354  value < preValue */\n      lt\n        /* \"task/task1/TypeOperations.sol\":2334:2459  if (value < preValue) {... */\n      iszero\n      tag_96\n      jumpi\n        /* \"task/task1/TypeOperations.sol\":2384:2389  value */\n      dup1\n        /* \"task/task1/TypeOperations.sol\":2375:2389  total -= value */\n      dup5\n      tag_97\n      swap2\n      swap1\n      tag_91\n      jump\t// in\n    tag_97:\n      swap4\n      pop\n        /* \"task/task1/TypeOperations.sol\":2334:2459  if (value < preValue) {... */\n      jump(tag_98)\n    tag_96:\n        /* \"task/task1/TypeOperations.sol\":2437:2442  value */\n      dup1\n        /* \"task/task1/TypeOperations.sol\":2428:2442  total += value */\n      dup5\n      tag_99\n      swap2\n      swap1\n      tag_43\n      jump\t// in\n    tag_99:\n      swap4\n      pop\n        /* \"task/task1/TypeOperations.sol\":2334:2459  if (value < preValue) {... */\n    tag_98:\n        /* \"task/task1/TypeOperations.sol\":2484:2489  value */\n      dup1\n        /* \"task/task1/TypeOperations.sol\":2473:2489  preValue = value */\n      swap3\n      pop\n        /* \"task/task1/TypeOperations.sol\":2254:2501  {... */\n      pop\n        /* \"task/task1/TypeOperations.sol\":2250:2253  i-- */\n      dup1\n      dup1\n      tag_100\n      swap1\n      tag_101\n      jump\t// in\n    tag_100:\n      swap2\n      pop\n      pop\n        /* \"task/task1/TypeOperations.sol\":2213:2501  for(uint i = bStr.length - 1; i >=0; i--){... */\n      jump(tag_87)\n    tag_88:\n      pop\n        /* \"task/task1/TypeOperations.sol\":2518:2523  total */\n      dup2\n        /* \"task/task1/TypeOperations.sol\":2511:2523  return total */\n      swap4\n      pop\n      pop\n      pop\n      pop\n        /* \"task/task1/TypeOperations.sol\":1787:2531  function romeConvertNum(string memory str) public pure returns(uint256) {... */\n      swap2\n      swap1\n      pop\n      jump\t// out\n        /* \"task/task1/TypeOperations.sol\":479:1175  function numConvertRome(uint256 _num) public pure returns(string memory){... */\n    tag_24:\n        /* \"task/task1/TypeOperations.sol\":537:550  string memory */\n      0x60\n        /* \"task/task1/TypeOperations.sol\":620:650  string[13] memory romanSymbols */\n      0x00\n        /* \"task/task1/TypeOperations.sol\":620:748  string[13] memory romanSymbols = [... */\n      mload(0x40)\n      dup1\n      0x01a0\n      add\n      0x40\n      mstore\n      dup1\n      mload(0x40)\n      dup1\n      0x40\n      add\n      0x40\n      mstore\n      dup1\n      0x01\n      dup2\n      mstore\n      0x20\n      add\n      0x4d00000000000000000000000000000000000000000000000000000000000000\n      dup2\n      mstore\n      pop\n      dup2\n      mstore\n      0x20\n      add\n      mload(0x40)\n      dup1\n      0x40\n      add\n      0x40\n      mstore\n      dup1\n      0x02\n      dup2\n      mstore\n      0x20\n      add\n      0x434d000000000000000000000000000000000000000000000000000000000000\n      dup2\n      mstore\n      pop\n      dup2\n      mstore\n      0x20\n      add\n      mload(0x40)\n      dup1\n      0x40\n      add\n      0x40\n      mstore\n      dup1\n      0x01\n      dup2\n      mstore\n      0x20\n      add\n      0x4400000000000000000000000000000000000000000000000000000000000000\n      dup2\n      mstore\n      pop\n      dup2\n      mstore\n      0x20\n      add\n      mload(0x40)\n      dup1\n      0x40\n      add\n      0x40\n      mstore\n      dup1\n      0x02\n      dup2\n      mstore\n      0x20\n      add\n      0x4344000000000000000000000000000000000000000000000000000000000000\n      dup2\n      mstore\n      pop\n      dup2\n      mstore\n      0x20\n      add\n      mload(0x40)\n      dup1\n      0x40\n      add\n      0x40\n      mstore\n      dup1\n      0x01\n      dup2\n      mstore\n      0x20\n      add\n      0x4300000000000000000000000000000000000000000000000000000000000000\n      dup2\n      mstore\n      pop\n      dup2\n      mstore\n      0x20\n      add\n      mload(0x40)\n      dup1\n      0x40\n      add\n      0x40\n      mstore\n      dup1\n      0x02\n      dup2\n      mstore\n      0x20\n      add\n      0x5843000000000000000000000000000000000000000000000000000000000000\n      dup2\n      mstore\n      pop\n      dup2\n      mstore\n      0x20\n      add\n      mload(0x40)\n      dup1\n      0x40\n      add\n      0x40\n      mstore\n      dup1\n      0x01\n      dup2\n      mstore\n      0x20\n      add\n      0x4c00000000000000000000000000000000000000000000000000000000000000\n      dup2\n      mstore\n      pop\n      dup2\n      mstore\n      0x20\n      add\n      mload(0x40)\n      dup1\n      0x40\n      add\n      0x40\n      mstore\n      dup1\n      0x02\n      dup2\n      mstore\n      0x20\n      add\n      0x584c000000000000000000000000000000000000000000000000000000000000\n      dup2\n      mstore\n      pop\n      dup2\n      mstore\n      0x20\n      add\n      mload(0x40)\n      dup1\n      0x40\n      add\n      0x40\n      mstore\n      dup1\n      0x01\n      dup2\n      mstore\n      0x20\n      add\n      0x5800000000000000000000000000000000000000000000000000000000000000\n      dup2\n      mstore\n      pop\n      dup2\n      mstore\n      0x20\n      add\n      mload(0x40)\n      dup1\n      0x40\n      add\n      0x40\n      mstore\n      dup1\n      0x02\n      dup2\n      mstore\n      0x20\n      add\n      0x4958000000000000000000000000000000000000000000000000000000000000\n      dup2\n      mstore\n      pop\n      dup2\n      mstore\n      0x20\n      add\n      mload(0x40)\n      dup1\n      0x40\n      add\n      0x40\n      mstore\n      dup1\n      0x01\n      dup2\n      mstore\n      0x20\n      add\n      0x5600000000000000000000000000000000000000000000000000000000000000\n      dup2\n      mstore\n      pop\n      dup2\n      mstore\n      0x20\n      add\n      mload(0x40)\n      dup1\n      0x40\n      add\n      0x40\n      mstore\n      dup1\n      0x02\n      dup2\n      mstore\n      0x20\n      add\n      0x4956000000000000000000000000000000000000000000000000000000000000\n      dup2\n      mstore\n      pop\n      dup2\n      mstore\n      0x20\n      add\n      mload(0x40)\n      dup1\n      0x40\n      add\n      0x40\n      mstore\n      dup1\n      0x01\n      dup2\n      mstore\n      0x20\n      add\n      0x4900000000000000000000000000000000000000000000000000000000000000\n      dup2\n      mstore\n      pop\n      dup2\n      mstore\n      pop\n      swap1\n      pop\n        /* \"task/task1/TypeOperations.sol\":769:793  uint16[13] memory values */\n      0x00\n        /* \"task/task1/TypeOperations.sol\":769:874  uint16[13] memory values = [... */\n      mload(0x40)\n      dup1\n      0x01a0\n      add\n      0x40\n      mstore\n      dup1\n        /* \"task/task1/TypeOperations.sol\":811:815  1000 */\n      0x03e8\n        /* \"task/task1/TypeOperations.sol\":769:874  uint16[13] memory values = [... */\n      0xffff\n      and\n      dup2\n      mstore\n      0x20\n      add\n        /* \"task/task1/TypeOperations.sol\":817:820  900 */\n      0x0384\n        /* \"task/task1/TypeOperations.sol\":769:874  uint16[13] memory values = [... */\n      0xffff\n      and\n      dup2\n      mstore\n      0x20\n      add\n        /* \"task/task1/TypeOperations.sol\":822:825  500 */\n      0x01f4\n        /* \"task/task1/TypeOperations.sol\":769:874  uint16[13] memory values = [... */\n      0xffff\n      and\n      dup2\n      mstore\n      0x20\n      add\n        /* \"task/task1/TypeOperations.sol\":827:830  400 */\n      0x0190\n        /* \"task/task1/TypeOperations.sol\":769:874  uint16[13] memory values = [... */\n      0xffff\n      and\n      dup2\n      mstore\n      0x20\n      add\n        /* \"task/task1/TypeOperations.sol\":832:835  100 */\n      0x64\n        /* \"task/task1/TypeOperations.sol\":769:874  uint16[13] memory values = [... */\n      0xffff\n      and\n      dup2\n      mstore\n      0x20\n      add\n        /* \"task/task1/TypeOperations.sol\":837:839  90 */\n      0x5a\n        /* \"task/task1/TypeOperations.sol\":769:874  uint16[13] memory values = [... */\n      0xffff\n      and\n      dup2\n      mstore\n      0x20\n      add\n        /* \"task/task1/TypeOperations.sol\":841:843  50 */\n      0x32\n        /* \"task/task1/TypeOperations.sol\":769:874  uint16[13] memory values = [... */\n      0xffff\n      and\n      dup2\n      mstore\n      0x20\n      add\n        /* \"task/task1/TypeOperations.sol\":845:847  40 */\n      0x28\n        /* \"task/task1/TypeOperations.sol\":769:874  uint16[13] memory values = [... */\n      0xffff\n      and\n      dup2\n      mstore\n      0x20\n      add\n        /* \"task/task1/TypeOperations.sol\":849:851  10 */\n      0x0a\n        /* \"task/task1/TypeOperations.sol\":769:874  uint16[13] memory values = [... */\n      0xffff\n      and\n      dup2\n      mstore\n      0x20\n      add\n        /* \"task/task1/TypeOperations.sol\":853:854  9 */\n      0x09\n        /* \"task/task1/TypeOperations.sol\":769:874  uint16[13] memory values = [... */\n      0xffff\n      and\n      dup2\n      mstore\n      0x20\n      add\n        /* \"task/task1/TypeOperations.sol\":856:857  5 */\n      0x05\n        /* \"task/task1/TypeOperations.sol\":769:874  uint16[13] memory values = [... */\n      0xffff\n      and\n      dup2\n      mstore\n      0x20\n      add\n        /* \"task/task1/TypeOperations.sol\":859:860  4 */\n      0x04\n        /* \"task/task1/TypeOperations.sol\":769:874  uint16[13] memory values = [... */\n      0xffff\n      and\n      dup2\n      mstore\n      0x20\n      add\n        /* \"task/task1/TypeOperations.sol\":862:863  1 */\n      0x01\n        /* \"task/task1/TypeOperations.sol\":769:874  uint16[13] memory values = [... */\n      0xffff\n      and\n      dup2\n      mstore\n      pop\n      swap1\n      pop\n        /* \"task/task1/TypeOperations.sol\":887:906  bytes memory result */\n      0x00\n        /* \"task/task1/TypeOperations.sol\":919:920  0 */\n      0x00\n        /* \"task/task1/TypeOperations.sol\":909:921  new bytes(0) */\n      0xffffffffffffffff\n      dup2\n      gt\n      iszero\n      tag_103\n      jumpi\n      tag_104\n      tag_46\n      jump\t// in\n    tag_104:\n    tag_103:\n      mload(0x40)\n      swap1\n      dup1\n      dup3\n      mstore\n      dup1\n      0x1f\n      add\n      not(0x1f)\n      and\n      0x20\n      add\n      dup3\n      add\n      0x40\n      mstore\n      dup1\n      iszero\n      tag_105\n      jumpi\n      dup2\n      0x20\n      add\n      0x01\n      dup3\n      mul\n      dup1\n      calldatasize\n      dup4\n      calldatacopy\n      dup1\n      dup3\n      add\n      swap2\n      pop\n      pop\n      swap1\n      pop\n    tag_105:\n      pop\n        /* \"task/task1/TypeOperations.sol\":887:921  bytes memory result = new bytes(0) */\n      swap1\n      pop\n        /* \"task/task1/TypeOperations.sol\":936:942  uint i */\n      0x00\n        /* \"task/task1/TypeOperations.sol\":945:946  0 */\n      0x00\n        /* \"task/task1/TypeOperations.sol\":936:946  uint i = 0 */\n      swap1\n      pop\n        /* \"task/task1/TypeOperations.sol\":932:1136  for(uint i = 0; i < 13; i++) {... */\n    tag_106:\n        /* \"task/task1/TypeOperations.sol\":952:954  13 */\n      0x0d\n        /* \"task/task1/TypeOperations.sol\":948:949  i */\n      dup2\n        /* \"task/task1/TypeOperations.sol\":948:954  i < 13 */\n      lt\n        /* \"task/task1/TypeOperations.sol\":932:1136  for(uint i = 0; i < 13; i++) {... */\n      iszero\n      tag_107\n      jumpi\n        /* \"task/task1/TypeOperations.sol\":976:1125  while(_num >= values[i]) {... */\n    tag_109:\n        /* \"task/task1/TypeOperations.sol\":990:996  values */\n      dup3\n        /* \"task/task1/TypeOperations.sol\":997:998  i */\n      dup2\n        /* \"task/task1/TypeOperations.sol\":990:999  values[i] */\n      0x0d\n      dup2\n      lt\n      tag_111\n      jumpi\n      tag_112\n      tag_53\n      jump\t// in\n    tag_112:\n    tag_111:\n      0x20\n      mul\n      add\n      mload\n        /* \"task/task1/TypeOperations.sol\":982:999  _num >= values[i] */\n      0xffff\n      and\n        /* \"task/task1/TypeOperations.sol\":982:986  _num */\n      dup7\n        /* \"task/task1/TypeOperations.sol\":982:999  _num >= values[i] */\n      lt\n        /* \"task/task1/TypeOperations.sol\":976:1125  while(_num >= values[i]) {... */\n      tag_110\n      jumpi\n        /* \"task/task1/TypeOperations.sol\":1028:1034  values */\n      dup3\n        /* \"task/task1/TypeOperations.sol\":1035:1036  i */\n      dup2\n        /* \"task/task1/TypeOperations.sol\":1028:1037  values[i] */\n      0x0d\n      dup2\n      lt\n      tag_113\n      jumpi\n      tag_114\n      tag_53\n      jump\t// in\n    tag_114:\n    tag_113:\n      0x20\n      mul\n      add\n      mload\n        /* \"task/task1/TypeOperations.sol\":1020:1037  _num -= values[i] */\n      0xffff\n      and\n      dup7\n      tag_115\n      swap2\n      swap1\n      tag_91\n      jump\t// in\n    tag_115:\n      swap6\n      pop\n        /* \"task/task1/TypeOperations.sol\":1078:1084  result */\n      dup2\n        /* \"task/task1/TypeOperations.sol\":1092:1104  romanSymbols */\n      dup5\n        /* \"task/task1/TypeOperations.sol\":1105:1106  i */\n      dup3\n        /* \"task/task1/TypeOperations.sol\":1092:1107  romanSymbols[i] */\n      0x0d\n      dup2\n      lt\n      tag_116\n      jumpi\n      tag_117\n      tag_53\n      jump\t// in\n    tag_117:\n    tag_116:\n      0x20\n      mul\n      add\n      mload\n        /* \"task/task1/TypeOperations.sol\":1065:1109  bytes.concat(result, bytes(romanSymbols[i])) */\n      add(0x20, mload(0x40))\n      tag_118\n      swap3\n      swap2\n      swap1\n      tag_119\n      jump\t// in\n    tag_118:\n      mload(0x40)\n      0x20\n      dup2\n      dup4\n      sub\n      sub\n      dup2\n      mstore\n      swap1\n      0x40\n      mstore\n        /* \"task/task1/TypeOperations.sol\":1056:1109  result = bytes.concat(result, bytes(romanSymbols[i])) */\n      swap2\n      pop\n        /* \"task/task1/TypeOperations.sol\":976:1125  while(_num >= values[i]) {... */\n      jump(tag_109)\n    tag_110:\n        /* \"task/task1/TypeOperations.sol\":956:959  i++ */\n      dup1\n      dup1\n      0x01\n      add\n      swap2\n      pop\n      pop\n        /* \"task/task1/TypeOperations.sol\":932:1136  for(uint i = 0; i < 13; i++) {... */\n      jump(tag_106)\n    tag_107:\n      pop\n        /* \"task/task1/TypeOperations.sol\":1160:1166  result */\n      dup1\n        /* \"task/task1/TypeOperations.sol\":1146:1167  return string(result) */\n      swap4\n      pop\n      pop\n      pop\n      pop\n        /* \"task/task1/TypeOperations.sol\":479:1175  function numConvertRome(uint256 _num) public pure returns(string memory){... */\n      swap2\n      swap1\n      pop\n      jump\t// out\n        /* \"task/task1/TypeOperations.sol\":91:441  function ReverseString(string memory str) public pure returns(string memory) {... */\n    tag_29:\n        /* \"task/task1/TypeOperations.sol\":153:166  string memory */\n      0x60\n        /* \"task/task1/TypeOperations.sol\":179:197  bytes memory byStr */\n      0x00\n        /* \"task/task1/TypeOperations.sol\":206:209  str */\n      dup3\n        /* \"task/task1/TypeOperations.sol\":179:210  bytes memory byStr = bytes(str) */\n      swap1\n      pop\n        /* \"task/task1/TypeOperations.sol\":221:243  bytes memory reverByte */\n      0x00\n        /* \"task/task1/TypeOperations.sol\":256:261  byStr */\n      dup2\n        /* \"task/task1/TypeOperations.sol\":256:268  byStr.length */\n      mload\n        /* \"task/task1/TypeOperations.sol\":246:269  new bytes(byStr.length) */\n      0xffffffffffffffff\n      dup2\n      gt\n      iszero\n      tag_121\n      jumpi\n      tag_122\n      tag_46\n      jump\t// in\n    tag_122:\n    tag_121:\n      mload(0x40)\n      swap1\n      dup1\n      dup3\n      mstore\n      dup1\n      0x1f\n      add\n      not(0x1f)\n      and\n      0x20\n      add\n      dup3\n      add\n      0x40\n      mstore\n      dup1\n      iszero\n      tag_123\n      jumpi\n      dup2\n      0x20\n      add\n      0x01\n      dup3\n      mul\n      dup1\n      calldatasize\n      dup4\n      calldatacopy\n      dup1\n      dup3\n      add\n      swap2\n      pop\n      pop\n      swap1\n      pop\n    tag_123:\n      pop\n        /* \"task/task1/TypeOperations.sol\":221:269  bytes memory reverByte = new bytes(byStr.length) */\n      swap1\n      pop\n        /* \"task/task1/TypeOperations.sol\":295:301  uint i */\n      0x00\n        /* \"task/task1/TypeOperations.sol\":304:305  0 */\n      0x00\n        /* \"task/task1/TypeOperations.sol\":295:305  uint i = 0 */\n      swap1\n      pop\n        /* \"task/task1/TypeOperations.sol\":290:399  for (uint i = 0; i < byStr.length; i++) {... */\n    tag_124:\n        /* \"task/task1/TypeOperations.sol\":311:316  byStr */\n      dup3\n        /* \"task/task1/TypeOperations.sol\":311:323  byStr.length */\n      mload\n        /* \"task/task1/TypeOperations.sol\":307:308  i */\n      dup2\n        /* \"task/task1/TypeOperations.sol\":307:323  i < byStr.length */\n      lt\n        /* \"task/task1/TypeOperations.sol\":290:399  for (uint i = 0; i < byStr.length; i++) {... */\n      iszero\n      tag_125\n      jumpi\n        /* \"task/task1/TypeOperations.sol\":360:365  byStr */\n      dup3\n        /* \"task/task1/TypeOperations.sol\":385:386  i */\n      dup2\n        /* \"task/task1/TypeOperations.sol\":381:382  1 */\n      0x01\n        /* \"task/task1/TypeOperations.sol\":366:371  byStr */\n      dup6\n        /* \"task/task1/TypeOperations.sol\":366:378  byStr.length */\n      mload\n        /* \"task/task1/TypeOperations.sol\":366:382  byStr.length - 1 */\n      tag_127\n      swap2\n      swap1\n      tag_91\n      jump\t// in\n    tag_127:\n        /* \"task/task1/TypeOperations.sol\":366:386  byStr.length - 1 - i */\n      tag_128\n      swap2\n      swap1\n      tag_91\n      jump\t// in\n    tag_128:\n        /* \"task/task1/TypeOperations.sol\":360:387  byStr[byStr.length - 1 - i] */\n      dup2\n      mload\n      dup2\n      lt\n      tag_129\n      jumpi\n      tag_130\n      tag_53\n      jump\t// in\n    tag_130:\n    tag_129:\n      0x20\n      add\n      add\n      mload\n      0xf8\n      shr\n      0xf8\n      shl\n        /* \"task/task1/TypeOperations.sol\":345:354  reverByte */\n      dup3\n        /* \"task/task1/TypeOperations.sol\":355:356  i */\n      dup3\n        /* \"task/task1/TypeOperations.sol\":345:357  reverByte[i] */\n      dup2\n      mload\n      dup2\n      lt\n      tag_131\n      jumpi\n      tag_132\n      tag_53\n      jump\t// in\n    tag_132:\n    tag_131:\n      0x20\n      add\n      add\n        /* \"task/task1/TypeOperations.sol\":345:387  reverByte[i] = byStr[byStr.length - 1 - i] */\n      swap1\n      not(0xffffffffffffffffffffffffffffffffffffffffffffffffffffffffffffff)\n      and\n      swap1\n      dup2\n      0x00\n      byte\n      swap1\n      mstore8\n      pop\n        /* \"task/task1/TypeOperations.sol\":325:328  i++ */\n      dup1\n      dup1\n      0x01\n      add\n      swap2\n      pop\n      pop\n        /* \"task/task1/TypeOperations.sol\":290:399  for (uint i = 0; i < byStr.length; i++) {... */\n      jump(tag_124)\n    tag_125:\n      pop\n        /* \"task/task1/TypeOperations.sol\":423:432  reverByte */\n      dup1\n        /* \"task/task1/TypeOperations.sol\":409:433  return string(reverByte) */\n      swap3\n      pop\n      pop\n      pop\n        /* \"task/task1/TypeOperations.sol\":91:441  function ReverseString(string memory str) public pure returns(string memory) {... */\n      swap2\n      swap1\n      pop\n      jump\t// out\n        /* \"task/task1/TypeOperations.sol\":4305:5054  function searchAddr(uint256[] memory addr, uint256 target) public pure returns(int256) {... */\n    tag_34:\n        /* \"task/task1/TypeOperations.sol\":4384:4390  int256 */\n      0x00\n        /* \"task/task1/TypeOperations.sol\":4422:4423  0 */\n      0x00\n        /* \"task/task1/TypeOperations.sol\":4407:4411  addr */\n      dup4\n        /* \"task/task1/TypeOperations.sol\":4407:4418  addr.length */\n      mload\n        /* \"task/task1/TypeOperations.sol\":4407:4423  addr.length == 0 */\n      sub\n        /* \"task/task1/TypeOperations.sol\":4403:4461  if (addr.length == 0) {... */\n      tag_134\n      jumpi\n        /* \"task/task1/TypeOperations.sol\":4447:4449  -1 */\n      0xffffffffffffffffffffffffffffffffffffffffffffffffffffffffffffffff\n        /* \"task/task1/TypeOperations.sol\":4440:4449  return -1 */\n      swap1\n      pop\n      jump(tag_133)\n        /* \"task/task1/TypeOperations.sol\":4403:4461  if (addr.length == 0) {... */\n    tag_134:\n        /* \"task/task1/TypeOperations.sol\":4473:4485  uint256 left */\n      0x00\n        /* \"task/task1/TypeOperations.sol\":4488:4489  0 */\n      0x00\n        /* \"task/task1/TypeOperations.sol\":4473:4489  uint256 left = 0 */\n      swap1\n      pop\n        /* \"task/task1/TypeOperations.sol\":4500:4513  uint256 right */\n      0x00\n        /* \"task/task1/TypeOperations.sol\":4530:4531  1 */\n      0x01\n        /* \"task/task1/TypeOperations.sol\":4516:4520  addr */\n      dup6\n        /* \"task/task1/TypeOperations.sol\":4516:4527  addr.length */\n      mload\n        /* \"task/task1/TypeOperations.sol\":4516:4531  addr.length - 1 */\n      tag_135\n      swap2\n      swap1\n      tag_91\n      jump\t// in\n    tag_135:\n        /* \"task/task1/TypeOperations.sol\":4500:4531  uint256 right = addr.length - 1 */\n      swap1\n      pop\n        /* \"task/task1/TypeOperations.sol\":4544:5027  while (left <= right) {... */\n    tag_136:\n        /* \"task/task1/TypeOperations.sol\":4559:4564  right */\n      dup1\n        /* \"task/task1/TypeOperations.sol\":4551:4555  left */\n      dup3\n        /* \"task/task1/TypeOperations.sol\":4551:4564  left <= right */\n      gt\n        /* \"task/task1/TypeOperations.sol\":4544:5027  while (left <= right) {... */\n      tag_137\n      jumpi\n        /* \"task/task1/TypeOperations.sol\":4581:4592  uint256 mid */\n      0x00\n        /* \"task/task1/TypeOperations.sol\":4619:4620  2 */\n      0x02\n        /* \"task/task1/TypeOperations.sol\":4611:4615  left */\n      dup4\n        /* \"task/task1/TypeOperations.sol\":4603:4608  right */\n      dup4\n        /* \"task/task1/TypeOperations.sol\":4603:4615  right - left */\n      tag_138\n      swap2\n      swap1\n      tag_91\n      jump\t// in\n    tag_138:\n        /* \"task/task1/TypeOperations.sol\":4602:4620  (right - left) / 2 */\n      tag_139\n      swap2\n      swap1\n      tag_140\n      jump\t// in\n    tag_139:\n        /* \"task/task1/TypeOperations.sol\":4595:4599  left */\n      dup4\n        /* \"task/task1/TypeOperations.sol\":4595:4620  left + (right - left) / 2 */\n      tag_141\n      swap2\n      swap1\n      tag_43\n      jump\t// in\n    tag_141:\n        /* \"task/task1/TypeOperations.sol\":4581:4620  uint256 mid = left + (right - left) / 2 */\n      swap1\n      pop\n        /* \"task/task1/TypeOperations.sol\":4652:4658  target */\n      dup5\n        /* \"task/task1/TypeOperations.sol\":4639:4643  addr */\n      dup7\n        /* \"task/task1/TypeOperations.sol\":4644:4647  mid */\n      dup3\n        /* \"task/task1/TypeOperations.sol\":4639:4648  addr[mid] */\n      dup2\n      mload\n      dup2\n      lt\n      tag_142\n      jumpi\n      tag_143\n      tag_53\n      jump\t// in\n    tag_143:\n    tag_142:\n      0x20\n      mul\n      0x20\n      add\n      add\n      mload\n        /* \"task/task1/TypeOperations.sol\":4639:4658  addr[mid] == target */\n      sub\n        /* \"task/task1/TypeOperations.sol\":4635:5016  if (addr[mid] == target) {... */\n      tag_144\n      jumpi\n        /* \"task/task1/TypeOperations.sol\":4693:4696  mid */\n      dup1\n        /* \"task/task1/TypeOperations.sol\":4679:4697  return int256(mid) */\n      swap4\n      pop\n      pop\n      pop\n      pop\n      jump(tag_133)\n        /* \"task/task1/TypeOperations.sol\":4635:5016  if (addr[mid] == target) {... */\n    tag_144:\n        /* \"task/task1/TypeOperations.sol\":4733:4739  target */\n      dup5\n        /* \"task/task1/TypeOperations.sol\":4721:4725  addr */\n      dup7\n        /* \"task/task1/TypeOperations.sol\":4726:4729  mid */\n      dup3\n        /* \"task/task1/TypeOperations.sol\":4721:4730  addr[mid] */\n      dup2\n      mload\n      dup2\n      lt\n      tag_146\n      jumpi\n      tag_147\n      tag_53\n      jump\t// in\n    tag_147:\n    tag_146:\n      0x20\n      mul\n      0x20\n      add\n      add\n      mload\n        /* \"task/task1/TypeOperations.sol\":4721:4739  addr[mid] < target */\n      lt\n        /* \"task/task1/TypeOperations.sol\":4718:5016  if(addr[mid] < target) {... */\n      iszero\n      tag_148\n      jumpi\n        /* \"task/task1/TypeOperations.sol\":4818:4819  1 */\n      0x01\n        /* \"task/task1/TypeOperations.sol\":4812:4815  mid */\n      dup2\n        /* \"task/task1/TypeOperations.sol\":4812:4819  mid + 1 */\n      tag_149\n      swap2\n      swap1\n      tag_43\n      jump\t// in\n    tag_149:\n        /* \"task/task1/TypeOperations.sol\":4805:4819  left = mid + 1 */\n      swap3\n      pop\n        /* \"task/task1/TypeOperations.sol\":4718:5016  if(addr[mid] < target) {... */\n      jump(tag_150)\n    tag_148:\n        /* \"task/task1/TypeOperations.sol\":4870:4871  0 */\n      0x00\n        /* \"task/task1/TypeOperations.sol\":4863:4866  mid */\n      dup2\n        /* \"task/task1/TypeOperations.sol\":4863:4871  mid == 0 */\n      sub\n        /* \"task/task1/TypeOperations.sol\":4859:4922  if (mid == 0) {... */\n      tag_151\n      jumpi\n        /* \"task/task1/TypeOperations.sol\":4896:4901  break */\n      pop\n      jump(tag_137)\n        /* \"task/task1/TypeOperations.sol\":4859:4922  if (mid == 0) {... */\n    tag_151:\n        /* \"task/task1/TypeOperations.sol\":4999:5000  1 */\n      0x01\n        /* \"task/task1/TypeOperations.sol\":4993:4996  mid */\n      dup2\n        /* \"task/task1/TypeOperations.sol\":4993:5000  mid - 1 */\n      tag_152\n      swap2\n      swap1\n      tag_91\n      jump\t// in\n    tag_152:\n        /* \"task/task1/TypeOperations.sol\":4985:5000  right = mid - 1 */\n      swap2\n      pop\n        /* \"task/task1/TypeOperations.sol\":4718:5016  if(addr[mid] < target) {... */\n    tag_150:\n        /* \"task/task1/TypeOperations.sol\":4566:5027  {... */\n      pop\n        /* \"task/task1/TypeOperations.sol\":4544:5027  while (left <= right) {... */\n      jump(tag_136)\n    tag_137:\n        /* \"task/task1/TypeOperations.sol\":5044:5046  -1 */\n      0xffffffffffffffffffffffffffffffffffffffffffffffffffffffffffffffff\n        /* \"task/task1/TypeOperations.sol\":5037:5046  return -1 */\n      swap3\n      pop\n      pop\n      pop\n        /* \"task/task1/TypeOperations.sol\":4305:5054  function searchAddr(uint256[] memory addr, uint256 target) public pure returns(int256) {... */\n    tag_133:\n      swap3\n      swap2\n      pop\n      pop\n      jump\t// out\n        /* \"task/task1/TypeOperations.sol\":1213:1751  function romanToInt(string memory str) public pure returns(uint256) {... */\n    tag_39:\n        /* \"task/task1/TypeOperations.sol\":1272:1279  uint256 */\n      0x00\n        /* \"task/task1/TypeOperations.sol\":1292:1310  bytes memory byStr */\n      0x00\n        /* \"task/task1/TypeOperations.sol\":1319:1322  str */\n      dup3\n        /* \"task/task1/TypeOperations.sol\":1292:1323  bytes memory byStr = bytes(str) */\n      swap1\n      pop\n        /* \"task/task1/TypeOperations.sol\":1344:1357  uint256 total */\n      0x00\n        /* \"task/task1/TypeOperations.sol\":1360:1361  0 */\n      0x00\n        /* \"task/task1/TypeOperations.sol\":1344:1361  uint256 total = 0 */\n      swap1\n      pop\n        /* \"task/task1/TypeOperations.sol\":1372:1388  uint256 preValue */\n      0x00\n        /* \"task/task1/TypeOperations.sol\":1391:1392  0 */\n      0x00\n        /* \"task/task1/TypeOperations.sol\":1372:1392  uint256 preValue = 0 */\n      swap1\n      pop\n        /* \"task/task1/TypeOperations.sol\":1407:1416  uint256 i */\n      0x00\n        /* \"task/task1/TypeOperations.sol\":1419:1424  byStr */\n      dup4\n        /* \"task/task1/TypeOperations.sol\":1419:1431  byStr.length */\n      mload\n        /* \"task/task1/TypeOperations.sol\":1407:1431  uint256 i = byStr.length */\n      swap1\n      pop\n        /* \"task/task1/TypeOperations.sol\":1403:1719  for(uint256 i = byStr.length; i > 0; i--) {... */\n    tag_154:\n        /* \"task/task1/TypeOperations.sol\":1437:1438  0 */\n      0x00\n        /* \"task/task1/TypeOperations.sol\":1433:1434  i */\n      dup2\n        /* \"task/task1/TypeOperations.sol\":1433:1438  i > 0 */\n      gt\n        /* \"task/task1/TypeOperations.sol\":1403:1719  for(uint256 i = byStr.length; i > 0; i--) {... */\n      iszero\n      tag_155\n      jumpi\n        /* \"task/task1/TypeOperations.sol\":1460:1473  uint256 index */\n      0x00\n        /* \"task/task1/TypeOperations.sol\":1480:1481  1 */\n      0x01\n        /* \"task/task1/TypeOperations.sol\":1476:1477  i */\n      dup3\n        /* \"task/task1/TypeOperations.sol\":1476:1481  i - 1 */\n      tag_157\n      swap2\n      swap1\n      tag_91\n      jump\t// in\n    tag_157:\n        /* \"task/task1/TypeOperations.sol\":1460:1481  uint256 index = i - 1 */\n      swap1\n      pop\n        /* \"task/task1/TypeOperations.sol\":1496:1509  uint256 value */\n      0x00\n        /* \"task/task1/TypeOperations.sol\":1512:1537  charToValue(byStr[index]) */\n      tag_158\n        /* \"task/task1/TypeOperations.sol\":1524:1529  byStr */\n      dup7\n        /* \"task/task1/TypeOperations.sol\":1530:1535  index */\n      dup4\n        /* \"task/task1/TypeOperations.sol\":1524:1536  byStr[index] */\n      dup2\n      mload\n      dup2\n      lt\n      tag_159\n      jumpi\n      tag_160\n      tag_53\n      jump\t// in\n    tag_160:\n    tag_159:\n      0x20\n      add\n      add\n      mload\n      0xf8\n      shr\n      0xf8\n      shl\n        /* \"task/task1/TypeOperations.sol\":1512:1523  charToValue */\n      tag_95\n        /* \"task/task1/TypeOperations.sol\":1512:1537  charToValue(byStr[index]) */\n      jump\t// in\n    tag_158:\n        /* \"task/task1/TypeOperations.sol\":1496:1537  uint256 value = charToValue(byStr[index]) */\n      swap1\n      pop\n        /* \"task/task1/TypeOperations.sol\":1567:1572  value */\n      dup1\n        /* \"task/task1/TypeOperations.sol\":1556:1564  preValue */\n      dup5\n        /* \"task/task1/TypeOperations.sol\":1556:1572  preValue > value */\n      gt\n        /* \"task/task1/TypeOperations.sol\":1552:1677  if (preValue > value) {... */\n      iszero\n      tag_161\n      jumpi\n        /* \"task/task1/TypeOperations.sol\":1602:1607  value */\n      dup1\n        /* \"task/task1/TypeOperations.sol\":1593:1607  total -= value */\n      dup6\n      tag_162\n      swap2\n      swap1\n      tag_91\n      jump\t// in\n    tag_162:\n      swap5\n      pop\n        /* \"task/task1/TypeOperations.sol\":1552:1677  if (preValue > value) {... */\n      jump(tag_163)\n    tag_161:\n        /* \"task/task1/TypeOperations.sol\":1656:1661  value */\n      dup1\n        /* \"task/task1/TypeOperations.sol\":1647:1661  total += value */\n      dup6\n      tag_164\n      swap2\n      swap1\n      tag_43\n      jump\t// in\n    tag_164:\n      swap5\n      pop\n        /* \"task/task1/TypeOperations.sol\":1552:1677  if (preValue > value) {... */\n    tag_163:\n        /* \"task/task1/TypeOperations.sol\":1702:1707  value */\n      dup1\n        /* \"task/task1/TypeOperations.sol\":1691:1707  preValue = value */\n      swap4\n      pop\n        /* \"task/task1/TypeOperations.sol\":1445:1719  {... */\n      pop\n      pop\n        /* \"task/task1/TypeOperations.sol\":1440:1443  i-- */\n      dup1\n      dup1\n      tag_165\n      swap1\n      tag_101\n      jump\t// in\n    tag_165:\n      swap2\n      pop\n      pop\n        /* \"task/task1/TypeOperations.sol\":1403:1719  for(uint256 i = byStr.length; i > 0; i--) {... */\n      jump(tag_154)\n    tag_155:\n      pop\n        /* \"task/task1/TypeOperations.sol\":1736:1741  total */\n      dup2\n        /* \"task/task1/TypeOperations.sol\":1729:1741  return total */\n      swap4\n      pop\n      pop\n      pop\n      pop\n        /* \"task/task1/TypeOperations.sol\":1213:1751  function romanToInt(string memory str) public pure returns(uint256) {... */\n      swap2\n      swap1\n      pop\n      jump\t// out\n        /* \"task/task1/TypeOperations.sol\":2583:3090  function charToValue(bytes1 b)internal pure returns (uint256) {... */\n    tag_95:\n        /* \"task/task1/TypeOperations.sol\":2636:2643  uint256 */\n      0x00\n        /* \"task/task1/TypeOperations.sol\":2754:2758  0x49 */\n      0x49\n        /* \"task/task1/TypeOperations.sol\":2749:2758  b == 0x49 */\n      0xf8\n      shl\n        /* \"task/task1/TypeOperations.sol\":2749:2750  b */\n      dup3\n        /* \"task/task1/TypeOperations.sol\":2749:2758  b == 0x49 */\n      not(0xffffffffffffffffffffffffffffffffffffffffffffffffffffffffffffff)\n      and\n      sub\n        /* \"task/task1/TypeOperations.sol\":2745:2768  if (b == 0x49) return 1 */\n      tag_167\n      jumpi\n        /* \"task/task1/TypeOperations.sol\":2767:2768  1 */\n      0x01\n        /* \"task/task1/TypeOperations.sol\":2760:2768  return 1 */\n      swap1\n      pop\n      jump(tag_166)\n        /* \"task/task1/TypeOperations.sol\":2745:2768  if (b == 0x49) return 1 */\n    tag_167:\n        /* \"task/task1/TypeOperations.sol\":2795:2799  0x56 */\n      0x56\n        /* \"task/task1/TypeOperations.sol\":2790:2799  b == 0x56 */\n      0xf8\n      shl\n        /* \"task/task1/TypeOperations.sol\":2790:2791  b */\n      dup3\n        /* \"task/task1/TypeOperations.sol\":2790:2799  b == 0x56 */\n      not(0xffffffffffffffffffffffffffffffffffffffffffffffffffffffffffffff)\n      and\n      sub\n        /* \"task/task1/TypeOperations.sol\":2786:2809  if (b == 0x56) return 5 */\n      tag_168\n      jumpi\n        /* \"task/task1/TypeOperations.sol\":2808:2809  5 */\n      0x05\n        /* \"task/task1/TypeOperations.sol\":2801:2809  return 5 */\n      swap1\n      pop\n      jump(tag_166)\n        /* \"task/task1/TypeOperations.sol\":2786:2809  if (b == 0x56) return 5 */\n    tag_168:\n        /* \"task/task1/TypeOperations.sol\":2836:2840  0x58 */\n      0x58\n        /* \"task/task1/TypeOperations.sol\":2831:2840  b == 0x58 */\n      0xf8\n      shl\n        /* \"task/task1/TypeOperations.sol\":2831:2832  b */\n      dup3\n        /* \"task/task1/TypeOperations.sol\":2831:2840  b == 0x58 */\n      not(0xffffffffffffffffffffffffffffffffffffffffffffffffffffffffffffff)\n      and\n      sub\n        /* \"task/task1/TypeOperations.sol\":2827:2851  if (b == 0x58) return 10 */\n      tag_169\n      jumpi\n        /* \"task/task1/TypeOperations.sol\":2849:2851  10 */\n      0x0a\n        /* \"task/task1/TypeOperations.sol\":2842:2851  return 10 */\n      swap1\n      pop\n      jump(tag_166)\n        /* \"task/task1/TypeOperations.sol\":2827:2851  if (b == 0x58) return 10 */\n    tag_169:\n        /* \"task/task1/TypeOperations.sol\":2878:2882  0x4C */\n      0x4c\n        /* \"task/task1/TypeOperations.sol\":2873:2882  b == 0x4C */\n      0xf8\n      shl\n        /* \"task/task1/TypeOperations.sol\":2873:2874  b */\n      dup3\n        /* \"task/task1/TypeOperations.sol\":2873:2882  b == 0x4C */\n      not(0xffffffffffffffffffffffffffffffffffffffffffffffffffffffffffffff)\n      and\n      sub\n        /* \"task/task1/TypeOperations.sol\":2869:2893  if (b == 0x4C) return 50 */\n      tag_170\n      jumpi\n        /* \"task/task1/TypeOperations.sol\":2891:2893  50 */\n      0x32\n        /* \"task/task1/TypeOperations.sol\":2884:2893  return 50 */\n      swap1\n      pop\n      jump(tag_166)\n        /* \"task/task1/TypeOperations.sol\":2869:2893  if (b == 0x4C) return 50 */\n    tag_170:\n        /* \"task/task1/TypeOperations.sol\":2920:2924  0x43 */\n      0x43\n        /* \"task/task1/TypeOperations.sol\":2915:2924  b == 0x43 */\n      0xf8\n      shl\n        /* \"task/task1/TypeOperations.sol\":2915:2916  b */\n      dup3\n        /* \"task/task1/TypeOperations.sol\":2915:2924  b == 0x43 */\n      not(0xffffffffffffffffffffffffffffffffffffffffffffffffffffffffffffff)\n      and\n      sub\n        /* \"task/task1/TypeOperations.sol\":2911:2936  if (b == 0x43) return 100 */\n      tag_171\n      jumpi\n        /* \"task/task1/TypeOperations.sol\":2933:2936  100 */\n      0x64\n        /* \"task/task1/TypeOperations.sol\":2926:2936  return 100 */\n      swap1\n      pop\n      jump(tag_166)\n        /* \"task/task1/TypeOperations.sol\":2911:2936  if (b == 0x43) return 100 */\n    tag_171:\n        /* \"task/task1/TypeOperations.sol\":2963:2967  0x44 */\n      0x44\n        /* \"task/task1/TypeOperations.sol\":2958:2967  b == 0x44 */\n      0xf8\n      shl\n        /* \"task/task1/TypeOperations.sol\":2958:2959  b */\n      dup3\n        /* \"task/task1/TypeOperations.sol\":2958:2967  b == 0x44 */\n      not(0xffffffffffffffffffffffffffffffffffffffffffffffffffffffffffffff)\n      and\n      sub\n        /* \"task/task1/TypeOperations.sol\":2954:2979  if (b == 0x44) return 500 */\n      tag_172\n      jumpi\n        /* \"task/task1/TypeOperations.sol\":2976:2979  500 */\n      0x01f4\n        /* \"task/task1/TypeOperations.sol\":2969:2979  return 500 */\n      swap1\n      pop\n      jump(tag_166)\n        /* \"task/task1/TypeOperations.sol\":2954:2979  if (b == 0x44) return 500 */\n    tag_172:\n        /* \"task/task1/TypeOperations.sol\":3006:3010  0x4D */\n      0x4d\n        /* \"task/task1/TypeOperations.sol\":3001:3010  b == 0x4D */\n      0xf8\n      shl\n        /* \"task/task1/TypeOperations.sol\":3001:3002  b */\n      dup3\n        /* \"task/task1/TypeOperations.sol\":3001:3010  b == 0x4D */\n      not(0xffffffffffffffffffffffffffffffffffffffffffffffffffffffffffffff)\n      and\n      sub\n        /* \"task/task1/TypeOperations.sol\":2997:3023  if (b == 0x4D) return 1000 */\n      tag_173\n      jumpi\n        /* \"task/task1/TypeOperations.sol\":3019:3023  1000 */\n      0x03e8\n        /* \"task/task1/TypeOperations.sol\":3012:3023  return 1000 */\n      swap1\n      pop\n      jump(tag_166)\n        /* \"task/task1/TypeOperations.sol\":2997:3023  if (b == 0x4D) return 1000 */\n    tag_173:\n        /* \"task/task1/TypeOperations.sol\":3041:3082  revert(\"Invalid Roman numeral character\") */\n      mload(0x40)\n      0x08c379a000000000000000000000000000000000000000000000000000000000\n      dup2\n      mstore\n      0x04\n      add\n      tag_174\n      swap1\n      tag_175\n      jump\t// in\n    tag_174:\n      mload(0x40)\n      dup1\n      swap2\n      sub\n      swap1\n      revert\n        /* \"task/task1/TypeOperations.sol\":2583:3090  function charToValue(bytes1 b)internal pure returns (uint256) {... */\n    tag_166:\n      swap2\n      swap1\n      pop\n      jump\t// out\n        /* \"#utility.yul\":7:82   */\n    tag_176:\n        /* \"#utility.yul\":40:46   */\n      0x00\n        /* \"#utility.yul\":73:75   */\n      0x40\n        /* \"#utility.yul\":67:76   */\n      mload\n        /* \"#utility.yul\":57:76   */\n      swap1\n      pop\n        /* \"#utility.yul\":7:82   */\n      swap1\n      jump\t// out\n        /* \"#utility.yul\":88:205   */\n    tag_177:\n        /* \"#utility.yul\":197:198   */\n      0x00\n        /* \"#utility.yul\":194:195   */\n      0x00\n        /* \"#utility.yul\":187:199   */\n      revert\n        /* \"#utility.yul\":211:328   */\n    tag_178:\n        /* \"#utility.yul\":320:321   */\n      0x00\n        /* \"#utility.yul\":317:318   */\n      0x00\n        /* \"#utility.yul\":310:322   */\n      revert\n        /* \"#utility.yul\":334:451   */\n    tag_179:\n        /* \"#utility.yul\":443:444   */\n      0x00\n        /* \"#utility.yul\":440:441   */\n      0x00\n        /* \"#utility.yul\":433:445   */\n      revert\n        /* \"#utility.yul\":457:559   */\n    tag_180:\n        /* \"#utility.yul\":498:504   */\n      0x00\n        /* \"#utility.yul\":549:551   */\n      0x1f\n        /* \"#utility.yul\":545:552   */\n      not\n        /* \"#utility.yul\":540:542   */\n      0x1f\n        /* \"#utility.yul\":533:538   */\n      dup4\n        /* \"#utility.yul\":529:543   */\n      add\n        /* \"#utility.yul\":525:553   */\n      and\n        /* \"#utility.yul\":515:553   */\n      swap1\n      pop\n        /* \"#utility.yul\":457:559   */\n      swap2\n      swap1\n      pop\n      jump\t// out\n        /* \"#utility.yul\":565:745   */\n    tag_46:\n        /* \"#utility.yul\":613:690   */\n      0x4e487b7100000000000000000000000000000000000000000000000000000000\n        /* \"#utility.yul\":610:611   */\n      0x00\n        /* \"#utility.yul\":603:691   */\n      mstore\n        /* \"#utility.yul\":710:714   */\n      0x41\n        /* \"#utility.yul\":707:708   */\n      0x04\n        /* \"#utility.yul\":700:715   */\n      mstore\n        /* \"#utility.yul\":734:738   */\n      0x24\n        /* \"#utility.yul\":731:732   */\n      0x00\n        /* \"#utility.yul\":724:739   */\n      revert\n        /* \"#utility.yul\":751:1032   */\n    tag_181:\n        /* \"#utility.yul\":834:861   */\n      tag_224\n        /* \"#utility.yul\":856:860   */\n      dup3\n        /* \"#utility.yul\":834:861   */\n      tag_180\n      jump\t// in\n    tag_224:\n        /* \"#utility.yul\":826:832   */\n      dup2\n        /* \"#utility.yul\":822:862   */\n      add\n        /* \"#utility.yul\":964:970   */\n      dup2\n        /* \"#utility.yul\":952:962   */\n      dup2\n        /* \"#utility.yul\":949:971   */\n      lt\n        /* \"#utility.yul\":928:946   */\n      0xffffffffffffffff\n        /* \"#utility.yul\":916:926   */\n      dup3\n        /* \"#utility.yul\":913:947   */\n      gt\n        /* \"#utility.yul\":910:972   */\n      or\n        /* \"#utility.yul\":907:995   */\n      iszero\n      tag_225\n      jumpi\n        /* \"#utility.yul\":975:993   */\n      tag_226\n      tag_46\n      jump\t// in\n    tag_226:\n        /* \"#utility.yul\":907:995   */\n    tag_225:\n        /* \"#utility.yul\":1015:1025   */\n      dup1\n        /* \"#utility.yul\":1011:1013   */\n      0x40\n        /* \"#utility.yul\":1004:1026   */\n      mstore\n        /* \"#utility.yul\":794:1032   */\n      pop\n        /* \"#utility.yul\":751:1032   */\n      pop\n      pop\n      jump\t// out\n        /* \"#utility.yul\":1038:1167   */\n    tag_182:\n        /* \"#utility.yul\":1072:1078   */\n      0x00\n        /* \"#utility.yul\":1099:1119   */\n      tag_228\n      tag_176\n      jump\t// in\n    tag_228:\n        /* \"#utility.yul\":1089:1119   */\n      swap1\n      pop\n        /* \"#utility.yul\":1128:1161   */\n      tag_229\n        /* \"#utility.yul\":1156:1160   */\n      dup3\n        /* \"#utility.yul\":1148:1154   */\n      dup3\n        /* \"#utility.yul\":1128:1161   */\n      tag_181\n      jump\t// in\n    tag_229:\n        /* \"#utility.yul\":1038:1167   */\n      swap2\n      swap1\n      pop\n      jump\t// out\n        /* \"#utility.yul\":1173:1484   */\n    tag_183:\n        /* \"#utility.yul\":1250:1254   */\n      0x00\n        /* \"#utility.yul\":1340:1358   */\n      0xffffffffffffffff\n        /* \"#utility.yul\":1332:1338   */\n      dup3\n        /* \"#utility.yul\":1329:1359   */\n      gt\n        /* \"#utility.yul\":1326:1382   */\n      iszero\n      tag_231\n      jumpi\n        /* \"#utility.yul\":1362:1380   */\n      tag_232\n      tag_46\n      jump\t// in\n    tag_232:\n        /* \"#utility.yul\":1326:1382   */\n    tag_231:\n        /* \"#utility.yul\":1412:1416   */\n      0x20\n        /* \"#utility.yul\":1404:1410   */\n      dup3\n        /* \"#utility.yul\":1400:1417   */\n      mul\n        /* \"#utility.yul\":1392:1417   */\n      swap1\n      pop\n        /* \"#utility.yul\":1472:1476   */\n      0x20\n        /* \"#utility.yul\":1466:1470   */\n      dup2\n        /* \"#utility.yul\":1462:1477   */\n      add\n        /* \"#utility.yul\":1454:1477   */\n      swap1\n      pop\n        /* \"#utility.yul\":1173:1484   */\n      swap2\n      swap1\n      pop\n      jump\t// out\n        /* \"#utility.yul\":1490:1607   */\n    tag_184:\n        /* \"#utility.yul\":1599:1600   */\n      0x00\n        /* \"#utility.yul\":1596:1597   */\n      0x00\n        /* \"#utility.yul\":1589:1601   */\n      revert\n        /* \"#utility.yul\":1613:1690   */\n    tag_185:\n        /* \"#utility.yul\":1650:1657   */\n      0x00\n        /* \"#utility.yul\":1679:1684   */\n      dup2\n        /* \"#utility.yul\":1668:1684   */\n      swap1\n      pop\n        /* \"#utility.yul\":1613:1690   */\n      swap2\n      swap1\n      pop\n      jump\t// out\n        /* \"#utility.yul\":1696:1818   */\n    tag_186:\n        /* \"#utility.yul\":1769:1793   */\n      tag_236\n        /* \"#utility.yul\":1787:1792   */\n      dup2\n        /* \"#utility.yul\":1769:1793   */\n      tag_185\n      jump\t// in\n    tag_236:\n        /* \"#utility.yul\":1762:1767   */\n      dup2\n        /* \"#utility.yul\":1759:1794   */\n      eq\n        /* \"#utility.yul\":1749:1812   */\n      tag_237\n      jumpi\n        /* \"#utility.yul\":1808:1809   */\n      0x00\n        /* \"#utility.yul\":1805:1806   */\n      0x00\n        /* \"#utility.yul\":1798:1810   */\n      revert\n        /* \"#utility.yul\":1749:1812   */\n    tag_237:\n        /* \"#utility.yul\":1696:1818   */\n      pop\n      jump\t// out\n        /* \"#utility.yul\":1824:1963   */\n    tag_187:\n        /* \"#utility.yul\":1870:1875   */\n      0x00\n        /* \"#utility.yul\":1908:1914   */\n      dup2\n        /* \"#utility.yul\":1895:1915   */\n      calldataload\n        /* \"#utility.yul\":1886:1915   */\n      swap1\n      pop\n        /* \"#utility.yul\":1924:1957   */\n      tag_239\n        /* \"#utility.yul\":1951:1956   */\n      dup2\n        /* \"#utility.yul\":1924:1957   */\n      tag_186\n      jump\t// in\n    tag_239:\n        /* \"#utility.yul\":1824:1963   */\n      swap3\n      swap2\n      pop\n      pop\n      jump\t// out\n        /* \"#utility.yul\":1986:2696   */\n    tag_188:\n        /* \"#utility.yul\":2082:2087   */\n      0x00\n        /* \"#utility.yul\":2107:2188   */\n      tag_241\n        /* \"#utility.yul\":2123:2187   */\n      tag_242\n        /* \"#utility.yul\":2180:2186   */\n      dup5\n        /* \"#utility.yul\":2123:2187   */\n      tag_183\n      jump\t// in\n    tag_242:\n        /* \"#utility.yul\":2107:2188   */\n      tag_182\n      jump\t// in\n    tag_241:\n        /* \"#utility.yul\":2098:2188   */\n      swap1\n      pop\n        /* \"#utility.yul\":2208:2213   */\n      dup1\n        /* \"#utility.yul\":2237:2243   */\n      dup4\n        /* \"#utility.yul\":2230:2235   */\n      dup3\n        /* \"#utility.yul\":2223:2244   */\n      mstore\n        /* \"#utility.yul\":2271:2275   */\n      0x20\n        /* \"#utility.yul\":2264:2269   */\n      dup3\n        /* \"#utility.yul\":2260:2276   */\n      add\n        /* \"#utility.yul\":2253:2276   */\n      swap1\n      pop\n        /* \"#utility.yul\":2324:2328   */\n      0x20\n        /* \"#utility.yul\":2316:2322   */\n      dup5\n        /* \"#utility.yul\":2312:2329   */\n      mul\n        /* \"#utility.yul\":2304:2310   */\n      dup4\n        /* \"#utility.yul\":2300:2330   */\n      add\n        /* \"#utility.yul\":2353:2356   */\n      dup6\n        /* \"#utility.yul\":2345:2351   */\n      dup2\n        /* \"#utility.yul\":2342:2357   */\n      gt\n        /* \"#utility.yul\":2339:2461   */\n      iszero\n      tag_243\n      jumpi\n        /* \"#utility.yul\":2372:2451   */\n      tag_244\n      tag_184\n      jump\t// in\n    tag_244:\n        /* \"#utility.yul\":2339:2461   */\n    tag_243:\n        /* \"#utility.yul\":2487:2493   */\n      dup4\n        /* \"#utility.yul\":2470:2690   */\n    tag_245:\n        /* \"#utility.yul\":2504:2510   */\n      dup2\n        /* \"#utility.yul\":2499:2502   */\n      dup2\n        /* \"#utility.yul\":2496:2511   */\n      lt\n        /* \"#utility.yul\":2470:2690   */\n      iszero\n      tag_247\n      jumpi\n        /* \"#utility.yul\":2579:2582   */\n      dup1\n        /* \"#utility.yul\":2608:2645   */\n      tag_248\n        /* \"#utility.yul\":2641:2644   */\n      dup9\n        /* \"#utility.yul\":2629:2639   */\n      dup3\n        /* \"#utility.yul\":2608:2645   */\n      tag_187\n      jump\t// in\n    tag_248:\n        /* \"#utility.yul\":2603:2606   */\n      dup5\n        /* \"#utility.yul\":2596:2646   */\n      mstore\n        /* \"#utility.yul\":2675:2679   */\n      0x20\n        /* \"#utility.yul\":2670:2673   */\n      dup5\n        /* \"#utility.yul\":2666:2680   */\n      add\n        /* \"#utility.yul\":2659:2680   */\n      swap4\n      pop\n        /* \"#utility.yul\":2546:2690   */\n      pop\n        /* \"#utility.yul\":2530:2534   */\n      0x20\n        /* \"#utility.yul\":2525:2528   */\n      dup2\n        /* \"#utility.yul\":2521:2535   */\n      add\n        /* \"#utility.yul\":2514:2535   */\n      swap1\n      pop\n        /* \"#utility.yul\":2470:2690   */\n      jump(tag_245)\n    tag_247:\n        /* \"#utility.yul\":2474:2495   */\n      pop\n        /* \"#utility.yul\":2088:2696   */\n      pop\n      pop\n        /* \"#utility.yul\":1986:2696   */\n      swap4\n      swap3\n      pop\n      pop\n      pop\n      jump\t// out\n        /* \"#utility.yul\":2719:3089   */\n    tag_189:\n        /* \"#utility.yul\":2790:2795   */\n      0x00\n        /* \"#utility.yul\":2839:2842   */\n      dup3\n        /* \"#utility.yul\":2832:2836   */\n      0x1f\n        /* \"#utility.yul\":2824:2830   */\n      dup4\n        /* \"#utility.yul\":2820:2837   */\n      add\n        /* \"#utility.yul\":2816:2843   */\n      slt\n        /* \"#utility.yul\":2806:2928   */\n      tag_250\n      jumpi\n        /* \"#utility.yul\":2847:2926   */\n      tag_251\n      tag_179\n      jump\t// in\n    tag_251:\n        /* \"#utility.yul\":2806:2928   */\n    tag_250:\n        /* \"#utility.yul\":2964:2970   */\n      dup2\n        /* \"#utility.yul\":2951:2971   */\n      calldataload\n        /* \"#utility.yul\":2989:3083   */\n      tag_252\n        /* \"#utility.yul\":3079:3082   */\n      dup5\n        /* \"#utility.yul\":3071:3077   */\n      dup3\n        /* \"#utility.yul\":3064:3068   */\n      0x20\n        /* \"#utility.yul\":3056:3062   */\n      dup7\n        /* \"#utility.yul\":3052:3069   */\n      add\n        /* \"#utility.yul\":2989:3083   */\n      tag_188\n      jump\t// in\n    tag_252:\n        /* \"#utility.yul\":2980:3083   */\n      swap2\n      pop\n        /* \"#utility.yul\":2796:3089   */\n      pop\n        /* \"#utility.yul\":2719:3089   */\n      swap3\n      swap2\n      pop\n      pop\n      jump\t// out\n        /* \"#utility.yul\":3095:3989   */\n    tag_11:\n        /* \"#utility.yul\":3213:3219   */\n      0x00\n        /* \"#utility.yul\":3221:3227   */\n      0x00\n        /* \"#utility.yul\":3270:3272   */\n      0x40\n        /* \"#utility.yul\":3258:3267   */\n      dup4\n        /* \"#utility.yul\":3249:3256   */\n      dup6\n        /* \"#utility.yul\":3245:3268   */\n      sub\n        /* \"#utility.yul\":3241:3273   */\n      slt\n        /* \"#utility.yul\":3238:3357   */\n      iszero\n      tag_254\n      jumpi\n        /* \"#utility.yul\":3276:3355   */\n      tag_255\n      tag_177\n      jump\t// in\n    tag_255:\n        /* \"#utility.yul\":3238:3357   */\n    tag_254:\n        /* \"#utility.yul\":3424:3425   */\n      0x00\n        /* \"#utility.yul\":3413:3422   */\n      dup4\n        /* \"#utility.yul\":3409:3426   */\n      add\n        /* \"#utility.yul\":3396:3427   */\n      calldataload\n        /* \"#utility.yul\":3454:3472   */\n      0xffffffffffffffff\n        /* \"#utility.yul\":3446:3452   */\n      dup2\n        /* \"#utility.yul\":3443:3473   */\n      gt\n        /* \"#utility.yul\":3440:3557   */\n      iszero\n      tag_256\n      jumpi\n        /* \"#utility.yul\":3476:3555   */\n      tag_257\n      tag_178\n      jump\t// in\n    tag_257:\n        /* \"#utility.yul\":3440:3557   */\n    tag_256:\n        /* \"#utility.yul\":3581:3659   */\n      tag_258\n        /* \"#utility.yul\":3651:3658   */\n      dup6\n        /* \"#utility.yul\":3642:3648   */\n      dup3\n        /* \"#utility.yul\":3631:3640   */\n      dup7\n        /* \"#utility.yul\":3627:3649   */\n      add\n        /* \"#utility.yul\":3581:3659   */\n      tag_189\n      jump\t// in\n    tag_258:\n        /* \"#utility.yul\":3571:3659   */\n      swap3\n      pop\n        /* \"#utility.yul\":3367:3669   */\n      pop\n        /* \"#utility.yul\":3736:3738   */\n      0x20\n        /* \"#utility.yul\":3725:3734   */\n      dup4\n        /* \"#utility.yul\":3721:3739   */\n      add\n        /* \"#utility.yul\":3708:3740   */\n      calldataload\n        /* \"#utility.yul\":3767:3785   */\n      0xffffffffffffffff\n        /* \"#utility.yul\":3759:3765   */\n      dup2\n        /* \"#utility.yul\":3756:3786   */\n      gt\n        /* \"#utility.yul\":3753:3870   */\n      iszero\n      tag_259\n      jumpi\n        /* \"#utility.yul\":3789:3868   */\n      tag_260\n      tag_178\n      jump\t// in\n    tag_260:\n        /* \"#utility.yul\":3753:3870   */\n    tag_259:\n        /* \"#utility.yul\":3894:3972   */\n      tag_261\n        /* \"#utility.yul\":3964:3971   */\n      dup6\n        /* \"#utility.yul\":3955:3961   */\n      dup3\n        /* \"#utility.yul\":3944:3953   */\n      dup7\n        /* \"#utility.yul\":3940:3962   */\n      add\n        /* \"#utility.yul\":3894:3972   */\n      tag_189\n      jump\t// in\n    tag_261:\n        /* \"#utility.yul\":3884:3972   */\n      swap2\n      pop\n        /* \"#utility.yul\":3679:3982   */\n      pop\n        /* \"#utility.yul\":3095:3989   */\n      swap3\n      pop\n      swap3\n      swap1\n      pop\n      jump\t// out\n        /* \"#utility.yul\":3995:4109   */\n    tag_190:\n        /* \"#utility.yul\":4062:4068   */\n      0x00\n        /* \"#utility.yul\":4096:4101   */\n      dup2\n        /* \"#utility.yul\":4090:4102   */\n      mload\n        /* \"#utility.yul\":4080:4102   */\n      swap1\n      pop\n        /* \"#utility.yul\":3995:4109   */\n      swap2\n      swap1\n      pop\n      jump\t// out\n        /* \"#utility.yul\":4115:4299   */\n    tag_191:\n        /* \"#utility.yul\":4214:4225   */\n      0x00\n        /* \"#utility.yul\":4248:4254   */\n      dup3\n        /* \"#utility.yul\":4243:4246   */\n      dup3\n        /* \"#utility.yul\":4236:4255   */\n      mstore\n        /* \"#utility.yul\":4288:4292   */\n      0x20\n        /* \"#utility.yul\":4283:4286   */\n      dup3\n        /* \"#utility.yul\":4279:4293   */\n      add\n        /* \"#utility.yul\":4264:4293   */\n      swap1\n      pop\n        /* \"#utility.yul\":4115:4299   */\n      swap3\n      swap2\n      pop\n      pop\n      jump\t// out\n        /* \"#utility.yul\":4305:4437   */\n    tag_192:\n        /* \"#utility.yul\":4372:4376   */\n      0x00\n        /* \"#utility.yul\":4395:4398   */\n      dup2\n        /* \"#utility.yul\":4387:4398   */\n      swap1\n      pop\n        /* \"#utility.yul\":4425:4429   */\n      0x20\n        /* \"#utility.yul\":4420:4423   */\n      dup3\n        /* \"#utility.yul\":4416:4430   */\n      add\n        /* \"#utility.yul\":4408:4430   */\n      swap1\n      pop\n        /* \"#utility.yul\":4305:4437   */\n      swap2\n      swap1\n      pop\n      jump\t// out\n        /* \"#utility.yul\":4443:4551   */\n    tag_193:\n        /* \"#utility.yul\":4520:4544   */\n      tag_266\n        /* \"#utility.yul\":4538:4543   */\n      dup2\n        /* \"#utility.yul\":4520:4544   */\n      tag_185\n      jump\t// in\n    tag_266:\n        /* \"#utility.yul\":4515:4518   */\n      dup3\n        /* \"#utility.yul\":4508:4545   */\n      mstore\n        /* \"#utility.yul\":4443:4551   */\n      pop\n      pop\n      jump\t// out\n        /* \"#utility.yul\":4557:4736   */\n    tag_194:\n        /* \"#utility.yul\":4626:4636   */\n      0x00\n        /* \"#utility.yul\":4647:4693   */\n      tag_268\n        /* \"#utility.yul\":4689:4692   */\n      dup4\n        /* \"#utility.yul\":4681:4687   */\n      dup4\n        /* \"#utility.yul\":4647:4693   */\n      tag_193\n      jump\t// in\n    tag_268:\n        /* \"#utility.yul\":4725:4729   */\n      0x20\n        /* \"#utility.yul\":4720:4723   */\n      dup4\n        /* \"#utility.yul\":4716:4730   */\n      add\n        /* \"#utility.yul\":4702:4730   */\n      swap1\n      pop\n        /* \"#utility.yul\":4557:4736   */\n      swap3\n      swap2\n      pop\n      pop\n      jump\t// out\n        /* \"#utility.yul\":4742:4855   */\n    tag_195:\n        /* \"#utility.yul\":4812:4816   */\n      0x00\n        /* \"#utility.yul\":4844:4848   */\n      0x20\n        /* \"#utility.yul\":4839:4842   */\n      dup3\n        /* \"#utility.yul\":4835:4849   */\n      add\n        /* \"#utility.yul\":4827:4849   */\n      swap1\n      pop\n        /* \"#utility.yul\":4742:4855   */\n      swap2\n      swap1\n      pop\n      jump\t// out\n        /* \"#utility.yul\":4891:5623   */\n    tag_196:\n        /* \"#utility.yul\":5010:5013   */\n      0x00\n        /* \"#utility.yul\":5039:5093   */\n      tag_271\n        /* \"#utility.yul\":5087:5092   */\n      dup3\n        /* \"#utility.yul\":5039:5093   */\n      tag_190\n      jump\t// in\n    tag_271:\n        /* \"#utility.yul\":5109:5195   */\n      tag_272\n        /* \"#utility.yul\":5188:5194   */\n      dup2\n        /* \"#utility.yul\":5183:5186   */\n      dup6\n        /* \"#utility.yul\":5109:5195   */\n      tag_191\n      jump\t// in\n    tag_272:\n        /* \"#utility.yul\":5102:5195   */\n      swap4\n      pop\n        /* \"#utility.yul\":5219:5275   */\n      tag_273\n        /* \"#utility.yul\":5269:5274   */\n      dup4\n        /* \"#utility.yul\":5219:5275   */\n      tag_192\n      jump\t// in\n    tag_273:\n        /* \"#utility.yul\":5298:5305   */\n      dup1\n        /* \"#utility.yul\":5329:5330   */\n      0x00\n        /* \"#utility.yul\":5314:5598   */\n    tag_274:\n        /* \"#utility.yul\":5339:5345   */\n      dup4\n        /* \"#utility.yul\":5336:5337   */\n      dup2\n        /* \"#utility.yul\":5333:5346   */\n      lt\n        /* \"#utility.yul\":5314:5598   */\n      iszero\n      tag_276\n      jumpi\n        /* \"#utility.yul\":5415:5421   */\n      dup2\n        /* \"#utility.yul\":5409:5422   */\n      mload\n        /* \"#utility.yul\":5442:5505   */\n      tag_277\n        /* \"#utility.yul\":5501:5504   */\n      dup9\n        /* \"#utility.yul\":5486:5499   */\n      dup3\n        /* \"#utility.yul\":5442:5505   */\n      tag_194\n      jump\t// in\n    tag_277:\n        /* \"#utility.yul\":5435:5505   */\n      swap8\n      pop\n        /* \"#utility.yul\":5528:5588   */\n      tag_278\n        /* \"#utility.yul\":5581:5587   */\n      dup4\n        /* \"#utility.yul\":5528:5588   */\n      tag_195\n      jump\t// in\n    tag_278:\n        /* \"#utility.yul\":5518:5588   */\n      swap3\n      pop\n        /* \"#utility.yul\":5374:5598   */\n      pop\n        /* \"#utility.yul\":5361:5362   */\n      0x01\n        /* \"#utility.yul\":5358:5359   */\n      dup2\n        /* \"#utility.yul\":5354:5363   */\n      add\n        /* \"#utility.yul\":5349:5363   */\n      swap1\n      pop\n        /* \"#utility.yul\":5314:5598   */\n      jump(tag_274)\n    tag_276:\n        /* \"#utility.yul\":5318:5332   */\n      pop\n        /* \"#utility.yul\":5614:5617   */\n      dup6\n        /* \"#utility.yul\":5607:5617   */\n      swap4\n      pop\n        /* \"#utility.yul\":5015:5623   */\n      pop\n      pop\n      pop\n        /* \"#utility.yul\":4891:5623   */\n      swap3\n      swap2\n      pop\n      pop\n      jump\t// out\n        /* \"#utility.yul\":5629:6002   */\n    tag_14:\n        /* \"#utility.yul\":5772:5776   */\n      0x00\n        /* \"#utility.yul\":5810:5812   */\n      0x20\n        /* \"#utility.yul\":5799:5808   */\n      dup3\n        /* \"#utility.yul\":5795:5813   */\n      add\n        /* \"#utility.yul\":5787:5813   */\n      swap1\n      pop\n        /* \"#utility.yul\":5859:5868   */\n      dup2\n        /* \"#utility.yul\":5853:5857   */\n      dup2\n        /* \"#utility.yul\":5849:5869   */\n      sub\n        /* \"#utility.yul\":5845:5846   */\n      0x00\n        /* \"#utility.yul\":5834:5843   */\n      dup4\n        /* \"#utility.yul\":5830:5847   */\n      add\n        /* \"#utility.yul\":5823:5870   */\n      mstore\n        /* \"#utility.yul\":5887:5995   */\n      tag_280\n        /* \"#utility.yul\":5990:5994   */\n      dup2\n        /* \"#utility.yul\":5981:5987   */\n      dup5\n        /* \"#utility.yul\":5887:5995   */\n      tag_196\n      jump\t// in\n    tag_280:\n        /* \"#utility.yul\":5879:5995   */\n      swap1\n      pop\n        /* \"#utility.yul\":5629:6002   */\n      swap3\n      swap2\n      pop\n      pop\n      jump\t// out\n        /* \"#utility.yul\":6008:6125   */\n    tag_197:\n        /* \"#utility.yul\":6117:6118   */\n      0x00\n        /* \"#utility.yul\":6114:6115   */\n      0x00\n        /* \"#utility.yul\":6107:6119   */\n      revert\n        /* \"#utility.yul\":6131:6439   */\n    tag_198:\n        /* \"#utility.yul\":6193:6197   */\n      0x00\n        /* \"#utility.yul\":6283:6301   */\n      0xffffffffffffffff\n        /* \"#utility.yul\":6275:6281   */\n      dup3\n        /* \"#utility.yul\":6272:6302   */\n      gt\n        /* \"#utility.yul\":6269:6325   */\n      iszero\n      tag_283\n      jumpi\n        /* \"#utility.yul\":6305:6323   */\n      tag_284\n      tag_46\n      jump\t// in\n    tag_284:\n        /* \"#utility.yul\":6269:6325   */\n    tag_283:\n        /* \"#utility.yul\":6343:6372   */\n      tag_285\n        /* \"#utility.yul\":6365:6371   */\n      dup3\n        /* \"#utility.yul\":6343:6372   */\n      tag_180\n      jump\t// in\n    tag_285:\n        /* \"#utility.yul\":6335:6372   */\n      swap1\n      pop\n        /* \"#utility.yul\":6427:6431   */\n      0x20\n        /* \"#utility.yul\":6421:6425   */\n      dup2\n        /* \"#utility.yul\":6417:6432   */\n      add\n        /* \"#utility.yul\":6409:6432   */\n      swap1\n      pop\n        /* \"#utility.yul\":6131:6439   */\n      swap2\n      swap1\n      pop\n      jump\t// out\n        /* \"#utility.yul\":6445:6593   */\n    tag_199:\n        /* \"#utility.yul\":6543:6549   */\n      dup3\n        /* \"#utility.yul\":6538:6541   */\n      dup2\n        /* \"#utility.yul\":6533:6536   */\n      dup4\n        /* \"#utility.yul\":6520:6550   */\n      calldatacopy\n        /* \"#utility.yul\":6584:6585   */\n      0x00\n        /* \"#utility.yul\":6575:6581   */\n      dup4\n        /* \"#utility.yul\":6570:6573   */\n      dup4\n        /* \"#utility.yul\":6566:6582   */\n      add\n        /* \"#utility.yul\":6559:6586   */\n      mstore\n        /* \"#utility.yul\":6445:6593   */\n      pop\n      pop\n      pop\n      jump\t// out\n        /* \"#utility.yul\":6599:7024   */\n    tag_200:\n        /* \"#utility.yul\":6677:6682   */\n      0x00\n        /* \"#utility.yul\":6702:6768   */\n      tag_288\n        /* \"#utility.yul\":6718:6767   */\n      tag_289\n        /* \"#utility.yul\":6760:6766   */\n      dup5\n        /* \"#utility.yul\":6718:6767   */\n      tag_198\n      jump\t// in\n    tag_289:\n        /* \"#utility.yul\":6702:6768   */\n      tag_182\n      jump\t// in\n    tag_288:\n        /* \"#utility.yul\":6693:6768   */\n      swap1\n      pop\n        /* \"#utility.yul\":6791:6797   */\n      dup3\n        /* \"#utility.yul\":6784:6789   */\n      dup2\n        /* \"#utility.yul\":6777:6798   */\n      mstore\n        /* \"#utility.yul\":6829:6833   */\n      0x20\n        /* \"#utility.yul\":6822:6827   */\n      dup2\n        /* \"#utility.yul\":6818:6834   */\n      add\n        /* \"#utility.yul\":6867:6870   */\n      dup5\n        /* \"#utility.yul\":6858:6864   */\n      dup5\n        /* \"#utility.yul\":6853:6856   */\n      dup5\n        /* \"#utility.yul\":6849:6865   */\n      add\n        /* \"#utility.yul\":6846:6871   */\n      gt\n        /* \"#utility.yul\":6843:6955   */\n      iszero\n      tag_290\n      jumpi\n        /* \"#utility.yul\":6874:6953   */\n      tag_291\n      tag_197\n      jump\t// in\n    tag_291:\n        /* \"#utility.yul\":6843:6955   */\n    tag_290:\n        /* \"#utility.yul\":6964:7018   */\n      tag_292\n        /* \"#utility.yul\":7011:7017   */\n      dup5\n        /* \"#utility.yul\":7006:7009   */\n      dup3\n        /* \"#utility.yul\":7001:7004   */\n      dup6\n        /* \"#utility.yul\":6964:7018   */\n      tag_199\n      jump\t// in\n    tag_292:\n        /* \"#utility.yul\":6683:7024   */\n      pop\n        /* \"#utility.yul\":6599:7024   */\n      swap4\n      swap3\n      pop\n      pop\n      pop\n      jump\t// out\n        /* \"#utility.yul\":7044:7384   */\n    tag_201:\n        /* \"#utility.yul\":7100:7105   */\n      0x00\n        /* \"#utility.yul\":7149:7152   */\n      dup3\n        /* \"#utility.yul\":7142:7146   */\n      0x1f\n        /* \"#utility.yul\":7134:7140   */\n      dup4\n        /* \"#utility.yul\":7130:7147   */\n      add\n        /* \"#utility.yul\":7126:7153   */\n      slt\n        /* \"#utility.yul\":7116:7238   */\n      tag_294\n      jumpi\n        /* \"#utility.yul\":7157:7236   */\n      tag_295\n      tag_179\n      jump\t// in\n    tag_295:\n        /* \"#utility.yul\":7116:7238   */\n    tag_294:\n        /* \"#utility.yul\":7274:7280   */\n      dup2\n        /* \"#utility.yul\":7261:7281   */\n      calldataload\n        /* \"#utility.yul\":7299:7378   */\n      tag_296\n        /* \"#utility.yul\":7374:7377   */\n      dup5\n        /* \"#utility.yul\":7366:7372   */\n      dup3\n        /* \"#utility.yul\":7359:7363   */\n      0x20\n        /* \"#utility.yul\":7351:7357   */\n      dup7\n        /* \"#utility.yul\":7347:7364   */\n      add\n        /* \"#utility.yul\":7299:7378   */\n      tag_200\n      jump\t// in\n    tag_296:\n        /* \"#utility.yul\":7290:7378   */\n      swap2\n      pop\n        /* \"#utility.yul\":7106:7384   */\n      pop\n        /* \"#utility.yul\":7044:7384   */\n      swap3\n      swap2\n      pop\n      pop\n      jump\t// out\n        /* \"#utility.yul\":7390:7899   */\n    tag_17:\n        /* \"#utility.yul\":7459:7465   */\n      0x00\n        /* \"#utility.yul\":7508:7510   */\n      0x20\n        /* \"#utility.yul\":7496:7505   */\n      dup3\n        /* \"#utility.yul\":7487:7494   */\n      dup5\n        /* \"#utility.yul\":7483:7506   */\n      sub\n        /* \"#utility.yul\":7479:7511   */\n      slt\n        /* \"#utility.yul\":7476:7595   */\n      iszero\n      tag_298\n      jumpi\n        /* \"#utility.yul\":7514:7593   */\n      tag_299\n      tag_177\n      jump\t// in\n    tag_299:\n        /* \"#utility.yul\":7476:7595   */\n    tag_298:\n        /* \"#utility.yul\":7662:7663   */\n      0x00\n        /* \"#utility.yul\":7651:7660   */\n      dup3\n        /* \"#utility.yul\":7647:7664   */\n      add\n        /* \"#utility.yul\":7634:7665   */\n      calldataload\n        /* \"#utility.yul\":7692:7710   */\n      0xffffffffffffffff\n        /* \"#utility.yul\":7684:7690   */\n      dup2\n        /* \"#utility.yul\":7681:7711   */\n      gt\n        /* \"#utility.yul\":7678:7795   */\n      iszero\n      tag_300\n      jumpi\n        /* \"#utility.yul\":7714:7793   */\n      tag_301\n      tag_178\n      jump\t// in\n    tag_301:\n        /* \"#utility.yul\":7678:7795   */\n    tag_300:\n        /* \"#utility.yul\":7819:7882   */\n      tag_302\n        /* \"#utility.yul\":7874:7881   */\n      dup5\n        /* \"#utility.yul\":7865:7871   */\n      dup3\n        /* \"#utility.yul\":7854:7863   */\n      dup6\n        /* \"#utility.yul\":7850:7872   */\n      add\n        /* \"#utility.yul\":7819:7882   */\n      tag_201\n      jump\t// in\n    tag_302:\n        /* \"#utility.yul\":7809:7882   */\n      swap2\n      pop\n        /* \"#utility.yul\":7605:7892   */\n      pop\n        /* \"#utility.yul\":7390:7899   */\n      swap3\n      swap2\n      pop\n      pop\n      jump\t// out\n        /* \"#utility.yul\":7905:8023   */\n    tag_202:\n        /* \"#utility.yul\":7992:8016   */\n      tag_304\n        /* \"#utility.yul\":8010:8015   */\n      dup2\n        /* \"#utility.yul\":7992:8016   */\n      tag_185\n      jump\t// in\n    tag_304:\n        /* \"#utility.yul\":7987:7990   */\n      dup3\n        /* \"#utility.yul\":7980:8017   */\n      mstore\n        /* \"#utility.yul\":7905:8023   */\n      pop\n      pop\n      jump\t// out\n        /* \"#utility.yul\":8029:8251   */\n    tag_20:\n        /* \"#utility.yul\":8122:8126   */\n      0x00\n        /* \"#utility.yul\":8160:8162   */\n      0x20\n        /* \"#utility.yul\":8149:8158   */\n      dup3\n        /* \"#utility.yul\":8145:8163   */\n      add\n        /* \"#utility.yul\":8137:8163   */\n      swap1\n      pop\n        /* \"#utility.yul\":8173:8244   */\n      tag_306\n        /* \"#utility.yul\":8241:8242   */\n      0x00\n        /* \"#utility.yul\":8230:8239   */\n      dup4\n        /* \"#utility.yul\":8226:8243   */\n      add\n        /* \"#utility.yul\":8217:8223   */\n      dup5\n        /* \"#utility.yul\":8173:8244   */\n      tag_202\n      jump\t// in\n    tag_306:\n        /* \"#utility.yul\":8029:8251   */\n      swap3\n      swap2\n      pop\n      pop\n      jump\t// out\n        /* \"#utility.yul\":8257:8586   */\n    tag_23:\n        /* \"#utility.yul\":8316:8322   */\n      0x00\n        /* \"#utility.yul\":8365:8367   */\n      0x20\n        /* \"#utility.yul\":8353:8362   */\n      dup3\n        /* \"#utility.yul\":8344:8351   */\n      dup5\n        /* \"#utility.yul\":8340:8363   */\n      sub\n        /* \"#utility.yul\":8336:8368   */\n      slt\n        /* \"#utility.yul\":8333:8452   */\n      iszero\n      tag_308\n      jumpi\n        /* \"#utility.yul\":8371:8450   */\n      tag_309\n      tag_177\n      jump\t// in\n    tag_309:\n        /* \"#utility.yul\":8333:8452   */\n    tag_308:\n        /* \"#utility.yul\":8491:8492   */\n      0x00\n        /* \"#utility.yul\":8516:8569   */\n      tag_310\n        /* \"#utility.yul\":8561:8568   */\n      dup5\n        /* \"#utility.yul\":8552:8558   */\n      dup3\n        /* \"#utility.yul\":8541:8550   */\n      dup6\n        /* \"#utility.yul\":8537:8559   */\n      add\n        /* \"#utility.yul\":8516:8569   */\n      tag_187\n      jump\t// in\n    tag_310:\n        /* \"#utility.yul\":8506:8569   */\n      swap2\n      pop\n        /* \"#utility.yul\":8462:8579   */\n      pop\n        /* \"#utility.yul\":8257:8586   */\n      swap3\n      swap2\n      pop\n      pop\n      jump\t// out\n        /* \"#utility.yul\":8592:8691   */\n    tag_203:\n        /* \"#utility.yul\":8644:8650   */\n      0x00\n        /* \"#utility.yul\":8678:8683   */\n      dup2\n        /* \"#utility.yul\":8672:8684   */\n      mload\n        /* \"#utility.yul\":8662:8684   */\n      swap1\n      pop\n        /* \"#utility.yul\":8592:8691   */\n      swap2\n      swap1\n      pop\n      jump\t// out\n        /* \"#utility.yul\":8697:8866   */\n    tag_204:\n        /* \"#utility.yul\":8781:8792   */\n      0x00\n        /* \"#utility.yul\":8815:8821   */\n      dup3\n        /* \"#utility.yul\":8810:8813   */\n      dup3\n        /* \"#utility.yul\":8803:8822   */\n      mstore\n        /* \"#utility.yul\":8855:8859   */\n      0x20\n        /* \"#utility.yul\":8850:8853   */\n      dup3\n        /* \"#utility.yul\":8846:8860   */\n      add\n        /* \"#utility.yul\":8831:8860   */\n      swap1\n      pop\n        /* \"#utility.yul\":8697:8866   */\n      swap3\n      swap2\n      pop\n      pop\n      jump\t// out\n        /* \"#utility.yul\":8872:9011   */\n    tag_205:\n        /* \"#utility.yul\":8961:8967   */\n      dup3\n        /* \"#utility.yul\":8956:8959   */\n      dup2\n        /* \"#utility.yul\":8951:8954   */\n      dup4\n        /* \"#utility.yul\":8945:8968   */\n      mcopy\n        /* \"#utility.yul\":9002:9003   */\n      0x00\n        /* \"#utility.yul\":8993:8999   */\n      dup4\n        /* \"#utility.yul\":8988:8991   */\n      dup4\n        /* \"#utility.yul\":8984:9000   */\n      add\n        /* \"#utility.yul\":8977:9004   */\n      mstore\n        /* \"#utility.yul\":8872:9011   */\n      pop\n      pop\n      pop\n      jump\t// out\n        /* \"#utility.yul\":9017:9394   */\n    tag_206:\n        /* \"#utility.yul\":9105:9108   */\n      0x00\n        /* \"#utility.yul\":9133:9172   */\n      tag_315\n        /* \"#utility.yul\":9166:9171   */\n      dup3\n        /* \"#utility.yul\":9133:9172   */\n      tag_203\n      jump\t// in\n    tag_315:\n        /* \"#utility.yul\":9188:9259   */\n      tag_316\n        /* \"#utility.yul\":9252:9258   */\n      dup2\n        /* \"#utility.yul\":9247:9250   */\n      dup6\n        /* \"#utility.yul\":9188:9259   */\n      tag_204\n      jump\t// in\n    tag_316:\n        /* \"#utility.yul\":9181:9259   */\n      swap4\n      pop\n        /* \"#utility.yul\":9268:9333   */\n      tag_317\n        /* \"#utility.yul\":9326:9332   */\n      dup2\n        /* \"#utility.yul\":9321:9324   */\n      dup6\n        /* \"#utility.yul\":9314:9318   */\n      0x20\n        /* \"#utility.yul\":9307:9312   */\n      dup7\n        /* \"#utility.yul\":9303:9319   */\n      add\n        /* \"#utility.yul\":9268:9333   */\n      tag_205\n      jump\t// in\n    tag_317:\n        /* \"#utility.yul\":9358:9387   */\n      tag_318\n        /* \"#utility.yul\":9380:9386   */\n      dup2\n        /* \"#utility.yul\":9358:9387   */\n      tag_180\n      jump\t// in\n    tag_318:\n        /* \"#utility.yul\":9353:9356   */\n      dup5\n        /* \"#utility.yul\":9349:9388   */\n      add\n        /* \"#utility.yul\":9342:9388   */\n      swap2\n      pop\n        /* \"#utility.yul\":9109:9394   */\n      pop\n        /* \"#utility.yul\":9017:9394   */\n      swap3\n      swap2\n      pop\n      pop\n      jump\t// out\n        /* \"#utility.yul\":9400:9713   */\n    tag_26:\n        /* \"#utility.yul\":9513:9517   */\n      0x00\n        /* \"#utility.yul\":9551:9553   */\n      0x20\n        /* \"#utility.yul\":9540:9549   */\n      dup3\n        /* \"#utility.yul\":9536:9554   */\n      add\n        /* \"#utility.yul\":9528:9554   */\n      swap1\n      pop\n        /* \"#utility.yul\":9600:9609   */\n      dup2\n        /* \"#utility.yul\":9594:9598   */\n      dup2\n        /* \"#utility.yul\":9590:9610   */\n      sub\n        /* \"#utility.yul\":9586:9587   */\n      0x00\n        /* \"#utility.yul\":9575:9584   */\n      dup4\n        /* \"#utility.yul\":9571:9588   */\n      add\n        /* \"#utility.yul\":9564:9611   */\n      mstore\n        /* \"#utility.yul\":9628:9706   */\n      tag_320\n        /* \"#utility.yul\":9701:9705   */\n      dup2\n        /* \"#utility.yul\":9692:9698   */\n      dup5\n        /* \"#utility.yul\":9628:9706   */\n      tag_206\n      jump\t// in\n    tag_320:\n        /* \"#utility.yul\":9620:9706   */\n      swap1\n      pop\n        /* \"#utility.yul\":9400:9713   */\n      swap3\n      swap2\n      pop\n      pop\n      jump\t// out\n        /* \"#utility.yul\":9719:10403   */\n    tag_33:\n        /* \"#utility.yul\":9812:9818   */\n      0x00\n        /* \"#utility.yul\":9820:9826   */\n      0x00\n        /* \"#utility.yul\":9869:9871   */\n      0x40\n        /* \"#utility.yul\":9857:9866   */\n      dup4\n        /* \"#utility.yul\":9848:9855   */\n      dup6\n        /* \"#utility.yul\":9844:9867   */\n      sub\n        /* \"#utility.yul\":9840:9872   */\n      slt\n        /* \"#utility.yul\":9837:9956   */\n      iszero\n      tag_322\n      jumpi\n        /* \"#utility.yul\":9875:9954   */\n      tag_323\n      tag_177\n      jump\t// in\n    tag_323:\n        /* \"#utility.yul\":9837:9956   */\n    tag_322:\n        /* \"#utility.yul\":10023:10024   */\n      0x00\n        /* \"#utility.yul\":10012:10021   */\n      dup4\n        /* \"#utility.yul\":10008:10025   */\n      add\n        /* \"#utility.yul\":9995:10026   */\n      calldataload\n        /* \"#utility.yul\":10053:10071   */\n      0xffffffffffffffff\n        /* \"#utility.yul\":10045:10051   */\n      dup2\n        /* \"#utility.yul\":10042:10072   */\n      gt\n        /* \"#utility.yul\":10039:10156   */\n      iszero\n      tag_324\n      jumpi\n        /* \"#utility.yul\":10075:10154   */\n      tag_325\n      tag_178\n      jump\t// in\n    tag_325:\n        /* \"#utility.yul\":10039:10156   */\n    tag_324:\n        /* \"#utility.yul\":10180:10258   */\n      tag_326\n        /* \"#utility.yul\":10250:10257   */\n      dup6\n        /* \"#utility.yul\":10241:10247   */\n      dup3\n        /* \"#utility.yul\":10230:10239   */\n      dup7\n        /* \"#utility.yul\":10226:10248   */\n      add\n        /* \"#utility.yul\":10180:10258   */\n      tag_189\n      jump\t// in\n    tag_326:\n        /* \"#utility.yul\":10170:10258   */\n      swap3\n      pop\n        /* \"#utility.yul\":9966:10268   */\n      pop\n        /* \"#utility.yul\":10307:10309   */\n      0x20\n        /* \"#utility.yul\":10333:10386   */\n      tag_327\n        /* \"#utility.yul\":10378:10385   */\n      dup6\n        /* \"#utility.yul\":10369:10375   */\n      dup3\n        /* \"#utility.yul\":10358:10367   */\n      dup7\n        /* \"#utility.yul\":10354:10376   */\n      add\n        /* \"#utility.yul\":10333:10386   */\n      tag_187\n      jump\t// in\n    tag_327:\n        /* \"#utility.yul\":10323:10386   */\n      swap2\n      pop\n        /* \"#utility.yul\":10278:10396   */\n      pop\n        /* \"#utility.yul\":9719:10403   */\n      swap3\n      pop\n      swap3\n      swap1\n      pop\n      jump\t// out\n        /* \"#utility.yul\":10409:10485   */\n    tag_207:\n        /* \"#utility.yul\":10445:10452   */\n      0x00\n        /* \"#utility.yul\":10474:10479   */\n      dup2\n        /* \"#utility.yul\":10463:10479   */\n      swap1\n      pop\n        /* \"#utility.yul\":10409:10485   */\n      swap2\n      swap1\n      pop\n      jump\t// out\n        /* \"#utility.yul\":10491:10606   */\n    tag_208:\n        /* \"#utility.yul\":10576:10599   */\n      tag_330\n        /* \"#utility.yul\":10593:10598   */\n      dup2\n        /* \"#utility.yul\":10576:10599   */\n      tag_207\n      jump\t// in\n    tag_330:\n        /* \"#utility.yul\":10571:10574   */\n      dup3\n        /* \"#utility.yul\":10564:10600   */\n      mstore\n        /* \"#utility.yul\":10491:10606   */\n      pop\n      pop\n      jump\t// out\n        /* \"#utility.yul\":10612:10830   */\n    tag_36:\n        /* \"#utility.yul\":10703:10707   */\n      0x00\n        /* \"#utility.yul\":10741:10743   */\n      0x20\n        /* \"#utility.yul\":10730:10739   */\n      dup3\n        /* \"#utility.yul\":10726:10744   */\n      add\n        /* \"#utility.yul\":10718:10744   */\n      swap1\n      pop\n        /* \"#utility.yul\":10754:10823   */\n      tag_332\n        /* \"#utility.yul\":10820:10821   */\n      0x00\n        /* \"#utility.yul\":10809:10818   */\n      dup4\n        /* \"#utility.yul\":10805:10822   */\n      add\n        /* \"#utility.yul\":10796:10802   */\n      dup5\n        /* \"#utility.yul\":10754:10823   */\n      tag_208\n      jump\t// in\n    tag_332:\n        /* \"#utility.yul\":10612:10830   */\n      swap3\n      swap2\n      pop\n      pop\n      jump\t// out\n        /* \"#utility.yul\":10836:11016   */\n    tag_209:\n        /* \"#utility.yul\":10884:10961   */\n      0x4e487b7100000000000000000000000000000000000000000000000000000000\n        /* \"#utility.yul\":10881:10882   */\n      0x00\n        /* \"#utility.yul\":10874:10962   */\n      mstore\n        /* \"#utility.yul\":10981:10985   */\n      0x11\n        /* \"#utility.yul\":10978:10979   */\n      0x04\n        /* \"#utility.yul\":10971:10986   */\n      mstore\n        /* \"#utility.yul\":11005:11009   */\n      0x24\n        /* \"#utility.yul\":11002:11003   */\n      0x00\n        /* \"#utility.yul\":10995:11010   */\n      revert\n        /* \"#utility.yul\":11022:11213   */\n    tag_43:\n        /* \"#utility.yul\":11062:11065   */\n      0x00\n        /* \"#utility.yul\":11081:11101   */\n      tag_335\n        /* \"#utility.yul\":11099:11100   */\n      dup3\n        /* \"#utility.yul\":11081:11101   */\n      tag_185\n      jump\t// in\n    tag_335:\n        /* \"#utility.yul\":11076:11101   */\n      swap2\n      pop\n        /* \"#utility.yul\":11115:11135   */\n      tag_336\n        /* \"#utility.yul\":11133:11134   */\n      dup4\n        /* \"#utility.yul\":11115:11135   */\n      tag_185\n      jump\t// in\n    tag_336:\n        /* \"#utility.yul\":11110:11135   */\n      swap3\n      pop\n        /* \"#utility.yul\":11158:11159   */\n      dup3\n        /* \"#utility.yul\":11155:11156   */\n      dup3\n        /* \"#utility.yul\":11151:11160   */\n      add\n        /* \"#utility.yul\":11144:11160   */\n      swap1\n      pop\n        /* \"#utility.yul\":11179:11182   */\n      dup1\n        /* \"#utility.yul\":11176:11177   */\n      dup3\n        /* \"#utility.yul\":11173:11183   */\n      gt\n        /* \"#utility.yul\":11170:11206   */\n      iszero\n      tag_337\n      jumpi\n        /* \"#utility.yul\":11186:11204   */\n      tag_338\n      tag_209\n      jump\t// in\n    tag_338:\n        /* \"#utility.yul\":11170:11206   */\n    tag_337:\n        /* \"#utility.yul\":11022:11213   */\n      swap3\n      swap2\n      pop\n      pop\n      jump\t// out\n        /* \"#utility.yul\":11219:11399   */\n    tag_53:\n        /* \"#utility.yul\":11267:11344   */\n      0x4e487b7100000000000000000000000000000000000000000000000000000000\n        /* \"#utility.yul\":11264:11265   */\n      0x00\n        /* \"#utility.yul\":11257:11345   */\n      mstore\n        /* \"#utility.yul\":11364:11368   */\n      0x32\n        /* \"#utility.yul\":11361:11362   */\n      0x04\n        /* \"#utility.yul\":11354:11369   */\n      mstore\n        /* \"#utility.yul\":11388:11392   */\n      0x24\n        /* \"#utility.yul\":11385:11386   */\n      0x00\n        /* \"#utility.yul\":11378:11393   */\n      revert\n        /* \"#utility.yul\":11405:11638   */\n    tag_62:\n        /* \"#utility.yul\":11444:11447   */\n      0x00\n        /* \"#utility.yul\":11467:11491   */\n      tag_341\n        /* \"#utility.yul\":11485:11490   */\n      dup3\n        /* \"#utility.yul\":11467:11491   */\n      tag_185\n      jump\t// in\n    tag_341:\n        /* \"#utility.yul\":11458:11491   */\n      swap2\n      pop\n        /* \"#utility.yul\":11513:11579   */\n      0xffffffffffffffffffffffffffffffffffffffffffffffffffffffffffffffff\n        /* \"#utility.yul\":11506:11511   */\n      dup3\n        /* \"#utility.yul\":11503:11580   */\n      sub\n        /* \"#utility.yul\":11500:11603   */\n      tag_342\n      jumpi\n        /* \"#utility.yul\":11583:11601   */\n      tag_343\n      tag_209\n      jump\t// in\n    tag_343:\n        /* \"#utility.yul\":11500:11603   */\n    tag_342:\n        /* \"#utility.yul\":11630:11631   */\n      0x01\n        /* \"#utility.yul\":11623:11628   */\n      dup3\n        /* \"#utility.yul\":11619:11632   */\n      add\n        /* \"#utility.yul\":11612:11632   */\n      swap1\n      pop\n        /* \"#utility.yul\":11405:11638   */\n      swap2\n      swap1\n      pop\n      jump\t// out\n        /* \"#utility.yul\":11644:11838   */\n    tag_91:\n        /* \"#utility.yul\":11684:11688   */\n      0x00\n        /* \"#utility.yul\":11704:11724   */\n      tag_345\n        /* \"#utility.yul\":11722:11723   */\n      dup3\n        /* \"#utility.yul\":11704:11724   */\n      tag_185\n      jump\t// in\n    tag_345:\n        /* \"#utility.yul\":11699:11724   */\n      swap2\n      pop\n        /* \"#utility.yul\":11738:11758   */\n      tag_346\n        /* \"#utility.yul\":11756:11757   */\n      dup4\n        /* \"#utility.yul\":11738:11758   */\n      tag_185\n      jump\t// in\n    tag_346:\n        /* \"#utility.yul\":11733:11758   */\n      swap3\n      pop\n        /* \"#utility.yul\":11782:11783   */\n      dup3\n        /* \"#utility.yul\":11779:11780   */\n      dup3\n        /* \"#utility.yul\":11775:11784   */\n      sub\n        /* \"#utility.yul\":11767:11784   */\n      swap1\n      pop\n        /* \"#utility.yul\":11806:11807   */\n      dup2\n        /* \"#utility.yul\":11800:11804   */\n      dup2\n        /* \"#utility.yul\":11797:11808   */\n      gt\n        /* \"#utility.yul\":11794:11831   */\n      iszero\n      tag_347\n      jumpi\n        /* \"#utility.yul\":11811:11829   */\n      tag_348\n      tag_209\n      jump\t// in\n    tag_348:\n        /* \"#utility.yul\":11794:11831   */\n    tag_347:\n        /* \"#utility.yul\":11644:11838   */\n      swap3\n      swap2\n      pop\n      pop\n      jump\t// out\n        /* \"#utility.yul\":11844:12015   */\n    tag_101:\n        /* \"#utility.yul\":11883:11886   */\n      0x00\n        /* \"#utility.yul\":11906:11930   */\n      tag_350\n        /* \"#utility.yul\":11924:11929   */\n      dup3\n        /* \"#utility.yul\":11906:11930   */\n      tag_185\n      jump\t// in\n    tag_350:\n        /* \"#utility.yul\":11897:11930   */\n      swap2\n      pop\n        /* \"#utility.yul\":11952:11956   */\n      0x00\n        /* \"#utility.yul\":11945:11950   */\n      dup3\n        /* \"#utility.yul\":11942:11957   */\n      sub\n        /* \"#utility.yul\":11939:11980   */\n      tag_351\n      jumpi\n        /* \"#utility.yul\":11960:11978   */\n      tag_352\n      tag_209\n      jump\t// in\n    tag_352:\n        /* \"#utility.yul\":11939:11980   */\n    tag_351:\n        /* \"#utility.yul\":12007:12008   */\n      0x01\n        /* \"#utility.yul\":12000:12005   */\n      dup3\n        /* \"#utility.yul\":11996:12009   */\n      sub\n        /* \"#utility.yul\":11989:12009   */\n      swap1\n      pop\n        /* \"#utility.yul\":11844:12015   */\n      swap2\n      swap1\n      pop\n      jump\t// out\n        /* \"#utility.yul\":12021:12119   */\n    tag_210:\n        /* \"#utility.yul\":12072:12078   */\n      0x00\n        /* \"#utility.yul\":12106:12111   */\n      dup2\n        /* \"#utility.yul\":12100:12112   */\n      mload\n        /* \"#utility.yul\":12090:12112   */\n      swap1\n      pop\n        /* \"#utility.yul\":12021:12119   */\n      swap2\n      swap1\n      pop\n      jump\t// out\n        /* \"#utility.yul\":12125:12272   */\n    tag_211:\n        /* \"#utility.yul\":12226:12237   */\n      0x00\n        /* \"#utility.yul\":12263:12266   */\n      dup2\n        /* \"#utility.yul\":12248:12266   */\n      swap1\n      pop\n        /* \"#utility.yul\":12125:12272   */\n      swap3\n      swap2\n      pop\n      pop\n      jump\t// out\n        /* \"#utility.yul\":12278:12664   */\n    tag_212:\n        /* \"#utility.yul\":12382:12385   */\n      0x00\n        /* \"#utility.yul\":12410:12448   */\n      tag_356\n        /* \"#utility.yul\":12442:12447   */\n      dup3\n        /* \"#utility.yul\":12410:12448   */\n      tag_210\n      jump\t// in\n    tag_356:\n        /* \"#utility.yul\":12464:12552   */\n      tag_357\n        /* \"#utility.yul\":12545:12551   */\n      dup2\n        /* \"#utility.yul\":12540:12543   */\n      dup6\n        /* \"#utility.yul\":12464:12552   */\n      tag_211\n      jump\t// in\n    tag_357:\n        /* \"#utility.yul\":12457:12552   */\n      swap4\n      pop\n        /* \"#utility.yul\":12561:12626   */\n      tag_358\n        /* \"#utility.yul\":12619:12625   */\n      dup2\n        /* \"#utility.yul\":12614:12617   */\n      dup6\n        /* \"#utility.yul\":12607:12611   */\n      0x20\n        /* \"#utility.yul\":12600:12605   */\n      dup7\n        /* \"#utility.yul\":12596:12612   */\n      add\n        /* \"#utility.yul\":12561:12626   */\n      tag_205\n      jump\t// in\n    tag_358:\n        /* \"#utility.yul\":12651:12657   */\n      dup1\n        /* \"#utility.yul\":12646:12649   */\n      dup5\n        /* \"#utility.yul\":12642:12658   */\n      add\n        /* \"#utility.yul\":12635:12658   */\n      swap2\n      pop\n        /* \"#utility.yul\":12386:12664   */\n      pop\n        /* \"#utility.yul\":12278:12664   */\n      swap3\n      swap2\n      pop\n      pop\n      jump\t// out\n        /* \"#utility.yul\":12670:13097   */\n    tag_119:\n        /* \"#utility.yul\":12846:12849   */\n      0x00\n        /* \"#utility.yul\":12868:12961   */\n      tag_360\n        /* \"#utility.yul\":12957:12960   */\n      dup3\n        /* \"#utility.yul\":12948:12954   */\n      dup6\n        /* \"#utility.yul\":12868:12961   */\n      tag_212\n      jump\t// in\n    tag_360:\n        /* \"#utility.yul\":12861:12961   */\n      swap2\n      pop\n        /* \"#utility.yul\":12978:13071   */\n      tag_361\n        /* \"#utility.yul\":13067:13070   */\n      dup3\n        /* \"#utility.yul\":13058:13064   */\n      dup5\n        /* \"#utility.yul\":12978:13071   */\n      tag_212\n      jump\t// in\n    tag_361:\n        /* \"#utility.yul\":12971:13071   */\n      swap2\n      pop\n        /* \"#utility.yul\":13088:13091   */\n      dup2\n        /* \"#utility.yul\":13081:13091   */\n      swap1\n      pop\n        /* \"#utility.yul\":12670:13097   */\n      swap4\n      swap3\n      pop\n      pop\n      pop\n      jump\t// out\n        /* \"#utility.yul\":13103:13283   */\n    tag_213:\n        /* \"#utility.yul\":13151:13228   */\n      0x4e487b7100000000000000000000000000000000000000000000000000000000\n        /* \"#utility.yul\":13148:13149   */\n      0x00\n        /* \"#utility.yul\":13141:13229   */\n      mstore\n        /* \"#utility.yul\":13248:13252   */\n      0x12\n        /* \"#utility.yul\":13245:13246   */\n      0x04\n        /* \"#utility.yul\":13238:13253   */\n      mstore\n        /* \"#utility.yul\":13272:13276   */\n      0x24\n        /* \"#utility.yul\":13269:13270   */\n      0x00\n        /* \"#utility.yul\":13262:13277   */\n      revert\n        /* \"#utility.yul\":13289:13474   */\n    tag_140:\n        /* \"#utility.yul\":13329:13330   */\n      0x00\n        /* \"#utility.yul\":13346:13366   */\n      tag_364\n        /* \"#utility.yul\":13364:13365   */\n      dup3\n        /* \"#utility.yul\":13346:13366   */\n      tag_185\n      jump\t// in\n    tag_364:\n        /* \"#utility.yul\":13341:13366   */\n      swap2\n      pop\n        /* \"#utility.yul\":13380:13400   */\n      tag_365\n        /* \"#utility.yul\":13398:13399   */\n      dup4\n        /* \"#utility.yul\":13380:13400   */\n      tag_185\n      jump\t// in\n    tag_365:\n        /* \"#utility.yul\":13375:13400   */\n      swap3\n      pop\n        /* \"#utility.yul\":13419:13420   */\n      dup3\n        /* \"#utility.yul\":13409:13444   */\n      tag_366\n      jumpi\n        /* \"#utility.yul\":13424:13442   */\n      tag_367\n      tag_213\n      jump\t// in\n    tag_367:\n        /* \"#utility.yul\":13409:13444   */\n    tag_366:\n        /* \"#utility.yul\":13466:13467   */\n      dup3\n        /* \"#utility.yul\":13463:13464   */\n      dup3\n        /* \"#utility.yul\":13459:13468   */\n      div\n        /* \"#utility.yul\":13454:13468   */\n      swap1\n      pop\n        /* \"#utility.yul\":13289:13474   */\n      swap3\n      swap2\n      pop\n      pop\n      jump\t// out\n        /* \"#utility.yul\":13480:13661   */\n    tag_214:\n        /* \"#utility.yul\":13620:13653   */\n      0x496e76616c696420526f6d616e206e756d6572616c2063686172616374657200\n        /* \"#utility.yul\":13616:13617   */\n      0x00\n        /* \"#utility.yul\":13608:13614   */\n      dup3\n        /* \"#utility.yul\":13604:13618   */\n      add\n        /* \"#utility.yul\":13597:13654   */\n      mstore\n        /* \"#utility.yul\":13480:13661   */\n      pop\n      jump\t// out\n        /* \"#utility.yul\":13667:14033   */\n    tag_215:\n        /* \"#utility.yul\":13809:13812   */\n      0x00\n        /* \"#utility.yul\":13830:13897   */\n      tag_370\n        /* \"#utility.yul\":13894:13896   */\n      0x1f\n        /* \"#utility.yul\":13889:13892   */\n      dup4\n        /* \"#utility.yul\":13830:13897   */\n      tag_204\n      jump\t// in\n    tag_370:\n        /* \"#utility.yul\":13823:13897   */\n      swap2\n      pop\n        /* \"#utility.yul\":13906:13999   */\n      tag_371\n        /* \"#utility.yul\":13995:13998   */\n      dup3\n        /* \"#utility.yul\":13906:13999   */\n      tag_214\n      jump\t// in\n    tag_371:\n        /* \"#utility.yul\":14024:14026   */\n      0x20\n        /* \"#utility.yul\":14019:14022   */\n      dup3\n        /* \"#utility.yul\":14015:14027   */\n      add\n        /* \"#utility.yul\":14008:14027   */\n      swap1\n      pop\n        /* \"#utility.yul\":13667:14033   */\n      swap2\n      swap1\n      pop\n      jump\t// out\n        /* \"#utility.yul\":14039:14458   */\n    tag_175:\n        /* \"#utility.yul\":14205:14209   */\n      0x00\n        /* \"#utility.yul\":14243:14245   */\n      0x20\n        /* \"#utility.yul\":14232:14241   */\n      dup3\n        /* \"#utility.yul\":14228:14246   */\n      add\n        /* \"#utility.yul\":14220:14246   */\n      swap1\n      pop\n        /* \"#utility.yul\":14292:14301   */\n      dup2\n        /* \"#utility.yul\":14286:14290   */\n      dup2\n        /* \"#utility.yul\":14282:14302   */\n      sub\n        /* \"#utility.yul\":14278:14279   */\n      0x00\n        /* \"#utility.yul\":14267:14276   */\n      dup4\n        /* \"#utility.yul\":14263:14280   */\n      add\n        /* \"#utility.yul\":14256:14303   */\n      mstore\n        /* \"#utility.yul\":14320:14451   */\n      tag_373\n        /* \"#utility.yul\":14446:14450   */\n      dup2\n        /* \"#utility.yul\":14320:14451   */\n      tag_215\n      jump\t// in\n    tag_373:\n        /* \"#utility.yul\":14312:14451   */\n      swap1\n      pop\n        /* \"#utility.yul\":14039:14458   */\n      swap2\n      swap1\n      pop\n      jump\t// out\n\n    auxdata: 0xa2646970667358221220978f913c8c5485619bdbf9c3130e83edd179dbfad7a195c53b342b11bf6d787d64736f6c634300081e0033\n}\n",
				"bytecode": {
					"linkReferences": {},
					"object": "6080604052348015600e575f5ffd5b5061154d8061001c5f395ff3fe608060405234801561000f575f5ffd5b5060043610610060575f3560e01c8063050001121461006457806319bd32281461009457806329e557f0146100c4578063643f0486146100f4578063c8e5bbc314610124578063cb159dfe14610154575b5f5ffd5b61007e60048036038101906100799190610f1b565b610184565b60405161008b9190611048565b60405180910390f35b6100ae60048036038101906100a99190611118565b6103c2565b6040516100bb919061116e565b60405180910390f35b6100de60048036038101906100d99190611187565b61045e565b6040516100eb9190611212565b60405180910390f35b61010e60048036038101906101099190611118565b61090f565b60405161011b9190611212565b60405180910390f35b61013e60048036038101906101399190611232565b610a03565b60405161014b91906112a4565b60405180910390f35b61016e60048036038101906101699190611118565b610b28565b60405161017b919061116e565b60405180910390f35b60605f835190505f835190505f5f90505f5f90505f5f90505f84866101a991906112ea565b67ffffffffffffffff8111156101c2576101c1610dac565b5b6040519080825280602002602001820160405280156101f05781602001602082028036833780820191505090505b5090505b858410801561020257508483105b156102eb5787838151811061021a5761021961131d565b5b60200260200101518985815181106102355761023461131d565b5b60200260200101511161028f578884815181106102555761025461131d565b5b60200260200101518183815181106102705761026f61131d565b5b60200260200101818152505083806102879061134a565b9450506102d8565b8783815181106102a2576102a161131d565b5b60200260200101518183815181106102bd576102bc61131d565b5b60200260200101818152505082806102d49061134a565b9350505b81806102e39061134a565b9250506101f4565b5b8584101561034f578884815181106103075761030661131d565b5b60200260200101518183815181106103225761032161131d565b5b60200260200101818152505083806103399061134a565b94505081806103479061134a565b9250506102ec565b5b848310156103b35787838151811061036b5761036a61131d565b5b60200260200101518183815181106103865761038561131d565b5b602002602001018181525050828061039d9061134a565b93505081806103ab9061134a565b925050610350565b80965050505050505092915050565b5f5f8290505f5f90505f5f90505f600184516103de9190611391565b90505b5f8110610452575f61040f8583815181106103ff576103fe61131d565b5b602001015160f81c60f81b610bca565b90508281101561042c5780846104259190611391565b935061043b565b808461043891906112ea565b93505b80925050808061044a906113c4565b9150506103e1565b50819350505050919050565b60605f604051806101a001604052806040518060400160405280600181526020017f4d0000000000000000000000000000000000000000000000000000000000000081525081526020016040518060400160405280600281526020017f434d00000000000000000000000000000000000000000000000000000000000081525081526020016040518060400160405280600181526020017f440000000000000000000000000000000000000000000000000000000000000081525081526020016040518060400160405280600281526020017f434400000000000000000000000000000000000000000000000000000000000081525081526020016040518060400160405280600181526020017f430000000000000000000000000000000000000000000000000000000000000081525081526020016040518060400160405280600281526020017f584300000000000000000000000000000000000000000000000000000000000081525081526020016040518060400160405280600181526020017f4c0000000000000000000000000000000000000000000000000000000000000081525081526020016040518060400160405280600281526020017f584c00000000000000000000000000000000000000000000000000000000000081525081526020016040518060400160405280600181526020017f580000000000000000000000000000000000000000000000000000000000000081525081526020016040518060400160405280600281526020017f495800000000000000000000000000000000000000000000000000000000000081525081526020016040518060400160405280600181526020017f560000000000000000000000000000000000000000000000000000000000000081525081526020016040518060400160405280600281526020017f495600000000000000000000000000000000000000000000000000000000000081525081526020016040518060400160405280600181526020017f490000000000000000000000000000000000000000000000000000000000000081525081525090505f604051806101a001604052806103e861ffff16815260200161038461ffff1681526020016101f461ffff16815260200161019061ffff168152602001606461ffff168152602001605a61ffff168152602001603261ffff168152602001602861ffff168152602001600a61ffff168152602001600961ffff168152602001600561ffff168152602001600461ffff168152602001600161ffff1681525090505f5f67ffffffffffffffff81111561082757610826610dac565b5b6040519080825280601f01601f1916602001820160405280156108595781602001600182028036833780820191505090505b5090505f5f90505b600d811015610903575b8281600d811061087e5761087d61131d565b5b602002015161ffff1686106108f6578281600d81106108a05761089f61131d565b5b602002015161ffff16866108b49190611391565b9550818482600d81106108ca576108c961131d565b5b60200201516040516020016108e092919061142f565b604051602081830303815290604052915061086b565b8080600101915050610861565b50809350505050919050565b60605f8290505f815167ffffffffffffffff81111561093157610930610dac565b5b6040519080825280601f01601f1916602001820160405280156109635781602001600182028036833780820191505090505b5090505f5f90505b82518110156109f8578281600185516109849190611391565b61098e9190611391565b8151811061099f5761099e61131d565b5b602001015160f81c60f81b8282815181106109bd576109bc61131d565b5b60200101907effffffffffffffffffffffffffffffffffffffffffffffffffffffffffffff191690815f1a905350808060010191505061096b565b508092505050919050565b5f5f835103610a34577fffffffffffffffffffffffffffffffffffffffffffffffffffffffffffffffff9050610b22565b5f5f90505f60018551610a479190611391565b90505b808211610afc575f60028383610a609190611391565b610a6a919061147f565b83610a7591906112ea565b905084868281518110610a8b57610a8a61131d565b5b602002602001015103610aa357809350505050610b22565b84868281518110610ab757610ab661131d565b5b60200260200101511015610ad957600181610ad291906112ea565b9250610af6565b5f8103610ae65750610afc565b600181610af39190611391565b91505b50610a4a565b7fffffffffffffffffffffffffffffffffffffffffffffffffffffffffffffffff925050505b92915050565b5f5f8290505f5f90505f5f90505f835190505b5f811115610bbe575f600182610b519190611391565b90505f610b7a868381518110610b6a57610b6961131d565b5b602001015160f81c60f81b610bca565b905080841115610b97578085610b909190611391565b9450610ba6565b8085610ba391906112ea565b94505b80935050508080610bb6906113c4565b915050610b3b565b50819350505050919050565b5f604960f81b827effffffffffffffffffffffffffffffffffffffffffffffffffffffffffffff191603610c015760019050610d82565b605660f81b827effffffffffffffffffffffffffffffffffffffffffffffffffffffffffffff191603610c375760059050610d82565b605860f81b827effffffffffffffffffffffffffffffffffffffffffffffffffffffffffffff191603610c6d57600a9050610d82565b604c60f81b827effffffffffffffffffffffffffffffffffffffffffffffffffffffffffffff191603610ca35760329050610d82565b604360f81b827effffffffffffffffffffffffffffffffffffffffffffffffffffffffffffff191603610cd95760649050610d82565b604460f81b827effffffffffffffffffffffffffffffffffffffffffffffffffffffffffffff191603610d10576101f49050610d82565b604d60f81b827effffffffffffffffffffffffffffffffffffffffffffffffffffffffffffff191603610d47576103e89050610d82565b6040517f08c379a0000000000000000000000000000000000000000000000000000000008152600401610d79906114f9565b60405180910390fd5b919050565b5f604051905090565b5f5ffd5b5f5ffd5b5f5ffd5b5f601f19601f8301169050919050565b7f4e487b71000000000000000000000000000000000000000000000000000000005f52604160045260245ffd5b610de282610d9c565b810181811067ffffffffffffffff82111715610e0157610e00610dac565b5b80604052505050565b5f610e13610d87565b9050610e1f8282610dd9565b919050565b5f67ffffffffffffffff821115610e3e57610e3d610dac565b5b602082029050602081019050919050565b5f5ffd5b5f819050919050565b610e6581610e53565b8114610e6f575f5ffd5b50565b5f81359050610e8081610e5c565b92915050565b5f610e98610e9384610e24565b610e0a565b90508083825260208201905060208402830185811115610ebb57610eba610e4f565b5b835b81811015610ee45780610ed08882610e72565b845260208401935050602081019050610ebd565b5050509392505050565b5f82601f830112610f0257610f01610d98565b5b8135610f12848260208601610e86565b91505092915050565b5f5f60408385031215610f3157610f30610d90565b5b5f83013567ffffffffffffffff811115610f4e57610f4d610d94565b5b610f5a85828601610eee565b925050602083013567ffffffffffffffff811115610f7b57610f7a610d94565b5b610f8785828601610eee565b9150509250929050565b5f81519050919050565b5f82825260208201905092915050565b5f819050602082019050919050565b610fc381610e53565b82525050565b5f610fd48383610fba565b60208301905092915050565b5f602082019050919050565b5f610ff682610f91565b6110008185610f9b565b935061100b83610fab565b805f5b8381101561103b5781516110228882610fc9565b975061102d83610fe0565b92505060018101905061100e565b5085935050505092915050565b5f6020820190508181035f8301526110608184610fec565b905092915050565b5f5ffd5b5f67ffffffffffffffff82111561108657611085610dac565b5b61108f82610d9c565b9050602081019050919050565b828183375f83830152505050565b5f6110bc6110b78461106c565b610e0a565b9050828152602081018484840111156110d8576110d7611068565b5b6110e384828561109c565b509392505050565b5f82601f8301126110ff576110fe610d98565b5b813561110f8482602086016110aa565b91505092915050565b5f6020828403121561112d5761112c610d90565b5b5f82013567ffffffffffffffff81111561114a57611149610d94565b5b611156848285016110eb565b91505092915050565b61116881610e53565b82525050565b5f6020820190506111815f83018461115f565b92915050565b5f6020828403121561119c5761119b610d90565b5b5f6111a984828501610e72565b91505092915050565b5f81519050919050565b5f82825260208201905092915050565b8281835e5f83830152505050565b5f6111e4826111b2565b6111ee81856111bc565b93506111fe8185602086016111cc565b61120781610d9c565b840191505092915050565b5f6020820190508181035f83015261122a81846111da565b905092915050565b5f5f6040838503121561124857611247610d90565b5b5f83013567ffffffffffffffff81111561126557611264610d94565b5b61127185828601610eee565b925050602061128285828601610e72565b9150509250929050565b5f819050919050565b61129e8161128c565b82525050565b5f6020820190506112b75f830184611295565b92915050565b7f4e487b71000000000000000000000000000000000000000000000000000000005f52601160045260245ffd5b5f6112f482610e53565b91506112ff83610e53565b9250828201905080821115611317576113166112bd565b5b92915050565b7f4e487b71000000000000000000000000000000000000000000000000000000005f52603260045260245ffd5b5f61135482610e53565b91507fffffffffffffffffffffffffffffffffffffffffffffffffffffffffffffffff8203611386576113856112bd565b5b600182019050919050565b5f61139b82610e53565b91506113a683610e53565b92508282039050818111156113be576113bd6112bd565b5b92915050565b5f6113ce82610e53565b91505f82036113e0576113df6112bd565b5b600182039050919050565b5f81519050919050565b5f81905092915050565b5f611409826113eb565b61141381856113f5565b93506114238185602086016111cc565b80840191505092915050565b5f61143a82856113ff565b915061144682846113ff565b91508190509392505050565b7f4e487b71000000000000000000000000000000000000000000000000000000005f52601260045260245ffd5b5f61148982610e53565b915061149483610e53565b9250826114a4576114a3611452565b5b828204905092915050565b7f496e76616c696420526f6d616e206e756d6572616c20636861726163746572005f82015250565b5f6114e3601f836111bc565b91506114ee826114af565b602082019050919050565b5f6020820190508181035f830152611510816114d7565b905091905056fea2646970667358221220978f913c8c5485619bdbf9c3130e83edd179dbfad7a195c53b342b11bf6d787d64736f6c634300081e0033",
					"opcodes": "PUSH1 0x80 PUSH1 0x40 MSTORE CALLVALUE DUP1 ISZERO PUSH1 0xE JUMPI PUSH0 PUSH0 REVERT JUMPDEST POP PUSH2 0x154D DUP1 PUSH2 0x1C PUSH0 CODECOPY PUSH0 RETURN INVALID PUSH1 0x80 PUSH1 0x40 MSTORE CALLVALUE DUP1 ISZERO PUSH2 0xF JUMPI PUSH0 PUSH0 REVERT JUMPDEST POP PUSH1 0x4 CALLDATASIZE LT PUSH2 0x60 JUMPI PUSH0 CALLDATALOAD PUSH1 0xE0 SHR DUP1 PUSH4 0x5000112 EQ PUSH2 0x64 JUMPI DUP1 PUSH4 0x19BD3228 EQ PUSH2 0x94 JUMPI DUP1 PUSH4 0x29E557F0 EQ PUSH2 0xC4 JUMPI DUP1 PUSH4 0x643F0486 EQ PUSH2 0xF4 JUMPI DUP1 PUSH4 0xC8E5BBC3 EQ PUSH2 0x124 JUMPI DUP1 PUSH4 0xCB159DFE EQ PUSH2 0x154 JUMPI JUMPDEST PUSH0 PUSH0 REVERT JUMPDEST PUSH2 0x7E PUSH1 0x4 DUP1 CALLDATASIZE SUB DUP2 ADD SWAP1 PUSH2 0x79 SWAP2 SWAP1 PUSH2 0xF1B JUMP JUMPDEST PUSH2 0x184 JUMP JUMPDEST PUSH1 0x40 MLOAD PUSH2 0x8B SWAP2 SWAP1 PUSH2 0x1048 JUMP JUMPDEST PUSH1 0x40 MLOAD DUP1 SWAP2 SUB SWAP1 RETURN JUMPDEST PUSH2 0xAE PUSH1 0x4 DUP1 CALLDATASIZE SUB DUP2 ADD SWAP1 PUSH2 0xA9 SWAP2 SWAP1 PUSH2 0x1118 JUMP JUMPDEST PUSH2 0x3C2 JUMP JUMPDEST PUSH1 0x40 MLOAD PUSH2 0xBB SWAP2 SWAP1 PUSH2 0x116E JUMP JUMPDEST PUSH1 0x40 MLOAD DUP1 SWAP2 SUB SWAP1 RETURN JUMPDEST PUSH2 0xDE PUSH1 0x4 DUP1 CALLDATASIZE SUB DUP2 ADD SWAP1 PUSH2 0xD9 SWAP2 SWAP1 PUSH2 0x1187 JUMP JUMPDEST PUSH2 0x45E JUMP JUMPDEST PUSH1 0x40 MLOAD PUSH2 0xEB SWAP2 SWAP1 PUSH2 0x1212 JUMP JUMPDEST PUSH1 0x40 MLOAD DUP1 SWAP2 SUB SWAP1 RETURN JUMPDEST PUSH2 0x10E PUSH1 0x4 DUP1 CALLDATASIZE SUB DUP2 ADD SWAP1 PUSH2 0x109 SWAP2 SWAP1 PUSH2 0x1118 JUMP JUMPDEST PUSH2 0x90F JUMP JUMPDEST PUSH1 0x40 MLOAD PUSH2 0x11B SWAP2 SWAP1 PUSH2 0x1212 JUMP JUMPDEST PUSH1 0x40 MLOAD DUP1 SWAP2 SUB SWAP1 RETURN JUMPDEST PUSH2 0x13E PUSH1 0x4 DUP1 CALLDATASIZE SUB DUP2 ADD SWAP1 PUSH2 0x139 SWAP2 SWAP1 PUSH2 0x1232 JUMP JUMPDEST PUSH2 0xA03 JUMP JUMPDEST PUSH1 0x40 MLOAD PUSH2 0x14B SWAP2 SWAP1 PUSH2 0x12A4 JUMP JUMPDEST PUSH1 0x40 MLOAD DUP1 SWAP2 SUB SWAP1 RETURN JUMPDEST PUSH2 0x16E PUSH1 0x4 DUP1 CALLDATASIZE SUB DUP2 ADD SWAP1 PUSH2 0x169 SWAP2 SWAP1 PUSH2 0x1118 JUMP JUMPDEST PUSH2 0xB28 JUMP JUMPDEST PUSH1 0x40 MLOAD PUSH2 0x17B SWAP2 SWAP1 PUSH2 0x116E JUMP JUMPDEST PUSH1 0x40 MLOAD DUP1 SWAP2 SUB SWAP1 RETURN JUMPDEST PUSH1 0x60 PUSH0 DUP4 MLOAD SWAP1 POP PUSH0 DUP4 MLOAD SWAP1 POP PUSH0 PUSH0 SWAP1 POP PUSH0 PUSH0 SWAP1 POP PUSH0 PUSH0 SWAP1 POP PUSH0 DUP5 DUP7 PUSH2 0x1A9 SWAP2 SWAP1 PUSH2 0x12EA JUMP JUMPDEST PUSH8 0xFFFFFFFFFFFFFFFF DUP2 GT ISZERO PUSH2 0x1C2 JUMPI PUSH2 0x1C1 PUSH2 0xDAC JUMP JUMPDEST JUMPDEST PUSH1 0x40 MLOAD SWAP1 DUP1 DUP3 MSTORE DUP1 PUSH1 0x20 MUL PUSH1 0x20 ADD DUP3 ADD PUSH1 0x40 MSTORE DUP1 ISZERO PUSH2 0x1F0 JUMPI DUP2 PUSH1 0x20 ADD PUSH1 0x20 DUP3 MUL DUP1 CALLDATASIZE DUP4 CALLDATACOPY DUP1 DUP3 ADD SWAP2 POP POP SWAP1 POP JUMPDEST POP SWAP1 POP JUMPDEST DUP6 DUP5 LT DUP1 ISZERO PUSH2 0x202 JUMPI POP DUP5 DUP4 LT JUMPDEST ISZERO PUSH2 0x2EB JUMPI DUP8 DUP4 DUP2 MLOAD DUP2 LT PUSH2 0x21A JUMPI PUSH2 0x219 PUSH2 0x131D JUMP JUMPDEST JUMPDEST PUSH1 0x20 MUL PUSH1 0x20 ADD ADD MLOAD DUP10 DUP6 DUP2 MLOAD DUP2 LT PUSH2 0x235 JUMPI PUSH2 0x234 PUSH2 0x131D JUMP JUMPDEST JUMPDEST PUSH1 0x20 MUL PUSH1 0x20 ADD ADD MLOAD GT PUSH2 0x28F JUMPI DUP9 DUP5 DUP2 MLOAD DUP2 LT PUSH2 0x255 JUMPI PUSH2 0x254 PUSH2 0x131D JUMP JUMPDEST JUMPDEST PUSH1 0x20 MUL PUSH1 0x20 ADD ADD MLOAD DUP2 DUP4 DUP2 MLOAD DUP2 LT PUSH2 0x270 JUMPI PUSH2 0x26F PUSH2 0x131D JUMP JUMPDEST JUMPDEST PUSH1 0x20 MUL PUSH1 0x20 ADD ADD DUP2 DUP2 MSTORE POP POP DUP4 DUP1 PUSH2 0x287 SWAP1 PUSH2 0x134A JUMP JUMPDEST SWAP5 POP POP PUSH2 0x2D8 JUMP JUMPDEST DUP8 DUP4 DUP2 MLOAD DUP2 LT PUSH2 0x2A2 JUMPI PUSH2 0x2A1 PUSH2 0x131D JUMP JUMPDEST JUMPDEST PUSH1 0x20 MUL PUSH1 0x20 ADD ADD MLOAD DUP2 DUP4 DUP2 MLOAD DUP2 LT PUSH2 0x2BD JUMPI PUSH2 0x2BC PUSH2 0x131D JUMP JUMPDEST JUMPDEST PUSH1 0x20 MUL PUSH1 0x20 ADD ADD DUP2 DUP2 MSTORE POP POP DUP3 DUP1 PUSH2 0x2D4 SWAP1 PUSH2 0x134A JUMP JUMPDEST SWAP4 POP POP JUMPDEST DUP2 DUP1 PUSH2 0x2E3 SWAP1 PUSH2 0x134A JUMP JUMPDEST SWAP3 POP POP PUSH2 0x1F4 JUMP JUMPDEST JUMPDEST DUP6 DUP5 LT ISZERO PUSH2 0x34F JUMPI DUP9 DUP5 DUP2 MLOAD DUP2 LT PUSH2 0x307 JUMPI PUSH2 0x306 PUSH2 0x131D JUMP JUMPDEST JUMPDEST PUSH1 0x20 MUL PUSH1 0x20 ADD ADD MLOAD DUP2 DUP4 DUP2 MLOAD DUP2 LT PUSH2 0x322 JUMPI PUSH2 0x321 PUSH2 0x131D JUMP JUMPDEST JUMPDEST PUSH1 0x20 MUL PUSH1 0x20 ADD ADD DUP2 DUP2 MSTORE POP POP DUP4 DUP1 PUSH2 0x339 SWAP1 PUSH2 0x134A JUMP JUMPDEST SWAP5 POP POP DUP2 DUP1 PUSH2 0x347 SWAP1 PUSH2 0x134A JUMP JUMPDEST SWAP3 POP POP PUSH2 0x2EC JUMP JUMPDEST JUMPDEST DUP5 DUP4 LT ISZERO PUSH2 0x3B3 JUMPI DUP8 DUP4 DUP2 MLOAD DUP2 LT PUSH2 0x36B JUMPI PUSH2 0x36A PUSH2 0x131D JUMP JUMPDEST JUMPDEST PUSH1 0x20 MUL PUSH1 0x20 ADD ADD MLOAD DUP2 DUP4 DUP2 MLOAD DUP2 LT PUSH2 0x386 JUMPI PUSH2 0x385 PUSH2 0x131D JUMP JUMPDEST JUMPDEST PUSH1 0x20 MUL PUSH1 0x20 ADD ADD DUP2 DUP2 MSTORE POP POP DUP3 DUP1 PUSH2 0x39D SWAP1 PUSH2 0x134A JUMP JUMPDEST SWAP4 POP POP DUP2 DUP1 PUSH2 0x3AB SWAP1 PUSH2 0x134A JUMP JUMPDEST SWAP3 POP POP PUSH2 0x350 JUMP JUMPDEST DUP1 SWAP7 POP POP POP POP POP POP POP SWAP3 SWAP2 POP POP JUMP JUMPDEST PUSH0 PUSH0 DUP3 SWAP1 POP PUSH0 PUSH0 SWAP1 POP PUSH0 PUSH0 SWAP1 POP PUSH0 PUSH1 0x1 DUP5 MLOAD PUSH2 0x3DE SWAP2 SWAP1 PUSH2 0x1391 JUMP JUMPDEST SWAP1 POP JUMPDEST PUSH0 DUP2 LT PUSH2 0x452 JUMPI PUSH0 PUSH2 0x40F DUP6 DUP4 DUP2 MLOAD DUP2 LT PUSH2 0x3FF JUMPI PUSH2 0x3FE PUSH2 0x131D JUMP JUMPDEST JUMPDEST PUSH1 0x20 ADD ADD MLOAD PUSH1 0xF8 SHR PUSH1 0xF8 SHL PUSH2 0xBCA JUMP JUMPDEST SWAP1 POP DUP3 DUP2 LT ISZERO PUSH2 0x42C JUMPI DUP1 DUP5 PUSH2 0x425 SWAP2 SWAP1 PUSH2 0x1391 JUMP JUMPDEST SWAP4 POP PUSH2 0x43B JUMP JUMPDEST DUP1 DUP5 PUSH2 0x438 SWAP2 SWAP1 PUSH2 0x12EA JUMP JUMPDEST SWAP4 POP JUMPDEST DUP1 SWAP3 POP POP DUP1 DUP1 PUSH2 0x44A SWAP1 PUSH2 0x13C4 JUMP JUMPDEST SWAP2 POP POP PUSH2 0x3E1 JUMP JUMPDEST POP DUP2 SWAP4 POP POP POP POP SWAP2 SWAP1 POP JUMP JUMPDEST PUSH1 0x60 PUSH0 PUSH1 0x40 MLOAD DUP1 PUSH2 0x1A0 ADD PUSH1 0x40 MSTORE DUP1 PUSH1 0x40 MLOAD DUP1 PUSH1 0x40 ADD PUSH1 0x40 MSTORE DUP1 PUSH1 0x1 DUP2 MSTORE PUSH1 0x20 ADD PUSH32 0x4D00000000000000000000000000000000000000000000000000000000000000 DUP2 MSTORE POP DUP2 MSTORE PUSH1 0x20 ADD PUSH1 0x40 MLOAD DUP1 PUSH1 0x40 ADD PUSH1 0x40 MSTORE DUP1 PUSH1 0x2 DUP2 MSTORE PUSH1 0x20 ADD PUSH32 0x434D000000000000000000000000000000000000000000000000000000000000 DUP2 MSTORE POP DUP2 MSTORE PUSH1 0x20 ADD PUSH1 0x40 MLOAD DUP1 PUSH1 0x40 ADD PUSH1 0x40 MSTORE DUP1 PUSH1 0x1 DUP2 MSTORE PUSH1 0x20 ADD PUSH32 0x4400000000000000000000000000000000000000000000000000000000000000 DUP2 MSTORE POP DUP2 MSTORE PUSH1 0x20 ADD PUSH1 0x40 MLOAD DUP1 PUSH1 0x40 ADD PUSH1 0x40 MSTORE DUP1 PUSH1 0x2 DUP2 MSTORE PUSH1 0x20 ADD PUSH32 0x4344000000000000000000000000000000000000000000000000000000000000 DUP2 MSTORE POP DUP2 MSTORE PUSH1 0x20 ADD PUSH1 0x40 MLOAD DUP1 PUSH1 0x40 ADD PUSH1 0x40 MSTORE DUP1 PUSH1 0x1 DUP2 MSTORE PUSH1 0x20 ADD PUSH32 0x4300000000000000000000000000000000000000000000000000000000000000 DUP2 MSTORE POP DUP2 MSTORE PUSH1 0x20 ADD PUSH1 0x40 MLOAD DUP1 PUSH1 0x40 ADD PUSH1 0x40 MSTORE DUP1 PUSH1 0x2 DUP2 MSTORE PUSH1 0x20 ADD PUSH32 0x5843000000000000000000000000000000000000000000000000000000000000 DUP2 MSTORE POP DUP2 MSTORE PUSH1 0x20 ADD PUSH1 0x40 MLOAD DUP1 PUSH1 0x40 ADD PUSH1 0x40 MSTORE DUP1 PUSH1 0x1 DUP2 MSTORE PUSH1 0x20 ADD PUSH32 0x4C00000000000000000000000000000000000000000000000000000000000000 DUP2 MSTORE POP DUP2 MSTORE PUSH1 0x20 ADD PUSH1 0x40 MLOAD DUP1 PUSH1 0x40 ADD PUSH1 0x40 MSTORE DUP1 PUSH1 0x2 DUP2 MSTORE PUSH1 0x20 ADD PUSH32 0x584C000000000000000000000000000000000000000000000000000000000000 DUP2 MSTORE POP DUP2 MSTORE PUSH1 0x20 ADD PUSH1 0x40 MLOAD DUP1 PUSH1 0x40 ADD PUSH1 0x40 MSTORE DUP1 PUSH1 0x1 DUP2 MSTORE PUSH1 0x20 ADD PUSH32 0x5800000000000000000000000000000000000000000000000000000000000000 DUP2 MSTORE POP DUP2 MSTORE PUSH1 0x20 ADD PUSH1 0x40 MLOAD DUP1 PUSH1 0x40 ADD PUSH1 0x40 MSTORE DUP1 PUSH1 0x2 DUP2 MSTORE PUSH1 0x20 ADD PUSH32 0x4958000000000000000000000000000000000000000000000000000000000000 DUP2 MSTORE POP DUP2 MSTORE PUSH1 0x20 ADD PUSH1 0x40 MLOAD DUP1 PUSH1 0x40 ADD PUSH1 0x40 MSTORE DUP1 PUSH1 0x1 DUP2 MSTORE PUSH1 0x20 ADD PUSH32 0x5600000000000000000000000000000000000000000000000000000000000000 DUP2 MSTORE POP DUP2 MSTORE PUSH1 0x20 ADD PUSH1 0x40 MLOAD DUP1 PUSH1 0x40 ADD PUSH1 0x40 MSTORE DUP1 PUSH1 0x2 DUP2 MSTORE PUSH1 0x20 ADD PUSH32 0x4956000000000000000000000000000000000000000000000000000000000000 DUP2 MSTORE POP DUP2 MSTORE PUSH1 0x20 ADD PUSH1 0x40 MLOAD DUP1 PUSH1 0x40 ADD PUSH1 0x40 MSTORE DUP1 PUSH1 0x1 DUP2 MSTORE PUSH1 0x20 ADD PUSH32 0x4900000000000000000000000000000000000000000000000000000000000000 DUP2 MSTORE POP DUP2 MSTORE POP SWAP1 POP PUSH0 PUSH1 0x40 MLOAD DUP1 PUSH2 0x1A0 ADD PUSH1 0x40 MSTORE DUP1 PUSH2 0x3E8 PUSH2 0xFFFF AND DUP2 MSTORE PUSH1 0x20 ADD PUSH2 0x384 PUSH2 0xFFFF AND DUP2 MSTORE PUSH1 0x20 ADD PUSH2 0x1F4 PUSH2 0xFFFF AND DUP2 MSTORE PUSH1 0x20 ADD PUSH2 0x190 PUSH2 0xFFFF AND DUP2 MSTORE PUSH1 0x20 ADD PUSH1 0x64 PUSH2 0xFFFF AND DUP2 MSTORE PUSH1 0x20 ADD PUSH1 0x5A PUSH2 0xFFFF AND DUP2 MSTORE PUSH1 0x20 ADD PUSH1 0x32 PUSH2 0xFFFF AND DUP2 MSTORE PUSH1 0x20 ADD PUSH1 0x28 PUSH2 0xFFFF AND DUP2 MSTORE PUSH1 0x20 ADD PUSH1 0xA PUSH2 0xFFFF AND DUP2 MSTORE PUSH1 0x20 ADD PUSH1 0x9 PUSH2 0xFFFF AND DUP2 MSTORE PUSH1 0x20 ADD PUSH1 0x5 PUSH2 0xFFFF AND DUP2 MSTORE PUSH1 0x20 ADD PUSH1 0x4 PUSH2 0xFFFF AND DUP2 MSTORE PUSH1 0x20 ADD PUSH1 0x1 PUSH2 0xFFFF AND DUP2 MSTORE POP SWAP1 POP PUSH0 PUSH0 PUSH8 0xFFFFFFFFFFFFFFFF DUP2 GT ISZERO PUSH2 0x827 JUMPI PUSH2 0x826 PUSH2 0xDAC JUMP JUMPDEST JUMPDEST PUSH1 0x40 MLOAD SWAP1 DUP1 DUP3 MSTORE DUP1 PUSH1 0x1F ADD PUSH1 0x1F NOT AND PUSH1 0x20 ADD DUP3 ADD PUSH1 0x40 MSTORE DUP1 ISZERO PUSH2 0x859 JUMPI DUP2 PUSH1 0x20 ADD PUSH1 0x1 DUP3 MUL DUP1 CALLDATASIZE DUP4 CALLDATACOPY DUP1 DUP3 ADD SWAP2 POP POP SWAP1 POP JUMPDEST POP SWAP1 POP PUSH0 PUSH0 SWAP1 POP JUMPDEST PUSH1 0xD DUP2 LT ISZERO PUSH2 0x903 JUMPI JUMPDEST DUP3 DUP2 PUSH1 0xD DUP2 LT PUSH2 0x87E JUMPI PUSH2 0x87D PUSH2 0x131D JUMP JUMPDEST JUMPDEST PUSH1 0x20 MUL ADD MLOAD PUSH2 0xFFFF AND DUP7 LT PUSH2 0x8F6 JUMPI DUP3 DUP2 PUSH1 0xD DUP2 LT PUSH2 0x8A0 JUMPI PUSH2 0x89F PUSH2 0x131D JUMP JUMPDEST JUMPDEST PUSH1 0x20 MUL ADD MLOAD PUSH2 0xFFFF AND DUP7 PUSH2 0x8B4 SWAP2 SWAP1 PUSH2 0x1391 JUMP JUMPDEST SWAP6 POP DUP2 DUP5 DUP3 PUSH1 0xD DUP2 LT PUSH2 0x8CA JUMPI PUSH2 0x8C9 PUSH2 0x131D JUMP JUMPDEST JUMPDEST PUSH1 0x20 MUL ADD MLOAD PUSH1 0x40 MLOAD PUSH1 0x20 ADD PUSH2 0x8E0 SWAP3 SWAP2 SWAP1 PUSH2 0x142F JUMP JUMPDEST PUSH1 0x40 MLOAD PUSH1 0x20 DUP2 DUP4 SUB SUB DUP2 MSTORE SWAP1 PUSH1 0x40 MSTORE SWAP2 POP PUSH2 0x86B JUMP JUMPDEST DUP1 DUP1 PUSH1 0x1 ADD SWAP2 POP POP PUSH2 0x861 JUMP JUMPDEST POP DUP1 SWAP4 POP POP POP POP SWAP2 SWAP1 POP JUMP JUMPDEST PUSH1 0x60 PUSH0 DUP3 SWAP1 POP PUSH0 DUP2 MLOAD PUSH8 0xFFFFFFFFFFFFFFFF DUP2 GT ISZERO PUSH2 0x931 JUMPI PUSH2 0x930 PUSH2 0xDAC JUMP JUMPDEST JUMPDEST PUSH1 0x40 MLOAD SWAP1 DUP1 DUP3 MSTORE DUP1 PUSH1 0x1F ADD PUSH1 0x1F NOT AND PUSH1 0x20 ADD DUP3 ADD PUSH1 0x40 MSTORE DUP1 ISZERO PUSH2 0x963 JUMPI DUP2 PUSH1 0x20 ADD PUSH1 0x1 DUP3 MUL DUP1 CALLDATASIZE DUP4 CALLDATACOPY DUP1 DUP3 ADD SWAP2 POP POP SWAP1 POP JUMPDEST POP SWAP1 POP PUSH0 PUSH0 SWAP1 POP JUMPDEST DUP3 MLOAD DUP2 LT ISZERO PUSH2 0x9F8 JUMPI DUP3 DUP2 PUSH1 0x1 DUP6 MLOAD PUSH2 0x984 SWAP2 SWAP1 PUSH2 0x1391 JUMP JUMPDEST PUSH2 0x98E SWAP2 SWAP1 PUSH2 0x1391 JUMP JUMPDEST DUP2 MLOAD DUP2 LT PUSH2 0x99F JUMPI PUSH2 0x99E PUSH2 0x131D JUMP JUMPDEST JUMPDEST PUSH1 0x20 ADD ADD MLOAD PUSH1 0xF8 SHR PUSH1 0xF8 SHL DUP3 DUP3 DUP2 MLOAD DUP2 LT PUSH2 0x9BD JUMPI PUSH2 0x9BC PUSH2 0x131D JUMP JUMPDEST JUMPDEST PUSH1 0x20 ADD ADD SWAP1 PUSH31 0xFFFFFFFFFFFFFFFFFFFFFFFFFFFFFFFFFFFFFFFFFFFFFFFFFFFFFFFFFFFFFF NOT AND SWAP1 DUP2 PUSH0 BYTE SWAP1 MSTORE8 POP DUP1 DUP1 PUSH1 0x1 ADD SWAP2 POP POP PUSH2 0x96B JUMP JUMPDEST POP DUP1 SWAP3 POP POP POP SWAP2 SWAP1 POP JUMP JUMPDEST PUSH0 PUSH0 DUP4 MLOAD SUB PUSH2 0xA34 JUMPI PUSH32 0xFFFFFFFFFFFFFFFFFFFFFFFFFFFFFFFFFFFFFFFFFFFFFFFFFFFFFFFFFFFFFFFF SWAP1 POP PUSH2 0xB22 JUMP JUMPDEST PUSH0 PUSH0 SWAP1 POP PUSH0 PUSH1 0x1 DUP6 MLOAD PUSH2 0xA47 SWAP2 SWAP1 PUSH2 0x1391 JUMP JUMPDEST SWAP1 POP JUMPDEST DUP1 DUP3 GT PUSH2 0xAFC JUMPI PUSH0 PUSH1 0x2 DUP4 DUP4 PUSH2 0xA60 SWAP2 SWAP1 PUSH2 0x1391 JUMP JUMPDEST PUSH2 0xA6A SWAP2 SWAP1 PUSH2 0x147F JUMP JUMPDEST DUP4 PUSH2 0xA75 SWAP2 SWAP1 PUSH2 0x12EA JUMP JUMPDEST SWAP1 POP DUP5 DUP7 DUP3 DUP2 MLOAD DUP2 LT PUSH2 0xA8B JUMPI PUSH2 0xA8A PUSH2 0x131D JUMP JUMPDEST JUMPDEST PUSH1 0x20 MUL PUSH1 0x20 ADD ADD MLOAD SUB PUSH2 0xAA3 JUMPI DUP1 SWAP4 POP POP POP POP PUSH2 0xB22 JUMP JUMPDEST DUP5 DUP7 DUP3 DUP2 MLOAD DUP2 LT PUSH2 0xAB7 JUMPI PUSH2 0xAB6 PUSH2 0x131D JUMP JUMPDEST JUMPDEST PUSH1 0x20 MUL PUSH1 0x20 ADD ADD MLOAD LT ISZERO PUSH2 0xAD9 JUMPI PUSH1 0x1 DUP2 PUSH2 0xAD2 SWAP2 SWAP1 PUSH2 0x12EA JUMP JUMPDEST SWAP3 POP PUSH2 0xAF6 JUMP JUMPDEST PUSH0 DUP2 SUB PUSH2 0xAE6 JUMPI POP PUSH2 0xAFC JUMP JUMPDEST PUSH1 0x1 DUP2 PUSH2 0xAF3 SWAP2 SWAP1 PUSH2 0x1391 JUMP JUMPDEST SWAP2 POP JUMPDEST POP PUSH2 0xA4A JUMP JUMPDEST PUSH32 0xFFFFFFFFFFFFFFFFFFFFFFFFFFFFFFFFFFFFFFFFFFFFFFFFFFFFFFFFFFFFFFFF SWAP3 POP POP POP JUMPDEST SWAP3 SWAP2 POP POP JUMP JUMPDEST PUSH0 PUSH0 DUP3 SWAP1 POP PUSH0 PUSH0 SWAP1 POP PUSH0 PUSH0 SWAP1 POP PUSH0 DUP4 MLOAD SWAP1 POP JUMPDEST PUSH0 DUP2 GT ISZERO PUSH2 0xBBE JUMPI PUSH0 PUSH1 0x1 DUP3 PUSH2 0xB51 SWAP2 SWAP1 PUSH2 0x1391 JUMP JUMPDEST SWAP1 POP PUSH0 PUSH2 0xB7A DUP7 DUP4 DUP2 MLOAD DUP2 LT PUSH2 0xB6A JUMPI PUSH2 0xB69 PUSH2 0x131D JUMP JUMPDEST JUMPDEST PUSH1 0x20 ADD ADD MLOAD PUSH1 0xF8 SHR PUSH1 0xF8 SHL PUSH2 0xBCA JUMP JUMPDEST SWAP1 POP DUP1 DUP5 GT ISZERO PUSH2 0xB97 JUMPI DUP1 DUP6 PUSH2 0xB90 SWAP2 SWAP1 PUSH2 0x1391 JUMP JUMPDEST SWAP5 POP PUSH2 0xBA6 JUMP JUMPDEST DUP1 DUP6 PUSH2 0xBA3 SWAP2 SWAP1 PUSH2 0x12EA JUMP JUMPDEST SWAP5 POP JUMPDEST DUP1 SWAP4 POP POP POP DUP1 DUP1 PUSH2 0xBB6 SWAP1 PUSH2 0x13C4 JUMP JUMPDEST SWAP2 POP POP PUSH2 0xB3B JUMP JUMPDEST POP DUP2 SWAP4 POP POP POP POP SWAP2 SWAP1 POP JUMP JUMPDEST PUSH0 PUSH1 0x49 PUSH1 0xF8 SHL DUP3 PUSH31 0xFFFFFFFFFFFFFFFFFFFFFFFFFFFFFFFFFFFFFFFFFFFFFFFFFFFFFFFFFFFFFF NOT AND SUB PUSH2 0xC01 JUMPI PUSH1 0x1 SWAP1 POP PUSH2 0xD82 JUMP JUMPDEST PUSH1 0x56 PUSH1 0xF8 SHL DUP3 PUSH31 0xFFFFFFFFFFFFFFFFFFFFFFFFFFFFFFFFFFFFFFFFFFFFFFFFFFFFFFFFFFFFFF NOT AND SUB PUSH2 0xC37 JUMPI PUSH1 0x5 SWAP1 POP PUSH2 0xD82 JUMP JUMPDEST PUSH1 0x58 PUSH1 0xF8 SHL DUP3 PUSH31 0xFFFFFFFFFFFFFFFFFFFFFFFFFFFFFFFFFFFFFFFFFFFFFFFFFFFFFFFFFFFFFF NOT AND SUB PUSH2 0xC6D JUMPI PUSH1 0xA SWAP1 POP PUSH2 0xD82 JUMP JUMPDEST PUSH1 0x4C PUSH1 0xF8 SHL DUP3 PUSH31 0xFFFFFFFFFFFFFFFFFFFFFFFFFFFFFFFFFFFFFFFFFFFFFFFFFFFFFFFFFFFFFF NOT AND SUB PUSH2 0xCA3 JUMPI PUSH1 0x32 SWAP1 POP PUSH2 0xD82 JUMP JUMPDEST PUSH1 0x43 PUSH1 0xF8 SHL DUP3 PUSH31 0xFFFFFFFFFFFFFFFFFFFFFFFFFFFFFFFFFFFFFFFFFFFFFFFFFFFFFFFFFFFFFF NOT AND SUB PUSH2 0xCD9 JUMPI PUSH1 0x64 SWAP1 POP PUSH2 0xD82 JUMP JUMPDEST PUSH1 0x44 PUSH1 0xF8 SHL DUP3 PUSH31 0xFFFFFFFFFFFFFFFFFFFFFFFFFFFFFFFFFFFFFFFFFFFFFFFFFFFFFFFFFFFFFF NOT AND SUB PUSH2 0xD10 JUMPI PUSH2 0x1F4 SWAP1 POP PUSH2 0xD82 JUMP JUMPDEST PUSH1 0x4D PUSH1 0xF8 SHL DUP3 PUSH31 0xFFFFFFFFFFFFFFFFFFFFFFFFFFFFFFFFFFFFFFFFFFFFFFFFFFFFFFFFFFFFFF NOT AND SUB PUSH2 0xD47 JUMPI PUSH2 0x3E8 SWAP1 POP PUSH2 0xD82 JUMP JUMPDEST PUSH1 0x40 MLOAD PUSH32 0x8C379A000000000000000000000000000000000000000000000000000000000 DUP2 MSTORE PUSH1 0x4 ADD PUSH2 0xD79 SWAP1 PUSH2 0x14F9 JUMP JUMPDEST PUSH1 0x40 MLOAD DUP1 SWAP2 SUB SWAP1 REVERT JUMPDEST SWAP2 SWAP1 POP JUMP JUMPDEST PUSH0 PUSH1 0x40 MLOAD SWAP1 POP SWAP1 JUMP JUMPDEST PUSH0 PUSH0 REVERT JUMPDEST PUSH0 PUSH0 REVERT JUMPDEST PUSH0 PUSH0 REVERT JUMPDEST PUSH0 PUSH1 0x1F NOT PUSH1 0x1F DUP4 ADD AND SWAP1 POP SWAP2 SWAP1 POP JUMP JUMPDEST PUSH32 0x4E487B7100000000000000000000000000000000000000000000000000000000 PUSH0 MSTORE PUSH1 0x41 PUSH1 0x4 MSTORE PUSH1 0x24 PUSH0 REVERT JUMPDEST PUSH2 0xDE2 DUP3 PUSH2 0xD9C JUMP JUMPDEST DUP2 ADD DUP2 DUP2 LT PUSH8 0xFFFFFFFFFFFFFFFF DUP3 GT OR ISZERO PUSH2 0xE01 JUMPI PUSH2 0xE00 PUSH2 0xDAC JUMP JUMPDEST JUMPDEST DUP1 PUSH1 0x40 MSTORE POP POP POP JUMP JUMPDEST PUSH0 PUSH2 0xE13 PUSH2 0xD87 JUMP JUMPDEST SWAP1 POP PUSH2 0xE1F DUP3 DUP3 PUSH2 0xDD9 JUMP JUMPDEST SWAP2 SWAP1 POP JUMP JUMPDEST PUSH0 PUSH8 0xFFFFFFFFFFFFFFFF DUP3 GT ISZERO PUSH2 0xE3E JUMPI PUSH2 0xE3D PUSH2 0xDAC JUMP JUMPDEST JUMPDEST PUSH1 0x20 DUP3 MUL SWAP1 POP PUSH1 0x20 DUP2 ADD SWAP1 POP SWAP2 SWAP1 POP JUMP JUMPDEST PUSH0 PUSH0 REVERT JUMPDEST PUSH0 DUP2 SWAP1 POP SWAP2 SWAP1 POP JUMP JUMPDEST PUSH2 0xE65 DUP2 PUSH2 0xE53 JUMP JUMPDEST DUP2 EQ PUSH2 0xE6F JUMPI PUSH0 PUSH0 REVERT JUMPDEST POP JUMP JUMPDEST PUSH0 DUP2 CALLDATALOAD SWAP1 POP PUSH2 0xE80 DUP2 PUSH2 0xE5C JUMP JUMPDEST SWAP3 SWAP2 POP POP JUMP JUMPDEST PUSH0 PUSH2 0xE98 PUSH2 0xE93 DUP5 PUSH2 0xE24 JUMP JUMPDEST PUSH2 0xE0A JUMP JUMPDEST SWAP1 POP DUP1 DUP4 DUP3 MSTORE PUSH1 0x20 DUP3 ADD SWAP1 POP PUSH1 0x20 DUP5 MUL DUP4 ADD DUP6 DUP2 GT ISZERO PUSH2 0xEBB JUMPI PUSH2 0xEBA PUSH2 0xE4F JUMP JUMPDEST JUMPDEST DUP4 JUMPDEST DUP2 DUP2 LT ISZERO PUSH2 0xEE4 JUMPI DUP1 PUSH2 0xED0 DUP9 DUP3 PUSH2 0xE72 JUMP JUMPDEST DUP5 MSTORE PUSH1 0x20 DUP5 ADD SWAP4 POP POP PUSH1 0x20 DUP2 ADD SWAP1 POP PUSH2 0xEBD JUMP JUMPDEST POP POP POP SWAP4 SWAP3 POP POP POP JUMP JUMPDEST PUSH0 DUP3 PUSH1 0x1F DUP4 ADD SLT PUSH2 0xF02 JUMPI PUSH2 0xF01 PUSH2 0xD98 JUMP JUMPDEST JUMPDEST DUP2 CALLDATALOAD PUSH2 0xF12 DUP5 DUP3 PUSH1 0x20 DUP7 ADD PUSH2 0xE86 JUMP JUMPDEST SWAP2 POP POP SWAP3 SWAP2 POP POP JUMP JUMPDEST PUSH0 PUSH0 PUSH1 0x40 DUP4 DUP6 SUB SLT ISZERO PUSH2 0xF31 JUMPI PUSH2 0xF30 PUSH2 0xD90 JUMP JUMPDEST JUMPDEST PUSH0 DUP4 ADD CALLDATALOAD PUSH8 0xFFFFFFFFFFFFFFFF DUP2 GT ISZERO PUSH2 0xF4E JUMPI PUSH2 0xF4D PUSH2 0xD94 JUMP JUMPDEST JUMPDEST PUSH2 0xF5A DUP6 DUP3 DUP7 ADD PUSH2 0xEEE JUMP JUMPDEST SWAP3 POP POP PUSH1 0x20 DUP4 ADD CALLDATALOAD PUSH8 0xFFFFFFFFFFFFFFFF DUP2 GT ISZERO PUSH2 0xF7B JUMPI PUSH2 0xF7A PUSH2 0xD94 JUMP JUMPDEST JUMPDEST PUSH2 0xF87 DUP6 DUP3 DUP7 ADD PUSH2 0xEEE JUMP JUMPDEST SWAP2 POP POP SWAP3 POP SWAP3 SWAP1 POP JUMP JUMPDEST PUSH0 DUP2 MLOAD SWAP1 POP SWAP2 SWAP1 POP JUMP JUMPDEST PUSH0 DUP3 DUP3 MSTORE PUSH1 0x20 DUP3 ADD SWAP1 POP SWAP3 SWAP2 POP POP JUMP JUMPDEST PUSH0 DUP2 SWAP1 POP PUSH1 0x20 DUP3 ADD SWAP1 POP SWAP2 SWAP1 POP JUMP JUMPDEST PUSH2 0xFC3 DUP2 PUSH2 0xE53 JUMP JUMPDEST DUP3 MSTORE POP POP JUMP JUMPDEST PUSH0 PUSH2 0xFD4 DUP4 DUP4 PUSH2 0xFBA JUMP JUMPDEST PUSH1 0x20 DUP4 ADD SWAP1 POP SWAP3 SWAP2 POP POP JUMP JUMPDEST PUSH0 PUSH1 0x20 DUP3 ADD SWAP1 POP SWAP2 SWAP1 POP JUMP JUMPDEST PUSH0 PUSH2 0xFF6 DUP3 PUSH2 0xF91 JUMP JUMPDEST PUSH2 0x1000 DUP2 DUP6 PUSH2 0xF9B JUMP JUMPDEST SWAP4 POP PUSH2 0x100B DUP4 PUSH2 0xFAB JUMP JUMPDEST DUP1 PUSH0 JUMPDEST DUP4 DUP2 LT ISZERO PUSH2 0x103B JUMPI DUP2 MLOAD PUSH2 0x1022 DUP9 DUP3 PUSH2 0xFC9 JUMP JUMPDEST SWAP8 POP PUSH2 0x102D DUP4 PUSH2 0xFE0 JUMP JUMPDEST SWAP3 POP POP PUSH1 0x1 DUP2 ADD SWAP1 POP PUSH2 0x100E JUMP JUMPDEST POP DUP6 SWAP4 POP POP POP POP SWAP3 SWAP2 POP POP JUMP JUMPDEST PUSH0 PUSH1 0x20 DUP3 ADD SWAP1 POP DUP2 DUP2 SUB PUSH0 DUP4 ADD MSTORE PUSH2 0x1060 DUP2 DUP5 PUSH2 0xFEC JUMP JUMPDEST SWAP1 POP SWAP3 SWAP2 POP POP JUMP JUMPDEST PUSH0 PUSH0 REVERT JUMPDEST PUSH0 PUSH8 0xFFFFFFFFFFFFFFFF DUP3 GT ISZERO PUSH2 0x1086 JUMPI PUSH2 0x1085 PUSH2 0xDAC JUMP JUMPDEST JUMPDEST PUSH2 0x108F DUP3 PUSH2 0xD9C JUMP JUMPDEST SWAP1 POP PUSH1 0x20 DUP2 ADD SWAP1 POP SWAP2 SWAP1 POP JUMP JUMPDEST DUP3 DUP2 DUP4 CALLDATACOPY PUSH0 DUP4 DUP4 ADD MSTORE POP POP POP JUMP JUMPDEST PUSH0 PUSH2 0x10BC PUSH2 0x10B7 DUP5 PUSH2 0x106C JUMP JUMPDEST PUSH2 0xE0A JUMP JUMPDEST SWAP1 POP DUP3 DUP2 MSTORE PUSH1 0x20 DUP2 ADD DUP5 DUP5 DUP5 ADD GT ISZERO PUSH2 0x10D8 JUMPI PUSH2 0x10D7 PUSH2 0x1068 JUMP JUMPDEST JUMPDEST PUSH2 0x10E3 DUP5 DUP3 DUP6 PUSH2 0x109C JUMP JUMPDEST POP SWAP4 SWAP3 POP POP POP JUMP JUMPDEST PUSH0 DUP3 PUSH1 0x1F DUP4 ADD SLT PUSH2 0x10FF JUMPI PUSH2 0x10FE PUSH2 0xD98 JUMP JUMPDEST JUMPDEST DUP2 CALLDATALOAD PUSH2 0x110F DUP5 DUP3 PUSH1 0x20 DUP7 ADD PUSH2 0x10AA JUMP JUMPDEST SWAP2 POP POP SWAP3 SWAP2 POP POP JUMP JUMPDEST PUSH0 PUSH1 0x20 DUP3 DUP5 SUB SLT ISZERO PUSH2 0x112D JUMPI PUSH2 0x112C PUSH2 0xD90 JUMP JUMPDEST JUMPDEST PUSH0 DUP3 ADD CALLDATALOAD PUSH8 0xFFFFFFFFFFFFFFFF DUP2 GT ISZERO PUSH2 0x114A JUMPI PUSH2 0x1149 PUSH2 0xD94 JUMP JUMPDEST JUMPDEST PUSH2 0x1156 DUP5 DUP3 DUP6 ADD PUSH2 0x10EB JUMP JUMPDEST SWAP2 POP POP SWAP3 SWAP2 POP POP JUMP JUMPDEST PUSH2 0x1168 DUP2 PUSH2 0xE53 JUMP JUMPDEST DUP3 MSTORE POP POP JUMP JUMPDEST PUSH0 PUSH1 0x20 DUP3 ADD SWAP1 POP PUSH2 0x1181 PUSH0 DUP4 ADD DUP5 PUSH2 0x115F JUMP JUMPDEST SWAP3 SWAP2 POP POP JUMP JUMPDEST PUSH0 PUSH1 0x20 DUP3 DUP5 SUB SLT ISZERO PUSH2 0x119C JUMPI PUSH2 0x119B PUSH2 0xD90 JUMP JUMPDEST JUMPDEST PUSH0 PUSH2 0x11A9 DUP5 DUP3 DUP6 ADD PUSH2 0xE72 JUMP JUMPDEST SWAP2 POP POP SWAP3 SWAP2 POP POP JUMP JUMPDEST PUSH0 DUP2 MLOAD SWAP1 POP SWAP2 SWAP1 POP JUMP JUMPDEST PUSH0 DUP3 DUP3 MSTORE PUSH1 0x20 DUP3 ADD SWAP1 POP SWAP3 SWAP2 POP POP JUMP JUMPDEST DUP3 DUP2 DUP4 MCOPY PUSH0 DUP4 DUP4 ADD MSTORE POP POP POP JUMP JUMPDEST PUSH0 PUSH2 0x11E4 DUP3 PUSH2 0x11B2 JUMP JUMPDEST PUSH2 0x11EE DUP2 DUP6 PUSH2 0x11BC JUMP JUMPDEST SWAP4 POP PUSH2 0x11FE DUP2 DUP6 PUSH1 0x20 DUP7 ADD PUSH2 0x11CC JUMP JUMPDEST PUSH2 0x1207 DUP2 PUSH2 0xD9C JUMP JUMPDEST DUP5 ADD SWAP2 POP POP SWAP3 SWAP2 POP POP JUMP JUMPDEST PUSH0 PUSH1 0x20 DUP3 ADD SWAP1 POP DUP2 DUP2 SUB PUSH0 DUP4 ADD MSTORE PUSH2 0x122A DUP2 DUP5 PUSH2 0x11DA JUMP JUMPDEST SWAP1 POP SWAP3 SWAP2 POP POP JUMP JUMPDEST PUSH0 PUSH0 PUSH1 0x40 DUP4 DUP6 SUB SLT ISZERO PUSH2 0x1248 JUMPI PUSH2 0x1247 PUSH2 0xD90 JUMP JUMPDEST JUMPDEST PUSH0 DUP4 ADD CALLDATALOAD PUSH8 0xFFFFFFFFFFFFFFFF DUP2 GT ISZERO PUSH2 0x1265 JUMPI PUSH2 0x1264 PUSH2 0xD94 JUMP JUMPDEST JUMPDEST PUSH2 0x1271 DUP6 DUP3 DUP7 ADD PUSH2 0xEEE JUMP JUMPDEST SWAP3 POP POP PUSH1 0x20 PUSH2 0x1282 DUP6 DUP3 DUP7 ADD PUSH2 0xE72 JUMP JUMPDEST SWAP2 POP POP SWAP3 POP SWAP3 SWAP1 POP JUMP JUMPDEST PUSH0 DUP2 SWAP1 POP SWAP2 SWAP1 POP JUMP JUMPDEST PUSH2 0x129E DUP2 PUSH2 0x128C JUMP JUMPDEST DUP3 MSTORE POP POP JUMP JUMPDEST PUSH0 PUSH1 0x20 DUP3 ADD SWAP1 POP PUSH2 0x12B7 PUSH0 DUP4 ADD DUP5 PUSH2 0x1295 JUMP JUMPDEST SWAP3 SWAP2 POP POP JUMP JUMPDEST PUSH32 0x4E487B7100000000000000000000000000000000000000000000000000000000 PUSH0 MSTORE PUSH1 0x11 PUSH1 0x4 MSTORE PUSH1 0x24 PUSH0 REVERT JUMPDEST PUSH0 PUSH2 0x12F4 DUP3 PUSH2 0xE53 JUMP JUMPDEST SWAP2 POP PUSH2 0x12FF DUP4 PUSH2 0xE53 JUMP JUMPDEST SWAP3 POP DUP3 DUP3 ADD SWAP1 POP DUP1 DUP3 GT ISZERO PUSH2 0x1317 JUMPI PUSH2 0x1316 PUSH2 0x12BD JUMP JUMPDEST JUMPDEST SWAP3 SWAP2 POP POP JUMP JUMPDEST PUSH32 0x4E487B7100000000000000000000000000000000000000000000000000000000 PUSH0 MSTORE PUSH1 0x32 PUSH1 0x4 MSTORE PUSH1 0x24 PUSH0 REVERT JUMPDEST PUSH0 PUSH2 0x1354 DUP3 PUSH2 0xE53 JUMP JUMPDEST SWAP2 POP PUSH32 0xFFFFFFFFFFFFFFFFFFFFFFFFFFFFFFFFFFFFFFFFFFFFFFFFFFFFFFFFFFFFFFFF DUP3 SUB PUSH2 0x1386 JUMPI PUSH2 0x1385 PUSH2 0x12BD JUMP JUMPDEST JUMPDEST PUSH1 0x1 DUP3 ADD SWAP1 POP SWAP2 SWAP1 POP JUMP JUMPDEST PUSH0 PUSH2 0x139B DUP3 PUSH2 0xE53 JUMP JUMPDEST SWAP2 POP PUSH2 0x13A6 DUP4 PUSH2 0xE53 JUMP JUMPDEST SWAP3 POP DUP3 DUP3 SUB SWAP1 POP DUP2 DUP2 GT ISZERO PUSH2 0x13BE JUMPI PUSH2 0x13BD PUSH2 0x12BD JUMP JUMPDEST JUMPDEST SWAP3 SWAP2 POP POP JUMP JUMPDEST PUSH0 PUSH2 0x13CE DUP3 PUSH2 0xE53 JUMP JUMPDEST SWAP2 POP PUSH0 DUP3 SUB PUSH2 0x13E0 JUMPI PUSH2 0x13DF PUSH2 0x12BD JUMP JUMPDEST JUMPDEST PUSH1 0x1 DUP3 SUB SWAP1 POP SWAP2 SWAP1 POP JUMP JUMPDEST PUSH0 DUP2 MLOAD SWAP1 POP SWAP2 SWAP1 POP JUMP JUMPDEST PUSH0 DUP2 SWAP1 POP SWAP3 SWAP2 POP POP JUMP JUMPDEST PUSH0 PUSH2 0x1409 DUP3 PUSH2 0x13EB JUMP JUMPDEST PUSH2 0x1413 DUP2 DUP6 PUSH2 0x13F5 JUMP JUMPDEST SWAP4 POP PUSH2 0x1423 DUP2 DUP6 PUSH1 0x20 DUP7 ADD PUSH2 0x11CC JUMP JUMPDEST DUP1 DUP5 ADD SWAP2 POP POP SWAP3 SWAP2 POP POP JUMP JUMPDEST PUSH0 PUSH2 0x143A DUP3 DUP6 PUSH2 0x13FF JUMP JUMPDEST SWAP2 POP PUSH2 0x1446 DUP3 DUP5 PUSH2 0x13FF JUMP JUMPDEST SWAP2 POP DUP2 SWAP1 POP SWAP4 SWAP3 POP POP POP JUMP JUMPDEST PUSH32 0x4E487B7100000000000000000000000000000000000000000000000000000000 PUSH0 MSTORE PUSH1 0x12 PUSH1 0x4 MSTORE PUSH1 0x24 PUSH0 REVERT JUMPDEST PUSH0 PUSH2 0x1489 DUP3 PUSH2 0xE53 JUMP JUMPDEST SWAP2 POP PUSH2 0x1494 DUP4 PUSH2 0xE53 JUMP JUMPDEST SWAP3 POP DUP3 PUSH2 0x14A4 JUMPI PUSH2 0x14A3 PUSH2 0x1452 JUMP JUMPDEST JUMPDEST DUP3 DUP3 DIV SWAP1 POP SWAP3 SWAP2 POP POP JUMP JUMPDEST PUSH32 0x496E76616C696420526F6D616E206E756D6572616C2063686172616374657200 PUSH0 DUP3 ADD MSTORE POP JUMP JUMPDEST PUSH0 PUSH2 0x14E3 PUSH1 0x1F DUP4 PUSH2 0x11BC JUMP JUMPDEST SWAP2 POP PUSH2 0x14EE DUP3 PUSH2 0x14AF JUMP JUMPDEST PUSH1 0x20 DUP3 ADD SWAP1 POP SWAP2 SWAP1 POP JUMP JUMPDEST PUSH0 PUSH1 0x20 DUP3 ADD SWAP1 POP DUP2 DUP2 SUB PUSH0 DUP4 ADD MSTORE PUSH2 0x1510 DUP2 PUSH2 0x14D7 JUMP JUMPDEST SWAP1 POP SWAP2 SWAP1 POP JUMP INVALID LOG2 PUSH5 0x6970667358 0x22 SLT KECCAK256 SWAP8 DUP16 SWAP2 EXTCODECOPY DUP13 SLOAD DUP6 PUSH2 0x9BDB EXTDELEGATECALL 0xC3 SGT 0xE DUP4 0xED DATALOADN 0x79DB STATICCALL 0xD7 LOG1 SWAP6 0xC5 EXTCODESIZE CALLVALUE 0x2B GT 0xBF PUSH14 0x787D64736F6C634300081E003300 "
				},
				"gasEstimates": {
					"creation": {
						"codeDepositCost": "1090600",
						"executionCost": "1132",
						"totalCost": "1091732"
					},
					"external": {
						"ReverseString(string)": "infinite",
						"mergeAddr(uint256[],uint256[])": "infinite",
						"numConvertRome(uint256)": "infinite",
						"romanToInt(string)": "infinite",
						"romeConvertNum(string)": "infinite",
						"searchAddr(uint256[],uint256)": "infinite"
					},
					"internal": {
						"charToValue(bytes1)": "infinite",
						"compareStrings(string memory,string memory)": "infinite"
					}
				},
				"methodIdentifiers": {
					"ReverseString(string)": "643f0486",
					"mergeAddr(uint256[],uint256[])": "05000112",
					"numConvertRome(uint256)": "29e557f0",
					"romanToInt(string)": "cb159dfe",
					"romeConvertNum(string)": "19bd3228",
					"searchAddr(uint256[],uint256)": "c8e5bbc3"
				}
			},
			"storageLayout": {
				"storage": [],
				"types": null
			},
			"userdoc": {
				"kind": "user",
				"methods": {},
				"version": 1
			}
		}
	}
}