{
	"lesson/lesson05/TokenWithMintBurn.sol": {
		"TokenWithMintBurn": {
			"abi": [
				{
					"inputs": [],
					"stateMutability": "nonpayable",
					"type": "constructor"
				},
				{
					"anonymous": false,
					"inputs": [
						{
							"indexed": true,
							"internalType": "address",
							"name": "from",
							"type": "address"
						},
						{
							"indexed": true,
							"internalType": "address",
							"name": "spender",
							"type": "address"
						},
						{
							"indexed": false,
							"internalType": "uint256",
							"name": "amount",
							"type": "uint256"
						}
					],
					"name": "Approval",
					"type": "event"
				},
				{
					"anonymous": false,
					"inputs": [
						{
							"indexed": true,
							"internalType": "address",
							"name": "from",
							"type": "address"
						},
						{
							"indexed": true,
							"internalType": "address",
							"name": "to",
							"type": "address"
						},
						{
							"indexed": false,
							"internalType": "uint256",
							"name": "amount",
							"type": "uint256"
						}
					],
					"name": "Transfer",
					"type": "event"
				},
				{
					"inputs": [
						{
							"internalType": "address",
							"name": "spender",
							"type": "address"
						},
						{
							"internalType": "uint256",
							"name": "amount",
							"type": "uint256"
						}
					],
					"name": "approval",
					"outputs": [
						{
							"internalType": "bool",
							"name": "",
							"type": "bool"
						}
					],
					"stateMutability": "nonpayable",
					"type": "function"
				},
				{
					"inputs": [
						{
							"internalType": "uint256",
							"name": "amount",
							"type": "uint256"
						}
					],
					"name": "burn",
					"outputs": [],
					"stateMutability": "nonpayable",
					"type": "function"
				},
				{
					"inputs": [
						{
							"internalType": "address",
							"name": "to",
							"type": "address"
						},
						{
							"internalType": "uint256",
							"name": "amount",
							"type": "uint256"
						}
					],
					"name": "mint",
					"outputs": [],
					"stateMutability": "nonpayable",
					"type": "function"
				},
				{
					"inputs": [],
					"name": "owner",
					"outputs": [
						{
							"internalType": "address",
							"name": "",
							"type": "address"
						}
					],
					"stateMutability": "view",
					"type": "function"
				},
				{
					"inputs": [
						{
							"internalType": "address",
							"name": "to",
							"type": "address"
						},
						{
							"internalType": "uint256",
							"name": "amount",
							"type": "uint256"
						}
					],
					"name": "transfer",
					"outputs": [
						{
							"internalType": "bool",
							"name": "",
							"type": "bool"
						}
					],
					"stateMutability": "nonpayable",
					"type": "function"
				},
				{
					"inputs": [
						{
							"internalType": "address",
							"name": "from",
							"type": "address"
						},
						{
							"internalType": "address",
							"name": "to",
							"type": "address"
						},
						{
							"internalType": "uint256",
							"name": "amount",
							"type": "uint256"
						}
					],
					"name": "transferFrom",
					"outputs": [
						{
							"internalType": "bool",
							"name": "",
							"type": "bool"
						}
					],
					"stateMutability": "nonpayable",
					"type": "function"
				}
			],
			"devdoc": {
				"kind": "dev",
				"methods": {},
				"version": 1
			},
			"evm": {
				"assembly": "    /* \"lesson/lesson05/TokenWithMintBurn.sol\":61:2945  contract TokenWithMintBurn{... */\n  mstore(0x40, 0x80)\n    /* \"lesson/lesson05/TokenWithMintBurn.sol\":123:155  string private name = \"My Token\" */\n  mload(0x40)\n  dup1\n  0x40\n  add\n  0x40\n  mstore\n  dup1\n  0x08\n  dup2\n  mstore\n  0x20\n  add\n  0x4d7920546f6b656e000000000000000000000000000000000000000000000000\n  dup2\n  mstore\n  pop\n  0x00\n  swap1\n  dup2\n  tag_1\n  swap2\n  swap1\n  tag_2\n  jump\t// in\ntag_1:\n  pop\n    /* \"lesson/lesson05/TokenWithMintBurn.sol\":162:191  string private symbol = \"MTK\" */\n  mload(0x40)\n  dup1\n  0x40\n  add\n  0x40\n  mstore\n  dup1\n  0x03\n  dup2\n  mstore\n  0x20\n  add\n  0x4d544b0000000000000000000000000000000000000000000000000000000000\n  dup2\n  mstore\n  pop\n  0x01\n  swap1\n  dup2\n  tag_3\n  swap2\n  swap1\n  tag_2\n  jump\t// in\ntag_3:\n  pop\n    /* \"lesson/lesson05/TokenWithMintBurn.sol\":732:935  constructor() {... */\n  callvalue\n  dup1\n  iszero\n  tag_4\n  jumpi\n  revert(0x00, 0x00)\ntag_4:\n  pop\n    /* \"lesson/lesson05/TokenWithMintBurn.sol\":232:234  18 */\n  0x12\n    /* \"lesson/lesson05/TokenWithMintBurn.sol\":775:777  10 */\n  0x0a\n    /* \"lesson/lesson05/TokenWithMintBurn.sol\":775:789  10 ** decimals */\n  tag_7\n  swap2\n  swap1\n  tag_8\n  jump\t// in\ntag_7:\n    /* \"lesson/lesson05/TokenWithMintBurn.sol\":771:772  2 */\n  0x02\n    /* \"lesson/lesson05/TokenWithMintBurn.sol\":771:789  2 * 10 ** decimals */\n  tag_9\n  swap2\n  swap1\n  tag_10\n  jump\t// in\ntag_9:\n    /* \"lesson/lesson05/TokenWithMintBurn.sol\":757:768  totalSupply */\n  0x02\n    /* \"lesson/lesson05/TokenWithMintBurn.sol\":757:789  totalSupply = 2 * 10 ** decimals */\n  dup2\n  swap1\n  sstore\n  pop\n    /* \"lesson/lesson05/TokenWithMintBurn.sol\":808:818  msg.sender */\n  caller\n    /* \"lesson/lesson05/TokenWithMintBurn.sol\":800:805  owner */\n  0x05\n  0x00\n    /* \"lesson/lesson05/TokenWithMintBurn.sol\":800:818  owner = msg.sender */\n  0x0100\n  exp\n  dup2\n  sload\n  dup2\n  0xffffffffffffffffffffffffffffffffffffffff\n  mul\n  not\n  and\n  swap1\n  dup4\n  0xffffffffffffffffffffffffffffffffffffffff\n  and\n  mul\n  or\n  swap1\n  sstore\n  pop\n    /* \"lesson/lesson05/TokenWithMintBurn.sol\":853:864  totalSupply */\n  sload(0x02)\n    /* \"lesson/lesson05/TokenWithMintBurn.sol\":829:838  balanceOf */\n  0x03\n    /* \"lesson/lesson05/TokenWithMintBurn.sol\":829:850  balanceOf[msg.sender] */\n  0x00\n    /* \"lesson/lesson05/TokenWithMintBurn.sol\":839:849  msg.sender */\n  caller\n    /* \"lesson/lesson05/TokenWithMintBurn.sol\":829:850  balanceOf[msg.sender] */\n  0xffffffffffffffffffffffffffffffffffffffff\n  and\n  0xffffffffffffffffffffffffffffffffffffffff\n  and\n  dup2\n  mstore\n  0x20\n  add\n  swap1\n  dup2\n  mstore\n  0x20\n  add\n  0x00\n  keccak256\n    /* \"lesson/lesson05/TokenWithMintBurn.sol\":829:864  balanceOf[msg.sender] = totalSupply */\n  dup2\n  swap1\n  sstore\n  pop\n    /* \"lesson/lesson05/TokenWithMintBurn.sol\":903:913  msg.sender */\n  caller\n    /* \"lesson/lesson05/TokenWithMintBurn.sol\":882:927  Transfer(address(0), msg.sender, totalSupply) */\n  0xffffffffffffffffffffffffffffffffffffffff\n  and\n    /* \"lesson/lesson05/TokenWithMintBurn.sol\":899:900  0 */\n  0x00\n    /* \"lesson/lesson05/TokenWithMintBurn.sol\":882:927  Transfer(address(0), msg.sender, totalSupply) */\n  0xffffffffffffffffffffffffffffffffffffffff\n  and\n  0xddf252ad1be2c89b69c2b068fc378daa952ba7f163c4a11628f55a4df523b3ef\n    /* \"lesson/lesson05/TokenWithMintBurn.sol\":915:926  totalSupply */\n  sload(0x02)\n    /* \"lesson/lesson05/TokenWithMintBurn.sol\":882:927  Transfer(address(0), msg.sender, totalSupply) */\n  mload(0x40)\n  tag_11\n  swap2\n  swap1\n  tag_12\n  jump\t// in\ntag_11:\n  mload(0x40)\n  dup1\n  swap2\n  sub\n  swap1\n  log3\n    /* \"lesson/lesson05/TokenWithMintBurn.sol\":61:2945  contract TokenWithMintBurn{... */\n  jump(tag_13)\n    /* \"#utility.yul\":7:106   */\ntag_14:\n    /* \"#utility.yul\":59:65   */\n  0x00\n    /* \"#utility.yul\":93:98   */\n  dup2\n    /* \"#utility.yul\":87:99   */\n  mload\n    /* \"#utility.yul\":77:99   */\n  swap1\n  pop\n    /* \"#utility.yul\":7:106   */\n  swap2\n  swap1\n  pop\n  jump\t// out\n    /* \"#utility.yul\":112:292   */\ntag_15:\n    /* \"#utility.yul\":160:237   */\n  0x4e487b7100000000000000000000000000000000000000000000000000000000\n    /* \"#utility.yul\":157:158   */\n  0x00\n    /* \"#utility.yul\":150:238   */\n  mstore\n    /* \"#utility.yul\":257:261   */\n  0x41\n    /* \"#utility.yul\":254:255   */\n  0x04\n    /* \"#utility.yul\":247:262   */\n  mstore\n    /* \"#utility.yul\":281:285   */\n  0x24\n    /* \"#utility.yul\":278:279   */\n  0x00\n    /* \"#utility.yul\":271:286   */\n  revert\n    /* \"#utility.yul\":298:478   */\ntag_16:\n    /* \"#utility.yul\":346:423   */\n  0x4e487b7100000000000000000000000000000000000000000000000000000000\n    /* \"#utility.yul\":343:344   */\n  0x00\n    /* \"#utility.yul\":336:424   */\n  mstore\n    /* \"#utility.yul\":443:447   */\n  0x22\n    /* \"#utility.yul\":440:441   */\n  0x04\n    /* \"#utility.yul\":433:448   */\n  mstore\n    /* \"#utility.yul\":467:471   */\n  0x24\n    /* \"#utility.yul\":464:465   */\n  0x00\n    /* \"#utility.yul\":457:472   */\n  revert\n    /* \"#utility.yul\":484:804   */\ntag_17:\n    /* \"#utility.yul\":528:534   */\n  0x00\n    /* \"#utility.yul\":565:566   */\n  0x02\n    /* \"#utility.yul\":559:563   */\n  dup3\n    /* \"#utility.yul\":555:567   */\n  div\n    /* \"#utility.yul\":545:567   */\n  swap1\n  pop\n    /* \"#utility.yul\":612:613   */\n  0x01\n    /* \"#utility.yul\":606:610   */\n  dup3\n    /* \"#utility.yul\":602:614   */\n  and\n    /* \"#utility.yul\":633:651   */\n  dup1\n    /* \"#utility.yul\":623:704   */\n  tag_45\n  jumpi\n    /* \"#utility.yul\":689:693   */\n  0x7f\n    /* \"#utility.yul\":681:687   */\n  dup3\n    /* \"#utility.yul\":677:694   */\n  and\n    /* \"#utility.yul\":667:694   */\n  swap2\n  pop\n    /* \"#utility.yul\":623:704   */\ntag_45:\n    /* \"#utility.yul\":751:753   */\n  0x20\n    /* \"#utility.yul\":743:749   */\n  dup3\n    /* \"#utility.yul\":740:754   */\n  lt\n    /* \"#utility.yul\":720:738   */\n  dup2\n    /* \"#utility.yul\":717:755   */\n  sub\n    /* \"#utility.yul\":714:798   */\n  tag_46\n  jumpi\n    /* \"#utility.yul\":770:788   */\n  tag_47\n  tag_16\n  jump\t// in\ntag_47:\n    /* \"#utility.yul\":714:798   */\ntag_46:\n    /* \"#utility.yul\":535:804   */\n  pop\n    /* \"#utility.yul\":484:804   */\n  swap2\n  swap1\n  pop\n  jump\t// out\n    /* \"#utility.yul\":810:951   */\ntag_18:\n    /* \"#utility.yul\":859:863   */\n  0x00\n    /* \"#utility.yul\":882:885   */\n  dup2\n    /* \"#utility.yul\":874:885   */\n  swap1\n  pop\n    /* \"#utility.yul\":905:908   */\n  dup2\n    /* \"#utility.yul\":902:903   */\n  0x00\n    /* \"#utility.yul\":895:909   */\n  mstore\n    /* \"#utility.yul\":939:943   */\n  0x20\n    /* \"#utility.yul\":936:937   */\n  0x00\n    /* \"#utility.yul\":926:944   */\n  keccak256\n    /* \"#utility.yul\":918:944   */\n  swap1\n  pop\n    /* \"#utility.yul\":810:951   */\n  swap2\n  swap1\n  pop\n  jump\t// out\n    /* \"#utility.yul\":957:1050   */\ntag_19:\n    /* \"#utility.yul\":994:1000   */\n  0x00\n    /* \"#utility.yul\":1041:1043   */\n  0x20\n    /* \"#utility.yul\":1036:1038   */\n  0x1f\n    /* \"#utility.yul\":1029:1034   */\n  dup4\n    /* \"#utility.yul\":1025:1039   */\n  add\n    /* \"#utility.yul\":1021:1044   */\n  div\n    /* \"#utility.yul\":1011:1044   */\n  swap1\n  pop\n    /* \"#utility.yul\":957:1050   */\n  swap2\n  swap1\n  pop\n  jump\t// out\n    /* \"#utility.yul\":1056:1163   */\ntag_20:\n    /* \"#utility.yul\":1100:1108   */\n  0x00\n    /* \"#utility.yul\":1150:1155   */\n  dup3\n    /* \"#utility.yul\":1144:1148   */\n  dup3\n    /* \"#utility.yul\":1140:1156   */\n  shl\n    /* \"#utility.yul\":1119:1156   */\n  swap1\n  pop\n    /* \"#utility.yul\":1056:1163   */\n  swap3\n  swap2\n  pop\n  pop\n  jump\t// out\n    /* \"#utility.yul\":1169:1562   */\ntag_21:\n    /* \"#utility.yul\":1238:1244   */\n  0x00\n    /* \"#utility.yul\":1288:1289   */\n  0x08\n    /* \"#utility.yul\":1276:1286   */\n  dup4\n    /* \"#utility.yul\":1272:1290   */\n  mul\n    /* \"#utility.yul\":1311:1408   */\n  tag_52\n    /* \"#utility.yul\":1341:1407   */\n  0xffffffffffffffffffffffffffffffffffffffffffffffffffffffffffffffff\n    /* \"#utility.yul\":1330:1339   */\n  dup3\n    /* \"#utility.yul\":1311:1408   */\n  tag_20\n  jump\t// in\ntag_52:\n    /* \"#utility.yul\":1429:1468   */\n  tag_53\n    /* \"#utility.yul\":1459:1467   */\n  dup7\n    /* \"#utility.yul\":1448:1457   */\n  dup4\n    /* \"#utility.yul\":1429:1468   */\n  tag_20\n  jump\t// in\ntag_53:\n    /* \"#utility.yul\":1417:1468   */\n  swap6\n  pop\n    /* \"#utility.yul\":1501:1505   */\n  dup1\n    /* \"#utility.yul\":1497:1506   */\n  not\n    /* \"#utility.yul\":1490:1495   */\n  dup5\n    /* \"#utility.yul\":1486:1507   */\n  and\n    /* \"#utility.yul\":1477:1507   */\n  swap4\n  pop\n    /* \"#utility.yul\":1550:1554   */\n  dup1\n    /* \"#utility.yul\":1540:1548   */\n  dup7\n    /* \"#utility.yul\":1536:1555   */\n  and\n    /* \"#utility.yul\":1529:1534   */\n  dup5\n    /* \"#utility.yul\":1526:1556   */\n  or\n    /* \"#utility.yul\":1516:1556   */\n  swap3\n  pop\n    /* \"#utility.yul\":1245:1562   */\n  pop\n  pop\n    /* \"#utility.yul\":1169:1562   */\n  swap4\n  swap3\n  pop\n  pop\n  pop\n  jump\t// out\n    /* \"#utility.yul\":1568:1645   */\ntag_22:\n    /* \"#utility.yul\":1605:1612   */\n  0x00\n    /* \"#utility.yul\":1634:1639   */\n  dup2\n    /* \"#utility.yul\":1623:1639   */\n  swap1\n  pop\n    /* \"#utility.yul\":1568:1645   */\n  swap2\n  swap1\n  pop\n  jump\t// out\n    /* \"#utility.yul\":1651:1711   */\ntag_23:\n    /* \"#utility.yul\":1679:1682   */\n  0x00\n    /* \"#utility.yul\":1700:1705   */\n  dup2\n    /* \"#utility.yul\":1693:1705   */\n  swap1\n  pop\n    /* \"#utility.yul\":1651:1711   */\n  swap2\n  swap1\n  pop\n  jump\t// out\n    /* \"#utility.yul\":1717:1859   */\ntag_24:\n    /* \"#utility.yul\":1767:1776   */\n  0x00\n    /* \"#utility.yul\":1800:1853   */\n  tag_57\n    /* \"#utility.yul\":1818:1852   */\n  tag_58\n    /* \"#utility.yul\":1827:1851   */\n  tag_59\n    /* \"#utility.yul\":1845:1850   */\n  dup5\n    /* \"#utility.yul\":1827:1851   */\n  tag_22\n  jump\t// in\ntag_59:\n    /* \"#utility.yul\":1818:1852   */\n  tag_23\n  jump\t// in\ntag_58:\n    /* \"#utility.yul\":1800:1853   */\n  tag_22\n  jump\t// in\ntag_57:\n    /* \"#utility.yul\":1787:1853   */\n  swap1\n  pop\n    /* \"#utility.yul\":1717:1859   */\n  swap2\n  swap1\n  pop\n  jump\t// out\n    /* \"#utility.yul\":1865:1940   */\ntag_25:\n    /* \"#utility.yul\":1908:1911   */\n  0x00\n    /* \"#utility.yul\":1929:1934   */\n  dup2\n    /* \"#utility.yul\":1922:1934   */\n  swap1\n  pop\n    /* \"#utility.yul\":1865:1940   */\n  swap2\n  swap1\n  pop\n  jump\t// out\n    /* \"#utility.yul\":1946:2215   */\ntag_26:\n    /* \"#utility.yul\":2056:2095   */\n  tag_62\n    /* \"#utility.yul\":2087:2094   */\n  dup4\n    /* \"#utility.yul\":2056:2095   */\n  tag_24\n  jump\t// in\ntag_62:\n    /* \"#utility.yul\":2117:2208   */\n  tag_63\n    /* \"#utility.yul\":2166:2207   */\n  tag_64\n    /* \"#utility.yul\":2190:2206   */\n  dup3\n    /* \"#utility.yul\":2166:2207   */\n  tag_25\n  jump\t// in\ntag_64:\n    /* \"#utility.yul\":2158:2164   */\n  dup5\n    /* \"#utility.yul\":2151:2155   */\n  dup5\n    /* \"#utility.yul\":2145:2156   */\n  sload\n    /* \"#utility.yul\":2117:2208   */\n  tag_21\n  jump\t// in\ntag_63:\n    /* \"#utility.yul\":2111:2115   */\n  dup3\n    /* \"#utility.yul\":2104:2209   */\n  sstore\n    /* \"#utility.yul\":2022:2215   */\n  pop\n    /* \"#utility.yul\":1946:2215   */\n  pop\n  pop\n  pop\n  jump\t// out\n    /* \"#utility.yul\":2221:2294   */\ntag_27:\n    /* \"#utility.yul\":2266:2269   */\n  0x00\n    /* \"#utility.yul\":2287:2288   */\n  0x00\n    /* \"#utility.yul\":2280:2288   */\n  swap1\n  pop\n    /* \"#utility.yul\":2221:2294   */\n  swap1\n  jump\t// out\n    /* \"#utility.yul\":2300:2489   */\ntag_28:\n    /* \"#utility.yul\":2377:2409   */\n  tag_67\n  tag_27\n  jump\t// in\ntag_67:\n    /* \"#utility.yul\":2418:2483   */\n  tag_68\n    /* \"#utility.yul\":2476:2482   */\n  dup2\n    /* \"#utility.yul\":2468:2474   */\n  dup5\n    /* \"#utility.yul\":2462:2466   */\n  dup5\n    /* \"#utility.yul\":2418:2483   */\n  tag_26\n  jump\t// in\ntag_68:\n    /* \"#utility.yul\":2353:2489   */\n  pop\n    /* \"#utility.yul\":2300:2489   */\n  pop\n  pop\n  jump\t// out\n    /* \"#utility.yul\":2495:2681   */\ntag_29:\n    /* \"#utility.yul\":2555:2675   */\ntag_70:\n    /* \"#utility.yul\":2572:2575   */\n  dup2\n    /* \"#utility.yul\":2565:2570   */\n  dup2\n    /* \"#utility.yul\":2562:2576   */\n  lt\n    /* \"#utility.yul\":2555:2675   */\n  iszero\n  tag_72\n  jumpi\n    /* \"#utility.yul\":2626:2665   */\n  tag_73\n    /* \"#utility.yul\":2663:2664   */\n  0x00\n    /* \"#utility.yul\":2656:2661   */\n  dup3\n    /* \"#utility.yul\":2626:2665   */\n  tag_28\n  jump\t// in\ntag_73:\n    /* \"#utility.yul\":2599:2600   */\n  0x01\n    /* \"#utility.yul\":2592:2597   */\n  dup2\n    /* \"#utility.yul\":2588:2601   */\n  add\n    /* \"#utility.yul\":2579:2601   */\n  swap1\n  pop\n    /* \"#utility.yul\":2555:2675   */\n  jump(tag_70)\ntag_72:\n    /* \"#utility.yul\":2495:2681   */\n  pop\n  pop\n  jump\t// out\n    /* \"#utility.yul\":2687:3230   */\ntag_30:\n    /* \"#utility.yul\":2788:2790   */\n  0x1f\n    /* \"#utility.yul\":2783:2786   */\n  dup3\n    /* \"#utility.yul\":2780:2791   */\n  gt\n    /* \"#utility.yul\":2777:3223   */\n  iszero\n  tag_75\n  jumpi\n    /* \"#utility.yul\":2822:2860   */\n  tag_76\n    /* \"#utility.yul\":2854:2859   */\n  dup2\n    /* \"#utility.yul\":2822:2860   */\n  tag_18\n  jump\t// in\ntag_76:\n    /* \"#utility.yul\":2906:2935   */\n  tag_77\n    /* \"#utility.yul\":2924:2934   */\n  dup5\n    /* \"#utility.yul\":2906:2935   */\n  tag_19\n  jump\t// in\ntag_77:\n    /* \"#utility.yul\":2896:2904   */\n  dup2\n    /* \"#utility.yul\":2892:2936   */\n  add\n    /* \"#utility.yul\":3089:3091   */\n  0x20\n    /* \"#utility.yul\":3077:3087   */\n  dup6\n    /* \"#utility.yul\":3074:3092   */\n  lt\n    /* \"#utility.yul\":3071:3120   */\n  iszero\n  tag_78\n  jumpi\n    /* \"#utility.yul\":3110:3118   */\n  dup2\n    /* \"#utility.yul\":3095:3118   */\n  swap1\n  pop\n    /* \"#utility.yul\":3071:3120   */\ntag_78:\n    /* \"#utility.yul\":3133:3213   */\n  tag_79\n    /* \"#utility.yul\":3189:3211   */\n  tag_80\n    /* \"#utility.yul\":3207:3210   */\n  dup6\n    /* \"#utility.yul\":3189:3211   */\n  tag_19\n  jump\t// in\ntag_80:\n    /* \"#utility.yul\":3179:3187   */\n  dup4\n    /* \"#utility.yul\":3175:3212   */\n  add\n    /* \"#utility.yul\":3162:3173   */\n  dup3\n    /* \"#utility.yul\":3133:3213   */\n  tag_29\n  jump\t// in\ntag_79:\n    /* \"#utility.yul\":2792:3223   */\n  pop\n  pop\n    /* \"#utility.yul\":2777:3223   */\ntag_75:\n    /* \"#utility.yul\":2687:3230   */\n  pop\n  pop\n  pop\n  jump\t// out\n    /* \"#utility.yul\":3236:3353   */\ntag_31:\n    /* \"#utility.yul\":3290:3298   */\n  0x00\n    /* \"#utility.yul\":3340:3345   */\n  dup3\n    /* \"#utility.yul\":3334:3338   */\n  dup3\n    /* \"#utility.yul\":3330:3346   */\n  shr\n    /* \"#utility.yul\":3309:3346   */\n  swap1\n  pop\n    /* \"#utility.yul\":3236:3353   */\n  swap3\n  swap2\n  pop\n  pop\n  jump\t// out\n    /* \"#utility.yul\":3359:3528   */\ntag_32:\n    /* \"#utility.yul\":3403:3409   */\n  0x00\n    /* \"#utility.yul\":3436:3487   */\n  tag_83\n    /* \"#utility.yul\":3484:3485   */\n  0x00\n    /* \"#utility.yul\":3480:3486   */\n  not\n    /* \"#utility.yul\":3472:3477   */\n  dup5\n    /* \"#utility.yul\":3469:3470   */\n  0x08\n    /* \"#utility.yul\":3465:3478   */\n  mul\n    /* \"#utility.yul\":3436:3487   */\n  tag_31\n  jump\t// in\ntag_83:\n    /* \"#utility.yul\":3432:3488   */\n  not\n    /* \"#utility.yul\":3517:3521   */\n  dup1\n    /* \"#utility.yul\":3511:3515   */\n  dup4\n    /* \"#utility.yul\":3507:3522   */\n  and\n    /* \"#utility.yul\":3497:3522   */\n  swap2\n  pop\n    /* \"#utility.yul\":3410:3528   */\n  pop\n    /* \"#utility.yul\":3359:3528   */\n  swap3\n  swap2\n  pop\n  pop\n  jump\t// out\n    /* \"#utility.yul\":3533:3828   */\ntag_33:\n    /* \"#utility.yul\":3609:3613   */\n  0x00\n    /* \"#utility.yul\":3755:3784   */\n  tag_85\n    /* \"#utility.yul\":3780:3783   */\n  dup4\n    /* \"#utility.yul\":3774:3778   */\n  dup4\n    /* \"#utility.yul\":3755:3784   */\n  tag_32\n  jump\t// in\ntag_85:\n    /* \"#utility.yul\":3747:3784   */\n  swap2\n  pop\n    /* \"#utility.yul\":3817:3820   */\n  dup3\n    /* \"#utility.yul\":3814:3815   */\n  0x02\n    /* \"#utility.yul\":3810:3821   */\n  mul\n    /* \"#utility.yul\":3804:3808   */\n  dup3\n    /* \"#utility.yul\":3801:3822   */\n  or\n    /* \"#utility.yul\":3793:3822   */\n  swap1\n  pop\n    /* \"#utility.yul\":3533:3828   */\n  swap3\n  swap2\n  pop\n  pop\n  jump\t// out\n    /* \"#utility.yul\":3833:5228   */\ntag_2:\n    /* \"#utility.yul\":3950:3987   */\n  tag_87\n    /* \"#utility.yul\":3983:3986   */\n  dup3\n    /* \"#utility.yul\":3950:3987   */\n  tag_14\n  jump\t// in\ntag_87:\n    /* \"#utility.yul\":4052:4070   */\n  0xffffffffffffffff\n    /* \"#utility.yul\":4044:4050   */\n  dup2\n    /* \"#utility.yul\":4041:4071   */\n  gt\n    /* \"#utility.yul\":4038:4094   */\n  iszero\n  tag_88\n  jumpi\n    /* \"#utility.yul\":4074:4092   */\n  tag_89\n  tag_15\n  jump\t// in\ntag_89:\n    /* \"#utility.yul\":4038:4094   */\ntag_88:\n    /* \"#utility.yul\":4118:4156   */\n  tag_90\n    /* \"#utility.yul\":4150:4154   */\n  dup3\n    /* \"#utility.yul\":4144:4155   */\n  sload\n    /* \"#utility.yul\":4118:4156   */\n  tag_17\n  jump\t// in\ntag_90:\n    /* \"#utility.yul\":4203:4270   */\n  tag_91\n    /* \"#utility.yul\":4263:4269   */\n  dup3\n    /* \"#utility.yul\":4255:4261   */\n  dup3\n    /* \"#utility.yul\":4249:4253   */\n  dup6\n    /* \"#utility.yul\":4203:4270   */\n  tag_30\n  jump\t// in\ntag_91:\n    /* \"#utility.yul\":4297:4298   */\n  0x00\n    /* \"#utility.yul\":4321:4325   */\n  0x20\n    /* \"#utility.yul\":4308:4325   */\n  swap1\n  pop\n    /* \"#utility.yul\":4353:4355   */\n  0x1f\n    /* \"#utility.yul\":4345:4351   */\n  dup4\n    /* \"#utility.yul\":4342:4356   */\n  gt\n    /* \"#utility.yul\":4370:4371   */\n  0x01\n    /* \"#utility.yul\":4365:4983   */\n  dup2\n  eq\n  tag_93\n  jumpi\n    /* \"#utility.yul\":5027:5028   */\n  0x00\n    /* \"#utility.yul\":5044:5050   */\n  dup5\n    /* \"#utility.yul\":5041:5118   */\n  iszero\n  tag_94\n  jumpi\n    /* \"#utility.yul\":5093:5102   */\n  dup3\n    /* \"#utility.yul\":5088:5091   */\n  dup8\n    /* \"#utility.yul\":5084:5103   */\n  add\n    /* \"#utility.yul\":5078:5104   */\n  mload\n    /* \"#utility.yul\":5069:5104   */\n  swap1\n  pop\n    /* \"#utility.yul\":5041:5118   */\ntag_94:\n    /* \"#utility.yul\":5144:5211   */\n  tag_95\n    /* \"#utility.yul\":5204:5210   */\n  dup6\n    /* \"#utility.yul\":5197:5202   */\n  dup3\n    /* \"#utility.yul\":5144:5211   */\n  tag_33\n  jump\t// in\ntag_95:\n    /* \"#utility.yul\":5138:5142   */\n  dup7\n    /* \"#utility.yul\":5131:5212   */\n  sstore\n    /* \"#utility.yul\":5000:5222   */\n  pop\n    /* \"#utility.yul\":4335:5222   */\n  jump(tag_92)\n    /* \"#utility.yul\":4365:4983   */\ntag_93:\n    /* \"#utility.yul\":4417:4421   */\n  0x1f\n    /* \"#utility.yul\":4413:4422   */\n  not\n    /* \"#utility.yul\":4405:4411   */\n  dup5\n    /* \"#utility.yul\":4401:4423   */\n  and\n    /* \"#utility.yul\":4451:4488   */\n  tag_96\n    /* \"#utility.yul\":4483:4487   */\n  dup7\n    /* \"#utility.yul\":4451:4488   */\n  tag_18\n  jump\t// in\ntag_96:\n    /* \"#utility.yul\":4510:4511   */\n  0x00\n    /* \"#utility.yul\":4524:4732   */\ntag_97:\n    /* \"#utility.yul\":4538:4545   */\n  dup3\n    /* \"#utility.yul\":4535:4536   */\n  dup2\n    /* \"#utility.yul\":4532:4546   */\n  lt\n    /* \"#utility.yul\":4524:4732   */\n  iszero\n  tag_99\n  jumpi\n    /* \"#utility.yul\":4617:4626   */\n  dup5\n    /* \"#utility.yul\":4612:4615   */\n  dup10\n    /* \"#utility.yul\":4608:4627   */\n  add\n    /* \"#utility.yul\":4602:4628   */\n  mload\n    /* \"#utility.yul\":4594:4600   */\n  dup3\n    /* \"#utility.yul\":4587:4629   */\n  sstore\n    /* \"#utility.yul\":4668:4669   */\n  0x01\n    /* \"#utility.yul\":4660:4666   */\n  dup3\n    /* \"#utility.yul\":4656:4670   */\n  add\n    /* \"#utility.yul\":4646:4670   */\n  swap2\n  pop\n    /* \"#utility.yul\":4715:4717   */\n  0x20\n    /* \"#utility.yul\":4704:4713   */\n  dup6\n    /* \"#utility.yul\":4700:4718   */\n  add\n    /* \"#utility.yul\":4687:4718   */\n  swap5\n  pop\n    /* \"#utility.yul\":4561:4565   */\n  0x20\n    /* \"#utility.yul\":4558:4559   */\n  dup2\n    /* \"#utility.yul\":4554:4566   */\n  add\n    /* \"#utility.yul\":4549:4566   */\n  swap1\n  pop\n    /* \"#utility.yul\":4524:4732   */\n  jump(tag_97)\ntag_99:\n    /* \"#utility.yul\":4760:4766   */\n  dup7\n    /* \"#utility.yul\":4751:4758   */\n  dup4\n    /* \"#utility.yul\":4748:4767   */\n  lt\n    /* \"#utility.yul\":4745:4924   */\n  iszero\n  tag_100\n  jumpi\n    /* \"#utility.yul\":4818:4827   */\n  dup5\n    /* \"#utility.yul\":4813:4816   */\n  dup10\n    /* \"#utility.yul\":4809:4828   */\n  add\n    /* \"#utility.yul\":4803:4829   */\n  mload\n    /* \"#utility.yul\":4861:4909   */\n  tag_101\n    /* \"#utility.yul\":4903:4907   */\n  0x1f\n    /* \"#utility.yul\":4895:4901   */\n  dup10\n    /* \"#utility.yul\":4891:4908   */\n  and\n    /* \"#utility.yul\":4880:4889   */\n  dup3\n    /* \"#utility.yul\":4861:4909   */\n  tag_32\n  jump\t// in\ntag_101:\n    /* \"#utility.yul\":4853:4859   */\n  dup4\n    /* \"#utility.yul\":4846:4910   */\n  sstore\n    /* \"#utility.yul\":4768:4924   */\n  pop\n    /* \"#utility.yul\":4745:4924   */\ntag_100:\n    /* \"#utility.yul\":4970:4971   */\n  0x01\n    /* \"#utility.yul\":4966:4967   */\n  0x02\n    /* \"#utility.yul\":4958:4964   */\n  dup9\n    /* \"#utility.yul\":4954:4968   */\n  mul\n    /* \"#utility.yul\":4950:4972   */\n  add\n    /* \"#utility.yul\":4944:4948   */\n  dup9\n    /* \"#utility.yul\":4937:4973   */\n  sstore\n    /* \"#utility.yul\":4372:4983   */\n  pop\n  pop\n  pop\n    /* \"#utility.yul\":4335:5222   */\ntag_92:\n  pop\n    /* \"#utility.yul\":3925:5228   */\n  pop\n  pop\n  pop\n    /* \"#utility.yul\":3833:5228   */\n  pop\n  pop\n  jump\t// out\n    /* \"#utility.yul\":5234:5414   */\ntag_34:\n    /* \"#utility.yul\":5282:5359   */\n  0x4e487b7100000000000000000000000000000000000000000000000000000000\n    /* \"#utility.yul\":5279:5280   */\n  0x00\n    /* \"#utility.yul\":5272:5360   */\n  mstore\n    /* \"#utility.yul\":5379:5383   */\n  0x11\n    /* \"#utility.yul\":5376:5377   */\n  0x04\n    /* \"#utility.yul\":5369:5384   */\n  mstore\n    /* \"#utility.yul\":5403:5407   */\n  0x24\n    /* \"#utility.yul\":5400:5401   */\n  0x00\n    /* \"#utility.yul\":5393:5408   */\n  revert\n    /* \"#utility.yul\":5420:5522   */\ntag_35:\n    /* \"#utility.yul\":5462:5470   */\n  0x00\n    /* \"#utility.yul\":5509:5514   */\n  dup2\n    /* \"#utility.yul\":5506:5507   */\n  0x01\n    /* \"#utility.yul\":5502:5515   */\n  shr\n    /* \"#utility.yul\":5481:5515   */\n  swap1\n  pop\n    /* \"#utility.yul\":5420:5522   */\n  swap2\n  swap1\n  pop\n  jump\t// out\n    /* \"#utility.yul\":5528:6376   */\ntag_36:\n    /* \"#utility.yul\":5589:5594   */\n  0x00\n    /* \"#utility.yul\":5596:5600   */\n  0x00\n    /* \"#utility.yul\":5620:5626   */\n  dup3\n    /* \"#utility.yul\":5611:5626   */\n  swap2\n  pop\n    /* \"#utility.yul\":5644:5649   */\n  dup4\n    /* \"#utility.yul\":5635:5649   */\n  swap1\n  pop\n    /* \"#utility.yul\":5658:6370   */\ntag_105:\n    /* \"#utility.yul\":5679:5680   */\n  0x01\n    /* \"#utility.yul\":5669:5677   */\n  dup6\n    /* \"#utility.yul\":5666:5681   */\n  gt\n    /* \"#utility.yul\":5658:6370   */\n  iszero\n  tag_107\n  jumpi\n    /* \"#utility.yul\":5774:5778   */\n  dup1\n    /* \"#utility.yul\":5769:5772   */\n  dup7\n    /* \"#utility.yul\":5765:5779   */\n  div\n    /* \"#utility.yul\":5759:5763   */\n  dup2\n    /* \"#utility.yul\":5756:5780   */\n  gt\n    /* \"#utility.yul\":5753:5803   */\n  iszero\n  tag_108\n  jumpi\n    /* \"#utility.yul\":5783:5801   */\n  tag_109\n  tag_34\n  jump\t// in\ntag_109:\n    /* \"#utility.yul\":5753:5803   */\ntag_108:\n    /* \"#utility.yul\":5833:5834   */\n  0x01\n    /* \"#utility.yul\":5823:5831   */\n  dup6\n    /* \"#utility.yul\":5819:5835   */\n  and\n    /* \"#utility.yul\":5816:6267   */\n  iszero\n  tag_110\n  jumpi\n    /* \"#utility.yul\":6248:6252   */\n  dup1\n    /* \"#utility.yul\":6241:6246   */\n  dup3\n    /* \"#utility.yul\":6237:6253   */\n  mul\n    /* \"#utility.yul\":6228:6253   */\n  swap2\n  pop\n    /* \"#utility.yul\":5816:6267   */\ntag_110:\n    /* \"#utility.yul\":6298:6302   */\n  dup1\n    /* \"#utility.yul\":6292:6296   */\n  dup2\n    /* \"#utility.yul\":6288:6303   */\n  mul\n    /* \"#utility.yul\":6280:6303   */\n  swap1\n  pop\n    /* \"#utility.yul\":6328:6360   */\n  tag_111\n    /* \"#utility.yul\":6351:6359   */\n  dup6\n    /* \"#utility.yul\":6328:6360   */\n  tag_35\n  jump\t// in\ntag_111:\n    /* \"#utility.yul\":6316:6360   */\n  swap5\n  pop\n    /* \"#utility.yul\":5658:6370   */\n  jump(tag_105)\ntag_107:\n    /* \"#utility.yul\":5528:6376   */\n  swap5\n  pop\n  swap5\n  swap3\n  pop\n  pop\n  pop\n  jump\t// out\n    /* \"#utility.yul\":6382:7455   */\ntag_37:\n    /* \"#utility.yul\":6436:6441   */\n  0x00\n    /* \"#utility.yul\":6627:6635   */\n  dup3\n    /* \"#utility.yul\":6617:6657   */\n  tag_113\n  jumpi\n    /* \"#utility.yul\":6648:6649   */\n  0x01\n    /* \"#utility.yul\":6639:6649   */\n  swap1\n  pop\n    /* \"#utility.yul\":6650:6655   */\n  jump(tag_112)\n    /* \"#utility.yul\":6617:6657   */\ntag_113:\n    /* \"#utility.yul\":6676:6680   */\n  dup2\n    /* \"#utility.yul\":6666:6702   */\n  tag_114\n  jumpi\n    /* \"#utility.yul\":6693:6694   */\n  0x00\n    /* \"#utility.yul\":6684:6694   */\n  swap1\n  pop\n    /* \"#utility.yul\":6695:6700   */\n  jump(tag_112)\n    /* \"#utility.yul\":6666:6702   */\ntag_114:\n    /* \"#utility.yul\":6762:6766   */\n  dup2\n    /* \"#utility.yul\":6810:6811   */\n  0x01\n    /* \"#utility.yul\":6805:6832   */\n  dup2\n  eq\n  tag_116\n  jumpi\n    /* \"#utility.yul\":6846:6847   */\n  0x02\n    /* \"#utility.yul\":6841:7032   */\n  dup2\n  eq\n  tag_117\n  jumpi\n    /* \"#utility.yul\":6755:7032   */\n  jump(tag_115)\n    /* \"#utility.yul\":6805:6832   */\ntag_116:\n    /* \"#utility.yul\":6823:6824   */\n  0x01\n    /* \"#utility.yul\":6814:6824   */\n  swap2\n  pop\n    /* \"#utility.yul\":6825:6830   */\n  pop\n  jump(tag_112)\n    /* \"#utility.yul\":6841:7032   */\ntag_117:\n    /* \"#utility.yul\":6886:6889   */\n  0xff\n    /* \"#utility.yul\":6876:6884   */\n  dup5\n    /* \"#utility.yul\":6873:6890   */\n  gt\n    /* \"#utility.yul\":6870:6913   */\n  iszero\n  tag_118\n  jumpi\n    /* \"#utility.yul\":6893:6911   */\n  tag_119\n  tag_34\n  jump\t// in\ntag_119:\n    /* \"#utility.yul\":6870:6913   */\ntag_118:\n    /* \"#utility.yul\":6942:6950   */\n  dup4\n    /* \"#utility.yul\":6939:6940   */\n  0x02\n    /* \"#utility.yul\":6935:6951   */\n  exp\n    /* \"#utility.yul\":6926:6951   */\n  swap2\n  pop\n    /* \"#utility.yul\":6977:6980   */\n  dup5\n    /* \"#utility.yul\":6970:6975   */\n  dup3\n    /* \"#utility.yul\":6967:6981   */\n  gt\n    /* \"#utility.yul\":6964:7004   */\n  iszero\n  tag_120\n  jumpi\n    /* \"#utility.yul\":6984:7002   */\n  tag_121\n  tag_34\n  jump\t// in\ntag_121:\n    /* \"#utility.yul\":6964:7004   */\ntag_120:\n    /* \"#utility.yul\":7017:7022   */\n  pop\n  jump(tag_112)\n    /* \"#utility.yul\":6755:7032   */\ntag_115:\n  pop\n    /* \"#utility.yul\":7141:7143   */\n  0x20\n    /* \"#utility.yul\":7131:7139   */\n  dup4\n    /* \"#utility.yul\":7128:7144   */\n  lt\n    /* \"#utility.yul\":7122:7125   */\n  0x0133\n    /* \"#utility.yul\":7116:7120   */\n  dup4\n    /* \"#utility.yul\":7113:7126   */\n  lt\n    /* \"#utility.yul\":7109:7145   */\n  and\n    /* \"#utility.yul\":7091:7093   */\n  0x4e\n    /* \"#utility.yul\":7081:7089   */\n  dup5\n    /* \"#utility.yul\":7078:7094   */\n  lt\n    /* \"#utility.yul\":7073:7075   */\n  0x0b\n    /* \"#utility.yul\":7067:7071   */\n  dup5\n    /* \"#utility.yul\":7064:7076   */\n  lt\n    /* \"#utility.yul\":7060:7095   */\n  and\n    /* \"#utility.yul\":7044:7155   */\n  or\n    /* \"#utility.yul\":7041:7287   */\n  iszero\n  tag_122\n  jumpi\n    /* \"#utility.yul\":7197:7205   */\n  dup3\n    /* \"#utility.yul\":7191:7195   */\n  dup3\n    /* \"#utility.yul\":7187:7206   */\n  exp\n    /* \"#utility.yul\":7178:7206   */\n  swap1\n  pop\n    /* \"#utility.yul\":7232:7235   */\n  dup4\n    /* \"#utility.yul\":7225:7230   */\n  dup2\n    /* \"#utility.yul\":7222:7236   */\n  gt\n    /* \"#utility.yul\":7219:7259   */\n  iszero\n  tag_123\n  jumpi\n    /* \"#utility.yul\":7239:7257   */\n  tag_124\n  tag_34\n  jump\t// in\ntag_124:\n    /* \"#utility.yul\":7219:7259   */\ntag_123:\n    /* \"#utility.yul\":7272:7277   */\n  jump(tag_112)\n    /* \"#utility.yul\":7041:7287   */\ntag_122:\n    /* \"#utility.yul\":7312:7354   */\n  tag_125\n    /* \"#utility.yul\":7350:7353   */\n  dup5\n    /* \"#utility.yul\":7340:7348   */\n  dup5\n    /* \"#utility.yul\":7334:7338   */\n  dup5\n    /* \"#utility.yul\":7331:7332   */\n  0x01\n    /* \"#utility.yul\":7312:7354   */\n  tag_36\n  jump\t// in\ntag_125:\n    /* \"#utility.yul\":7297:7354   */\n  swap3\n  pop\n  swap1\n  pop\n    /* \"#utility.yul\":7386:7390   */\n  dup2\n    /* \"#utility.yul\":7381:7384   */\n  dup5\n    /* \"#utility.yul\":7377:7391   */\n  div\n    /* \"#utility.yul\":7370:7375   */\n  dup2\n    /* \"#utility.yul\":7367:7392   */\n  gt\n    /* \"#utility.yul\":7364:7415   */\n  iszero\n  tag_126\n  jumpi\n    /* \"#utility.yul\":7395:7413   */\n  tag_127\n  tag_34\n  jump\t// in\ntag_127:\n    /* \"#utility.yul\":7364:7415   */\ntag_126:\n    /* \"#utility.yul\":7444:7448   */\n  dup2\n    /* \"#utility.yul\":7437:7442   */\n  dup2\n    /* \"#utility.yul\":7433:7449   */\n  mul\n    /* \"#utility.yul\":7424:7449   */\n  swap1\n  pop\n    /* \"#utility.yul\":6382:7455   */\ntag_112:\n  swap4\n  swap3\n  pop\n  pop\n  pop\n  jump\t// out\n    /* \"#utility.yul\":7461:7547   */\ntag_38:\n    /* \"#utility.yul\":7496:7503   */\n  0x00\n    /* \"#utility.yul\":7536:7540   */\n  0xff\n    /* \"#utility.yul\":7529:7534   */\n  dup3\n    /* \"#utility.yul\":7525:7541   */\n  and\n    /* \"#utility.yul\":7514:7541   */\n  swap1\n  pop\n    /* \"#utility.yul\":7461:7547   */\n  swap2\n  swap1\n  pop\n  jump\t// out\n    /* \"#utility.yul\":7553:7834   */\ntag_8:\n    /* \"#utility.yul\":7611:7616   */\n  0x00\n    /* \"#utility.yul\":7635:7658   */\n  tag_130\n    /* \"#utility.yul\":7653:7657   */\n  dup3\n    /* \"#utility.yul\":7635:7658   */\n  tag_22\n  jump\t// in\ntag_130:\n    /* \"#utility.yul\":7627:7658   */\n  swap2\n  pop\n    /* \"#utility.yul\":7679:7704   */\n  tag_131\n    /* \"#utility.yul\":7695:7703   */\n  dup4\n    /* \"#utility.yul\":7679:7704   */\n  tag_38\n  jump\t// in\ntag_131:\n    /* \"#utility.yul\":7667:7704   */\n  swap3\n  pop\n    /* \"#utility.yul\":7723:7827   */\n  tag_132\n    /* \"#utility.yul\":7760:7826   */\n  0xffffffffffffffffffffffffffffffffffffffffffffffffffffffffffffffff\n    /* \"#utility.yul\":7750:7758   */\n  dup5\n    /* \"#utility.yul\":7744:7748   */\n  dup5\n    /* \"#utility.yul\":7723:7827   */\n  tag_37\n  jump\t// in\ntag_132:\n    /* \"#utility.yul\":7714:7827   */\n  swap1\n  pop\n    /* \"#utility.yul\":7553:7834   */\n  swap3\n  swap2\n  pop\n  pop\n  jump\t// out\n    /* \"#utility.yul\":7840:8250   */\ntag_10:\n    /* \"#utility.yul\":7880:7887   */\n  0x00\n    /* \"#utility.yul\":7903:7923   */\n  tag_134\n    /* \"#utility.yul\":7921:7922   */\n  dup3\n    /* \"#utility.yul\":7903:7923   */\n  tag_22\n  jump\t// in\ntag_134:\n    /* \"#utility.yul\":7898:7923   */\n  swap2\n  pop\n    /* \"#utility.yul\":7937:7957   */\n  tag_135\n    /* \"#utility.yul\":7955:7956   */\n  dup4\n    /* \"#utility.yul\":7937:7957   */\n  tag_22\n  jump\t// in\ntag_135:\n    /* \"#utility.yul\":7932:7957   */\n  swap3\n  pop\n    /* \"#utility.yul\":7992:7993   */\n  dup3\n    /* \"#utility.yul\":7989:7990   */\n  dup3\n    /* \"#utility.yul\":7985:7994   */\n  mul\n    /* \"#utility.yul\":8014:8044   */\n  tag_136\n    /* \"#utility.yul\":8032:8043   */\n  dup2\n    /* \"#utility.yul\":8014:8044   */\n  tag_22\n  jump\t// in\ntag_136:\n    /* \"#utility.yul\":8003:8044   */\n  swap2\n  pop\n    /* \"#utility.yul\":8193:8194   */\n  dup3\n    /* \"#utility.yul\":8184:8191   */\n  dup3\n    /* \"#utility.yul\":8180:8195   */\n  div\n    /* \"#utility.yul\":8177:8178   */\n  dup5\n    /* \"#utility.yul\":8174:8196   */\n  eq\n    /* \"#utility.yul\":8154:8155   */\n  dup4\n    /* \"#utility.yul\":8147:8156   */\n  iszero\n    /* \"#utility.yul\":8127:8210   */\n  or\n    /* \"#utility.yul\":8104:8243   */\n  tag_137\n  jumpi\n    /* \"#utility.yul\":8223:8241   */\n  tag_138\n  tag_34\n  jump\t// in\ntag_138:\n    /* \"#utility.yul\":8104:8243   */\ntag_137:\n    /* \"#utility.yul\":7888:8250   */\n  pop\n    /* \"#utility.yul\":7840:8250   */\n  swap3\n  swap2\n  pop\n  pop\n  jump\t// out\n    /* \"#utility.yul\":8256:8374   */\ntag_39:\n    /* \"#utility.yul\":8343:8367   */\n  tag_140\n    /* \"#utility.yul\":8361:8366   */\n  dup2\n    /* \"#utility.yul\":8343:8367   */\n  tag_22\n  jump\t// in\ntag_140:\n    /* \"#utility.yul\":8338:8341   */\n  dup3\n    /* \"#utility.yul\":8331:8368   */\n  mstore\n    /* \"#utility.yul\":8256:8374   */\n  pop\n  pop\n  jump\t// out\n    /* \"#utility.yul\":8380:8602   */\ntag_12:\n    /* \"#utility.yul\":8473:8477   */\n  0x00\n    /* \"#utility.yul\":8511:8513   */\n  0x20\n    /* \"#utility.yul\":8500:8509   */\n  dup3\n    /* \"#utility.yul\":8496:8514   */\n  add\n    /* \"#utility.yul\":8488:8514   */\n  swap1\n  pop\n    /* \"#utility.yul\":8524:8595   */\n  tag_142\n    /* \"#utility.yul\":8592:8593   */\n  0x00\n    /* \"#utility.yul\":8581:8590   */\n  dup4\n    /* \"#utility.yul\":8577:8594   */\n  add\n    /* \"#utility.yul\":8568:8574   */\n  dup5\n    /* \"#utility.yul\":8524:8595   */\n  tag_39\n  jump\t// in\ntag_142:\n    /* \"#utility.yul\":8380:8602   */\n  swap3\n  swap2\n  pop\n  pop\n  jump\t// out\n    /* \"lesson/lesson05/TokenWithMintBurn.sol\":61:2945  contract TokenWithMintBurn{... */\ntag_13:\n  dataSize(sub_0)\n  dup1\n  dataOffset(sub_0)\n  0x00\n  codecopy\n  0x00\n  return\nstop\n\nsub_0: assembly {\n        /* \"lesson/lesson05/TokenWithMintBurn.sol\":61:2945  contract TokenWithMintBurn{... */\n      mstore(0x40, 0x80)\n      callvalue\n      dup1\n      iszero\n      tag_1\n      jumpi\n      revert(0x00, 0x00)\n    tag_1:\n      pop\n      jumpi(tag_2, lt(calldatasize, 0x04))\n      shr(0xe0, calldataload(0x00))\n      dup1\n      0x23b872dd\n      eq\n      tag_3\n      jumpi\n      dup1\n      0x40c10f19\n      eq\n      tag_4\n      jumpi\n      dup1\n      0x42966c68\n      eq\n      tag_5\n      jumpi\n      dup1\n      0x75247a58\n      eq\n      tag_6\n      jumpi\n      dup1\n      0x8da5cb5b\n      eq\n      tag_7\n      jumpi\n      dup1\n      0xa9059cbb\n      eq\n      tag_8\n      jumpi\n    tag_2:\n      revert(0x00, 0x00)\n        /* \"lesson/lesson05/TokenWithMintBurn.sol\":1563:2048  function transferFrom(address from, address to, uint256 amount) public returns(bool) {... */\n    tag_3:\n      tag_9\n      0x04\n      dup1\n      calldatasize\n      sub\n      dup2\n      add\n      swap1\n      tag_10\n      swap2\n      swap1\n      tag_11\n      jump\t// in\n    tag_10:\n      tag_12\n      jump\t// in\n    tag_9:\n      mload(0x40)\n      tag_13\n      swap2\n      swap1\n      tag_14\n      jump\t// in\n    tag_13:\n      mload(0x40)\n      dup1\n      swap2\n      sub\n      swap1\n      return\n        /* \"lesson/lesson05/TokenWithMintBurn.sol\":2071:2294  function mint(address to, uint256 amount) public onlyOwner {... */\n    tag_4:\n      tag_15\n      0x04\n      dup1\n      calldatasize\n      sub\n      dup2\n      add\n      swap1\n      tag_16\n      swap2\n      swap1\n      tag_17\n      jump\t// in\n    tag_16:\n      tag_18\n      jump\t// in\n    tag_15:\n      stop\n        /* \"lesson/lesson05/TokenWithMintBurn.sol\":2317:2567  function burn(uint256 amount) public  {... */\n    tag_5:\n      tag_19\n      0x04\n      dup1\n      calldatasize\n      sub\n      dup2\n      add\n      swap1\n      tag_20\n      swap2\n      swap1\n      tag_21\n      jump\t// in\n    tag_20:\n      tag_22\n      jump\t// in\n    tag_19:\n      stop\n        /* \"lesson/lesson05/TokenWithMintBurn.sol\":1304:1555  function approval(address spender, uint256 amount) public returns(bool){... */\n    tag_6:\n      tag_23\n      0x04\n      dup1\n      calldatasize\n      sub\n      dup2\n      add\n      swap1\n      tag_24\n      swap2\n      swap1\n      tag_17\n      jump\t// in\n    tag_24:\n      tag_25\n      jump\t// in\n    tag_23:\n      mload(0x40)\n      tag_26\n      swap2\n      swap1\n      tag_14\n      jump\t// in\n    tag_26:\n      mload(0x40)\n      dup1\n      swap2\n      sub\n      swap1\n      return\n        /* \"lesson/lesson05/TokenWithMintBurn.sol\":424:444  address public owner */\n    tag_7:\n      tag_27\n      tag_28\n      jump\t// in\n    tag_27:\n      mload(0x40)\n      tag_29\n      swap2\n      swap1\n      tag_30\n      jump\t// in\n    tag_29:\n      mload(0x40)\n      dup1\n      swap2\n      sub\n      swap1\n      return\n        /* \"lesson/lesson05/TokenWithMintBurn.sol\":958:1281  function transfer(address to, uint256 amount) public returns(bool) {... */\n    tag_8:\n      tag_31\n      0x04\n      dup1\n      calldatasize\n      sub\n      dup2\n      add\n      swap1\n      tag_32\n      swap2\n      swap1\n      tag_17\n      jump\t// in\n    tag_32:\n      tag_33\n      jump\t// in\n    tag_31:\n      mload(0x40)\n      tag_34\n      swap2\n      swap1\n      tag_14\n      jump\t// in\n    tag_34:\n      mload(0x40)\n      dup1\n      swap2\n      sub\n      swap1\n      return\n        /* \"lesson/lesson05/TokenWithMintBurn.sol\":1563:2048  function transferFrom(address from, address to, uint256 amount) public returns(bool) {... */\n    tag_12:\n        /* \"lesson/lesson05/TokenWithMintBurn.sol\":1642:1646  bool */\n      0x00\n        /* \"lesson/lesson05/TokenWithMintBurn.sol\":1659:1685  checkAddress(from, \"From\") */\n      tag_36\n        /* \"lesson/lesson05/TokenWithMintBurn.sol\":1672:1676  from */\n      dup5\n        /* \"lesson/lesson05/TokenWithMintBurn.sol\":1659:1685  checkAddress(from, \"From\") */\n      mload(0x40)\n      dup1\n      0x40\n      add\n      0x40\n      mstore\n      dup1\n      0x04\n      dup2\n      mstore\n      0x20\n      add\n      0x46726f6d00000000000000000000000000000000000000000000000000000000\n      dup2\n      mstore\n      pop\n        /* \"lesson/lesson05/TokenWithMintBurn.sol\":1659:1671  checkAddress */\n      tag_37\n        /* \"lesson/lesson05/TokenWithMintBurn.sol\":1659:1685  checkAddress(from, \"From\") */\n      jump\t// in\n    tag_36:\n        /* \"lesson/lesson05/TokenWithMintBurn.sol\":1696:1718  checkAddress(to, \"To\") */\n      tag_38\n        /* \"lesson/lesson05/TokenWithMintBurn.sol\":1709:1711  to */\n      dup4\n        /* \"lesson/lesson05/TokenWithMintBurn.sol\":1696:1718  checkAddress(to, \"To\") */\n      mload(0x40)\n      dup1\n      0x40\n      add\n      0x40\n      mstore\n      dup1\n      0x02\n      dup2\n      mstore\n      0x20\n      add\n      0x546f000000000000000000000000000000000000000000000000000000000000\n      dup2\n      mstore\n      pop\n        /* \"lesson/lesson05/TokenWithMintBurn.sol\":1696:1708  checkAddress */\n      tag_37\n        /* \"lesson/lesson05/TokenWithMintBurn.sol\":1696:1718  checkAddress(to, \"To\") */\n      jump\t// in\n    tag_38:\n        /* \"lesson/lesson05/TokenWithMintBurn.sol\":1731:1779  checkBalance(balanceOf[from], amount, \"balance\") */\n      tag_39\n        /* \"lesson/lesson05/TokenWithMintBurn.sol\":1744:1753  balanceOf */\n      0x03\n        /* \"lesson/lesson05/TokenWithMintBurn.sol\":1744:1759  balanceOf[from] */\n      0x00\n        /* \"lesson/lesson05/TokenWithMintBurn.sol\":1754:1758  from */\n      dup7\n        /* \"lesson/lesson05/TokenWithMintBurn.sol\":1744:1759  balanceOf[from] */\n      0xffffffffffffffffffffffffffffffffffffffff\n      and\n      0xffffffffffffffffffffffffffffffffffffffff\n      and\n      dup2\n      mstore\n      0x20\n      add\n      swap1\n      dup2\n      mstore\n      0x20\n      add\n      0x00\n      keccak256\n      sload\n        /* \"lesson/lesson05/TokenWithMintBurn.sol\":1761:1767  amount */\n      dup4\n        /* \"lesson/lesson05/TokenWithMintBurn.sol\":1731:1779  checkBalance(balanceOf[from], amount, \"balance\") */\n      mload(0x40)\n      dup1\n      0x40\n      add\n      0x40\n      mstore\n      dup1\n      0x07\n      dup2\n      mstore\n      0x20\n      add\n      0x62616c616e636500000000000000000000000000000000000000000000000000\n      dup2\n      mstore\n      pop\n        /* \"lesson/lesson05/TokenWithMintBurn.sol\":1731:1743  checkBalance */\n      tag_40\n        /* \"lesson/lesson05/TokenWithMintBurn.sol\":1731:1779  checkBalance(balanceOf[from], amount, \"balance\") */\n      jump\t// in\n    tag_39:\n        /* \"lesson/lesson05/TokenWithMintBurn.sol\":1790:1852  checkBalance(allowance[from][msg.sender], amount, \"allownace\") */\n      tag_41\n        /* \"lesson/lesson05/TokenWithMintBurn.sol\":1803:1812  allowance */\n      0x04\n        /* \"lesson/lesson05/TokenWithMintBurn.sol\":1803:1818  allowance[from] */\n      0x00\n        /* \"lesson/lesson05/TokenWithMintBurn.sol\":1813:1817  from */\n      dup7\n        /* \"lesson/lesson05/TokenWithMintBurn.sol\":1803:1818  allowance[from] */\n      0xffffffffffffffffffffffffffffffffffffffff\n      and\n      0xffffffffffffffffffffffffffffffffffffffff\n      and\n      dup2\n      mstore\n      0x20\n      add\n      swap1\n      dup2\n      mstore\n      0x20\n      add\n      0x00\n      keccak256\n        /* \"lesson/lesson05/TokenWithMintBurn.sol\":1803:1830  allowance[from][msg.sender] */\n      0x00\n        /* \"lesson/lesson05/TokenWithMintBurn.sol\":1819:1829  msg.sender */\n      caller\n        /* \"lesson/lesson05/TokenWithMintBurn.sol\":1803:1830  allowance[from][msg.sender] */\n      0xffffffffffffffffffffffffffffffffffffffff\n      and\n      0xffffffffffffffffffffffffffffffffffffffff\n      and\n      dup2\n      mstore\n      0x20\n      add\n      swap1\n      dup2\n      mstore\n      0x20\n      add\n      0x00\n      keccak256\n      sload\n        /* \"lesson/lesson05/TokenWithMintBurn.sol\":1832:1838  amount */\n      dup4\n        /* \"lesson/lesson05/TokenWithMintBurn.sol\":1790:1852  checkBalance(allowance[from][msg.sender], amount, \"allownace\") */\n      mload(0x40)\n      dup1\n      0x40\n      add\n      0x40\n      mstore\n      dup1\n      0x09\n      dup2\n      mstore\n      0x20\n      add\n      0x616c6c6f776e6163650000000000000000000000000000000000000000000000\n      dup2\n      mstore\n      pop\n        /* \"lesson/lesson05/TokenWithMintBurn.sol\":1790:1802  checkBalance */\n      tag_40\n        /* \"lesson/lesson05/TokenWithMintBurn.sol\":1790:1852  checkBalance(allowance[from][msg.sender], amount, \"allownace\") */\n      jump\t// in\n    tag_41:\n        /* \"lesson/lesson05/TokenWithMintBurn.sol\":1884:1890  amount */\n      dup2\n        /* \"lesson/lesson05/TokenWithMintBurn.sol\":1865:1874  balanceOf */\n      0x03\n        /* \"lesson/lesson05/TokenWithMintBurn.sol\":1865:1880  balanceOf[from] */\n      0x00\n        /* \"lesson/lesson05/TokenWithMintBurn.sol\":1875:1879  from */\n      dup7\n        /* \"lesson/lesson05/TokenWithMintBurn.sol\":1865:1880  balanceOf[from] */\n      0xffffffffffffffffffffffffffffffffffffffff\n      and\n      0xffffffffffffffffffffffffffffffffffffffff\n      and\n      dup2\n      mstore\n      0x20\n      add\n      swap1\n      dup2\n      mstore\n      0x20\n      add\n      0x00\n      keccak256\n      0x00\n        /* \"lesson/lesson05/TokenWithMintBurn.sol\":1865:1890  balanceOf[from] -= amount */\n      dup3\n      dup3\n      sload\n      tag_42\n      swap2\n      swap1\n      tag_43\n      jump\t// in\n    tag_42:\n      swap3\n      pop\n      pop\n      dup2\n      swap1\n      sstore\n      pop\n        /* \"lesson/lesson05/TokenWithMintBurn.sol\":1918:1924  amount */\n      dup2\n        /* \"lesson/lesson05/TokenWithMintBurn.sol\":1901:1910  balanceOf */\n      0x03\n        /* \"lesson/lesson05/TokenWithMintBurn.sol\":1901:1914  balanceOf[to] */\n      0x00\n        /* \"lesson/lesson05/TokenWithMintBurn.sol\":1911:1913  to */\n      dup6\n        /* \"lesson/lesson05/TokenWithMintBurn.sol\":1901:1914  balanceOf[to] */\n      0xffffffffffffffffffffffffffffffffffffffff\n      and\n      0xffffffffffffffffffffffffffffffffffffffff\n      and\n      dup2\n      mstore\n      0x20\n      add\n      swap1\n      dup2\n      mstore\n      0x20\n      add\n      0x00\n      keccak256\n      0x00\n        /* \"lesson/lesson05/TokenWithMintBurn.sol\":1901:1924  balanceOf[to] += amount */\n      dup3\n      dup3\n      sload\n      tag_44\n      swap2\n      swap1\n      tag_45\n      jump\t// in\n    tag_44:\n      swap3\n      pop\n      pop\n      dup2\n      swap1\n      sstore\n      pop\n        /* \"lesson/lesson05/TokenWithMintBurn.sol\":1968:1974  amount */\n      dup2\n        /* \"lesson/lesson05/TokenWithMintBurn.sol\":1937:1946  allowance */\n      0x04\n        /* \"lesson/lesson05/TokenWithMintBurn.sol\":1937:1952  allowance[from] */\n      0x00\n        /* \"lesson/lesson05/TokenWithMintBurn.sol\":1947:1951  from */\n      dup7\n        /* \"lesson/lesson05/TokenWithMintBurn.sol\":1937:1952  allowance[from] */\n      0xffffffffffffffffffffffffffffffffffffffff\n      and\n      0xffffffffffffffffffffffffffffffffffffffff\n      and\n      dup2\n      mstore\n      0x20\n      add\n      swap1\n      dup2\n      mstore\n      0x20\n      add\n      0x00\n      keccak256\n        /* \"lesson/lesson05/TokenWithMintBurn.sol\":1937:1964  allowance[from][msg.sender] */\n      0x00\n        /* \"lesson/lesson05/TokenWithMintBurn.sol\":1953:1963  msg.sender */\n      caller\n        /* \"lesson/lesson05/TokenWithMintBurn.sol\":1937:1964  allowance[from][msg.sender] */\n      0xffffffffffffffffffffffffffffffffffffffff\n      and\n      0xffffffffffffffffffffffffffffffffffffffff\n      and\n      dup2\n      mstore\n      0x20\n      add\n      swap1\n      dup2\n      mstore\n      0x20\n      add\n      0x00\n      keccak256\n      0x00\n        /* \"lesson/lesson05/TokenWithMintBurn.sol\":1937:1974  allowance[from][msg.sender] -= amount */\n      dup3\n      dup3\n      sload\n      tag_46\n      swap2\n      swap1\n      tag_43\n      jump\t// in\n    tag_46:\n      swap3\n      pop\n      pop\n      dup2\n      swap1\n      sstore\n      pop\n        /* \"lesson/lesson05/TokenWithMintBurn.sol\":2007:2009  to */\n      dup3\n        /* \"lesson/lesson05/TokenWithMintBurn.sol\":1992:2018  Transfer(from, to, amount) */\n      0xffffffffffffffffffffffffffffffffffffffff\n      and\n        /* \"lesson/lesson05/TokenWithMintBurn.sol\":2001:2005  from */\n      dup5\n        /* \"lesson/lesson05/TokenWithMintBurn.sol\":1992:2018  Transfer(from, to, amount) */\n      0xffffffffffffffffffffffffffffffffffffffff\n      and\n      0xddf252ad1be2c89b69c2b068fc378daa952ba7f163c4a11628f55a4df523b3ef\n        /* \"lesson/lesson05/TokenWithMintBurn.sol\":2011:2017  amount */\n      dup5\n        /* \"lesson/lesson05/TokenWithMintBurn.sol\":1992:2018  Transfer(from, to, amount) */\n      mload(0x40)\n      tag_47\n      swap2\n      swap1\n      tag_48\n      jump\t// in\n    tag_47:\n      mload(0x40)\n      dup1\n      swap2\n      sub\n      swap1\n      log3\n        /* \"lesson/lesson05/TokenWithMintBurn.sol\":2036:2040  true */\n      0x01\n        /* \"lesson/lesson05/TokenWithMintBurn.sol\":2029:2040  return true */\n      swap1\n      pop\n        /* \"lesson/lesson05/TokenWithMintBurn.sol\":1563:2048  function transferFrom(address from, address to, uint256 amount) public returns(bool) {... */\n      swap4\n      swap3\n      pop\n      pop\n      pop\n      jump\t// out\n        /* \"lesson/lesson05/TokenWithMintBurn.sol\":2071:2294  function mint(address to, uint256 amount) public onlyOwner {... */\n    tag_18:\n        /* \"lesson/lesson05/TokenWithMintBurn.sol\":670:675  owner */\n      0x05\n      0x00\n      swap1\n      sload\n      swap1\n      0x0100\n      exp\n      swap1\n      div\n      0xffffffffffffffffffffffffffffffffffffffff\n      and\n        /* \"lesson/lesson05/TokenWithMintBurn.sol\":656:675  msg.sender == owner */\n      0xffffffffffffffffffffffffffffffffffffffff\n      and\n        /* \"lesson/lesson05/TokenWithMintBurn.sol\":656:666  msg.sender */\n      caller\n        /* \"lesson/lesson05/TokenWithMintBurn.sol\":656:675  msg.sender == owner */\n      0xffffffffffffffffffffffffffffffffffffffff\n      and\n      eq\n        /* \"lesson/lesson05/TokenWithMintBurn.sol\":648:704  require(msg.sender == owner, \"Only owner can call this\") */\n      tag_50\n      jumpi\n      mload(0x40)\n      0x08c379a000000000000000000000000000000000000000000000000000000000\n      dup2\n      mstore\n      0x04\n      add\n      tag_51\n      swap1\n      tag_52\n      jump\t// in\n    tag_51:\n      mload(0x40)\n      dup1\n      swap2\n      sub\n      swap1\n      revert\n    tag_50:\n        /* \"lesson/lesson05/TokenWithMintBurn.sol\":2141:2168  checkAddress(to, \"Mint to\") */\n      tag_54\n        /* \"lesson/lesson05/TokenWithMintBurn.sol\":2154:2156  to */\n      dup3\n        /* \"lesson/lesson05/TokenWithMintBurn.sol\":2141:2168  checkAddress(to, \"Mint to\") */\n      mload(0x40)\n      dup1\n      0x40\n      add\n      0x40\n      mstore\n      dup1\n      0x07\n      dup2\n      mstore\n      0x20\n      add\n      0x4d696e7420746f00000000000000000000000000000000000000000000000000\n      dup2\n      mstore\n      pop\n        /* \"lesson/lesson05/TokenWithMintBurn.sol\":2141:2153  checkAddress */\n      tag_37\n        /* \"lesson/lesson05/TokenWithMintBurn.sol\":2141:2168  checkAddress(to, \"Mint to\") */\n      jump\t// in\n    tag_54:\n        /* \"lesson/lesson05/TokenWithMintBurn.sol\":2196:2202  amount */\n      dup1\n        /* \"lesson/lesson05/TokenWithMintBurn.sol\":2181:2192  totalSupply */\n      0x02\n      0x00\n        /* \"lesson/lesson05/TokenWithMintBurn.sol\":2181:2202  totalSupply += amount */\n      dup3\n      dup3\n      sload\n      tag_55\n      swap2\n      swap1\n      tag_45\n      jump\t// in\n    tag_55:\n      swap3\n      pop\n      pop\n      dup2\n      swap1\n      sstore\n      pop\n        /* \"lesson/lesson05/TokenWithMintBurn.sol\":2230:2236  amount */\n      dup1\n        /* \"lesson/lesson05/TokenWithMintBurn.sol\":2213:2222  balanceOf */\n      0x03\n        /* \"lesson/lesson05/TokenWithMintBurn.sol\":2213:2226  balanceOf[to] */\n      0x00\n        /* \"lesson/lesson05/TokenWithMintBurn.sol\":2223:2225  to */\n      dup5\n        /* \"lesson/lesson05/TokenWithMintBurn.sol\":2213:2226  balanceOf[to] */\n      0xffffffffffffffffffffffffffffffffffffffff\n      and\n      0xffffffffffffffffffffffffffffffffffffffff\n      and\n      dup2\n      mstore\n      0x20\n      add\n      swap1\n      dup2\n      mstore\n      0x20\n      add\n      0x00\n      keccak256\n      0x00\n        /* \"lesson/lesson05/TokenWithMintBurn.sol\":2213:2236  balanceOf[to] += amount */\n      dup3\n      dup3\n      sload\n      tag_56\n      swap2\n      swap1\n      tag_45\n      jump\t// in\n    tag_56:\n      swap3\n      pop\n      pop\n      dup2\n      swap1\n      sstore\n      pop\n        /* \"lesson/lesson05/TokenWithMintBurn.sol\":2275:2277  to */\n      dup2\n        /* \"lesson/lesson05/TokenWithMintBurn.sol\":2254:2286  Transfer(address(0), to, amount) */\n      0xffffffffffffffffffffffffffffffffffffffff\n      and\n        /* \"lesson/lesson05/TokenWithMintBurn.sol\":2271:2272  0 */\n      0x00\n        /* \"lesson/lesson05/TokenWithMintBurn.sol\":2254:2286  Transfer(address(0), to, amount) */\n      0xffffffffffffffffffffffffffffffffffffffff\n      and\n      0xddf252ad1be2c89b69c2b068fc378daa952ba7f163c4a11628f55a4df523b3ef\n        /* \"lesson/lesson05/TokenWithMintBurn.sol\":2279:2285  amount */\n      dup4\n        /* \"lesson/lesson05/TokenWithMintBurn.sol\":2254:2286  Transfer(address(0), to, amount) */\n      mload(0x40)\n      tag_57\n      swap2\n      swap1\n      tag_48\n      jump\t// in\n    tag_57:\n      mload(0x40)\n      dup1\n      swap2\n      sub\n      swap1\n      log3\n        /* \"lesson/lesson05/TokenWithMintBurn.sol\":2071:2294  function mint(address to, uint256 amount) public onlyOwner {... */\n      pop\n      pop\n      jump\t// out\n        /* \"lesson/lesson05/TokenWithMintBurn.sol\":2317:2567  function burn(uint256 amount) public  {... */\n    tag_22:\n        /* \"lesson/lesson05/TokenWithMintBurn.sol\":2366:2425  checkBalance(balanceOf[msg.sender], amount, \"burn balance\") */\n      tag_59\n        /* \"lesson/lesson05/TokenWithMintBurn.sol\":2379:2388  balanceOf */\n      0x03\n        /* \"lesson/lesson05/TokenWithMintBurn.sol\":2379:2400  balanceOf[msg.sender] */\n      0x00\n        /* \"lesson/lesson05/TokenWithMintBurn.sol\":2389:2399  msg.sender */\n      caller\n        /* \"lesson/lesson05/TokenWithMintBurn.sol\":2379:2400  balanceOf[msg.sender] */\n      0xffffffffffffffffffffffffffffffffffffffff\n      and\n      0xffffffffffffffffffffffffffffffffffffffff\n      and\n      dup2\n      mstore\n      0x20\n      add\n      swap1\n      dup2\n      mstore\n      0x20\n      add\n      0x00\n      keccak256\n      sload\n        /* \"lesson/lesson05/TokenWithMintBurn.sol\":2402:2408  amount */\n      dup3\n        /* \"lesson/lesson05/TokenWithMintBurn.sol\":2366:2425  checkBalance(balanceOf[msg.sender], amount, \"burn balance\") */\n      mload(0x40)\n      dup1\n      0x40\n      add\n      0x40\n      mstore\n      dup1\n      0x0c\n      dup2\n      mstore\n      0x20\n      add\n      0x6275726e2062616c616e63650000000000000000000000000000000000000000\n      dup2\n      mstore\n      pop\n        /* \"lesson/lesson05/TokenWithMintBurn.sol\":2366:2378  checkBalance */\n      tag_40\n        /* \"lesson/lesson05/TokenWithMintBurn.sol\":2366:2425  checkBalance(balanceOf[msg.sender], amount, \"burn balance\") */\n      jump\t// in\n    tag_59:\n        /* \"lesson/lesson05/TokenWithMintBurn.sol\":2453:2459  amount */\n      dup1\n        /* \"lesson/lesson05/TokenWithMintBurn.sol\":2438:2449  totalSupply */\n      0x02\n      0x00\n        /* \"lesson/lesson05/TokenWithMintBurn.sol\":2438:2459  totalSupply -= amount */\n      dup3\n      dup3\n      sload\n      tag_60\n      swap2\n      swap1\n      tag_43\n      jump\t// in\n    tag_60:\n      swap3\n      pop\n      pop\n      dup2\n      swap1\n      sstore\n      pop\n        /* \"lesson/lesson05/TokenWithMintBurn.sol\":2495:2501  amount */\n      dup1\n        /* \"lesson/lesson05/TokenWithMintBurn.sol\":2470:2479  balanceOf */\n      0x03\n        /* \"lesson/lesson05/TokenWithMintBurn.sol\":2470:2491  balanceOf[msg.sender] */\n      0x00\n        /* \"lesson/lesson05/TokenWithMintBurn.sol\":2480:2490  msg.sender */\n      caller\n        /* \"lesson/lesson05/TokenWithMintBurn.sol\":2470:2491  balanceOf[msg.sender] */\n      0xffffffffffffffffffffffffffffffffffffffff\n      and\n      0xffffffffffffffffffffffffffffffffffffffff\n      and\n      dup2\n      mstore\n      0x20\n      add\n      swap1\n      dup2\n      mstore\n      0x20\n      add\n      0x00\n      keccak256\n      0x00\n        /* \"lesson/lesson05/TokenWithMintBurn.sol\":2470:2501  balanceOf[msg.sender] -= amount */\n      dup3\n      dup3\n      sload\n      tag_61\n      swap2\n      swap1\n      tag_43\n      jump\t// in\n    tag_61:\n      swap3\n      pop\n      pop\n      dup2\n      swap1\n      sstore\n      pop\n        /* \"lesson/lesson05/TokenWithMintBurn.sol\":2548:2549  0 */\n      0x00\n        /* \"lesson/lesson05/TokenWithMintBurn.sol\":2519:2559  Transfer(msg.sender, address(0), amount) */\n      0xffffffffffffffffffffffffffffffffffffffff\n      and\n        /* \"lesson/lesson05/TokenWithMintBurn.sol\":2528:2538  msg.sender */\n      caller\n        /* \"lesson/lesson05/TokenWithMintBurn.sol\":2519:2559  Transfer(msg.sender, address(0), amount) */\n      0xffffffffffffffffffffffffffffffffffffffff\n      and\n      0xddf252ad1be2c89b69c2b068fc378daa952ba7f163c4a11628f55a4df523b3ef\n        /* \"lesson/lesson05/TokenWithMintBurn.sol\":2552:2558  amount */\n      dup4\n        /* \"lesson/lesson05/TokenWithMintBurn.sol\":2519:2559  Transfer(msg.sender, address(0), amount) */\n      mload(0x40)\n      tag_62\n      swap2\n      swap1\n      tag_48\n      jump\t// in\n    tag_62:\n      mload(0x40)\n      dup1\n      swap2\n      sub\n      swap1\n      log3\n        /* \"lesson/lesson05/TokenWithMintBurn.sol\":2317:2567  function burn(uint256 amount) public  {... */\n      pop\n      jump\t// out\n        /* \"lesson/lesson05/TokenWithMintBurn.sol\":1304:1555  function approval(address spender, uint256 amount) public returns(bool){... */\n    tag_25:\n        /* \"lesson/lesson05/TokenWithMintBurn.sol\":1370:1374  bool */\n      0x00\n        /* \"lesson/lesson05/TokenWithMintBurn.sol\":1386:1418  checkAddress(spender, \"Spender\") */\n      tag_64\n        /* \"lesson/lesson05/TokenWithMintBurn.sol\":1399:1406  spender */\n      dup4\n        /* \"lesson/lesson05/TokenWithMintBurn.sol\":1386:1418  checkAddress(spender, \"Spender\") */\n      mload(0x40)\n      dup1\n      0x40\n      add\n      0x40\n      mstore\n      dup1\n      0x07\n      dup2\n      mstore\n      0x20\n      add\n      0x5370656e64657200000000000000000000000000000000000000000000000000\n      dup2\n      mstore\n      pop\n        /* \"lesson/lesson05/TokenWithMintBurn.sol\":1386:1398  checkAddress */\n      tag_37\n        /* \"lesson/lesson05/TokenWithMintBurn.sol\":1386:1418  checkAddress(spender, \"Spender\") */\n      jump\t// in\n    tag_64:\n        /* \"lesson/lesson05/TokenWithMintBurn.sol\":1464:1470  amount */\n      dup2\n        /* \"lesson/lesson05/TokenWithMintBurn.sol\":1431:1440  allowance */\n      0x04\n        /* \"lesson/lesson05/TokenWithMintBurn.sol\":1431:1452  allowance[msg.sender] */\n      0x00\n        /* \"lesson/lesson05/TokenWithMintBurn.sol\":1441:1451  msg.sender */\n      caller\n        /* \"lesson/lesson05/TokenWithMintBurn.sol\":1431:1452  allowance[msg.sender] */\n      0xffffffffffffffffffffffffffffffffffffffff\n      and\n      0xffffffffffffffffffffffffffffffffffffffff\n      and\n      dup2\n      mstore\n      0x20\n      add\n      swap1\n      dup2\n      mstore\n      0x20\n      add\n      0x00\n      keccak256\n        /* \"lesson/lesson05/TokenWithMintBurn.sol\":1431:1461  allowance[msg.sender][spender] */\n      0x00\n        /* \"lesson/lesson05/TokenWithMintBurn.sol\":1453:1460  spender */\n      dup6\n        /* \"lesson/lesson05/TokenWithMintBurn.sol\":1431:1461  allowance[msg.sender][spender] */\n      0xffffffffffffffffffffffffffffffffffffffff\n      and\n      0xffffffffffffffffffffffffffffffffffffffff\n      and\n      dup2\n      mstore\n      0x20\n      add\n      swap1\n      dup2\n      mstore\n      0x20\n      add\n      0x00\n      keccak256\n        /* \"lesson/lesson05/TokenWithMintBurn.sol\":1431:1470  allowance[msg.sender][spender] = amount */\n      dup2\n      swap1\n      sstore\n      pop\n        /* \"lesson/lesson05/TokenWithMintBurn.sol\":1509:1516  spender */\n      dup3\n        /* \"lesson/lesson05/TokenWithMintBurn.sol\":1488:1525  Approval(msg.sender, spender, amount) */\n      0xffffffffffffffffffffffffffffffffffffffff\n      and\n        /* \"lesson/lesson05/TokenWithMintBurn.sol\":1497:1507  msg.sender */\n      caller\n        /* \"lesson/lesson05/TokenWithMintBurn.sol\":1488:1525  Approval(msg.sender, spender, amount) */\n      0xffffffffffffffffffffffffffffffffffffffff\n      and\n      0x8c5be1e5ebec7d5bd14f71427d1e84f3dd0314c0f7b2291e5b200ac8c7c3b925\n        /* \"lesson/lesson05/TokenWithMintBurn.sol\":1518:1524  amount */\n      dup5\n        /* \"lesson/lesson05/TokenWithMintBurn.sol\":1488:1525  Approval(msg.sender, spender, amount) */\n      mload(0x40)\n      tag_65\n      swap2\n      swap1\n      tag_48\n      jump\t// in\n    tag_65:\n      mload(0x40)\n      dup1\n      swap2\n      sub\n      swap1\n      log3\n        /* \"lesson/lesson05/TokenWithMintBurn.sol\":1543:1547  true */\n      0x01\n        /* \"lesson/lesson05/TokenWithMintBurn.sol\":1536:1547  return true */\n      swap1\n      pop\n        /* \"lesson/lesson05/TokenWithMintBurn.sol\":1304:1555  function approval(address spender, uint256 amount) public returns(bool){... */\n      swap3\n      swap2\n      pop\n      pop\n      jump\t// out\n        /* \"lesson/lesson05/TokenWithMintBurn.sol\":424:444  address public owner */\n    tag_28:\n      0x05\n      0x00\n      swap1\n      sload\n      swap1\n      0x0100\n      exp\n      swap1\n      div\n      0xffffffffffffffffffffffffffffffffffffffff\n      and\n      dup2\n      jump\t// out\n        /* \"lesson/lesson05/TokenWithMintBurn.sol\":958:1281  function transfer(address to, uint256 amount) public returns(bool) {... */\n    tag_33:\n        /* \"lesson/lesson05/TokenWithMintBurn.sol\":1019:1023  bool */\n      0x00\n        /* \"lesson/lesson05/TokenWithMintBurn.sol\":1036:1058  checkAddress(to, \"TO\") */\n      tag_67\n        /* \"lesson/lesson05/TokenWithMintBurn.sol\":1049:1051  to */\n      dup4\n        /* \"lesson/lesson05/TokenWithMintBurn.sol\":1036:1058  checkAddress(to, \"TO\") */\n      mload(0x40)\n      dup1\n      0x40\n      add\n      0x40\n      mstore\n      dup1\n      0x02\n      dup2\n      mstore\n      0x20\n      add\n      0x544f000000000000000000000000000000000000000000000000000000000000\n      dup2\n      mstore\n      pop\n        /* \"lesson/lesson05/TokenWithMintBurn.sol\":1036:1048  checkAddress */\n      tag_37\n        /* \"lesson/lesson05/TokenWithMintBurn.sol\":1036:1058  checkAddress(to, \"TO\") */\n      jump\t// in\n    tag_67:\n        /* \"lesson/lesson05/TokenWithMintBurn.sol\":1069:1123  checkBalance(balanceOf[msg.sender], amount, \"balance\") */\n      tag_68\n        /* \"lesson/lesson05/TokenWithMintBurn.sol\":1082:1091  balanceOf */\n      0x03\n        /* \"lesson/lesson05/TokenWithMintBurn.sol\":1082:1103  balanceOf[msg.sender] */\n      0x00\n        /* \"lesson/lesson05/TokenWithMintBurn.sol\":1092:1102  msg.sender */\n      caller\n        /* \"lesson/lesson05/TokenWithMintBurn.sol\":1082:1103  balanceOf[msg.sender] */\n      0xffffffffffffffffffffffffffffffffffffffff\n      and\n      0xffffffffffffffffffffffffffffffffffffffff\n      and\n      dup2\n      mstore\n      0x20\n      add\n      swap1\n      dup2\n      mstore\n      0x20\n      add\n      0x00\n      keccak256\n      sload\n        /* \"lesson/lesson05/TokenWithMintBurn.sol\":1105:1111  amount */\n      dup4\n        /* \"lesson/lesson05/TokenWithMintBurn.sol\":1069:1123  checkBalance(balanceOf[msg.sender], amount, \"balance\") */\n      mload(0x40)\n      dup1\n      0x40\n      add\n      0x40\n      mstore\n      dup1\n      0x07\n      dup2\n      mstore\n      0x20\n      add\n      0x62616c616e636500000000000000000000000000000000000000000000000000\n      dup2\n      mstore\n      pop\n        /* \"lesson/lesson05/TokenWithMintBurn.sol\":1069:1081  checkBalance */\n      tag_40\n        /* \"lesson/lesson05/TokenWithMintBurn.sol\":1069:1123  checkBalance(balanceOf[msg.sender], amount, \"balance\") */\n      jump\t// in\n    tag_68:\n        /* \"lesson/lesson05/TokenWithMintBurn.sol\":1161:1167  amount */\n      dup2\n        /* \"lesson/lesson05/TokenWithMintBurn.sol\":1136:1145  balanceOf */\n      0x03\n        /* \"lesson/lesson05/TokenWithMintBurn.sol\":1136:1157  balanceOf[msg.sender] */\n      0x00\n        /* \"lesson/lesson05/TokenWithMintBurn.sol\":1146:1156  msg.sender */\n      caller\n        /* \"lesson/lesson05/TokenWithMintBurn.sol\":1136:1157  balanceOf[msg.sender] */\n      0xffffffffffffffffffffffffffffffffffffffff\n      and\n      0xffffffffffffffffffffffffffffffffffffffff\n      and\n      dup2\n      mstore\n      0x20\n      add\n      swap1\n      dup2\n      mstore\n      0x20\n      add\n      0x00\n      keccak256\n      0x00\n        /* \"lesson/lesson05/TokenWithMintBurn.sol\":1136:1167  balanceOf[msg.sender] -= amount */\n      dup3\n      dup3\n      sload\n      tag_69\n      swap2\n      swap1\n      tag_43\n      jump\t// in\n    tag_69:\n      swap3\n      pop\n      pop\n      dup2\n      swap1\n      sstore\n      pop\n        /* \"lesson/lesson05/TokenWithMintBurn.sol\":1195:1201  amount */\n      dup2\n        /* \"lesson/lesson05/TokenWithMintBurn.sol\":1178:1187  balanceOf */\n      0x03\n        /* \"lesson/lesson05/TokenWithMintBurn.sol\":1178:1191  balanceOf[to] */\n      0x00\n        /* \"lesson/lesson05/TokenWithMintBurn.sol\":1188:1190  to */\n      dup6\n        /* \"lesson/lesson05/TokenWithMintBurn.sol\":1178:1191  balanceOf[to] */\n      0xffffffffffffffffffffffffffffffffffffffff\n      and\n      0xffffffffffffffffffffffffffffffffffffffff\n      and\n      dup2\n      mstore\n      0x20\n      add\n      swap1\n      dup2\n      mstore\n      0x20\n      add\n      0x00\n      keccak256\n      0x00\n        /* \"lesson/lesson05/TokenWithMintBurn.sol\":1178:1201  balanceOf[to] += amount */\n      dup3\n      dup3\n      sload\n      tag_70\n      swap2\n      swap1\n      tag_45\n      jump\t// in\n    tag_70:\n      swap3\n      pop\n      pop\n      dup2\n      swap1\n      sstore\n      pop\n        /* \"lesson/lesson05/TokenWithMintBurn.sol\":1240:1242  to */\n      dup3\n        /* \"lesson/lesson05/TokenWithMintBurn.sol\":1219:1251  Transfer(msg.sender, to, amount) */\n      0xffffffffffffffffffffffffffffffffffffffff\n      and\n        /* \"lesson/lesson05/TokenWithMintBurn.sol\":1228:1238  msg.sender */\n      caller\n        /* \"lesson/lesson05/TokenWithMintBurn.sol\":1219:1251  Transfer(msg.sender, to, amount) */\n      0xffffffffffffffffffffffffffffffffffffffff\n      and\n      0xddf252ad1be2c89b69c2b068fc378daa952ba7f163c4a11628f55a4df523b3ef\n        /* \"lesson/lesson05/TokenWithMintBurn.sol\":1244:1250  amount */\n      dup5\n        /* \"lesson/lesson05/TokenWithMintBurn.sol\":1219:1251  Transfer(msg.sender, to, amount) */\n      mload(0x40)\n      tag_71\n      swap2\n      swap1\n      tag_48\n      jump\t// in\n    tag_71:\n      mload(0x40)\n      dup1\n      swap2\n      sub\n      swap1\n      log3\n        /* \"lesson/lesson05/TokenWithMintBurn.sol\":1269:1273  true */\n      0x01\n        /* \"lesson/lesson05/TokenWithMintBurn.sol\":1262:1273  return true */\n      swap1\n      pop\n        /* \"lesson/lesson05/TokenWithMintBurn.sol\":958:1281  function transfer(address to, uint256 amount) public returns(bool) {... */\n      swap3\n      swap2\n      pop\n      pop\n      jump\t// out\n        /* \"lesson/lesson05/TokenWithMintBurn.sol\":2576:2746  function checkAddress(address _addr, string memory _str) private pure {... */\n    tag_37:\n        /* \"lesson/lesson05/TokenWithMintBurn.sol\":2682:2683  0 */\n      0x00\n        /* \"lesson/lesson05/TokenWithMintBurn.sol\":2665:2684  _addr != address(0) */\n      0xffffffffffffffffffffffffffffffffffffffff\n      and\n        /* \"lesson/lesson05/TokenWithMintBurn.sol\":2665:2670  _addr */\n      dup3\n        /* \"lesson/lesson05/TokenWithMintBurn.sol\":2665:2684  _addr != address(0) */\n      0xffffffffffffffffffffffffffffffffffffffff\n      and\n      eq\n      iszero\n        /* \"lesson/lesson05/TokenWithMintBurn.sol\":2713:2717  _str */\n      dup2\n        /* \"lesson/lesson05/TokenWithMintBurn.sol\":2694:2736  bytes.concat(bytes(_str), \" zero address\") */\n      add(0x20, mload(0x40))\n      tag_73\n      swap2\n      swap1\n      tag_74\n      jump\t// in\n    tag_73:\n      mload(0x40)\n      0x20\n      dup2\n      dup4\n      sub\n      sub\n      dup2\n      mstore\n      swap1\n      0x40\n      mstore\n        /* \"lesson/lesson05/TokenWithMintBurn.sol\":2657:2738  require(_addr != address(0), string( bytes.concat(bytes(_str), \" zero address\"))) */\n      swap1\n      tag_75\n      jumpi\n      mload(0x40)\n      0x08c379a000000000000000000000000000000000000000000000000000000000\n      dup2\n      mstore\n      0x04\n      add\n      tag_76\n      swap2\n      swap1\n      tag_77\n      jump\t// in\n    tag_76:\n      mload(0x40)\n      dup1\n      swap2\n      sub\n      swap1\n      revert\n    tag_75:\n      pop\n        /* \"lesson/lesson05/TokenWithMintBurn.sol\":2576:2746  function checkAddress(address _addr, string memory _str) private pure {... */\n      pop\n      pop\n      jump\t// out\n        /* \"lesson/lesson05/TokenWithMintBurn.sol\":2754:2940  function checkBalance(uint256 balance, uint256 amount, string memory _str) private pure {... */\n    tag_40:\n        /* \"lesson/lesson05/TokenWithMintBurn.sol\":2872:2878  amount */\n      dup2\n        /* \"lesson/lesson05/TokenWithMintBurn.sol\":2861:2868  balance */\n      dup4\n        /* \"lesson/lesson05/TokenWithMintBurn.sol\":2861:2878  balance >= amount */\n      lt\n      iszero\n        /* \"lesson/lesson05/TokenWithMintBurn.sol\":2924:2928  _str */\n      dup2\n        /* \"lesson/lesson05/TokenWithMintBurn.sol\":2888:2930  bytes.concat(\"Insufficient \", bytes(_str)) */\n      add(0x20, mload(0x40))\n      tag_79\n      swap2\n      swap1\n      tag_80\n      jump\t// in\n    tag_79:\n      mload(0x40)\n      0x20\n      dup2\n      dup4\n      sub\n      sub\n      dup2\n      mstore\n      swap1\n      0x40\n      mstore\n        /* \"lesson/lesson05/TokenWithMintBurn.sol\":2853:2932  require(balance >= amount, string( bytes.concat(\"Insufficient \", bytes(_str)))) */\n      swap1\n      tag_81\n      jumpi\n      mload(0x40)\n      0x08c379a000000000000000000000000000000000000000000000000000000000\n      dup2\n      mstore\n      0x04\n      add\n      tag_82\n      swap2\n      swap1\n      tag_77\n      jump\t// in\n    tag_82:\n      mload(0x40)\n      dup1\n      swap2\n      sub\n      swap1\n      revert\n    tag_81:\n      pop\n        /* \"lesson/lesson05/TokenWithMintBurn.sol\":2754:2940  function checkBalance(uint256 balance, uint256 amount, string memory _str) private pure {... */\n      pop\n      pop\n      pop\n      jump\t// out\n        /* \"#utility.yul\":88:205   */\n    tag_84:\n        /* \"#utility.yul\":197:198   */\n      0x00\n        /* \"#utility.yul\":194:195   */\n      0x00\n        /* \"#utility.yul\":187:199   */\n      revert\n        /* \"#utility.yul\":334:460   */\n    tag_86:\n        /* \"#utility.yul\":371:378   */\n      0x00\n        /* \"#utility.yul\":411:453   */\n      0xffffffffffffffffffffffffffffffffffffffff\n        /* \"#utility.yul\":404:409   */\n      dup3\n        /* \"#utility.yul\":400:454   */\n      and\n        /* \"#utility.yul\":389:454   */\n      swap1\n      pop\n        /* \"#utility.yul\":334:460   */\n      swap2\n      swap1\n      pop\n      jump\t// out\n        /* \"#utility.yul\":466:562   */\n    tag_87:\n        /* \"#utility.yul\":503:510   */\n      0x00\n        /* \"#utility.yul\":532:556   */\n      tag_116\n        /* \"#utility.yul\":550:555   */\n      dup3\n        /* \"#utility.yul\":532:556   */\n      tag_86\n      jump\t// in\n    tag_116:\n        /* \"#utility.yul\":521:556   */\n      swap1\n      pop\n        /* \"#utility.yul\":466:562   */\n      swap2\n      swap1\n      pop\n      jump\t// out\n        /* \"#utility.yul\":568:690   */\n    tag_88:\n        /* \"#utility.yul\":641:665   */\n      tag_118\n        /* \"#utility.yul\":659:664   */\n      dup2\n        /* \"#utility.yul\":641:665   */\n      tag_87\n      jump\t// in\n    tag_118:\n        /* \"#utility.yul\":634:639   */\n      dup2\n        /* \"#utility.yul\":631:666   */\n      eq\n        /* \"#utility.yul\":621:684   */\n      tag_119\n      jumpi\n        /* \"#utility.yul\":680:681   */\n      0x00\n        /* \"#utility.yul\":677:678   */\n      0x00\n        /* \"#utility.yul\":670:682   */\n      revert\n        /* \"#utility.yul\":621:684   */\n    tag_119:\n        /* \"#utility.yul\":568:690   */\n      pop\n      jump\t// out\n        /* \"#utility.yul\":696:835   */\n    tag_89:\n        /* \"#utility.yul\":742:747   */\n      0x00\n        /* \"#utility.yul\":780:786   */\n      dup2\n        /* \"#utility.yul\":767:787   */\n      calldataload\n        /* \"#utility.yul\":758:787   */\n      swap1\n      pop\n        /* \"#utility.yul\":796:829   */\n      tag_121\n        /* \"#utility.yul\":823:828   */\n      dup2\n        /* \"#utility.yul\":796:829   */\n      tag_88\n      jump\t// in\n    tag_121:\n        /* \"#utility.yul\":696:835   */\n      swap3\n      swap2\n      pop\n      pop\n      jump\t// out\n        /* \"#utility.yul\":841:918   */\n    tag_90:\n        /* \"#utility.yul\":878:885   */\n      0x00\n        /* \"#utility.yul\":907:912   */\n      dup2\n        /* \"#utility.yul\":896:912   */\n      swap1\n      pop\n        /* \"#utility.yul\":841:918   */\n      swap2\n      swap1\n      pop\n      jump\t// out\n        /* \"#utility.yul\":924:1046   */\n    tag_91:\n        /* \"#utility.yul\":997:1021   */\n      tag_124\n        /* \"#utility.yul\":1015:1020   */\n      dup2\n        /* \"#utility.yul\":997:1021   */\n      tag_90\n      jump\t// in\n    tag_124:\n        /* \"#utility.yul\":990:995   */\n      dup2\n        /* \"#utility.yul\":987:1022   */\n      eq\n        /* \"#utility.yul\":977:1040   */\n      tag_125\n      jumpi\n        /* \"#utility.yul\":1036:1037   */\n      0x00\n        /* \"#utility.yul\":1033:1034   */\n      0x00\n        /* \"#utility.yul\":1026:1038   */\n      revert\n        /* \"#utility.yul\":977:1040   */\n    tag_125:\n        /* \"#utility.yul\":924:1046   */\n      pop\n      jump\t// out\n        /* \"#utility.yul\":1052:1191   */\n    tag_92:\n        /* \"#utility.yul\":1098:1103   */\n      0x00\n        /* \"#utility.yul\":1136:1142   */\n      dup2\n        /* \"#utility.yul\":1123:1143   */\n      calldataload\n        /* \"#utility.yul\":1114:1143   */\n      swap1\n      pop\n        /* \"#utility.yul\":1152:1185   */\n      tag_127\n        /* \"#utility.yul\":1179:1184   */\n      dup2\n        /* \"#utility.yul\":1152:1185   */\n      tag_91\n      jump\t// in\n    tag_127:\n        /* \"#utility.yul\":1052:1191   */\n      swap3\n      swap2\n      pop\n      pop\n      jump\t// out\n        /* \"#utility.yul\":1197:1816   */\n    tag_11:\n        /* \"#utility.yul\":1274:1280   */\n      0x00\n        /* \"#utility.yul\":1282:1288   */\n      0x00\n        /* \"#utility.yul\":1290:1296   */\n      0x00\n        /* \"#utility.yul\":1339:1341   */\n      0x60\n        /* \"#utility.yul\":1327:1336   */\n      dup5\n        /* \"#utility.yul\":1318:1325   */\n      dup7\n        /* \"#utility.yul\":1314:1337   */\n      sub\n        /* \"#utility.yul\":1310:1342   */\n      slt\n        /* \"#utility.yul\":1307:1426   */\n      iszero\n      tag_129\n      jumpi\n        /* \"#utility.yul\":1345:1424   */\n      tag_130\n      tag_84\n      jump\t// in\n    tag_130:\n        /* \"#utility.yul\":1307:1426   */\n    tag_129:\n        /* \"#utility.yul\":1465:1466   */\n      0x00\n        /* \"#utility.yul\":1490:1543   */\n      tag_131\n        /* \"#utility.yul\":1535:1542   */\n      dup7\n        /* \"#utility.yul\":1526:1532   */\n      dup3\n        /* \"#utility.yul\":1515:1524   */\n      dup8\n        /* \"#utility.yul\":1511:1533   */\n      add\n        /* \"#utility.yul\":1490:1543   */\n      tag_89\n      jump\t// in\n    tag_131:\n        /* \"#utility.yul\":1480:1543   */\n      swap4\n      pop\n        /* \"#utility.yul\":1436:1553   */\n      pop\n        /* \"#utility.yul\":1592:1594   */\n      0x20\n        /* \"#utility.yul\":1618:1671   */\n      tag_132\n        /* \"#utility.yul\":1663:1670   */\n      dup7\n        /* \"#utility.yul\":1654:1660   */\n      dup3\n        /* \"#utility.yul\":1643:1652   */\n      dup8\n        /* \"#utility.yul\":1639:1661   */\n      add\n        /* \"#utility.yul\":1618:1671   */\n      tag_89\n      jump\t// in\n    tag_132:\n        /* \"#utility.yul\":1608:1671   */\n      swap3\n      pop\n        /* \"#utility.yul\":1563:1681   */\n      pop\n        /* \"#utility.yul\":1720:1722   */\n      0x40\n        /* \"#utility.yul\":1746:1799   */\n      tag_133\n        /* \"#utility.yul\":1791:1798   */\n      dup7\n        /* \"#utility.yul\":1782:1788   */\n      dup3\n        /* \"#utility.yul\":1771:1780   */\n      dup8\n        /* \"#utility.yul\":1767:1789   */\n      add\n        /* \"#utility.yul\":1746:1799   */\n      tag_92\n      jump\t// in\n    tag_133:\n        /* \"#utility.yul\":1736:1799   */\n      swap2\n      pop\n        /* \"#utility.yul\":1691:1809   */\n      pop\n        /* \"#utility.yul\":1197:1816   */\n      swap3\n      pop\n      swap3\n      pop\n      swap3\n      jump\t// out\n        /* \"#utility.yul\":1822:1912   */\n    tag_93:\n        /* \"#utility.yul\":1856:1863   */\n      0x00\n        /* \"#utility.yul\":1899:1904   */\n      dup2\n        /* \"#utility.yul\":1892:1905   */\n      iszero\n        /* \"#utility.yul\":1885:1906   */\n      iszero\n        /* \"#utility.yul\":1874:1906   */\n      swap1\n      pop\n        /* \"#utility.yul\":1822:1912   */\n      swap2\n      swap1\n      pop\n      jump\t// out\n        /* \"#utility.yul\":1918:2027   */\n    tag_94:\n        /* \"#utility.yul\":1999:2020   */\n      tag_136\n        /* \"#utility.yul\":2014:2019   */\n      dup2\n        /* \"#utility.yul\":1999:2020   */\n      tag_93\n      jump\t// in\n    tag_136:\n        /* \"#utility.yul\":1994:1997   */\n      dup3\n        /* \"#utility.yul\":1987:2021   */\n      mstore\n        /* \"#utility.yul\":1918:2027   */\n      pop\n      pop\n      jump\t// out\n        /* \"#utility.yul\":2033:2243   */\n    tag_14:\n        /* \"#utility.yul\":2120:2124   */\n      0x00\n        /* \"#utility.yul\":2158:2160   */\n      0x20\n        /* \"#utility.yul\":2147:2156   */\n      dup3\n        /* \"#utility.yul\":2143:2161   */\n      add\n        /* \"#utility.yul\":2135:2161   */\n      swap1\n      pop\n        /* \"#utility.yul\":2171:2236   */\n      tag_138\n        /* \"#utility.yul\":2233:2234   */\n      0x00\n        /* \"#utility.yul\":2222:2231   */\n      dup4\n        /* \"#utility.yul\":2218:2235   */\n      add\n        /* \"#utility.yul\":2209:2215   */\n      dup5\n        /* \"#utility.yul\":2171:2236   */\n      tag_94\n      jump\t// in\n    tag_138:\n        /* \"#utility.yul\":2033:2243   */\n      swap3\n      swap2\n      pop\n      pop\n      jump\t// out\n        /* \"#utility.yul\":2249:2723   */\n    tag_17:\n        /* \"#utility.yul\":2317:2323   */\n      0x00\n        /* \"#utility.yul\":2325:2331   */\n      0x00\n        /* \"#utility.yul\":2374:2376   */\n      0x40\n        /* \"#utility.yul\":2362:2371   */\n      dup4\n        /* \"#utility.yul\":2353:2360   */\n      dup6\n        /* \"#utility.yul\":2349:2372   */\n      sub\n        /* \"#utility.yul\":2345:2377   */\n      slt\n        /* \"#utility.yul\":2342:2461   */\n      iszero\n      tag_140\n      jumpi\n        /* \"#utility.yul\":2380:2459   */\n      tag_141\n      tag_84\n      jump\t// in\n    tag_141:\n        /* \"#utility.yul\":2342:2461   */\n    tag_140:\n        /* \"#utility.yul\":2500:2501   */\n      0x00\n        /* \"#utility.yul\":2525:2578   */\n      tag_142\n        /* \"#utility.yul\":2570:2577   */\n      dup6\n        /* \"#utility.yul\":2561:2567   */\n      dup3\n        /* \"#utility.yul\":2550:2559   */\n      dup7\n        /* \"#utility.yul\":2546:2568   */\n      add\n        /* \"#utility.yul\":2525:2578   */\n      tag_89\n      jump\t// in\n    tag_142:\n        /* \"#utility.yul\":2515:2578   */\n      swap3\n      pop\n        /* \"#utility.yul\":2471:2588   */\n      pop\n        /* \"#utility.yul\":2627:2629   */\n      0x20\n        /* \"#utility.yul\":2653:2706   */\n      tag_143\n        /* \"#utility.yul\":2698:2705   */\n      dup6\n        /* \"#utility.yul\":2689:2695   */\n      dup3\n        /* \"#utility.yul\":2678:2687   */\n      dup7\n        /* \"#utility.yul\":2674:2696   */\n      add\n        /* \"#utility.yul\":2653:2706   */\n      tag_92\n      jump\t// in\n    tag_143:\n        /* \"#utility.yul\":2643:2706   */\n      swap2\n      pop\n        /* \"#utility.yul\":2598:2716   */\n      pop\n        /* \"#utility.yul\":2249:2723   */\n      swap3\n      pop\n      swap3\n      swap1\n      pop\n      jump\t// out\n        /* \"#utility.yul\":2729:3058   */\n    tag_21:\n        /* \"#utility.yul\":2788:2794   */\n      0x00\n        /* \"#utility.yul\":2837:2839   */\n      0x20\n        /* \"#utility.yul\":2825:2834   */\n      dup3\n        /* \"#utility.yul\":2816:2823   */\n      dup5\n        /* \"#utility.yul\":2812:2835   */\n      sub\n        /* \"#utility.yul\":2808:2840   */\n      slt\n        /* \"#utility.yul\":2805:2924   */\n      iszero\n      tag_145\n      jumpi\n        /* \"#utility.yul\":2843:2922   */\n      tag_146\n      tag_84\n      jump\t// in\n    tag_146:\n        /* \"#utility.yul\":2805:2924   */\n    tag_145:\n        /* \"#utility.yul\":2963:2964   */\n      0x00\n        /* \"#utility.yul\":2988:3041   */\n      tag_147\n        /* \"#utility.yul\":3033:3040   */\n      dup5\n        /* \"#utility.yul\":3024:3030   */\n      dup3\n        /* \"#utility.yul\":3013:3022   */\n      dup6\n        /* \"#utility.yul\":3009:3031   */\n      add\n        /* \"#utility.yul\":2988:3041   */\n      tag_92\n      jump\t// in\n    tag_147:\n        /* \"#utility.yul\":2978:3041   */\n      swap2\n      pop\n        /* \"#utility.yul\":2934:3051   */\n      pop\n        /* \"#utility.yul\":2729:3058   */\n      swap3\n      swap2\n      pop\n      pop\n      jump\t// out\n        /* \"#utility.yul\":3064:3182   */\n    tag_95:\n        /* \"#utility.yul\":3151:3175   */\n      tag_149\n        /* \"#utility.yul\":3169:3174   */\n      dup2\n        /* \"#utility.yul\":3151:3175   */\n      tag_87\n      jump\t// in\n    tag_149:\n        /* \"#utility.yul\":3146:3149   */\n      dup3\n        /* \"#utility.yul\":3139:3176   */\n      mstore\n        /* \"#utility.yul\":3064:3182   */\n      pop\n      pop\n      jump\t// out\n        /* \"#utility.yul\":3188:3410   */\n    tag_30:\n        /* \"#utility.yul\":3281:3285   */\n      0x00\n        /* \"#utility.yul\":3319:3321   */\n      0x20\n        /* \"#utility.yul\":3308:3317   */\n      dup3\n        /* \"#utility.yul\":3304:3322   */\n      add\n        /* \"#utility.yul\":3296:3322   */\n      swap1\n      pop\n        /* \"#utility.yul\":3332:3403   */\n      tag_151\n        /* \"#utility.yul\":3400:3401   */\n      0x00\n        /* \"#utility.yul\":3389:3398   */\n      dup4\n        /* \"#utility.yul\":3385:3402   */\n      add\n        /* \"#utility.yul\":3376:3382   */\n      dup5\n        /* \"#utility.yul\":3332:3403   */\n      tag_95\n      jump\t// in\n    tag_151:\n        /* \"#utility.yul\":3188:3410   */\n      swap3\n      swap2\n      pop\n      pop\n      jump\t// out\n        /* \"#utility.yul\":3416:3596   */\n    tag_96:\n        /* \"#utility.yul\":3464:3541   */\n      0x4e487b7100000000000000000000000000000000000000000000000000000000\n        /* \"#utility.yul\":3461:3462   */\n      0x00\n        /* \"#utility.yul\":3454:3542   */\n      mstore\n        /* \"#utility.yul\":3561:3565   */\n      0x11\n        /* \"#utility.yul\":3558:3559   */\n      0x04\n        /* \"#utility.yul\":3551:3566   */\n      mstore\n        /* \"#utility.yul\":3585:3589   */\n      0x24\n        /* \"#utility.yul\":3582:3583   */\n      0x00\n        /* \"#utility.yul\":3575:3590   */\n      revert\n        /* \"#utility.yul\":3602:3796   */\n    tag_43:\n        /* \"#utility.yul\":3642:3646   */\n      0x00\n        /* \"#utility.yul\":3662:3682   */\n      tag_154\n        /* \"#utility.yul\":3680:3681   */\n      dup3\n        /* \"#utility.yul\":3662:3682   */\n      tag_90\n      jump\t// in\n    tag_154:\n        /* \"#utility.yul\":3657:3682   */\n      swap2\n      pop\n        /* \"#utility.yul\":3696:3716   */\n      tag_155\n        /* \"#utility.yul\":3714:3715   */\n      dup4\n        /* \"#utility.yul\":3696:3716   */\n      tag_90\n      jump\t// in\n    tag_155:\n        /* \"#utility.yul\":3691:3716   */\n      swap3\n      pop\n        /* \"#utility.yul\":3740:3741   */\n      dup3\n        /* \"#utility.yul\":3737:3738   */\n      dup3\n        /* \"#utility.yul\":3733:3742   */\n      sub\n        /* \"#utility.yul\":3725:3742   */\n      swap1\n      pop\n        /* \"#utility.yul\":3764:3765   */\n      dup2\n        /* \"#utility.yul\":3758:3762   */\n      dup2\n        /* \"#utility.yul\":3755:3766   */\n      gt\n        /* \"#utility.yul\":3752:3789   */\n      iszero\n      tag_156\n      jumpi\n        /* \"#utility.yul\":3769:3787   */\n      tag_157\n      tag_96\n      jump\t// in\n    tag_157:\n        /* \"#utility.yul\":3752:3789   */\n    tag_156:\n        /* \"#utility.yul\":3602:3796   */\n      swap3\n      swap2\n      pop\n      pop\n      jump\t// out\n        /* \"#utility.yul\":3802:3993   */\n    tag_45:\n        /* \"#utility.yul\":3842:3845   */\n      0x00\n        /* \"#utility.yul\":3861:3881   */\n      tag_159\n        /* \"#utility.yul\":3879:3880   */\n      dup3\n        /* \"#utility.yul\":3861:3881   */\n      tag_90\n      jump\t// in\n    tag_159:\n        /* \"#utility.yul\":3856:3881   */\n      swap2\n      pop\n        /* \"#utility.yul\":3895:3915   */\n      tag_160\n        /* \"#utility.yul\":3913:3914   */\n      dup4\n        /* \"#utility.yul\":3895:3915   */\n      tag_90\n      jump\t// in\n    tag_160:\n        /* \"#utility.yul\":3890:3915   */\n      swap3\n      pop\n        /* \"#utility.yul\":3938:3939   */\n      dup3\n        /* \"#utility.yul\":3935:3936   */\n      dup3\n        /* \"#utility.yul\":3931:3940   */\n      add\n        /* \"#utility.yul\":3924:3940   */\n      swap1\n      pop\n        /* \"#utility.yul\":3959:3962   */\n      dup1\n        /* \"#utility.yul\":3956:3957   */\n      dup3\n        /* \"#utility.yul\":3953:3963   */\n      gt\n        /* \"#utility.yul\":3950:3986   */\n      iszero\n      tag_161\n      jumpi\n        /* \"#utility.yul\":3966:3984   */\n      tag_162\n      tag_96\n      jump\t// in\n    tag_162:\n        /* \"#utility.yul\":3950:3986   */\n    tag_161:\n        /* \"#utility.yul\":3802:3993   */\n      swap3\n      swap2\n      pop\n      pop\n      jump\t// out\n        /* \"#utility.yul\":3999:4117   */\n    tag_97:\n        /* \"#utility.yul\":4086:4110   */\n      tag_164\n        /* \"#utility.yul\":4104:4109   */\n      dup2\n        /* \"#utility.yul\":4086:4110   */\n      tag_90\n      jump\t// in\n    tag_164:\n        /* \"#utility.yul\":4081:4084   */\n      dup3\n        /* \"#utility.yul\":4074:4111   */\n      mstore\n        /* \"#utility.yul\":3999:4117   */\n      pop\n      pop\n      jump\t// out\n        /* \"#utility.yul\":4123:4345   */\n    tag_48:\n        /* \"#utility.yul\":4216:4220   */\n      0x00\n        /* \"#utility.yul\":4254:4256   */\n      0x20\n        /* \"#utility.yul\":4243:4252   */\n      dup3\n        /* \"#utility.yul\":4239:4257   */\n      add\n        /* \"#utility.yul\":4231:4257   */\n      swap1\n      pop\n        /* \"#utility.yul\":4267:4338   */\n      tag_166\n        /* \"#utility.yul\":4335:4336   */\n      0x00\n        /* \"#utility.yul\":4324:4333   */\n      dup4\n        /* \"#utility.yul\":4320:4337   */\n      add\n        /* \"#utility.yul\":4311:4317   */\n      dup5\n        /* \"#utility.yul\":4267:4338   */\n      tag_97\n      jump\t// in\n    tag_166:\n        /* \"#utility.yul\":4123:4345   */\n      swap3\n      swap2\n      pop\n      pop\n      jump\t// out\n        /* \"#utility.yul\":4351:4520   */\n    tag_98:\n        /* \"#utility.yul\":4435:4446   */\n      0x00\n        /* \"#utility.yul\":4469:4475   */\n      dup3\n        /* \"#utility.yul\":4464:4467   */\n      dup3\n        /* \"#utility.yul\":4457:4476   */\n      mstore\n        /* \"#utility.yul\":4509:4513   */\n      0x20\n        /* \"#utility.yul\":4504:4507   */\n      dup3\n        /* \"#utility.yul\":4500:4514   */\n      add\n        /* \"#utility.yul\":4485:4514   */\n      swap1\n      pop\n        /* \"#utility.yul\":4351:4520   */\n      swap3\n      swap2\n      pop\n      pop\n      jump\t// out\n        /* \"#utility.yul\":4526:4700   */\n    tag_99:\n        /* \"#utility.yul\":4666:4692   */\n      0x4f6e6c79206f776e65722063616e2063616c6c20746869730000000000000000\n        /* \"#utility.yul\":4662:4663   */\n      0x00\n        /* \"#utility.yul\":4654:4660   */\n      dup3\n        /* \"#utility.yul\":4650:4664   */\n      add\n        /* \"#utility.yul\":4643:4693   */\n      mstore\n        /* \"#utility.yul\":4526:4700   */\n      pop\n      jump\t// out\n        /* \"#utility.yul\":4706:5072   */\n    tag_100:\n        /* \"#utility.yul\":4848:4851   */\n      0x00\n        /* \"#utility.yul\":4869:4936   */\n      tag_170\n        /* \"#utility.yul\":4933:4935   */\n      0x18\n        /* \"#utility.yul\":4928:4931   */\n      dup4\n        /* \"#utility.yul\":4869:4936   */\n      tag_98\n      jump\t// in\n    tag_170:\n        /* \"#utility.yul\":4862:4936   */\n      swap2\n      pop\n        /* \"#utility.yul\":4945:5038   */\n      tag_171\n        /* \"#utility.yul\":5034:5037   */\n      dup3\n        /* \"#utility.yul\":4945:5038   */\n      tag_99\n      jump\t// in\n    tag_171:\n        /* \"#utility.yul\":5063:5065   */\n      0x20\n        /* \"#utility.yul\":5058:5061   */\n      dup3\n        /* \"#utility.yul\":5054:5066   */\n      add\n        /* \"#utility.yul\":5047:5066   */\n      swap1\n      pop\n        /* \"#utility.yul\":4706:5072   */\n      swap2\n      swap1\n      pop\n      jump\t// out\n        /* \"#utility.yul\":5078:5497   */\n    tag_52:\n        /* \"#utility.yul\":5244:5248   */\n      0x00\n        /* \"#utility.yul\":5282:5284   */\n      0x20\n        /* \"#utility.yul\":5271:5280   */\n      dup3\n        /* \"#utility.yul\":5267:5285   */\n      add\n        /* \"#utility.yul\":5259:5285   */\n      swap1\n      pop\n        /* \"#utility.yul\":5331:5340   */\n      dup2\n        /* \"#utility.yul\":5325:5329   */\n      dup2\n        /* \"#utility.yul\":5321:5341   */\n      sub\n        /* \"#utility.yul\":5317:5318   */\n      0x00\n        /* \"#utility.yul\":5306:5315   */\n      dup4\n        /* \"#utility.yul\":5302:5319   */\n      add\n        /* \"#utility.yul\":5295:5342   */\n      mstore\n        /* \"#utility.yul\":5359:5490   */\n      tag_173\n        /* \"#utility.yul\":5485:5489   */\n      dup2\n        /* \"#utility.yul\":5359:5490   */\n      tag_100\n      jump\t// in\n    tag_173:\n        /* \"#utility.yul\":5351:5490   */\n      swap1\n      pop\n        /* \"#utility.yul\":5078:5497   */\n      swap2\n      swap1\n      pop\n      jump\t// out\n        /* \"#utility.yul\":5503:5601   */\n    tag_101:\n        /* \"#utility.yul\":5554:5560   */\n      0x00\n        /* \"#utility.yul\":5588:5593   */\n      dup2\n        /* \"#utility.yul\":5582:5594   */\n      mload\n        /* \"#utility.yul\":5572:5594   */\n      swap1\n      pop\n        /* \"#utility.yul\":5503:5601   */\n      swap2\n      swap1\n      pop\n      jump\t// out\n        /* \"#utility.yul\":5607:5754   */\n    tag_102:\n        /* \"#utility.yul\":5708:5719   */\n      0x00\n        /* \"#utility.yul\":5745:5748   */\n      dup2\n        /* \"#utility.yul\":5730:5748   */\n      swap1\n      pop\n        /* \"#utility.yul\":5607:5754   */\n      swap3\n      swap2\n      pop\n      pop\n      jump\t// out\n        /* \"#utility.yul\":5760:5899   */\n    tag_103:\n        /* \"#utility.yul\":5849:5855   */\n      dup3\n        /* \"#utility.yul\":5844:5847   */\n      dup2\n        /* \"#utility.yul\":5839:5842   */\n      dup4\n        /* \"#utility.yul\":5833:5856   */\n      mcopy\n        /* \"#utility.yul\":5890:5891   */\n      0x00\n        /* \"#utility.yul\":5881:5887   */\n      dup4\n        /* \"#utility.yul\":5876:5879   */\n      dup4\n        /* \"#utility.yul\":5872:5888   */\n      add\n        /* \"#utility.yul\":5865:5892   */\n      mstore\n        /* \"#utility.yul\":5760:5899   */\n      pop\n      pop\n      pop\n      jump\t// out\n        /* \"#utility.yul\":5905:6291   */\n    tag_104:\n        /* \"#utility.yul\":6009:6012   */\n      0x00\n        /* \"#utility.yul\":6037:6075   */\n      tag_178\n        /* \"#utility.yul\":6069:6074   */\n      dup3\n        /* \"#utility.yul\":6037:6075   */\n      tag_101\n      jump\t// in\n    tag_178:\n        /* \"#utility.yul\":6091:6179   */\n      tag_179\n        /* \"#utility.yul\":6172:6178   */\n      dup2\n        /* \"#utility.yul\":6167:6170   */\n      dup6\n        /* \"#utility.yul\":6091:6179   */\n      tag_102\n      jump\t// in\n    tag_179:\n        /* \"#utility.yul\":6084:6179   */\n      swap4\n      pop\n        /* \"#utility.yul\":6188:6253   */\n      tag_180\n        /* \"#utility.yul\":6246:6252   */\n      dup2\n        /* \"#utility.yul\":6241:6244   */\n      dup6\n        /* \"#utility.yul\":6234:6238   */\n      0x20\n        /* \"#utility.yul\":6227:6232   */\n      dup7\n        /* \"#utility.yul\":6223:6239   */\n      add\n        /* \"#utility.yul\":6188:6253   */\n      tag_103\n      jump\t// in\n    tag_180:\n        /* \"#utility.yul\":6278:6284   */\n      dup1\n        /* \"#utility.yul\":6273:6276   */\n      dup5\n        /* \"#utility.yul\":6269:6285   */\n      add\n        /* \"#utility.yul\":6262:6285   */\n      swap2\n      pop\n        /* \"#utility.yul\":6013:6291   */\n      pop\n        /* \"#utility.yul\":5905:6291   */\n      swap3\n      swap2\n      pop\n      pop\n      jump\t// out\n        /* \"#utility.yul\":6297:6488   */\n    tag_105:\n        /* \"#utility.yul\":6466:6481   */\n      0x207a65726f206164647265737300000000000000000000000000000000000000\n        /* \"#utility.yul\":6461:6464   */\n      dup2\n        /* \"#utility.yul\":6454:6482   */\n      mstore\n        /* \"#utility.yul\":6297:6488   */\n      pop\n      jump\t// out\n        /* \"#utility.yul\":6494:7032   */\n    tag_74:\n        /* \"#utility.yul\":6715:6718   */\n      0x00\n        /* \"#utility.yul\":6737:6830   */\n      tag_183\n        /* \"#utility.yul\":6826:6829   */\n      dup3\n        /* \"#utility.yul\":6817:6823   */\n      dup5\n        /* \"#utility.yul\":6737:6830   */\n      tag_104\n      jump\t// in\n    tag_183:\n        /* \"#utility.yul\":6730:6830   */\n      swap2\n      pop\n        /* \"#utility.yul\":6840:6978   */\n      tag_184\n        /* \"#utility.yul\":6974:6977   */\n      dup3\n        /* \"#utility.yul\":6840:6978   */\n      tag_105\n      jump\t// in\n    tag_184:\n        /* \"#utility.yul\":7003:7005   */\n      0x0d\n        /* \"#utility.yul\":6998:7001   */\n      dup3\n        /* \"#utility.yul\":6994:7006   */\n      add\n        /* \"#utility.yul\":6987:7006   */\n      swap2\n      pop\n        /* \"#utility.yul\":7023:7026   */\n      dup2\n        /* \"#utility.yul\":7016:7026   */\n      swap1\n      pop\n        /* \"#utility.yul\":6494:7032   */\n      swap3\n      swap2\n      pop\n      pop\n      jump\t// out\n        /* \"#utility.yul\":7038:7137   */\n    tag_106:\n        /* \"#utility.yul\":7090:7096   */\n      0x00\n        /* \"#utility.yul\":7124:7129   */\n      dup2\n        /* \"#utility.yul\":7118:7130   */\n      mload\n        /* \"#utility.yul\":7108:7130   */\n      swap1\n      pop\n        /* \"#utility.yul\":7038:7137   */\n      swap2\n      swap1\n      pop\n      jump\t// out\n        /* \"#utility.yul\":7143:7245   */\n    tag_107:\n        /* \"#utility.yul\":7184:7190   */\n      0x00\n        /* \"#utility.yul\":7235:7237   */\n      0x1f\n        /* \"#utility.yul\":7231:7238   */\n      not\n        /* \"#utility.yul\":7226:7228   */\n      0x1f\n        /* \"#utility.yul\":7219:7224   */\n      dup4\n        /* \"#utility.yul\":7215:7229   */\n      add\n        /* \"#utility.yul\":7211:7239   */\n      and\n        /* \"#utility.yul\":7201:7239   */\n      swap1\n      pop\n        /* \"#utility.yul\":7143:7245   */\n      swap2\n      swap1\n      pop\n      jump\t// out\n        /* \"#utility.yul\":7251:7628   */\n    tag_108:\n        /* \"#utility.yul\":7339:7342   */\n      0x00\n        /* \"#utility.yul\":7367:7406   */\n      tag_188\n        /* \"#utility.yul\":7400:7405   */\n      dup3\n        /* \"#utility.yul\":7367:7406   */\n      tag_106\n      jump\t// in\n    tag_188:\n        /* \"#utility.yul\":7422:7493   */\n      tag_189\n        /* \"#utility.yul\":7486:7492   */\n      dup2\n        /* \"#utility.yul\":7481:7484   */\n      dup6\n        /* \"#utility.yul\":7422:7493   */\n      tag_98\n      jump\t// in\n    tag_189:\n        /* \"#utility.yul\":7415:7493   */\n      swap4\n      pop\n        /* \"#utility.yul\":7502:7567   */\n      tag_190\n        /* \"#utility.yul\":7560:7566   */\n      dup2\n        /* \"#utility.yul\":7555:7558   */\n      dup6\n        /* \"#utility.yul\":7548:7552   */\n      0x20\n        /* \"#utility.yul\":7541:7546   */\n      dup7\n        /* \"#utility.yul\":7537:7553   */\n      add\n        /* \"#utility.yul\":7502:7567   */\n      tag_103\n      jump\t// in\n    tag_190:\n        /* \"#utility.yul\":7592:7621   */\n      tag_191\n        /* \"#utility.yul\":7614:7620   */\n      dup2\n        /* \"#utility.yul\":7592:7621   */\n      tag_107\n      jump\t// in\n    tag_191:\n        /* \"#utility.yul\":7587:7590   */\n      dup5\n        /* \"#utility.yul\":7583:7622   */\n      add\n        /* \"#utility.yul\":7576:7622   */\n      swap2\n      pop\n        /* \"#utility.yul\":7343:7628   */\n      pop\n        /* \"#utility.yul\":7251:7628   */\n      swap3\n      swap2\n      pop\n      pop\n      jump\t// out\n        /* \"#utility.yul\":7634:7947   */\n    tag_77:\n        /* \"#utility.yul\":7747:7751   */\n      0x00\n        /* \"#utility.yul\":7785:7787   */\n      0x20\n        /* \"#utility.yul\":7774:7783   */\n      dup3\n        /* \"#utility.yul\":7770:7788   */\n      add\n        /* \"#utility.yul\":7762:7788   */\n      swap1\n      pop\n        /* \"#utility.yul\":7834:7843   */\n      dup2\n        /* \"#utility.yul\":7828:7832   */\n      dup2\n        /* \"#utility.yul\":7824:7844   */\n      sub\n        /* \"#utility.yul\":7820:7821   */\n      0x00\n        /* \"#utility.yul\":7809:7818   */\n      dup4\n        /* \"#utility.yul\":7805:7822   */\n      add\n        /* \"#utility.yul\":7798:7845   */\n      mstore\n        /* \"#utility.yul\":7862:7940   */\n      tag_193\n        /* \"#utility.yul\":7935:7939   */\n      dup2\n        /* \"#utility.yul\":7926:7932   */\n      dup5\n        /* \"#utility.yul\":7862:7940   */\n      tag_108\n      jump\t// in\n    tag_193:\n        /* \"#utility.yul\":7854:7940   */\n      swap1\n      pop\n        /* \"#utility.yul\":7634:7947   */\n      swap3\n      swap2\n      pop\n      pop\n      jump\t// out\n        /* \"#utility.yul\":7953:8144   */\n    tag_109:\n        /* \"#utility.yul\":8122:8137   */\n      0x496e73756666696369656e742000000000000000000000000000000000000000\n        /* \"#utility.yul\":8117:8120   */\n      dup2\n        /* \"#utility.yul\":8110:8138   */\n      mstore\n        /* \"#utility.yul\":7953:8144   */\n      pop\n      jump\t// out\n        /* \"#utility.yul\":8150:8688   */\n    tag_80:\n        /* \"#utility.yul\":8371:8374   */\n      0x00\n        /* \"#utility.yul\":8386:8524   */\n      tag_196\n        /* \"#utility.yul\":8520:8523   */\n      dup3\n        /* \"#utility.yul\":8386:8524   */\n      tag_109\n      jump\t// in\n    tag_196:\n        /* \"#utility.yul\":8549:8551   */\n      0x0d\n        /* \"#utility.yul\":8544:8547   */\n      dup3\n        /* \"#utility.yul\":8540:8552   */\n      add\n        /* \"#utility.yul\":8533:8552   */\n      swap2\n      pop\n        /* \"#utility.yul\":8569:8662   */\n      tag_197\n        /* \"#utility.yul\":8658:8661   */\n      dup3\n        /* \"#utility.yul\":8649:8655   */\n      dup5\n        /* \"#utility.yul\":8569:8662   */\n      tag_104\n      jump\t// in\n    tag_197:\n        /* \"#utility.yul\":8562:8662   */\n      swap2\n      pop\n        /* \"#utility.yul\":8679:8682   */\n      dup2\n        /* \"#utility.yul\":8672:8682   */\n      swap1\n      pop\n        /* \"#utility.yul\":8150:8688   */\n      swap3\n      swap2\n      pop\n      pop\n      jump\t// out\n\n    auxdata: 0xa2646970667358221220cdda48626eb1db176eac3955d4c7197b995cb5a8e2cf8c6ea399e4b839e6fcdc64736f6c634300081e0033\n}\n",
				"bytecode": {
					"linkReferences": {},
					"object": "60806040526040518060400160405280600881526020017f4d7920546f6b656e0000000000000000000000000000000000000000000000008152505f908161004791906103e6565b506040518060400160405280600381526020017f4d544b00000000000000000000000000000000000000000000000000000000008152506001908161008c91906103e6565b50348015610098575f5ffd5b506012600a6100a7919061061d565b60026100b39190610667565b6002819055503360055f6101000a81548173ffffffffffffffffffffffffffffffffffffffff021916908373ffffffffffffffffffffffffffffffffffffffff16021790555060025460035f3373ffffffffffffffffffffffffffffffffffffffff1673ffffffffffffffffffffffffffffffffffffffff1681526020019081526020015f20819055503373ffffffffffffffffffffffffffffffffffffffff165f73ffffffffffffffffffffffffffffffffffffffff167fddf252ad1be2c89b69c2b068fc378daa952ba7f163c4a11628f55a4df523b3ef60025460405161019c91906106b7565b60405180910390a36106d0565b5f81519050919050565b7f4e487b71000000000000000000000000000000000000000000000000000000005f52604160045260245ffd5b7f4e487b71000000000000000000000000000000000000000000000000000000005f52602260045260245ffd5b5f600282049050600182168061022457607f821691505b602082108103610237576102366101e0565b5b50919050565b5f819050815f5260205f209050919050565b5f6020601f8301049050919050565b5f82821b905092915050565b5f600883026102997fffffffffffffffffffffffffffffffffffffffffffffffffffffffffffffffff8261025e565b6102a3868361025e565b95508019841693508086168417925050509392505050565b5f819050919050565b5f819050919050565b5f6102e76102e26102dd846102bb565b6102c4565b6102bb565b9050919050565b5f819050919050565b610300836102cd565b61031461030c826102ee565b84845461026a565b825550505050565b5f5f905090565b61032b61031c565b6103368184846102f7565b505050565b5b818110156103595761034e5f82610323565b60018101905061033c565b5050565b601f82111561039e5761036f8161023d565b6103788461024f565b81016020851015610387578190505b61039b6103938561024f565b83018261033b565b50505b505050565b5f82821c905092915050565b5f6103be5f19846008026103a3565b1980831691505092915050565b5f6103d683836103af565b9150826002028217905092915050565b6103ef826101a9565b67ffffffffffffffff811115610408576104076101b3565b5b610412825461020d565b61041d82828561035d565b5f60209050601f83116001811461044e575f841561043c578287015190505b61044685826103cb565b8655506104ad565b601f19841661045c8661023d565b5f5b828110156104835784890151825560018201915060208501945060208101905061045e565b868310156104a0578489015161049c601f8916826103af565b8355505b6001600288020188555050505b505050505050565b7f4e487b71000000000000000000000000000000000000000000000000000000005f52601160045260245ffd5b5f8160011c9050919050565b5f5f8291508390505b600185111561053757808604811115610513576105126104b5565b5b60018516156105225780820291505b8081029050610530856104e2565b94506104f7565b94509492505050565b5f8261054f576001905061060a565b8161055c575f905061060a565b8160018114610572576002811461057c576105ab565b600191505061060a565b60ff84111561058e5761058d6104b5565b5b8360020a9150848211156105a5576105a46104b5565b5b5061060a565b5060208310610133831016604e8410600b84101617156105e05782820a9050838111156105db576105da6104b5565b5b61060a565b6105ed84848460016104ee565b92509050818404811115610604576106036104b5565b5b81810290505b9392505050565b5f60ff82169050919050565b5f610627826102bb565b915061063283610611565b925061065f7fffffffffffffffffffffffffffffffffffffffffffffffffffffffffffffffff8484610540565b905092915050565b5f610671826102bb565b915061067c836102bb565b925082820261068a816102bb565b915082820484148315176106a1576106a06104b5565b5b5092915050565b6106b1816102bb565b82525050565b5f6020820190506106ca5f8301846106a8565b92915050565b611020806106dd5f395ff3fe608060405234801561000f575f5ffd5b5060043610610060575f3560e01c806323b872dd1461006457806340c10f191461009457806342966c68146100b057806375247a58146100cc5780638da5cb5b146100fc578063a9059cbb1461011a575b5f5ffd5b61007e60048036038101906100799190610c49565b61014a565b60405161008b9190610cb3565b60405180910390f35b6100ae60048036038101906100a99190610ccc565b6104a2565b005b6100ca60048036038101906100c59190610d0a565b610644565b005b6100e660048036038101906100e19190610ccc565b610794565b6040516100f39190610cb3565b60405180910390f35b6101046108c0565b6040516101119190610d44565b60405180910390f35b610134600480360381019061012f9190610ccc565b6108e5565b6040516101419190610cb3565b60405180910390f35b5f61018a846040518060400160405280600481526020017f46726f6d00000000000000000000000000000000000000000000000000000000815250610ab7565b6101c9836040518060400160405280600281526020017f546f000000000000000000000000000000000000000000000000000000000000815250610ab7565b61024660035f8673ffffffffffffffffffffffffffffffffffffffff1673ffffffffffffffffffffffffffffffffffffffff1681526020019081526020015f2054836040518060400160405280600781526020017f62616c616e636500000000000000000000000000000000000000000000000000815250610b4d565b6102fe60045f8673ffffffffffffffffffffffffffffffffffffffff1673ffffffffffffffffffffffffffffffffffffffff1681526020019081526020015f205f3373ffffffffffffffffffffffffffffffffffffffff1673ffffffffffffffffffffffffffffffffffffffff1681526020019081526020015f2054836040518060400160405280600981526020017f616c6c6f776e6163650000000000000000000000000000000000000000000000815250610b4d565b8160035f8673ffffffffffffffffffffffffffffffffffffffff1673ffffffffffffffffffffffffffffffffffffffff1681526020019081526020015f205f82825461034a9190610d8a565b925050819055508160035f8573ffffffffffffffffffffffffffffffffffffffff1673ffffffffffffffffffffffffffffffffffffffff1681526020019081526020015f205f82825461039d9190610dbd565b925050819055508160045f8673ffffffffffffffffffffffffffffffffffffffff1673ffffffffffffffffffffffffffffffffffffffff1681526020019081526020015f205f3373ffffffffffffffffffffffffffffffffffffffff1673ffffffffffffffffffffffffffffffffffffffff1681526020019081526020015f205f82825461042b9190610d8a565b925050819055508273ffffffffffffffffffffffffffffffffffffffff168473ffffffffffffffffffffffffffffffffffffffff167fddf252ad1be2c89b69c2b068fc378daa952ba7f163c4a11628f55a4df523b3ef8460405161048f9190610dff565b60405180910390a3600190509392505050565b60055f9054906101000a900473ffffffffffffffffffffffffffffffffffffffff1673ffffffffffffffffffffffffffffffffffffffff163373ffffffffffffffffffffffffffffffffffffffff1614610531576040517f08c379a000000000000000000000000000000000000000000000000000000000815260040161052890610e72565b60405180910390fd5b610570826040518060400160405280600781526020017f4d696e7420746f00000000000000000000000000000000000000000000000000815250610ab7565b8060025f8282546105819190610dbd565b925050819055508060035f8473ffffffffffffffffffffffffffffffffffffffff1673ffffffffffffffffffffffffffffffffffffffff1681526020019081526020015f205f8282546105d49190610dbd565b925050819055508173ffffffffffffffffffffffffffffffffffffffff165f73ffffffffffffffffffffffffffffffffffffffff167fddf252ad1be2c89b69c2b068fc378daa952ba7f163c4a11628f55a4df523b3ef836040516106389190610dff565b60405180910390a35050565b6106c160035f3373ffffffffffffffffffffffffffffffffffffffff1673ffffffffffffffffffffffffffffffffffffffff1681526020019081526020015f2054826040518060400160405280600c81526020017f6275726e2062616c616e63650000000000000000000000000000000000000000815250610b4d565b8060025f8282546106d29190610d8a565b925050819055508060035f3373ffffffffffffffffffffffffffffffffffffffff1673ffffffffffffffffffffffffffffffffffffffff1681526020019081526020015f205f8282546107259190610d8a565b925050819055505f73ffffffffffffffffffffffffffffffffffffffff163373ffffffffffffffffffffffffffffffffffffffff167fddf252ad1be2c89b69c2b068fc378daa952ba7f163c4a11628f55a4df523b3ef836040516107899190610dff565b60405180910390a350565b5f6107d4836040518060400160405280600781526020017f5370656e64657200000000000000000000000000000000000000000000000000815250610ab7565b8160045f3373ffffffffffffffffffffffffffffffffffffffff1673ffffffffffffffffffffffffffffffffffffffff1681526020019081526020015f205f8573ffffffffffffffffffffffffffffffffffffffff1673ffffffffffffffffffffffffffffffffffffffff1681526020019081526020015f20819055508273ffffffffffffffffffffffffffffffffffffffff163373ffffffffffffffffffffffffffffffffffffffff167f8c5be1e5ebec7d5bd14f71427d1e84f3dd0314c0f7b2291e5b200ac8c7c3b925846040516108ae9190610dff565b60405180910390a36001905092915050565b60055f9054906101000a900473ffffffffffffffffffffffffffffffffffffffff1681565b5f610925836040518060400160405280600281526020017f544f000000000000000000000000000000000000000000000000000000000000815250610ab7565b6109a260035f3373ffffffffffffffffffffffffffffffffffffffff1673ffffffffffffffffffffffffffffffffffffffff1681526020019081526020015f2054836040518060400160405280600781526020017f62616c616e636500000000000000000000000000000000000000000000000000815250610b4d565b8160035f3373ffffffffffffffffffffffffffffffffffffffff1673ffffffffffffffffffffffffffffffffffffffff1681526020019081526020015f205f8282546109ee9190610d8a565b925050819055508160035f8573ffffffffffffffffffffffffffffffffffffffff1673ffffffffffffffffffffffffffffffffffffffff1681526020019081526020015f205f828254610a419190610dbd565b925050819055508273ffffffffffffffffffffffffffffffffffffffff163373ffffffffffffffffffffffffffffffffffffffff167fddf252ad1be2c89b69c2b068fc378daa952ba7f163c4a11628f55a4df523b3ef84604051610aa59190610dff565b60405180910390a36001905092915050565b5f73ffffffffffffffffffffffffffffffffffffffff168273ffffffffffffffffffffffffffffffffffffffff16141581604051602001610af89190610f08565b60405160208183030381529060405290610b48576040517f08c379a0000000000000000000000000000000000000000000000000000000008152600401610b3f9190610f7f565b60405180910390fd5b505050565b8183101581604051602001610b629190610fc5565b60405160208183030381529060405290610bb2576040517f08c379a0000000000000000000000000000000000000000000000000000000008152600401610ba99190610f7f565b60405180910390fd5b50505050565b5f5ffd5b5f73ffffffffffffffffffffffffffffffffffffffff82169050919050565b5f610be582610bbc565b9050919050565b610bf581610bdb565b8114610bff575f5ffd5b50565b5f81359050610c1081610bec565b92915050565b5f819050919050565b610c2881610c16565b8114610c32575f5ffd5b50565b5f81359050610c4381610c1f565b92915050565b5f5f5f60608486031215610c6057610c5f610bb8565b5b5f610c6d86828701610c02565b9350506020610c7e86828701610c02565b9250506040610c8f86828701610c35565b9150509250925092565b5f8115159050919050565b610cad81610c99565b82525050565b5f602082019050610cc65f830184610ca4565b92915050565b5f5f60408385031215610ce257610ce1610bb8565b5b5f610cef85828601610c02565b9250506020610d0085828601610c35565b9150509250929050565b5f60208284031215610d1f57610d1e610bb8565b5b5f610d2c84828501610c35565b91505092915050565b610d3e81610bdb565b82525050565b5f602082019050610d575f830184610d35565b92915050565b7f4e487b71000000000000000000000000000000000000000000000000000000005f52601160045260245ffd5b5f610d9482610c16565b9150610d9f83610c16565b9250828203905081811115610db757610db6610d5d565b5b92915050565b5f610dc782610c16565b9150610dd283610c16565b9250828201905080821115610dea57610de9610d5d565b5b92915050565b610df981610c16565b82525050565b5f602082019050610e125f830184610df0565b92915050565b5f82825260208201905092915050565b7f4f6e6c79206f776e65722063616e2063616c6c207468697300000000000000005f82015250565b5f610e5c601883610e18565b9150610e6782610e28565b602082019050919050565b5f6020820190508181035f830152610e8981610e50565b9050919050565b5f81519050919050565b5f81905092915050565b8281835e5f83830152505050565b5f610ebc82610e90565b610ec68185610e9a565b9350610ed6818560208601610ea4565b80840191505092915050565b7f207a65726f206164647265737300000000000000000000000000000000000000815250565b5f610f138284610eb2565b9150610f1e82610ee2565b600d8201915081905092915050565b5f81519050919050565b5f601f19601f8301169050919050565b5f610f5182610f2d565b610f5b8185610e18565b9350610f6b818560208601610ea4565b610f7481610f37565b840191505092915050565b5f6020820190508181035f830152610f978184610f47565b905092915050565b7f496e73756666696369656e742000000000000000000000000000000000000000815250565b5f610fcf82610f9f565b600d82019150610fdf8284610eb2565b91508190509291505056fea2646970667358221220cdda48626eb1db176eac3955d4c7197b995cb5a8e2cf8c6ea399e4b839e6fcdc64736f6c634300081e0033",
					"opcodes": "PUSH1 0x80 PUSH1 0x40 MSTORE PUSH1 0x40 MLOAD DUP1 PUSH1 0x40 ADD PUSH1 0x40 MSTORE DUP1 PUSH1 0x8 DUP2 MSTORE PUSH1 0x20 ADD PUSH32 0x4D7920546F6B656E000000000000000000000000000000000000000000000000 DUP2 MSTORE POP PUSH0 SWAP1 DUP2 PUSH2 0x47 SWAP2 SWAP1 PUSH2 0x3E6 JUMP JUMPDEST POP PUSH1 0x40 MLOAD DUP1 PUSH1 0x40 ADD PUSH1 0x40 MSTORE DUP1 PUSH1 0x3 DUP2 MSTORE PUSH1 0x20 ADD PUSH32 0x4D544B0000000000000000000000000000000000000000000000000000000000 DUP2 MSTORE POP PUSH1 0x1 SWAP1 DUP2 PUSH2 0x8C SWAP2 SWAP1 PUSH2 0x3E6 JUMP JUMPDEST POP CALLVALUE DUP1 ISZERO PUSH2 0x98 JUMPI PUSH0 PUSH0 REVERT JUMPDEST POP PUSH1 0x12 PUSH1 0xA PUSH2 0xA7 SWAP2 SWAP1 PUSH2 0x61D JUMP JUMPDEST PUSH1 0x2 PUSH2 0xB3 SWAP2 SWAP1 PUSH2 0x667 JUMP JUMPDEST PUSH1 0x2 DUP2 SWAP1 SSTORE POP CALLER PUSH1 0x5 PUSH0 PUSH2 0x100 EXP DUP2 SLOAD DUP2 PUSH20 0xFFFFFFFFFFFFFFFFFFFFFFFFFFFFFFFFFFFFFFFF MUL NOT AND SWAP1 DUP4 PUSH20 0xFFFFFFFFFFFFFFFFFFFFFFFFFFFFFFFFFFFFFFFF AND MUL OR SWAP1 SSTORE POP PUSH1 0x2 SLOAD PUSH1 0x3 PUSH0 CALLER PUSH20 0xFFFFFFFFFFFFFFFFFFFFFFFFFFFFFFFFFFFFFFFF AND PUSH20 0xFFFFFFFFFFFFFFFFFFFFFFFFFFFFFFFFFFFFFFFF AND DUP2 MSTORE PUSH1 0x20 ADD SWAP1 DUP2 MSTORE PUSH1 0x20 ADD PUSH0 KECCAK256 DUP2 SWAP1 SSTORE POP CALLER PUSH20 0xFFFFFFFFFFFFFFFFFFFFFFFFFFFFFFFFFFFFFFFF AND PUSH0 PUSH20 0xFFFFFFFFFFFFFFFFFFFFFFFFFFFFFFFFFFFFFFFF AND PUSH32 0xDDF252AD1BE2C89B69C2B068FC378DAA952BA7F163C4A11628F55A4DF523B3EF PUSH1 0x2 SLOAD PUSH1 0x40 MLOAD PUSH2 0x19C SWAP2 SWAP1 PUSH2 0x6B7 JUMP JUMPDEST PUSH1 0x40 MLOAD DUP1 SWAP2 SUB SWAP1 LOG3 PUSH2 0x6D0 JUMP JUMPDEST PUSH0 DUP2 MLOAD SWAP1 POP SWAP2 SWAP1 POP JUMP JUMPDEST PUSH32 0x4E487B7100000000000000000000000000000000000000000000000000000000 PUSH0 MSTORE PUSH1 0x41 PUSH1 0x4 MSTORE PUSH1 0x24 PUSH0 REVERT JUMPDEST PUSH32 0x4E487B7100000000000000000000000000000000000000000000000000000000 PUSH0 MSTORE PUSH1 0x22 PUSH1 0x4 MSTORE PUSH1 0x24 PUSH0 REVERT JUMPDEST PUSH0 PUSH1 0x2 DUP3 DIV SWAP1 POP PUSH1 0x1 DUP3 AND DUP1 PUSH2 0x224 JUMPI PUSH1 0x7F DUP3 AND SWAP2 POP JUMPDEST PUSH1 0x20 DUP3 LT DUP2 SUB PUSH2 0x237 JUMPI PUSH2 0x236 PUSH2 0x1E0 JUMP JUMPDEST JUMPDEST POP SWAP2 SWAP1 POP JUMP JUMPDEST PUSH0 DUP2 SWAP1 POP DUP2 PUSH0 MSTORE PUSH1 0x20 PUSH0 KECCAK256 SWAP1 POP SWAP2 SWAP1 POP JUMP JUMPDEST PUSH0 PUSH1 0x20 PUSH1 0x1F DUP4 ADD DIV SWAP1 POP SWAP2 SWAP1 POP JUMP JUMPDEST PUSH0 DUP3 DUP3 SHL SWAP1 POP SWAP3 SWAP2 POP POP JUMP JUMPDEST PUSH0 PUSH1 0x8 DUP4 MUL PUSH2 0x299 PUSH32 0xFFFFFFFFFFFFFFFFFFFFFFFFFFFFFFFFFFFFFFFFFFFFFFFFFFFFFFFFFFFFFFFF DUP3 PUSH2 0x25E JUMP JUMPDEST PUSH2 0x2A3 DUP7 DUP4 PUSH2 0x25E JUMP JUMPDEST SWAP6 POP DUP1 NOT DUP5 AND SWAP4 POP DUP1 DUP7 AND DUP5 OR SWAP3 POP POP POP SWAP4 SWAP3 POP POP POP JUMP JUMPDEST PUSH0 DUP2 SWAP1 POP SWAP2 SWAP1 POP JUMP JUMPDEST PUSH0 DUP2 SWAP1 POP SWAP2 SWAP1 POP JUMP JUMPDEST PUSH0 PUSH2 0x2E7 PUSH2 0x2E2 PUSH2 0x2DD DUP5 PUSH2 0x2BB JUMP JUMPDEST PUSH2 0x2C4 JUMP JUMPDEST PUSH2 0x2BB JUMP JUMPDEST SWAP1 POP SWAP2 SWAP1 POP JUMP JUMPDEST PUSH0 DUP2 SWAP1 POP SWAP2 SWAP1 POP JUMP JUMPDEST PUSH2 0x300 DUP4 PUSH2 0x2CD JUMP JUMPDEST PUSH2 0x314 PUSH2 0x30C DUP3 PUSH2 0x2EE JUMP JUMPDEST DUP5 DUP5 SLOAD PUSH2 0x26A JUMP JUMPDEST DUP3 SSTORE POP POP POP POP JUMP JUMPDEST PUSH0 PUSH0 SWAP1 POP SWAP1 JUMP JUMPDEST PUSH2 0x32B PUSH2 0x31C JUMP JUMPDEST PUSH2 0x336 DUP2 DUP5 DUP5 PUSH2 0x2F7 JUMP JUMPDEST POP POP POP JUMP JUMPDEST JUMPDEST DUP2 DUP2 LT ISZERO PUSH2 0x359 JUMPI PUSH2 0x34E PUSH0 DUP3 PUSH2 0x323 JUMP JUMPDEST PUSH1 0x1 DUP2 ADD SWAP1 POP PUSH2 0x33C JUMP JUMPDEST POP POP JUMP JUMPDEST PUSH1 0x1F DUP3 GT ISZERO PUSH2 0x39E JUMPI PUSH2 0x36F DUP2 PUSH2 0x23D JUMP JUMPDEST PUSH2 0x378 DUP5 PUSH2 0x24F JUMP JUMPDEST DUP2 ADD PUSH1 0x20 DUP6 LT ISZERO PUSH2 0x387 JUMPI DUP2 SWAP1 POP JUMPDEST PUSH2 0x39B PUSH2 0x393 DUP6 PUSH2 0x24F JUMP JUMPDEST DUP4 ADD DUP3 PUSH2 0x33B JUMP JUMPDEST POP POP JUMPDEST POP POP POP JUMP JUMPDEST PUSH0 DUP3 DUP3 SHR SWAP1 POP SWAP3 SWAP2 POP POP JUMP JUMPDEST PUSH0 PUSH2 0x3BE PUSH0 NOT DUP5 PUSH1 0x8 MUL PUSH2 0x3A3 JUMP JUMPDEST NOT DUP1 DUP4 AND SWAP2 POP POP SWAP3 SWAP2 POP POP JUMP JUMPDEST PUSH0 PUSH2 0x3D6 DUP4 DUP4 PUSH2 0x3AF JUMP JUMPDEST SWAP2 POP DUP3 PUSH1 0x2 MUL DUP3 OR SWAP1 POP SWAP3 SWAP2 POP POP JUMP JUMPDEST PUSH2 0x3EF DUP3 PUSH2 0x1A9 JUMP JUMPDEST PUSH8 0xFFFFFFFFFFFFFFFF DUP2 GT ISZERO PUSH2 0x408 JUMPI PUSH2 0x407 PUSH2 0x1B3 JUMP JUMPDEST JUMPDEST PUSH2 0x412 DUP3 SLOAD PUSH2 0x20D JUMP JUMPDEST PUSH2 0x41D DUP3 DUP3 DUP6 PUSH2 0x35D JUMP JUMPDEST PUSH0 PUSH1 0x20 SWAP1 POP PUSH1 0x1F DUP4 GT PUSH1 0x1 DUP2 EQ PUSH2 0x44E JUMPI PUSH0 DUP5 ISZERO PUSH2 0x43C JUMPI DUP3 DUP8 ADD MLOAD SWAP1 POP JUMPDEST PUSH2 0x446 DUP6 DUP3 PUSH2 0x3CB JUMP JUMPDEST DUP7 SSTORE POP PUSH2 0x4AD JUMP JUMPDEST PUSH1 0x1F NOT DUP5 AND PUSH2 0x45C DUP7 PUSH2 0x23D JUMP JUMPDEST PUSH0 JUMPDEST DUP3 DUP2 LT ISZERO PUSH2 0x483 JUMPI DUP5 DUP10 ADD MLOAD DUP3 SSTORE PUSH1 0x1 DUP3 ADD SWAP2 POP PUSH1 0x20 DUP6 ADD SWAP5 POP PUSH1 0x20 DUP2 ADD SWAP1 POP PUSH2 0x45E JUMP JUMPDEST DUP7 DUP4 LT ISZERO PUSH2 0x4A0 JUMPI DUP5 DUP10 ADD MLOAD PUSH2 0x49C PUSH1 0x1F DUP10 AND DUP3 PUSH2 0x3AF JUMP JUMPDEST DUP4 SSTORE POP JUMPDEST PUSH1 0x1 PUSH1 0x2 DUP9 MUL ADD DUP9 SSTORE POP POP POP JUMPDEST POP POP POP POP POP POP JUMP JUMPDEST PUSH32 0x4E487B7100000000000000000000000000000000000000000000000000000000 PUSH0 MSTORE PUSH1 0x11 PUSH1 0x4 MSTORE PUSH1 0x24 PUSH0 REVERT JUMPDEST PUSH0 DUP2 PUSH1 0x1 SHR SWAP1 POP SWAP2 SWAP1 POP JUMP JUMPDEST PUSH0 PUSH0 DUP3 SWAP2 POP DUP4 SWAP1 POP JUMPDEST PUSH1 0x1 DUP6 GT ISZERO PUSH2 0x537 JUMPI DUP1 DUP7 DIV DUP2 GT ISZERO PUSH2 0x513 JUMPI PUSH2 0x512 PUSH2 0x4B5 JUMP JUMPDEST JUMPDEST PUSH1 0x1 DUP6 AND ISZERO PUSH2 0x522 JUMPI DUP1 DUP3 MUL SWAP2 POP JUMPDEST DUP1 DUP2 MUL SWAP1 POP PUSH2 0x530 DUP6 PUSH2 0x4E2 JUMP JUMPDEST SWAP5 POP PUSH2 0x4F7 JUMP JUMPDEST SWAP5 POP SWAP5 SWAP3 POP POP POP JUMP JUMPDEST PUSH0 DUP3 PUSH2 0x54F JUMPI PUSH1 0x1 SWAP1 POP PUSH2 0x60A JUMP JUMPDEST DUP2 PUSH2 0x55C JUMPI PUSH0 SWAP1 POP PUSH2 0x60A JUMP JUMPDEST DUP2 PUSH1 0x1 DUP2 EQ PUSH2 0x572 JUMPI PUSH1 0x2 DUP2 EQ PUSH2 0x57C JUMPI PUSH2 0x5AB JUMP JUMPDEST PUSH1 0x1 SWAP2 POP POP PUSH2 0x60A JUMP JUMPDEST PUSH1 0xFF DUP5 GT ISZERO PUSH2 0x58E JUMPI PUSH2 0x58D PUSH2 0x4B5 JUMP JUMPDEST JUMPDEST DUP4 PUSH1 0x2 EXP SWAP2 POP DUP5 DUP3 GT ISZERO PUSH2 0x5A5 JUMPI PUSH2 0x5A4 PUSH2 0x4B5 JUMP JUMPDEST JUMPDEST POP PUSH2 0x60A JUMP JUMPDEST POP PUSH1 0x20 DUP4 LT PUSH2 0x133 DUP4 LT AND PUSH1 0x4E DUP5 LT PUSH1 0xB DUP5 LT AND OR ISZERO PUSH2 0x5E0 JUMPI DUP3 DUP3 EXP SWAP1 POP DUP4 DUP2 GT ISZERO PUSH2 0x5DB JUMPI PUSH2 0x5DA PUSH2 0x4B5 JUMP JUMPDEST JUMPDEST PUSH2 0x60A JUMP JUMPDEST PUSH2 0x5ED DUP5 DUP5 DUP5 PUSH1 0x1 PUSH2 0x4EE JUMP JUMPDEST SWAP3 POP SWAP1 POP DUP2 DUP5 DIV DUP2 GT ISZERO PUSH2 0x604 JUMPI PUSH2 0x603 PUSH2 0x4B5 JUMP JUMPDEST JUMPDEST DUP2 DUP2 MUL SWAP1 POP JUMPDEST SWAP4 SWAP3 POP POP POP JUMP JUMPDEST PUSH0 PUSH1 0xFF DUP3 AND SWAP1 POP SWAP2 SWAP1 POP JUMP JUMPDEST PUSH0 PUSH2 0x627 DUP3 PUSH2 0x2BB JUMP JUMPDEST SWAP2 POP PUSH2 0x632 DUP4 PUSH2 0x611 JUMP JUMPDEST SWAP3 POP PUSH2 0x65F PUSH32 0xFFFFFFFFFFFFFFFFFFFFFFFFFFFFFFFFFFFFFFFFFFFFFFFFFFFFFFFFFFFFFFFF DUP5 DUP5 PUSH2 0x540 JUMP JUMPDEST SWAP1 POP SWAP3 SWAP2 POP POP JUMP JUMPDEST PUSH0 PUSH2 0x671 DUP3 PUSH2 0x2BB JUMP JUMPDEST SWAP2 POP PUSH2 0x67C DUP4 PUSH2 0x2BB JUMP JUMPDEST SWAP3 POP DUP3 DUP3 MUL PUSH2 0x68A DUP2 PUSH2 0x2BB JUMP JUMPDEST SWAP2 POP DUP3 DUP3 DIV DUP5 EQ DUP4 ISZERO OR PUSH2 0x6A1 JUMPI PUSH2 0x6A0 PUSH2 0x4B5 JUMP JUMPDEST JUMPDEST POP SWAP3 SWAP2 POP POP JUMP JUMPDEST PUSH2 0x6B1 DUP2 PUSH2 0x2BB JUMP JUMPDEST DUP3 MSTORE POP POP JUMP JUMPDEST PUSH0 PUSH1 0x20 DUP3 ADD SWAP1 POP PUSH2 0x6CA PUSH0 DUP4 ADD DUP5 PUSH2 0x6A8 JUMP JUMPDEST SWAP3 SWAP2 POP POP JUMP JUMPDEST PUSH2 0x1020 DUP1 PUSH2 0x6DD PUSH0 CODECOPY PUSH0 RETURN INVALID PUSH1 0x80 PUSH1 0x40 MSTORE CALLVALUE DUP1 ISZERO PUSH2 0xF JUMPI PUSH0 PUSH0 REVERT JUMPDEST POP PUSH1 0x4 CALLDATASIZE LT PUSH2 0x60 JUMPI PUSH0 CALLDATALOAD PUSH1 0xE0 SHR DUP1 PUSH4 0x23B872DD EQ PUSH2 0x64 JUMPI DUP1 PUSH4 0x40C10F19 EQ PUSH2 0x94 JUMPI DUP1 PUSH4 0x42966C68 EQ PUSH2 0xB0 JUMPI DUP1 PUSH4 0x75247A58 EQ PUSH2 0xCC JUMPI DUP1 PUSH4 0x8DA5CB5B EQ PUSH2 0xFC JUMPI DUP1 PUSH4 0xA9059CBB EQ PUSH2 0x11A JUMPI JUMPDEST PUSH0 PUSH0 REVERT JUMPDEST PUSH2 0x7E PUSH1 0x4 DUP1 CALLDATASIZE SUB DUP2 ADD SWAP1 PUSH2 0x79 SWAP2 SWAP1 PUSH2 0xC49 JUMP JUMPDEST PUSH2 0x14A JUMP JUMPDEST PUSH1 0x40 MLOAD PUSH2 0x8B SWAP2 SWAP1 PUSH2 0xCB3 JUMP JUMPDEST PUSH1 0x40 MLOAD DUP1 SWAP2 SUB SWAP1 RETURN JUMPDEST PUSH2 0xAE PUSH1 0x4 DUP1 CALLDATASIZE SUB DUP2 ADD SWAP1 PUSH2 0xA9 SWAP2 SWAP1 PUSH2 0xCCC JUMP JUMPDEST PUSH2 0x4A2 JUMP JUMPDEST STOP JUMPDEST PUSH2 0xCA PUSH1 0x4 DUP1 CALLDATASIZE SUB DUP2 ADD SWAP1 PUSH2 0xC5 SWAP2 SWAP1 PUSH2 0xD0A JUMP JUMPDEST PUSH2 0x644 JUMP JUMPDEST STOP JUMPDEST PUSH2 0xE6 PUSH1 0x4 DUP1 CALLDATASIZE SUB DUP2 ADD SWAP1 PUSH2 0xE1 SWAP2 SWAP1 PUSH2 0xCCC JUMP JUMPDEST PUSH2 0x794 JUMP JUMPDEST PUSH1 0x40 MLOAD PUSH2 0xF3 SWAP2 SWAP1 PUSH2 0xCB3 JUMP JUMPDEST PUSH1 0x40 MLOAD DUP1 SWAP2 SUB SWAP1 RETURN JUMPDEST PUSH2 0x104 PUSH2 0x8C0 JUMP JUMPDEST PUSH1 0x40 MLOAD PUSH2 0x111 SWAP2 SWAP1 PUSH2 0xD44 JUMP JUMPDEST PUSH1 0x40 MLOAD DUP1 SWAP2 SUB SWAP1 RETURN JUMPDEST PUSH2 0x134 PUSH1 0x4 DUP1 CALLDATASIZE SUB DUP2 ADD SWAP1 PUSH2 0x12F SWAP2 SWAP1 PUSH2 0xCCC JUMP JUMPDEST PUSH2 0x8E5 JUMP JUMPDEST PUSH1 0x40 MLOAD PUSH2 0x141 SWAP2 SWAP1 PUSH2 0xCB3 JUMP JUMPDEST PUSH1 0x40 MLOAD DUP1 SWAP2 SUB SWAP1 RETURN JUMPDEST PUSH0 PUSH2 0x18A DUP5 PUSH1 0x40 MLOAD DUP1 PUSH1 0x40 ADD PUSH1 0x40 MSTORE DUP1 PUSH1 0x4 DUP2 MSTORE PUSH1 0x20 ADD PUSH32 0x46726F6D00000000000000000000000000000000000000000000000000000000 DUP2 MSTORE POP PUSH2 0xAB7 JUMP JUMPDEST PUSH2 0x1C9 DUP4 PUSH1 0x40 MLOAD DUP1 PUSH1 0x40 ADD PUSH1 0x40 MSTORE DUP1 PUSH1 0x2 DUP2 MSTORE PUSH1 0x20 ADD PUSH32 0x546F000000000000000000000000000000000000000000000000000000000000 DUP2 MSTORE POP PUSH2 0xAB7 JUMP JUMPDEST PUSH2 0x246 PUSH1 0x3 PUSH0 DUP7 PUSH20 0xFFFFFFFFFFFFFFFFFFFFFFFFFFFFFFFFFFFFFFFF AND PUSH20 0xFFFFFFFFFFFFFFFFFFFFFFFFFFFFFFFFFFFFFFFF AND DUP2 MSTORE PUSH1 0x20 ADD SWAP1 DUP2 MSTORE PUSH1 0x20 ADD PUSH0 KECCAK256 SLOAD DUP4 PUSH1 0x40 MLOAD DUP1 PUSH1 0x40 ADD PUSH1 0x40 MSTORE DUP1 PUSH1 0x7 DUP2 MSTORE PUSH1 0x20 ADD PUSH32 0x62616C616E636500000000000000000000000000000000000000000000000000 DUP2 MSTORE POP PUSH2 0xB4D JUMP JUMPDEST PUSH2 0x2FE PUSH1 0x4 PUSH0 DUP7 PUSH20 0xFFFFFFFFFFFFFFFFFFFFFFFFFFFFFFFFFFFFFFFF AND PUSH20 0xFFFFFFFFFFFFFFFFFFFFFFFFFFFFFFFFFFFFFFFF AND DUP2 MSTORE PUSH1 0x20 ADD SWAP1 DUP2 MSTORE PUSH1 0x20 ADD PUSH0 KECCAK256 PUSH0 CALLER PUSH20 0xFFFFFFFFFFFFFFFFFFFFFFFFFFFFFFFFFFFFFFFF AND PUSH20 0xFFFFFFFFFFFFFFFFFFFFFFFFFFFFFFFFFFFFFFFF AND DUP2 MSTORE PUSH1 0x20 ADD SWAP1 DUP2 MSTORE PUSH1 0x20 ADD PUSH0 KECCAK256 SLOAD DUP4 PUSH1 0x40 MLOAD DUP1 PUSH1 0x40 ADD PUSH1 0x40 MSTORE DUP1 PUSH1 0x9 DUP2 MSTORE PUSH1 0x20 ADD PUSH32 0x616C6C6F776E6163650000000000000000000000000000000000000000000000 DUP2 MSTORE POP PUSH2 0xB4D JUMP JUMPDEST DUP2 PUSH1 0x3 PUSH0 DUP7 PUSH20 0xFFFFFFFFFFFFFFFFFFFFFFFFFFFFFFFFFFFFFFFF AND PUSH20 0xFFFFFFFFFFFFFFFFFFFFFFFFFFFFFFFFFFFFFFFF AND DUP2 MSTORE PUSH1 0x20 ADD SWAP1 DUP2 MSTORE PUSH1 0x20 ADD PUSH0 KECCAK256 PUSH0 DUP3 DUP3 SLOAD PUSH2 0x34A SWAP2 SWAP1 PUSH2 0xD8A JUMP JUMPDEST SWAP3 POP POP DUP2 SWAP1 SSTORE POP DUP2 PUSH1 0x3 PUSH0 DUP6 PUSH20 0xFFFFFFFFFFFFFFFFFFFFFFFFFFFFFFFFFFFFFFFF AND PUSH20 0xFFFFFFFFFFFFFFFFFFFFFFFFFFFFFFFFFFFFFFFF AND DUP2 MSTORE PUSH1 0x20 ADD SWAP1 DUP2 MSTORE PUSH1 0x20 ADD PUSH0 KECCAK256 PUSH0 DUP3 DUP3 SLOAD PUSH2 0x39D SWAP2 SWAP1 PUSH2 0xDBD JUMP JUMPDEST SWAP3 POP POP DUP2 SWAP1 SSTORE POP DUP2 PUSH1 0x4 PUSH0 DUP7 PUSH20 0xFFFFFFFFFFFFFFFFFFFFFFFFFFFFFFFFFFFFFFFF AND PUSH20 0xFFFFFFFFFFFFFFFFFFFFFFFFFFFFFFFFFFFFFFFF AND DUP2 MSTORE PUSH1 0x20 ADD SWAP1 DUP2 MSTORE PUSH1 0x20 ADD PUSH0 KECCAK256 PUSH0 CALLER PUSH20 0xFFFFFFFFFFFFFFFFFFFFFFFFFFFFFFFFFFFFFFFF AND PUSH20 0xFFFFFFFFFFFFFFFFFFFFFFFFFFFFFFFFFFFFFFFF AND DUP2 MSTORE PUSH1 0x20 ADD SWAP1 DUP2 MSTORE PUSH1 0x20 ADD PUSH0 KECCAK256 PUSH0 DUP3 DUP3 SLOAD PUSH2 0x42B SWAP2 SWAP1 PUSH2 0xD8A JUMP JUMPDEST SWAP3 POP POP DUP2 SWAP1 SSTORE POP DUP3 PUSH20 0xFFFFFFFFFFFFFFFFFFFFFFFFFFFFFFFFFFFFFFFF AND DUP5 PUSH20 0xFFFFFFFFFFFFFFFFFFFFFFFFFFFFFFFFFFFFFFFF AND PUSH32 0xDDF252AD1BE2C89B69C2B068FC378DAA952BA7F163C4A11628F55A4DF523B3EF DUP5 PUSH1 0x40 MLOAD PUSH2 0x48F SWAP2 SWAP1 PUSH2 0xDFF JUMP JUMPDEST PUSH1 0x40 MLOAD DUP1 SWAP2 SUB SWAP1 LOG3 PUSH1 0x1 SWAP1 POP SWAP4 SWAP3 POP POP POP JUMP JUMPDEST PUSH1 0x5 PUSH0 SWAP1 SLOAD SWAP1 PUSH2 0x100 EXP SWAP1 DIV PUSH20 0xFFFFFFFFFFFFFFFFFFFFFFFFFFFFFFFFFFFFFFFF AND PUSH20 0xFFFFFFFFFFFFFFFFFFFFFFFFFFFFFFFFFFFFFFFF AND CALLER PUSH20 0xFFFFFFFFFFFFFFFFFFFFFFFFFFFFFFFFFFFFFFFF AND EQ PUSH2 0x531 JUMPI PUSH1 0x40 MLOAD PUSH32 0x8C379A000000000000000000000000000000000000000000000000000000000 DUP2 MSTORE PUSH1 0x4 ADD PUSH2 0x528 SWAP1 PUSH2 0xE72 JUMP JUMPDEST PUSH1 0x40 MLOAD DUP1 SWAP2 SUB SWAP1 REVERT JUMPDEST PUSH2 0x570 DUP3 PUSH1 0x40 MLOAD DUP1 PUSH1 0x40 ADD PUSH1 0x40 MSTORE DUP1 PUSH1 0x7 DUP2 MSTORE PUSH1 0x20 ADD PUSH32 0x4D696E7420746F00000000000000000000000000000000000000000000000000 DUP2 MSTORE POP PUSH2 0xAB7 JUMP JUMPDEST DUP1 PUSH1 0x2 PUSH0 DUP3 DUP3 SLOAD PUSH2 0x581 SWAP2 SWAP1 PUSH2 0xDBD JUMP JUMPDEST SWAP3 POP POP DUP2 SWAP1 SSTORE POP DUP1 PUSH1 0x3 PUSH0 DUP5 PUSH20 0xFFFFFFFFFFFFFFFFFFFFFFFFFFFFFFFFFFFFFFFF AND PUSH20 0xFFFFFFFFFFFFFFFFFFFFFFFFFFFFFFFFFFFFFFFF AND DUP2 MSTORE PUSH1 0x20 ADD SWAP1 DUP2 MSTORE PUSH1 0x20 ADD PUSH0 KECCAK256 PUSH0 DUP3 DUP3 SLOAD PUSH2 0x5D4 SWAP2 SWAP1 PUSH2 0xDBD JUMP JUMPDEST SWAP3 POP POP DUP2 SWAP1 SSTORE POP DUP2 PUSH20 0xFFFFFFFFFFFFFFFFFFFFFFFFFFFFFFFFFFFFFFFF AND PUSH0 PUSH20 0xFFFFFFFFFFFFFFFFFFFFFFFFFFFFFFFFFFFFFFFF AND PUSH32 0xDDF252AD1BE2C89B69C2B068FC378DAA952BA7F163C4A11628F55A4DF523B3EF DUP4 PUSH1 0x40 MLOAD PUSH2 0x638 SWAP2 SWAP1 PUSH2 0xDFF JUMP JUMPDEST PUSH1 0x40 MLOAD DUP1 SWAP2 SUB SWAP1 LOG3 POP POP JUMP JUMPDEST PUSH2 0x6C1 PUSH1 0x3 PUSH0 CALLER PUSH20 0xFFFFFFFFFFFFFFFFFFFFFFFFFFFFFFFFFFFFFFFF AND PUSH20 0xFFFFFFFFFFFFFFFFFFFFFFFFFFFFFFFFFFFFFFFF AND DUP2 MSTORE PUSH1 0x20 ADD SWAP1 DUP2 MSTORE PUSH1 0x20 ADD PUSH0 KECCAK256 SLOAD DUP3 PUSH1 0x40 MLOAD DUP1 PUSH1 0x40 ADD PUSH1 0x40 MSTORE DUP1 PUSH1 0xC DUP2 MSTORE PUSH1 0x20 ADD PUSH32 0x6275726E2062616C616E63650000000000000000000000000000000000000000 DUP2 MSTORE POP PUSH2 0xB4D JUMP JUMPDEST DUP1 PUSH1 0x2 PUSH0 DUP3 DUP3 SLOAD PUSH2 0x6D2 SWAP2 SWAP1 PUSH2 0xD8A JUMP JUMPDEST SWAP3 POP POP DUP2 SWAP1 SSTORE POP DUP1 PUSH1 0x3 PUSH0 CALLER PUSH20 0xFFFFFFFFFFFFFFFFFFFFFFFFFFFFFFFFFFFFFFFF AND PUSH20 0xFFFFFFFFFFFFFFFFFFFFFFFFFFFFFFFFFFFFFFFF AND DUP2 MSTORE PUSH1 0x20 ADD SWAP1 DUP2 MSTORE PUSH1 0x20 ADD PUSH0 KECCAK256 PUSH0 DUP3 DUP3 SLOAD PUSH2 0x725 SWAP2 SWAP1 PUSH2 0xD8A JUMP JUMPDEST SWAP3 POP POP DUP2 SWAP1 SSTORE POP PUSH0 PUSH20 0xFFFFFFFFFFFFFFFFFFFFFFFFFFFFFFFFFFFFFFFF AND CALLER PUSH20 0xFFFFFFFFFFFFFFFFFFFFFFFFFFFFFFFFFFFFFFFF AND PUSH32 0xDDF252AD1BE2C89B69C2B068FC378DAA952BA7F163C4A11628F55A4DF523B3EF DUP4 PUSH1 0x40 MLOAD PUSH2 0x789 SWAP2 SWAP1 PUSH2 0xDFF JUMP JUMPDEST PUSH1 0x40 MLOAD DUP1 SWAP2 SUB SWAP1 LOG3 POP JUMP JUMPDEST PUSH0 PUSH2 0x7D4 DUP4 PUSH1 0x40 MLOAD DUP1 PUSH1 0x40 ADD PUSH1 0x40 MSTORE DUP1 PUSH1 0x7 DUP2 MSTORE PUSH1 0x20 ADD PUSH32 0x5370656E64657200000000000000000000000000000000000000000000000000 DUP2 MSTORE POP PUSH2 0xAB7 JUMP JUMPDEST DUP2 PUSH1 0x4 PUSH0 CALLER PUSH20 0xFFFFFFFFFFFFFFFFFFFFFFFFFFFFFFFFFFFFFFFF AND PUSH20 0xFFFFFFFFFFFFFFFFFFFFFFFFFFFFFFFFFFFFFFFF AND DUP2 MSTORE PUSH1 0x20 ADD SWAP1 DUP2 MSTORE PUSH1 0x20 ADD PUSH0 KECCAK256 PUSH0 DUP6 PUSH20 0xFFFFFFFFFFFFFFFFFFFFFFFFFFFFFFFFFFFFFFFF AND PUSH20 0xFFFFFFFFFFFFFFFFFFFFFFFFFFFFFFFFFFFFFFFF AND DUP2 MSTORE PUSH1 0x20 ADD SWAP1 DUP2 MSTORE PUSH1 0x20 ADD PUSH0 KECCAK256 DUP2 SWAP1 SSTORE POP DUP3 PUSH20 0xFFFFFFFFFFFFFFFFFFFFFFFFFFFFFFFFFFFFFFFF AND CALLER PUSH20 0xFFFFFFFFFFFFFFFFFFFFFFFFFFFFFFFFFFFFFFFF AND PUSH32 0x8C5BE1E5EBEC7D5BD14F71427D1E84F3DD0314C0F7B2291E5B200AC8C7C3B925 DUP5 PUSH1 0x40 MLOAD PUSH2 0x8AE SWAP2 SWAP1 PUSH2 0xDFF JUMP JUMPDEST PUSH1 0x40 MLOAD DUP1 SWAP2 SUB SWAP1 LOG3 PUSH1 0x1 SWAP1 POP SWAP3 SWAP2 POP POP JUMP JUMPDEST PUSH1 0x5 PUSH0 SWAP1 SLOAD SWAP1 PUSH2 0x100 EXP SWAP1 DIV PUSH20 0xFFFFFFFFFFFFFFFFFFFFFFFFFFFFFFFFFFFFFFFF AND DUP2 JUMP JUMPDEST PUSH0 PUSH2 0x925 DUP4 PUSH1 0x40 MLOAD DUP1 PUSH1 0x40 ADD PUSH1 0x40 MSTORE DUP1 PUSH1 0x2 DUP2 MSTORE PUSH1 0x20 ADD PUSH32 0x544F000000000000000000000000000000000000000000000000000000000000 DUP2 MSTORE POP PUSH2 0xAB7 JUMP JUMPDEST PUSH2 0x9A2 PUSH1 0x3 PUSH0 CALLER PUSH20 0xFFFFFFFFFFFFFFFFFFFFFFFFFFFFFFFFFFFFFFFF AND PUSH20 0xFFFFFFFFFFFFFFFFFFFFFFFFFFFFFFFFFFFFFFFF AND DUP2 MSTORE PUSH1 0x20 ADD SWAP1 DUP2 MSTORE PUSH1 0x20 ADD PUSH0 KECCAK256 SLOAD DUP4 PUSH1 0x40 MLOAD DUP1 PUSH1 0x40 ADD PUSH1 0x40 MSTORE DUP1 PUSH1 0x7 DUP2 MSTORE PUSH1 0x20 ADD PUSH32 0x62616C616E636500000000000000000000000000000000000000000000000000 DUP2 MSTORE POP PUSH2 0xB4D JUMP JUMPDEST DUP2 PUSH1 0x3 PUSH0 CALLER PUSH20 0xFFFFFFFFFFFFFFFFFFFFFFFFFFFFFFFFFFFFFFFF AND PUSH20 0xFFFFFFFFFFFFFFFFFFFFFFFFFFFFFFFFFFFFFFFF AND DUP2 MSTORE PUSH1 0x20 ADD SWAP1 DUP2 MSTORE PUSH1 0x20 ADD PUSH0 KECCAK256 PUSH0 DUP3 DUP3 SLOAD PUSH2 0x9EE SWAP2 SWAP1 PUSH2 0xD8A JUMP JUMPDEST SWAP3 POP POP DUP2 SWAP1 SSTORE POP DUP2 PUSH1 0x3 PUSH0 DUP6 PUSH20 0xFFFFFFFFFFFFFFFFFFFFFFFFFFFFFFFFFFFFFFFF AND PUSH20 0xFFFFFFFFFFFFFFFFFFFFFFFFFFFFFFFFFFFFFFFF AND DUP2 MSTORE PUSH1 0x20 ADD SWAP1 DUP2 MSTORE PUSH1 0x20 ADD PUSH0 KECCAK256 PUSH0 DUP3 DUP3 SLOAD PUSH2 0xA41 SWAP2 SWAP1 PUSH2 0xDBD JUMP JUMPDEST SWAP3 POP POP DUP2 SWAP1 SSTORE POP DUP3 PUSH20 0xFFFFFFFFFFFFFFFFFFFFFFFFFFFFFFFFFFFFFFFF AND CALLER PUSH20 0xFFFFFFFFFFFFFFFFFFFFFFFFFFFFFFFFFFFFFFFF AND PUSH32 0xDDF252AD1BE2C89B69C2B068FC378DAA952BA7F163C4A11628F55A4DF523B3EF DUP5 PUSH1 0x40 MLOAD PUSH2 0xAA5 SWAP2 SWAP1 PUSH2 0xDFF JUMP JUMPDEST PUSH1 0x40 MLOAD DUP1 SWAP2 SUB SWAP1 LOG3 PUSH1 0x1 SWAP1 POP SWAP3 SWAP2 POP POP JUMP JUMPDEST PUSH0 PUSH20 0xFFFFFFFFFFFFFFFFFFFFFFFFFFFFFFFFFFFFFFFF AND DUP3 PUSH20 0xFFFFFFFFFFFFFFFFFFFFFFFFFFFFFFFFFFFFFFFF AND EQ ISZERO DUP2 PUSH1 0x40 MLOAD PUSH1 0x20 ADD PUSH2 0xAF8 SWAP2 SWAP1 PUSH2 0xF08 JUMP JUMPDEST PUSH1 0x40 MLOAD PUSH1 0x20 DUP2 DUP4 SUB SUB DUP2 MSTORE SWAP1 PUSH1 0x40 MSTORE SWAP1 PUSH2 0xB48 JUMPI PUSH1 0x40 MLOAD PUSH32 0x8C379A000000000000000000000000000000000000000000000000000000000 DUP2 MSTORE PUSH1 0x4 ADD PUSH2 0xB3F SWAP2 SWAP1 PUSH2 0xF7F JUMP JUMPDEST PUSH1 0x40 MLOAD DUP1 SWAP2 SUB SWAP1 REVERT JUMPDEST POP POP POP JUMP JUMPDEST DUP2 DUP4 LT ISZERO DUP2 PUSH1 0x40 MLOAD PUSH1 0x20 ADD PUSH2 0xB62 SWAP2 SWAP1 PUSH2 0xFC5 JUMP JUMPDEST PUSH1 0x40 MLOAD PUSH1 0x20 DUP2 DUP4 SUB SUB DUP2 MSTORE SWAP1 PUSH1 0x40 MSTORE SWAP1 PUSH2 0xBB2 JUMPI PUSH1 0x40 MLOAD PUSH32 0x8C379A000000000000000000000000000000000000000000000000000000000 DUP2 MSTORE PUSH1 0x4 ADD PUSH2 0xBA9 SWAP2 SWAP1 PUSH2 0xF7F JUMP JUMPDEST PUSH1 0x40 MLOAD DUP1 SWAP2 SUB SWAP1 REVERT JUMPDEST POP POP POP POP JUMP JUMPDEST PUSH0 PUSH0 REVERT JUMPDEST PUSH0 PUSH20 0xFFFFFFFFFFFFFFFFFFFFFFFFFFFFFFFFFFFFFFFF DUP3 AND SWAP1 POP SWAP2 SWAP1 POP JUMP JUMPDEST PUSH0 PUSH2 0xBE5 DUP3 PUSH2 0xBBC JUMP JUMPDEST SWAP1 POP SWAP2 SWAP1 POP JUMP JUMPDEST PUSH2 0xBF5 DUP2 PUSH2 0xBDB JUMP JUMPDEST DUP2 EQ PUSH2 0xBFF JUMPI PUSH0 PUSH0 REVERT JUMPDEST POP JUMP JUMPDEST PUSH0 DUP2 CALLDATALOAD SWAP1 POP PUSH2 0xC10 DUP2 PUSH2 0xBEC JUMP JUMPDEST SWAP3 SWAP2 POP POP JUMP JUMPDEST PUSH0 DUP2 SWAP1 POP SWAP2 SWAP1 POP JUMP JUMPDEST PUSH2 0xC28 DUP2 PUSH2 0xC16 JUMP JUMPDEST DUP2 EQ PUSH2 0xC32 JUMPI PUSH0 PUSH0 REVERT JUMPDEST POP JUMP JUMPDEST PUSH0 DUP2 CALLDATALOAD SWAP1 POP PUSH2 0xC43 DUP2 PUSH2 0xC1F JUMP JUMPDEST SWAP3 SWAP2 POP POP JUMP JUMPDEST PUSH0 PUSH0 PUSH0 PUSH1 0x60 DUP5 DUP7 SUB SLT ISZERO PUSH2 0xC60 JUMPI PUSH2 0xC5F PUSH2 0xBB8 JUMP JUMPDEST JUMPDEST PUSH0 PUSH2 0xC6D DUP7 DUP3 DUP8 ADD PUSH2 0xC02 JUMP JUMPDEST SWAP4 POP POP PUSH1 0x20 PUSH2 0xC7E DUP7 DUP3 DUP8 ADD PUSH2 0xC02 JUMP JUMPDEST SWAP3 POP POP PUSH1 0x40 PUSH2 0xC8F DUP7 DUP3 DUP8 ADD PUSH2 0xC35 JUMP JUMPDEST SWAP2 POP POP SWAP3 POP SWAP3 POP SWAP3 JUMP JUMPDEST PUSH0 DUP2 ISZERO ISZERO SWAP1 POP SWAP2 SWAP1 POP JUMP JUMPDEST PUSH2 0xCAD DUP2 PUSH2 0xC99 JUMP JUMPDEST DUP3 MSTORE POP POP JUMP JUMPDEST PUSH0 PUSH1 0x20 DUP3 ADD SWAP1 POP PUSH2 0xCC6 PUSH0 DUP4 ADD DUP5 PUSH2 0xCA4 JUMP JUMPDEST SWAP3 SWAP2 POP POP JUMP JUMPDEST PUSH0 PUSH0 PUSH1 0x40 DUP4 DUP6 SUB SLT ISZERO PUSH2 0xCE2 JUMPI PUSH2 0xCE1 PUSH2 0xBB8 JUMP JUMPDEST JUMPDEST PUSH0 PUSH2 0xCEF DUP6 DUP3 DUP7 ADD PUSH2 0xC02 JUMP JUMPDEST SWAP3 POP POP PUSH1 0x20 PUSH2 0xD00 DUP6 DUP3 DUP7 ADD PUSH2 0xC35 JUMP JUMPDEST SWAP2 POP POP SWAP3 POP SWAP3 SWAP1 POP JUMP JUMPDEST PUSH0 PUSH1 0x20 DUP3 DUP5 SUB SLT ISZERO PUSH2 0xD1F JUMPI PUSH2 0xD1E PUSH2 0xBB8 JUMP JUMPDEST JUMPDEST PUSH0 PUSH2 0xD2C DUP5 DUP3 DUP6 ADD PUSH2 0xC35 JUMP JUMPDEST SWAP2 POP POP SWAP3 SWAP2 POP POP JUMP JUMPDEST PUSH2 0xD3E DUP2 PUSH2 0xBDB JUMP JUMPDEST DUP3 MSTORE POP POP JUMP JUMPDEST PUSH0 PUSH1 0x20 DUP3 ADD SWAP1 POP PUSH2 0xD57 PUSH0 DUP4 ADD DUP5 PUSH2 0xD35 JUMP JUMPDEST SWAP3 SWAP2 POP POP JUMP JUMPDEST PUSH32 0x4E487B7100000000000000000000000000000000000000000000000000000000 PUSH0 MSTORE PUSH1 0x11 PUSH1 0x4 MSTORE PUSH1 0x24 PUSH0 REVERT JUMPDEST PUSH0 PUSH2 0xD94 DUP3 PUSH2 0xC16 JUMP JUMPDEST SWAP2 POP PUSH2 0xD9F DUP4 PUSH2 0xC16 JUMP JUMPDEST SWAP3 POP DUP3 DUP3 SUB SWAP1 POP DUP2 DUP2 GT ISZERO PUSH2 0xDB7 JUMPI PUSH2 0xDB6 PUSH2 0xD5D JUMP JUMPDEST JUMPDEST SWAP3 SWAP2 POP POP JUMP JUMPDEST PUSH0 PUSH2 0xDC7 DUP3 PUSH2 0xC16 JUMP JUMPDEST SWAP2 POP PUSH2 0xDD2 DUP4 PUSH2 0xC16 JUMP JUMPDEST SWAP3 POP DUP3 DUP3 ADD SWAP1 POP DUP1 DUP3 GT ISZERO PUSH2 0xDEA JUMPI PUSH2 0xDE9 PUSH2 0xD5D JUMP JUMPDEST JUMPDEST SWAP3 SWAP2 POP POP JUMP JUMPDEST PUSH2 0xDF9 DUP2 PUSH2 0xC16 JUMP JUMPDEST DUP3 MSTORE POP POP JUMP JUMPDEST PUSH0 PUSH1 0x20 DUP3 ADD SWAP1 POP PUSH2 0xE12 PUSH0 DUP4 ADD DUP5 PUSH2 0xDF0 JUMP JUMPDEST SWAP3 SWAP2 POP POP JUMP JUMPDEST PUSH0 DUP3 DUP3 MSTORE PUSH1 0x20 DUP3 ADD SWAP1 POP SWAP3 SWAP2 POP POP JUMP JUMPDEST PUSH32 0x4F6E6C79206F776E65722063616E2063616C6C20746869730000000000000000 PUSH0 DUP3 ADD MSTORE POP JUMP JUMPDEST PUSH0 PUSH2 0xE5C PUSH1 0x18 DUP4 PUSH2 0xE18 JUMP JUMPDEST SWAP2 POP PUSH2 0xE67 DUP3 PUSH2 0xE28 JUMP JUMPDEST PUSH1 0x20 DUP3 ADD SWAP1 POP SWAP2 SWAP1 POP JUMP JUMPDEST PUSH0 PUSH1 0x20 DUP3 ADD SWAP1 POP DUP2 DUP2 SUB PUSH0 DUP4 ADD MSTORE PUSH2 0xE89 DUP2 PUSH2 0xE50 JUMP JUMPDEST SWAP1 POP SWAP2 SWAP1 POP JUMP JUMPDEST PUSH0 DUP2 MLOAD SWAP1 POP SWAP2 SWAP1 POP JUMP JUMPDEST PUSH0 DUP2 SWAP1 POP SWAP3 SWAP2 POP POP JUMP JUMPDEST DUP3 DUP2 DUP4 MCOPY PUSH0 DUP4 DUP4 ADD MSTORE POP POP POP JUMP JUMPDEST PUSH0 PUSH2 0xEBC DUP3 PUSH2 0xE90 JUMP JUMPDEST PUSH2 0xEC6 DUP2 DUP6 PUSH2 0xE9A JUMP JUMPDEST SWAP4 POP PUSH2 0xED6 DUP2 DUP6 PUSH1 0x20 DUP7 ADD PUSH2 0xEA4 JUMP JUMPDEST DUP1 DUP5 ADD SWAP2 POP POP SWAP3 SWAP2 POP POP JUMP JUMPDEST PUSH32 0x207A65726F206164647265737300000000000000000000000000000000000000 DUP2 MSTORE POP JUMP JUMPDEST PUSH0 PUSH2 0xF13 DUP3 DUP5 PUSH2 0xEB2 JUMP JUMPDEST SWAP2 POP PUSH2 0xF1E DUP3 PUSH2 0xEE2 JUMP JUMPDEST PUSH1 0xD DUP3 ADD SWAP2 POP DUP2 SWAP1 POP SWAP3 SWAP2 POP POP JUMP JUMPDEST PUSH0 DUP2 MLOAD SWAP1 POP SWAP2 SWAP1 POP JUMP JUMPDEST PUSH0 PUSH1 0x1F NOT PUSH1 0x1F DUP4 ADD AND SWAP1 POP SWAP2 SWAP1 POP JUMP JUMPDEST PUSH0 PUSH2 0xF51 DUP3 PUSH2 0xF2D JUMP JUMPDEST PUSH2 0xF5B DUP2 DUP6 PUSH2 0xE18 JUMP JUMPDEST SWAP4 POP PUSH2 0xF6B DUP2 DUP6 PUSH1 0x20 DUP7 ADD PUSH2 0xEA4 JUMP JUMPDEST PUSH2 0xF74 DUP2 PUSH2 0xF37 JUMP JUMPDEST DUP5 ADD SWAP2 POP POP SWAP3 SWAP2 POP POP JUMP JUMPDEST PUSH0 PUSH1 0x20 DUP3 ADD SWAP1 POP DUP2 DUP2 SUB PUSH0 DUP4 ADD MSTORE PUSH2 0xF97 DUP2 DUP5 PUSH2 0xF47 JUMP JUMPDEST SWAP1 POP SWAP3 SWAP2 POP POP JUMP JUMPDEST PUSH32 0x496E73756666696369656E742000000000000000000000000000000000000000 DUP2 MSTORE POP JUMP JUMPDEST PUSH0 PUSH2 0xFCF DUP3 PUSH2 0xF9F JUMP JUMPDEST PUSH1 0xD DUP3 ADD SWAP2 POP PUSH2 0xFDF DUP3 DUP5 PUSH2 0xEB2 JUMP JUMPDEST SWAP2 POP DUP2 SWAP1 POP SWAP3 SWAP2 POP POP JUMP INVALID LOG2 PUSH5 0x6970667358 0x22 SLT KECCAK256 0xCD 0xDA BASEFEE PUSH3 0x6EB1DB OR PUSH15 0xAC3955D4C7197B995CB5A8E2CF8C6E LOG3 SWAP10 RETF 0xB8 CODECOPY DUPN 0xFC 0xDC PUSH5 0x736F6C6343 STOP ADDMOD 0x1E STOP CALLER "
				},
				"gasEstimates": {
					"creation": {
						"codeDepositCost": "825600",
						"executionCost": "infinite",
						"totalCost": "infinite"
					},
					"external": {
						"approval(address,uint256)": "infinite",
						"burn(uint256)": "infinite",
						"mint(address,uint256)": "infinite",
						"owner()": "2574",
						"transfer(address,uint256)": "infinite",
						"transferFrom(address,address,uint256)": "infinite"
					},
					"internal": {
						"checkAddress(address,string memory)": "infinite",
						"checkBalance(uint256,uint256,string memory)": "infinite"
					}
				},
				"methodIdentifiers": {
					"approval(address,uint256)": "75247a58",
					"burn(uint256)": "42966c68",
					"mint(address,uint256)": "40c10f19",
					"owner()": "8da5cb5b",
					"transfer(address,uint256)": "a9059cbb",
					"transferFrom(address,address,uint256)": "23b872dd"
				}
			},
			"storageLayout": {
				"storage": [
					{
						"astId": 4,
						"contract": "lesson/lesson05/TokenWithMintBurn.sol:TokenWithMintBurn",
						"label": "name",
						"offset": 0,
						"slot": "0",
						"type": "t_string_storage"
					},
					{
						"astId": 7,
						"contract": "lesson/lesson05/TokenWithMintBurn.sol:TokenWithMintBurn",
						"label": "symbol",
						"offset": 0,
						"slot": "1",
						"type": "t_string_storage"
					},
					{
						"astId": 12,
						"contract": "lesson/lesson05/TokenWithMintBurn.sol:TokenWithMintBurn",
						"label": "totalSupply",
						"offset": 0,
						"slot": "2",
						"type": "t_uint256"
					},
					{
						"astId": 16,
						"contract": "lesson/lesson05/TokenWithMintBurn.sol:TokenWithMintBurn",
						"label": "balanceOf",
						"offset": 0,
						"slot": "3",
						"type": "t_mapping(t_address,t_uint256)"
					},
					{
						"astId": 22,
						"contract": "lesson/lesson05/TokenWithMintBurn.sol:TokenWithMintBurn",
						"label": "allowance",
						"offset": 0,
						"slot": "4",
						"type": "t_mapping(t_address,t_mapping(t_address,t_uint256))"
					},
					{
						"astId": 24,
						"contract": "lesson/lesson05/TokenWithMintBurn.sol:TokenWithMintBurn",
						"label": "owner",
						"offset": 0,
						"slot": "5",
						"type": "t_address"
					}
				],
				"types": {
					"t_address": {
						"encoding": "inplace",
						"label": "address",
						"numberOfBytes": "20"
					},
					"t_mapping(t_address,t_mapping(t_address,t_uint256))": {
						"encoding": "mapping",
						"key": "t_address",
						"label": "mapping(address => mapping(address => uint256))",
						"numberOfBytes": "32",
						"value": "t_mapping(t_address,t_uint256)"
					},
					"t_mapping(t_address,t_uint256)": {
						"encoding": "mapping",
						"key": "t_address",
						"label": "mapping(address => uint256)",
						"numberOfBytes": "32",
						"value": "t_uint256"
					},
					"t_string_storage": {
						"encoding": "bytes",
						"label": "string",
						"numberOfBytes": "32"
					},
					"t_uint256": {
						"encoding": "inplace",
						"label": "uint256",
						"numberOfBytes": "32"
					}
				}
			},
			"userdoc": {
				"kind": "user",
				"methods": {},
				"version": 1
			}
		}
	}
}