{
	"lesson/lesson05/MyTokenWork.sol": {
		"MyTokenWork": {
			"abi": [
				{
					"inputs": [
						{
							"internalType": "string",
							"name": "_name",
							"type": "string"
						},
						{
							"internalType": "string",
							"name": "_symbol",
							"type": "string"
						},
						{
							"internalType": "uint256",
							"name": "_initialSupply",
							"type": "uint256"
						}
					],
					"stateMutability": "nonpayable",
					"type": "constructor"
				},
				{
					"anonymous": false,
					"inputs": [
						{
							"indexed": true,
							"internalType": "address",
							"name": "from",
							"type": "address"
						},
						{
							"indexed": true,
							"internalType": "address",
							"name": "spender",
							"type": "address"
						},
						{
							"indexed": false,
							"internalType": "uint256",
							"name": "amount",
							"type": "uint256"
						}
					],
					"name": "Approval",
					"type": "event"
				},
				{
					"anonymous": false,
					"inputs": [
						{
							"indexed": true,
							"internalType": "address",
							"name": "from",
							"type": "address"
						},
						{
							"indexed": true,
							"internalType": "address",
							"name": "to",
							"type": "address"
						},
						{
							"indexed": false,
							"internalType": "uint256",
							"name": "amount",
							"type": "uint256"
						}
					],
					"name": "Transfer",
					"type": "event"
				},
				{
					"inputs": [
						{
							"internalType": "address",
							"name": "",
							"type": "address"
						},
						{
							"internalType": "address",
							"name": "",
							"type": "address"
						}
					],
					"name": "allowance",
					"outputs": [
						{
							"internalType": "uint256",
							"name": "",
							"type": "uint256"
						}
					],
					"stateMutability": "view",
					"type": "function"
				},
				{
					"inputs": [
						{
							"internalType": "address",
							"name": "spender",
							"type": "address"
						},
						{
							"internalType": "uint256",
							"name": "amount",
							"type": "uint256"
						}
					],
					"name": "approval",
					"outputs": [
						{
							"internalType": "bool",
							"name": "",
							"type": "bool"
						}
					],
					"stateMutability": "nonpayable",
					"type": "function"
				},
				{
					"inputs": [
						{
							"internalType": "address",
							"name": "",
							"type": "address"
						}
					],
					"name": "balanceMp",
					"outputs": [
						{
							"internalType": "uint256",
							"name": "",
							"type": "uint256"
						}
					],
					"stateMutability": "view",
					"type": "function"
				},
				{
					"inputs": [
						{
							"internalType": "address[]",
							"name": "addArr",
							"type": "address[]"
						},
						{
							"internalType": "uint256[]",
							"name": "amountArr",
							"type": "uint256[]"
						}
					],
					"name": "batchTransfer",
					"outputs": [
						{
							"internalType": "bool",
							"name": "",
							"type": "bool"
						}
					],
					"stateMutability": "nonpayable",
					"type": "function"
				},
				{
					"inputs": [
						{
							"internalType": "uint256",
							"name": "amount",
							"type": "uint256"
						}
					],
					"name": "burn",
					"outputs": [
						{
							"internalType": "bool",
							"name": "",
							"type": "bool"
						}
					],
					"stateMutability": "nonpayable",
					"type": "function"
				},
				{
					"inputs": [
						{
							"internalType": "address",
							"name": "to",
							"type": "address"
						},
						{
							"internalType": "uint256",
							"name": "amount",
							"type": "uint256"
						}
					],
					"name": "mint",
					"outputs": [
						{
							"internalType": "bool",
							"name": "",
							"type": "bool"
						}
					],
					"stateMutability": "nonpayable",
					"type": "function"
				},
				{
					"inputs": [
						{
							"internalType": "address",
							"name": "to",
							"type": "address"
						},
						{
							"internalType": "uint256",
							"name": "amount",
							"type": "uint256"
						}
					],
					"name": "transfer",
					"outputs": [
						{
							"internalType": "bool",
							"name": "",
							"type": "bool"
						}
					],
					"stateMutability": "nonpayable",
					"type": "function"
				},
				{
					"inputs": [
						{
							"internalType": "address",
							"name": "from",
							"type": "address"
						},
						{
							"internalType": "address",
							"name": "to",
							"type": "address"
						},
						{
							"internalType": "uint256",
							"name": "amount",
							"type": "uint256"
						}
					],
					"name": "transferFrom",
					"outputs": [
						{
							"internalType": "bool",
							"name": "",
							"type": "bool"
						}
					],
					"stateMutability": "nonpayable",
					"type": "function"
				}
			],
			"devdoc": {
				"kind": "dev",
				"methods": {},
				"version": 1
			},
			"evm": {
				"assembly": "    /* \"lesson/lesson05/MyTokenWork.sol\":61:4882  contract MyTokenWork {... */\n  mstore(0x40, 0x80)\n    /* \"lesson/lesson05/MyTokenWork.sol\":641:1004  constructor(... */\n  callvalue\n  dup1\n  iszero\n  tag_1\n  jumpi\n  revert(0x00, 0x00)\ntag_1:\n  pop\n  mload(0x40)\n  sub(codesize, bytecodeSize)\n  dup1\n  bytecodeSize\n  dup4\n  codecopy\n  dup2\n  dup2\n  add\n  0x40\n  mstore\n  dup2\n  add\n  swap1\n  tag_2\n  swap2\n  swap1\n  tag_3\n  jump\t// in\ntag_2:\n    /* \"lesson/lesson05/MyTokenWork.sol\":772:777  _name */\n  dup3\n    /* \"lesson/lesson05/MyTokenWork.sol\":765:769  name */\n  0x00\n    /* \"lesson/lesson05/MyTokenWork.sol\":765:777  name = _name */\n  swap1\n  dup2\n  tag_6\n  swap2\n  swap1\n  tag_7\n  jump\t// in\ntag_6:\n  pop\n    /* \"lesson/lesson05/MyTokenWork.sol\":797:804  _symbol */\n  dup2\n    /* \"lesson/lesson05/MyTokenWork.sol\":788:794  symbol */\n  0x01\n    /* \"lesson/lesson05/MyTokenWork.sol\":788:804  symbol = _symbol */\n  swap1\n  dup2\n  tag_8\n  swap2\n  swap1\n  tag_7\n  jump\t// in\ntag_8:\n  pop\n    /* \"lesson/lesson05/MyTokenWork.sol\":177:179  18 */\n  0x12\n    /* \"lesson/lesson05/MyTokenWork.sol\":846:848  10 */\n  0x0a\n    /* \"lesson/lesson05/MyTokenWork.sol\":846:858  10**decimals */\n  tag_9\n  swap2\n  swap1\n  tag_10\n  jump\t// in\ntag_9:\n    /* \"lesson/lesson05/MyTokenWork.sol\":829:843  _initialSupply */\n  dup2\n    /* \"lesson/lesson05/MyTokenWork.sol\":829:858  _initialSupply * 10**decimals */\n  tag_11\n  swap2\n  swap1\n  tag_12\n  jump\t// in\ntag_11:\n    /* \"lesson/lesson05/MyTokenWork.sol\":815:826  totalSupply */\n  0x02\n    /* \"lesson/lesson05/MyTokenWork.sol\":815:858  totalSupply = _initialSupply * 10**decimals */\n  dup2\n  swap1\n  sstore\n  pop\n    /* \"lesson/lesson05/MyTokenWork.sol\":879:889  msg.sender */\n  caller\n    /* \"lesson/lesson05/MyTokenWork.sol\":871:876  owner */\n  0x05\n  0x00\n    /* \"lesson/lesson05/MyTokenWork.sol\":871:889  owner = msg.sender */\n  0x0100\n  exp\n  dup2\n  sload\n  dup2\n  0xffffffffffffffffffffffffffffffffffffffff\n  mul\n  not\n  and\n  swap1\n  dup4\n  0xffffffffffffffffffffffffffffffffffffffff\n  and\n  mul\n  or\n  swap1\n  sstore\n  pop\n    /* \"lesson/lesson05/MyTokenWork.sol\":924:935  totalSupply */\n  sload(0x02)\n    /* \"lesson/lesson05/MyTokenWork.sol\":900:909  balanceMp */\n  0x03\n    /* \"lesson/lesson05/MyTokenWork.sol\":900:921  balanceMp[msg.sender] */\n  0x00\n    /* \"lesson/lesson05/MyTokenWork.sol\":910:920  msg.sender */\n  caller\n    /* \"lesson/lesson05/MyTokenWork.sol\":900:921  balanceMp[msg.sender] */\n  0xffffffffffffffffffffffffffffffffffffffff\n  and\n  0xffffffffffffffffffffffffffffffffffffffff\n  and\n  dup2\n  mstore\n  0x20\n  add\n  swap1\n  dup2\n  mstore\n  0x20\n  add\n  0x00\n  keccak256\n    /* \"lesson/lesson05/MyTokenWork.sol\":900:935  balanceMp[msg.sender] = totalSupply */\n  dup2\n  swap1\n  sstore\n  pop\n    /* \"lesson/lesson05/MyTokenWork.sol\":972:982  msg.sender */\n  caller\n    /* \"lesson/lesson05/MyTokenWork.sol\":951:996  Transfer(address(0), msg.sender, totalSupply) */\n  0xffffffffffffffffffffffffffffffffffffffff\n  and\n    /* \"lesson/lesson05/MyTokenWork.sol\":968:969  0 */\n  0x00\n    /* \"lesson/lesson05/MyTokenWork.sol\":951:996  Transfer(address(0), msg.sender, totalSupply) */\n  0xffffffffffffffffffffffffffffffffffffffff\n  and\n  0xddf252ad1be2c89b69c2b068fc378daa952ba7f163c4a11628f55a4df523b3ef\n    /* \"lesson/lesson05/MyTokenWork.sol\":984:995  totalSupply */\n  sload(0x02)\n    /* \"lesson/lesson05/MyTokenWork.sol\":951:996  Transfer(address(0), msg.sender, totalSupply) */\n  mload(0x40)\n  tag_13\n  swap2\n  swap1\n  tag_14\n  jump\t// in\ntag_13:\n  mload(0x40)\n  dup1\n  swap2\n  sub\n  swap1\n  log3\n    /* \"lesson/lesson05/MyTokenWork.sol\":641:1004  constructor(... */\n  pop\n  pop\n  pop\n    /* \"lesson/lesson05/MyTokenWork.sol\":61:4882  contract MyTokenWork {... */\n  jump(tag_15)\n    /* \"#utility.yul\":7:82   */\ntag_16:\n    /* \"#utility.yul\":40:46   */\n  0x00\n    /* \"#utility.yul\":73:75   */\n  0x40\n    /* \"#utility.yul\":67:76   */\n  mload\n    /* \"#utility.yul\":57:76   */\n  swap1\n  pop\n    /* \"#utility.yul\":7:82   */\n  swap1\n  jump\t// out\n    /* \"#utility.yul\":88:205   */\ntag_17:\n    /* \"#utility.yul\":197:198   */\n  0x00\n    /* \"#utility.yul\":194:195   */\n  0x00\n    /* \"#utility.yul\":187:199   */\n  revert\n    /* \"#utility.yul\":211:328   */\ntag_18:\n    /* \"#utility.yul\":320:321   */\n  0x00\n    /* \"#utility.yul\":317:318   */\n  0x00\n    /* \"#utility.yul\":310:322   */\n  revert\n    /* \"#utility.yul\":334:451   */\ntag_19:\n    /* \"#utility.yul\":443:444   */\n  0x00\n    /* \"#utility.yul\":440:441   */\n  0x00\n    /* \"#utility.yul\":433:445   */\n  revert\n    /* \"#utility.yul\":457:574   */\ntag_20:\n    /* \"#utility.yul\":566:567   */\n  0x00\n    /* \"#utility.yul\":563:564   */\n  0x00\n    /* \"#utility.yul\":556:568   */\n  revert\n    /* \"#utility.yul\":580:682   */\ntag_21:\n    /* \"#utility.yul\":621:627   */\n  0x00\n    /* \"#utility.yul\":672:674   */\n  0x1f\n    /* \"#utility.yul\":668:675   */\n  not\n    /* \"#utility.yul\":663:665   */\n  0x1f\n    /* \"#utility.yul\":656:661   */\n  dup4\n    /* \"#utility.yul\":652:666   */\n  add\n    /* \"#utility.yul\":648:676   */\n  and\n    /* \"#utility.yul\":638:676   */\n  swap1\n  pop\n    /* \"#utility.yul\":580:682   */\n  swap2\n  swap1\n  pop\n  jump\t// out\n    /* \"#utility.yul\":688:868   */\ntag_22:\n    /* \"#utility.yul\":736:813   */\n  0x4e487b7100000000000000000000000000000000000000000000000000000000\n    /* \"#utility.yul\":733:734   */\n  0x00\n    /* \"#utility.yul\":726:814   */\n  mstore\n    /* \"#utility.yul\":833:837   */\n  0x41\n    /* \"#utility.yul\":830:831   */\n  0x04\n    /* \"#utility.yul\":823:838   */\n  mstore\n    /* \"#utility.yul\":857:861   */\n  0x24\n    /* \"#utility.yul\":854:855   */\n  0x00\n    /* \"#utility.yul\":847:862   */\n  revert\n    /* \"#utility.yul\":874:1155   */\ntag_23:\n    /* \"#utility.yul\":957:984   */\n  tag_65\n    /* \"#utility.yul\":979:983   */\n  dup3\n    /* \"#utility.yul\":957:984   */\n  tag_21\n  jump\t// in\ntag_65:\n    /* \"#utility.yul\":949:955   */\n  dup2\n    /* \"#utility.yul\":945:985   */\n  add\n    /* \"#utility.yul\":1087:1093   */\n  dup2\n    /* \"#utility.yul\":1075:1085   */\n  dup2\n    /* \"#utility.yul\":1072:1094   */\n  lt\n    /* \"#utility.yul\":1051:1069   */\n  0xffffffffffffffff\n    /* \"#utility.yul\":1039:1049   */\n  dup3\n    /* \"#utility.yul\":1036:1070   */\n  gt\n    /* \"#utility.yul\":1033:1095   */\n  or\n    /* \"#utility.yul\":1030:1118   */\n  iszero\n  tag_66\n  jumpi\n    /* \"#utility.yul\":1098:1116   */\n  tag_67\n  tag_22\n  jump\t// in\ntag_67:\n    /* \"#utility.yul\":1030:1118   */\ntag_66:\n    /* \"#utility.yul\":1138:1148   */\n  dup1\n    /* \"#utility.yul\":1134:1136   */\n  0x40\n    /* \"#utility.yul\":1127:1149   */\n  mstore\n    /* \"#utility.yul\":917:1155   */\n  pop\n    /* \"#utility.yul\":874:1155   */\n  pop\n  pop\n  jump\t// out\n    /* \"#utility.yul\":1161:1290   */\ntag_24:\n    /* \"#utility.yul\":1195:1201   */\n  0x00\n    /* \"#utility.yul\":1222:1242   */\n  tag_69\n  tag_16\n  jump\t// in\ntag_69:\n    /* \"#utility.yul\":1212:1242   */\n  swap1\n  pop\n    /* \"#utility.yul\":1251:1284   */\n  tag_70\n    /* \"#utility.yul\":1279:1283   */\n  dup3\n    /* \"#utility.yul\":1271:1277   */\n  dup3\n    /* \"#utility.yul\":1251:1284   */\n  tag_23\n  jump\t// in\ntag_70:\n    /* \"#utility.yul\":1161:1290   */\n  swap2\n  swap1\n  pop\n  jump\t// out\n    /* \"#utility.yul\":1296:1604   */\ntag_25:\n    /* \"#utility.yul\":1358:1362   */\n  0x00\n    /* \"#utility.yul\":1448:1466   */\n  0xffffffffffffffff\n    /* \"#utility.yul\":1440:1446   */\n  dup3\n    /* \"#utility.yul\":1437:1467   */\n  gt\n    /* \"#utility.yul\":1434:1490   */\n  iszero\n  tag_72\n  jumpi\n    /* \"#utility.yul\":1470:1488   */\n  tag_73\n  tag_22\n  jump\t// in\ntag_73:\n    /* \"#utility.yul\":1434:1490   */\ntag_72:\n    /* \"#utility.yul\":1508:1537   */\n  tag_74\n    /* \"#utility.yul\":1530:1536   */\n  dup3\n    /* \"#utility.yul\":1508:1537   */\n  tag_21\n  jump\t// in\ntag_74:\n    /* \"#utility.yul\":1500:1537   */\n  swap1\n  pop\n    /* \"#utility.yul\":1592:1596   */\n  0x20\n    /* \"#utility.yul\":1586:1590   */\n  dup2\n    /* \"#utility.yul\":1582:1597   */\n  add\n    /* \"#utility.yul\":1574:1597   */\n  swap1\n  pop\n    /* \"#utility.yul\":1296:1604   */\n  swap2\n  swap1\n  pop\n  jump\t// out\n    /* \"#utility.yul\":1610:1749   */\ntag_26:\n    /* \"#utility.yul\":1699:1705   */\n  dup3\n    /* \"#utility.yul\":1694:1697   */\n  dup2\n    /* \"#utility.yul\":1689:1692   */\n  dup4\n    /* \"#utility.yul\":1683:1706   */\n  mcopy\n    /* \"#utility.yul\":1740:1741   */\n  0x00\n    /* \"#utility.yul\":1731:1737   */\n  dup4\n    /* \"#utility.yul\":1726:1729   */\n  dup4\n    /* \"#utility.yul\":1722:1738   */\n  add\n    /* \"#utility.yul\":1715:1742   */\n  mstore\n    /* \"#utility.yul\":1610:1749   */\n  pop\n  pop\n  pop\n  jump\t// out\n    /* \"#utility.yul\":1755:2189   */\ntag_27:\n    /* \"#utility.yul\":1844:1849   */\n  0x00\n    /* \"#utility.yul\":1869:1935   */\n  tag_77\n    /* \"#utility.yul\":1885:1934   */\n  tag_78\n    /* \"#utility.yul\":1927:1933   */\n  dup5\n    /* \"#utility.yul\":1885:1934   */\n  tag_25\n  jump\t// in\ntag_78:\n    /* \"#utility.yul\":1869:1935   */\n  tag_24\n  jump\t// in\ntag_77:\n    /* \"#utility.yul\":1860:1935   */\n  swap1\n  pop\n    /* \"#utility.yul\":1958:1964   */\n  dup3\n    /* \"#utility.yul\":1951:1956   */\n  dup2\n    /* \"#utility.yul\":1944:1965   */\n  mstore\n    /* \"#utility.yul\":1996:2000   */\n  0x20\n    /* \"#utility.yul\":1989:1994   */\n  dup2\n    /* \"#utility.yul\":1985:2001   */\n  add\n    /* \"#utility.yul\":2034:2037   */\n  dup5\n    /* \"#utility.yul\":2025:2031   */\n  dup5\n    /* \"#utility.yul\":2020:2023   */\n  dup5\n    /* \"#utility.yul\":2016:2032   */\n  add\n    /* \"#utility.yul\":2013:2038   */\n  gt\n    /* \"#utility.yul\":2010:2122   */\n  iszero\n  tag_79\n  jumpi\n    /* \"#utility.yul\":2041:2120   */\n  tag_80\n  tag_20\n  jump\t// in\ntag_80:\n    /* \"#utility.yul\":2010:2122   */\ntag_79:\n    /* \"#utility.yul\":2131:2183   */\n  tag_81\n    /* \"#utility.yul\":2176:2182   */\n  dup5\n    /* \"#utility.yul\":2171:2174   */\n  dup3\n    /* \"#utility.yul\":2166:2169   */\n  dup6\n    /* \"#utility.yul\":2131:2183   */\n  tag_26\n  jump\t// in\ntag_81:\n    /* \"#utility.yul\":1850:2189   */\n  pop\n    /* \"#utility.yul\":1755:2189   */\n  swap4\n  swap3\n  pop\n  pop\n  pop\n  jump\t// out\n    /* \"#utility.yul\":2209:2564   */\ntag_28:\n    /* \"#utility.yul\":2276:2281   */\n  0x00\n    /* \"#utility.yul\":2325:2328   */\n  dup3\n    /* \"#utility.yul\":2318:2322   */\n  0x1f\n    /* \"#utility.yul\":2310:2316   */\n  dup4\n    /* \"#utility.yul\":2306:2323   */\n  add\n    /* \"#utility.yul\":2302:2329   */\n  slt\n    /* \"#utility.yul\":2292:2414   */\n  tag_83\n  jumpi\n    /* \"#utility.yul\":2333:2412   */\n  tag_84\n  tag_19\n  jump\t// in\ntag_84:\n    /* \"#utility.yul\":2292:2414   */\ntag_83:\n    /* \"#utility.yul\":2443:2449   */\n  dup2\n    /* \"#utility.yul\":2437:2450   */\n  mload\n    /* \"#utility.yul\":2468:2558   */\n  tag_85\n    /* \"#utility.yul\":2554:2557   */\n  dup5\n    /* \"#utility.yul\":2546:2552   */\n  dup3\n    /* \"#utility.yul\":2539:2543   */\n  0x20\n    /* \"#utility.yul\":2531:2537   */\n  dup7\n    /* \"#utility.yul\":2527:2544   */\n  add\n    /* \"#utility.yul\":2468:2558   */\n  tag_27\n  jump\t// in\ntag_85:\n    /* \"#utility.yul\":2459:2558   */\n  swap2\n  pop\n    /* \"#utility.yul\":2282:2564   */\n  pop\n    /* \"#utility.yul\":2209:2564   */\n  swap3\n  swap2\n  pop\n  pop\n  jump\t// out\n    /* \"#utility.yul\":2570:2647   */\ntag_29:\n    /* \"#utility.yul\":2607:2614   */\n  0x00\n    /* \"#utility.yul\":2636:2641   */\n  dup2\n    /* \"#utility.yul\":2625:2641   */\n  swap1\n  pop\n    /* \"#utility.yul\":2570:2647   */\n  swap2\n  swap1\n  pop\n  jump\t// out\n    /* \"#utility.yul\":2653:2775   */\ntag_30:\n    /* \"#utility.yul\":2726:2750   */\n  tag_88\n    /* \"#utility.yul\":2744:2749   */\n  dup2\n    /* \"#utility.yul\":2726:2750   */\n  tag_29\n  jump\t// in\ntag_88:\n    /* \"#utility.yul\":2719:2724   */\n  dup2\n    /* \"#utility.yul\":2716:2751   */\n  eq\n    /* \"#utility.yul\":2706:2769   */\n  tag_89\n  jumpi\n    /* \"#utility.yul\":2765:2766   */\n  0x00\n    /* \"#utility.yul\":2762:2763   */\n  0x00\n    /* \"#utility.yul\":2755:2767   */\n  revert\n    /* \"#utility.yul\":2706:2769   */\ntag_89:\n    /* \"#utility.yul\":2653:2775   */\n  pop\n  jump\t// out\n    /* \"#utility.yul\":2781:2924   */\ntag_31:\n    /* \"#utility.yul\":2838:2843   */\n  0x00\n    /* \"#utility.yul\":2869:2875   */\n  dup2\n    /* \"#utility.yul\":2863:2876   */\n  mload\n    /* \"#utility.yul\":2854:2876   */\n  swap1\n  pop\n    /* \"#utility.yul\":2885:2918   */\n  tag_91\n    /* \"#utility.yul\":2912:2917   */\n  dup2\n    /* \"#utility.yul\":2885:2918   */\n  tag_30\n  jump\t// in\ntag_91:\n    /* \"#utility.yul\":2781:2924   */\n  swap3\n  swap2\n  pop\n  pop\n  jump\t// out\n    /* \"#utility.yul\":2930:3939   */\ntag_3:\n    /* \"#utility.yul\":3038:3044   */\n  0x00\n    /* \"#utility.yul\":3046:3052   */\n  0x00\n    /* \"#utility.yul\":3054:3060   */\n  0x00\n    /* \"#utility.yul\":3103:3105   */\n  0x60\n    /* \"#utility.yul\":3091:3100   */\n  dup5\n    /* \"#utility.yul\":3082:3089   */\n  dup7\n    /* \"#utility.yul\":3078:3101   */\n  sub\n    /* \"#utility.yul\":3074:3106   */\n  slt\n    /* \"#utility.yul\":3071:3190   */\n  iszero\n  tag_93\n  jumpi\n    /* \"#utility.yul\":3109:3188   */\n  tag_94\n  tag_17\n  jump\t// in\ntag_94:\n    /* \"#utility.yul\":3071:3190   */\ntag_93:\n    /* \"#utility.yul\":3250:3251   */\n  0x00\n    /* \"#utility.yul\":3239:3248   */\n  dup5\n    /* \"#utility.yul\":3235:3252   */\n  add\n    /* \"#utility.yul\":3229:3253   */\n  mload\n    /* \"#utility.yul\":3280:3298   */\n  0xffffffffffffffff\n    /* \"#utility.yul\":3272:3278   */\n  dup2\n    /* \"#utility.yul\":3269:3299   */\n  gt\n    /* \"#utility.yul\":3266:3383   */\n  iszero\n  tag_95\n  jumpi\n    /* \"#utility.yul\":3302:3381   */\n  tag_96\n  tag_18\n  jump\t// in\ntag_96:\n    /* \"#utility.yul\":3266:3383   */\ntag_95:\n    /* \"#utility.yul\":3407:3481   */\n  tag_97\n    /* \"#utility.yul\":3473:3480   */\n  dup7\n    /* \"#utility.yul\":3464:3470   */\n  dup3\n    /* \"#utility.yul\":3453:3462   */\n  dup8\n    /* \"#utility.yul\":3449:3471   */\n  add\n    /* \"#utility.yul\":3407:3481   */\n  tag_28\n  jump\t// in\ntag_97:\n    /* \"#utility.yul\":3397:3481   */\n  swap4\n  pop\n    /* \"#utility.yul\":3200:3491   */\n  pop\n    /* \"#utility.yul\":3551:3553   */\n  0x20\n    /* \"#utility.yul\":3540:3549   */\n  dup5\n    /* \"#utility.yul\":3536:3554   */\n  add\n    /* \"#utility.yul\":3530:3555   */\n  mload\n    /* \"#utility.yul\":3582:3600   */\n  0xffffffffffffffff\n    /* \"#utility.yul\":3574:3580   */\n  dup2\n    /* \"#utility.yul\":3571:3601   */\n  gt\n    /* \"#utility.yul\":3568:3685   */\n  iszero\n  tag_98\n  jumpi\n    /* \"#utility.yul\":3604:3683   */\n  tag_99\n  tag_18\n  jump\t// in\ntag_99:\n    /* \"#utility.yul\":3568:3685   */\ntag_98:\n    /* \"#utility.yul\":3709:3783   */\n  tag_100\n    /* \"#utility.yul\":3775:3782   */\n  dup7\n    /* \"#utility.yul\":3766:3772   */\n  dup3\n    /* \"#utility.yul\":3755:3764   */\n  dup8\n    /* \"#utility.yul\":3751:3773   */\n  add\n    /* \"#utility.yul\":3709:3783   */\n  tag_28\n  jump\t// in\ntag_100:\n    /* \"#utility.yul\":3699:3783   */\n  swap3\n  pop\n    /* \"#utility.yul\":3501:3793   */\n  pop\n    /* \"#utility.yul\":3832:3834   */\n  0x40\n    /* \"#utility.yul\":3858:3922   */\n  tag_101\n    /* \"#utility.yul\":3914:3921   */\n  dup7\n    /* \"#utility.yul\":3905:3911   */\n  dup3\n    /* \"#utility.yul\":3894:3903   */\n  dup8\n    /* \"#utility.yul\":3890:3912   */\n  add\n    /* \"#utility.yul\":3858:3922   */\n  tag_31\n  jump\t// in\ntag_101:\n    /* \"#utility.yul\":3848:3922   */\n  swap2\n  pop\n    /* \"#utility.yul\":3803:3932   */\n  pop\n    /* \"#utility.yul\":2930:3939   */\n  swap3\n  pop\n  swap3\n  pop\n  swap3\n  jump\t// out\n    /* \"#utility.yul\":3945:4044   */\ntag_32:\n    /* \"#utility.yul\":3997:4003   */\n  0x00\n    /* \"#utility.yul\":4031:4036   */\n  dup2\n    /* \"#utility.yul\":4025:4037   */\n  mload\n    /* \"#utility.yul\":4015:4037   */\n  swap1\n  pop\n    /* \"#utility.yul\":3945:4044   */\n  swap2\n  swap1\n  pop\n  jump\t// out\n    /* \"#utility.yul\":4050:4230   */\ntag_33:\n    /* \"#utility.yul\":4098:4175   */\n  0x4e487b7100000000000000000000000000000000000000000000000000000000\n    /* \"#utility.yul\":4095:4096   */\n  0x00\n    /* \"#utility.yul\":4088:4176   */\n  mstore\n    /* \"#utility.yul\":4195:4199   */\n  0x22\n    /* \"#utility.yul\":4192:4193   */\n  0x04\n    /* \"#utility.yul\":4185:4200   */\n  mstore\n    /* \"#utility.yul\":4219:4223   */\n  0x24\n    /* \"#utility.yul\":4216:4217   */\n  0x00\n    /* \"#utility.yul\":4209:4224   */\n  revert\n    /* \"#utility.yul\":4236:4556   */\ntag_34:\n    /* \"#utility.yul\":4280:4286   */\n  0x00\n    /* \"#utility.yul\":4317:4318   */\n  0x02\n    /* \"#utility.yul\":4311:4315   */\n  dup3\n    /* \"#utility.yul\":4307:4319   */\n  div\n    /* \"#utility.yul\":4297:4319   */\n  swap1\n  pop\n    /* \"#utility.yul\":4364:4365   */\n  0x01\n    /* \"#utility.yul\":4358:4362   */\n  dup3\n    /* \"#utility.yul\":4354:4366   */\n  and\n    /* \"#utility.yul\":4385:4403   */\n  dup1\n    /* \"#utility.yul\":4375:4456   */\n  tag_105\n  jumpi\n    /* \"#utility.yul\":4441:4445   */\n  0x7f\n    /* \"#utility.yul\":4433:4439   */\n  dup3\n    /* \"#utility.yul\":4429:4446   */\n  and\n    /* \"#utility.yul\":4419:4446   */\n  swap2\n  pop\n    /* \"#utility.yul\":4375:4456   */\ntag_105:\n    /* \"#utility.yul\":4503:4505   */\n  0x20\n    /* \"#utility.yul\":4495:4501   */\n  dup3\n    /* \"#utility.yul\":4492:4506   */\n  lt\n    /* \"#utility.yul\":4472:4490   */\n  dup2\n    /* \"#utility.yul\":4469:4507   */\n  sub\n    /* \"#utility.yul\":4466:4550   */\n  tag_106\n  jumpi\n    /* \"#utility.yul\":4522:4540   */\n  tag_107\n  tag_33\n  jump\t// in\ntag_107:\n    /* \"#utility.yul\":4466:4550   */\ntag_106:\n    /* \"#utility.yul\":4287:4556   */\n  pop\n    /* \"#utility.yul\":4236:4556   */\n  swap2\n  swap1\n  pop\n  jump\t// out\n    /* \"#utility.yul\":4562:4703   */\ntag_35:\n    /* \"#utility.yul\":4611:4615   */\n  0x00\n    /* \"#utility.yul\":4634:4637   */\n  dup2\n    /* \"#utility.yul\":4626:4637   */\n  swap1\n  pop\n    /* \"#utility.yul\":4657:4660   */\n  dup2\n    /* \"#utility.yul\":4654:4655   */\n  0x00\n    /* \"#utility.yul\":4647:4661   */\n  mstore\n    /* \"#utility.yul\":4691:4695   */\n  0x20\n    /* \"#utility.yul\":4688:4689   */\n  0x00\n    /* \"#utility.yul\":4678:4696   */\n  keccak256\n    /* \"#utility.yul\":4670:4696   */\n  swap1\n  pop\n    /* \"#utility.yul\":4562:4703   */\n  swap2\n  swap1\n  pop\n  jump\t// out\n    /* \"#utility.yul\":4709:4802   */\ntag_36:\n    /* \"#utility.yul\":4746:4752   */\n  0x00\n    /* \"#utility.yul\":4793:4795   */\n  0x20\n    /* \"#utility.yul\":4788:4790   */\n  0x1f\n    /* \"#utility.yul\":4781:4786   */\n  dup4\n    /* \"#utility.yul\":4777:4791   */\n  add\n    /* \"#utility.yul\":4773:4796   */\n  div\n    /* \"#utility.yul\":4763:4796   */\n  swap1\n  pop\n    /* \"#utility.yul\":4709:4802   */\n  swap2\n  swap1\n  pop\n  jump\t// out\n    /* \"#utility.yul\":4808:4915   */\ntag_37:\n    /* \"#utility.yul\":4852:4860   */\n  0x00\n    /* \"#utility.yul\":4902:4907   */\n  dup3\n    /* \"#utility.yul\":4896:4900   */\n  dup3\n    /* \"#utility.yul\":4892:4908   */\n  shl\n    /* \"#utility.yul\":4871:4908   */\n  swap1\n  pop\n    /* \"#utility.yul\":4808:4915   */\n  swap3\n  swap2\n  pop\n  pop\n  jump\t// out\n    /* \"#utility.yul\":4921:5314   */\ntag_38:\n    /* \"#utility.yul\":4990:4996   */\n  0x00\n    /* \"#utility.yul\":5040:5041   */\n  0x08\n    /* \"#utility.yul\":5028:5038   */\n  dup4\n    /* \"#utility.yul\":5024:5042   */\n  mul\n    /* \"#utility.yul\":5063:5160   */\n  tag_112\n    /* \"#utility.yul\":5093:5159   */\n  0xffffffffffffffffffffffffffffffffffffffffffffffffffffffffffffffff\n    /* \"#utility.yul\":5082:5091   */\n  dup3\n    /* \"#utility.yul\":5063:5160   */\n  tag_37\n  jump\t// in\ntag_112:\n    /* \"#utility.yul\":5181:5220   */\n  tag_113\n    /* \"#utility.yul\":5211:5219   */\n  dup7\n    /* \"#utility.yul\":5200:5209   */\n  dup4\n    /* \"#utility.yul\":5181:5220   */\n  tag_37\n  jump\t// in\ntag_113:\n    /* \"#utility.yul\":5169:5220   */\n  swap6\n  pop\n    /* \"#utility.yul\":5253:5257   */\n  dup1\n    /* \"#utility.yul\":5249:5258   */\n  not\n    /* \"#utility.yul\":5242:5247   */\n  dup5\n    /* \"#utility.yul\":5238:5259   */\n  and\n    /* \"#utility.yul\":5229:5259   */\n  swap4\n  pop\n    /* \"#utility.yul\":5302:5306   */\n  dup1\n    /* \"#utility.yul\":5292:5300   */\n  dup7\n    /* \"#utility.yul\":5288:5307   */\n  and\n    /* \"#utility.yul\":5281:5286   */\n  dup5\n    /* \"#utility.yul\":5278:5308   */\n  or\n    /* \"#utility.yul\":5268:5308   */\n  swap3\n  pop\n    /* \"#utility.yul\":4997:5314   */\n  pop\n  pop\n    /* \"#utility.yul\":4921:5314   */\n  swap4\n  swap3\n  pop\n  pop\n  pop\n  jump\t// out\n    /* \"#utility.yul\":5320:5380   */\ntag_39:\n    /* \"#utility.yul\":5348:5351   */\n  0x00\n    /* \"#utility.yul\":5369:5374   */\n  dup2\n    /* \"#utility.yul\":5362:5374   */\n  swap1\n  pop\n    /* \"#utility.yul\":5320:5380   */\n  swap2\n  swap1\n  pop\n  jump\t// out\n    /* \"#utility.yul\":5386:5528   */\ntag_40:\n    /* \"#utility.yul\":5436:5445   */\n  0x00\n    /* \"#utility.yul\":5469:5522   */\n  tag_116\n    /* \"#utility.yul\":5487:5521   */\n  tag_117\n    /* \"#utility.yul\":5496:5520   */\n  tag_118\n    /* \"#utility.yul\":5514:5519   */\n  dup5\n    /* \"#utility.yul\":5496:5520   */\n  tag_29\n  jump\t// in\ntag_118:\n    /* \"#utility.yul\":5487:5521   */\n  tag_39\n  jump\t// in\ntag_117:\n    /* \"#utility.yul\":5469:5522   */\n  tag_29\n  jump\t// in\ntag_116:\n    /* \"#utility.yul\":5456:5522   */\n  swap1\n  pop\n    /* \"#utility.yul\":5386:5528   */\n  swap2\n  swap1\n  pop\n  jump\t// out\n    /* \"#utility.yul\":5534:5609   */\ntag_41:\n    /* \"#utility.yul\":5577:5580   */\n  0x00\n    /* \"#utility.yul\":5598:5603   */\n  dup2\n    /* \"#utility.yul\":5591:5603   */\n  swap1\n  pop\n    /* \"#utility.yul\":5534:5609   */\n  swap2\n  swap1\n  pop\n  jump\t// out\n    /* \"#utility.yul\":5615:5884   */\ntag_42:\n    /* \"#utility.yul\":5725:5764   */\n  tag_121\n    /* \"#utility.yul\":5756:5763   */\n  dup4\n    /* \"#utility.yul\":5725:5764   */\n  tag_40\n  jump\t// in\ntag_121:\n    /* \"#utility.yul\":5786:5877   */\n  tag_122\n    /* \"#utility.yul\":5835:5876   */\n  tag_123\n    /* \"#utility.yul\":5859:5875   */\n  dup3\n    /* \"#utility.yul\":5835:5876   */\n  tag_41\n  jump\t// in\ntag_123:\n    /* \"#utility.yul\":5827:5833   */\n  dup5\n    /* \"#utility.yul\":5820:5824   */\n  dup5\n    /* \"#utility.yul\":5814:5825   */\n  sload\n    /* \"#utility.yul\":5786:5877   */\n  tag_38\n  jump\t// in\ntag_122:\n    /* \"#utility.yul\":5780:5784   */\n  dup3\n    /* \"#utility.yul\":5773:5878   */\n  sstore\n    /* \"#utility.yul\":5691:5884   */\n  pop\n    /* \"#utility.yul\":5615:5884   */\n  pop\n  pop\n  pop\n  jump\t// out\n    /* \"#utility.yul\":5890:5963   */\ntag_43:\n    /* \"#utility.yul\":5935:5938   */\n  0x00\n    /* \"#utility.yul\":5956:5957   */\n  0x00\n    /* \"#utility.yul\":5949:5957   */\n  swap1\n  pop\n    /* \"#utility.yul\":5890:5963   */\n  swap1\n  jump\t// out\n    /* \"#utility.yul\":5969:6158   */\ntag_44:\n    /* \"#utility.yul\":6046:6078   */\n  tag_126\n  tag_43\n  jump\t// in\ntag_126:\n    /* \"#utility.yul\":6087:6152   */\n  tag_127\n    /* \"#utility.yul\":6145:6151   */\n  dup2\n    /* \"#utility.yul\":6137:6143   */\n  dup5\n    /* \"#utility.yul\":6131:6135   */\n  dup5\n    /* \"#utility.yul\":6087:6152   */\n  tag_42\n  jump\t// in\ntag_127:\n    /* \"#utility.yul\":6022:6158   */\n  pop\n    /* \"#utility.yul\":5969:6158   */\n  pop\n  pop\n  jump\t// out\n    /* \"#utility.yul\":6164:6350   */\ntag_45:\n    /* \"#utility.yul\":6224:6344   */\ntag_129:\n    /* \"#utility.yul\":6241:6244   */\n  dup2\n    /* \"#utility.yul\":6234:6239   */\n  dup2\n    /* \"#utility.yul\":6231:6245   */\n  lt\n    /* \"#utility.yul\":6224:6344   */\n  iszero\n  tag_131\n  jumpi\n    /* \"#utility.yul\":6295:6334   */\n  tag_132\n    /* \"#utility.yul\":6332:6333   */\n  0x00\n    /* \"#utility.yul\":6325:6330   */\n  dup3\n    /* \"#utility.yul\":6295:6334   */\n  tag_44\n  jump\t// in\ntag_132:\n    /* \"#utility.yul\":6268:6269   */\n  0x01\n    /* \"#utility.yul\":6261:6266   */\n  dup2\n    /* \"#utility.yul\":6257:6270   */\n  add\n    /* \"#utility.yul\":6248:6270   */\n  swap1\n  pop\n    /* \"#utility.yul\":6224:6344   */\n  jump(tag_129)\ntag_131:\n    /* \"#utility.yul\":6164:6350   */\n  pop\n  pop\n  jump\t// out\n    /* \"#utility.yul\":6356:6899   */\ntag_46:\n    /* \"#utility.yul\":6457:6459   */\n  0x1f\n    /* \"#utility.yul\":6452:6455   */\n  dup3\n    /* \"#utility.yul\":6449:6460   */\n  gt\n    /* \"#utility.yul\":6446:6892   */\n  iszero\n  tag_134\n  jumpi\n    /* \"#utility.yul\":6491:6529   */\n  tag_135\n    /* \"#utility.yul\":6523:6528   */\n  dup2\n    /* \"#utility.yul\":6491:6529   */\n  tag_35\n  jump\t// in\ntag_135:\n    /* \"#utility.yul\":6575:6604   */\n  tag_136\n    /* \"#utility.yul\":6593:6603   */\n  dup5\n    /* \"#utility.yul\":6575:6604   */\n  tag_36\n  jump\t// in\ntag_136:\n    /* \"#utility.yul\":6565:6573   */\n  dup2\n    /* \"#utility.yul\":6561:6605   */\n  add\n    /* \"#utility.yul\":6758:6760   */\n  0x20\n    /* \"#utility.yul\":6746:6756   */\n  dup6\n    /* \"#utility.yul\":6743:6761   */\n  lt\n    /* \"#utility.yul\":6740:6789   */\n  iszero\n  tag_137\n  jumpi\n    /* \"#utility.yul\":6779:6787   */\n  dup2\n    /* \"#utility.yul\":6764:6787   */\n  swap1\n  pop\n    /* \"#utility.yul\":6740:6789   */\ntag_137:\n    /* \"#utility.yul\":6802:6882   */\n  tag_138\n    /* \"#utility.yul\":6858:6880   */\n  tag_139\n    /* \"#utility.yul\":6876:6879   */\n  dup6\n    /* \"#utility.yul\":6858:6880   */\n  tag_36\n  jump\t// in\ntag_139:\n    /* \"#utility.yul\":6848:6856   */\n  dup4\n    /* \"#utility.yul\":6844:6881   */\n  add\n    /* \"#utility.yul\":6831:6842   */\n  dup3\n    /* \"#utility.yul\":6802:6882   */\n  tag_45\n  jump\t// in\ntag_138:\n    /* \"#utility.yul\":6461:6892   */\n  pop\n  pop\n    /* \"#utility.yul\":6446:6892   */\ntag_134:\n    /* \"#utility.yul\":6356:6899   */\n  pop\n  pop\n  pop\n  jump\t// out\n    /* \"#utility.yul\":6905:7022   */\ntag_47:\n    /* \"#utility.yul\":6959:6967   */\n  0x00\n    /* \"#utility.yul\":7009:7014   */\n  dup3\n    /* \"#utility.yul\":7003:7007   */\n  dup3\n    /* \"#utility.yul\":6999:7015   */\n  shr\n    /* \"#utility.yul\":6978:7015   */\n  swap1\n  pop\n    /* \"#utility.yul\":6905:7022   */\n  swap3\n  swap2\n  pop\n  pop\n  jump\t// out\n    /* \"#utility.yul\":7028:7197   */\ntag_48:\n    /* \"#utility.yul\":7072:7078   */\n  0x00\n    /* \"#utility.yul\":7105:7156   */\n  tag_142\n    /* \"#utility.yul\":7153:7154   */\n  0x00\n    /* \"#utility.yul\":7149:7155   */\n  not\n    /* \"#utility.yul\":7141:7146   */\n  dup5\n    /* \"#utility.yul\":7138:7139   */\n  0x08\n    /* \"#utility.yul\":7134:7147   */\n  mul\n    /* \"#utility.yul\":7105:7156   */\n  tag_47\n  jump\t// in\ntag_142:\n    /* \"#utility.yul\":7101:7157   */\n  not\n    /* \"#utility.yul\":7186:7190   */\n  dup1\n    /* \"#utility.yul\":7180:7184   */\n  dup4\n    /* \"#utility.yul\":7176:7191   */\n  and\n    /* \"#utility.yul\":7166:7191   */\n  swap2\n  pop\n    /* \"#utility.yul\":7079:7197   */\n  pop\n    /* \"#utility.yul\":7028:7197   */\n  swap3\n  swap2\n  pop\n  pop\n  jump\t// out\n    /* \"#utility.yul\":7202:7497   */\ntag_49:\n    /* \"#utility.yul\":7278:7282   */\n  0x00\n    /* \"#utility.yul\":7424:7453   */\n  tag_144\n    /* \"#utility.yul\":7449:7452   */\n  dup4\n    /* \"#utility.yul\":7443:7447   */\n  dup4\n    /* \"#utility.yul\":7424:7453   */\n  tag_48\n  jump\t// in\ntag_144:\n    /* \"#utility.yul\":7416:7453   */\n  swap2\n  pop\n    /* \"#utility.yul\":7486:7489   */\n  dup3\n    /* \"#utility.yul\":7483:7484   */\n  0x02\n    /* \"#utility.yul\":7479:7490   */\n  mul\n    /* \"#utility.yul\":7473:7477   */\n  dup3\n    /* \"#utility.yul\":7470:7491   */\n  or\n    /* \"#utility.yul\":7462:7491   */\n  swap1\n  pop\n    /* \"#utility.yul\":7202:7497   */\n  swap3\n  swap2\n  pop\n  pop\n  jump\t// out\n    /* \"#utility.yul\":7502:8897   */\ntag_7:\n    /* \"#utility.yul\":7619:7656   */\n  tag_146\n    /* \"#utility.yul\":7652:7655   */\n  dup3\n    /* \"#utility.yul\":7619:7656   */\n  tag_32\n  jump\t// in\ntag_146:\n    /* \"#utility.yul\":7721:7739   */\n  0xffffffffffffffff\n    /* \"#utility.yul\":7713:7719   */\n  dup2\n    /* \"#utility.yul\":7710:7740   */\n  gt\n    /* \"#utility.yul\":7707:7763   */\n  iszero\n  tag_147\n  jumpi\n    /* \"#utility.yul\":7743:7761   */\n  tag_148\n  tag_22\n  jump\t// in\ntag_148:\n    /* \"#utility.yul\":7707:7763   */\ntag_147:\n    /* \"#utility.yul\":7787:7825   */\n  tag_149\n    /* \"#utility.yul\":7819:7823   */\n  dup3\n    /* \"#utility.yul\":7813:7824   */\n  sload\n    /* \"#utility.yul\":7787:7825   */\n  tag_34\n  jump\t// in\ntag_149:\n    /* \"#utility.yul\":7872:7939   */\n  tag_150\n    /* \"#utility.yul\":7932:7938   */\n  dup3\n    /* \"#utility.yul\":7924:7930   */\n  dup3\n    /* \"#utility.yul\":7918:7922   */\n  dup6\n    /* \"#utility.yul\":7872:7939   */\n  tag_46\n  jump\t// in\ntag_150:\n    /* \"#utility.yul\":7966:7967   */\n  0x00\n    /* \"#utility.yul\":7990:7994   */\n  0x20\n    /* \"#utility.yul\":7977:7994   */\n  swap1\n  pop\n    /* \"#utility.yul\":8022:8024   */\n  0x1f\n    /* \"#utility.yul\":8014:8020   */\n  dup4\n    /* \"#utility.yul\":8011:8025   */\n  gt\n    /* \"#utility.yul\":8039:8040   */\n  0x01\n    /* \"#utility.yul\":8034:8652   */\n  dup2\n  eq\n  tag_152\n  jumpi\n    /* \"#utility.yul\":8696:8697   */\n  0x00\n    /* \"#utility.yul\":8713:8719   */\n  dup5\n    /* \"#utility.yul\":8710:8787   */\n  iszero\n  tag_153\n  jumpi\n    /* \"#utility.yul\":8762:8771   */\n  dup3\n    /* \"#utility.yul\":8757:8760   */\n  dup8\n    /* \"#utility.yul\":8753:8772   */\n  add\n    /* \"#utility.yul\":8747:8773   */\n  mload\n    /* \"#utility.yul\":8738:8773   */\n  swap1\n  pop\n    /* \"#utility.yul\":8710:8787   */\ntag_153:\n    /* \"#utility.yul\":8813:8880   */\n  tag_154\n    /* \"#utility.yul\":8873:8879   */\n  dup6\n    /* \"#utility.yul\":8866:8871   */\n  dup3\n    /* \"#utility.yul\":8813:8880   */\n  tag_49\n  jump\t// in\ntag_154:\n    /* \"#utility.yul\":8807:8811   */\n  dup7\n    /* \"#utility.yul\":8800:8881   */\n  sstore\n    /* \"#utility.yul\":8669:8891   */\n  pop\n    /* \"#utility.yul\":8004:8891   */\n  jump(tag_151)\n    /* \"#utility.yul\":8034:8652   */\ntag_152:\n    /* \"#utility.yul\":8086:8090   */\n  0x1f\n    /* \"#utility.yul\":8082:8091   */\n  not\n    /* \"#utility.yul\":8074:8080   */\n  dup5\n    /* \"#utility.yul\":8070:8092   */\n  and\n    /* \"#utility.yul\":8120:8157   */\n  tag_155\n    /* \"#utility.yul\":8152:8156   */\n  dup7\n    /* \"#utility.yul\":8120:8157   */\n  tag_35\n  jump\t// in\ntag_155:\n    /* \"#utility.yul\":8179:8180   */\n  0x00\n    /* \"#utility.yul\":8193:8401   */\ntag_156:\n    /* \"#utility.yul\":8207:8214   */\n  dup3\n    /* \"#utility.yul\":8204:8205   */\n  dup2\n    /* \"#utility.yul\":8201:8215   */\n  lt\n    /* \"#utility.yul\":8193:8401   */\n  iszero\n  tag_158\n  jumpi\n    /* \"#utility.yul\":8286:8295   */\n  dup5\n    /* \"#utility.yul\":8281:8284   */\n  dup10\n    /* \"#utility.yul\":8277:8296   */\n  add\n    /* \"#utility.yul\":8271:8297   */\n  mload\n    /* \"#utility.yul\":8263:8269   */\n  dup3\n    /* \"#utility.yul\":8256:8298   */\n  sstore\n    /* \"#utility.yul\":8337:8338   */\n  0x01\n    /* \"#utility.yul\":8329:8335   */\n  dup3\n    /* \"#utility.yul\":8325:8339   */\n  add\n    /* \"#utility.yul\":8315:8339   */\n  swap2\n  pop\n    /* \"#utility.yul\":8384:8386   */\n  0x20\n    /* \"#utility.yul\":8373:8382   */\n  dup6\n    /* \"#utility.yul\":8369:8387   */\n  add\n    /* \"#utility.yul\":8356:8387   */\n  swap5\n  pop\n    /* \"#utility.yul\":8230:8234   */\n  0x20\n    /* \"#utility.yul\":8227:8228   */\n  dup2\n    /* \"#utility.yul\":8223:8235   */\n  add\n    /* \"#utility.yul\":8218:8235   */\n  swap1\n  pop\n    /* \"#utility.yul\":8193:8401   */\n  jump(tag_156)\ntag_158:\n    /* \"#utility.yul\":8429:8435   */\n  dup7\n    /* \"#utility.yul\":8420:8427   */\n  dup4\n    /* \"#utility.yul\":8417:8436   */\n  lt\n    /* \"#utility.yul\":8414:8593   */\n  iszero\n  tag_159\n  jumpi\n    /* \"#utility.yul\":8487:8496   */\n  dup5\n    /* \"#utility.yul\":8482:8485   */\n  dup10\n    /* \"#utility.yul\":8478:8497   */\n  add\n    /* \"#utility.yul\":8472:8498   */\n  mload\n    /* \"#utility.yul\":8530:8578   */\n  tag_160\n    /* \"#utility.yul\":8572:8576   */\n  0x1f\n    /* \"#utility.yul\":8564:8570   */\n  dup10\n    /* \"#utility.yul\":8560:8577   */\n  and\n    /* \"#utility.yul\":8549:8558   */\n  dup3\n    /* \"#utility.yul\":8530:8578   */\n  tag_48\n  jump\t// in\ntag_160:\n    /* \"#utility.yul\":8522:8528   */\n  dup4\n    /* \"#utility.yul\":8515:8579   */\n  sstore\n    /* \"#utility.yul\":8437:8593   */\n  pop\n    /* \"#utility.yul\":8414:8593   */\ntag_159:\n    /* \"#utility.yul\":8639:8640   */\n  0x01\n    /* \"#utility.yul\":8635:8636   */\n  0x02\n    /* \"#utility.yul\":8627:8633   */\n  dup9\n    /* \"#utility.yul\":8623:8637   */\n  mul\n    /* \"#utility.yul\":8619:8641   */\n  add\n    /* \"#utility.yul\":8613:8617   */\n  dup9\n    /* \"#utility.yul\":8606:8642   */\n  sstore\n    /* \"#utility.yul\":8041:8652   */\n  pop\n  pop\n  pop\n    /* \"#utility.yul\":8004:8891   */\ntag_151:\n  pop\n    /* \"#utility.yul\":7594:8897   */\n  pop\n  pop\n  pop\n    /* \"#utility.yul\":7502:8897   */\n  pop\n  pop\n  jump\t// out\n    /* \"#utility.yul\":8903:9083   */\ntag_50:\n    /* \"#utility.yul\":8951:9028   */\n  0x4e487b7100000000000000000000000000000000000000000000000000000000\n    /* \"#utility.yul\":8948:8949   */\n  0x00\n    /* \"#utility.yul\":8941:9029   */\n  mstore\n    /* \"#utility.yul\":9048:9052   */\n  0x11\n    /* \"#utility.yul\":9045:9046   */\n  0x04\n    /* \"#utility.yul\":9038:9053   */\n  mstore\n    /* \"#utility.yul\":9072:9076   */\n  0x24\n    /* \"#utility.yul\":9069:9070   */\n  0x00\n    /* \"#utility.yul\":9062:9077   */\n  revert\n    /* \"#utility.yul\":9089:9191   */\ntag_51:\n    /* \"#utility.yul\":9131:9139   */\n  0x00\n    /* \"#utility.yul\":9178:9183   */\n  dup2\n    /* \"#utility.yul\":9175:9176   */\n  0x01\n    /* \"#utility.yul\":9171:9184   */\n  shr\n    /* \"#utility.yul\":9150:9184   */\n  swap1\n  pop\n    /* \"#utility.yul\":9089:9191   */\n  swap2\n  swap1\n  pop\n  jump\t// out\n    /* \"#utility.yul\":9197:10045   */\ntag_52:\n    /* \"#utility.yul\":9258:9263   */\n  0x00\n    /* \"#utility.yul\":9265:9269   */\n  0x00\n    /* \"#utility.yul\":9289:9295   */\n  dup3\n    /* \"#utility.yul\":9280:9295   */\n  swap2\n  pop\n    /* \"#utility.yul\":9313:9318   */\n  dup4\n    /* \"#utility.yul\":9304:9318   */\n  swap1\n  pop\n    /* \"#utility.yul\":9327:10039   */\ntag_164:\n    /* \"#utility.yul\":9348:9349   */\n  0x01\n    /* \"#utility.yul\":9338:9346   */\n  dup6\n    /* \"#utility.yul\":9335:9350   */\n  gt\n    /* \"#utility.yul\":9327:10039   */\n  iszero\n  tag_166\n  jumpi\n    /* \"#utility.yul\":9443:9447   */\n  dup1\n    /* \"#utility.yul\":9438:9441   */\n  dup7\n    /* \"#utility.yul\":9434:9448   */\n  div\n    /* \"#utility.yul\":9428:9432   */\n  dup2\n    /* \"#utility.yul\":9425:9449   */\n  gt\n    /* \"#utility.yul\":9422:9472   */\n  iszero\n  tag_167\n  jumpi\n    /* \"#utility.yul\":9452:9470   */\n  tag_168\n  tag_50\n  jump\t// in\ntag_168:\n    /* \"#utility.yul\":9422:9472   */\ntag_167:\n    /* \"#utility.yul\":9502:9503   */\n  0x01\n    /* \"#utility.yul\":9492:9500   */\n  dup6\n    /* \"#utility.yul\":9488:9504   */\n  and\n    /* \"#utility.yul\":9485:9936   */\n  iszero\n  tag_169\n  jumpi\n    /* \"#utility.yul\":9917:9921   */\n  dup1\n    /* \"#utility.yul\":9910:9915   */\n  dup3\n    /* \"#utility.yul\":9906:9922   */\n  mul\n    /* \"#utility.yul\":9897:9922   */\n  swap2\n  pop\n    /* \"#utility.yul\":9485:9936   */\ntag_169:\n    /* \"#utility.yul\":9967:9971   */\n  dup1\n    /* \"#utility.yul\":9961:9965   */\n  dup2\n    /* \"#utility.yul\":9957:9972   */\n  mul\n    /* \"#utility.yul\":9949:9972   */\n  swap1\n  pop\n    /* \"#utility.yul\":9997:10029   */\n  tag_170\n    /* \"#utility.yul\":10020:10028   */\n  dup6\n    /* \"#utility.yul\":9997:10029   */\n  tag_51\n  jump\t// in\ntag_170:\n    /* \"#utility.yul\":9985:10029   */\n  swap5\n  pop\n    /* \"#utility.yul\":9327:10039   */\n  jump(tag_164)\ntag_166:\n    /* \"#utility.yul\":9197:10045   */\n  swap5\n  pop\n  swap5\n  swap3\n  pop\n  pop\n  pop\n  jump\t// out\n    /* \"#utility.yul\":10051:11124   */\ntag_53:\n    /* \"#utility.yul\":10105:10110   */\n  0x00\n    /* \"#utility.yul\":10296:10304   */\n  dup3\n    /* \"#utility.yul\":10286:10326   */\n  tag_172\n  jumpi\n    /* \"#utility.yul\":10317:10318   */\n  0x01\n    /* \"#utility.yul\":10308:10318   */\n  swap1\n  pop\n    /* \"#utility.yul\":10319:10324   */\n  jump(tag_171)\n    /* \"#utility.yul\":10286:10326   */\ntag_172:\n    /* \"#utility.yul\":10345:10349   */\n  dup2\n    /* \"#utility.yul\":10335:10371   */\n  tag_173\n  jumpi\n    /* \"#utility.yul\":10362:10363   */\n  0x00\n    /* \"#utility.yul\":10353:10363   */\n  swap1\n  pop\n    /* \"#utility.yul\":10364:10369   */\n  jump(tag_171)\n    /* \"#utility.yul\":10335:10371   */\ntag_173:\n    /* \"#utility.yul\":10431:10435   */\n  dup2\n    /* \"#utility.yul\":10479:10480   */\n  0x01\n    /* \"#utility.yul\":10474:10501   */\n  dup2\n  eq\n  tag_175\n  jumpi\n    /* \"#utility.yul\":10515:10516   */\n  0x02\n    /* \"#utility.yul\":10510:10701   */\n  dup2\n  eq\n  tag_176\n  jumpi\n    /* \"#utility.yul\":10424:10701   */\n  jump(tag_174)\n    /* \"#utility.yul\":10474:10501   */\ntag_175:\n    /* \"#utility.yul\":10492:10493   */\n  0x01\n    /* \"#utility.yul\":10483:10493   */\n  swap2\n  pop\n    /* \"#utility.yul\":10494:10499   */\n  pop\n  jump(tag_171)\n    /* \"#utility.yul\":10510:10701   */\ntag_176:\n    /* \"#utility.yul\":10555:10558   */\n  0xff\n    /* \"#utility.yul\":10545:10553   */\n  dup5\n    /* \"#utility.yul\":10542:10559   */\n  gt\n    /* \"#utility.yul\":10539:10582   */\n  iszero\n  tag_177\n  jumpi\n    /* \"#utility.yul\":10562:10580   */\n  tag_178\n  tag_50\n  jump\t// in\ntag_178:\n    /* \"#utility.yul\":10539:10582   */\ntag_177:\n    /* \"#utility.yul\":10611:10619   */\n  dup4\n    /* \"#utility.yul\":10608:10609   */\n  0x02\n    /* \"#utility.yul\":10604:10620   */\n  exp\n    /* \"#utility.yul\":10595:10620   */\n  swap2\n  pop\n    /* \"#utility.yul\":10646:10649   */\n  dup5\n    /* \"#utility.yul\":10639:10644   */\n  dup3\n    /* \"#utility.yul\":10636:10650   */\n  gt\n    /* \"#utility.yul\":10633:10673   */\n  iszero\n  tag_179\n  jumpi\n    /* \"#utility.yul\":10653:10671   */\n  tag_180\n  tag_50\n  jump\t// in\ntag_180:\n    /* \"#utility.yul\":10633:10673   */\ntag_179:\n    /* \"#utility.yul\":10686:10691   */\n  pop\n  jump(tag_171)\n    /* \"#utility.yul\":10424:10701   */\ntag_174:\n  pop\n    /* \"#utility.yul\":10810:10812   */\n  0x20\n    /* \"#utility.yul\":10800:10808   */\n  dup4\n    /* \"#utility.yul\":10797:10813   */\n  lt\n    /* \"#utility.yul\":10791:10794   */\n  0x0133\n    /* \"#utility.yul\":10785:10789   */\n  dup4\n    /* \"#utility.yul\":10782:10795   */\n  lt\n    /* \"#utility.yul\":10778:10814   */\n  and\n    /* \"#utility.yul\":10760:10762   */\n  0x4e\n    /* \"#utility.yul\":10750:10758   */\n  dup5\n    /* \"#utility.yul\":10747:10763   */\n  lt\n    /* \"#utility.yul\":10742:10744   */\n  0x0b\n    /* \"#utility.yul\":10736:10740   */\n  dup5\n    /* \"#utility.yul\":10733:10745   */\n  lt\n    /* \"#utility.yul\":10729:10764   */\n  and\n    /* \"#utility.yul\":10713:10824   */\n  or\n    /* \"#utility.yul\":10710:10956   */\n  iszero\n  tag_181\n  jumpi\n    /* \"#utility.yul\":10866:10874   */\n  dup3\n    /* \"#utility.yul\":10860:10864   */\n  dup3\n    /* \"#utility.yul\":10856:10875   */\n  exp\n    /* \"#utility.yul\":10847:10875   */\n  swap1\n  pop\n    /* \"#utility.yul\":10901:10904   */\n  dup4\n    /* \"#utility.yul\":10894:10899   */\n  dup2\n    /* \"#utility.yul\":10891:10905   */\n  gt\n    /* \"#utility.yul\":10888:10928   */\n  iszero\n  tag_182\n  jumpi\n    /* \"#utility.yul\":10908:10926   */\n  tag_183\n  tag_50\n  jump\t// in\ntag_183:\n    /* \"#utility.yul\":10888:10928   */\ntag_182:\n    /* \"#utility.yul\":10941:10946   */\n  jump(tag_171)\n    /* \"#utility.yul\":10710:10956   */\ntag_181:\n    /* \"#utility.yul\":10981:11023   */\n  tag_184\n    /* \"#utility.yul\":11019:11022   */\n  dup5\n    /* \"#utility.yul\":11009:11017   */\n  dup5\n    /* \"#utility.yul\":11003:11007   */\n  dup5\n    /* \"#utility.yul\":11000:11001   */\n  0x01\n    /* \"#utility.yul\":10981:11023   */\n  tag_52\n  jump\t// in\ntag_184:\n    /* \"#utility.yul\":10966:11023   */\n  swap3\n  pop\n  swap1\n  pop\n    /* \"#utility.yul\":11055:11059   */\n  dup2\n    /* \"#utility.yul\":11050:11053   */\n  dup5\n    /* \"#utility.yul\":11046:11060   */\n  div\n    /* \"#utility.yul\":11039:11044   */\n  dup2\n    /* \"#utility.yul\":11036:11061   */\n  gt\n    /* \"#utility.yul\":11033:11084   */\n  iszero\n  tag_185\n  jumpi\n    /* \"#utility.yul\":11064:11082   */\n  tag_186\n  tag_50\n  jump\t// in\ntag_186:\n    /* \"#utility.yul\":11033:11084   */\ntag_185:\n    /* \"#utility.yul\":11113:11117   */\n  dup2\n    /* \"#utility.yul\":11106:11111   */\n  dup2\n    /* \"#utility.yul\":11102:11118   */\n  mul\n    /* \"#utility.yul\":11093:11118   */\n  swap1\n  pop\n    /* \"#utility.yul\":10051:11124   */\ntag_171:\n  swap4\n  swap3\n  pop\n  pop\n  pop\n  jump\t// out\n    /* \"#utility.yul\":11130:11216   */\ntag_54:\n    /* \"#utility.yul\":11165:11172   */\n  0x00\n    /* \"#utility.yul\":11205:11209   */\n  0xff\n    /* \"#utility.yul\":11198:11203   */\n  dup3\n    /* \"#utility.yul\":11194:11210   */\n  and\n    /* \"#utility.yul\":11183:11210   */\n  swap1\n  pop\n    /* \"#utility.yul\":11130:11216   */\n  swap2\n  swap1\n  pop\n  jump\t// out\n    /* \"#utility.yul\":11222:11503   */\ntag_10:\n    /* \"#utility.yul\":11280:11285   */\n  0x00\n    /* \"#utility.yul\":11304:11327   */\n  tag_189\n    /* \"#utility.yul\":11322:11326   */\n  dup3\n    /* \"#utility.yul\":11304:11327   */\n  tag_29\n  jump\t// in\ntag_189:\n    /* \"#utility.yul\":11296:11327   */\n  swap2\n  pop\n    /* \"#utility.yul\":11348:11373   */\n  tag_190\n    /* \"#utility.yul\":11364:11372   */\n  dup4\n    /* \"#utility.yul\":11348:11373   */\n  tag_54\n  jump\t// in\ntag_190:\n    /* \"#utility.yul\":11336:11373   */\n  swap3\n  pop\n    /* \"#utility.yul\":11392:11496   */\n  tag_191\n    /* \"#utility.yul\":11429:11495   */\n  0xffffffffffffffffffffffffffffffffffffffffffffffffffffffffffffffff\n    /* \"#utility.yul\":11419:11427   */\n  dup5\n    /* \"#utility.yul\":11413:11417   */\n  dup5\n    /* \"#utility.yul\":11392:11496   */\n  tag_53\n  jump\t// in\ntag_191:\n    /* \"#utility.yul\":11383:11496   */\n  swap1\n  pop\n    /* \"#utility.yul\":11222:11503   */\n  swap3\n  swap2\n  pop\n  pop\n  jump\t// out\n    /* \"#utility.yul\":11509:11919   */\ntag_12:\n    /* \"#utility.yul\":11549:11556   */\n  0x00\n    /* \"#utility.yul\":11572:11592   */\n  tag_193\n    /* \"#utility.yul\":11590:11591   */\n  dup3\n    /* \"#utility.yul\":11572:11592   */\n  tag_29\n  jump\t// in\ntag_193:\n    /* \"#utility.yul\":11567:11592   */\n  swap2\n  pop\n    /* \"#utility.yul\":11606:11626   */\n  tag_194\n    /* \"#utility.yul\":11624:11625   */\n  dup4\n    /* \"#utility.yul\":11606:11626   */\n  tag_29\n  jump\t// in\ntag_194:\n    /* \"#utility.yul\":11601:11626   */\n  swap3\n  pop\n    /* \"#utility.yul\":11661:11662   */\n  dup3\n    /* \"#utility.yul\":11658:11659   */\n  dup3\n    /* \"#utility.yul\":11654:11663   */\n  mul\n    /* \"#utility.yul\":11683:11713   */\n  tag_195\n    /* \"#utility.yul\":11701:11712   */\n  dup2\n    /* \"#utility.yul\":11683:11713   */\n  tag_29\n  jump\t// in\ntag_195:\n    /* \"#utility.yul\":11672:11713   */\n  swap2\n  pop\n    /* \"#utility.yul\":11862:11863   */\n  dup3\n    /* \"#utility.yul\":11853:11860   */\n  dup3\n    /* \"#utility.yul\":11849:11864   */\n  div\n    /* \"#utility.yul\":11846:11847   */\n  dup5\n    /* \"#utility.yul\":11843:11865   */\n  eq\n    /* \"#utility.yul\":11823:11824   */\n  dup4\n    /* \"#utility.yul\":11816:11825   */\n  iszero\n    /* \"#utility.yul\":11796:11879   */\n  or\n    /* \"#utility.yul\":11773:11912   */\n  tag_196\n  jumpi\n    /* \"#utility.yul\":11892:11910   */\n  tag_197\n  tag_50\n  jump\t// in\ntag_197:\n    /* \"#utility.yul\":11773:11912   */\ntag_196:\n    /* \"#utility.yul\":11557:11919   */\n  pop\n    /* \"#utility.yul\":11509:11919   */\n  swap3\n  swap2\n  pop\n  pop\n  jump\t// out\n    /* \"#utility.yul\":11925:12043   */\ntag_55:\n    /* \"#utility.yul\":12012:12036   */\n  tag_199\n    /* \"#utility.yul\":12030:12035   */\n  dup2\n    /* \"#utility.yul\":12012:12036   */\n  tag_29\n  jump\t// in\ntag_199:\n    /* \"#utility.yul\":12007:12010   */\n  dup3\n    /* \"#utility.yul\":12000:12037   */\n  mstore\n    /* \"#utility.yul\":11925:12043   */\n  pop\n  pop\n  jump\t// out\n    /* \"#utility.yul\":12049:12271   */\ntag_14:\n    /* \"#utility.yul\":12142:12146   */\n  0x00\n    /* \"#utility.yul\":12180:12182   */\n  0x20\n    /* \"#utility.yul\":12169:12178   */\n  dup3\n    /* \"#utility.yul\":12165:12183   */\n  add\n    /* \"#utility.yul\":12157:12183   */\n  swap1\n  pop\n    /* \"#utility.yul\":12193:12264   */\n  tag_201\n    /* \"#utility.yul\":12261:12262   */\n  0x00\n    /* \"#utility.yul\":12250:12259   */\n  dup4\n    /* \"#utility.yul\":12246:12263   */\n  add\n    /* \"#utility.yul\":12237:12243   */\n  dup5\n    /* \"#utility.yul\":12193:12264   */\n  tag_55\n  jump\t// in\ntag_201:\n    /* \"#utility.yul\":12049:12271   */\n  swap3\n  swap2\n  pop\n  pop\n  jump\t// out\n    /* \"lesson/lesson05/MyTokenWork.sol\":61:4882  contract MyTokenWork {... */\ntag_15:\n  dataSize(sub_0)\n  dup1\n  dataOffset(sub_0)\n  0x00\n  codecopy\n  0x00\n  return\nstop\n\nsub_0: assembly {\n        /* \"lesson/lesson05/MyTokenWork.sol\":61:4882  contract MyTokenWork {... */\n      mstore(0x40, 0x80)\n      callvalue\n      dup1\n      iszero\n      tag_1\n      jumpi\n      revert(0x00, 0x00)\n    tag_1:\n      pop\n      jumpi(tag_2, lt(calldatasize, 0x04))\n      shr(0xe0, calldataload(0x00))\n      dup1\n      0x88d695b2\n      gt\n      tag_11\n      jumpi\n      dup1\n      0x88d695b2\n      eq\n      tag_7\n      jumpi\n      dup1\n      0xa9059cbb\n      eq\n      tag_8\n      jumpi\n      dup1\n      0xac9ff07b\n      eq\n      tag_9\n      jumpi\n      dup1\n      0xdd62ed3e\n      eq\n      tag_10\n      jumpi\n      jump(tag_2)\n    tag_11:\n      dup1\n      0x23b872dd\n      eq\n      tag_3\n      jumpi\n      dup1\n      0x40c10f19\n      eq\n      tag_4\n      jumpi\n      dup1\n      0x42966c68\n      eq\n      tag_5\n      jumpi\n      dup1\n      0x75247a58\n      eq\n      tag_6\n      jumpi\n    tag_2:\n      revert(0x00, 0x00)\n        /* \"lesson/lesson05/MyTokenWork.sol\":1722:2279  function transferFrom(address from, address to, uint256 amount) public returns(bool) {... */\n    tag_3:\n      tag_12\n      0x04\n      dup1\n      calldatasize\n      sub\n      dup2\n      add\n      swap1\n      tag_13\n      swap2\n      swap1\n      tag_14\n      jump\t// in\n    tag_13:\n      tag_15\n      jump\t// in\n    tag_12:\n      mload(0x40)\n      tag_16\n      swap2\n      swap1\n      tag_17\n      jump\t// in\n    tag_16:\n      mload(0x40)\n      dup1\n      swap2\n      sub\n      swap1\n      return\n        /* \"lesson/lesson05/MyTokenWork.sol\":3959:4242  function mint(address to, uint256 amount) public onlyOwner returns(bool) {... */\n    tag_4:\n      tag_18\n      0x04\n      dup1\n      calldatasize\n      sub\n      dup2\n      add\n      swap1\n      tag_19\n      swap2\n      swap1\n      tag_20\n      jump\t// in\n    tag_19:\n      tag_21\n      jump\t// in\n    tag_18:\n      mload(0x40)\n      tag_22\n      swap2\n      swap1\n      tag_17\n      jump\t// in\n    tag_22:\n      mload(0x40)\n      dup1\n      swap2\n      sub\n      swap1\n      return\n        /* \"lesson/lesson05/MyTokenWork.sol\":4250:4559  function burn(uint256 amount) public returns(bool) {... */\n    tag_5:\n      tag_23\n      0x04\n      dup1\n      calldatasize\n      sub\n      dup2\n      add\n      swap1\n      tag_24\n      swap2\n      swap1\n      tag_25\n      jump\t// in\n    tag_24:\n      tag_26\n      jump\t// in\n    tag_23:\n      mload(0x40)\n      tag_27\n      swap2\n      swap1\n      tag_17\n      jump\t// in\n    tag_27:\n      mload(0x40)\n      dup1\n      swap2\n      sub\n      swap1\n      return\n        /* \"lesson/lesson05/MyTokenWork.sol\":1378:1714  function approval(address spender, uint256 amount) public returns(bool){... */\n    tag_6:\n      tag_28\n      0x04\n      dup1\n      calldatasize\n      sub\n      dup2\n      add\n      swap1\n      tag_29\n      swap2\n      swap1\n      tag_20\n      jump\t// in\n    tag_29:\n      tag_30\n      jump\t// in\n    tag_28:\n      mload(0x40)\n      tag_31\n      swap2\n      swap1\n      tag_17\n      jump\t// in\n    tag_31:\n      mload(0x40)\n      dup1\n      swap2\n      sub\n      swap1\n      return\n        /* \"lesson/lesson05/MyTokenWork.sol\":2287:3219  function batchTransfer(address[] memory addArr, uint256[] memory amountArr) public returns(bool) {... */\n    tag_7:\n      tag_32\n      0x04\n      dup1\n      calldatasize\n      sub\n      dup2\n      add\n      swap1\n      tag_33\n      swap2\n      swap1\n      tag_34\n      jump\t// in\n    tag_33:\n      tag_35\n      jump\t// in\n    tag_32:\n      mload(0x40)\n      tag_36\n      swap2\n      swap1\n      tag_17\n      jump\t// in\n    tag_36:\n      mload(0x40)\n      dup1\n      swap2\n      sub\n      swap1\n      return\n        /* \"lesson/lesson05/MyTokenWork.sol\":1012:1370  function transfer(address to, uint256 amount) public returns(bool) {... */\n    tag_8:\n      tag_37\n      0x04\n      dup1\n      calldatasize\n      sub\n      dup2\n      add\n      swap1\n      tag_38\n      swap2\n      swap1\n      tag_20\n      jump\t// in\n    tag_38:\n      tag_39\n      jump\t// in\n    tag_37:\n      mload(0x40)\n      tag_40\n      swap2\n      swap1\n      tag_17\n      jump\t// in\n    tag_40:\n      mload(0x40)\n      dup1\n      swap2\n      sub\n      swap1\n      return\n        /* \"lesson/lesson05/MyTokenWork.sol\":222:266  mapping(address => uint256) public balanceMp */\n    tag_9:\n      tag_41\n      0x04\n      dup1\n      calldatasize\n      sub\n      dup2\n      add\n      swap1\n      tag_42\n      swap2\n      swap1\n      tag_43\n      jump\t// in\n    tag_42:\n      tag_44\n      jump\t// in\n    tag_41:\n      mload(0x40)\n      tag_45\n      swap2\n      swap1\n      tag_46\n      jump\t// in\n    tag_45:\n      mload(0x40)\n      dup1\n      swap2\n      sub\n      swap1\n      return\n        /* \"lesson/lesson05/MyTokenWork.sol\":273:337  mapping(address => mapping(address => uint256)) public allowance */\n    tag_10:\n      tag_47\n      0x04\n      dup1\n      calldatasize\n      sub\n      dup2\n      add\n      swap1\n      tag_48\n      swap2\n      swap1\n      tag_49\n      jump\t// in\n    tag_48:\n      tag_50\n      jump\t// in\n    tag_47:\n      mload(0x40)\n      tag_51\n      swap2\n      swap1\n      tag_46\n      jump\t// in\n    tag_51:\n      mload(0x40)\n      dup1\n      swap2\n      sub\n      swap1\n      return\n        /* \"lesson/lesson05/MyTokenWork.sol\":1722:2279  function transferFrom(address from, address to, uint256 amount) public returns(bool) {... */\n    tag_15:\n        /* \"lesson/lesson05/MyTokenWork.sol\":1801:1805  bool */\n      0x00\n        /* \"lesson/lesson05/MyTokenWork.sol\":1818:1869  checkAddress(from, \"From transfer addrees is zero\") */\n      tag_53\n        /* \"lesson/lesson05/MyTokenWork.sol\":1831:1835  from */\n      dup5\n        /* \"lesson/lesson05/MyTokenWork.sol\":1818:1869  checkAddress(from, \"From transfer addrees is zero\") */\n      mload(0x40)\n      dup1\n      0x40\n      add\n      0x40\n      mstore\n      dup1\n      0x1d\n      dup2\n      mstore\n      0x20\n      add\n      0x46726f6d207472616e736665722061646472656573206973207a65726f000000\n      dup2\n      mstore\n      pop\n        /* \"lesson/lesson05/MyTokenWork.sol\":1818:1830  checkAddress */\n      tag_54\n        /* \"lesson/lesson05/MyTokenWork.sol\":1818:1869  checkAddress(from, \"From transfer addrees is zero\") */\n      jump\t// in\n    tag_53:\n        /* \"lesson/lesson05/MyTokenWork.sol\":1880:1927  checkAddress(to, \"To transfer addrees is zero\") */\n      tag_55\n        /* \"lesson/lesson05/MyTokenWork.sol\":1893:1895  to */\n      dup4\n        /* \"lesson/lesson05/MyTokenWork.sol\":1880:1927  checkAddress(to, \"To transfer addrees is zero\") */\n      mload(0x40)\n      dup1\n      0x40\n      add\n      0x40\n      mstore\n      dup1\n      0x1b\n      dup2\n      mstore\n      0x20\n      add\n      0x546f207472616e736665722061646472656573206973207a65726f0000000000\n      dup2\n      mstore\n      pop\n        /* \"lesson/lesson05/MyTokenWork.sol\":1880:1892  checkAddress */\n      tag_54\n        /* \"lesson/lesson05/MyTokenWork.sol\":1880:1927  checkAddress(to, \"To transfer addrees is zero\") */\n      jump\t// in\n    tag_55:\n        /* \"lesson/lesson05/MyTokenWork.sol\":1938:1999  checkBalance(balanceMp[from], amount, \"Insufficient balance\") */\n      tag_56\n        /* \"lesson/lesson05/MyTokenWork.sol\":1951:1960  balanceMp */\n      0x03\n        /* \"lesson/lesson05/MyTokenWork.sol\":1951:1966  balanceMp[from] */\n      0x00\n        /* \"lesson/lesson05/MyTokenWork.sol\":1961:1965  from */\n      dup7\n        /* \"lesson/lesson05/MyTokenWork.sol\":1951:1966  balanceMp[from] */\n      0xffffffffffffffffffffffffffffffffffffffff\n      and\n      0xffffffffffffffffffffffffffffffffffffffff\n      and\n      dup2\n      mstore\n      0x20\n      add\n      swap1\n      dup2\n      mstore\n      0x20\n      add\n      0x00\n      keccak256\n      sload\n        /* \"lesson/lesson05/MyTokenWork.sol\":1968:1974  amount */\n      dup4\n        /* \"lesson/lesson05/MyTokenWork.sol\":1938:1999  checkBalance(balanceMp[from], amount, \"Insufficient balance\") */\n      mload(0x40)\n      dup1\n      0x40\n      add\n      0x40\n      mstore\n      dup1\n      0x14\n      dup2\n      mstore\n      0x20\n      add\n      0x496e73756666696369656e742062616c616e6365000000000000000000000000\n      dup2\n      mstore\n      pop\n        /* \"lesson/lesson05/MyTokenWork.sol\":1938:1950  checkBalance */\n      tag_57\n        /* \"lesson/lesson05/MyTokenWork.sol\":1938:1999  checkBalance(balanceMp[from], amount, \"Insufficient balance\") */\n      jump\t// in\n    tag_56:\n        /* \"lesson/lesson05/MyTokenWork.sol\":2010:2085  checkBalance(allowance[from][msg.sender], amount, \"Insufficient allowance\") */\n      tag_58\n        /* \"lesson/lesson05/MyTokenWork.sol\":2023:2032  allowance */\n      0x04\n        /* \"lesson/lesson05/MyTokenWork.sol\":2023:2038  allowance[from] */\n      0x00\n        /* \"lesson/lesson05/MyTokenWork.sol\":2033:2037  from */\n      dup7\n        /* \"lesson/lesson05/MyTokenWork.sol\":2023:2038  allowance[from] */\n      0xffffffffffffffffffffffffffffffffffffffff\n      and\n      0xffffffffffffffffffffffffffffffffffffffff\n      and\n      dup2\n      mstore\n      0x20\n      add\n      swap1\n      dup2\n      mstore\n      0x20\n      add\n      0x00\n      keccak256\n        /* \"lesson/lesson05/MyTokenWork.sol\":2023:2050  allowance[from][msg.sender] */\n      0x00\n        /* \"lesson/lesson05/MyTokenWork.sol\":2039:2049  msg.sender */\n      caller\n        /* \"lesson/lesson05/MyTokenWork.sol\":2023:2050  allowance[from][msg.sender] */\n      0xffffffffffffffffffffffffffffffffffffffff\n      and\n      0xffffffffffffffffffffffffffffffffffffffff\n      and\n      dup2\n      mstore\n      0x20\n      add\n      swap1\n      dup2\n      mstore\n      0x20\n      add\n      0x00\n      keccak256\n      sload\n        /* \"lesson/lesson05/MyTokenWork.sol\":2052:2058  amount */\n      dup4\n        /* \"lesson/lesson05/MyTokenWork.sol\":2010:2085  checkBalance(allowance[from][msg.sender], amount, \"Insufficient allowance\") */\n      mload(0x40)\n      dup1\n      0x40\n      add\n      0x40\n      mstore\n      dup1\n      0x16\n      dup2\n      mstore\n      0x20\n      add\n      0x496e73756666696369656e7420616c6c6f77616e636500000000000000000000\n      dup2\n      mstore\n      pop\n        /* \"lesson/lesson05/MyTokenWork.sol\":2010:2022  checkBalance */\n      tag_57\n        /* \"lesson/lesson05/MyTokenWork.sol\":2010:2085  checkBalance(allowance[from][msg.sender], amount, \"Insufficient allowance\") */\n      jump\t// in\n    tag_58:\n        /* \"lesson/lesson05/MyTokenWork.sol\":2117:2123  amount */\n      dup2\n        /* \"lesson/lesson05/MyTokenWork.sol\":2098:2107  balanceMp */\n      0x03\n        /* \"lesson/lesson05/MyTokenWork.sol\":2098:2113  balanceMp[from] */\n      0x00\n        /* \"lesson/lesson05/MyTokenWork.sol\":2108:2112  from */\n      dup7\n        /* \"lesson/lesson05/MyTokenWork.sol\":2098:2113  balanceMp[from] */\n      0xffffffffffffffffffffffffffffffffffffffff\n      and\n      0xffffffffffffffffffffffffffffffffffffffff\n      and\n      dup2\n      mstore\n      0x20\n      add\n      swap1\n      dup2\n      mstore\n      0x20\n      add\n      0x00\n      keccak256\n      0x00\n        /* \"lesson/lesson05/MyTokenWork.sol\":2098:2123  balanceMp[from] -= amount */\n      dup3\n      dup3\n      sload\n      tag_59\n      swap2\n      swap1\n      tag_60\n      jump\t// in\n    tag_59:\n      swap3\n      pop\n      pop\n      dup2\n      swap1\n      sstore\n      pop\n        /* \"lesson/lesson05/MyTokenWork.sol\":2151:2157  amount */\n      dup2\n        /* \"lesson/lesson05/MyTokenWork.sol\":2134:2143  balanceMp */\n      0x03\n        /* \"lesson/lesson05/MyTokenWork.sol\":2134:2147  balanceMp[to] */\n      0x00\n        /* \"lesson/lesson05/MyTokenWork.sol\":2144:2146  to */\n      dup6\n        /* \"lesson/lesson05/MyTokenWork.sol\":2134:2147  balanceMp[to] */\n      0xffffffffffffffffffffffffffffffffffffffff\n      and\n      0xffffffffffffffffffffffffffffffffffffffff\n      and\n      dup2\n      mstore\n      0x20\n      add\n      swap1\n      dup2\n      mstore\n      0x20\n      add\n      0x00\n      keccak256\n      0x00\n        /* \"lesson/lesson05/MyTokenWork.sol\":2134:2157  balanceMp[to] += amount */\n      dup3\n      dup3\n      sload\n      tag_61\n      swap2\n      swap1\n      tag_62\n      jump\t// in\n    tag_61:\n      swap3\n      pop\n      pop\n      dup2\n      swap1\n      sstore\n      pop\n        /* \"lesson/lesson05/MyTokenWork.sol\":2201:2207  amount */\n      dup2\n        /* \"lesson/lesson05/MyTokenWork.sol\":2170:2179  allowance */\n      0x04\n        /* \"lesson/lesson05/MyTokenWork.sol\":2170:2185  allowance[from] */\n      0x00\n        /* \"lesson/lesson05/MyTokenWork.sol\":2180:2184  from */\n      dup7\n        /* \"lesson/lesson05/MyTokenWork.sol\":2170:2185  allowance[from] */\n      0xffffffffffffffffffffffffffffffffffffffff\n      and\n      0xffffffffffffffffffffffffffffffffffffffff\n      and\n      dup2\n      mstore\n      0x20\n      add\n      swap1\n      dup2\n      mstore\n      0x20\n      add\n      0x00\n      keccak256\n        /* \"lesson/lesson05/MyTokenWork.sol\":2170:2197  allowance[from][msg.sender] */\n      0x00\n        /* \"lesson/lesson05/MyTokenWork.sol\":2186:2196  msg.sender */\n      caller\n        /* \"lesson/lesson05/MyTokenWork.sol\":2170:2197  allowance[from][msg.sender] */\n      0xffffffffffffffffffffffffffffffffffffffff\n      and\n      0xffffffffffffffffffffffffffffffffffffffff\n      and\n      dup2\n      mstore\n      0x20\n      add\n      swap1\n      dup2\n      mstore\n      0x20\n      add\n      0x00\n      keccak256\n      0x00\n        /* \"lesson/lesson05/MyTokenWork.sol\":2170:2207  allowance[from][msg.sender] -= amount */\n      dup3\n      dup3\n      sload\n      tag_63\n      swap2\n      swap1\n      tag_60\n      jump\t// in\n    tag_63:\n      swap3\n      pop\n      pop\n      dup2\n      swap1\n      sstore\n      pop\n        /* \"lesson/lesson05/MyTokenWork.sol\":2238:2240  to */\n      dup3\n        /* \"lesson/lesson05/MyTokenWork.sol\":2223:2249  Transfer(from, to, amount) */\n      0xffffffffffffffffffffffffffffffffffffffff\n      and\n        /* \"lesson/lesson05/MyTokenWork.sol\":2232:2236  from */\n      dup5\n        /* \"lesson/lesson05/MyTokenWork.sol\":2223:2249  Transfer(from, to, amount) */\n      0xffffffffffffffffffffffffffffffffffffffff\n      and\n      0xddf252ad1be2c89b69c2b068fc378daa952ba7f163c4a11628f55a4df523b3ef\n        /* \"lesson/lesson05/MyTokenWork.sol\":2242:2248  amount */\n      dup5\n        /* \"lesson/lesson05/MyTokenWork.sol\":2223:2249  Transfer(from, to, amount) */\n      mload(0x40)\n      tag_64\n      swap2\n      swap1\n      tag_46\n      jump\t// in\n    tag_64:\n      mload(0x40)\n      dup1\n      swap2\n      sub\n      swap1\n      log3\n        /* \"lesson/lesson05/MyTokenWork.sol\":2267:2271  true */\n      0x01\n        /* \"lesson/lesson05/MyTokenWork.sol\":2260:2271  return true */\n      swap1\n      pop\n        /* \"lesson/lesson05/MyTokenWork.sol\":1722:2279  function transferFrom(address from, address to, uint256 amount) public returns(bool) {... */\n      swap4\n      swap3\n      pop\n      pop\n      pop\n      jump\t// out\n        /* \"lesson/lesson05/MyTokenWork.sol\":3959:4242  function mint(address to, uint256 amount) public onlyOwner returns(bool) {... */\n    tag_21:\n        /* \"lesson/lesson05/MyTokenWork.sol\":4026:4030  bool */\n      0x00\n        /* \"lesson/lesson05/MyTokenWork.sol\":585:590  owner */\n      0x05\n      0x00\n      swap1\n      sload\n      swap1\n      0x0100\n      exp\n      swap1\n      div\n      0xffffffffffffffffffffffffffffffffffffffff\n      and\n        /* \"lesson/lesson05/MyTokenWork.sol\":571:590  msg.sender == owner */\n      0xffffffffffffffffffffffffffffffffffffffff\n      and\n        /* \"lesson/lesson05/MyTokenWork.sol\":571:581  msg.sender */\n      caller\n        /* \"lesson/lesson05/MyTokenWork.sol\":571:590  msg.sender == owner */\n      0xffffffffffffffffffffffffffffffffffffffff\n      and\n      eq\n        /* \"lesson/lesson05/MyTokenWork.sol\":563:613  require(msg.sender == owner, \"only owner execute\") */\n      tag_66\n      jumpi\n      mload(0x40)\n      0x08c379a000000000000000000000000000000000000000000000000000000000\n      dup2\n      mstore\n      0x04\n      add\n      tag_67\n      swap1\n      tag_68\n      jump\t// in\n    tag_67:\n      mload(0x40)\n      dup1\n      swap2\n      sub\n      swap1\n      revert\n    tag_66:\n        /* \"lesson/lesson05/MyTokenWork.sol\":4043:4086  checkAddress(to, \"Mint to addrees is zero\") */\n      tag_70\n        /* \"lesson/lesson05/MyTokenWork.sol\":4056:4058  to */\n      dup4\n        /* \"lesson/lesson05/MyTokenWork.sol\":4043:4086  checkAddress(to, \"Mint to addrees is zero\") */\n      mload(0x40)\n      dup1\n      0x40\n      add\n      0x40\n      mstore\n      dup1\n      0x17\n      dup2\n      mstore\n      0x20\n      add\n      0x4d696e7420746f2061646472656573206973207a65726f000000000000000000\n      dup2\n      mstore\n      pop\n        /* \"lesson/lesson05/MyTokenWork.sol\":4043:4055  checkAddress */\n      tag_54\n        /* \"lesson/lesson05/MyTokenWork.sol\":4043:4086  checkAddress(to, \"Mint to addrees is zero\") */\n      jump\t// in\n    tag_70:\n        /* \"lesson/lesson05/MyTokenWork.sol\":4114:4120  amount */\n      dup2\n        /* \"lesson/lesson05/MyTokenWork.sol\":4099:4110  totalSupply */\n      0x02\n      0x00\n        /* \"lesson/lesson05/MyTokenWork.sol\":4099:4120  totalSupply += amount */\n      dup3\n      dup3\n      sload\n      tag_71\n      swap2\n      swap1\n      tag_62\n      jump\t// in\n    tag_71:\n      swap3\n      pop\n      pop\n      dup2\n      swap1\n      sstore\n      pop\n        /* \"lesson/lesson05/MyTokenWork.sol\":4148:4154  amount */\n      dup2\n        /* \"lesson/lesson05/MyTokenWork.sol\":4131:4140  balanceMp */\n      0x03\n        /* \"lesson/lesson05/MyTokenWork.sol\":4131:4144  balanceMp[to] */\n      0x00\n        /* \"lesson/lesson05/MyTokenWork.sol\":4141:4143  to */\n      dup6\n        /* \"lesson/lesson05/MyTokenWork.sol\":4131:4144  balanceMp[to] */\n      0xffffffffffffffffffffffffffffffffffffffff\n      and\n      0xffffffffffffffffffffffffffffffffffffffff\n      and\n      dup2\n      mstore\n      0x20\n      add\n      swap1\n      dup2\n      mstore\n      0x20\n      add\n      0x00\n      keccak256\n      0x00\n        /* \"lesson/lesson05/MyTokenWork.sol\":4131:4154  balanceMp[to] += amount */\n      dup3\n      dup3\n      sload\n      tag_72\n      swap2\n      swap1\n      tag_62\n      jump\t// in\n    tag_72:\n      swap3\n      pop\n      pop\n      dup2\n      swap1\n      sstore\n      pop\n        /* \"lesson/lesson05/MyTokenWork.sol\":4201:4203  to */\n      dup3\n        /* \"lesson/lesson05/MyTokenWork.sol\":4180:4212  Transfer(address(0), to, amount) */\n      0xffffffffffffffffffffffffffffffffffffffff\n      and\n        /* \"lesson/lesson05/MyTokenWork.sol\":4197:4198  0 */\n      0x00\n        /* \"lesson/lesson05/MyTokenWork.sol\":4180:4212  Transfer(address(0), to, amount) */\n      0xffffffffffffffffffffffffffffffffffffffff\n      and\n      0xddf252ad1be2c89b69c2b068fc378daa952ba7f163c4a11628f55a4df523b3ef\n        /* \"lesson/lesson05/MyTokenWork.sol\":4205:4211  amount */\n      dup5\n        /* \"lesson/lesson05/MyTokenWork.sol\":4180:4212  Transfer(address(0), to, amount) */\n      mload(0x40)\n      tag_73\n      swap2\n      swap1\n      tag_46\n      jump\t// in\n    tag_73:\n      mload(0x40)\n      dup1\n      swap2\n      sub\n      swap1\n      log3\n        /* \"lesson/lesson05/MyTokenWork.sol\":4230:4234  true */\n      0x01\n        /* \"lesson/lesson05/MyTokenWork.sol\":4223:4234  return true */\n      swap1\n      pop\n        /* \"lesson/lesson05/MyTokenWork.sol\":3959:4242  function mint(address to, uint256 amount) public onlyOwner returns(bool) {... */\n      swap3\n      swap2\n      pop\n      pop\n      jump\t// out\n        /* \"lesson/lesson05/MyTokenWork.sol\":4250:4559  function burn(uint256 amount) public returns(bool) {... */\n    tag_26:\n        /* \"lesson/lesson05/MyTokenWork.sol\":4295:4299  bool */\n      0x00\n        /* \"lesson/lesson05/MyTokenWork.sol\":4312:4387  checkBalance(balanceMp[msg.sender], amount, \"Insufficient balance to burn\") */\n      tag_75\n        /* \"lesson/lesson05/MyTokenWork.sol\":4325:4334  balanceMp */\n      0x03\n        /* \"lesson/lesson05/MyTokenWork.sol\":4325:4346  balanceMp[msg.sender] */\n      0x00\n        /* \"lesson/lesson05/MyTokenWork.sol\":4335:4345  msg.sender */\n      caller\n        /* \"lesson/lesson05/MyTokenWork.sol\":4325:4346  balanceMp[msg.sender] */\n      0xffffffffffffffffffffffffffffffffffffffff\n      and\n      0xffffffffffffffffffffffffffffffffffffffff\n      and\n      dup2\n      mstore\n      0x20\n      add\n      swap1\n      dup2\n      mstore\n      0x20\n      add\n      0x00\n      keccak256\n      sload\n        /* \"lesson/lesson05/MyTokenWork.sol\":4348:4354  amount */\n      dup4\n        /* \"lesson/lesson05/MyTokenWork.sol\":4312:4387  checkBalance(balanceMp[msg.sender], amount, \"Insufficient balance to burn\") */\n      mload(0x40)\n      dup1\n      0x40\n      add\n      0x40\n      mstore\n      dup1\n      0x1c\n      dup2\n      mstore\n      0x20\n      add\n      0x496e73756666696369656e742062616c616e636520746f206275726e00000000\n      dup2\n      mstore\n      pop\n        /* \"lesson/lesson05/MyTokenWork.sol\":4312:4324  checkBalance */\n      tag_57\n        /* \"lesson/lesson05/MyTokenWork.sol\":4312:4387  checkBalance(balanceMp[msg.sender], amount, \"Insufficient balance to burn\") */\n      jump\t// in\n    tag_75:\n        /* \"lesson/lesson05/MyTokenWork.sol\":4423:4429  amount */\n      dup2\n        /* \"lesson/lesson05/MyTokenWork.sol\":4408:4419  totalSupply */\n      0x02\n      0x00\n        /* \"lesson/lesson05/MyTokenWork.sol\":4408:4429  totalSupply -= amount */\n      dup3\n      dup3\n      sload\n      tag_76\n      swap2\n      swap1\n      tag_60\n      jump\t// in\n    tag_76:\n      swap3\n      pop\n      pop\n      dup2\n      swap1\n      sstore\n      pop\n        /* \"lesson/lesson05/MyTokenWork.sol\":4465:4471  amount */\n      dup2\n        /* \"lesson/lesson05/MyTokenWork.sol\":4440:4449  balanceMp */\n      0x03\n        /* \"lesson/lesson05/MyTokenWork.sol\":4440:4461  balanceMp[msg.sender] */\n      0x00\n        /* \"lesson/lesson05/MyTokenWork.sol\":4450:4460  msg.sender */\n      caller\n        /* \"lesson/lesson05/MyTokenWork.sol\":4440:4461  balanceMp[msg.sender] */\n      0xffffffffffffffffffffffffffffffffffffffff\n      and\n      0xffffffffffffffffffffffffffffffffffffffff\n      and\n      dup2\n      mstore\n      0x20\n      add\n      swap1\n      dup2\n      mstore\n      0x20\n      add\n      0x00\n      keccak256\n      0x00\n        /* \"lesson/lesson05/MyTokenWork.sol\":4440:4471  balanceMp[msg.sender] -= amount */\n      dup3\n      dup3\n      sload\n      tag_77\n      swap2\n      swap1\n      tag_60\n      jump\t// in\n    tag_77:\n      swap3\n      pop\n      pop\n      dup2\n      swap1\n      sstore\n      pop\n        /* \"lesson/lesson05/MyTokenWork.sol\":4518:4519  0 */\n      0x00\n        /* \"lesson/lesson05/MyTokenWork.sol\":4489:4529  Transfer(msg.sender, address(0), amount) */\n      0xffffffffffffffffffffffffffffffffffffffff\n      and\n        /* \"lesson/lesson05/MyTokenWork.sol\":4498:4508  msg.sender */\n      caller\n        /* \"lesson/lesson05/MyTokenWork.sol\":4489:4529  Transfer(msg.sender, address(0), amount) */\n      0xffffffffffffffffffffffffffffffffffffffff\n      and\n      0xddf252ad1be2c89b69c2b068fc378daa952ba7f163c4a11628f55a4df523b3ef\n        /* \"lesson/lesson05/MyTokenWork.sol\":4522:4528  amount */\n      dup5\n        /* \"lesson/lesson05/MyTokenWork.sol\":4489:4529  Transfer(msg.sender, address(0), amount) */\n      mload(0x40)\n      tag_78\n      swap2\n      swap1\n      tag_46\n      jump\t// in\n    tag_78:\n      mload(0x40)\n      dup1\n      swap2\n      sub\n      swap1\n      log3\n        /* \"lesson/lesson05/MyTokenWork.sol\":4547:4551  true */\n      0x01\n        /* \"lesson/lesson05/MyTokenWork.sol\":4540:4551  return true */\n      swap1\n      pop\n        /* \"lesson/lesson05/MyTokenWork.sol\":4250:4559  function burn(uint256 amount) public returns(bool) {... */\n      swap2\n      swap1\n      pop\n      jump\t// out\n        /* \"lesson/lesson05/MyTokenWork.sol\":1378:1714  function approval(address spender, uint256 amount) public returns(bool){... */\n    tag_30:\n        /* \"lesson/lesson05/MyTokenWork.sol\":1444:1448  bool */\n      0x00\n        /* \"lesson/lesson05/MyTokenWork.sol\":1470:1527  checkAddress(spender, \"Approval spender addrees is zero\") */\n      tag_80\n        /* \"lesson/lesson05/MyTokenWork.sol\":1483:1490  spender */\n      dup4\n        /* \"lesson/lesson05/MyTokenWork.sol\":1470:1527  checkAddress(spender, \"Approval spender addrees is zero\") */\n      mload(0x40)\n      dup1\n      0x40\n      add\n      0x40\n      mstore\n      dup1\n      0x20\n      dup2\n      mstore\n      0x20\n      add\n      0x417070726f76616c207370656e6465722061646472656573206973207a65726f\n      dup2\n      mstore\n      pop\n        /* \"lesson/lesson05/MyTokenWork.sol\":1470:1482  checkAddress */\n      tag_54\n        /* \"lesson/lesson05/MyTokenWork.sol\":1470:1527  checkAddress(spender, \"Approval spender addrees is zero\") */\n      jump\t// in\n    tag_80:\n        /* \"lesson/lesson05/MyTokenWork.sol\":1573:1579  amount */\n      dup2\n        /* \"lesson/lesson05/MyTokenWork.sol\":1540:1549  allowance */\n      0x04\n        /* \"lesson/lesson05/MyTokenWork.sol\":1540:1561  allowance[msg.sender] */\n      0x00\n        /* \"lesson/lesson05/MyTokenWork.sol\":1550:1560  msg.sender */\n      caller\n        /* \"lesson/lesson05/MyTokenWork.sol\":1540:1561  allowance[msg.sender] */\n      0xffffffffffffffffffffffffffffffffffffffff\n      and\n      0xffffffffffffffffffffffffffffffffffffffff\n      and\n      dup2\n      mstore\n      0x20\n      add\n      swap1\n      dup2\n      mstore\n      0x20\n      add\n      0x00\n      keccak256\n        /* \"lesson/lesson05/MyTokenWork.sol\":1540:1570  allowance[msg.sender][spender] */\n      0x00\n        /* \"lesson/lesson05/MyTokenWork.sol\":1562:1569  spender */\n      dup6\n        /* \"lesson/lesson05/MyTokenWork.sol\":1540:1570  allowance[msg.sender][spender] */\n      0xffffffffffffffffffffffffffffffffffffffff\n      and\n      0xffffffffffffffffffffffffffffffffffffffff\n      and\n      dup2\n      mstore\n      0x20\n      add\n      swap1\n      dup2\n      mstore\n      0x20\n      add\n      0x00\n      keccak256\n        /* \"lesson/lesson05/MyTokenWork.sol\":1540:1579  allowance[msg.sender][spender] = amount */\n      dup2\n      swap1\n      sstore\n      pop\n        /* \"lesson/lesson05/MyTokenWork.sol\":1618:1625  spender */\n      dup3\n        /* \"lesson/lesson05/MyTokenWork.sol\":1597:1629  Approval(msg.sender, spender, 0) */\n      0xffffffffffffffffffffffffffffffffffffffff\n      and\n        /* \"lesson/lesson05/MyTokenWork.sol\":1606:1616  msg.sender */\n      caller\n        /* \"lesson/lesson05/MyTokenWork.sol\":1597:1629  Approval(msg.sender, spender, 0) */\n      0xffffffffffffffffffffffffffffffffffffffff\n      and\n      0x8c5be1e5ebec7d5bd14f71427d1e84f3dd0314c0f7b2291e5b200ac8c7c3b925\n        /* \"lesson/lesson05/MyTokenWork.sol\":1627:1628  0 */\n      0x00\n        /* \"lesson/lesson05/MyTokenWork.sol\":1597:1629  Approval(msg.sender, spender, 0) */\n      mload(0x40)\n      tag_81\n      swap2\n      swap1\n      tag_82\n      jump\t// in\n    tag_81:\n      mload(0x40)\n      dup1\n      swap2\n      sub\n      swap1\n      log3\n        /* \"lesson/lesson05/MyTokenWork.sol\":1666:1673  spender */\n      dup3\n        /* \"lesson/lesson05/MyTokenWork.sol\":1645:1682  Approval(msg.sender, spender, amount) */\n      0xffffffffffffffffffffffffffffffffffffffff\n      and\n        /* \"lesson/lesson05/MyTokenWork.sol\":1654:1664  msg.sender */\n      caller\n        /* \"lesson/lesson05/MyTokenWork.sol\":1645:1682  Approval(msg.sender, spender, amount) */\n      0xffffffffffffffffffffffffffffffffffffffff\n      and\n      0x8c5be1e5ebec7d5bd14f71427d1e84f3dd0314c0f7b2291e5b200ac8c7c3b925\n        /* \"lesson/lesson05/MyTokenWork.sol\":1675:1681  amount */\n      dup5\n        /* \"lesson/lesson05/MyTokenWork.sol\":1645:1682  Approval(msg.sender, spender, amount) */\n      mload(0x40)\n      tag_83\n      swap2\n      swap1\n      tag_46\n      jump\t// in\n    tag_83:\n      mload(0x40)\n      dup1\n      swap2\n      sub\n      swap1\n      log3\n        /* \"lesson/lesson05/MyTokenWork.sol\":1702:1706  true */\n      0x01\n        /* \"lesson/lesson05/MyTokenWork.sol\":1695:1706  return true */\n      swap1\n      pop\n        /* \"lesson/lesson05/MyTokenWork.sol\":1378:1714  function approval(address spender, uint256 amount) public returns(bool){... */\n      swap3\n      swap2\n      pop\n      pop\n      jump\t// out\n        /* \"lesson/lesson05/MyTokenWork.sol\":2287:3219  function batchTransfer(address[] memory addArr, uint256[] memory amountArr) public returns(bool) {... */\n    tag_35:\n        /* \"lesson/lesson05/MyTokenWork.sol\":2378:2382  bool */\n      0x00\n        /* \"lesson/lesson05/MyTokenWork.sol\":2476:2505  checkBatch(addArr, amountArr) */\n      tag_85\n        /* \"lesson/lesson05/MyTokenWork.sol\":2487:2493  addArr */\n      dup4\n        /* \"lesson/lesson05/MyTokenWork.sol\":2495:2504  amountArr */\n      dup4\n        /* \"lesson/lesson05/MyTokenWork.sol\":2476:2486  checkBatch */\n      tag_86\n        /* \"lesson/lesson05/MyTokenWork.sol\":2476:2505  checkBatch(addArr, amountArr) */\n      jump\t// in\n    tag_85:\n        /* \"lesson/lesson05/MyTokenWork.sol\":2560:2579  uint256 totalAmount */\n      0x00\n        /* \"lesson/lesson05/MyTokenWork.sol\":2582:2607  sumAmountArray(amountArr) */\n      tag_87\n        /* \"lesson/lesson05/MyTokenWork.sol\":2597:2606  amountArr */\n      dup4\n        /* \"lesson/lesson05/MyTokenWork.sol\":2582:2596  sumAmountArray */\n      tag_88\n        /* \"lesson/lesson05/MyTokenWork.sol\":2582:2607  sumAmountArray(amountArr) */\n      jump\t// in\n    tag_87:\n        /* \"lesson/lesson05/MyTokenWork.sol\":2560:2607  uint256 totalAmount = sumAmountArray(amountArr) */\n      swap1\n      pop\n        /* \"lesson/lesson05/MyTokenWork.sol\":2651:2662  totalAmount */\n      dup1\n        /* \"lesson/lesson05/MyTokenWork.sol\":2626:2635  balanceMp */\n      0x03\n        /* \"lesson/lesson05/MyTokenWork.sol\":2626:2647  balanceMp[msg.sender] */\n      0x00\n        /* \"lesson/lesson05/MyTokenWork.sol\":2636:2646  msg.sender */\n      caller\n        /* \"lesson/lesson05/MyTokenWork.sol\":2626:2647  balanceMp[msg.sender] */\n      0xffffffffffffffffffffffffffffffffffffffff\n      and\n      0xffffffffffffffffffffffffffffffffffffffff\n      and\n      dup2\n      mstore\n      0x20\n      add\n      swap1\n      dup2\n      mstore\n      0x20\n      add\n      0x00\n      keccak256\n      sload\n        /* \"lesson/lesson05/MyTokenWork.sol\":2626:2662  balanceMp[msg.sender] >= totalAmount */\n      lt\n      iszero\n        /* \"lesson/lesson05/MyTokenWork.sol\":2618:2687  require(balanceMp[msg.sender] >= totalAmount, \"Insufficient balance\") */\n      tag_89\n      jumpi\n      mload(0x40)\n      0x08c379a000000000000000000000000000000000000000000000000000000000\n      dup2\n      mstore\n      0x04\n      add\n      tag_90\n      swap1\n      tag_91\n      jump\t// in\n    tag_90:\n      mload(0x40)\n      dup1\n      swap2\n      sub\n      swap1\n      revert\n    tag_89:\n        /* \"lesson/lesson05/MyTokenWork.sol\":2708:2719  uint256 len */\n      0x00\n        /* \"lesson/lesson05/MyTokenWork.sol\":2722:2728  addArr */\n      dup5\n        /* \"lesson/lesson05/MyTokenWork.sol\":2722:2735  addArr.length */\n      mload\n        /* \"lesson/lesson05/MyTokenWork.sol\":2708:2735  uint256 len = addArr.length */\n      swap1\n      pop\n        /* \"lesson/lesson05/MyTokenWork.sol\":2751:2757  uint i */\n      0x00\n        /* \"lesson/lesson05/MyTokenWork.sol\":2760:2761  0 */\n      0x00\n        /* \"lesson/lesson05/MyTokenWork.sol\":2751:2761  uint i = 0 */\n      swap1\n      pop\n        /* \"lesson/lesson05/MyTokenWork.sol\":2746:2904  for (uint i = 0; i < len; i++) {... */\n    tag_92:\n        /* \"lesson/lesson05/MyTokenWork.sol\":2767:2770  len */\n      dup2\n        /* \"lesson/lesson05/MyTokenWork.sol\":2763:2764  i */\n      dup2\n        /* \"lesson/lesson05/MyTokenWork.sol\":2763:2770  i < len */\n      lt\n        /* \"lesson/lesson05/MyTokenWork.sol\":2746:2904  for (uint i = 0; i < len; i++) {... */\n      iszero\n      tag_93\n      jumpi\n        /* \"lesson/lesson05/MyTokenWork.sol\":2792:2834  checkAddress(addArr[i], \"Invalid address\") */\n      tag_95\n        /* \"lesson/lesson05/MyTokenWork.sol\":2805:2811  addArr */\n      dup7\n        /* \"lesson/lesson05/MyTokenWork.sol\":2812:2813  i */\n      dup3\n        /* \"lesson/lesson05/MyTokenWork.sol\":2805:2814  addArr[i] */\n      dup2\n      mload\n      dup2\n      lt\n      tag_96\n      jumpi\n      tag_97\n      tag_98\n      jump\t// in\n    tag_97:\n    tag_96:\n      0x20\n      mul\n      0x20\n      add\n      add\n      mload\n        /* \"lesson/lesson05/MyTokenWork.sol\":2792:2834  checkAddress(addArr[i], \"Invalid address\") */\n      mload(0x40)\n      dup1\n      0x40\n      add\n      0x40\n      mstore\n      dup1\n      0x0f\n      dup2\n      mstore\n      0x20\n      add\n      0x496e76616c696420616464726573730000000000000000000000000000000000\n      dup2\n      mstore\n      pop\n        /* \"lesson/lesson05/MyTokenWork.sol\":2792:2804  checkAddress */\n      tag_54\n        /* \"lesson/lesson05/MyTokenWork.sol\":2792:2834  checkAddress(addArr[i], \"Invalid address\") */\n      jump\t// in\n    tag_95:\n        /* \"lesson/lesson05/MyTokenWork.sol\":2872:2873  0 */\n      0x00\n        /* \"lesson/lesson05/MyTokenWork.sol\":2857:2866  amountArr */\n      dup6\n        /* \"lesson/lesson05/MyTokenWork.sol\":2867:2868  i */\n      dup3\n        /* \"lesson/lesson05/MyTokenWork.sol\":2857:2869  amountArr[i] */\n      dup2\n      mload\n      dup2\n      lt\n      tag_99\n      jumpi\n      tag_100\n      tag_98\n      jump\t// in\n    tag_100:\n    tag_99:\n      0x20\n      mul\n      0x20\n      add\n      add\n      mload\n        /* \"lesson/lesson05/MyTokenWork.sol\":2857:2873  amountArr[i] > 0 */\n      gt\n        /* \"lesson/lesson05/MyTokenWork.sol\":2849:2892  require(amountArr[i] > 0, \"Invalid amount\") */\n      tag_101\n      jumpi\n      mload(0x40)\n      0x08c379a000000000000000000000000000000000000000000000000000000000\n      dup2\n      mstore\n      0x04\n      add\n      tag_102\n      swap1\n      tag_103\n      jump\t// in\n    tag_102:\n      mload(0x40)\n      dup1\n      swap2\n      sub\n      swap1\n      revert\n    tag_101:\n        /* \"lesson/lesson05/MyTokenWork.sol\":2772:2775  i++ */\n      dup1\n      dup1\n      0x01\n      add\n      swap2\n      pop\n      pop\n        /* \"lesson/lesson05/MyTokenWork.sol\":2746:2904  for (uint i = 0; i < len; i++) {... */\n      jump(tag_92)\n    tag_93:\n      pop\n        /* \"lesson/lesson05/MyTokenWork.sol\":2919:2925  uint i */\n      0x00\n        /* \"lesson/lesson05/MyTokenWork.sol\":2928:2929  0 */\n      0x00\n        /* \"lesson/lesson05/MyTokenWork.sol\":2919:2929  uint i = 0 */\n      swap1\n      pop\n        /* \"lesson/lesson05/MyTokenWork.sol\":2914:3188  for (uint i = 0; i < len; i++) {... */\n    tag_104:\n        /* \"lesson/lesson05/MyTokenWork.sol\":2935:2938  len */\n      dup2\n        /* \"lesson/lesson05/MyTokenWork.sol\":2931:2932  i */\n      dup2\n        /* \"lesson/lesson05/MyTokenWork.sol\":2931:2938  i < len */\n      lt\n        /* \"lesson/lesson05/MyTokenWork.sol\":2914:3188  for (uint i = 0; i < len; i++) {... */\n      iszero\n      tag_105\n      jumpi\n        /* \"lesson/lesson05/MyTokenWork.sol\":2960:2971  uint amount */\n      0x00\n        /* \"lesson/lesson05/MyTokenWork.sol\":2974:2983  amountArr */\n      dup6\n        /* \"lesson/lesson05/MyTokenWork.sol\":2984:2985  i */\n      dup3\n        /* \"lesson/lesson05/MyTokenWork.sol\":2974:2986  amountArr[i] */\n      dup2\n      mload\n      dup2\n      lt\n      tag_107\n      jumpi\n      tag_108\n      tag_98\n      jump\t// in\n    tag_108:\n    tag_107:\n      0x20\n      mul\n      0x20\n      add\n      add\n      mload\n        /* \"lesson/lesson05/MyTokenWork.sol\":2960:2986  uint amount = amountArr[i] */\n      swap1\n      pop\n        /* \"lesson/lesson05/MyTokenWork.sol\":3026:3032  amount */\n      dup1\n        /* \"lesson/lesson05/MyTokenWork.sol\":3001:3010  balanceMp */\n      0x03\n        /* \"lesson/lesson05/MyTokenWork.sol\":3001:3022  balanceMp[msg.sender] */\n      0x00\n        /* \"lesson/lesson05/MyTokenWork.sol\":3011:3021  msg.sender */\n      caller\n        /* \"lesson/lesson05/MyTokenWork.sol\":3001:3022  balanceMp[msg.sender] */\n      0xffffffffffffffffffffffffffffffffffffffff\n      and\n      0xffffffffffffffffffffffffffffffffffffffff\n      and\n      dup2\n      mstore\n      0x20\n      add\n      swap1\n      dup2\n      mstore\n      0x20\n      add\n      0x00\n      keccak256\n      0x00\n        /* \"lesson/lesson05/MyTokenWork.sol\":3001:3032  balanceMp[msg.sender] -= amount */\n      dup3\n      dup3\n      sload\n      tag_109\n      swap2\n      swap1\n      tag_60\n      jump\t// in\n    tag_109:\n      swap3\n      pop\n      pop\n      dup2\n      swap1\n      sstore\n      pop\n        /* \"lesson/lesson05/MyTokenWork.sol\":3085:3094  amountArr */\n      dup6\n        /* \"lesson/lesson05/MyTokenWork.sol\":3095:3096  i */\n      dup3\n        /* \"lesson/lesson05/MyTokenWork.sol\":3085:3097  amountArr[i] */\n      dup2\n      mload\n      dup2\n      lt\n      tag_110\n      jumpi\n      tag_111\n      tag_98\n      jump\t// in\n    tag_111:\n    tag_110:\n      0x20\n      mul\n      0x20\n      add\n      add\n      mload\n        /* \"lesson/lesson05/MyTokenWork.sol\":3061:3070  balanceMp */\n      0x03\n        /* \"lesson/lesson05/MyTokenWork.sol\":3061:3081  balanceMp[addArr[i]] */\n      0x00\n        /* \"lesson/lesson05/MyTokenWork.sol\":3071:3077  addArr */\n      dup10\n        /* \"lesson/lesson05/MyTokenWork.sol\":3078:3079  i */\n      dup6\n        /* \"lesson/lesson05/MyTokenWork.sol\":3071:3080  addArr[i] */\n      dup2\n      mload\n      dup2\n      lt\n      tag_112\n      jumpi\n      tag_113\n      tag_98\n      jump\t// in\n    tag_113:\n    tag_112:\n      0x20\n      mul\n      0x20\n      add\n      add\n      mload\n        /* \"lesson/lesson05/MyTokenWork.sol\":3061:3081  balanceMp[addArr[i]] */\n      0xffffffffffffffffffffffffffffffffffffffff\n      and\n      0xffffffffffffffffffffffffffffffffffffffff\n      and\n      dup2\n      mstore\n      0x20\n      add\n      swap1\n      dup2\n      mstore\n      0x20\n      add\n      0x00\n      keccak256\n      0x00\n        /* \"lesson/lesson05/MyTokenWork.sol\":3061:3097  balanceMp[addArr[i]] += amountArr[i] */\n      dup3\n      dup3\n      sload\n      tag_114\n      swap2\n      swap1\n      tag_62\n      jump\t// in\n    tag_114:\n      swap3\n      pop\n      pop\n      dup2\n      swap1\n      sstore\n      pop\n        /* \"lesson/lesson05/MyTokenWork.sol\":3152:3158  addArr */\n      dup7\n        /* \"lesson/lesson05/MyTokenWork.sol\":3159:3160  i */\n      dup3\n        /* \"lesson/lesson05/MyTokenWork.sol\":3152:3161  addArr[i] */\n      dup2\n      mload\n      dup2\n      lt\n      tag_115\n      jumpi\n      tag_116\n      tag_98\n      jump\t// in\n    tag_116:\n    tag_115:\n      0x20\n      mul\n      0x20\n      add\n      add\n      mload\n        /* \"lesson/lesson05/MyTokenWork.sol\":3131:3176  Transfer(msg.sender, addArr[i], amountArr[i]) */\n      0xffffffffffffffffffffffffffffffffffffffff\n      and\n        /* \"lesson/lesson05/MyTokenWork.sol\":3140:3150  msg.sender */\n      caller\n        /* \"lesson/lesson05/MyTokenWork.sol\":3131:3176  Transfer(msg.sender, addArr[i], amountArr[i]) */\n      0xffffffffffffffffffffffffffffffffffffffff\n      and\n      0xddf252ad1be2c89b69c2b068fc378daa952ba7f163c4a11628f55a4df523b3ef\n        /* \"lesson/lesson05/MyTokenWork.sol\":3163:3172  amountArr */\n      dup9\n        /* \"lesson/lesson05/MyTokenWork.sol\":3173:3174  i */\n      dup6\n        /* \"lesson/lesson05/MyTokenWork.sol\":3163:3175  amountArr[i] */\n      dup2\n      mload\n      dup2\n      lt\n      tag_117\n      jumpi\n      tag_118\n      tag_98\n      jump\t// in\n    tag_118:\n    tag_117:\n      0x20\n      mul\n      0x20\n      add\n      add\n      mload\n        /* \"lesson/lesson05/MyTokenWork.sol\":3131:3176  Transfer(msg.sender, addArr[i], amountArr[i]) */\n      mload(0x40)\n      tag_119\n      swap2\n      swap1\n      tag_46\n      jump\t// in\n    tag_119:\n      mload(0x40)\n      dup1\n      swap2\n      sub\n      swap1\n      log3\n        /* \"lesson/lesson05/MyTokenWork.sol\":2945:3188  {... */\n      pop\n        /* \"lesson/lesson05/MyTokenWork.sol\":2940:2943  i++ */\n      dup1\n      dup1\n      0x01\n      add\n      swap2\n      pop\n      pop\n        /* \"lesson/lesson05/MyTokenWork.sol\":2914:3188  for (uint i = 0; i < len; i++) {... */\n      jump(tag_104)\n    tag_105:\n      pop\n        /* \"lesson/lesson05/MyTokenWork.sol\":3205:3209  true */\n      0x01\n        /* \"lesson/lesson05/MyTokenWork.sol\":3198:3209  return true */\n      swap3\n      pop\n      pop\n      pop\n        /* \"lesson/lesson05/MyTokenWork.sol\":2287:3219  function batchTransfer(address[] memory addArr, uint256[] memory amountArr) public returns(bool) {... */\n      swap3\n      swap2\n      pop\n      pop\n      jump\t// out\n        /* \"lesson/lesson05/MyTokenWork.sol\":1012:1370  function transfer(address to, uint256 amount) public returns(bool) {... */\n    tag_39:\n        /* \"lesson/lesson05/MyTokenWork.sol\":1073:1077  bool */\n      0x00\n        /* \"lesson/lesson05/MyTokenWork.sol\":1090:1134  checkAddress(to, \"To transfer zero addrees\") */\n      tag_121\n        /* \"lesson/lesson05/MyTokenWork.sol\":1103:1105  to */\n      dup4\n        /* \"lesson/lesson05/MyTokenWork.sol\":1090:1134  checkAddress(to, \"To transfer zero addrees\") */\n      mload(0x40)\n      dup1\n      0x40\n      add\n      0x40\n      mstore\n      dup1\n      0x18\n      dup2\n      mstore\n      0x20\n      add\n      0x546f207472616e73666572207a65726f20616464726565730000000000000000\n      dup2\n      mstore\n      pop\n        /* \"lesson/lesson05/MyTokenWork.sol\":1090:1102  checkAddress */\n      tag_54\n        /* \"lesson/lesson05/MyTokenWork.sol\":1090:1134  checkAddress(to, \"To transfer zero addrees\") */\n      jump\t// in\n    tag_121:\n        /* \"lesson/lesson05/MyTokenWork.sol\":1145:1212  checkBalance(balanceMp[msg.sender], amount, \"Insufficient balance\") */\n      tag_122\n        /* \"lesson/lesson05/MyTokenWork.sol\":1158:1167  balanceMp */\n      0x03\n        /* \"lesson/lesson05/MyTokenWork.sol\":1158:1179  balanceMp[msg.sender] */\n      0x00\n        /* \"lesson/lesson05/MyTokenWork.sol\":1168:1178  msg.sender */\n      caller\n        /* \"lesson/lesson05/MyTokenWork.sol\":1158:1179  balanceMp[msg.sender] */\n      0xffffffffffffffffffffffffffffffffffffffff\n      and\n      0xffffffffffffffffffffffffffffffffffffffff\n      and\n      dup2\n      mstore\n      0x20\n      add\n      swap1\n      dup2\n      mstore\n      0x20\n      add\n      0x00\n      keccak256\n      sload\n        /* \"lesson/lesson05/MyTokenWork.sol\":1181:1187  amount */\n      dup4\n        /* \"lesson/lesson05/MyTokenWork.sol\":1145:1212  checkBalance(balanceMp[msg.sender], amount, \"Insufficient balance\") */\n      mload(0x40)\n      dup1\n      0x40\n      add\n      0x40\n      mstore\n      dup1\n      0x14\n      dup2\n      mstore\n      0x20\n      add\n      0x496e73756666696369656e742062616c616e6365000000000000000000000000\n      dup2\n      mstore\n      pop\n        /* \"lesson/lesson05/MyTokenWork.sol\":1145:1157  checkBalance */\n      tag_57\n        /* \"lesson/lesson05/MyTokenWork.sol\":1145:1212  checkBalance(balanceMp[msg.sender], amount, \"Insufficient balance\") */\n      jump\t// in\n    tag_122:\n        /* \"lesson/lesson05/MyTokenWork.sol\":1250:1256  amount */\n      dup2\n        /* \"lesson/lesson05/MyTokenWork.sol\":1225:1234  balanceMp */\n      0x03\n        /* \"lesson/lesson05/MyTokenWork.sol\":1225:1246  balanceMp[msg.sender] */\n      0x00\n        /* \"lesson/lesson05/MyTokenWork.sol\":1235:1245  msg.sender */\n      caller\n        /* \"lesson/lesson05/MyTokenWork.sol\":1225:1246  balanceMp[msg.sender] */\n      0xffffffffffffffffffffffffffffffffffffffff\n      and\n      0xffffffffffffffffffffffffffffffffffffffff\n      and\n      dup2\n      mstore\n      0x20\n      add\n      swap1\n      dup2\n      mstore\n      0x20\n      add\n      0x00\n      keccak256\n      0x00\n        /* \"lesson/lesson05/MyTokenWork.sol\":1225:1256  balanceMp[msg.sender] -= amount */\n      dup3\n      dup3\n      sload\n      tag_123\n      swap2\n      swap1\n      tag_60\n      jump\t// in\n    tag_123:\n      swap3\n      pop\n      pop\n      dup2\n      swap1\n      sstore\n      pop\n        /* \"lesson/lesson05/MyTokenWork.sol\":1284:1290  amount */\n      dup2\n        /* \"lesson/lesson05/MyTokenWork.sol\":1267:1276  balanceMp */\n      0x03\n        /* \"lesson/lesson05/MyTokenWork.sol\":1267:1280  balanceMp[to] */\n      0x00\n        /* \"lesson/lesson05/MyTokenWork.sol\":1277:1279  to */\n      dup6\n        /* \"lesson/lesson05/MyTokenWork.sol\":1267:1280  balanceMp[to] */\n      0xffffffffffffffffffffffffffffffffffffffff\n      and\n      0xffffffffffffffffffffffffffffffffffffffff\n      and\n      dup2\n      mstore\n      0x20\n      add\n      swap1\n      dup2\n      mstore\n      0x20\n      add\n      0x00\n      keccak256\n      0x00\n        /* \"lesson/lesson05/MyTokenWork.sol\":1267:1290  balanceMp[to] += amount */\n      dup3\n      dup3\n      sload\n      tag_124\n      swap2\n      swap1\n      tag_62\n      jump\t// in\n    tag_124:\n      swap3\n      pop\n      pop\n      dup2\n      swap1\n      sstore\n      pop\n        /* \"lesson/lesson05/MyTokenWork.sol\":1329:1331  to */\n      dup3\n        /* \"lesson/lesson05/MyTokenWork.sol\":1308:1340  Transfer(msg.sender, to, amount) */\n      0xffffffffffffffffffffffffffffffffffffffff\n      and\n        /* \"lesson/lesson05/MyTokenWork.sol\":1317:1327  msg.sender */\n      caller\n        /* \"lesson/lesson05/MyTokenWork.sol\":1308:1340  Transfer(msg.sender, to, amount) */\n      0xffffffffffffffffffffffffffffffffffffffff\n      and\n      0xddf252ad1be2c89b69c2b068fc378daa952ba7f163c4a11628f55a4df523b3ef\n        /* \"lesson/lesson05/MyTokenWork.sol\":1333:1339  amount */\n      dup5\n        /* \"lesson/lesson05/MyTokenWork.sol\":1308:1340  Transfer(msg.sender, to, amount) */\n      mload(0x40)\n      tag_125\n      swap2\n      swap1\n      tag_46\n      jump\t// in\n    tag_125:\n      mload(0x40)\n      dup1\n      swap2\n      sub\n      swap1\n      log3\n        /* \"lesson/lesson05/MyTokenWork.sol\":1358:1362  true */\n      0x01\n        /* \"lesson/lesson05/MyTokenWork.sol\":1351:1362  return true */\n      swap1\n      pop\n        /* \"lesson/lesson05/MyTokenWork.sol\":1012:1370  function transfer(address to, uint256 amount) public returns(bool) {... */\n      swap3\n      swap2\n      pop\n      pop\n      jump\t// out\n        /* \"lesson/lesson05/MyTokenWork.sol\":222:266  mapping(address => uint256) public balanceMp */\n    tag_44:\n      mstore(0x20, 0x03)\n      dup1\n      0x00\n      mstore\n      keccak256(0x00, 0x40)\n      0x00\n      swap2\n      pop\n      swap1\n      pop\n      sload\n      dup2\n      jump\t// out\n        /* \"lesson/lesson05/MyTokenWork.sol\":273:337  mapping(address => mapping(address => uint256)) public allowance */\n    tag_50:\n      mstore(0x20, 0x04)\n      dup2\n      0x00\n      mstore\n      mstore(0x20, keccak256(0x00, 0x40))\n      dup1\n      0x00\n      mstore\n      keccak256(0x00, 0x40)\n      0x00\n      swap2\n      pop\n      swap2\n      pop\n      pop\n      sload\n      dup2\n      jump\t// out\n        /* \"lesson/lesson05/MyTokenWork.sol\":4588:4711  function checkAddress(address _addr, string memory _str) private pure {... */\n    tag_54:\n        /* \"lesson/lesson05/MyTokenWork.sol\":4694:4695  0 */\n      0x00\n        /* \"lesson/lesson05/MyTokenWork.sol\":4677:4696  _addr != address(0) */\n      0xffffffffffffffffffffffffffffffffffffffff\n      and\n        /* \"lesson/lesson05/MyTokenWork.sol\":4677:4682  _addr */\n      dup3\n        /* \"lesson/lesson05/MyTokenWork.sol\":4677:4696  _addr != address(0) */\n      0xffffffffffffffffffffffffffffffffffffffff\n      and\n      eq\n      iszero\n        /* \"lesson/lesson05/MyTokenWork.sol\":4698:4702  _str */\n      dup2\n        /* \"lesson/lesson05/MyTokenWork.sol\":4669:4703  require(_addr != address(0), _str) */\n      swap1\n      tag_127\n      jumpi\n      mload(0x40)\n      0x08c379a000000000000000000000000000000000000000000000000000000000\n      dup2\n      mstore\n      0x04\n      add\n      tag_128\n      swap2\n      swap1\n      tag_129\n      jump\t// in\n    tag_128:\n      mload(0x40)\n      dup1\n      swap2\n      sub\n      swap1\n      revert\n    tag_127:\n      pop\n        /* \"lesson/lesson05/MyTokenWork.sol\":4588:4711  function checkAddress(address _addr, string memory _str) private pure {... */\n      pop\n      pop\n      jump\t// out\n        /* \"lesson/lesson05/MyTokenWork.sol\":4740:4879  function checkBalance(uint256 balance, uint256 amount, string memory _str) private pure {... */\n    tag_57:\n        /* \"lesson/lesson05/MyTokenWork.sol\":4858:4864  amount */\n      dup2\n        /* \"lesson/lesson05/MyTokenWork.sol\":4847:4854  balance */\n      dup4\n        /* \"lesson/lesson05/MyTokenWork.sol\":4847:4864  balance >= amount */\n      lt\n      iszero\n        /* \"lesson/lesson05/MyTokenWork.sol\":4866:4870  _str */\n      dup2\n        /* \"lesson/lesson05/MyTokenWork.sol\":4839:4871  require(balance >= amount, _str) */\n      swap1\n      tag_131\n      jumpi\n      mload(0x40)\n      0x08c379a000000000000000000000000000000000000000000000000000000000\n      dup2\n      mstore\n      0x04\n      add\n      tag_132\n      swap2\n      swap1\n      tag_129\n      jump\t// in\n    tag_132:\n      mload(0x40)\n      dup1\n      swap2\n      sub\n      swap1\n      revert\n    tag_131:\n      pop\n        /* \"lesson/lesson05/MyTokenWork.sol\":4740:4879  function checkBalance(uint256 balance, uint256 amount, string memory _str) private pure {... */\n      pop\n      pop\n      pop\n      jump\t// out\n        /* \"lesson/lesson05/MyTokenWork.sol\":3227:3670  function checkBatch(address[] memory _addArr, uint256[] memory _amountArr) private pure {... */\n    tag_86:\n        /* \"lesson/lesson05/MyTokenWork.sol\":3326:3340  uint256 addLen */\n      0x00\n        /* \"lesson/lesson05/MyTokenWork.sol\":3343:3350  _addArr */\n      dup3\n        /* \"lesson/lesson05/MyTokenWork.sol\":3343:3357  _addArr.length */\n      mload\n        /* \"lesson/lesson05/MyTokenWork.sol\":3326:3357  uint256 addLen = _addArr.length */\n      swap1\n      pop\n        /* \"lesson/lesson05/MyTokenWork.sol\":3368:3385  uint256 amountLen */\n      0x00\n        /* \"lesson/lesson05/MyTokenWork.sol\":3388:3398  _amountArr */\n      dup3\n        /* \"lesson/lesson05/MyTokenWork.sol\":3388:3405  _amountArr.length */\n      mload\n        /* \"lesson/lesson05/MyTokenWork.sol\":3368:3405  uint256 amountLen = _amountArr.length */\n      swap1\n      pop\n        /* \"lesson/lesson05/MyTokenWork.sol\":3428:3434  addLen */\n      dup2\n        /* \"lesson/lesson05/MyTokenWork.sol\":3424:3425  0 */\n      0x00\n        /* \"lesson/lesson05/MyTokenWork.sol\":3424:3434  0 < addLen */\n      lt\n        /* \"lesson/lesson05/MyTokenWork.sol\":3424:3450  0 < addLen && addLen <= 10 */\n      dup1\n      iszero\n      tag_134\n      jumpi\n      pop\n        /* \"lesson/lesson05/MyTokenWork.sol\":3448:3450  10 */\n      0x0a\n        /* \"lesson/lesson05/MyTokenWork.sol\":3438:3444  addLen */\n      dup3\n        /* \"lesson/lesson05/MyTokenWork.sol\":3438:3450  addLen <= 10 */\n      gt\n      iszero\n        /* \"lesson/lesson05/MyTokenWork.sol\":3424:3450  0 < addLen && addLen <= 10 */\n    tag_134:\n        /* \"lesson/lesson05/MyTokenWork.sol\":3416:3486  require(0 < addLen && addLen <= 10, \"_addArr not empty or exceed ten\") */\n      tag_135\n      jumpi\n      mload(0x40)\n      0x08c379a000000000000000000000000000000000000000000000000000000000\n      dup2\n      mstore\n      0x04\n      add\n      tag_136\n      swap1\n      tag_137\n      jump\t// in\n    tag_136:\n      mload(0x40)\n      dup1\n      swap2\n      sub\n      swap1\n      revert\n    tag_135:\n        /* \"lesson/lesson05/MyTokenWork.sol\":3509:3518  amountLen */\n      dup1\n        /* \"lesson/lesson05/MyTokenWork.sol\":3505:3506  0 */\n      0x00\n        /* \"lesson/lesson05/MyTokenWork.sol\":3505:3518  0 < amountLen */\n      lt\n        /* \"lesson/lesson05/MyTokenWork.sol\":3505:3537  0 < amountLen && amountLen <= 10 */\n      dup1\n      iszero\n      tag_138\n      jumpi\n      pop\n        /* \"lesson/lesson05/MyTokenWork.sol\":3535:3537  10 */\n      0x0a\n        /* \"lesson/lesson05/MyTokenWork.sol\":3522:3531  amountLen */\n      dup2\n        /* \"lesson/lesson05/MyTokenWork.sol\":3522:3537  amountLen <= 10 */\n      gt\n      iszero\n        /* \"lesson/lesson05/MyTokenWork.sol\":3505:3537  0 < amountLen && amountLen <= 10 */\n    tag_138:\n        /* \"lesson/lesson05/MyTokenWork.sol\":3497:3576  require(0 < amountLen && amountLen <= 10, \"_amountArr not empty or exceed ten\") */\n      tag_139\n      jumpi\n      mload(0x40)\n      0x08c379a000000000000000000000000000000000000000000000000000000000\n      dup2\n      mstore\n      0x04\n      add\n      tag_140\n      swap1\n      tag_141\n      jump\t// in\n    tag_140:\n      mload(0x40)\n      dup1\n      swap2\n      sub\n      swap1\n      revert\n    tag_139:\n        /* \"lesson/lesson05/MyTokenWork.sol\":3605:3614  amountLen */\n      dup1\n        /* \"lesson/lesson05/MyTokenWork.sol\":3595:3601  addLen */\n      dup3\n        /* \"lesson/lesson05/MyTokenWork.sol\":3595:3614  addLen == amountLen */\n      eq\n        /* \"lesson/lesson05/MyTokenWork.sol\":3587:3662  require(addLen == amountLen, \"_addArr legth and _amountArr legth mismatch\") */\n      tag_142\n      jumpi\n      mload(0x40)\n      0x08c379a000000000000000000000000000000000000000000000000000000000\n      dup2\n      mstore\n      0x04\n      add\n      tag_143\n      swap1\n      tag_144\n      jump\t// in\n    tag_143:\n      mload(0x40)\n      dup1\n      swap2\n      sub\n      swap1\n      revert\n    tag_142:\n        /* \"lesson/lesson05/MyTokenWork.sol\":3315:3670  {... */\n      pop\n      pop\n        /* \"lesson/lesson05/MyTokenWork.sol\":3227:3670  function checkBatch(address[] memory _addArr, uint256[] memory _amountArr) private pure {... */\n      pop\n      pop\n      jump\t// out\n        /* \"lesson/lesson05/MyTokenWork.sol\":3678:3951  function sumAmountArray(uint256[] memory _amountArr) private pure returns(uint256) {... */\n    tag_88:\n        /* \"lesson/lesson05/MyTokenWork.sol\":3752:3759  uint256 */\n      0x00\n        /* \"lesson/lesson05/MyTokenWork.sol\":3772:3785  uint256 total */\n      0x00\n        /* \"lesson/lesson05/MyTokenWork.sol\":3788:3789  0 */\n      0x00\n        /* \"lesson/lesson05/MyTokenWork.sol\":3772:3789  uint256 total = 0 */\n      swap1\n      pop\n        /* \"lesson/lesson05/MyTokenWork.sol\":3800:3811  uint256 len */\n      0x00\n        /* \"lesson/lesson05/MyTokenWork.sol\":3814:3824  _amountArr */\n      dup4\n        /* \"lesson/lesson05/MyTokenWork.sol\":3814:3831  _amountArr.length */\n      mload\n        /* \"lesson/lesson05/MyTokenWork.sol\":3800:3831  uint256 len = _amountArr.length */\n      swap1\n      pop\n        /* \"lesson/lesson05/MyTokenWork.sol\":3846:3852  uint i */\n      0x00\n        /* \"lesson/lesson05/MyTokenWork.sol\":3855:3856  0 */\n      0x00\n        /* \"lesson/lesson05/MyTokenWork.sol\":3846:3856  uint i = 0 */\n      swap1\n      pop\n        /* \"lesson/lesson05/MyTokenWork.sol\":3842:3921  for(uint i = 0; i < len; i++) {... */\n    tag_146:\n        /* \"lesson/lesson05/MyTokenWork.sol\":3862:3865  len */\n      dup2\n        /* \"lesson/lesson05/MyTokenWork.sol\":3858:3859  i */\n      dup2\n        /* \"lesson/lesson05/MyTokenWork.sol\":3858:3865  i < len */\n      lt\n        /* \"lesson/lesson05/MyTokenWork.sol\":3842:3921  for(uint i = 0; i < len; i++) {... */\n      iszero\n      tag_147\n      jumpi\n        /* \"lesson/lesson05/MyTokenWork.sol\":3896:3906  _amountArr */\n      dup5\n        /* \"lesson/lesson05/MyTokenWork.sol\":3907:3908  i */\n      dup2\n        /* \"lesson/lesson05/MyTokenWork.sol\":3896:3909  _amountArr[i] */\n      dup2\n      mload\n      dup2\n      lt\n      tag_149\n      jumpi\n      tag_150\n      tag_98\n      jump\t// in\n    tag_150:\n    tag_149:\n      0x20\n      mul\n      0x20\n      add\n      add\n      mload\n        /* \"lesson/lesson05/MyTokenWork.sol\":3887:3909  total += _amountArr[i] */\n      dup4\n      tag_151\n      swap2\n      swap1\n      tag_62\n      jump\t// in\n    tag_151:\n      swap3\n      pop\n        /* \"lesson/lesson05/MyTokenWork.sol\":3867:3870  i++ */\n      dup1\n      dup1\n      0x01\n      add\n      swap2\n      pop\n      pop\n        /* \"lesson/lesson05/MyTokenWork.sol\":3842:3921  for(uint i = 0; i < len; i++) {... */\n      jump(tag_146)\n    tag_147:\n      pop\n        /* \"lesson/lesson05/MyTokenWork.sol\":3938:3943  total */\n      dup2\n        /* \"lesson/lesson05/MyTokenWork.sol\":3931:3943  return total */\n      swap3\n      pop\n      pop\n      pop\n        /* \"lesson/lesson05/MyTokenWork.sol\":3678:3951  function sumAmountArray(uint256[] memory _amountArr) private pure returns(uint256) {... */\n      swap2\n      swap1\n      pop\n      jump\t// out\n        /* \"#utility.yul\":7:82   */\n    tag_152:\n        /* \"#utility.yul\":40:46   */\n      0x00\n        /* \"#utility.yul\":73:75   */\n      0x40\n        /* \"#utility.yul\":67:76   */\n      mload\n        /* \"#utility.yul\":57:76   */\n      swap1\n      pop\n        /* \"#utility.yul\":7:82   */\n      swap1\n      jump\t// out\n        /* \"#utility.yul\":88:205   */\n    tag_153:\n        /* \"#utility.yul\":197:198   */\n      0x00\n        /* \"#utility.yul\":194:195   */\n      0x00\n        /* \"#utility.yul\":187:199   */\n      revert\n        /* \"#utility.yul\":211:328   */\n    tag_154:\n        /* \"#utility.yul\":320:321   */\n      0x00\n        /* \"#utility.yul\":317:318   */\n      0x00\n        /* \"#utility.yul\":310:322   */\n      revert\n        /* \"#utility.yul\":334:460   */\n    tag_155:\n        /* \"#utility.yul\":371:378   */\n      0x00\n        /* \"#utility.yul\":411:453   */\n      0xffffffffffffffffffffffffffffffffffffffff\n        /* \"#utility.yul\":404:409   */\n      dup3\n        /* \"#utility.yul\":400:454   */\n      and\n        /* \"#utility.yul\":389:454   */\n      swap1\n      pop\n        /* \"#utility.yul\":334:460   */\n      swap2\n      swap1\n      pop\n      jump\t// out\n        /* \"#utility.yul\":466:562   */\n    tag_156:\n        /* \"#utility.yul\":503:510   */\n      0x00\n        /* \"#utility.yul\":532:556   */\n      tag_204\n        /* \"#utility.yul\":550:555   */\n      dup3\n        /* \"#utility.yul\":532:556   */\n      tag_155\n      jump\t// in\n    tag_204:\n        /* \"#utility.yul\":521:556   */\n      swap1\n      pop\n        /* \"#utility.yul\":466:562   */\n      swap2\n      swap1\n      pop\n      jump\t// out\n        /* \"#utility.yul\":568:690   */\n    tag_157:\n        /* \"#utility.yul\":641:665   */\n      tag_206\n        /* \"#utility.yul\":659:664   */\n      dup2\n        /* \"#utility.yul\":641:665   */\n      tag_156\n      jump\t// in\n    tag_206:\n        /* \"#utility.yul\":634:639   */\n      dup2\n        /* \"#utility.yul\":631:666   */\n      eq\n        /* \"#utility.yul\":621:684   */\n      tag_207\n      jumpi\n        /* \"#utility.yul\":680:681   */\n      0x00\n        /* \"#utility.yul\":677:678   */\n      0x00\n        /* \"#utility.yul\":670:682   */\n      revert\n        /* \"#utility.yul\":621:684   */\n    tag_207:\n        /* \"#utility.yul\":568:690   */\n      pop\n      jump\t// out\n        /* \"#utility.yul\":696:835   */\n    tag_158:\n        /* \"#utility.yul\":742:747   */\n      0x00\n        /* \"#utility.yul\":780:786   */\n      dup2\n        /* \"#utility.yul\":767:787   */\n      calldataload\n        /* \"#utility.yul\":758:787   */\n      swap1\n      pop\n        /* \"#utility.yul\":796:829   */\n      tag_209\n        /* \"#utility.yul\":823:828   */\n      dup2\n        /* \"#utility.yul\":796:829   */\n      tag_157\n      jump\t// in\n    tag_209:\n        /* \"#utility.yul\":696:835   */\n      swap3\n      swap2\n      pop\n      pop\n      jump\t// out\n        /* \"#utility.yul\":841:918   */\n    tag_159:\n        /* \"#utility.yul\":878:885   */\n      0x00\n        /* \"#utility.yul\":907:912   */\n      dup2\n        /* \"#utility.yul\":896:912   */\n      swap1\n      pop\n        /* \"#utility.yul\":841:918   */\n      swap2\n      swap1\n      pop\n      jump\t// out\n        /* \"#utility.yul\":924:1046   */\n    tag_160:\n        /* \"#utility.yul\":997:1021   */\n      tag_212\n        /* \"#utility.yul\":1015:1020   */\n      dup2\n        /* \"#utility.yul\":997:1021   */\n      tag_159\n      jump\t// in\n    tag_212:\n        /* \"#utility.yul\":990:995   */\n      dup2\n        /* \"#utility.yul\":987:1022   */\n      eq\n        /* \"#utility.yul\":977:1040   */\n      tag_213\n      jumpi\n        /* \"#utility.yul\":1036:1037   */\n      0x00\n        /* \"#utility.yul\":1033:1034   */\n      0x00\n        /* \"#utility.yul\":1026:1038   */\n      revert\n        /* \"#utility.yul\":977:1040   */\n    tag_213:\n        /* \"#utility.yul\":924:1046   */\n      pop\n      jump\t// out\n        /* \"#utility.yul\":1052:1191   */\n    tag_161:\n        /* \"#utility.yul\":1098:1103   */\n      0x00\n        /* \"#utility.yul\":1136:1142   */\n      dup2\n        /* \"#utility.yul\":1123:1143   */\n      calldataload\n        /* \"#utility.yul\":1114:1143   */\n      swap1\n      pop\n        /* \"#utility.yul\":1152:1185   */\n      tag_215\n        /* \"#utility.yul\":1179:1184   */\n      dup2\n        /* \"#utility.yul\":1152:1185   */\n      tag_160\n      jump\t// in\n    tag_215:\n        /* \"#utility.yul\":1052:1191   */\n      swap3\n      swap2\n      pop\n      pop\n      jump\t// out\n        /* \"#utility.yul\":1197:1816   */\n    tag_14:\n        /* \"#utility.yul\":1274:1280   */\n      0x00\n        /* \"#utility.yul\":1282:1288   */\n      0x00\n        /* \"#utility.yul\":1290:1296   */\n      0x00\n        /* \"#utility.yul\":1339:1341   */\n      0x60\n        /* \"#utility.yul\":1327:1336   */\n      dup5\n        /* \"#utility.yul\":1318:1325   */\n      dup7\n        /* \"#utility.yul\":1314:1337   */\n      sub\n        /* \"#utility.yul\":1310:1342   */\n      slt\n        /* \"#utility.yul\":1307:1426   */\n      iszero\n      tag_217\n      jumpi\n        /* \"#utility.yul\":1345:1424   */\n      tag_218\n      tag_153\n      jump\t// in\n    tag_218:\n        /* \"#utility.yul\":1307:1426   */\n    tag_217:\n        /* \"#utility.yul\":1465:1466   */\n      0x00\n        /* \"#utility.yul\":1490:1543   */\n      tag_219\n        /* \"#utility.yul\":1535:1542   */\n      dup7\n        /* \"#utility.yul\":1526:1532   */\n      dup3\n        /* \"#utility.yul\":1515:1524   */\n      dup8\n        /* \"#utility.yul\":1511:1533   */\n      add\n        /* \"#utility.yul\":1490:1543   */\n      tag_158\n      jump\t// in\n    tag_219:\n        /* \"#utility.yul\":1480:1543   */\n      swap4\n      pop\n        /* \"#utility.yul\":1436:1553   */\n      pop\n        /* \"#utility.yul\":1592:1594   */\n      0x20\n        /* \"#utility.yul\":1618:1671   */\n      tag_220\n        /* \"#utility.yul\":1663:1670   */\n      dup7\n        /* \"#utility.yul\":1654:1660   */\n      dup3\n        /* \"#utility.yul\":1643:1652   */\n      dup8\n        /* \"#utility.yul\":1639:1661   */\n      add\n        /* \"#utility.yul\":1618:1671   */\n      tag_158\n      jump\t// in\n    tag_220:\n        /* \"#utility.yul\":1608:1671   */\n      swap3\n      pop\n        /* \"#utility.yul\":1563:1681   */\n      pop\n        /* \"#utility.yul\":1720:1722   */\n      0x40\n        /* \"#utility.yul\":1746:1799   */\n      tag_221\n        /* \"#utility.yul\":1791:1798   */\n      dup7\n        /* \"#utility.yul\":1782:1788   */\n      dup3\n        /* \"#utility.yul\":1771:1780   */\n      dup8\n        /* \"#utility.yul\":1767:1789   */\n      add\n        /* \"#utility.yul\":1746:1799   */\n      tag_161\n      jump\t// in\n    tag_221:\n        /* \"#utility.yul\":1736:1799   */\n      swap2\n      pop\n        /* \"#utility.yul\":1691:1809   */\n      pop\n        /* \"#utility.yul\":1197:1816   */\n      swap3\n      pop\n      swap3\n      pop\n      swap3\n      jump\t// out\n        /* \"#utility.yul\":1822:1912   */\n    tag_162:\n        /* \"#utility.yul\":1856:1863   */\n      0x00\n        /* \"#utility.yul\":1899:1904   */\n      dup2\n        /* \"#utility.yul\":1892:1905   */\n      iszero\n        /* \"#utility.yul\":1885:1906   */\n      iszero\n        /* \"#utility.yul\":1874:1906   */\n      swap1\n      pop\n        /* \"#utility.yul\":1822:1912   */\n      swap2\n      swap1\n      pop\n      jump\t// out\n        /* \"#utility.yul\":1918:2027   */\n    tag_163:\n        /* \"#utility.yul\":1999:2020   */\n      tag_224\n        /* \"#utility.yul\":2014:2019   */\n      dup2\n        /* \"#utility.yul\":1999:2020   */\n      tag_162\n      jump\t// in\n    tag_224:\n        /* \"#utility.yul\":1994:1997   */\n      dup3\n        /* \"#utility.yul\":1987:2021   */\n      mstore\n        /* \"#utility.yul\":1918:2027   */\n      pop\n      pop\n      jump\t// out\n        /* \"#utility.yul\":2033:2243   */\n    tag_17:\n        /* \"#utility.yul\":2120:2124   */\n      0x00\n        /* \"#utility.yul\":2158:2160   */\n      0x20\n        /* \"#utility.yul\":2147:2156   */\n      dup3\n        /* \"#utility.yul\":2143:2161   */\n      add\n        /* \"#utility.yul\":2135:2161   */\n      swap1\n      pop\n        /* \"#utility.yul\":2171:2236   */\n      tag_226\n        /* \"#utility.yul\":2233:2234   */\n      0x00\n        /* \"#utility.yul\":2222:2231   */\n      dup4\n        /* \"#utility.yul\":2218:2235   */\n      add\n        /* \"#utility.yul\":2209:2215   */\n      dup5\n        /* \"#utility.yul\":2171:2236   */\n      tag_163\n      jump\t// in\n    tag_226:\n        /* \"#utility.yul\":2033:2243   */\n      swap3\n      swap2\n      pop\n      pop\n      jump\t// out\n        /* \"#utility.yul\":2249:2723   */\n    tag_20:\n        /* \"#utility.yul\":2317:2323   */\n      0x00\n        /* \"#utility.yul\":2325:2331   */\n      0x00\n        /* \"#utility.yul\":2374:2376   */\n      0x40\n        /* \"#utility.yul\":2362:2371   */\n      dup4\n        /* \"#utility.yul\":2353:2360   */\n      dup6\n        /* \"#utility.yul\":2349:2372   */\n      sub\n        /* \"#utility.yul\":2345:2377   */\n      slt\n        /* \"#utility.yul\":2342:2461   */\n      iszero\n      tag_228\n      jumpi\n        /* \"#utility.yul\":2380:2459   */\n      tag_229\n      tag_153\n      jump\t// in\n    tag_229:\n        /* \"#utility.yul\":2342:2461   */\n    tag_228:\n        /* \"#utility.yul\":2500:2501   */\n      0x00\n        /* \"#utility.yul\":2525:2578   */\n      tag_230\n        /* \"#utility.yul\":2570:2577   */\n      dup6\n        /* \"#utility.yul\":2561:2567   */\n      dup3\n        /* \"#utility.yul\":2550:2559   */\n      dup7\n        /* \"#utility.yul\":2546:2568   */\n      add\n        /* \"#utility.yul\":2525:2578   */\n      tag_158\n      jump\t// in\n    tag_230:\n        /* \"#utility.yul\":2515:2578   */\n      swap3\n      pop\n        /* \"#utility.yul\":2471:2588   */\n      pop\n        /* \"#utility.yul\":2627:2629   */\n      0x20\n        /* \"#utility.yul\":2653:2706   */\n      tag_231\n        /* \"#utility.yul\":2698:2705   */\n      dup6\n        /* \"#utility.yul\":2689:2695   */\n      dup3\n        /* \"#utility.yul\":2678:2687   */\n      dup7\n        /* \"#utility.yul\":2674:2696   */\n      add\n        /* \"#utility.yul\":2653:2706   */\n      tag_161\n      jump\t// in\n    tag_231:\n        /* \"#utility.yul\":2643:2706   */\n      swap2\n      pop\n        /* \"#utility.yul\":2598:2716   */\n      pop\n        /* \"#utility.yul\":2249:2723   */\n      swap3\n      pop\n      swap3\n      swap1\n      pop\n      jump\t// out\n        /* \"#utility.yul\":2729:3058   */\n    tag_25:\n        /* \"#utility.yul\":2788:2794   */\n      0x00\n        /* \"#utility.yul\":2837:2839   */\n      0x20\n        /* \"#utility.yul\":2825:2834   */\n      dup3\n        /* \"#utility.yul\":2816:2823   */\n      dup5\n        /* \"#utility.yul\":2812:2835   */\n      sub\n        /* \"#utility.yul\":2808:2840   */\n      slt\n        /* \"#utility.yul\":2805:2924   */\n      iszero\n      tag_233\n      jumpi\n        /* \"#utility.yul\":2843:2922   */\n      tag_234\n      tag_153\n      jump\t// in\n    tag_234:\n        /* \"#utility.yul\":2805:2924   */\n    tag_233:\n        /* \"#utility.yul\":2963:2964   */\n      0x00\n        /* \"#utility.yul\":2988:3041   */\n      tag_235\n        /* \"#utility.yul\":3033:3040   */\n      dup5\n        /* \"#utility.yul\":3024:3030   */\n      dup3\n        /* \"#utility.yul\":3013:3022   */\n      dup6\n        /* \"#utility.yul\":3009:3031   */\n      add\n        /* \"#utility.yul\":2988:3041   */\n      tag_161\n      jump\t// in\n    tag_235:\n        /* \"#utility.yul\":2978:3041   */\n      swap2\n      pop\n        /* \"#utility.yul\":2934:3051   */\n      pop\n        /* \"#utility.yul\":2729:3058   */\n      swap3\n      swap2\n      pop\n      pop\n      jump\t// out\n        /* \"#utility.yul\":3064:3181   */\n    tag_164:\n        /* \"#utility.yul\":3173:3174   */\n      0x00\n        /* \"#utility.yul\":3170:3171   */\n      0x00\n        /* \"#utility.yul\":3163:3175   */\n      revert\n        /* \"#utility.yul\":3187:3289   */\n    tag_165:\n        /* \"#utility.yul\":3228:3234   */\n      0x00\n        /* \"#utility.yul\":3279:3281   */\n      0x1f\n        /* \"#utility.yul\":3275:3282   */\n      not\n        /* \"#utility.yul\":3270:3272   */\n      0x1f\n        /* \"#utility.yul\":3263:3268   */\n      dup4\n        /* \"#utility.yul\":3259:3273   */\n      add\n        /* \"#utility.yul\":3255:3283   */\n      and\n        /* \"#utility.yul\":3245:3283   */\n      swap1\n      pop\n        /* \"#utility.yul\":3187:3289   */\n      swap2\n      swap1\n      pop\n      jump\t// out\n        /* \"#utility.yul\":3295:3475   */\n    tag_166:\n        /* \"#utility.yul\":3343:3420   */\n      0x4e487b7100000000000000000000000000000000000000000000000000000000\n        /* \"#utility.yul\":3340:3341   */\n      0x00\n        /* \"#utility.yul\":3333:3421   */\n      mstore\n        /* \"#utility.yul\":3440:3444   */\n      0x41\n        /* \"#utility.yul\":3437:3438   */\n      0x04\n        /* \"#utility.yul\":3430:3445   */\n      mstore\n        /* \"#utility.yul\":3464:3468   */\n      0x24\n        /* \"#utility.yul\":3461:3462   */\n      0x00\n        /* \"#utility.yul\":3454:3469   */\n      revert\n        /* \"#utility.yul\":3481:3762   */\n    tag_167:\n        /* \"#utility.yul\":3564:3591   */\n      tag_240\n        /* \"#utility.yul\":3586:3590   */\n      dup3\n        /* \"#utility.yul\":3564:3591   */\n      tag_165\n      jump\t// in\n    tag_240:\n        /* \"#utility.yul\":3556:3562   */\n      dup2\n        /* \"#utility.yul\":3552:3592   */\n      add\n        /* \"#utility.yul\":3694:3700   */\n      dup2\n        /* \"#utility.yul\":3682:3692   */\n      dup2\n        /* \"#utility.yul\":3679:3701   */\n      lt\n        /* \"#utility.yul\":3658:3676   */\n      0xffffffffffffffff\n        /* \"#utility.yul\":3646:3656   */\n      dup3\n        /* \"#utility.yul\":3643:3677   */\n      gt\n        /* \"#utility.yul\":3640:3702   */\n      or\n        /* \"#utility.yul\":3637:3725   */\n      iszero\n      tag_241\n      jumpi\n        /* \"#utility.yul\":3705:3723   */\n      tag_242\n      tag_166\n      jump\t// in\n    tag_242:\n        /* \"#utility.yul\":3637:3725   */\n    tag_241:\n        /* \"#utility.yul\":3745:3755   */\n      dup1\n        /* \"#utility.yul\":3741:3743   */\n      0x40\n        /* \"#utility.yul\":3734:3756   */\n      mstore\n        /* \"#utility.yul\":3524:3762   */\n      pop\n        /* \"#utility.yul\":3481:3762   */\n      pop\n      pop\n      jump\t// out\n        /* \"#utility.yul\":3768:3897   */\n    tag_168:\n        /* \"#utility.yul\":3802:3808   */\n      0x00\n        /* \"#utility.yul\":3829:3849   */\n      tag_244\n      tag_152\n      jump\t// in\n    tag_244:\n        /* \"#utility.yul\":3819:3849   */\n      swap1\n      pop\n        /* \"#utility.yul\":3858:3891   */\n      tag_245\n        /* \"#utility.yul\":3886:3890   */\n      dup3\n        /* \"#utility.yul\":3878:3884   */\n      dup3\n        /* \"#utility.yul\":3858:3891   */\n      tag_167\n      jump\t// in\n    tag_245:\n        /* \"#utility.yul\":3768:3897   */\n      swap2\n      swap1\n      pop\n      jump\t// out\n        /* \"#utility.yul\":3903:4214   */\n    tag_169:\n        /* \"#utility.yul\":3980:3984   */\n      0x00\n        /* \"#utility.yul\":4070:4088   */\n      0xffffffffffffffff\n        /* \"#utility.yul\":4062:4068   */\n      dup3\n        /* \"#utility.yul\":4059:4089   */\n      gt\n        /* \"#utility.yul\":4056:4112   */\n      iszero\n      tag_247\n      jumpi\n        /* \"#utility.yul\":4092:4110   */\n      tag_248\n      tag_166\n      jump\t// in\n    tag_248:\n        /* \"#utility.yul\":4056:4112   */\n    tag_247:\n        /* \"#utility.yul\":4142:4146   */\n      0x20\n        /* \"#utility.yul\":4134:4140   */\n      dup3\n        /* \"#utility.yul\":4130:4147   */\n      mul\n        /* \"#utility.yul\":4122:4147   */\n      swap1\n      pop\n        /* \"#utility.yul\":4202:4206   */\n      0x20\n        /* \"#utility.yul\":4196:4200   */\n      dup2\n        /* \"#utility.yul\":4192:4207   */\n      add\n        /* \"#utility.yul\":4184:4207   */\n      swap1\n      pop\n        /* \"#utility.yul\":3903:4214   */\n      swap2\n      swap1\n      pop\n      jump\t// out\n        /* \"#utility.yul\":4220:4337   */\n    tag_170:\n        /* \"#utility.yul\":4329:4330   */\n      0x00\n        /* \"#utility.yul\":4326:4327   */\n      0x00\n        /* \"#utility.yul\":4319:4331   */\n      revert\n        /* \"#utility.yul\":4360:5070   */\n    tag_171:\n        /* \"#utility.yul\":4456:4461   */\n      0x00\n        /* \"#utility.yul\":4481:4562   */\n      tag_251\n        /* \"#utility.yul\":4497:4561   */\n      tag_252\n        /* \"#utility.yul\":4554:4560   */\n      dup5\n        /* \"#utility.yul\":4497:4561   */\n      tag_169\n      jump\t// in\n    tag_252:\n        /* \"#utility.yul\":4481:4562   */\n      tag_168\n      jump\t// in\n    tag_251:\n        /* \"#utility.yul\":4472:4562   */\n      swap1\n      pop\n        /* \"#utility.yul\":4582:4587   */\n      dup1\n        /* \"#utility.yul\":4611:4617   */\n      dup4\n        /* \"#utility.yul\":4604:4609   */\n      dup3\n        /* \"#utility.yul\":4597:4618   */\n      mstore\n        /* \"#utility.yul\":4645:4649   */\n      0x20\n        /* \"#utility.yul\":4638:4643   */\n      dup3\n        /* \"#utility.yul\":4634:4650   */\n      add\n        /* \"#utility.yul\":4627:4650   */\n      swap1\n      pop\n        /* \"#utility.yul\":4698:4702   */\n      0x20\n        /* \"#utility.yul\":4690:4696   */\n      dup5\n        /* \"#utility.yul\":4686:4703   */\n      mul\n        /* \"#utility.yul\":4678:4684   */\n      dup4\n        /* \"#utility.yul\":4674:4704   */\n      add\n        /* \"#utility.yul\":4727:4730   */\n      dup6\n        /* \"#utility.yul\":4719:4725   */\n      dup2\n        /* \"#utility.yul\":4716:4731   */\n      gt\n        /* \"#utility.yul\":4713:4835   */\n      iszero\n      tag_253\n      jumpi\n        /* \"#utility.yul\":4746:4825   */\n      tag_254\n      tag_170\n      jump\t// in\n    tag_254:\n        /* \"#utility.yul\":4713:4835   */\n    tag_253:\n        /* \"#utility.yul\":4861:4867   */\n      dup4\n        /* \"#utility.yul\":4844:5064   */\n    tag_255:\n        /* \"#utility.yul\":4878:4884   */\n      dup2\n        /* \"#utility.yul\":4873:4876   */\n      dup2\n        /* \"#utility.yul\":4870:4885   */\n      lt\n        /* \"#utility.yul\":4844:5064   */\n      iszero\n      tag_257\n      jumpi\n        /* \"#utility.yul\":4953:4956   */\n      dup1\n        /* \"#utility.yul\":4982:5019   */\n      tag_258\n        /* \"#utility.yul\":5015:5018   */\n      dup9\n        /* \"#utility.yul\":5003:5013   */\n      dup3\n        /* \"#utility.yul\":4982:5019   */\n      tag_158\n      jump\t// in\n    tag_258:\n        /* \"#utility.yul\":4977:4980   */\n      dup5\n        /* \"#utility.yul\":4970:5020   */\n      mstore\n        /* \"#utility.yul\":5049:5053   */\n      0x20\n        /* \"#utility.yul\":5044:5047   */\n      dup5\n        /* \"#utility.yul\":5040:5054   */\n      add\n        /* \"#utility.yul\":5033:5054   */\n      swap4\n      pop\n        /* \"#utility.yul\":4920:5064   */\n      pop\n        /* \"#utility.yul\":4904:4908   */\n      0x20\n        /* \"#utility.yul\":4899:4902   */\n      dup2\n        /* \"#utility.yul\":4895:4909   */\n      add\n        /* \"#utility.yul\":4888:4909   */\n      swap1\n      pop\n        /* \"#utility.yul\":4844:5064   */\n      jump(tag_255)\n    tag_257:\n        /* \"#utility.yul\":4848:4869   */\n      pop\n        /* \"#utility.yul\":4462:5070   */\n      pop\n      pop\n        /* \"#utility.yul\":4360:5070   */\n      swap4\n      swap3\n      pop\n      pop\n      pop\n      jump\t// out\n        /* \"#utility.yul\":5093:5463   */\n    tag_172:\n        /* \"#utility.yul\":5164:5169   */\n      0x00\n        /* \"#utility.yul\":5213:5216   */\n      dup3\n        /* \"#utility.yul\":5206:5210   */\n      0x1f\n        /* \"#utility.yul\":5198:5204   */\n      dup4\n        /* \"#utility.yul\":5194:5211   */\n      add\n        /* \"#utility.yul\":5190:5217   */\n      slt\n        /* \"#utility.yul\":5180:5302   */\n      tag_260\n      jumpi\n        /* \"#utility.yul\":5221:5300   */\n      tag_261\n      tag_164\n      jump\t// in\n    tag_261:\n        /* \"#utility.yul\":5180:5302   */\n    tag_260:\n        /* \"#utility.yul\":5338:5344   */\n      dup2\n        /* \"#utility.yul\":5325:5345   */\n      calldataload\n        /* \"#utility.yul\":5363:5457   */\n      tag_262\n        /* \"#utility.yul\":5453:5456   */\n      dup5\n        /* \"#utility.yul\":5445:5451   */\n      dup3\n        /* \"#utility.yul\":5438:5442   */\n      0x20\n        /* \"#utility.yul\":5430:5436   */\n      dup7\n        /* \"#utility.yul\":5426:5443   */\n      add\n        /* \"#utility.yul\":5363:5457   */\n      tag_171\n      jump\t// in\n    tag_262:\n        /* \"#utility.yul\":5354:5457   */\n      swap2\n      pop\n        /* \"#utility.yul\":5170:5463   */\n      pop\n        /* \"#utility.yul\":5093:5463   */\n      swap3\n      swap2\n      pop\n      pop\n      jump\t// out\n        /* \"#utility.yul\":5469:5780   */\n    tag_173:\n        /* \"#utility.yul\":5546:5550   */\n      0x00\n        /* \"#utility.yul\":5636:5654   */\n      0xffffffffffffffff\n        /* \"#utility.yul\":5628:5634   */\n      dup3\n        /* \"#utility.yul\":5625:5655   */\n      gt\n        /* \"#utility.yul\":5622:5678   */\n      iszero\n      tag_264\n      jumpi\n        /* \"#utility.yul\":5658:5676   */\n      tag_265\n      tag_166\n      jump\t// in\n    tag_265:\n        /* \"#utility.yul\":5622:5678   */\n    tag_264:\n        /* \"#utility.yul\":5708:5712   */\n      0x20\n        /* \"#utility.yul\":5700:5706   */\n      dup3\n        /* \"#utility.yul\":5696:5713   */\n      mul\n        /* \"#utility.yul\":5688:5713   */\n      swap1\n      pop\n        /* \"#utility.yul\":5768:5772   */\n      0x20\n        /* \"#utility.yul\":5762:5766   */\n      dup2\n        /* \"#utility.yul\":5758:5773   */\n      add\n        /* \"#utility.yul\":5750:5773   */\n      swap1\n      pop\n        /* \"#utility.yul\":5469:5780   */\n      swap2\n      swap1\n      pop\n      jump\t// out\n        /* \"#utility.yul\":5803:6513   */\n    tag_174:\n        /* \"#utility.yul\":5899:5904   */\n      0x00\n        /* \"#utility.yul\":5924:6005   */\n      tag_267\n        /* \"#utility.yul\":5940:6004   */\n      tag_268\n        /* \"#utility.yul\":5997:6003   */\n      dup5\n        /* \"#utility.yul\":5940:6004   */\n      tag_173\n      jump\t// in\n    tag_268:\n        /* \"#utility.yul\":5924:6005   */\n      tag_168\n      jump\t// in\n    tag_267:\n        /* \"#utility.yul\":5915:6005   */\n      swap1\n      pop\n        /* \"#utility.yul\":6025:6030   */\n      dup1\n        /* \"#utility.yul\":6054:6060   */\n      dup4\n        /* \"#utility.yul\":6047:6052   */\n      dup3\n        /* \"#utility.yul\":6040:6061   */\n      mstore\n        /* \"#utility.yul\":6088:6092   */\n      0x20\n        /* \"#utility.yul\":6081:6086   */\n      dup3\n        /* \"#utility.yul\":6077:6093   */\n      add\n        /* \"#utility.yul\":6070:6093   */\n      swap1\n      pop\n        /* \"#utility.yul\":6141:6145   */\n      0x20\n        /* \"#utility.yul\":6133:6139   */\n      dup5\n        /* \"#utility.yul\":6129:6146   */\n      mul\n        /* \"#utility.yul\":6121:6127   */\n      dup4\n        /* \"#utility.yul\":6117:6147   */\n      add\n        /* \"#utility.yul\":6170:6173   */\n      dup6\n        /* \"#utility.yul\":6162:6168   */\n      dup2\n        /* \"#utility.yul\":6159:6174   */\n      gt\n        /* \"#utility.yul\":6156:6278   */\n      iszero\n      tag_269\n      jumpi\n        /* \"#utility.yul\":6189:6268   */\n      tag_270\n      tag_170\n      jump\t// in\n    tag_270:\n        /* \"#utility.yul\":6156:6278   */\n    tag_269:\n        /* \"#utility.yul\":6304:6310   */\n      dup4\n        /* \"#utility.yul\":6287:6507   */\n    tag_271:\n        /* \"#utility.yul\":6321:6327   */\n      dup2\n        /* \"#utility.yul\":6316:6319   */\n      dup2\n        /* \"#utility.yul\":6313:6328   */\n      lt\n        /* \"#utility.yul\":6287:6507   */\n      iszero\n      tag_273\n      jumpi\n        /* \"#utility.yul\":6396:6399   */\n      dup1\n        /* \"#utility.yul\":6425:6462   */\n      tag_274\n        /* \"#utility.yul\":6458:6461   */\n      dup9\n        /* \"#utility.yul\":6446:6456   */\n      dup3\n        /* \"#utility.yul\":6425:6462   */\n      tag_161\n      jump\t// in\n    tag_274:\n        /* \"#utility.yul\":6420:6423   */\n      dup5\n        /* \"#utility.yul\":6413:6463   */\n      mstore\n        /* \"#utility.yul\":6492:6496   */\n      0x20\n        /* \"#utility.yul\":6487:6490   */\n      dup5\n        /* \"#utility.yul\":6483:6497   */\n      add\n        /* \"#utility.yul\":6476:6497   */\n      swap4\n      pop\n        /* \"#utility.yul\":6363:6507   */\n      pop\n        /* \"#utility.yul\":6347:6351   */\n      0x20\n        /* \"#utility.yul\":6342:6345   */\n      dup2\n        /* \"#utility.yul\":6338:6352   */\n      add\n        /* \"#utility.yul\":6331:6352   */\n      swap1\n      pop\n        /* \"#utility.yul\":6287:6507   */\n      jump(tag_271)\n    tag_273:\n        /* \"#utility.yul\":6291:6312   */\n      pop\n        /* \"#utility.yul\":5905:6513   */\n      pop\n      pop\n        /* \"#utility.yul\":5803:6513   */\n      swap4\n      swap3\n      pop\n      pop\n      pop\n      jump\t// out\n        /* \"#utility.yul\":6536:6906   */\n    tag_175:\n        /* \"#utility.yul\":6607:6612   */\n      0x00\n        /* \"#utility.yul\":6656:6659   */\n      dup3\n        /* \"#utility.yul\":6649:6653   */\n      0x1f\n        /* \"#utility.yul\":6641:6647   */\n      dup4\n        /* \"#utility.yul\":6637:6654   */\n      add\n        /* \"#utility.yul\":6633:6660   */\n      slt\n        /* \"#utility.yul\":6623:6745   */\n      tag_276\n      jumpi\n        /* \"#utility.yul\":6664:6743   */\n      tag_277\n      tag_164\n      jump\t// in\n    tag_277:\n        /* \"#utility.yul\":6623:6745   */\n    tag_276:\n        /* \"#utility.yul\":6781:6787   */\n      dup2\n        /* \"#utility.yul\":6768:6788   */\n      calldataload\n        /* \"#utility.yul\":6806:6900   */\n      tag_278\n        /* \"#utility.yul\":6896:6899   */\n      dup5\n        /* \"#utility.yul\":6888:6894   */\n      dup3\n        /* \"#utility.yul\":6881:6885   */\n      0x20\n        /* \"#utility.yul\":6873:6879   */\n      dup7\n        /* \"#utility.yul\":6869:6886   */\n      add\n        /* \"#utility.yul\":6806:6900   */\n      tag_174\n      jump\t// in\n    tag_278:\n        /* \"#utility.yul\":6797:6900   */\n      swap2\n      pop\n        /* \"#utility.yul\":6613:6906   */\n      pop\n        /* \"#utility.yul\":6536:6906   */\n      swap3\n      swap2\n      pop\n      pop\n      jump\t// out\n        /* \"#utility.yul\":6912:7806   */\n    tag_34:\n        /* \"#utility.yul\":7030:7036   */\n      0x00\n        /* \"#utility.yul\":7038:7044   */\n      0x00\n        /* \"#utility.yul\":7087:7089   */\n      0x40\n        /* \"#utility.yul\":7075:7084   */\n      dup4\n        /* \"#utility.yul\":7066:7073   */\n      dup6\n        /* \"#utility.yul\":7062:7085   */\n      sub\n        /* \"#utility.yul\":7058:7090   */\n      slt\n        /* \"#utility.yul\":7055:7174   */\n      iszero\n      tag_280\n      jumpi\n        /* \"#utility.yul\":7093:7172   */\n      tag_281\n      tag_153\n      jump\t// in\n    tag_281:\n        /* \"#utility.yul\":7055:7174   */\n    tag_280:\n        /* \"#utility.yul\":7241:7242   */\n      0x00\n        /* \"#utility.yul\":7230:7239   */\n      dup4\n        /* \"#utility.yul\":7226:7243   */\n      add\n        /* \"#utility.yul\":7213:7244   */\n      calldataload\n        /* \"#utility.yul\":7271:7289   */\n      0xffffffffffffffff\n        /* \"#utility.yul\":7263:7269   */\n      dup2\n        /* \"#utility.yul\":7260:7290   */\n      gt\n        /* \"#utility.yul\":7257:7374   */\n      iszero\n      tag_282\n      jumpi\n        /* \"#utility.yul\":7293:7372   */\n      tag_283\n      tag_154\n      jump\t// in\n    tag_283:\n        /* \"#utility.yul\":7257:7374   */\n    tag_282:\n        /* \"#utility.yul\":7398:7476   */\n      tag_284\n        /* \"#utility.yul\":7468:7475   */\n      dup6\n        /* \"#utility.yul\":7459:7465   */\n      dup3\n        /* \"#utility.yul\":7448:7457   */\n      dup7\n        /* \"#utility.yul\":7444:7466   */\n      add\n        /* \"#utility.yul\":7398:7476   */\n      tag_172\n      jump\t// in\n    tag_284:\n        /* \"#utility.yul\":7388:7476   */\n      swap3\n      pop\n        /* \"#utility.yul\":7184:7486   */\n      pop\n        /* \"#utility.yul\":7553:7555   */\n      0x20\n        /* \"#utility.yul\":7542:7551   */\n      dup4\n        /* \"#utility.yul\":7538:7556   */\n      add\n        /* \"#utility.yul\":7525:7557   */\n      calldataload\n        /* \"#utility.yul\":7584:7602   */\n      0xffffffffffffffff\n        /* \"#utility.yul\":7576:7582   */\n      dup2\n        /* \"#utility.yul\":7573:7603   */\n      gt\n        /* \"#utility.yul\":7570:7687   */\n      iszero\n      tag_285\n      jumpi\n        /* \"#utility.yul\":7606:7685   */\n      tag_286\n      tag_154\n      jump\t// in\n    tag_286:\n        /* \"#utility.yul\":7570:7687   */\n    tag_285:\n        /* \"#utility.yul\":7711:7789   */\n      tag_287\n        /* \"#utility.yul\":7781:7788   */\n      dup6\n        /* \"#utility.yul\":7772:7778   */\n      dup3\n        /* \"#utility.yul\":7761:7770   */\n      dup7\n        /* \"#utility.yul\":7757:7779   */\n      add\n        /* \"#utility.yul\":7711:7789   */\n      tag_175\n      jump\t// in\n    tag_287:\n        /* \"#utility.yul\":7701:7789   */\n      swap2\n      pop\n        /* \"#utility.yul\":7496:7799   */\n      pop\n        /* \"#utility.yul\":6912:7806   */\n      swap3\n      pop\n      swap3\n      swap1\n      pop\n      jump\t// out\n        /* \"#utility.yul\":7812:8141   */\n    tag_43:\n        /* \"#utility.yul\":7871:7877   */\n      0x00\n        /* \"#utility.yul\":7920:7922   */\n      0x20\n        /* \"#utility.yul\":7908:7917   */\n      dup3\n        /* \"#utility.yul\":7899:7906   */\n      dup5\n        /* \"#utility.yul\":7895:7918   */\n      sub\n        /* \"#utility.yul\":7891:7923   */\n      slt\n        /* \"#utility.yul\":7888:8007   */\n      iszero\n      tag_289\n      jumpi\n        /* \"#utility.yul\":7926:8005   */\n      tag_290\n      tag_153\n      jump\t// in\n    tag_290:\n        /* \"#utility.yul\":7888:8007   */\n    tag_289:\n        /* \"#utility.yul\":8046:8047   */\n      0x00\n        /* \"#utility.yul\":8071:8124   */\n      tag_291\n        /* \"#utility.yul\":8116:8123   */\n      dup5\n        /* \"#utility.yul\":8107:8113   */\n      dup3\n        /* \"#utility.yul\":8096:8105   */\n      dup6\n        /* \"#utility.yul\":8092:8114   */\n      add\n        /* \"#utility.yul\":8071:8124   */\n      tag_158\n      jump\t// in\n    tag_291:\n        /* \"#utility.yul\":8061:8124   */\n      swap2\n      pop\n        /* \"#utility.yul\":8017:8134   */\n      pop\n        /* \"#utility.yul\":7812:8141   */\n      swap3\n      swap2\n      pop\n      pop\n      jump\t// out\n        /* \"#utility.yul\":8147:8265   */\n    tag_176:\n        /* \"#utility.yul\":8234:8258   */\n      tag_293\n        /* \"#utility.yul\":8252:8257   */\n      dup2\n        /* \"#utility.yul\":8234:8258   */\n      tag_159\n      jump\t// in\n    tag_293:\n        /* \"#utility.yul\":8229:8232   */\n      dup3\n        /* \"#utility.yul\":8222:8259   */\n      mstore\n        /* \"#utility.yul\":8147:8265   */\n      pop\n      pop\n      jump\t// out\n        /* \"#utility.yul\":8271:8493   */\n    tag_46:\n        /* \"#utility.yul\":8364:8368   */\n      0x00\n        /* \"#utility.yul\":8402:8404   */\n      0x20\n        /* \"#utility.yul\":8391:8400   */\n      dup3\n        /* \"#utility.yul\":8387:8405   */\n      add\n        /* \"#utility.yul\":8379:8405   */\n      swap1\n      pop\n        /* \"#utility.yul\":8415:8486   */\n      tag_295\n        /* \"#utility.yul\":8483:8484   */\n      0x00\n        /* \"#utility.yul\":8472:8481   */\n      dup4\n        /* \"#utility.yul\":8468:8485   */\n      add\n        /* \"#utility.yul\":8459:8465   */\n      dup5\n        /* \"#utility.yul\":8415:8486   */\n      tag_176\n      jump\t// in\n    tag_295:\n        /* \"#utility.yul\":8271:8493   */\n      swap3\n      swap2\n      pop\n      pop\n      jump\t// out\n        /* \"#utility.yul\":8499:8973   */\n    tag_49:\n        /* \"#utility.yul\":8567:8573   */\n      0x00\n        /* \"#utility.yul\":8575:8581   */\n      0x00\n        /* \"#utility.yul\":8624:8626   */\n      0x40\n        /* \"#utility.yul\":8612:8621   */\n      dup4\n        /* \"#utility.yul\":8603:8610   */\n      dup6\n        /* \"#utility.yul\":8599:8622   */\n      sub\n        /* \"#utility.yul\":8595:8627   */\n      slt\n        /* \"#utility.yul\":8592:8711   */\n      iszero\n      tag_297\n      jumpi\n        /* \"#utility.yul\":8630:8709   */\n      tag_298\n      tag_153\n      jump\t// in\n    tag_298:\n        /* \"#utility.yul\":8592:8711   */\n    tag_297:\n        /* \"#utility.yul\":8750:8751   */\n      0x00\n        /* \"#utility.yul\":8775:8828   */\n      tag_299\n        /* \"#utility.yul\":8820:8827   */\n      dup6\n        /* \"#utility.yul\":8811:8817   */\n      dup3\n        /* \"#utility.yul\":8800:8809   */\n      dup7\n        /* \"#utility.yul\":8796:8818   */\n      add\n        /* \"#utility.yul\":8775:8828   */\n      tag_158\n      jump\t// in\n    tag_299:\n        /* \"#utility.yul\":8765:8828   */\n      swap3\n      pop\n        /* \"#utility.yul\":8721:8838   */\n      pop\n        /* \"#utility.yul\":8877:8879   */\n      0x20\n        /* \"#utility.yul\":8903:8956   */\n      tag_300\n        /* \"#utility.yul\":8948:8955   */\n      dup6\n        /* \"#utility.yul\":8939:8945   */\n      dup3\n        /* \"#utility.yul\":8928:8937   */\n      dup7\n        /* \"#utility.yul\":8924:8946   */\n      add\n        /* \"#utility.yul\":8903:8956   */\n      tag_158\n      jump\t// in\n    tag_300:\n        /* \"#utility.yul\":8893:8956   */\n      swap2\n      pop\n        /* \"#utility.yul\":8848:8966   */\n      pop\n        /* \"#utility.yul\":8499:8973   */\n      swap3\n      pop\n      swap3\n      swap1\n      pop\n      jump\t// out\n        /* \"#utility.yul\":8979:9159   */\n    tag_177:\n        /* \"#utility.yul\":9027:9104   */\n      0x4e487b7100000000000000000000000000000000000000000000000000000000\n        /* \"#utility.yul\":9024:9025   */\n      0x00\n        /* \"#utility.yul\":9017:9105   */\n      mstore\n        /* \"#utility.yul\":9124:9128   */\n      0x11\n        /* \"#utility.yul\":9121:9122   */\n      0x04\n        /* \"#utility.yul\":9114:9129   */\n      mstore\n        /* \"#utility.yul\":9148:9152   */\n      0x24\n        /* \"#utility.yul\":9145:9146   */\n      0x00\n        /* \"#utility.yul\":9138:9153   */\n      revert\n        /* \"#utility.yul\":9165:9359   */\n    tag_60:\n        /* \"#utility.yul\":9205:9209   */\n      0x00\n        /* \"#utility.yul\":9225:9245   */\n      tag_303\n        /* \"#utility.yul\":9243:9244   */\n      dup3\n        /* \"#utility.yul\":9225:9245   */\n      tag_159\n      jump\t// in\n    tag_303:\n        /* \"#utility.yul\":9220:9245   */\n      swap2\n      pop\n        /* \"#utility.yul\":9259:9279   */\n      tag_304\n        /* \"#utility.yul\":9277:9278   */\n      dup4\n        /* \"#utility.yul\":9259:9279   */\n      tag_159\n      jump\t// in\n    tag_304:\n        /* \"#utility.yul\":9254:9279   */\n      swap3\n      pop\n        /* \"#utility.yul\":9303:9304   */\n      dup3\n        /* \"#utility.yul\":9300:9301   */\n      dup3\n        /* \"#utility.yul\":9296:9305   */\n      sub\n        /* \"#utility.yul\":9288:9305   */\n      swap1\n      pop\n        /* \"#utility.yul\":9327:9328   */\n      dup2\n        /* \"#utility.yul\":9321:9325   */\n      dup2\n        /* \"#utility.yul\":9318:9329   */\n      gt\n        /* \"#utility.yul\":9315:9352   */\n      iszero\n      tag_305\n      jumpi\n        /* \"#utility.yul\":9332:9350   */\n      tag_306\n      tag_177\n      jump\t// in\n    tag_306:\n        /* \"#utility.yul\":9315:9352   */\n    tag_305:\n        /* \"#utility.yul\":9165:9359   */\n      swap3\n      swap2\n      pop\n      pop\n      jump\t// out\n        /* \"#utility.yul\":9365:9556   */\n    tag_62:\n        /* \"#utility.yul\":9405:9408   */\n      0x00\n        /* \"#utility.yul\":9424:9444   */\n      tag_308\n        /* \"#utility.yul\":9442:9443   */\n      dup3\n        /* \"#utility.yul\":9424:9444   */\n      tag_159\n      jump\t// in\n    tag_308:\n        /* \"#utility.yul\":9419:9444   */\n      swap2\n      pop\n        /* \"#utility.yul\":9458:9478   */\n      tag_309\n        /* \"#utility.yul\":9476:9477   */\n      dup4\n        /* \"#utility.yul\":9458:9478   */\n      tag_159\n      jump\t// in\n    tag_309:\n        /* \"#utility.yul\":9453:9478   */\n      swap3\n      pop\n        /* \"#utility.yul\":9501:9502   */\n      dup3\n        /* \"#utility.yul\":9498:9499   */\n      dup3\n        /* \"#utility.yul\":9494:9503   */\n      add\n        /* \"#utility.yul\":9487:9503   */\n      swap1\n      pop\n        /* \"#utility.yul\":9522:9525   */\n      dup1\n        /* \"#utility.yul\":9519:9520   */\n      dup3\n        /* \"#utility.yul\":9516:9526   */\n      gt\n        /* \"#utility.yul\":9513:9549   */\n      iszero\n      tag_310\n      jumpi\n        /* \"#utility.yul\":9529:9547   */\n      tag_311\n      tag_177\n      jump\t// in\n    tag_311:\n        /* \"#utility.yul\":9513:9549   */\n    tag_310:\n        /* \"#utility.yul\":9365:9556   */\n      swap3\n      swap2\n      pop\n      pop\n      jump\t// out\n        /* \"#utility.yul\":9562:9731   */\n    tag_178:\n        /* \"#utility.yul\":9646:9657   */\n      0x00\n        /* \"#utility.yul\":9680:9686   */\n      dup3\n        /* \"#utility.yul\":9675:9678   */\n      dup3\n        /* \"#utility.yul\":9668:9687   */\n      mstore\n        /* \"#utility.yul\":9720:9724   */\n      0x20\n        /* \"#utility.yul\":9715:9718   */\n      dup3\n        /* \"#utility.yul\":9711:9725   */\n      add\n        /* \"#utility.yul\":9696:9725   */\n      swap1\n      pop\n        /* \"#utility.yul\":9562:9731   */\n      swap3\n      swap2\n      pop\n      pop\n      jump\t// out\n        /* \"#utility.yul\":9737:9905   */\n    tag_179:\n        /* \"#utility.yul\":9877:9897   */\n      0x6f6e6c79206f776e657220657865637574650000000000000000000000000000\n        /* \"#utility.yul\":9873:9874   */\n      0x00\n        /* \"#utility.yul\":9865:9871   */\n      dup3\n        /* \"#utility.yul\":9861:9875   */\n      add\n        /* \"#utility.yul\":9854:9898   */\n      mstore\n        /* \"#utility.yul\":9737:9905   */\n      pop\n      jump\t// out\n        /* \"#utility.yul\":9911:10277   */\n    tag_180:\n        /* \"#utility.yul\":10053:10056   */\n      0x00\n        /* \"#utility.yul\":10074:10141   */\n      tag_315\n        /* \"#utility.yul\":10138:10140   */\n      0x12\n        /* \"#utility.yul\":10133:10136   */\n      dup4\n        /* \"#utility.yul\":10074:10141   */\n      tag_178\n      jump\t// in\n    tag_315:\n        /* \"#utility.yul\":10067:10141   */\n      swap2\n      pop\n        /* \"#utility.yul\":10150:10243   */\n      tag_316\n        /* \"#utility.yul\":10239:10242   */\n      dup3\n        /* \"#utility.yul\":10150:10243   */\n      tag_179\n      jump\t// in\n    tag_316:\n        /* \"#utility.yul\":10268:10270   */\n      0x20\n        /* \"#utility.yul\":10263:10266   */\n      dup3\n        /* \"#utility.yul\":10259:10271   */\n      add\n        /* \"#utility.yul\":10252:10271   */\n      swap1\n      pop\n        /* \"#utility.yul\":9911:10277   */\n      swap2\n      swap1\n      pop\n      jump\t// out\n        /* \"#utility.yul\":10283:10702   */\n    tag_68:\n        /* \"#utility.yul\":10449:10453   */\n      0x00\n        /* \"#utility.yul\":10487:10489   */\n      0x20\n        /* \"#utility.yul\":10476:10485   */\n      dup3\n        /* \"#utility.yul\":10472:10490   */\n      add\n        /* \"#utility.yul\":10464:10490   */\n      swap1\n      pop\n        /* \"#utility.yul\":10536:10545   */\n      dup2\n        /* \"#utility.yul\":10530:10534   */\n      dup2\n        /* \"#utility.yul\":10526:10546   */\n      sub\n        /* \"#utility.yul\":10522:10523   */\n      0x00\n        /* \"#utility.yul\":10511:10520   */\n      dup4\n        /* \"#utility.yul\":10507:10524   */\n      add\n        /* \"#utility.yul\":10500:10547   */\n      mstore\n        /* \"#utility.yul\":10564:10695   */\n      tag_318\n        /* \"#utility.yul\":10690:10694   */\n      dup2\n        /* \"#utility.yul\":10564:10695   */\n      tag_180\n      jump\t// in\n    tag_318:\n        /* \"#utility.yul\":10556:10695   */\n      swap1\n      pop\n        /* \"#utility.yul\":10283:10702   */\n      swap2\n      swap1\n      pop\n      jump\t// out\n        /* \"#utility.yul\":10708:10793   */\n    tag_181:\n        /* \"#utility.yul\":10753:10760   */\n      0x00\n        /* \"#utility.yul\":10782:10787   */\n      dup2\n        /* \"#utility.yul\":10771:10787   */\n      swap1\n      pop\n        /* \"#utility.yul\":10708:10793   */\n      swap2\n      swap1\n      pop\n      jump\t// out\n        /* \"#utility.yul\":10799:10859   */\n    tag_182:\n        /* \"#utility.yul\":10827:10830   */\n      0x00\n        /* \"#utility.yul\":10848:10853   */\n      dup2\n        /* \"#utility.yul\":10841:10853   */\n      swap1\n      pop\n        /* \"#utility.yul\":10799:10859   */\n      swap2\n      swap1\n      pop\n      jump\t// out\n        /* \"#utility.yul\":10865:11023   */\n    tag_183:\n        /* \"#utility.yul\":10923:10932   */\n      0x00\n        /* \"#utility.yul\":10956:11017   */\n      tag_322\n        /* \"#utility.yul\":10974:11016   */\n      tag_323\n        /* \"#utility.yul\":10983:11015   */\n      tag_324\n        /* \"#utility.yul\":11009:11014   */\n      dup5\n        /* \"#utility.yul\":10983:11015   */\n      tag_181\n      jump\t// in\n    tag_324:\n        /* \"#utility.yul\":10974:11016   */\n      tag_182\n      jump\t// in\n    tag_323:\n        /* \"#utility.yul\":10956:11017   */\n      tag_159\n      jump\t// in\n    tag_322:\n        /* \"#utility.yul\":10943:11017   */\n      swap1\n      pop\n        /* \"#utility.yul\":10865:11023   */\n      swap2\n      swap1\n      pop\n      jump\t// out\n        /* \"#utility.yul\":11029:11176   */\n    tag_184:\n        /* \"#utility.yul\":11124:11169   */\n      tag_326\n        /* \"#utility.yul\":11163:11168   */\n      dup2\n        /* \"#utility.yul\":11124:11169   */\n      tag_183\n      jump\t// in\n    tag_326:\n        /* \"#utility.yul\":11119:11122   */\n      dup3\n        /* \"#utility.yul\":11112:11170   */\n      mstore\n        /* \"#utility.yul\":11029:11176   */\n      pop\n      pop\n      jump\t// out\n        /* \"#utility.yul\":11182:11420   */\n    tag_82:\n        /* \"#utility.yul\":11283:11287   */\n      0x00\n        /* \"#utility.yul\":11321:11323   */\n      0x20\n        /* \"#utility.yul\":11310:11319   */\n      dup3\n        /* \"#utility.yul\":11306:11324   */\n      add\n        /* \"#utility.yul\":11298:11324   */\n      swap1\n      pop\n        /* \"#utility.yul\":11334:11413   */\n      tag_328\n        /* \"#utility.yul\":11410:11411   */\n      0x00\n        /* \"#utility.yul\":11399:11408   */\n      dup4\n        /* \"#utility.yul\":11395:11412   */\n      add\n        /* \"#utility.yul\":11386:11392   */\n      dup5\n        /* \"#utility.yul\":11334:11413   */\n      tag_184\n      jump\t// in\n    tag_328:\n        /* \"#utility.yul\":11182:11420   */\n      swap3\n      swap2\n      pop\n      pop\n      jump\t// out\n        /* \"#utility.yul\":11426:11596   */\n    tag_185:\n        /* \"#utility.yul\":11566:11588   */\n      0x496e73756666696369656e742062616c616e6365000000000000000000000000\n        /* \"#utility.yul\":11562:11563   */\n      0x00\n        /* \"#utility.yul\":11554:11560   */\n      dup3\n        /* \"#utility.yul\":11550:11564   */\n      add\n        /* \"#utility.yul\":11543:11589   */\n      mstore\n        /* \"#utility.yul\":11426:11596   */\n      pop\n      jump\t// out\n        /* \"#utility.yul\":11602:11968   */\n    tag_186:\n        /* \"#utility.yul\":11744:11747   */\n      0x00\n        /* \"#utility.yul\":11765:11832   */\n      tag_331\n        /* \"#utility.yul\":11829:11831   */\n      0x14\n        /* \"#utility.yul\":11824:11827   */\n      dup4\n        /* \"#utility.yul\":11765:11832   */\n      tag_178\n      jump\t// in\n    tag_331:\n        /* \"#utility.yul\":11758:11832   */\n      swap2\n      pop\n        /* \"#utility.yul\":11841:11934   */\n      tag_332\n        /* \"#utility.yul\":11930:11933   */\n      dup3\n        /* \"#utility.yul\":11841:11934   */\n      tag_185\n      jump\t// in\n    tag_332:\n        /* \"#utility.yul\":11959:11961   */\n      0x20\n        /* \"#utility.yul\":11954:11957   */\n      dup3\n        /* \"#utility.yul\":11950:11962   */\n      add\n        /* \"#utility.yul\":11943:11962   */\n      swap1\n      pop\n        /* \"#utility.yul\":11602:11968   */\n      swap2\n      swap1\n      pop\n      jump\t// out\n        /* \"#utility.yul\":11974:12393   */\n    tag_91:\n        /* \"#utility.yul\":12140:12144   */\n      0x00\n        /* \"#utility.yul\":12178:12180   */\n      0x20\n        /* \"#utility.yul\":12167:12176   */\n      dup3\n        /* \"#utility.yul\":12163:12181   */\n      add\n        /* \"#utility.yul\":12155:12181   */\n      swap1\n      pop\n        /* \"#utility.yul\":12227:12236   */\n      dup2\n        /* \"#utility.yul\":12221:12225   */\n      dup2\n        /* \"#utility.yul\":12217:12237   */\n      sub\n        /* \"#utility.yul\":12213:12214   */\n      0x00\n        /* \"#utility.yul\":12202:12211   */\n      dup4\n        /* \"#utility.yul\":12198:12215   */\n      add\n        /* \"#utility.yul\":12191:12238   */\n      mstore\n        /* \"#utility.yul\":12255:12386   */\n      tag_334\n        /* \"#utility.yul\":12381:12385   */\n      dup2\n        /* \"#utility.yul\":12255:12386   */\n      tag_186\n      jump\t// in\n    tag_334:\n        /* \"#utility.yul\":12247:12386   */\n      swap1\n      pop\n        /* \"#utility.yul\":11974:12393   */\n      swap2\n      swap1\n      pop\n      jump\t// out\n        /* \"#utility.yul\":12399:12579   */\n    tag_98:\n        /* \"#utility.yul\":12447:12524   */\n      0x4e487b7100000000000000000000000000000000000000000000000000000000\n        /* \"#utility.yul\":12444:12445   */\n      0x00\n        /* \"#utility.yul\":12437:12525   */\n      mstore\n        /* \"#utility.yul\":12544:12548   */\n      0x32\n        /* \"#utility.yul\":12541:12542   */\n      0x04\n        /* \"#utility.yul\":12534:12549   */\n      mstore\n        /* \"#utility.yul\":12568:12572   */\n      0x24\n        /* \"#utility.yul\":12565:12566   */\n      0x00\n        /* \"#utility.yul\":12558:12573   */\n      revert\n        /* \"#utility.yul\":12585:12749   */\n    tag_187:\n        /* \"#utility.yul\":12725:12741   */\n      0x496e76616c696420616d6f756e74000000000000000000000000000000000000\n        /* \"#utility.yul\":12721:12722   */\n      0x00\n        /* \"#utility.yul\":12713:12719   */\n      dup3\n        /* \"#utility.yul\":12709:12723   */\n      add\n        /* \"#utility.yul\":12702:12742   */\n      mstore\n        /* \"#utility.yul\":12585:12749   */\n      pop\n      jump\t// out\n        /* \"#utility.yul\":12755:13121   */\n    tag_188:\n        /* \"#utility.yul\":12897:12900   */\n      0x00\n        /* \"#utility.yul\":12918:12985   */\n      tag_338\n        /* \"#utility.yul\":12982:12984   */\n      0x0e\n        /* \"#utility.yul\":12977:12980   */\n      dup4\n        /* \"#utility.yul\":12918:12985   */\n      tag_178\n      jump\t// in\n    tag_338:\n        /* \"#utility.yul\":12911:12985   */\n      swap2\n      pop\n        /* \"#utility.yul\":12994:13087   */\n      tag_339\n        /* \"#utility.yul\":13083:13086   */\n      dup3\n        /* \"#utility.yul\":12994:13087   */\n      tag_187\n      jump\t// in\n    tag_339:\n        /* \"#utility.yul\":13112:13114   */\n      0x20\n        /* \"#utility.yul\":13107:13110   */\n      dup3\n        /* \"#utility.yul\":13103:13115   */\n      add\n        /* \"#utility.yul\":13096:13115   */\n      swap1\n      pop\n        /* \"#utility.yul\":12755:13121   */\n      swap2\n      swap1\n      pop\n      jump\t// out\n        /* \"#utility.yul\":13127:13546   */\n    tag_103:\n        /* \"#utility.yul\":13293:13297   */\n      0x00\n        /* \"#utility.yul\":13331:13333   */\n      0x20\n        /* \"#utility.yul\":13320:13329   */\n      dup3\n        /* \"#utility.yul\":13316:13334   */\n      add\n        /* \"#utility.yul\":13308:13334   */\n      swap1\n      pop\n        /* \"#utility.yul\":13380:13389   */\n      dup2\n        /* \"#utility.yul\":13374:13378   */\n      dup2\n        /* \"#utility.yul\":13370:13390   */\n      sub\n        /* \"#utility.yul\":13366:13367   */\n      0x00\n        /* \"#utility.yul\":13355:13364   */\n      dup4\n        /* \"#utility.yul\":13351:13368   */\n      add\n        /* \"#utility.yul\":13344:13391   */\n      mstore\n        /* \"#utility.yul\":13408:13539   */\n      tag_341\n        /* \"#utility.yul\":13534:13538   */\n      dup2\n        /* \"#utility.yul\":13408:13539   */\n      tag_188\n      jump\t// in\n    tag_341:\n        /* \"#utility.yul\":13400:13539   */\n      swap1\n      pop\n        /* \"#utility.yul\":13127:13546   */\n      swap2\n      swap1\n      pop\n      jump\t// out\n        /* \"#utility.yul\":13552:13651   */\n    tag_189:\n        /* \"#utility.yul\":13604:13610   */\n      0x00\n        /* \"#utility.yul\":13638:13643   */\n      dup2\n        /* \"#utility.yul\":13632:13644   */\n      mload\n        /* \"#utility.yul\":13622:13644   */\n      swap1\n      pop\n        /* \"#utility.yul\":13552:13651   */\n      swap2\n      swap1\n      pop\n      jump\t// out\n        /* \"#utility.yul\":13657:13796   */\n    tag_190:\n        /* \"#utility.yul\":13746:13752   */\n      dup3\n        /* \"#utility.yul\":13741:13744   */\n      dup2\n        /* \"#utility.yul\":13736:13739   */\n      dup4\n        /* \"#utility.yul\":13730:13753   */\n      mcopy\n        /* \"#utility.yul\":13787:13788   */\n      0x00\n        /* \"#utility.yul\":13778:13784   */\n      dup4\n        /* \"#utility.yul\":13773:13776   */\n      dup4\n        /* \"#utility.yul\":13769:13785   */\n      add\n        /* \"#utility.yul\":13762:13789   */\n      mstore\n        /* \"#utility.yul\":13657:13796   */\n      pop\n      pop\n      pop\n      jump\t// out\n        /* \"#utility.yul\":13802:14179   */\n    tag_191:\n        /* \"#utility.yul\":13890:13893   */\n      0x00\n        /* \"#utility.yul\":13918:13957   */\n      tag_345\n        /* \"#utility.yul\":13951:13956   */\n      dup3\n        /* \"#utility.yul\":13918:13957   */\n      tag_189\n      jump\t// in\n    tag_345:\n        /* \"#utility.yul\":13973:14044   */\n      tag_346\n        /* \"#utility.yul\":14037:14043   */\n      dup2\n        /* \"#utility.yul\":14032:14035   */\n      dup6\n        /* \"#utility.yul\":13973:14044   */\n      tag_178\n      jump\t// in\n    tag_346:\n        /* \"#utility.yul\":13966:14044   */\n      swap4\n      pop\n        /* \"#utility.yul\":14053:14118   */\n      tag_347\n        /* \"#utility.yul\":14111:14117   */\n      dup2\n        /* \"#utility.yul\":14106:14109   */\n      dup6\n        /* \"#utility.yul\":14099:14103   */\n      0x20\n        /* \"#utility.yul\":14092:14097   */\n      dup7\n        /* \"#utility.yul\":14088:14104   */\n      add\n        /* \"#utility.yul\":14053:14118   */\n      tag_190\n      jump\t// in\n    tag_347:\n        /* \"#utility.yul\":14143:14172   */\n      tag_348\n        /* \"#utility.yul\":14165:14171   */\n      dup2\n        /* \"#utility.yul\":14143:14172   */\n      tag_165\n      jump\t// in\n    tag_348:\n        /* \"#utility.yul\":14138:14141   */\n      dup5\n        /* \"#utility.yul\":14134:14173   */\n      add\n        /* \"#utility.yul\":14127:14173   */\n      swap2\n      pop\n        /* \"#utility.yul\":13894:14179   */\n      pop\n        /* \"#utility.yul\":13802:14179   */\n      swap3\n      swap2\n      pop\n      pop\n      jump\t// out\n        /* \"#utility.yul\":14185:14498   */\n    tag_129:\n        /* \"#utility.yul\":14298:14302   */\n      0x00\n        /* \"#utility.yul\":14336:14338   */\n      0x20\n        /* \"#utility.yul\":14325:14334   */\n      dup3\n        /* \"#utility.yul\":14321:14339   */\n      add\n        /* \"#utility.yul\":14313:14339   */\n      swap1\n      pop\n        /* \"#utility.yul\":14385:14394   */\n      dup2\n        /* \"#utility.yul\":14379:14383   */\n      dup2\n        /* \"#utility.yul\":14375:14395   */\n      sub\n        /* \"#utility.yul\":14371:14372   */\n      0x00\n        /* \"#utility.yul\":14360:14369   */\n      dup4\n        /* \"#utility.yul\":14356:14373   */\n      add\n        /* \"#utility.yul\":14349:14396   */\n      mstore\n        /* \"#utility.yul\":14413:14491   */\n      tag_350\n        /* \"#utility.yul\":14486:14490   */\n      dup2\n        /* \"#utility.yul\":14477:14483   */\n      dup5\n        /* \"#utility.yul\":14413:14491   */\n      tag_191\n      jump\t// in\n    tag_350:\n        /* \"#utility.yul\":14405:14491   */\n      swap1\n      pop\n        /* \"#utility.yul\":14185:14498   */\n      swap3\n      swap2\n      pop\n      pop\n      jump\t// out\n        /* \"#utility.yul\":14504:14685   */\n    tag_192:\n        /* \"#utility.yul\":14644:14677   */\n      0x5f616464417272206e6f7420656d707479206f72206578636565642074656e00\n        /* \"#utility.yul\":14640:14641   */\n      0x00\n        /* \"#utility.yul\":14632:14638   */\n      dup3\n        /* \"#utility.yul\":14628:14642   */\n      add\n        /* \"#utility.yul\":14621:14678   */\n      mstore\n        /* \"#utility.yul\":14504:14685   */\n      pop\n      jump\t// out\n        /* \"#utility.yul\":14691:15057   */\n    tag_193:\n        /* \"#utility.yul\":14833:14836   */\n      0x00\n        /* \"#utility.yul\":14854:14921   */\n      tag_353\n        /* \"#utility.yul\":14918:14920   */\n      0x1f\n        /* \"#utility.yul\":14913:14916   */\n      dup4\n        /* \"#utility.yul\":14854:14921   */\n      tag_178\n      jump\t// in\n    tag_353:\n        /* \"#utility.yul\":14847:14921   */\n      swap2\n      pop\n        /* \"#utility.yul\":14930:15023   */\n      tag_354\n        /* \"#utility.yul\":15019:15022   */\n      dup3\n        /* \"#utility.yul\":14930:15023   */\n      tag_192\n      jump\t// in\n    tag_354:\n        /* \"#utility.yul\":15048:15050   */\n      0x20\n        /* \"#utility.yul\":15043:15046   */\n      dup3\n        /* \"#utility.yul\":15039:15051   */\n      add\n        /* \"#utility.yul\":15032:15051   */\n      swap1\n      pop\n        /* \"#utility.yul\":14691:15057   */\n      swap2\n      swap1\n      pop\n      jump\t// out\n        /* \"#utility.yul\":15063:15482   */\n    tag_137:\n        /* \"#utility.yul\":15229:15233   */\n      0x00\n        /* \"#utility.yul\":15267:15269   */\n      0x20\n        /* \"#utility.yul\":15256:15265   */\n      dup3\n        /* \"#utility.yul\":15252:15270   */\n      add\n        /* \"#utility.yul\":15244:15270   */\n      swap1\n      pop\n        /* \"#utility.yul\":15316:15325   */\n      dup2\n        /* \"#utility.yul\":15310:15314   */\n      dup2\n        /* \"#utility.yul\":15306:15326   */\n      sub\n        /* \"#utility.yul\":15302:15303   */\n      0x00\n        /* \"#utility.yul\":15291:15300   */\n      dup4\n        /* \"#utility.yul\":15287:15304   */\n      add\n        /* \"#utility.yul\":15280:15327   */\n      mstore\n        /* \"#utility.yul\":15344:15475   */\n      tag_356\n        /* \"#utility.yul\":15470:15474   */\n      dup2\n        /* \"#utility.yul\":15344:15475   */\n      tag_193\n      jump\t// in\n    tag_356:\n        /* \"#utility.yul\":15336:15475   */\n      swap1\n      pop\n        /* \"#utility.yul\":15063:15482   */\n      swap2\n      swap1\n      pop\n      jump\t// out\n        /* \"#utility.yul\":15488:15709   */\n    tag_194:\n        /* \"#utility.yul\":15628:15662   */\n      0x5f616d6f756e74417272206e6f7420656d707479206f72206578636565642074\n        /* \"#utility.yul\":15624:15625   */\n      0x00\n        /* \"#utility.yul\":15616:15622   */\n      dup3\n        /* \"#utility.yul\":15612:15626   */\n      add\n        /* \"#utility.yul\":15605:15663   */\n      mstore\n        /* \"#utility.yul\":15697:15701   */\n      0x656e000000000000000000000000000000000000000000000000000000000000\n        /* \"#utility.yul\":15692:15694   */\n      0x20\n        /* \"#utility.yul\":15684:15690   */\n      dup3\n        /* \"#utility.yul\":15680:15695   */\n      add\n        /* \"#utility.yul\":15673:15702   */\n      mstore\n        /* \"#utility.yul\":15488:15709   */\n      pop\n      jump\t// out\n        /* \"#utility.yul\":15715:16081   */\n    tag_195:\n        /* \"#utility.yul\":15857:15860   */\n      0x00\n        /* \"#utility.yul\":15878:15945   */\n      tag_359\n        /* \"#utility.yul\":15942:15944   */\n      0x22\n        /* \"#utility.yul\":15937:15940   */\n      dup4\n        /* \"#utility.yul\":15878:15945   */\n      tag_178\n      jump\t// in\n    tag_359:\n        /* \"#utility.yul\":15871:15945   */\n      swap2\n      pop\n        /* \"#utility.yul\":15954:16047   */\n      tag_360\n        /* \"#utility.yul\":16043:16046   */\n      dup3\n        /* \"#utility.yul\":15954:16047   */\n      tag_194\n      jump\t// in\n    tag_360:\n        /* \"#utility.yul\":16072:16074   */\n      0x40\n        /* \"#utility.yul\":16067:16070   */\n      dup3\n        /* \"#utility.yul\":16063:16075   */\n      add\n        /* \"#utility.yul\":16056:16075   */\n      swap1\n      pop\n        /* \"#utility.yul\":15715:16081   */\n      swap2\n      swap1\n      pop\n      jump\t// out\n        /* \"#utility.yul\":16087:16506   */\n    tag_141:\n        /* \"#utility.yul\":16253:16257   */\n      0x00\n        /* \"#utility.yul\":16291:16293   */\n      0x20\n        /* \"#utility.yul\":16280:16289   */\n      dup3\n        /* \"#utility.yul\":16276:16294   */\n      add\n        /* \"#utility.yul\":16268:16294   */\n      swap1\n      pop\n        /* \"#utility.yul\":16340:16349   */\n      dup2\n        /* \"#utility.yul\":16334:16338   */\n      dup2\n        /* \"#utility.yul\":16330:16350   */\n      sub\n        /* \"#utility.yul\":16326:16327   */\n      0x00\n        /* \"#utility.yul\":16315:16324   */\n      dup4\n        /* \"#utility.yul\":16311:16328   */\n      add\n        /* \"#utility.yul\":16304:16351   */\n      mstore\n        /* \"#utility.yul\":16368:16499   */\n      tag_362\n        /* \"#utility.yul\":16494:16498   */\n      dup2\n        /* \"#utility.yul\":16368:16499   */\n      tag_195\n      jump\t// in\n    tag_362:\n        /* \"#utility.yul\":16360:16499   */\n      swap1\n      pop\n        /* \"#utility.yul\":16087:16506   */\n      swap2\n      swap1\n      pop\n      jump\t// out\n        /* \"#utility.yul\":16512:16742   */\n    tag_196:\n        /* \"#utility.yul\":16652:16686   */\n      0x5f616464417272206c6567746820616e64205f616d6f756e74417272206c6567\n        /* \"#utility.yul\":16648:16649   */\n      0x00\n        /* \"#utility.yul\":16640:16646   */\n      dup3\n        /* \"#utility.yul\":16636:16650   */\n      add\n        /* \"#utility.yul\":16629:16687   */\n      mstore\n        /* \"#utility.yul\":16721:16734   */\n      0x7468206d69736d61746368000000000000000000000000000000000000000000\n        /* \"#utility.yul\":16716:16718   */\n      0x20\n        /* \"#utility.yul\":16708:16714   */\n      dup3\n        /* \"#utility.yul\":16704:16719   */\n      add\n        /* \"#utility.yul\":16697:16735   */\n      mstore\n        /* \"#utility.yul\":16512:16742   */\n      pop\n      jump\t// out\n        /* \"#utility.yul\":16748:17114   */\n    tag_197:\n        /* \"#utility.yul\":16890:16893   */\n      0x00\n        /* \"#utility.yul\":16911:16978   */\n      tag_365\n        /* \"#utility.yul\":16975:16977   */\n      0x2b\n        /* \"#utility.yul\":16970:16973   */\n      dup4\n        /* \"#utility.yul\":16911:16978   */\n      tag_178\n      jump\t// in\n    tag_365:\n        /* \"#utility.yul\":16904:16978   */\n      swap2\n      pop\n        /* \"#utility.yul\":16987:17080   */\n      tag_366\n        /* \"#utility.yul\":17076:17079   */\n      dup3\n        /* \"#utility.yul\":16987:17080   */\n      tag_196\n      jump\t// in\n    tag_366:\n        /* \"#utility.yul\":17105:17107   */\n      0x40\n        /* \"#utility.yul\":17100:17103   */\n      dup3\n        /* \"#utility.yul\":17096:17108   */\n      add\n        /* \"#utility.yul\":17089:17108   */\n      swap1\n      pop\n        /* \"#utility.yul\":16748:17114   */\n      swap2\n      swap1\n      pop\n      jump\t// out\n        /* \"#utility.yul\":17120:17539   */\n    tag_144:\n        /* \"#utility.yul\":17286:17290   */\n      0x00\n        /* \"#utility.yul\":17324:17326   */\n      0x20\n        /* \"#utility.yul\":17313:17322   */\n      dup3\n        /* \"#utility.yul\":17309:17327   */\n      add\n        /* \"#utility.yul\":17301:17327   */\n      swap1\n      pop\n        /* \"#utility.yul\":17373:17382   */\n      dup2\n        /* \"#utility.yul\":17367:17371   */\n      dup2\n        /* \"#utility.yul\":17363:17383   */\n      sub\n        /* \"#utility.yul\":17359:17360   */\n      0x00\n        /* \"#utility.yul\":17348:17357   */\n      dup4\n        /* \"#utility.yul\":17344:17361   */\n      add\n        /* \"#utility.yul\":17337:17384   */\n      mstore\n        /* \"#utility.yul\":17401:17532   */\n      tag_368\n        /* \"#utility.yul\":17527:17531   */\n      dup2\n        /* \"#utility.yul\":17401:17532   */\n      tag_197\n      jump\t// in\n    tag_368:\n        /* \"#utility.yul\":17393:17532   */\n      swap1\n      pop\n        /* \"#utility.yul\":17120:17539   */\n      swap2\n      swap1\n      pop\n      jump\t// out\n\n    auxdata: 0xa2646970667358221220eef7292a0c044226f986a2242990cf8c9bb5c98c0d7169d45e30f50383b36e6864736f6c634300081e0033\n}\n",
				"bytecode": {
					"linkReferences": {},
					"object": "608060405234801561000f575f5ffd5b506040516122bf3803806122bf833981810160405281019061003191906102e2565b825f908161003f9190610571565b50816001908161004f9190610571565b506012600a61005e91906107a8565b8161006991906107f2565b6002819055503360055f6101000a81548173ffffffffffffffffffffffffffffffffffffffff021916908373ffffffffffffffffffffffffffffffffffffffff16021790555060025460035f3373ffffffffffffffffffffffffffffffffffffffff1673ffffffffffffffffffffffffffffffffffffffff1681526020019081526020015f20819055503373ffffffffffffffffffffffffffffffffffffffff165f73ffffffffffffffffffffffffffffffffffffffff167fddf252ad1be2c89b69c2b068fc378daa952ba7f163c4a11628f55a4df523b3ef6002546040516101529190610842565b60405180910390a350505061085b565b5f604051905090565b5f5ffd5b5f5ffd5b5f5ffd5b5f5ffd5b5f601f19601f8301169050919050565b7f4e487b71000000000000000000000000000000000000000000000000000000005f52604160045260245ffd5b6101c18261017b565b810181811067ffffffffffffffff821117156101e0576101df61018b565b5b80604052505050565b5f6101f2610162565b90506101fe82826101b8565b919050565b5f67ffffffffffffffff82111561021d5761021c61018b565b5b6102268261017b565b9050602081019050919050565b8281835e5f83830152505050565b5f61025361024e84610203565b6101e9565b90508281526020810184848401111561026f5761026e610177565b5b61027a848285610233565b509392505050565b5f82601f83011261029657610295610173565b5b81516102a6848260208601610241565b91505092915050565b5f819050919050565b6102c1816102af565b81146102cb575f5ffd5b50565b5f815190506102dc816102b8565b92915050565b5f5f5f606084860312156102f9576102f861016b565b5b5f84015167ffffffffffffffff8111156103165761031561016f565b5b61032286828701610282565b935050602084015167ffffffffffffffff8111156103435761034261016f565b5b61034f86828701610282565b9250506040610360868287016102ce565b9150509250925092565b5f81519050919050565b7f4e487b71000000000000000000000000000000000000000000000000000000005f52602260045260245ffd5b5f60028204905060018216806103b857607f821691505b6020821081036103cb576103ca610374565b5b50919050565b5f819050815f5260205f209050919050565b5f6020601f8301049050919050565b5f82821b905092915050565b5f6008830261042d7fffffffffffffffffffffffffffffffffffffffffffffffffffffffffffffffff826103f2565b61043786836103f2565b95508019841693508086168417925050509392505050565b5f819050919050565b5f61047261046d610468846102af565b61044f565b6102af565b9050919050565b5f819050919050565b61048b83610458565b61049f61049782610479565b8484546103fe565b825550505050565b5f5f905090565b6104b66104a7565b6104c1818484610482565b505050565b5b818110156104e4576104d95f826104ae565b6001810190506104c7565b5050565b601f821115610529576104fa816103d1565b610503846103e3565b81016020851015610512578190505b61052661051e856103e3565b8301826104c6565b50505b505050565b5f82821c905092915050565b5f6105495f198460080261052e565b1980831691505092915050565b5f610561838361053a565b9150826002028217905092915050565b61057a8261036a565b67ffffffffffffffff8111156105935761059261018b565b5b61059d82546103a1565b6105a88282856104e8565b5f60209050601f8311600181146105d9575f84156105c7578287015190505b6105d18582610556565b865550610638565b601f1984166105e7866103d1565b5f5b8281101561060e578489015182556001820191506020850194506020810190506105e9565b8683101561062b5784890151610627601f89168261053a565b8355505b6001600288020188555050505b505050505050565b7f4e487b71000000000000000000000000000000000000000000000000000000005f52601160045260245ffd5b5f8160011c9050919050565b5f5f8291508390505b60018511156106c25780860481111561069e5761069d610640565b5b60018516156106ad5780820291505b80810290506106bb8561066d565b9450610682565b94509492505050565b5f826106da5760019050610795565b816106e7575f9050610795565b81600181146106fd576002811461070757610736565b6001915050610795565b60ff84111561071957610718610640565b5b8360020a9150848211156107305761072f610640565b5b50610795565b5060208310610133831016604e8410600b841016171561076b5782820a90508381111561076657610765610640565b5b610795565b6107788484846001610679565b9250905081840481111561078f5761078e610640565b5b81810290505b9392505050565b5f60ff82169050919050565b5f6107b2826102af565b91506107bd8361079c565b92506107ea7fffffffffffffffffffffffffffffffffffffffffffffffffffffffffffffffff84846106cb565b905092915050565b5f6107fc826102af565b9150610807836102af565b9250828202610815816102af565b9150828204841483151761082c5761082b610640565b5b5092915050565b61083c816102af565b82525050565b5f6020820190506108555f830184610833565b92915050565b611a57806108685f395ff3fe608060405234801561000f575f5ffd5b5060043610610086575f3560e01c806388d695b21161005957806388d695b21461014a578063a9059cbb1461017a578063ac9ff07b146101aa578063dd62ed3e146101da57610086565b806323b872dd1461008a57806340c10f19146100ba57806342966c68146100ea57806375247a581461011a575b5f5ffd5b6100a4600480360381019061009f91906111c7565b61020a565b6040516100b19190611231565b60405180910390f35b6100d460048036038101906100cf919061124a565b610562565b6040516100e19190611231565b60405180910390f35b61010460048036038101906100ff9190611288565b61070b565b6040516101119190611231565b60405180910390f35b610134600480360381019061012f919061124a565b610862565b6040516101419190611231565b60405180910390f35b610164600480360381019061015f91906114c3565b6109f3565b6040516101719190611231565b60405180910390f35b610194600480360381019061018f919061124a565b610d18565b6040516101a19190611231565b60405180910390f35b6101c460048036038101906101bf9190611539565b610eea565b6040516101d19190611573565b60405180910390f35b6101f460048036038101906101ef919061158c565b610eff565b6040516102019190611573565b60405180910390f35b5f61024a846040518060400160405280601d81526020017f46726f6d207472616e736665722061646472656573206973207a65726f000000815250610f1f565b610289836040518060400160405280601b81526020017f546f207472616e736665722061646472656573206973207a65726f0000000000815250610f1f565b61030660035f8673ffffffffffffffffffffffffffffffffffffffff1673ffffffffffffffffffffffffffffffffffffffff1681526020019081526020015f2054836040518060400160405280601481526020017f496e73756666696369656e742062616c616e6365000000000000000000000000815250610f96565b6103be60045f8673ffffffffffffffffffffffffffffffffffffffff1673ffffffffffffffffffffffffffffffffffffffff1681526020019081526020015f205f3373ffffffffffffffffffffffffffffffffffffffff1673ffffffffffffffffffffffffffffffffffffffff1681526020019081526020015f2054836040518060400160405280601681526020017f496e73756666696369656e7420616c6c6f77616e636500000000000000000000815250610f96565b8160035f8673ffffffffffffffffffffffffffffffffffffffff1673ffffffffffffffffffffffffffffffffffffffff1681526020019081526020015f205f82825461040a91906115f7565b925050819055508160035f8573ffffffffffffffffffffffffffffffffffffffff1673ffffffffffffffffffffffffffffffffffffffff1681526020019081526020015f205f82825461045d919061162a565b925050819055508160045f8673ffffffffffffffffffffffffffffffffffffffff1673ffffffffffffffffffffffffffffffffffffffff1681526020019081526020015f205f3373ffffffffffffffffffffffffffffffffffffffff1673ffffffffffffffffffffffffffffffffffffffff1681526020019081526020015f205f8282546104eb91906115f7565b925050819055508273ffffffffffffffffffffffffffffffffffffffff168473ffffffffffffffffffffffffffffffffffffffff167fddf252ad1be2c89b69c2b068fc378daa952ba7f163c4a11628f55a4df523b3ef8460405161054f9190611573565b60405180910390a3600190509392505050565b5f60055f9054906101000a900473ffffffffffffffffffffffffffffffffffffffff1673ffffffffffffffffffffffffffffffffffffffff163373ffffffffffffffffffffffffffffffffffffffff16146105f2576040517f08c379a00000000000000000000000000000000000000000000000000000000081526004016105e9906116b7565b60405180910390fd5b610631836040518060400160405280601781526020017f4d696e7420746f2061646472656573206973207a65726f000000000000000000815250610f1f565b8160025f828254610642919061162a565b925050819055508160035f8573ffffffffffffffffffffffffffffffffffffffff1673ffffffffffffffffffffffffffffffffffffffff1681526020019081526020015f205f828254610695919061162a565b925050819055508273ffffffffffffffffffffffffffffffffffffffff165f73ffffffffffffffffffffffffffffffffffffffff167fddf252ad1be2c89b69c2b068fc378daa952ba7f163c4a11628f55a4df523b3ef846040516106f99190611573565b60405180910390a36001905092915050565b5f61078960035f3373ffffffffffffffffffffffffffffffffffffffff1673ffffffffffffffffffffffffffffffffffffffff1681526020019081526020015f2054836040518060400160405280601c81526020017f496e73756666696369656e742062616c616e636520746f206275726e00000000815250610f96565b8160025f82825461079a91906115f7565b925050819055508160035f3373ffffffffffffffffffffffffffffffffffffffff1673ffffffffffffffffffffffffffffffffffffffff1681526020019081526020015f205f8282546107ed91906115f7565b925050819055505f73ffffffffffffffffffffffffffffffffffffffff163373ffffffffffffffffffffffffffffffffffffffff167fddf252ad1be2c89b69c2b068fc378daa952ba7f163c4a11628f55a4df523b3ef846040516108519190611573565b60405180910390a360019050919050565b5f6108a2836040518060400160405280602081526020017f417070726f76616c207370656e6465722061646472656573206973207a65726f815250610f1f565b8160045f3373ffffffffffffffffffffffffffffffffffffffff1673ffffffffffffffffffffffffffffffffffffffff1681526020019081526020015f205f8573ffffffffffffffffffffffffffffffffffffffff1673ffffffffffffffffffffffffffffffffffffffff1681526020019081526020015f20819055508273ffffffffffffffffffffffffffffffffffffffff163373ffffffffffffffffffffffffffffffffffffffff167f8c5be1e5ebec7d5bd14f71427d1e84f3dd0314c0f7b2291e5b200ac8c7c3b9255f60405161097c9190611717565b60405180910390a38273ffffffffffffffffffffffffffffffffffffffff163373ffffffffffffffffffffffffffffffffffffffff167f8c5be1e5ebec7d5bd14f71427d1e84f3dd0314c0f7b2291e5b200ac8c7c3b925846040516109e19190611573565b60405180910390a36001905092915050565b5f6109fe8383610fe2565b5f610a08836110d2565b90508060035f3373ffffffffffffffffffffffffffffffffffffffff1673ffffffffffffffffffffffffffffffffffffffff1681526020019081526020015f20541015610a8a576040517f08c379a0000000000000000000000000000000000000000000000000000000008152600401610a819061177a565b60405180910390fd5b5f845190505f5f90505b81811015610b5e57610af5868281518110610ab257610ab1611798565b5b60200260200101516040518060400160405280600f81526020017f496e76616c696420616464726573730000000000000000000000000000000000815250610f1f565b5f858281518110610b0957610b08611798565b5b602002602001015111610b51576040517f08c379a0000000000000000000000000000000000000000000000000000000008152600401610b489061180f565b60405180910390fd5b8080600101915050610a94565b505f5f90505b81811015610d0b575f858281518110610b8057610b7f611798565b5b602002602001015190508060035f3373ffffffffffffffffffffffffffffffffffffffff1673ffffffffffffffffffffffffffffffffffffffff1681526020019081526020015f205f828254610bd691906115f7565b92505081905550858281518110610bf057610bef611798565b5b602002602001015160035f898581518110610c0e57610c0d611798565b5b602002602001015173ffffffffffffffffffffffffffffffffffffffff1673ffffffffffffffffffffffffffffffffffffffff1681526020019081526020015f205f828254610c5d919061162a565b92505081905550868281518110610c7757610c76611798565b5b602002602001015173ffffffffffffffffffffffffffffffffffffffff163373ffffffffffffffffffffffffffffffffffffffff167fddf252ad1be2c89b69c2b068fc378daa952ba7f163c4a11628f55a4df523b3ef888581518110610ce057610cdf611798565b5b6020026020010151604051610cf59190611573565b60405180910390a3508080600101915050610b64565b5060019250505092915050565b5f610d58836040518060400160405280601881526020017f546f207472616e73666572207a65726f20616464726565730000000000000000815250610f1f565b610dd560035f3373ffffffffffffffffffffffffffffffffffffffff1673ffffffffffffffffffffffffffffffffffffffff1681526020019081526020015f2054836040518060400160405280601481526020017f496e73756666696369656e742062616c616e6365000000000000000000000000815250610f96565b8160035f3373ffffffffffffffffffffffffffffffffffffffff1673ffffffffffffffffffffffffffffffffffffffff1681526020019081526020015f205f828254610e2191906115f7565b925050819055508160035f8573ffffffffffffffffffffffffffffffffffffffff1673ffffffffffffffffffffffffffffffffffffffff1681526020019081526020015f205f828254610e74919061162a565b925050819055508273ffffffffffffffffffffffffffffffffffffffff163373ffffffffffffffffffffffffffffffffffffffff167fddf252ad1be2c89b69c2b068fc378daa952ba7f163c4a11628f55a4df523b3ef84604051610ed89190611573565b60405180910390a36001905092915050565b6003602052805f5260405f205f915090505481565b6004602052815f5260405f20602052805f5260405f205f91509150505481565b5f73ffffffffffffffffffffffffffffffffffffffff168273ffffffffffffffffffffffffffffffffffffffff1614158190610f91576040517f08c379a0000000000000000000000000000000000000000000000000000000008152600401610f88919061187d565b60405180910390fd5b505050565b818310158190610fdc576040517f08c379a0000000000000000000000000000000000000000000000000000000008152600401610fd3919061187d565b60405180910390fd5b50505050565b5f825190505f82519050815f108015610ffc5750600a8211155b61103b576040517f08c379a0000000000000000000000000000000000000000000000000000000008152600401611032906118e7565b60405180910390fd5b805f10801561104b5750600a8111155b61108a576040517f08c379a000000000000000000000000000000000000000000000000000000000815260040161108190611975565b60405180910390fd5b8082146110cc576040517f08c379a00000000000000000000000000000000000000000000000000000000081526004016110c390611a03565b60405180910390fd5b50505050565b5f5f5f90505f835190505f5f90505b8181101561111e578481815181106110fc576110fb611798565b5b60200260200101518361110f919061162a565b925080806001019150506110e1565b508192505050919050565b5f604051905090565b5f5ffd5b5f5ffd5b5f73ffffffffffffffffffffffffffffffffffffffff82169050919050565b5f6111638261113a565b9050919050565b61117381611159565b811461117d575f5ffd5b50565b5f8135905061118e8161116a565b92915050565b5f819050919050565b6111a681611194565b81146111b0575f5ffd5b50565b5f813590506111c18161119d565b92915050565b5f5f5f606084860312156111de576111dd611132565b5b5f6111eb86828701611180565b93505060206111fc86828701611180565b925050604061120d868287016111b3565b9150509250925092565b5f8115159050919050565b61122b81611217565b82525050565b5f6020820190506112445f830184611222565b92915050565b5f5f604083850312156112605761125f611132565b5b5f61126d85828601611180565b925050602061127e858286016111b3565b9150509250929050565b5f6020828403121561129d5761129c611132565b5b5f6112aa848285016111b3565b91505092915050565b5f5ffd5b5f601f19601f8301169050919050565b7f4e487b71000000000000000000000000000000000000000000000000000000005f52604160045260245ffd5b6112fd826112b7565b810181811067ffffffffffffffff8211171561131c5761131b6112c7565b5b80604052505050565b5f61132e611129565b905061133a82826112f4565b919050565b5f67ffffffffffffffff821115611359576113586112c7565b5b602082029050602081019050919050565b5f5ffd5b5f61138061137b8461133f565b611325565b905080838252602082019050602084028301858111156113a3576113a261136a565b5b835b818110156113cc57806113b88882611180565b8452602084019350506020810190506113a5565b5050509392505050565b5f82601f8301126113ea576113e96112b3565b5b81356113fa84826020860161136e565b91505092915050565b5f67ffffffffffffffff82111561141d5761141c6112c7565b5b602082029050602081019050919050565b5f61144061143b84611403565b611325565b905080838252602082019050602084028301858111156114635761146261136a565b5b835b8181101561148c578061147888826111b3565b845260208401935050602081019050611465565b5050509392505050565b5f82601f8301126114aa576114a96112b3565b5b81356114ba84826020860161142e565b91505092915050565b5f5f604083850312156114d9576114d8611132565b5b5f83013567ffffffffffffffff8111156114f6576114f5611136565b5b611502858286016113d6565b925050602083013567ffffffffffffffff81111561152357611522611136565b5b61152f85828601611496565b9150509250929050565b5f6020828403121561154e5761154d611132565b5b5f61155b84828501611180565b91505092915050565b61156d81611194565b82525050565b5f6020820190506115865f830184611564565b92915050565b5f5f604083850312156115a2576115a1611132565b5b5f6115af85828601611180565b92505060206115c085828601611180565b9150509250929050565b7f4e487b71000000000000000000000000000000000000000000000000000000005f52601160045260245ffd5b5f61160182611194565b915061160c83611194565b9250828203905081811115611624576116236115ca565b5b92915050565b5f61163482611194565b915061163f83611194565b9250828201905080821115611657576116566115ca565b5b92915050565b5f82825260208201905092915050565b7f6f6e6c79206f776e6572206578656375746500000000000000000000000000005f82015250565b5f6116a160128361165d565b91506116ac8261166d565b602082019050919050565b5f6020820190508181035f8301526116ce81611695565b9050919050565b5f819050919050565b5f819050919050565b5f6117016116fc6116f7846116d5565b6116de565b611194565b9050919050565b611711816116e7565b82525050565b5f60208201905061172a5f830184611708565b92915050565b7f496e73756666696369656e742062616c616e63650000000000000000000000005f82015250565b5f61176460148361165d565b915061176f82611730565b602082019050919050565b5f6020820190508181035f83015261179181611758565b9050919050565b7f4e487b71000000000000000000000000000000000000000000000000000000005f52603260045260245ffd5b7f496e76616c696420616d6f756e740000000000000000000000000000000000005f82015250565b5f6117f9600e8361165d565b9150611804826117c5565b602082019050919050565b5f6020820190508181035f830152611826816117ed565b9050919050565b5f81519050919050565b8281835e5f83830152505050565b5f61184f8261182d565b611859818561165d565b9350611869818560208601611837565b611872816112b7565b840191505092915050565b5f6020820190508181035f8301526118958184611845565b905092915050565b7f5f616464417272206e6f7420656d707479206f72206578636565642074656e005f82015250565b5f6118d1601f8361165d565b91506118dc8261189d565b602082019050919050565b5f6020820190508181035f8301526118fe816118c5565b9050919050565b7f5f616d6f756e74417272206e6f7420656d707479206f722065786365656420745f8201527f656e000000000000000000000000000000000000000000000000000000000000602082015250565b5f61195f60228361165d565b915061196a82611905565b604082019050919050565b5f6020820190508181035f83015261198c81611953565b9050919050565b7f5f616464417272206c6567746820616e64205f616d6f756e74417272206c65675f8201527f7468206d69736d61746368000000000000000000000000000000000000000000602082015250565b5f6119ed602b8361165d565b91506119f882611993565b604082019050919050565b5f6020820190508181035f830152611a1a816119e1565b905091905056fea2646970667358221220eef7292a0c044226f986a2242990cf8c9bb5c98c0d7169d45e30f50383b36e6864736f6c634300081e0033",
					"opcodes": "PUSH1 0x80 PUSH1 0x40 MSTORE CALLVALUE DUP1 ISZERO PUSH2 0xF JUMPI PUSH0 PUSH0 REVERT JUMPDEST POP PUSH1 0x40 MLOAD PUSH2 0x22BF CODESIZE SUB DUP1 PUSH2 0x22BF DUP4 CODECOPY DUP2 DUP2 ADD PUSH1 0x40 MSTORE DUP2 ADD SWAP1 PUSH2 0x31 SWAP2 SWAP1 PUSH2 0x2E2 JUMP JUMPDEST DUP3 PUSH0 SWAP1 DUP2 PUSH2 0x3F SWAP2 SWAP1 PUSH2 0x571 JUMP JUMPDEST POP DUP2 PUSH1 0x1 SWAP1 DUP2 PUSH2 0x4F SWAP2 SWAP1 PUSH2 0x571 JUMP JUMPDEST POP PUSH1 0x12 PUSH1 0xA PUSH2 0x5E SWAP2 SWAP1 PUSH2 0x7A8 JUMP JUMPDEST DUP2 PUSH2 0x69 SWAP2 SWAP1 PUSH2 0x7F2 JUMP JUMPDEST PUSH1 0x2 DUP2 SWAP1 SSTORE POP CALLER PUSH1 0x5 PUSH0 PUSH2 0x100 EXP DUP2 SLOAD DUP2 PUSH20 0xFFFFFFFFFFFFFFFFFFFFFFFFFFFFFFFFFFFFFFFF MUL NOT AND SWAP1 DUP4 PUSH20 0xFFFFFFFFFFFFFFFFFFFFFFFFFFFFFFFFFFFFFFFF AND MUL OR SWAP1 SSTORE POP PUSH1 0x2 SLOAD PUSH1 0x3 PUSH0 CALLER PUSH20 0xFFFFFFFFFFFFFFFFFFFFFFFFFFFFFFFFFFFFFFFF AND PUSH20 0xFFFFFFFFFFFFFFFFFFFFFFFFFFFFFFFFFFFFFFFF AND DUP2 MSTORE PUSH1 0x20 ADD SWAP1 DUP2 MSTORE PUSH1 0x20 ADD PUSH0 KECCAK256 DUP2 SWAP1 SSTORE POP CALLER PUSH20 0xFFFFFFFFFFFFFFFFFFFFFFFFFFFFFFFFFFFFFFFF AND PUSH0 PUSH20 0xFFFFFFFFFFFFFFFFFFFFFFFFFFFFFFFFFFFFFFFF AND PUSH32 0xDDF252AD1BE2C89B69C2B068FC378DAA952BA7F163C4A11628F55A4DF523B3EF PUSH1 0x2 SLOAD PUSH1 0x40 MLOAD PUSH2 0x152 SWAP2 SWAP1 PUSH2 0x842 JUMP JUMPDEST PUSH1 0x40 MLOAD DUP1 SWAP2 SUB SWAP1 LOG3 POP POP POP PUSH2 0x85B JUMP JUMPDEST PUSH0 PUSH1 0x40 MLOAD SWAP1 POP SWAP1 JUMP JUMPDEST PUSH0 PUSH0 REVERT JUMPDEST PUSH0 PUSH0 REVERT JUMPDEST PUSH0 PUSH0 REVERT JUMPDEST PUSH0 PUSH0 REVERT JUMPDEST PUSH0 PUSH1 0x1F NOT PUSH1 0x1F DUP4 ADD AND SWAP1 POP SWAP2 SWAP1 POP JUMP JUMPDEST PUSH32 0x4E487B7100000000000000000000000000000000000000000000000000000000 PUSH0 MSTORE PUSH1 0x41 PUSH1 0x4 MSTORE PUSH1 0x24 PUSH0 REVERT JUMPDEST PUSH2 0x1C1 DUP3 PUSH2 0x17B JUMP JUMPDEST DUP2 ADD DUP2 DUP2 LT PUSH8 0xFFFFFFFFFFFFFFFF DUP3 GT OR ISZERO PUSH2 0x1E0 JUMPI PUSH2 0x1DF PUSH2 0x18B JUMP JUMPDEST JUMPDEST DUP1 PUSH1 0x40 MSTORE POP POP POP JUMP JUMPDEST PUSH0 PUSH2 0x1F2 PUSH2 0x162 JUMP JUMPDEST SWAP1 POP PUSH2 0x1FE DUP3 DUP3 PUSH2 0x1B8 JUMP JUMPDEST SWAP2 SWAP1 POP JUMP JUMPDEST PUSH0 PUSH8 0xFFFFFFFFFFFFFFFF DUP3 GT ISZERO PUSH2 0x21D JUMPI PUSH2 0x21C PUSH2 0x18B JUMP JUMPDEST JUMPDEST PUSH2 0x226 DUP3 PUSH2 0x17B JUMP JUMPDEST SWAP1 POP PUSH1 0x20 DUP2 ADD SWAP1 POP SWAP2 SWAP1 POP JUMP JUMPDEST DUP3 DUP2 DUP4 MCOPY PUSH0 DUP4 DUP4 ADD MSTORE POP POP POP JUMP JUMPDEST PUSH0 PUSH2 0x253 PUSH2 0x24E DUP5 PUSH2 0x203 JUMP JUMPDEST PUSH2 0x1E9 JUMP JUMPDEST SWAP1 POP DUP3 DUP2 MSTORE PUSH1 0x20 DUP2 ADD DUP5 DUP5 DUP5 ADD GT ISZERO PUSH2 0x26F JUMPI PUSH2 0x26E PUSH2 0x177 JUMP JUMPDEST JUMPDEST PUSH2 0x27A DUP5 DUP3 DUP6 PUSH2 0x233 JUMP JUMPDEST POP SWAP4 SWAP3 POP POP POP JUMP JUMPDEST PUSH0 DUP3 PUSH1 0x1F DUP4 ADD SLT PUSH2 0x296 JUMPI PUSH2 0x295 PUSH2 0x173 JUMP JUMPDEST JUMPDEST DUP2 MLOAD PUSH2 0x2A6 DUP5 DUP3 PUSH1 0x20 DUP7 ADD PUSH2 0x241 JUMP JUMPDEST SWAP2 POP POP SWAP3 SWAP2 POP POP JUMP JUMPDEST PUSH0 DUP2 SWAP1 POP SWAP2 SWAP1 POP JUMP JUMPDEST PUSH2 0x2C1 DUP2 PUSH2 0x2AF JUMP JUMPDEST DUP2 EQ PUSH2 0x2CB JUMPI PUSH0 PUSH0 REVERT JUMPDEST POP JUMP JUMPDEST PUSH0 DUP2 MLOAD SWAP1 POP PUSH2 0x2DC DUP2 PUSH2 0x2B8 JUMP JUMPDEST SWAP3 SWAP2 POP POP JUMP JUMPDEST PUSH0 PUSH0 PUSH0 PUSH1 0x60 DUP5 DUP7 SUB SLT ISZERO PUSH2 0x2F9 JUMPI PUSH2 0x2F8 PUSH2 0x16B JUMP JUMPDEST JUMPDEST PUSH0 DUP5 ADD MLOAD PUSH8 0xFFFFFFFFFFFFFFFF DUP2 GT ISZERO PUSH2 0x316 JUMPI PUSH2 0x315 PUSH2 0x16F JUMP JUMPDEST JUMPDEST PUSH2 0x322 DUP7 DUP3 DUP8 ADD PUSH2 0x282 JUMP JUMPDEST SWAP4 POP POP PUSH1 0x20 DUP5 ADD MLOAD PUSH8 0xFFFFFFFFFFFFFFFF DUP2 GT ISZERO PUSH2 0x343 JUMPI PUSH2 0x342 PUSH2 0x16F JUMP JUMPDEST JUMPDEST PUSH2 0x34F DUP7 DUP3 DUP8 ADD PUSH2 0x282 JUMP JUMPDEST SWAP3 POP POP PUSH1 0x40 PUSH2 0x360 DUP7 DUP3 DUP8 ADD PUSH2 0x2CE JUMP JUMPDEST SWAP2 POP POP SWAP3 POP SWAP3 POP SWAP3 JUMP JUMPDEST PUSH0 DUP2 MLOAD SWAP1 POP SWAP2 SWAP1 POP JUMP JUMPDEST PUSH32 0x4E487B7100000000000000000000000000000000000000000000000000000000 PUSH0 MSTORE PUSH1 0x22 PUSH1 0x4 MSTORE PUSH1 0x24 PUSH0 REVERT JUMPDEST PUSH0 PUSH1 0x2 DUP3 DIV SWAP1 POP PUSH1 0x1 DUP3 AND DUP1 PUSH2 0x3B8 JUMPI PUSH1 0x7F DUP3 AND SWAP2 POP JUMPDEST PUSH1 0x20 DUP3 LT DUP2 SUB PUSH2 0x3CB JUMPI PUSH2 0x3CA PUSH2 0x374 JUMP JUMPDEST JUMPDEST POP SWAP2 SWAP1 POP JUMP JUMPDEST PUSH0 DUP2 SWAP1 POP DUP2 PUSH0 MSTORE PUSH1 0x20 PUSH0 KECCAK256 SWAP1 POP SWAP2 SWAP1 POP JUMP JUMPDEST PUSH0 PUSH1 0x20 PUSH1 0x1F DUP4 ADD DIV SWAP1 POP SWAP2 SWAP1 POP JUMP JUMPDEST PUSH0 DUP3 DUP3 SHL SWAP1 POP SWAP3 SWAP2 POP POP JUMP JUMPDEST PUSH0 PUSH1 0x8 DUP4 MUL PUSH2 0x42D PUSH32 0xFFFFFFFFFFFFFFFFFFFFFFFFFFFFFFFFFFFFFFFFFFFFFFFFFFFFFFFFFFFFFFFF DUP3 PUSH2 0x3F2 JUMP JUMPDEST PUSH2 0x437 DUP7 DUP4 PUSH2 0x3F2 JUMP JUMPDEST SWAP6 POP DUP1 NOT DUP5 AND SWAP4 POP DUP1 DUP7 AND DUP5 OR SWAP3 POP POP POP SWAP4 SWAP3 POP POP POP JUMP JUMPDEST PUSH0 DUP2 SWAP1 POP SWAP2 SWAP1 POP JUMP JUMPDEST PUSH0 PUSH2 0x472 PUSH2 0x46D PUSH2 0x468 DUP5 PUSH2 0x2AF JUMP JUMPDEST PUSH2 0x44F JUMP JUMPDEST PUSH2 0x2AF JUMP JUMPDEST SWAP1 POP SWAP2 SWAP1 POP JUMP JUMPDEST PUSH0 DUP2 SWAP1 POP SWAP2 SWAP1 POP JUMP JUMPDEST PUSH2 0x48B DUP4 PUSH2 0x458 JUMP JUMPDEST PUSH2 0x49F PUSH2 0x497 DUP3 PUSH2 0x479 JUMP JUMPDEST DUP5 DUP5 SLOAD PUSH2 0x3FE JUMP JUMPDEST DUP3 SSTORE POP POP POP POP JUMP JUMPDEST PUSH0 PUSH0 SWAP1 POP SWAP1 JUMP JUMPDEST PUSH2 0x4B6 PUSH2 0x4A7 JUMP JUMPDEST PUSH2 0x4C1 DUP2 DUP5 DUP5 PUSH2 0x482 JUMP JUMPDEST POP POP POP JUMP JUMPDEST JUMPDEST DUP2 DUP2 LT ISZERO PUSH2 0x4E4 JUMPI PUSH2 0x4D9 PUSH0 DUP3 PUSH2 0x4AE JUMP JUMPDEST PUSH1 0x1 DUP2 ADD SWAP1 POP PUSH2 0x4C7 JUMP JUMPDEST POP POP JUMP JUMPDEST PUSH1 0x1F DUP3 GT ISZERO PUSH2 0x529 JUMPI PUSH2 0x4FA DUP2 PUSH2 0x3D1 JUMP JUMPDEST PUSH2 0x503 DUP5 PUSH2 0x3E3 JUMP JUMPDEST DUP2 ADD PUSH1 0x20 DUP6 LT ISZERO PUSH2 0x512 JUMPI DUP2 SWAP1 POP JUMPDEST PUSH2 0x526 PUSH2 0x51E DUP6 PUSH2 0x3E3 JUMP JUMPDEST DUP4 ADD DUP3 PUSH2 0x4C6 JUMP JUMPDEST POP POP JUMPDEST POP POP POP JUMP JUMPDEST PUSH0 DUP3 DUP3 SHR SWAP1 POP SWAP3 SWAP2 POP POP JUMP JUMPDEST PUSH0 PUSH2 0x549 PUSH0 NOT DUP5 PUSH1 0x8 MUL PUSH2 0x52E JUMP JUMPDEST NOT DUP1 DUP4 AND SWAP2 POP POP SWAP3 SWAP2 POP POP JUMP JUMPDEST PUSH0 PUSH2 0x561 DUP4 DUP4 PUSH2 0x53A JUMP JUMPDEST SWAP2 POP DUP3 PUSH1 0x2 MUL DUP3 OR SWAP1 POP SWAP3 SWAP2 POP POP JUMP JUMPDEST PUSH2 0x57A DUP3 PUSH2 0x36A JUMP JUMPDEST PUSH8 0xFFFFFFFFFFFFFFFF DUP2 GT ISZERO PUSH2 0x593 JUMPI PUSH2 0x592 PUSH2 0x18B JUMP JUMPDEST JUMPDEST PUSH2 0x59D DUP3 SLOAD PUSH2 0x3A1 JUMP JUMPDEST PUSH2 0x5A8 DUP3 DUP3 DUP6 PUSH2 0x4E8 JUMP JUMPDEST PUSH0 PUSH1 0x20 SWAP1 POP PUSH1 0x1F DUP4 GT PUSH1 0x1 DUP2 EQ PUSH2 0x5D9 JUMPI PUSH0 DUP5 ISZERO PUSH2 0x5C7 JUMPI DUP3 DUP8 ADD MLOAD SWAP1 POP JUMPDEST PUSH2 0x5D1 DUP6 DUP3 PUSH2 0x556 JUMP JUMPDEST DUP7 SSTORE POP PUSH2 0x638 JUMP JUMPDEST PUSH1 0x1F NOT DUP5 AND PUSH2 0x5E7 DUP7 PUSH2 0x3D1 JUMP JUMPDEST PUSH0 JUMPDEST DUP3 DUP2 LT ISZERO PUSH2 0x60E JUMPI DUP5 DUP10 ADD MLOAD DUP3 SSTORE PUSH1 0x1 DUP3 ADD SWAP2 POP PUSH1 0x20 DUP6 ADD SWAP5 POP PUSH1 0x20 DUP2 ADD SWAP1 POP PUSH2 0x5E9 JUMP JUMPDEST DUP7 DUP4 LT ISZERO PUSH2 0x62B JUMPI DUP5 DUP10 ADD MLOAD PUSH2 0x627 PUSH1 0x1F DUP10 AND DUP3 PUSH2 0x53A JUMP JUMPDEST DUP4 SSTORE POP JUMPDEST PUSH1 0x1 PUSH1 0x2 DUP9 MUL ADD DUP9 SSTORE POP POP POP JUMPDEST POP POP POP POP POP POP JUMP JUMPDEST PUSH32 0x4E487B7100000000000000000000000000000000000000000000000000000000 PUSH0 MSTORE PUSH1 0x11 PUSH1 0x4 MSTORE PUSH1 0x24 PUSH0 REVERT JUMPDEST PUSH0 DUP2 PUSH1 0x1 SHR SWAP1 POP SWAP2 SWAP1 POP JUMP JUMPDEST PUSH0 PUSH0 DUP3 SWAP2 POP DUP4 SWAP1 POP JUMPDEST PUSH1 0x1 DUP6 GT ISZERO PUSH2 0x6C2 JUMPI DUP1 DUP7 DIV DUP2 GT ISZERO PUSH2 0x69E JUMPI PUSH2 0x69D PUSH2 0x640 JUMP JUMPDEST JUMPDEST PUSH1 0x1 DUP6 AND ISZERO PUSH2 0x6AD JUMPI DUP1 DUP3 MUL SWAP2 POP JUMPDEST DUP1 DUP2 MUL SWAP1 POP PUSH2 0x6BB DUP6 PUSH2 0x66D JUMP JUMPDEST SWAP5 POP PUSH2 0x682 JUMP JUMPDEST SWAP5 POP SWAP5 SWAP3 POP POP POP JUMP JUMPDEST PUSH0 DUP3 PUSH2 0x6DA JUMPI PUSH1 0x1 SWAP1 POP PUSH2 0x795 JUMP JUMPDEST DUP2 PUSH2 0x6E7 JUMPI PUSH0 SWAP1 POP PUSH2 0x795 JUMP JUMPDEST DUP2 PUSH1 0x1 DUP2 EQ PUSH2 0x6FD JUMPI PUSH1 0x2 DUP2 EQ PUSH2 0x707 JUMPI PUSH2 0x736 JUMP JUMPDEST PUSH1 0x1 SWAP2 POP POP PUSH2 0x795 JUMP JUMPDEST PUSH1 0xFF DUP5 GT ISZERO PUSH2 0x719 JUMPI PUSH2 0x718 PUSH2 0x640 JUMP JUMPDEST JUMPDEST DUP4 PUSH1 0x2 EXP SWAP2 POP DUP5 DUP3 GT ISZERO PUSH2 0x730 JUMPI PUSH2 0x72F PUSH2 0x640 JUMP JUMPDEST JUMPDEST POP PUSH2 0x795 JUMP JUMPDEST POP PUSH1 0x20 DUP4 LT PUSH2 0x133 DUP4 LT AND PUSH1 0x4E DUP5 LT PUSH1 0xB DUP5 LT AND OR ISZERO PUSH2 0x76B JUMPI DUP3 DUP3 EXP SWAP1 POP DUP4 DUP2 GT ISZERO PUSH2 0x766 JUMPI PUSH2 0x765 PUSH2 0x640 JUMP JUMPDEST JUMPDEST PUSH2 0x795 JUMP JUMPDEST PUSH2 0x778 DUP5 DUP5 DUP5 PUSH1 0x1 PUSH2 0x679 JUMP JUMPDEST SWAP3 POP SWAP1 POP DUP2 DUP5 DIV DUP2 GT ISZERO PUSH2 0x78F JUMPI PUSH2 0x78E PUSH2 0x640 JUMP JUMPDEST JUMPDEST DUP2 DUP2 MUL SWAP1 POP JUMPDEST SWAP4 SWAP3 POP POP POP JUMP JUMPDEST PUSH0 PUSH1 0xFF DUP3 AND SWAP1 POP SWAP2 SWAP1 POP JUMP JUMPDEST PUSH0 PUSH2 0x7B2 DUP3 PUSH2 0x2AF JUMP JUMPDEST SWAP2 POP PUSH2 0x7BD DUP4 PUSH2 0x79C JUMP JUMPDEST SWAP3 POP PUSH2 0x7EA PUSH32 0xFFFFFFFFFFFFFFFFFFFFFFFFFFFFFFFFFFFFFFFFFFFFFFFFFFFFFFFFFFFFFFFF DUP5 DUP5 PUSH2 0x6CB JUMP JUMPDEST SWAP1 POP SWAP3 SWAP2 POP POP JUMP JUMPDEST PUSH0 PUSH2 0x7FC DUP3 PUSH2 0x2AF JUMP JUMPDEST SWAP2 POP PUSH2 0x807 DUP4 PUSH2 0x2AF JUMP JUMPDEST SWAP3 POP DUP3 DUP3 MUL PUSH2 0x815 DUP2 PUSH2 0x2AF JUMP JUMPDEST SWAP2 POP DUP3 DUP3 DIV DUP5 EQ DUP4 ISZERO OR PUSH2 0x82C JUMPI PUSH2 0x82B PUSH2 0x640 JUMP JUMPDEST JUMPDEST POP SWAP3 SWAP2 POP POP JUMP JUMPDEST PUSH2 0x83C DUP2 PUSH2 0x2AF JUMP JUMPDEST DUP3 MSTORE POP POP JUMP JUMPDEST PUSH0 PUSH1 0x20 DUP3 ADD SWAP1 POP PUSH2 0x855 PUSH0 DUP4 ADD DUP5 PUSH2 0x833 JUMP JUMPDEST SWAP3 SWAP2 POP POP JUMP JUMPDEST PUSH2 0x1A57 DUP1 PUSH2 0x868 PUSH0 CODECOPY PUSH0 RETURN INVALID PUSH1 0x80 PUSH1 0x40 MSTORE CALLVALUE DUP1 ISZERO PUSH2 0xF JUMPI PUSH0 PUSH0 REVERT JUMPDEST POP PUSH1 0x4 CALLDATASIZE LT PUSH2 0x86 JUMPI PUSH0 CALLDATALOAD PUSH1 0xE0 SHR DUP1 PUSH4 0x88D695B2 GT PUSH2 0x59 JUMPI DUP1 PUSH4 0x88D695B2 EQ PUSH2 0x14A JUMPI DUP1 PUSH4 0xA9059CBB EQ PUSH2 0x17A JUMPI DUP1 PUSH4 0xAC9FF07B EQ PUSH2 0x1AA JUMPI DUP1 PUSH4 0xDD62ED3E EQ PUSH2 0x1DA JUMPI PUSH2 0x86 JUMP JUMPDEST DUP1 PUSH4 0x23B872DD EQ PUSH2 0x8A JUMPI DUP1 PUSH4 0x40C10F19 EQ PUSH2 0xBA JUMPI DUP1 PUSH4 0x42966C68 EQ PUSH2 0xEA JUMPI DUP1 PUSH4 0x75247A58 EQ PUSH2 0x11A JUMPI JUMPDEST PUSH0 PUSH0 REVERT JUMPDEST PUSH2 0xA4 PUSH1 0x4 DUP1 CALLDATASIZE SUB DUP2 ADD SWAP1 PUSH2 0x9F SWAP2 SWAP1 PUSH2 0x11C7 JUMP JUMPDEST PUSH2 0x20A JUMP JUMPDEST PUSH1 0x40 MLOAD PUSH2 0xB1 SWAP2 SWAP1 PUSH2 0x1231 JUMP JUMPDEST PUSH1 0x40 MLOAD DUP1 SWAP2 SUB SWAP1 RETURN JUMPDEST PUSH2 0xD4 PUSH1 0x4 DUP1 CALLDATASIZE SUB DUP2 ADD SWAP1 PUSH2 0xCF SWAP2 SWAP1 PUSH2 0x124A JUMP JUMPDEST PUSH2 0x562 JUMP JUMPDEST PUSH1 0x40 MLOAD PUSH2 0xE1 SWAP2 SWAP1 PUSH2 0x1231 JUMP JUMPDEST PUSH1 0x40 MLOAD DUP1 SWAP2 SUB SWAP1 RETURN JUMPDEST PUSH2 0x104 PUSH1 0x4 DUP1 CALLDATASIZE SUB DUP2 ADD SWAP1 PUSH2 0xFF SWAP2 SWAP1 PUSH2 0x1288 JUMP JUMPDEST PUSH2 0x70B JUMP JUMPDEST PUSH1 0x40 MLOAD PUSH2 0x111 SWAP2 SWAP1 PUSH2 0x1231 JUMP JUMPDEST PUSH1 0x40 MLOAD DUP1 SWAP2 SUB SWAP1 RETURN JUMPDEST PUSH2 0x134 PUSH1 0x4 DUP1 CALLDATASIZE SUB DUP2 ADD SWAP1 PUSH2 0x12F SWAP2 SWAP1 PUSH2 0x124A JUMP JUMPDEST PUSH2 0x862 JUMP JUMPDEST PUSH1 0x40 MLOAD PUSH2 0x141 SWAP2 SWAP1 PUSH2 0x1231 JUMP JUMPDEST PUSH1 0x40 MLOAD DUP1 SWAP2 SUB SWAP1 RETURN JUMPDEST PUSH2 0x164 PUSH1 0x4 DUP1 CALLDATASIZE SUB DUP2 ADD SWAP1 PUSH2 0x15F SWAP2 SWAP1 PUSH2 0x14C3 JUMP JUMPDEST PUSH2 0x9F3 JUMP JUMPDEST PUSH1 0x40 MLOAD PUSH2 0x171 SWAP2 SWAP1 PUSH2 0x1231 JUMP JUMPDEST PUSH1 0x40 MLOAD DUP1 SWAP2 SUB SWAP1 RETURN JUMPDEST PUSH2 0x194 PUSH1 0x4 DUP1 CALLDATASIZE SUB DUP2 ADD SWAP1 PUSH2 0x18F SWAP2 SWAP1 PUSH2 0x124A JUMP JUMPDEST PUSH2 0xD18 JUMP JUMPDEST PUSH1 0x40 MLOAD PUSH2 0x1A1 SWAP2 SWAP1 PUSH2 0x1231 JUMP JUMPDEST PUSH1 0x40 MLOAD DUP1 SWAP2 SUB SWAP1 RETURN JUMPDEST PUSH2 0x1C4 PUSH1 0x4 DUP1 CALLDATASIZE SUB DUP2 ADD SWAP1 PUSH2 0x1BF SWAP2 SWAP1 PUSH2 0x1539 JUMP JUMPDEST PUSH2 0xEEA JUMP JUMPDEST PUSH1 0x40 MLOAD PUSH2 0x1D1 SWAP2 SWAP1 PUSH2 0x1573 JUMP JUMPDEST PUSH1 0x40 MLOAD DUP1 SWAP2 SUB SWAP1 RETURN JUMPDEST PUSH2 0x1F4 PUSH1 0x4 DUP1 CALLDATASIZE SUB DUP2 ADD SWAP1 PUSH2 0x1EF SWAP2 SWAP1 PUSH2 0x158C JUMP JUMPDEST PUSH2 0xEFF JUMP JUMPDEST PUSH1 0x40 MLOAD PUSH2 0x201 SWAP2 SWAP1 PUSH2 0x1573 JUMP JUMPDEST PUSH1 0x40 MLOAD DUP1 SWAP2 SUB SWAP1 RETURN JUMPDEST PUSH0 PUSH2 0x24A DUP5 PUSH1 0x40 MLOAD DUP1 PUSH1 0x40 ADD PUSH1 0x40 MSTORE DUP1 PUSH1 0x1D DUP2 MSTORE PUSH1 0x20 ADD PUSH32 0x46726F6D207472616E736665722061646472656573206973207A65726F000000 DUP2 MSTORE POP PUSH2 0xF1F JUMP JUMPDEST PUSH2 0x289 DUP4 PUSH1 0x40 MLOAD DUP1 PUSH1 0x40 ADD PUSH1 0x40 MSTORE DUP1 PUSH1 0x1B DUP2 MSTORE PUSH1 0x20 ADD PUSH32 0x546F207472616E736665722061646472656573206973207A65726F0000000000 DUP2 MSTORE POP PUSH2 0xF1F JUMP JUMPDEST PUSH2 0x306 PUSH1 0x3 PUSH0 DUP7 PUSH20 0xFFFFFFFFFFFFFFFFFFFFFFFFFFFFFFFFFFFFFFFF AND PUSH20 0xFFFFFFFFFFFFFFFFFFFFFFFFFFFFFFFFFFFFFFFF AND DUP2 MSTORE PUSH1 0x20 ADD SWAP1 DUP2 MSTORE PUSH1 0x20 ADD PUSH0 KECCAK256 SLOAD DUP4 PUSH1 0x40 MLOAD DUP1 PUSH1 0x40 ADD PUSH1 0x40 MSTORE DUP1 PUSH1 0x14 DUP2 MSTORE PUSH1 0x20 ADD PUSH32 0x496E73756666696369656E742062616C616E6365000000000000000000000000 DUP2 MSTORE POP PUSH2 0xF96 JUMP JUMPDEST PUSH2 0x3BE PUSH1 0x4 PUSH0 DUP7 PUSH20 0xFFFFFFFFFFFFFFFFFFFFFFFFFFFFFFFFFFFFFFFF AND PUSH20 0xFFFFFFFFFFFFFFFFFFFFFFFFFFFFFFFFFFFFFFFF AND DUP2 MSTORE PUSH1 0x20 ADD SWAP1 DUP2 MSTORE PUSH1 0x20 ADD PUSH0 KECCAK256 PUSH0 CALLER PUSH20 0xFFFFFFFFFFFFFFFFFFFFFFFFFFFFFFFFFFFFFFFF AND PUSH20 0xFFFFFFFFFFFFFFFFFFFFFFFFFFFFFFFFFFFFFFFF AND DUP2 MSTORE PUSH1 0x20 ADD SWAP1 DUP2 MSTORE PUSH1 0x20 ADD PUSH0 KECCAK256 SLOAD DUP4 PUSH1 0x40 MLOAD DUP1 PUSH1 0x40 ADD PUSH1 0x40 MSTORE DUP1 PUSH1 0x16 DUP2 MSTORE PUSH1 0x20 ADD PUSH32 0x496E73756666696369656E7420616C6C6F77616E636500000000000000000000 DUP2 MSTORE POP PUSH2 0xF96 JUMP JUMPDEST DUP2 PUSH1 0x3 PUSH0 DUP7 PUSH20 0xFFFFFFFFFFFFFFFFFFFFFFFFFFFFFFFFFFFFFFFF AND PUSH20 0xFFFFFFFFFFFFFFFFFFFFFFFFFFFFFFFFFFFFFFFF AND DUP2 MSTORE PUSH1 0x20 ADD SWAP1 DUP2 MSTORE PUSH1 0x20 ADD PUSH0 KECCAK256 PUSH0 DUP3 DUP3 SLOAD PUSH2 0x40A SWAP2 SWAP1 PUSH2 0x15F7 JUMP JUMPDEST SWAP3 POP POP DUP2 SWAP1 SSTORE POP DUP2 PUSH1 0x3 PUSH0 DUP6 PUSH20 0xFFFFFFFFFFFFFFFFFFFFFFFFFFFFFFFFFFFFFFFF AND PUSH20 0xFFFFFFFFFFFFFFFFFFFFFFFFFFFFFFFFFFFFFFFF AND DUP2 MSTORE PUSH1 0x20 ADD SWAP1 DUP2 MSTORE PUSH1 0x20 ADD PUSH0 KECCAK256 PUSH0 DUP3 DUP3 SLOAD PUSH2 0x45D SWAP2 SWAP1 PUSH2 0x162A JUMP JUMPDEST SWAP3 POP POP DUP2 SWAP1 SSTORE POP DUP2 PUSH1 0x4 PUSH0 DUP7 PUSH20 0xFFFFFFFFFFFFFFFFFFFFFFFFFFFFFFFFFFFFFFFF AND PUSH20 0xFFFFFFFFFFFFFFFFFFFFFFFFFFFFFFFFFFFFFFFF AND DUP2 MSTORE PUSH1 0x20 ADD SWAP1 DUP2 MSTORE PUSH1 0x20 ADD PUSH0 KECCAK256 PUSH0 CALLER PUSH20 0xFFFFFFFFFFFFFFFFFFFFFFFFFFFFFFFFFFFFFFFF AND PUSH20 0xFFFFFFFFFFFFFFFFFFFFFFFFFFFFFFFFFFFFFFFF AND DUP2 MSTORE PUSH1 0x20 ADD SWAP1 DUP2 MSTORE PUSH1 0x20 ADD PUSH0 KECCAK256 PUSH0 DUP3 DUP3 SLOAD PUSH2 0x4EB SWAP2 SWAP1 PUSH2 0x15F7 JUMP JUMPDEST SWAP3 POP POP DUP2 SWAP1 SSTORE POP DUP3 PUSH20 0xFFFFFFFFFFFFFFFFFFFFFFFFFFFFFFFFFFFFFFFF AND DUP5 PUSH20 0xFFFFFFFFFFFFFFFFFFFFFFFFFFFFFFFFFFFFFFFF AND PUSH32 0xDDF252AD1BE2C89B69C2B068FC378DAA952BA7F163C4A11628F55A4DF523B3EF DUP5 PUSH1 0x40 MLOAD PUSH2 0x54F SWAP2 SWAP1 PUSH2 0x1573 JUMP JUMPDEST PUSH1 0x40 MLOAD DUP1 SWAP2 SUB SWAP1 LOG3 PUSH1 0x1 SWAP1 POP SWAP4 SWAP3 POP POP POP JUMP JUMPDEST PUSH0 PUSH1 0x5 PUSH0 SWAP1 SLOAD SWAP1 PUSH2 0x100 EXP SWAP1 DIV PUSH20 0xFFFFFFFFFFFFFFFFFFFFFFFFFFFFFFFFFFFFFFFF AND PUSH20 0xFFFFFFFFFFFFFFFFFFFFFFFFFFFFFFFFFFFFFFFF AND CALLER PUSH20 0xFFFFFFFFFFFFFFFFFFFFFFFFFFFFFFFFFFFFFFFF AND EQ PUSH2 0x5F2 JUMPI PUSH1 0x40 MLOAD PUSH32 0x8C379A000000000000000000000000000000000000000000000000000000000 DUP2 MSTORE PUSH1 0x4 ADD PUSH2 0x5E9 SWAP1 PUSH2 0x16B7 JUMP JUMPDEST PUSH1 0x40 MLOAD DUP1 SWAP2 SUB SWAP1 REVERT JUMPDEST PUSH2 0x631 DUP4 PUSH1 0x40 MLOAD DUP1 PUSH1 0x40 ADD PUSH1 0x40 MSTORE DUP1 PUSH1 0x17 DUP2 MSTORE PUSH1 0x20 ADD PUSH32 0x4D696E7420746F2061646472656573206973207A65726F000000000000000000 DUP2 MSTORE POP PUSH2 0xF1F JUMP JUMPDEST DUP2 PUSH1 0x2 PUSH0 DUP3 DUP3 SLOAD PUSH2 0x642 SWAP2 SWAP1 PUSH2 0x162A JUMP JUMPDEST SWAP3 POP POP DUP2 SWAP1 SSTORE POP DUP2 PUSH1 0x3 PUSH0 DUP6 PUSH20 0xFFFFFFFFFFFFFFFFFFFFFFFFFFFFFFFFFFFFFFFF AND PUSH20 0xFFFFFFFFFFFFFFFFFFFFFFFFFFFFFFFFFFFFFFFF AND DUP2 MSTORE PUSH1 0x20 ADD SWAP1 DUP2 MSTORE PUSH1 0x20 ADD PUSH0 KECCAK256 PUSH0 DUP3 DUP3 SLOAD PUSH2 0x695 SWAP2 SWAP1 PUSH2 0x162A JUMP JUMPDEST SWAP3 POP POP DUP2 SWAP1 SSTORE POP DUP3 PUSH20 0xFFFFFFFFFFFFFFFFFFFFFFFFFFFFFFFFFFFFFFFF AND PUSH0 PUSH20 0xFFFFFFFFFFFFFFFFFFFFFFFFFFFFFFFFFFFFFFFF AND PUSH32 0xDDF252AD1BE2C89B69C2B068FC378DAA952BA7F163C4A11628F55A4DF523B3EF DUP5 PUSH1 0x40 MLOAD PUSH2 0x6F9 SWAP2 SWAP1 PUSH2 0x1573 JUMP JUMPDEST PUSH1 0x40 MLOAD DUP1 SWAP2 SUB SWAP1 LOG3 PUSH1 0x1 SWAP1 POP SWAP3 SWAP2 POP POP JUMP JUMPDEST PUSH0 PUSH2 0x789 PUSH1 0x3 PUSH0 CALLER PUSH20 0xFFFFFFFFFFFFFFFFFFFFFFFFFFFFFFFFFFFFFFFF AND PUSH20 0xFFFFFFFFFFFFFFFFFFFFFFFFFFFFFFFFFFFFFFFF AND DUP2 MSTORE PUSH1 0x20 ADD SWAP1 DUP2 MSTORE PUSH1 0x20 ADD PUSH0 KECCAK256 SLOAD DUP4 PUSH1 0x40 MLOAD DUP1 PUSH1 0x40 ADD PUSH1 0x40 MSTORE DUP1 PUSH1 0x1C DUP2 MSTORE PUSH1 0x20 ADD PUSH32 0x496E73756666696369656E742062616C616E636520746F206275726E00000000 DUP2 MSTORE POP PUSH2 0xF96 JUMP JUMPDEST DUP2 PUSH1 0x2 PUSH0 DUP3 DUP3 SLOAD PUSH2 0x79A SWAP2 SWAP1 PUSH2 0x15F7 JUMP JUMPDEST SWAP3 POP POP DUP2 SWAP1 SSTORE POP DUP2 PUSH1 0x3 PUSH0 CALLER PUSH20 0xFFFFFFFFFFFFFFFFFFFFFFFFFFFFFFFFFFFFFFFF AND PUSH20 0xFFFFFFFFFFFFFFFFFFFFFFFFFFFFFFFFFFFFFFFF AND DUP2 MSTORE PUSH1 0x20 ADD SWAP1 DUP2 MSTORE PUSH1 0x20 ADD PUSH0 KECCAK256 PUSH0 DUP3 DUP3 SLOAD PUSH2 0x7ED SWAP2 SWAP1 PUSH2 0x15F7 JUMP JUMPDEST SWAP3 POP POP DUP2 SWAP1 SSTORE POP PUSH0 PUSH20 0xFFFFFFFFFFFFFFFFFFFFFFFFFFFFFFFFFFFFFFFF AND CALLER PUSH20 0xFFFFFFFFFFFFFFFFFFFFFFFFFFFFFFFFFFFFFFFF AND PUSH32 0xDDF252AD1BE2C89B69C2B068FC378DAA952BA7F163C4A11628F55A4DF523B3EF DUP5 PUSH1 0x40 MLOAD PUSH2 0x851 SWAP2 SWAP1 PUSH2 0x1573 JUMP JUMPDEST PUSH1 0x40 MLOAD DUP1 SWAP2 SUB SWAP1 LOG3 PUSH1 0x1 SWAP1 POP SWAP2 SWAP1 POP JUMP JUMPDEST PUSH0 PUSH2 0x8A2 DUP4 PUSH1 0x40 MLOAD DUP1 PUSH1 0x40 ADD PUSH1 0x40 MSTORE DUP1 PUSH1 0x20 DUP2 MSTORE PUSH1 0x20 ADD PUSH32 0x417070726F76616C207370656E6465722061646472656573206973207A65726F DUP2 MSTORE POP PUSH2 0xF1F JUMP JUMPDEST DUP2 PUSH1 0x4 PUSH0 CALLER PUSH20 0xFFFFFFFFFFFFFFFFFFFFFFFFFFFFFFFFFFFFFFFF AND PUSH20 0xFFFFFFFFFFFFFFFFFFFFFFFFFFFFFFFFFFFFFFFF AND DUP2 MSTORE PUSH1 0x20 ADD SWAP1 DUP2 MSTORE PUSH1 0x20 ADD PUSH0 KECCAK256 PUSH0 DUP6 PUSH20 0xFFFFFFFFFFFFFFFFFFFFFFFFFFFFFFFFFFFFFFFF AND PUSH20 0xFFFFFFFFFFFFFFFFFFFFFFFFFFFFFFFFFFFFFFFF AND DUP2 MSTORE PUSH1 0x20 ADD SWAP1 DUP2 MSTORE PUSH1 0x20 ADD PUSH0 KECCAK256 DUP2 SWAP1 SSTORE POP DUP3 PUSH20 0xFFFFFFFFFFFFFFFFFFFFFFFFFFFFFFFFFFFFFFFF AND CALLER PUSH20 0xFFFFFFFFFFFFFFFFFFFFFFFFFFFFFFFFFFFFFFFF AND PUSH32 0x8C5BE1E5EBEC7D5BD14F71427D1E84F3DD0314C0F7B2291E5B200AC8C7C3B925 PUSH0 PUSH1 0x40 MLOAD PUSH2 0x97C SWAP2 SWAP1 PUSH2 0x1717 JUMP JUMPDEST PUSH1 0x40 MLOAD DUP1 SWAP2 SUB SWAP1 LOG3 DUP3 PUSH20 0xFFFFFFFFFFFFFFFFFFFFFFFFFFFFFFFFFFFFFFFF AND CALLER PUSH20 0xFFFFFFFFFFFFFFFFFFFFFFFFFFFFFFFFFFFFFFFF AND PUSH32 0x8C5BE1E5EBEC7D5BD14F71427D1E84F3DD0314C0F7B2291E5B200AC8C7C3B925 DUP5 PUSH1 0x40 MLOAD PUSH2 0x9E1 SWAP2 SWAP1 PUSH2 0x1573 JUMP JUMPDEST PUSH1 0x40 MLOAD DUP1 SWAP2 SUB SWAP1 LOG3 PUSH1 0x1 SWAP1 POP SWAP3 SWAP2 POP POP JUMP JUMPDEST PUSH0 PUSH2 0x9FE DUP4 DUP4 PUSH2 0xFE2 JUMP JUMPDEST PUSH0 PUSH2 0xA08 DUP4 PUSH2 0x10D2 JUMP JUMPDEST SWAP1 POP DUP1 PUSH1 0x3 PUSH0 CALLER PUSH20 0xFFFFFFFFFFFFFFFFFFFFFFFFFFFFFFFFFFFFFFFF AND PUSH20 0xFFFFFFFFFFFFFFFFFFFFFFFFFFFFFFFFFFFFFFFF AND DUP2 MSTORE PUSH1 0x20 ADD SWAP1 DUP2 MSTORE PUSH1 0x20 ADD PUSH0 KECCAK256 SLOAD LT ISZERO PUSH2 0xA8A JUMPI PUSH1 0x40 MLOAD PUSH32 0x8C379A000000000000000000000000000000000000000000000000000000000 DUP2 MSTORE PUSH1 0x4 ADD PUSH2 0xA81 SWAP1 PUSH2 0x177A JUMP JUMPDEST PUSH1 0x40 MLOAD DUP1 SWAP2 SUB SWAP1 REVERT JUMPDEST PUSH0 DUP5 MLOAD SWAP1 POP PUSH0 PUSH0 SWAP1 POP JUMPDEST DUP2 DUP2 LT ISZERO PUSH2 0xB5E JUMPI PUSH2 0xAF5 DUP7 DUP3 DUP2 MLOAD DUP2 LT PUSH2 0xAB2 JUMPI PUSH2 0xAB1 PUSH2 0x1798 JUMP JUMPDEST JUMPDEST PUSH1 0x20 MUL PUSH1 0x20 ADD ADD MLOAD PUSH1 0x40 MLOAD DUP1 PUSH1 0x40 ADD PUSH1 0x40 MSTORE DUP1 PUSH1 0xF DUP2 MSTORE PUSH1 0x20 ADD PUSH32 0x496E76616C696420616464726573730000000000000000000000000000000000 DUP2 MSTORE POP PUSH2 0xF1F JUMP JUMPDEST PUSH0 DUP6 DUP3 DUP2 MLOAD DUP2 LT PUSH2 0xB09 JUMPI PUSH2 0xB08 PUSH2 0x1798 JUMP JUMPDEST JUMPDEST PUSH1 0x20 MUL PUSH1 0x20 ADD ADD MLOAD GT PUSH2 0xB51 JUMPI PUSH1 0x40 MLOAD PUSH32 0x8C379A000000000000000000000000000000000000000000000000000000000 DUP2 MSTORE PUSH1 0x4 ADD PUSH2 0xB48 SWAP1 PUSH2 0x180F JUMP JUMPDEST PUSH1 0x40 MLOAD DUP1 SWAP2 SUB SWAP1 REVERT JUMPDEST DUP1 DUP1 PUSH1 0x1 ADD SWAP2 POP POP PUSH2 0xA94 JUMP JUMPDEST POP PUSH0 PUSH0 SWAP1 POP JUMPDEST DUP2 DUP2 LT ISZERO PUSH2 0xD0B JUMPI PUSH0 DUP6 DUP3 DUP2 MLOAD DUP2 LT PUSH2 0xB80 JUMPI PUSH2 0xB7F PUSH2 0x1798 JUMP JUMPDEST JUMPDEST PUSH1 0x20 MUL PUSH1 0x20 ADD ADD MLOAD SWAP1 POP DUP1 PUSH1 0x3 PUSH0 CALLER PUSH20 0xFFFFFFFFFFFFFFFFFFFFFFFFFFFFFFFFFFFFFFFF AND PUSH20 0xFFFFFFFFFFFFFFFFFFFFFFFFFFFFFFFFFFFFFFFF AND DUP2 MSTORE PUSH1 0x20 ADD SWAP1 DUP2 MSTORE PUSH1 0x20 ADD PUSH0 KECCAK256 PUSH0 DUP3 DUP3 SLOAD PUSH2 0xBD6 SWAP2 SWAP1 PUSH2 0x15F7 JUMP JUMPDEST SWAP3 POP POP DUP2 SWAP1 SSTORE POP DUP6 DUP3 DUP2 MLOAD DUP2 LT PUSH2 0xBF0 JUMPI PUSH2 0xBEF PUSH2 0x1798 JUMP JUMPDEST JUMPDEST PUSH1 0x20 MUL PUSH1 0x20 ADD ADD MLOAD PUSH1 0x3 PUSH0 DUP10 DUP6 DUP2 MLOAD DUP2 LT PUSH2 0xC0E JUMPI PUSH2 0xC0D PUSH2 0x1798 JUMP JUMPDEST JUMPDEST PUSH1 0x20 MUL PUSH1 0x20 ADD ADD MLOAD PUSH20 0xFFFFFFFFFFFFFFFFFFFFFFFFFFFFFFFFFFFFFFFF AND PUSH20 0xFFFFFFFFFFFFFFFFFFFFFFFFFFFFFFFFFFFFFFFF AND DUP2 MSTORE PUSH1 0x20 ADD SWAP1 DUP2 MSTORE PUSH1 0x20 ADD PUSH0 KECCAK256 PUSH0 DUP3 DUP3 SLOAD PUSH2 0xC5D SWAP2 SWAP1 PUSH2 0x162A JUMP JUMPDEST SWAP3 POP POP DUP2 SWAP1 SSTORE POP DUP7 DUP3 DUP2 MLOAD DUP2 LT PUSH2 0xC77 JUMPI PUSH2 0xC76 PUSH2 0x1798 JUMP JUMPDEST JUMPDEST PUSH1 0x20 MUL PUSH1 0x20 ADD ADD MLOAD PUSH20 0xFFFFFFFFFFFFFFFFFFFFFFFFFFFFFFFFFFFFFFFF AND CALLER PUSH20 0xFFFFFFFFFFFFFFFFFFFFFFFFFFFFFFFFFFFFFFFF AND PUSH32 0xDDF252AD1BE2C89B69C2B068FC378DAA952BA7F163C4A11628F55A4DF523B3EF DUP9 DUP6 DUP2 MLOAD DUP2 LT PUSH2 0xCE0 JUMPI PUSH2 0xCDF PUSH2 0x1798 JUMP JUMPDEST JUMPDEST PUSH1 0x20 MUL PUSH1 0x20 ADD ADD MLOAD PUSH1 0x40 MLOAD PUSH2 0xCF5 SWAP2 SWAP1 PUSH2 0x1573 JUMP JUMPDEST PUSH1 0x40 MLOAD DUP1 SWAP2 SUB SWAP1 LOG3 POP DUP1 DUP1 PUSH1 0x1 ADD SWAP2 POP POP PUSH2 0xB64 JUMP JUMPDEST POP PUSH1 0x1 SWAP3 POP POP POP SWAP3 SWAP2 POP POP JUMP JUMPDEST PUSH0 PUSH2 0xD58 DUP4 PUSH1 0x40 MLOAD DUP1 PUSH1 0x40 ADD PUSH1 0x40 MSTORE DUP1 PUSH1 0x18 DUP2 MSTORE PUSH1 0x20 ADD PUSH32 0x546F207472616E73666572207A65726F20616464726565730000000000000000 DUP2 MSTORE POP PUSH2 0xF1F JUMP JUMPDEST PUSH2 0xDD5 PUSH1 0x3 PUSH0 CALLER PUSH20 0xFFFFFFFFFFFFFFFFFFFFFFFFFFFFFFFFFFFFFFFF AND PUSH20 0xFFFFFFFFFFFFFFFFFFFFFFFFFFFFFFFFFFFFFFFF AND DUP2 MSTORE PUSH1 0x20 ADD SWAP1 DUP2 MSTORE PUSH1 0x20 ADD PUSH0 KECCAK256 SLOAD DUP4 PUSH1 0x40 MLOAD DUP1 PUSH1 0x40 ADD PUSH1 0x40 MSTORE DUP1 PUSH1 0x14 DUP2 MSTORE PUSH1 0x20 ADD PUSH32 0x496E73756666696369656E742062616C616E6365000000000000000000000000 DUP2 MSTORE POP PUSH2 0xF96 JUMP JUMPDEST DUP2 PUSH1 0x3 PUSH0 CALLER PUSH20 0xFFFFFFFFFFFFFFFFFFFFFFFFFFFFFFFFFFFFFFFF AND PUSH20 0xFFFFFFFFFFFFFFFFFFFFFFFFFFFFFFFFFFFFFFFF AND DUP2 MSTORE PUSH1 0x20 ADD SWAP1 DUP2 MSTORE PUSH1 0x20 ADD PUSH0 KECCAK256 PUSH0 DUP3 DUP3 SLOAD PUSH2 0xE21 SWAP2 SWAP1 PUSH2 0x15F7 JUMP JUMPDEST SWAP3 POP POP DUP2 SWAP1 SSTORE POP DUP2 PUSH1 0x3 PUSH0 DUP6 PUSH20 0xFFFFFFFFFFFFFFFFFFFFFFFFFFFFFFFFFFFFFFFF AND PUSH20 0xFFFFFFFFFFFFFFFFFFFFFFFFFFFFFFFFFFFFFFFF AND DUP2 MSTORE PUSH1 0x20 ADD SWAP1 DUP2 MSTORE PUSH1 0x20 ADD PUSH0 KECCAK256 PUSH0 DUP3 DUP3 SLOAD PUSH2 0xE74 SWAP2 SWAP1 PUSH2 0x162A JUMP JUMPDEST SWAP3 POP POP DUP2 SWAP1 SSTORE POP DUP3 PUSH20 0xFFFFFFFFFFFFFFFFFFFFFFFFFFFFFFFFFFFFFFFF AND CALLER PUSH20 0xFFFFFFFFFFFFFFFFFFFFFFFFFFFFFFFFFFFFFFFF AND PUSH32 0xDDF252AD1BE2C89B69C2B068FC378DAA952BA7F163C4A11628F55A4DF523B3EF DUP5 PUSH1 0x40 MLOAD PUSH2 0xED8 SWAP2 SWAP1 PUSH2 0x1573 JUMP JUMPDEST PUSH1 0x40 MLOAD DUP1 SWAP2 SUB SWAP1 LOG3 PUSH1 0x1 SWAP1 POP SWAP3 SWAP2 POP POP JUMP JUMPDEST PUSH1 0x3 PUSH1 0x20 MSTORE DUP1 PUSH0 MSTORE PUSH1 0x40 PUSH0 KECCAK256 PUSH0 SWAP2 POP SWAP1 POP SLOAD DUP2 JUMP JUMPDEST PUSH1 0x4 PUSH1 0x20 MSTORE DUP2 PUSH0 MSTORE PUSH1 0x40 PUSH0 KECCAK256 PUSH1 0x20 MSTORE DUP1 PUSH0 MSTORE PUSH1 0x40 PUSH0 KECCAK256 PUSH0 SWAP2 POP SWAP2 POP POP SLOAD DUP2 JUMP JUMPDEST PUSH0 PUSH20 0xFFFFFFFFFFFFFFFFFFFFFFFFFFFFFFFFFFFFFFFF AND DUP3 PUSH20 0xFFFFFFFFFFFFFFFFFFFFFFFFFFFFFFFFFFFFFFFF AND EQ ISZERO DUP2 SWAP1 PUSH2 0xF91 JUMPI PUSH1 0x40 MLOAD PUSH32 0x8C379A000000000000000000000000000000000000000000000000000000000 DUP2 MSTORE PUSH1 0x4 ADD PUSH2 0xF88 SWAP2 SWAP1 PUSH2 0x187D JUMP JUMPDEST PUSH1 0x40 MLOAD DUP1 SWAP2 SUB SWAP1 REVERT JUMPDEST POP POP POP JUMP JUMPDEST DUP2 DUP4 LT ISZERO DUP2 SWAP1 PUSH2 0xFDC JUMPI PUSH1 0x40 MLOAD PUSH32 0x8C379A000000000000000000000000000000000000000000000000000000000 DUP2 MSTORE PUSH1 0x4 ADD PUSH2 0xFD3 SWAP2 SWAP1 PUSH2 0x187D JUMP JUMPDEST PUSH1 0x40 MLOAD DUP1 SWAP2 SUB SWAP1 REVERT JUMPDEST POP POP POP POP JUMP JUMPDEST PUSH0 DUP3 MLOAD SWAP1 POP PUSH0 DUP3 MLOAD SWAP1 POP DUP2 PUSH0 LT DUP1 ISZERO PUSH2 0xFFC JUMPI POP PUSH1 0xA DUP3 GT ISZERO JUMPDEST PUSH2 0x103B JUMPI PUSH1 0x40 MLOAD PUSH32 0x8C379A000000000000000000000000000000000000000000000000000000000 DUP2 MSTORE PUSH1 0x4 ADD PUSH2 0x1032 SWAP1 PUSH2 0x18E7 JUMP JUMPDEST PUSH1 0x40 MLOAD DUP1 SWAP2 SUB SWAP1 REVERT JUMPDEST DUP1 PUSH0 LT DUP1 ISZERO PUSH2 0x104B JUMPI POP PUSH1 0xA DUP2 GT ISZERO JUMPDEST PUSH2 0x108A JUMPI PUSH1 0x40 MLOAD PUSH32 0x8C379A000000000000000000000000000000000000000000000000000000000 DUP2 MSTORE PUSH1 0x4 ADD PUSH2 0x1081 SWAP1 PUSH2 0x1975 JUMP JUMPDEST PUSH1 0x40 MLOAD DUP1 SWAP2 SUB SWAP1 REVERT JUMPDEST DUP1 DUP3 EQ PUSH2 0x10CC JUMPI PUSH1 0x40 MLOAD PUSH32 0x8C379A000000000000000000000000000000000000000000000000000000000 DUP2 MSTORE PUSH1 0x4 ADD PUSH2 0x10C3 SWAP1 PUSH2 0x1A03 JUMP JUMPDEST PUSH1 0x40 MLOAD DUP1 SWAP2 SUB SWAP1 REVERT JUMPDEST POP POP POP POP JUMP JUMPDEST PUSH0 PUSH0 PUSH0 SWAP1 POP PUSH0 DUP4 MLOAD SWAP1 POP PUSH0 PUSH0 SWAP1 POP JUMPDEST DUP2 DUP2 LT ISZERO PUSH2 0x111E JUMPI DUP5 DUP2 DUP2 MLOAD DUP2 LT PUSH2 0x10FC JUMPI PUSH2 0x10FB PUSH2 0x1798 JUMP JUMPDEST JUMPDEST PUSH1 0x20 MUL PUSH1 0x20 ADD ADD MLOAD DUP4 PUSH2 0x110F SWAP2 SWAP1 PUSH2 0x162A JUMP JUMPDEST SWAP3 POP DUP1 DUP1 PUSH1 0x1 ADD SWAP2 POP POP PUSH2 0x10E1 JUMP JUMPDEST POP DUP2 SWAP3 POP POP POP SWAP2 SWAP1 POP JUMP JUMPDEST PUSH0 PUSH1 0x40 MLOAD SWAP1 POP SWAP1 JUMP JUMPDEST PUSH0 PUSH0 REVERT JUMPDEST PUSH0 PUSH0 REVERT JUMPDEST PUSH0 PUSH20 0xFFFFFFFFFFFFFFFFFFFFFFFFFFFFFFFFFFFFFFFF DUP3 AND SWAP1 POP SWAP2 SWAP1 POP JUMP JUMPDEST PUSH0 PUSH2 0x1163 DUP3 PUSH2 0x113A JUMP JUMPDEST SWAP1 POP SWAP2 SWAP1 POP JUMP JUMPDEST PUSH2 0x1173 DUP2 PUSH2 0x1159 JUMP JUMPDEST DUP2 EQ PUSH2 0x117D JUMPI PUSH0 PUSH0 REVERT JUMPDEST POP JUMP JUMPDEST PUSH0 DUP2 CALLDATALOAD SWAP1 POP PUSH2 0x118E DUP2 PUSH2 0x116A JUMP JUMPDEST SWAP3 SWAP2 POP POP JUMP JUMPDEST PUSH0 DUP2 SWAP1 POP SWAP2 SWAP1 POP JUMP JUMPDEST PUSH2 0x11A6 DUP2 PUSH2 0x1194 JUMP JUMPDEST DUP2 EQ PUSH2 0x11B0 JUMPI PUSH0 PUSH0 REVERT JUMPDEST POP JUMP JUMPDEST PUSH0 DUP2 CALLDATALOAD SWAP1 POP PUSH2 0x11C1 DUP2 PUSH2 0x119D JUMP JUMPDEST SWAP3 SWAP2 POP POP JUMP JUMPDEST PUSH0 PUSH0 PUSH0 PUSH1 0x60 DUP5 DUP7 SUB SLT ISZERO PUSH2 0x11DE JUMPI PUSH2 0x11DD PUSH2 0x1132 JUMP JUMPDEST JUMPDEST PUSH0 PUSH2 0x11EB DUP7 DUP3 DUP8 ADD PUSH2 0x1180 JUMP JUMPDEST SWAP4 POP POP PUSH1 0x20 PUSH2 0x11FC DUP7 DUP3 DUP8 ADD PUSH2 0x1180 JUMP JUMPDEST SWAP3 POP POP PUSH1 0x40 PUSH2 0x120D DUP7 DUP3 DUP8 ADD PUSH2 0x11B3 JUMP JUMPDEST SWAP2 POP POP SWAP3 POP SWAP3 POP SWAP3 JUMP JUMPDEST PUSH0 DUP2 ISZERO ISZERO SWAP1 POP SWAP2 SWAP1 POP JUMP JUMPDEST PUSH2 0x122B DUP2 PUSH2 0x1217 JUMP JUMPDEST DUP3 MSTORE POP POP JUMP JUMPDEST PUSH0 PUSH1 0x20 DUP3 ADD SWAP1 POP PUSH2 0x1244 PUSH0 DUP4 ADD DUP5 PUSH2 0x1222 JUMP JUMPDEST SWAP3 SWAP2 POP POP JUMP JUMPDEST PUSH0 PUSH0 PUSH1 0x40 DUP4 DUP6 SUB SLT ISZERO PUSH2 0x1260 JUMPI PUSH2 0x125F PUSH2 0x1132 JUMP JUMPDEST JUMPDEST PUSH0 PUSH2 0x126D DUP6 DUP3 DUP7 ADD PUSH2 0x1180 JUMP JUMPDEST SWAP3 POP POP PUSH1 0x20 PUSH2 0x127E DUP6 DUP3 DUP7 ADD PUSH2 0x11B3 JUMP JUMPDEST SWAP2 POP POP SWAP3 POP SWAP3 SWAP1 POP JUMP JUMPDEST PUSH0 PUSH1 0x20 DUP3 DUP5 SUB SLT ISZERO PUSH2 0x129D JUMPI PUSH2 0x129C PUSH2 0x1132 JUMP JUMPDEST JUMPDEST PUSH0 PUSH2 0x12AA DUP5 DUP3 DUP6 ADD PUSH2 0x11B3 JUMP JUMPDEST SWAP2 POP POP SWAP3 SWAP2 POP POP JUMP JUMPDEST PUSH0 PUSH0 REVERT JUMPDEST PUSH0 PUSH1 0x1F NOT PUSH1 0x1F DUP4 ADD AND SWAP1 POP SWAP2 SWAP1 POP JUMP JUMPDEST PUSH32 0x4E487B7100000000000000000000000000000000000000000000000000000000 PUSH0 MSTORE PUSH1 0x41 PUSH1 0x4 MSTORE PUSH1 0x24 PUSH0 REVERT JUMPDEST PUSH2 0x12FD DUP3 PUSH2 0x12B7 JUMP JUMPDEST DUP2 ADD DUP2 DUP2 LT PUSH8 0xFFFFFFFFFFFFFFFF DUP3 GT OR ISZERO PUSH2 0x131C JUMPI PUSH2 0x131B PUSH2 0x12C7 JUMP JUMPDEST JUMPDEST DUP1 PUSH1 0x40 MSTORE POP POP POP JUMP JUMPDEST PUSH0 PUSH2 0x132E PUSH2 0x1129 JUMP JUMPDEST SWAP1 POP PUSH2 0x133A DUP3 DUP3 PUSH2 0x12F4 JUMP JUMPDEST SWAP2 SWAP1 POP JUMP JUMPDEST PUSH0 PUSH8 0xFFFFFFFFFFFFFFFF DUP3 GT ISZERO PUSH2 0x1359 JUMPI PUSH2 0x1358 PUSH2 0x12C7 JUMP JUMPDEST JUMPDEST PUSH1 0x20 DUP3 MUL SWAP1 POP PUSH1 0x20 DUP2 ADD SWAP1 POP SWAP2 SWAP1 POP JUMP JUMPDEST PUSH0 PUSH0 REVERT JUMPDEST PUSH0 PUSH2 0x1380 PUSH2 0x137B DUP5 PUSH2 0x133F JUMP JUMPDEST PUSH2 0x1325 JUMP JUMPDEST SWAP1 POP DUP1 DUP4 DUP3 MSTORE PUSH1 0x20 DUP3 ADD SWAP1 POP PUSH1 0x20 DUP5 MUL DUP4 ADD DUP6 DUP2 GT ISZERO PUSH2 0x13A3 JUMPI PUSH2 0x13A2 PUSH2 0x136A JUMP JUMPDEST JUMPDEST DUP4 JUMPDEST DUP2 DUP2 LT ISZERO PUSH2 0x13CC JUMPI DUP1 PUSH2 0x13B8 DUP9 DUP3 PUSH2 0x1180 JUMP JUMPDEST DUP5 MSTORE PUSH1 0x20 DUP5 ADD SWAP4 POP POP PUSH1 0x20 DUP2 ADD SWAP1 POP PUSH2 0x13A5 JUMP JUMPDEST POP POP POP SWAP4 SWAP3 POP POP POP JUMP JUMPDEST PUSH0 DUP3 PUSH1 0x1F DUP4 ADD SLT PUSH2 0x13EA JUMPI PUSH2 0x13E9 PUSH2 0x12B3 JUMP JUMPDEST JUMPDEST DUP2 CALLDATALOAD PUSH2 0x13FA DUP5 DUP3 PUSH1 0x20 DUP7 ADD PUSH2 0x136E JUMP JUMPDEST SWAP2 POP POP SWAP3 SWAP2 POP POP JUMP JUMPDEST PUSH0 PUSH8 0xFFFFFFFFFFFFFFFF DUP3 GT ISZERO PUSH2 0x141D JUMPI PUSH2 0x141C PUSH2 0x12C7 JUMP JUMPDEST JUMPDEST PUSH1 0x20 DUP3 MUL SWAP1 POP PUSH1 0x20 DUP2 ADD SWAP1 POP SWAP2 SWAP1 POP JUMP JUMPDEST PUSH0 PUSH2 0x1440 PUSH2 0x143B DUP5 PUSH2 0x1403 JUMP JUMPDEST PUSH2 0x1325 JUMP JUMPDEST SWAP1 POP DUP1 DUP4 DUP3 MSTORE PUSH1 0x20 DUP3 ADD SWAP1 POP PUSH1 0x20 DUP5 MUL DUP4 ADD DUP6 DUP2 GT ISZERO PUSH2 0x1463 JUMPI PUSH2 0x1462 PUSH2 0x136A JUMP JUMPDEST JUMPDEST DUP4 JUMPDEST DUP2 DUP2 LT ISZERO PUSH2 0x148C JUMPI DUP1 PUSH2 0x1478 DUP9 DUP3 PUSH2 0x11B3 JUMP JUMPDEST DUP5 MSTORE PUSH1 0x20 DUP5 ADD SWAP4 POP POP PUSH1 0x20 DUP2 ADD SWAP1 POP PUSH2 0x1465 JUMP JUMPDEST POP POP POP SWAP4 SWAP3 POP POP POP JUMP JUMPDEST PUSH0 DUP3 PUSH1 0x1F DUP4 ADD SLT PUSH2 0x14AA JUMPI PUSH2 0x14A9 PUSH2 0x12B3 JUMP JUMPDEST JUMPDEST DUP2 CALLDATALOAD PUSH2 0x14BA DUP5 DUP3 PUSH1 0x20 DUP7 ADD PUSH2 0x142E JUMP JUMPDEST SWAP2 POP POP SWAP3 SWAP2 POP POP JUMP JUMPDEST PUSH0 PUSH0 PUSH1 0x40 DUP4 DUP6 SUB SLT ISZERO PUSH2 0x14D9 JUMPI PUSH2 0x14D8 PUSH2 0x1132 JUMP JUMPDEST JUMPDEST PUSH0 DUP4 ADD CALLDATALOAD PUSH8 0xFFFFFFFFFFFFFFFF DUP2 GT ISZERO PUSH2 0x14F6 JUMPI PUSH2 0x14F5 PUSH2 0x1136 JUMP JUMPDEST JUMPDEST PUSH2 0x1502 DUP6 DUP3 DUP7 ADD PUSH2 0x13D6 JUMP JUMPDEST SWAP3 POP POP PUSH1 0x20 DUP4 ADD CALLDATALOAD PUSH8 0xFFFFFFFFFFFFFFFF DUP2 GT ISZERO PUSH2 0x1523 JUMPI PUSH2 0x1522 PUSH2 0x1136 JUMP JUMPDEST JUMPDEST PUSH2 0x152F DUP6 DUP3 DUP7 ADD PUSH2 0x1496 JUMP JUMPDEST SWAP2 POP POP SWAP3 POP SWAP3 SWAP1 POP JUMP JUMPDEST PUSH0 PUSH1 0x20 DUP3 DUP5 SUB SLT ISZERO PUSH2 0x154E JUMPI PUSH2 0x154D PUSH2 0x1132 JUMP JUMPDEST JUMPDEST PUSH0 PUSH2 0x155B DUP5 DUP3 DUP6 ADD PUSH2 0x1180 JUMP JUMPDEST SWAP2 POP POP SWAP3 SWAP2 POP POP JUMP JUMPDEST PUSH2 0x156D DUP2 PUSH2 0x1194 JUMP JUMPDEST DUP3 MSTORE POP POP JUMP JUMPDEST PUSH0 PUSH1 0x20 DUP3 ADD SWAP1 POP PUSH2 0x1586 PUSH0 DUP4 ADD DUP5 PUSH2 0x1564 JUMP JUMPDEST SWAP3 SWAP2 POP POP JUMP JUMPDEST PUSH0 PUSH0 PUSH1 0x40 DUP4 DUP6 SUB SLT ISZERO PUSH2 0x15A2 JUMPI PUSH2 0x15A1 PUSH2 0x1132 JUMP JUMPDEST JUMPDEST PUSH0 PUSH2 0x15AF DUP6 DUP3 DUP7 ADD PUSH2 0x1180 JUMP JUMPDEST SWAP3 POP POP PUSH1 0x20 PUSH2 0x15C0 DUP6 DUP3 DUP7 ADD PUSH2 0x1180 JUMP JUMPDEST SWAP2 POP POP SWAP3 POP SWAP3 SWAP1 POP JUMP JUMPDEST PUSH32 0x4E487B7100000000000000000000000000000000000000000000000000000000 PUSH0 MSTORE PUSH1 0x11 PUSH1 0x4 MSTORE PUSH1 0x24 PUSH0 REVERT JUMPDEST PUSH0 PUSH2 0x1601 DUP3 PUSH2 0x1194 JUMP JUMPDEST SWAP2 POP PUSH2 0x160C DUP4 PUSH2 0x1194 JUMP JUMPDEST SWAP3 POP DUP3 DUP3 SUB SWAP1 POP DUP2 DUP2 GT ISZERO PUSH2 0x1624 JUMPI PUSH2 0x1623 PUSH2 0x15CA JUMP JUMPDEST JUMPDEST SWAP3 SWAP2 POP POP JUMP JUMPDEST PUSH0 PUSH2 0x1634 DUP3 PUSH2 0x1194 JUMP JUMPDEST SWAP2 POP PUSH2 0x163F DUP4 PUSH2 0x1194 JUMP JUMPDEST SWAP3 POP DUP3 DUP3 ADD SWAP1 POP DUP1 DUP3 GT ISZERO PUSH2 0x1657 JUMPI PUSH2 0x1656 PUSH2 0x15CA JUMP JUMPDEST JUMPDEST SWAP3 SWAP2 POP POP JUMP JUMPDEST PUSH0 DUP3 DUP3 MSTORE PUSH1 0x20 DUP3 ADD SWAP1 POP SWAP3 SWAP2 POP POP JUMP JUMPDEST PUSH32 0x6F6E6C79206F776E657220657865637574650000000000000000000000000000 PUSH0 DUP3 ADD MSTORE POP JUMP JUMPDEST PUSH0 PUSH2 0x16A1 PUSH1 0x12 DUP4 PUSH2 0x165D JUMP JUMPDEST SWAP2 POP PUSH2 0x16AC DUP3 PUSH2 0x166D JUMP JUMPDEST PUSH1 0x20 DUP3 ADD SWAP1 POP SWAP2 SWAP1 POP JUMP JUMPDEST PUSH0 PUSH1 0x20 DUP3 ADD SWAP1 POP DUP2 DUP2 SUB PUSH0 DUP4 ADD MSTORE PUSH2 0x16CE DUP2 PUSH2 0x1695 JUMP JUMPDEST SWAP1 POP SWAP2 SWAP1 POP JUMP JUMPDEST PUSH0 DUP2 SWAP1 POP SWAP2 SWAP1 POP JUMP JUMPDEST PUSH0 DUP2 SWAP1 POP SWAP2 SWAP1 POP JUMP JUMPDEST PUSH0 PUSH2 0x1701 PUSH2 0x16FC PUSH2 0x16F7 DUP5 PUSH2 0x16D5 JUMP JUMPDEST PUSH2 0x16DE JUMP JUMPDEST PUSH2 0x1194 JUMP JUMPDEST SWAP1 POP SWAP2 SWAP1 POP JUMP JUMPDEST PUSH2 0x1711 DUP2 PUSH2 0x16E7 JUMP JUMPDEST DUP3 MSTORE POP POP JUMP JUMPDEST PUSH0 PUSH1 0x20 DUP3 ADD SWAP1 POP PUSH2 0x172A PUSH0 DUP4 ADD DUP5 PUSH2 0x1708 JUMP JUMPDEST SWAP3 SWAP2 POP POP JUMP JUMPDEST PUSH32 0x496E73756666696369656E742062616C616E6365000000000000000000000000 PUSH0 DUP3 ADD MSTORE POP JUMP JUMPDEST PUSH0 PUSH2 0x1764 PUSH1 0x14 DUP4 PUSH2 0x165D JUMP JUMPDEST SWAP2 POP PUSH2 0x176F DUP3 PUSH2 0x1730 JUMP JUMPDEST PUSH1 0x20 DUP3 ADD SWAP1 POP SWAP2 SWAP1 POP JUMP JUMPDEST PUSH0 PUSH1 0x20 DUP3 ADD SWAP1 POP DUP2 DUP2 SUB PUSH0 DUP4 ADD MSTORE PUSH2 0x1791 DUP2 PUSH2 0x1758 JUMP JUMPDEST SWAP1 POP SWAP2 SWAP1 POP JUMP JUMPDEST PUSH32 0x4E487B7100000000000000000000000000000000000000000000000000000000 PUSH0 MSTORE PUSH1 0x32 PUSH1 0x4 MSTORE PUSH1 0x24 PUSH0 REVERT JUMPDEST PUSH32 0x496E76616C696420616D6F756E74000000000000000000000000000000000000 PUSH0 DUP3 ADD MSTORE POP JUMP JUMPDEST PUSH0 PUSH2 0x17F9 PUSH1 0xE DUP4 PUSH2 0x165D JUMP JUMPDEST SWAP2 POP PUSH2 0x1804 DUP3 PUSH2 0x17C5 JUMP JUMPDEST PUSH1 0x20 DUP3 ADD SWAP1 POP SWAP2 SWAP1 POP JUMP JUMPDEST PUSH0 PUSH1 0x20 DUP3 ADD SWAP1 POP DUP2 DUP2 SUB PUSH0 DUP4 ADD MSTORE PUSH2 0x1826 DUP2 PUSH2 0x17ED JUMP JUMPDEST SWAP1 POP SWAP2 SWAP1 POP JUMP JUMPDEST PUSH0 DUP2 MLOAD SWAP1 POP SWAP2 SWAP1 POP JUMP JUMPDEST DUP3 DUP2 DUP4 MCOPY PUSH0 DUP4 DUP4 ADD MSTORE POP POP POP JUMP JUMPDEST PUSH0 PUSH2 0x184F DUP3 PUSH2 0x182D JUMP JUMPDEST PUSH2 0x1859 DUP2 DUP6 PUSH2 0x165D JUMP JUMPDEST SWAP4 POP PUSH2 0x1869 DUP2 DUP6 PUSH1 0x20 DUP7 ADD PUSH2 0x1837 JUMP JUMPDEST PUSH2 0x1872 DUP2 PUSH2 0x12B7 JUMP JUMPDEST DUP5 ADD SWAP2 POP POP SWAP3 SWAP2 POP POP JUMP JUMPDEST PUSH0 PUSH1 0x20 DUP3 ADD SWAP1 POP DUP2 DUP2 SUB PUSH0 DUP4 ADD MSTORE PUSH2 0x1895 DUP2 DUP5 PUSH2 0x1845 JUMP JUMPDEST SWAP1 POP SWAP3 SWAP2 POP POP JUMP JUMPDEST PUSH32 0x5F616464417272206E6F7420656D707479206F72206578636565642074656E00 PUSH0 DUP3 ADD MSTORE POP JUMP JUMPDEST PUSH0 PUSH2 0x18D1 PUSH1 0x1F DUP4 PUSH2 0x165D JUMP JUMPDEST SWAP2 POP PUSH2 0x18DC DUP3 PUSH2 0x189D JUMP JUMPDEST PUSH1 0x20 DUP3 ADD SWAP1 POP SWAP2 SWAP1 POP JUMP JUMPDEST PUSH0 PUSH1 0x20 DUP3 ADD SWAP1 POP DUP2 DUP2 SUB PUSH0 DUP4 ADD MSTORE PUSH2 0x18FE DUP2 PUSH2 0x18C5 JUMP JUMPDEST SWAP1 POP SWAP2 SWAP1 POP JUMP JUMPDEST PUSH32 0x5F616D6F756E74417272206E6F7420656D707479206F72206578636565642074 PUSH0 DUP3 ADD MSTORE PUSH32 0x656E000000000000000000000000000000000000000000000000000000000000 PUSH1 0x20 DUP3 ADD MSTORE POP JUMP JUMPDEST PUSH0 PUSH2 0x195F PUSH1 0x22 DUP4 PUSH2 0x165D JUMP JUMPDEST SWAP2 POP PUSH2 0x196A DUP3 PUSH2 0x1905 JUMP JUMPDEST PUSH1 0x40 DUP3 ADD SWAP1 POP SWAP2 SWAP1 POP JUMP JUMPDEST PUSH0 PUSH1 0x20 DUP3 ADD SWAP1 POP DUP2 DUP2 SUB PUSH0 DUP4 ADD MSTORE PUSH2 0x198C DUP2 PUSH2 0x1953 JUMP JUMPDEST SWAP1 POP SWAP2 SWAP1 POP JUMP JUMPDEST PUSH32 0x5F616464417272206C6567746820616E64205F616D6F756E74417272206C6567 PUSH0 DUP3 ADD MSTORE PUSH32 0x7468206D69736D61746368000000000000000000000000000000000000000000 PUSH1 0x20 DUP3 ADD MSTORE POP JUMP JUMPDEST PUSH0 PUSH2 0x19ED PUSH1 0x2B DUP4 PUSH2 0x165D JUMP JUMPDEST SWAP2 POP PUSH2 0x19F8 DUP3 PUSH2 0x1993 JUMP JUMPDEST PUSH1 0x40 DUP3 ADD SWAP1 POP SWAP2 SWAP1 POP JUMP JUMPDEST PUSH0 PUSH1 0x20 DUP3 ADD SWAP1 POP DUP2 DUP2 SUB PUSH0 DUP4 ADD MSTORE PUSH2 0x1A1A DUP2 PUSH2 0x19E1 JUMP JUMPDEST SWAP1 POP SWAP2 SWAP1 POP JUMP INVALID LOG2 PUSH5 0x6970667358 0x22 SLT KECCAK256 RETURNCONTRACT 0xF7 0x29 0x2A 0xC DIV TIMESTAMP 0x26 EXTDELEGATECALL DUP7 LOG2 0x24 0x29 SWAP1 0xCF DUP13 SWAP12 0xB5 0xC9 DUP13 0xD PUSH18 0x69D45E30F50383B36E6864736F6C63430008 0x1E STOP CALLER "
				},
				"gasEstimates": {
					"creation": {
						"codeDepositCost": "1348600",
						"executionCost": "infinite",
						"totalCost": "infinite"
					},
					"external": {
						"allowance(address,address)": "infinite",
						"approval(address,uint256)": "infinite",
						"balanceMp(address)": "2846",
						"batchTransfer(address[],uint256[])": "infinite",
						"burn(uint256)": "infinite",
						"mint(address,uint256)": "infinite",
						"transfer(address,uint256)": "infinite",
						"transferFrom(address,address,uint256)": "infinite"
					},
					"internal": {
						"checkAddress(address,string memory)": "infinite",
						"checkBalance(uint256,uint256,string memory)": "infinite",
						"checkBatch(address[] memory,uint256[] memory)": "infinite",
						"sumAmountArray(uint256[] memory)": "infinite"
					}
				},
				"methodIdentifiers": {
					"allowance(address,address)": "dd62ed3e",
					"approval(address,uint256)": "75247a58",
					"balanceMp(address)": "ac9ff07b",
					"batchTransfer(address[],uint256[])": "88d695b2",
					"burn(uint256)": "42966c68",
					"mint(address,uint256)": "40c10f19",
					"transfer(address,uint256)": "a9059cbb",
					"transferFrom(address,address,uint256)": "23b872dd"
				}
			},
			"storageLayout": {
				"storage": [
					{
						"astId": 3,
						"contract": "lesson/lesson05/MyTokenWork.sol:MyTokenWork",
						"label": "name",
						"offset": 0,
						"slot": "0",
						"type": "t_string_storage"
					},
					{
						"astId": 5,
						"contract": "lesson/lesson05/MyTokenWork.sol:MyTokenWork",
						"label": "symbol",
						"offset": 0,
						"slot": "1",
						"type": "t_string_storage"
					},
					{
						"astId": 10,
						"contract": "lesson/lesson05/MyTokenWork.sol:MyTokenWork",
						"label": "totalSupply",
						"offset": 0,
						"slot": "2",
						"type": "t_uint256"
					},
					{
						"astId": 14,
						"contract": "lesson/lesson05/MyTokenWork.sol:MyTokenWork",
						"label": "balanceMp",
						"offset": 0,
						"slot": "3",
						"type": "t_mapping(t_address,t_uint256)"
					},
					{
						"astId": 20,
						"contract": "lesson/lesson05/MyTokenWork.sol:MyTokenWork",
						"label": "allowance",
						"offset": 0,
						"slot": "4",
						"type": "t_mapping(t_address,t_mapping(t_address,t_uint256))"
					},
					{
						"astId": 22,
						"contract": "lesson/lesson05/MyTokenWork.sol:MyTokenWork",
						"label": "owner",
						"offset": 0,
						"slot": "5",
						"type": "t_address"
					}
				],
				"types": {
					"t_address": {
						"encoding": "inplace",
						"label": "address",
						"numberOfBytes": "20"
					},
					"t_mapping(t_address,t_mapping(t_address,t_uint256))": {
						"encoding": "mapping",
						"key": "t_address",
						"label": "mapping(address => mapping(address => uint256))",
						"numberOfBytes": "32",
						"value": "t_mapping(t_address,t_uint256)"
					},
					"t_mapping(t_address,t_uint256)": {
						"encoding": "mapping",
						"key": "t_address",
						"label": "mapping(address => uint256)",
						"numberOfBytes": "32",
						"value": "t_uint256"
					},
					"t_string_storage": {
						"encoding": "bytes",
						"label": "string",
						"numberOfBytes": "32"
					},
					"t_uint256": {
						"encoding": "inplace",
						"label": "uint256",
						"numberOfBytes": "32"
					}
				}
			},
			"userdoc": {
				"kind": "user",
				"methods": {},
				"version": 1
			}
		}
	}
}