{
	"task/task2/TokenERC20.sol": {
		"TokenERC20": {
			"abi": [
				{
					"inputs": [
						{
							"internalType": "uint256",
							"name": "_initialSupply",
							"type": "uint256"
						}
					],
					"stateMutability": "nonpayable",
					"type": "constructor"
				},
				{
					"anonymous": false,
					"inputs": [
						{
							"indexed": true,
							"internalType": "address",
							"name": "from",
							"type": "address"
						},
						{
							"indexed": true,
							"internalType": "address",
							"name": "spender",
							"type": "address"
						},
						{
							"indexed": false,
							"internalType": "uint256",
							"name": "amount",
							"type": "uint256"
						}
					],
					"name": "Approval",
					"type": "event"
				},
				{
					"anonymous": false,
					"inputs": [
						{
							"indexed": true,
							"internalType": "address",
							"name": "from",
							"type": "address"
						},
						{
							"indexed": true,
							"internalType": "address",
							"name": "to",
							"type": "address"
						},
						{
							"indexed": false,
							"internalType": "uint256",
							"name": "amount",
							"type": "uint256"
						}
					],
					"name": "Transfer",
					"type": "event"
				},
				{
					"inputs": [
						{
							"internalType": "address",
							"name": "",
							"type": "address"
						},
						{
							"internalType": "address",
							"name": "",
							"type": "address"
						}
					],
					"name": "allowance",
					"outputs": [
						{
							"internalType": "uint256",
							"name": "",
							"type": "uint256"
						}
					],
					"stateMutability": "view",
					"type": "function"
				},
				{
					"inputs": [
						{
							"internalType": "address",
							"name": "spender",
							"type": "address"
						},
						{
							"internalType": "uint256",
							"name": "amount",
							"type": "uint256"
						}
					],
					"name": "approval",
					"outputs": [
						{
							"internalType": "bool",
							"name": "",
							"type": "bool"
						}
					],
					"stateMutability": "nonpayable",
					"type": "function"
				},
				{
					"inputs": [
						{
							"internalType": "address",
							"name": "",
							"type": "address"
						}
					],
					"name": "balanceOf",
					"outputs": [
						{
							"internalType": "uint256",
							"name": "",
							"type": "uint256"
						}
					],
					"stateMutability": "view",
					"type": "function"
				},
				{
					"inputs": [
						{
							"internalType": "uint256",
							"name": "amount",
							"type": "uint256"
						}
					],
					"name": "burn",
					"outputs": [],
					"stateMutability": "nonpayable",
					"type": "function"
				},
				{
					"inputs": [
						{
							"internalType": "address",
							"name": "to",
							"type": "address"
						},
						{
							"internalType": "uint256",
							"name": "amount",
							"type": "uint256"
						}
					],
					"name": "mint",
					"outputs": [],
					"stateMutability": "nonpayable",
					"type": "function"
				},
				{
					"inputs": [],
					"name": "owner",
					"outputs": [
						{
							"internalType": "address",
							"name": "",
							"type": "address"
						}
					],
					"stateMutability": "view",
					"type": "function"
				},
				{
					"inputs": [
						{
							"internalType": "address",
							"name": "to",
							"type": "address"
						},
						{
							"internalType": "uint256",
							"name": "amount",
							"type": "uint256"
						}
					],
					"name": "transfer",
					"outputs": [
						{
							"internalType": "bool",
							"name": "",
							"type": "bool"
						}
					],
					"stateMutability": "nonpayable",
					"type": "function"
				},
				{
					"inputs": [
						{
							"internalType": "address",
							"name": "from",
							"type": "address"
						},
						{
							"internalType": "address",
							"name": "to",
							"type": "address"
						},
						{
							"internalType": "uint256",
							"name": "amount",
							"type": "uint256"
						}
					],
					"name": "transferFrom",
					"outputs": [
						{
							"internalType": "bool",
							"name": "",
							"type": "bool"
						}
					],
					"stateMutability": "nonpayable",
					"type": "function"
				}
			],
			"devdoc": {
				"kind": "dev",
				"methods": {},
				"version": 1
			},
			"evm": {
				"assembly": "    /* \"task/task2/TokenERC20.sol\":61:2987  contract TokenERC20{... */\n  mstore(0x40, 0x80)\n    /* \"task/task2/TokenERC20.sol\":87:118  string private name = \"MyToken\" */\n  mload(0x40)\n  dup1\n  0x40\n  add\n  0x40\n  mstore\n  dup1\n  0x07\n  dup2\n  mstore\n  0x20\n  add\n  0x4d79546f6b656e00000000000000000000000000000000000000000000000000\n  dup2\n  mstore\n  pop\n  0x00\n  swap1\n  dup2\n  tag_1\n  swap2\n  swap1\n  tag_2\n  jump\t// in\ntag_1:\n  pop\n    /* \"task/task2/TokenERC20.sol\":125:154  string private symbol = \"MTK\" */\n  mload(0x40)\n  dup1\n  0x40\n  add\n  0x40\n  mstore\n  dup1\n  0x03\n  dup2\n  mstore\n  0x20\n  add\n  0x4d544b0000000000000000000000000000000000000000000000000000000000\n  dup2\n  mstore\n  pop\n  0x01\n  swap1\n  dup2\n  tag_3\n  swap2\n  swap1\n  tag_2\n  jump\t// in\ntag_3:\n  pop\n    /* \"task/task2/TokenERC20.sol\":672:910  constructor(uint256 _initialSupply) {... */\n  callvalue\n  dup1\n  iszero\n  tag_4\n  jumpi\n  revert(0x00, 0x00)\ntag_4:\n  pop\n  mload(0x40)\n  sub(codesize, bytecodeSize)\n  dup1\n  bytecodeSize\n  dup4\n  codecopy\n  dup2\n  dup2\n  add\n  0x40\n  mstore\n  dup2\n  add\n  swap1\n  tag_5\n  swap2\n  swap1\n  tag_6\n  jump\t// in\ntag_5:\n    /* \"task/task2/TokenERC20.sol\":195:197  18 */\n  0x12\n    /* \"task/task2/TokenERC20.sol\":750:752  10 */\n  0x0a\n    /* \"task/task2/TokenERC20.sol\":750:764  10 ** decimals */\n  tag_9\n  swap2\n  swap1\n  tag_10\n  jump\t// in\ntag_9:\n    /* \"task/task2/TokenERC20.sol\":733:747  _initialSupply */\n  dup2\n    /* \"task/task2/TokenERC20.sol\":733:764  _initialSupply * 10 ** decimals */\n  tag_11\n  swap2\n  swap1\n  tag_12\n  jump\t// in\ntag_11:\n    /* \"task/task2/TokenERC20.sol\":719:730  totalSupply */\n  0x02\n    /* \"task/task2/TokenERC20.sol\":719:764  totalSupply = _initialSupply * 10 ** decimals */\n  dup2\n  swap1\n  sstore\n  pop\n    /* \"task/task2/TokenERC20.sol\":783:793  msg.sender */\n  caller\n    /* \"task/task2/TokenERC20.sol\":775:780  owner */\n  0x05\n  0x00\n    /* \"task/task2/TokenERC20.sol\":775:793  owner = msg.sender */\n  0x0100\n  exp\n  dup2\n  sload\n  dup2\n  0xffffffffffffffffffffffffffffffffffffffff\n  mul\n  not\n  and\n  swap1\n  dup4\n  0xffffffffffffffffffffffffffffffffffffffff\n  and\n  mul\n  or\n  swap1\n  sstore\n  pop\n    /* \"task/task2/TokenERC20.sol\":828:839  totalSupply */\n  sload(0x02)\n    /* \"task/task2/TokenERC20.sol\":804:813  balanceOf */\n  0x03\n    /* \"task/task2/TokenERC20.sol\":804:825  balanceOf[msg.sender] */\n  0x00\n    /* \"task/task2/TokenERC20.sol\":814:824  msg.sender */\n  caller\n    /* \"task/task2/TokenERC20.sol\":804:825  balanceOf[msg.sender] */\n  0xffffffffffffffffffffffffffffffffffffffff\n  and\n  0xffffffffffffffffffffffffffffffffffffffff\n  and\n  dup2\n  mstore\n  0x20\n  add\n  swap1\n  dup2\n  mstore\n  0x20\n  add\n  0x00\n  keccak256\n    /* \"task/task2/TokenERC20.sol\":804:839  balanceOf[msg.sender] = totalSupply */\n  dup2\n  swap1\n  sstore\n  pop\n    /* \"task/task2/TokenERC20.sol\":878:888  msg.sender */\n  caller\n    /* \"task/task2/TokenERC20.sol\":857:902  Transfer(address(0), msg.sender, totalSupply) */\n  0xffffffffffffffffffffffffffffffffffffffff\n  and\n    /* \"task/task2/TokenERC20.sol\":874:875  0 */\n  0x00\n    /* \"task/task2/TokenERC20.sol\":857:902  Transfer(address(0), msg.sender, totalSupply) */\n  0xffffffffffffffffffffffffffffffffffffffff\n  and\n  0xddf252ad1be2c89b69c2b068fc378daa952ba7f163c4a11628f55a4df523b3ef\n    /* \"task/task2/TokenERC20.sol\":890:901  totalSupply */\n  sload(0x02)\n    /* \"task/task2/TokenERC20.sol\":857:902  Transfer(address(0), msg.sender, totalSupply) */\n  mload(0x40)\n  tag_13\n  swap2\n  swap1\n  tag_14\n  jump\t// in\ntag_13:\n  mload(0x40)\n  dup1\n  swap2\n  sub\n  swap1\n  log3\n    /* \"task/task2/TokenERC20.sol\":672:910  constructor(uint256 _initialSupply) {... */\n  pop\n    /* \"task/task2/TokenERC20.sol\":61:2987  contract TokenERC20{... */\n  jump(tag_15)\n    /* \"#utility.yul\":7:106   */\ntag_16:\n    /* \"#utility.yul\":59:65   */\n  0x00\n    /* \"#utility.yul\":93:98   */\n  dup2\n    /* \"#utility.yul\":87:99   */\n  mload\n    /* \"#utility.yul\":77:99   */\n  swap1\n  pop\n    /* \"#utility.yul\":7:106   */\n  swap2\n  swap1\n  pop\n  jump\t// out\n    /* \"#utility.yul\":112:292   */\ntag_17:\n    /* \"#utility.yul\":160:237   */\n  0x4e487b7100000000000000000000000000000000000000000000000000000000\n    /* \"#utility.yul\":157:158   */\n  0x00\n    /* \"#utility.yul\":150:238   */\n  mstore\n    /* \"#utility.yul\":257:261   */\n  0x41\n    /* \"#utility.yul\":254:255   */\n  0x04\n    /* \"#utility.yul\":247:262   */\n  mstore\n    /* \"#utility.yul\":281:285   */\n  0x24\n    /* \"#utility.yul\":278:279   */\n  0x00\n    /* \"#utility.yul\":271:286   */\n  revert\n    /* \"#utility.yul\":298:478   */\ntag_18:\n    /* \"#utility.yul\":346:423   */\n  0x4e487b7100000000000000000000000000000000000000000000000000000000\n    /* \"#utility.yul\":343:344   */\n  0x00\n    /* \"#utility.yul\":336:424   */\n  mstore\n    /* \"#utility.yul\":443:447   */\n  0x22\n    /* \"#utility.yul\":440:441   */\n  0x04\n    /* \"#utility.yul\":433:448   */\n  mstore\n    /* \"#utility.yul\":467:471   */\n  0x24\n    /* \"#utility.yul\":464:465   */\n  0x00\n    /* \"#utility.yul\":457:472   */\n  revert\n    /* \"#utility.yul\":484:804   */\ntag_19:\n    /* \"#utility.yul\":528:534   */\n  0x00\n    /* \"#utility.yul\":565:566   */\n  0x02\n    /* \"#utility.yul\":559:563   */\n  dup3\n    /* \"#utility.yul\":555:567   */\n  div\n    /* \"#utility.yul\":545:567   */\n  swap1\n  pop\n    /* \"#utility.yul\":612:613   */\n  0x01\n    /* \"#utility.yul\":606:610   */\n  dup3\n    /* \"#utility.yul\":602:614   */\n  and\n    /* \"#utility.yul\":633:651   */\n  dup1\n    /* \"#utility.yul\":623:704   */\n  tag_52\n  jumpi\n    /* \"#utility.yul\":689:693   */\n  0x7f\n    /* \"#utility.yul\":681:687   */\n  dup3\n    /* \"#utility.yul\":677:694   */\n  and\n    /* \"#utility.yul\":667:694   */\n  swap2\n  pop\n    /* \"#utility.yul\":623:704   */\ntag_52:\n    /* \"#utility.yul\":751:753   */\n  0x20\n    /* \"#utility.yul\":743:749   */\n  dup3\n    /* \"#utility.yul\":740:754   */\n  lt\n    /* \"#utility.yul\":720:738   */\n  dup2\n    /* \"#utility.yul\":717:755   */\n  sub\n    /* \"#utility.yul\":714:798   */\n  tag_53\n  jumpi\n    /* \"#utility.yul\":770:788   */\n  tag_54\n  tag_18\n  jump\t// in\ntag_54:\n    /* \"#utility.yul\":714:798   */\ntag_53:\n    /* \"#utility.yul\":535:804   */\n  pop\n    /* \"#utility.yul\":484:804   */\n  swap2\n  swap1\n  pop\n  jump\t// out\n    /* \"#utility.yul\":810:951   */\ntag_20:\n    /* \"#utility.yul\":859:863   */\n  0x00\n    /* \"#utility.yul\":882:885   */\n  dup2\n    /* \"#utility.yul\":874:885   */\n  swap1\n  pop\n    /* \"#utility.yul\":905:908   */\n  dup2\n    /* \"#utility.yul\":902:903   */\n  0x00\n    /* \"#utility.yul\":895:909   */\n  mstore\n    /* \"#utility.yul\":939:943   */\n  0x20\n    /* \"#utility.yul\":936:937   */\n  0x00\n    /* \"#utility.yul\":926:944   */\n  keccak256\n    /* \"#utility.yul\":918:944   */\n  swap1\n  pop\n    /* \"#utility.yul\":810:951   */\n  swap2\n  swap1\n  pop\n  jump\t// out\n    /* \"#utility.yul\":957:1050   */\ntag_21:\n    /* \"#utility.yul\":994:1000   */\n  0x00\n    /* \"#utility.yul\":1041:1043   */\n  0x20\n    /* \"#utility.yul\":1036:1038   */\n  0x1f\n    /* \"#utility.yul\":1029:1034   */\n  dup4\n    /* \"#utility.yul\":1025:1039   */\n  add\n    /* \"#utility.yul\":1021:1044   */\n  div\n    /* \"#utility.yul\":1011:1044   */\n  swap1\n  pop\n    /* \"#utility.yul\":957:1050   */\n  swap2\n  swap1\n  pop\n  jump\t// out\n    /* \"#utility.yul\":1056:1163   */\ntag_22:\n    /* \"#utility.yul\":1100:1108   */\n  0x00\n    /* \"#utility.yul\":1150:1155   */\n  dup3\n    /* \"#utility.yul\":1144:1148   */\n  dup3\n    /* \"#utility.yul\":1140:1156   */\n  shl\n    /* \"#utility.yul\":1119:1156   */\n  swap1\n  pop\n    /* \"#utility.yul\":1056:1163   */\n  swap3\n  swap2\n  pop\n  pop\n  jump\t// out\n    /* \"#utility.yul\":1169:1562   */\ntag_23:\n    /* \"#utility.yul\":1238:1244   */\n  0x00\n    /* \"#utility.yul\":1288:1289   */\n  0x08\n    /* \"#utility.yul\":1276:1286   */\n  dup4\n    /* \"#utility.yul\":1272:1290   */\n  mul\n    /* \"#utility.yul\":1311:1408   */\n  tag_59\n    /* \"#utility.yul\":1341:1407   */\n  0xffffffffffffffffffffffffffffffffffffffffffffffffffffffffffffffff\n    /* \"#utility.yul\":1330:1339   */\n  dup3\n    /* \"#utility.yul\":1311:1408   */\n  tag_22\n  jump\t// in\ntag_59:\n    /* \"#utility.yul\":1429:1468   */\n  tag_60\n    /* \"#utility.yul\":1459:1467   */\n  dup7\n    /* \"#utility.yul\":1448:1457   */\n  dup4\n    /* \"#utility.yul\":1429:1468   */\n  tag_22\n  jump\t// in\ntag_60:\n    /* \"#utility.yul\":1417:1468   */\n  swap6\n  pop\n    /* \"#utility.yul\":1501:1505   */\n  dup1\n    /* \"#utility.yul\":1497:1506   */\n  not\n    /* \"#utility.yul\":1490:1495   */\n  dup5\n    /* \"#utility.yul\":1486:1507   */\n  and\n    /* \"#utility.yul\":1477:1507   */\n  swap4\n  pop\n    /* \"#utility.yul\":1550:1554   */\n  dup1\n    /* \"#utility.yul\":1540:1548   */\n  dup7\n    /* \"#utility.yul\":1536:1555   */\n  and\n    /* \"#utility.yul\":1529:1534   */\n  dup5\n    /* \"#utility.yul\":1526:1556   */\n  or\n    /* \"#utility.yul\":1516:1556   */\n  swap3\n  pop\n    /* \"#utility.yul\":1245:1562   */\n  pop\n  pop\n    /* \"#utility.yul\":1169:1562   */\n  swap4\n  swap3\n  pop\n  pop\n  pop\n  jump\t// out\n    /* \"#utility.yul\":1568:1645   */\ntag_24:\n    /* \"#utility.yul\":1605:1612   */\n  0x00\n    /* \"#utility.yul\":1634:1639   */\n  dup2\n    /* \"#utility.yul\":1623:1639   */\n  swap1\n  pop\n    /* \"#utility.yul\":1568:1645   */\n  swap2\n  swap1\n  pop\n  jump\t// out\n    /* \"#utility.yul\":1651:1711   */\ntag_25:\n    /* \"#utility.yul\":1679:1682   */\n  0x00\n    /* \"#utility.yul\":1700:1705   */\n  dup2\n    /* \"#utility.yul\":1693:1705   */\n  swap1\n  pop\n    /* \"#utility.yul\":1651:1711   */\n  swap2\n  swap1\n  pop\n  jump\t// out\n    /* \"#utility.yul\":1717:1859   */\ntag_26:\n    /* \"#utility.yul\":1767:1776   */\n  0x00\n    /* \"#utility.yul\":1800:1853   */\n  tag_64\n    /* \"#utility.yul\":1818:1852   */\n  tag_65\n    /* \"#utility.yul\":1827:1851   */\n  tag_66\n    /* \"#utility.yul\":1845:1850   */\n  dup5\n    /* \"#utility.yul\":1827:1851   */\n  tag_24\n  jump\t// in\ntag_66:\n    /* \"#utility.yul\":1818:1852   */\n  tag_25\n  jump\t// in\ntag_65:\n    /* \"#utility.yul\":1800:1853   */\n  tag_24\n  jump\t// in\ntag_64:\n    /* \"#utility.yul\":1787:1853   */\n  swap1\n  pop\n    /* \"#utility.yul\":1717:1859   */\n  swap2\n  swap1\n  pop\n  jump\t// out\n    /* \"#utility.yul\":1865:1940   */\ntag_27:\n    /* \"#utility.yul\":1908:1911   */\n  0x00\n    /* \"#utility.yul\":1929:1934   */\n  dup2\n    /* \"#utility.yul\":1922:1934   */\n  swap1\n  pop\n    /* \"#utility.yul\":1865:1940   */\n  swap2\n  swap1\n  pop\n  jump\t// out\n    /* \"#utility.yul\":1946:2215   */\ntag_28:\n    /* \"#utility.yul\":2056:2095   */\n  tag_69\n    /* \"#utility.yul\":2087:2094   */\n  dup4\n    /* \"#utility.yul\":2056:2095   */\n  tag_26\n  jump\t// in\ntag_69:\n    /* \"#utility.yul\":2117:2208   */\n  tag_70\n    /* \"#utility.yul\":2166:2207   */\n  tag_71\n    /* \"#utility.yul\":2190:2206   */\n  dup3\n    /* \"#utility.yul\":2166:2207   */\n  tag_27\n  jump\t// in\ntag_71:\n    /* \"#utility.yul\":2158:2164   */\n  dup5\n    /* \"#utility.yul\":2151:2155   */\n  dup5\n    /* \"#utility.yul\":2145:2156   */\n  sload\n    /* \"#utility.yul\":2117:2208   */\n  tag_23\n  jump\t// in\ntag_70:\n    /* \"#utility.yul\":2111:2115   */\n  dup3\n    /* \"#utility.yul\":2104:2209   */\n  sstore\n    /* \"#utility.yul\":2022:2215   */\n  pop\n    /* \"#utility.yul\":1946:2215   */\n  pop\n  pop\n  pop\n  jump\t// out\n    /* \"#utility.yul\":2221:2294   */\ntag_29:\n    /* \"#utility.yul\":2266:2269   */\n  0x00\n    /* \"#utility.yul\":2287:2288   */\n  0x00\n    /* \"#utility.yul\":2280:2288   */\n  swap1\n  pop\n    /* \"#utility.yul\":2221:2294   */\n  swap1\n  jump\t// out\n    /* \"#utility.yul\":2300:2489   */\ntag_30:\n    /* \"#utility.yul\":2377:2409   */\n  tag_74\n  tag_29\n  jump\t// in\ntag_74:\n    /* \"#utility.yul\":2418:2483   */\n  tag_75\n    /* \"#utility.yul\":2476:2482   */\n  dup2\n    /* \"#utility.yul\":2468:2474   */\n  dup5\n    /* \"#utility.yul\":2462:2466   */\n  dup5\n    /* \"#utility.yul\":2418:2483   */\n  tag_28\n  jump\t// in\ntag_75:\n    /* \"#utility.yul\":2353:2489   */\n  pop\n    /* \"#utility.yul\":2300:2489   */\n  pop\n  pop\n  jump\t// out\n    /* \"#utility.yul\":2495:2681   */\ntag_31:\n    /* \"#utility.yul\":2555:2675   */\ntag_77:\n    /* \"#utility.yul\":2572:2575   */\n  dup2\n    /* \"#utility.yul\":2565:2570   */\n  dup2\n    /* \"#utility.yul\":2562:2576   */\n  lt\n    /* \"#utility.yul\":2555:2675   */\n  iszero\n  tag_79\n  jumpi\n    /* \"#utility.yul\":2626:2665   */\n  tag_80\n    /* \"#utility.yul\":2663:2664   */\n  0x00\n    /* \"#utility.yul\":2656:2661   */\n  dup3\n    /* \"#utility.yul\":2626:2665   */\n  tag_30\n  jump\t// in\ntag_80:\n    /* \"#utility.yul\":2599:2600   */\n  0x01\n    /* \"#utility.yul\":2592:2597   */\n  dup2\n    /* \"#utility.yul\":2588:2601   */\n  add\n    /* \"#utility.yul\":2579:2601   */\n  swap1\n  pop\n    /* \"#utility.yul\":2555:2675   */\n  jump(tag_77)\ntag_79:\n    /* \"#utility.yul\":2495:2681   */\n  pop\n  pop\n  jump\t// out\n    /* \"#utility.yul\":2687:3230   */\ntag_32:\n    /* \"#utility.yul\":2788:2790   */\n  0x1f\n    /* \"#utility.yul\":2783:2786   */\n  dup3\n    /* \"#utility.yul\":2780:2791   */\n  gt\n    /* \"#utility.yul\":2777:3223   */\n  iszero\n  tag_82\n  jumpi\n    /* \"#utility.yul\":2822:2860   */\n  tag_83\n    /* \"#utility.yul\":2854:2859   */\n  dup2\n    /* \"#utility.yul\":2822:2860   */\n  tag_20\n  jump\t// in\ntag_83:\n    /* \"#utility.yul\":2906:2935   */\n  tag_84\n    /* \"#utility.yul\":2924:2934   */\n  dup5\n    /* \"#utility.yul\":2906:2935   */\n  tag_21\n  jump\t// in\ntag_84:\n    /* \"#utility.yul\":2896:2904   */\n  dup2\n    /* \"#utility.yul\":2892:2936   */\n  add\n    /* \"#utility.yul\":3089:3091   */\n  0x20\n    /* \"#utility.yul\":3077:3087   */\n  dup6\n    /* \"#utility.yul\":3074:3092   */\n  lt\n    /* \"#utility.yul\":3071:3120   */\n  iszero\n  tag_85\n  jumpi\n    /* \"#utility.yul\":3110:3118   */\n  dup2\n    /* \"#utility.yul\":3095:3118   */\n  swap1\n  pop\n    /* \"#utility.yul\":3071:3120   */\ntag_85:\n    /* \"#utility.yul\":3133:3213   */\n  tag_86\n    /* \"#utility.yul\":3189:3211   */\n  tag_87\n    /* \"#utility.yul\":3207:3210   */\n  dup6\n    /* \"#utility.yul\":3189:3211   */\n  tag_21\n  jump\t// in\ntag_87:\n    /* \"#utility.yul\":3179:3187   */\n  dup4\n    /* \"#utility.yul\":3175:3212   */\n  add\n    /* \"#utility.yul\":3162:3173   */\n  dup3\n    /* \"#utility.yul\":3133:3213   */\n  tag_31\n  jump\t// in\ntag_86:\n    /* \"#utility.yul\":2792:3223   */\n  pop\n  pop\n    /* \"#utility.yul\":2777:3223   */\ntag_82:\n    /* \"#utility.yul\":2687:3230   */\n  pop\n  pop\n  pop\n  jump\t// out\n    /* \"#utility.yul\":3236:3353   */\ntag_33:\n    /* \"#utility.yul\":3290:3298   */\n  0x00\n    /* \"#utility.yul\":3340:3345   */\n  dup3\n    /* \"#utility.yul\":3334:3338   */\n  dup3\n    /* \"#utility.yul\":3330:3346   */\n  shr\n    /* \"#utility.yul\":3309:3346   */\n  swap1\n  pop\n    /* \"#utility.yul\":3236:3353   */\n  swap3\n  swap2\n  pop\n  pop\n  jump\t// out\n    /* \"#utility.yul\":3359:3528   */\ntag_34:\n    /* \"#utility.yul\":3403:3409   */\n  0x00\n    /* \"#utility.yul\":3436:3487   */\n  tag_90\n    /* \"#utility.yul\":3484:3485   */\n  0x00\n    /* \"#utility.yul\":3480:3486   */\n  not\n    /* \"#utility.yul\":3472:3477   */\n  dup5\n    /* \"#utility.yul\":3469:3470   */\n  0x08\n    /* \"#utility.yul\":3465:3478   */\n  mul\n    /* \"#utility.yul\":3436:3487   */\n  tag_33\n  jump\t// in\ntag_90:\n    /* \"#utility.yul\":3432:3488   */\n  not\n    /* \"#utility.yul\":3517:3521   */\n  dup1\n    /* \"#utility.yul\":3511:3515   */\n  dup4\n    /* \"#utility.yul\":3507:3522   */\n  and\n    /* \"#utility.yul\":3497:3522   */\n  swap2\n  pop\n    /* \"#utility.yul\":3410:3528   */\n  pop\n    /* \"#utility.yul\":3359:3528   */\n  swap3\n  swap2\n  pop\n  pop\n  jump\t// out\n    /* \"#utility.yul\":3533:3828   */\ntag_35:\n    /* \"#utility.yul\":3609:3613   */\n  0x00\n    /* \"#utility.yul\":3755:3784   */\n  tag_92\n    /* \"#utility.yul\":3780:3783   */\n  dup4\n    /* \"#utility.yul\":3774:3778   */\n  dup4\n    /* \"#utility.yul\":3755:3784   */\n  tag_34\n  jump\t// in\ntag_92:\n    /* \"#utility.yul\":3747:3784   */\n  swap2\n  pop\n    /* \"#utility.yul\":3817:3820   */\n  dup3\n    /* \"#utility.yul\":3814:3815   */\n  0x02\n    /* \"#utility.yul\":3810:3821   */\n  mul\n    /* \"#utility.yul\":3804:3808   */\n  dup3\n    /* \"#utility.yul\":3801:3822   */\n  or\n    /* \"#utility.yul\":3793:3822   */\n  swap1\n  pop\n    /* \"#utility.yul\":3533:3828   */\n  swap3\n  swap2\n  pop\n  pop\n  jump\t// out\n    /* \"#utility.yul\":3833:5228   */\ntag_2:\n    /* \"#utility.yul\":3950:3987   */\n  tag_94\n    /* \"#utility.yul\":3983:3986   */\n  dup3\n    /* \"#utility.yul\":3950:3987   */\n  tag_16\n  jump\t// in\ntag_94:\n    /* \"#utility.yul\":4052:4070   */\n  0xffffffffffffffff\n    /* \"#utility.yul\":4044:4050   */\n  dup2\n    /* \"#utility.yul\":4041:4071   */\n  gt\n    /* \"#utility.yul\":4038:4094   */\n  iszero\n  tag_95\n  jumpi\n    /* \"#utility.yul\":4074:4092   */\n  tag_96\n  tag_17\n  jump\t// in\ntag_96:\n    /* \"#utility.yul\":4038:4094   */\ntag_95:\n    /* \"#utility.yul\":4118:4156   */\n  tag_97\n    /* \"#utility.yul\":4150:4154   */\n  dup3\n    /* \"#utility.yul\":4144:4155   */\n  sload\n    /* \"#utility.yul\":4118:4156   */\n  tag_19\n  jump\t// in\ntag_97:\n    /* \"#utility.yul\":4203:4270   */\n  tag_98\n    /* \"#utility.yul\":4263:4269   */\n  dup3\n    /* \"#utility.yul\":4255:4261   */\n  dup3\n    /* \"#utility.yul\":4249:4253   */\n  dup6\n    /* \"#utility.yul\":4203:4270   */\n  tag_32\n  jump\t// in\ntag_98:\n    /* \"#utility.yul\":4297:4298   */\n  0x00\n    /* \"#utility.yul\":4321:4325   */\n  0x20\n    /* \"#utility.yul\":4308:4325   */\n  swap1\n  pop\n    /* \"#utility.yul\":4353:4355   */\n  0x1f\n    /* \"#utility.yul\":4345:4351   */\n  dup4\n    /* \"#utility.yul\":4342:4356   */\n  gt\n    /* \"#utility.yul\":4370:4371   */\n  0x01\n    /* \"#utility.yul\":4365:4983   */\n  dup2\n  eq\n  tag_100\n  jumpi\n    /* \"#utility.yul\":5027:5028   */\n  0x00\n    /* \"#utility.yul\":5044:5050   */\n  dup5\n    /* \"#utility.yul\":5041:5118   */\n  iszero\n  tag_101\n  jumpi\n    /* \"#utility.yul\":5093:5102   */\n  dup3\n    /* \"#utility.yul\":5088:5091   */\n  dup8\n    /* \"#utility.yul\":5084:5103   */\n  add\n    /* \"#utility.yul\":5078:5104   */\n  mload\n    /* \"#utility.yul\":5069:5104   */\n  swap1\n  pop\n    /* \"#utility.yul\":5041:5118   */\ntag_101:\n    /* \"#utility.yul\":5144:5211   */\n  tag_102\n    /* \"#utility.yul\":5204:5210   */\n  dup6\n    /* \"#utility.yul\":5197:5202   */\n  dup3\n    /* \"#utility.yul\":5144:5211   */\n  tag_35\n  jump\t// in\ntag_102:\n    /* \"#utility.yul\":5138:5142   */\n  dup7\n    /* \"#utility.yul\":5131:5212   */\n  sstore\n    /* \"#utility.yul\":5000:5222   */\n  pop\n    /* \"#utility.yul\":4335:5222   */\n  jump(tag_99)\n    /* \"#utility.yul\":4365:4983   */\ntag_100:\n    /* \"#utility.yul\":4417:4421   */\n  0x1f\n    /* \"#utility.yul\":4413:4422   */\n  not\n    /* \"#utility.yul\":4405:4411   */\n  dup5\n    /* \"#utility.yul\":4401:4423   */\n  and\n    /* \"#utility.yul\":4451:4488   */\n  tag_103\n    /* \"#utility.yul\":4483:4487   */\n  dup7\n    /* \"#utility.yul\":4451:4488   */\n  tag_20\n  jump\t// in\ntag_103:\n    /* \"#utility.yul\":4510:4511   */\n  0x00\n    /* \"#utility.yul\":4524:4732   */\ntag_104:\n    /* \"#utility.yul\":4538:4545   */\n  dup3\n    /* \"#utility.yul\":4535:4536   */\n  dup2\n    /* \"#utility.yul\":4532:4546   */\n  lt\n    /* \"#utility.yul\":4524:4732   */\n  iszero\n  tag_106\n  jumpi\n    /* \"#utility.yul\":4617:4626   */\n  dup5\n    /* \"#utility.yul\":4612:4615   */\n  dup10\n    /* \"#utility.yul\":4608:4627   */\n  add\n    /* \"#utility.yul\":4602:4628   */\n  mload\n    /* \"#utility.yul\":4594:4600   */\n  dup3\n    /* \"#utility.yul\":4587:4629   */\n  sstore\n    /* \"#utility.yul\":4668:4669   */\n  0x01\n    /* \"#utility.yul\":4660:4666   */\n  dup3\n    /* \"#utility.yul\":4656:4670   */\n  add\n    /* \"#utility.yul\":4646:4670   */\n  swap2\n  pop\n    /* \"#utility.yul\":4715:4717   */\n  0x20\n    /* \"#utility.yul\":4704:4713   */\n  dup6\n    /* \"#utility.yul\":4700:4718   */\n  add\n    /* \"#utility.yul\":4687:4718   */\n  swap5\n  pop\n    /* \"#utility.yul\":4561:4565   */\n  0x20\n    /* \"#utility.yul\":4558:4559   */\n  dup2\n    /* \"#utility.yul\":4554:4566   */\n  add\n    /* \"#utility.yul\":4549:4566   */\n  swap1\n  pop\n    /* \"#utility.yul\":4524:4732   */\n  jump(tag_104)\ntag_106:\n    /* \"#utility.yul\":4760:4766   */\n  dup7\n    /* \"#utility.yul\":4751:4758   */\n  dup4\n    /* \"#utility.yul\":4748:4767   */\n  lt\n    /* \"#utility.yul\":4745:4924   */\n  iszero\n  tag_107\n  jumpi\n    /* \"#utility.yul\":4818:4827   */\n  dup5\n    /* \"#utility.yul\":4813:4816   */\n  dup10\n    /* \"#utility.yul\":4809:4828   */\n  add\n    /* \"#utility.yul\":4803:4829   */\n  mload\n    /* \"#utility.yul\":4861:4909   */\n  tag_108\n    /* \"#utility.yul\":4903:4907   */\n  0x1f\n    /* \"#utility.yul\":4895:4901   */\n  dup10\n    /* \"#utility.yul\":4891:4908   */\n  and\n    /* \"#utility.yul\":4880:4889   */\n  dup3\n    /* \"#utility.yul\":4861:4909   */\n  tag_34\n  jump\t// in\ntag_108:\n    /* \"#utility.yul\":4853:4859   */\n  dup4\n    /* \"#utility.yul\":4846:4910   */\n  sstore\n    /* \"#utility.yul\":4768:4924   */\n  pop\n    /* \"#utility.yul\":4745:4924   */\ntag_107:\n    /* \"#utility.yul\":4970:4971   */\n  0x01\n    /* \"#utility.yul\":4966:4967   */\n  0x02\n    /* \"#utility.yul\":4958:4964   */\n  dup9\n    /* \"#utility.yul\":4954:4968   */\n  mul\n    /* \"#utility.yul\":4950:4972   */\n  add\n    /* \"#utility.yul\":4944:4948   */\n  dup9\n    /* \"#utility.yul\":4937:4973   */\n  sstore\n    /* \"#utility.yul\":4372:4983   */\n  pop\n  pop\n  pop\n    /* \"#utility.yul\":4335:5222   */\ntag_99:\n  pop\n    /* \"#utility.yul\":3925:5228   */\n  pop\n  pop\n  pop\n    /* \"#utility.yul\":3833:5228   */\n  pop\n  pop\n  jump\t// out\n    /* \"#utility.yul\":5315:5432   */\ntag_37:\n    /* \"#utility.yul\":5424:5425   */\n  0x00\n    /* \"#utility.yul\":5421:5422   */\n  0x00\n    /* \"#utility.yul\":5414:5426   */\n  revert\n    /* \"#utility.yul\":5561:5683   */\ntag_39:\n    /* \"#utility.yul\":5634:5658   */\n  tag_113\n    /* \"#utility.yul\":5652:5657   */\n  dup2\n    /* \"#utility.yul\":5634:5658   */\n  tag_24\n  jump\t// in\ntag_113:\n    /* \"#utility.yul\":5627:5632   */\n  dup2\n    /* \"#utility.yul\":5624:5659   */\n  eq\n    /* \"#utility.yul\":5614:5677   */\n  tag_114\n  jumpi\n    /* \"#utility.yul\":5673:5674   */\n  0x00\n    /* \"#utility.yul\":5670:5671   */\n  0x00\n    /* \"#utility.yul\":5663:5675   */\n  revert\n    /* \"#utility.yul\":5614:5677   */\ntag_114:\n    /* \"#utility.yul\":5561:5683   */\n  pop\n  jump\t// out\n    /* \"#utility.yul\":5689:5832   */\ntag_40:\n    /* \"#utility.yul\":5746:5751   */\n  0x00\n    /* \"#utility.yul\":5777:5783   */\n  dup2\n    /* \"#utility.yul\":5771:5784   */\n  mload\n    /* \"#utility.yul\":5762:5784   */\n  swap1\n  pop\n    /* \"#utility.yul\":5793:5826   */\n  tag_116\n    /* \"#utility.yul\":5820:5825   */\n  dup2\n    /* \"#utility.yul\":5793:5826   */\n  tag_39\n  jump\t// in\ntag_116:\n    /* \"#utility.yul\":5689:5832   */\n  swap3\n  swap2\n  pop\n  pop\n  jump\t// out\n    /* \"#utility.yul\":5838:6189   */\ntag_6:\n    /* \"#utility.yul\":5908:5914   */\n  0x00\n    /* \"#utility.yul\":5957:5959   */\n  0x20\n    /* \"#utility.yul\":5945:5954   */\n  dup3\n    /* \"#utility.yul\":5936:5943   */\n  dup5\n    /* \"#utility.yul\":5932:5955   */\n  sub\n    /* \"#utility.yul\":5928:5960   */\n  slt\n    /* \"#utility.yul\":5925:6044   */\n  iszero\n  tag_118\n  jumpi\n    /* \"#utility.yul\":5963:6042   */\n  tag_119\n  tag_37\n  jump\t// in\ntag_119:\n    /* \"#utility.yul\":5925:6044   */\ntag_118:\n    /* \"#utility.yul\":6083:6084   */\n  0x00\n    /* \"#utility.yul\":6108:6172   */\n  tag_120\n    /* \"#utility.yul\":6164:6171   */\n  dup5\n    /* \"#utility.yul\":6155:6161   */\n  dup3\n    /* \"#utility.yul\":6144:6153   */\n  dup6\n    /* \"#utility.yul\":6140:6162   */\n  add\n    /* \"#utility.yul\":6108:6172   */\n  tag_40\n  jump\t// in\ntag_120:\n    /* \"#utility.yul\":6098:6172   */\n  swap2\n  pop\n    /* \"#utility.yul\":6054:6182   */\n  pop\n    /* \"#utility.yul\":5838:6189   */\n  swap3\n  swap2\n  pop\n  pop\n  jump\t// out\n    /* \"#utility.yul\":6195:6375   */\ntag_41:\n    /* \"#utility.yul\":6243:6320   */\n  0x4e487b7100000000000000000000000000000000000000000000000000000000\n    /* \"#utility.yul\":6240:6241   */\n  0x00\n    /* \"#utility.yul\":6233:6321   */\n  mstore\n    /* \"#utility.yul\":6340:6344   */\n  0x11\n    /* \"#utility.yul\":6337:6338   */\n  0x04\n    /* \"#utility.yul\":6330:6345   */\n  mstore\n    /* \"#utility.yul\":6364:6368   */\n  0x24\n    /* \"#utility.yul\":6361:6362   */\n  0x00\n    /* \"#utility.yul\":6354:6369   */\n  revert\n    /* \"#utility.yul\":6381:6483   */\ntag_42:\n    /* \"#utility.yul\":6423:6431   */\n  0x00\n    /* \"#utility.yul\":6470:6475   */\n  dup2\n    /* \"#utility.yul\":6467:6468   */\n  0x01\n    /* \"#utility.yul\":6463:6476   */\n  shr\n    /* \"#utility.yul\":6442:6476   */\n  swap1\n  pop\n    /* \"#utility.yul\":6381:6483   */\n  swap2\n  swap1\n  pop\n  jump\t// out\n    /* \"#utility.yul\":6489:7337   */\ntag_43:\n    /* \"#utility.yul\":6550:6555   */\n  0x00\n    /* \"#utility.yul\":6557:6561   */\n  0x00\n    /* \"#utility.yul\":6581:6587   */\n  dup3\n    /* \"#utility.yul\":6572:6587   */\n  swap2\n  pop\n    /* \"#utility.yul\":6605:6610   */\n  dup4\n    /* \"#utility.yul\":6596:6610   */\n  swap1\n  pop\n    /* \"#utility.yul\":6619:7331   */\ntag_124:\n    /* \"#utility.yul\":6640:6641   */\n  0x01\n    /* \"#utility.yul\":6630:6638   */\n  dup6\n    /* \"#utility.yul\":6627:6642   */\n  gt\n    /* \"#utility.yul\":6619:7331   */\n  iszero\n  tag_126\n  jumpi\n    /* \"#utility.yul\":6735:6739   */\n  dup1\n    /* \"#utility.yul\":6730:6733   */\n  dup7\n    /* \"#utility.yul\":6726:6740   */\n  div\n    /* \"#utility.yul\":6720:6724   */\n  dup2\n    /* \"#utility.yul\":6717:6741   */\n  gt\n    /* \"#utility.yul\":6714:6764   */\n  iszero\n  tag_127\n  jumpi\n    /* \"#utility.yul\":6744:6762   */\n  tag_128\n  tag_41\n  jump\t// in\ntag_128:\n    /* \"#utility.yul\":6714:6764   */\ntag_127:\n    /* \"#utility.yul\":6794:6795   */\n  0x01\n    /* \"#utility.yul\":6784:6792   */\n  dup6\n    /* \"#utility.yul\":6780:6796   */\n  and\n    /* \"#utility.yul\":6777:7228   */\n  iszero\n  tag_129\n  jumpi\n    /* \"#utility.yul\":7209:7213   */\n  dup1\n    /* \"#utility.yul\":7202:7207   */\n  dup3\n    /* \"#utility.yul\":7198:7214   */\n  mul\n    /* \"#utility.yul\":7189:7214   */\n  swap2\n  pop\n    /* \"#utility.yul\":6777:7228   */\ntag_129:\n    /* \"#utility.yul\":7259:7263   */\n  dup1\n    /* \"#utility.yul\":7253:7257   */\n  dup2\n    /* \"#utility.yul\":7249:7264   */\n  mul\n    /* \"#utility.yul\":7241:7264   */\n  swap1\n  pop\n    /* \"#utility.yul\":7289:7321   */\n  tag_130\n    /* \"#utility.yul\":7312:7320   */\n  dup6\n    /* \"#utility.yul\":7289:7321   */\n  tag_42\n  jump\t// in\ntag_130:\n    /* \"#utility.yul\":7277:7321   */\n  swap5\n  pop\n    /* \"#utility.yul\":6619:7331   */\n  jump(tag_124)\ntag_126:\n    /* \"#utility.yul\":6489:7337   */\n  swap5\n  pop\n  swap5\n  swap3\n  pop\n  pop\n  pop\n  jump\t// out\n    /* \"#utility.yul\":7343:8416   */\ntag_44:\n    /* \"#utility.yul\":7397:7402   */\n  0x00\n    /* \"#utility.yul\":7588:7596   */\n  dup3\n    /* \"#utility.yul\":7578:7618   */\n  tag_132\n  jumpi\n    /* \"#utility.yul\":7609:7610   */\n  0x01\n    /* \"#utility.yul\":7600:7610   */\n  swap1\n  pop\n    /* \"#utility.yul\":7611:7616   */\n  jump(tag_131)\n    /* \"#utility.yul\":7578:7618   */\ntag_132:\n    /* \"#utility.yul\":7637:7641   */\n  dup2\n    /* \"#utility.yul\":7627:7663   */\n  tag_133\n  jumpi\n    /* \"#utility.yul\":7654:7655   */\n  0x00\n    /* \"#utility.yul\":7645:7655   */\n  swap1\n  pop\n    /* \"#utility.yul\":7656:7661   */\n  jump(tag_131)\n    /* \"#utility.yul\":7627:7663   */\ntag_133:\n    /* \"#utility.yul\":7723:7727   */\n  dup2\n    /* \"#utility.yul\":7771:7772   */\n  0x01\n    /* \"#utility.yul\":7766:7793   */\n  dup2\n  eq\n  tag_135\n  jumpi\n    /* \"#utility.yul\":7807:7808   */\n  0x02\n    /* \"#utility.yul\":7802:7993   */\n  dup2\n  eq\n  tag_136\n  jumpi\n    /* \"#utility.yul\":7716:7993   */\n  jump(tag_134)\n    /* \"#utility.yul\":7766:7793   */\ntag_135:\n    /* \"#utility.yul\":7784:7785   */\n  0x01\n    /* \"#utility.yul\":7775:7785   */\n  swap2\n  pop\n    /* \"#utility.yul\":7786:7791   */\n  pop\n  jump(tag_131)\n    /* \"#utility.yul\":7802:7993   */\ntag_136:\n    /* \"#utility.yul\":7847:7850   */\n  0xff\n    /* \"#utility.yul\":7837:7845   */\n  dup5\n    /* \"#utility.yul\":7834:7851   */\n  gt\n    /* \"#utility.yul\":7831:7874   */\n  iszero\n  tag_137\n  jumpi\n    /* \"#utility.yul\":7854:7872   */\n  tag_138\n  tag_41\n  jump\t// in\ntag_138:\n    /* \"#utility.yul\":7831:7874   */\ntag_137:\n    /* \"#utility.yul\":7903:7911   */\n  dup4\n    /* \"#utility.yul\":7900:7901   */\n  0x02\n    /* \"#utility.yul\":7896:7912   */\n  exp\n    /* \"#utility.yul\":7887:7912   */\n  swap2\n  pop\n    /* \"#utility.yul\":7938:7941   */\n  dup5\n    /* \"#utility.yul\":7931:7936   */\n  dup3\n    /* \"#utility.yul\":7928:7942   */\n  gt\n    /* \"#utility.yul\":7925:7965   */\n  iszero\n  tag_139\n  jumpi\n    /* \"#utility.yul\":7945:7963   */\n  tag_140\n  tag_41\n  jump\t// in\ntag_140:\n    /* \"#utility.yul\":7925:7965   */\ntag_139:\n    /* \"#utility.yul\":7978:7983   */\n  pop\n  jump(tag_131)\n    /* \"#utility.yul\":7716:7993   */\ntag_134:\n  pop\n    /* \"#utility.yul\":8102:8104   */\n  0x20\n    /* \"#utility.yul\":8092:8100   */\n  dup4\n    /* \"#utility.yul\":8089:8105   */\n  lt\n    /* \"#utility.yul\":8083:8086   */\n  0x0133\n    /* \"#utility.yul\":8077:8081   */\n  dup4\n    /* \"#utility.yul\":8074:8087   */\n  lt\n    /* \"#utility.yul\":8070:8106   */\n  and\n    /* \"#utility.yul\":8052:8054   */\n  0x4e\n    /* \"#utility.yul\":8042:8050   */\n  dup5\n    /* \"#utility.yul\":8039:8055   */\n  lt\n    /* \"#utility.yul\":8034:8036   */\n  0x0b\n    /* \"#utility.yul\":8028:8032   */\n  dup5\n    /* \"#utility.yul\":8025:8037   */\n  lt\n    /* \"#utility.yul\":8021:8056   */\n  and\n    /* \"#utility.yul\":8005:8116   */\n  or\n    /* \"#utility.yul\":8002:8248   */\n  iszero\n  tag_141\n  jumpi\n    /* \"#utility.yul\":8158:8166   */\n  dup3\n    /* \"#utility.yul\":8152:8156   */\n  dup3\n    /* \"#utility.yul\":8148:8167   */\n  exp\n    /* \"#utility.yul\":8139:8167   */\n  swap1\n  pop\n    /* \"#utility.yul\":8193:8196   */\n  dup4\n    /* \"#utility.yul\":8186:8191   */\n  dup2\n    /* \"#utility.yul\":8183:8197   */\n  gt\n    /* \"#utility.yul\":8180:8220   */\n  iszero\n  tag_142\n  jumpi\n    /* \"#utility.yul\":8200:8218   */\n  tag_143\n  tag_41\n  jump\t// in\ntag_143:\n    /* \"#utility.yul\":8180:8220   */\ntag_142:\n    /* \"#utility.yul\":8233:8238   */\n  jump(tag_131)\n    /* \"#utility.yul\":8002:8248   */\ntag_141:\n    /* \"#utility.yul\":8273:8315   */\n  tag_144\n    /* \"#utility.yul\":8311:8314   */\n  dup5\n    /* \"#utility.yul\":8301:8309   */\n  dup5\n    /* \"#utility.yul\":8295:8299   */\n  dup5\n    /* \"#utility.yul\":8292:8293   */\n  0x01\n    /* \"#utility.yul\":8273:8315   */\n  tag_43\n  jump\t// in\ntag_144:\n    /* \"#utility.yul\":8258:8315   */\n  swap3\n  pop\n  swap1\n  pop\n    /* \"#utility.yul\":8347:8351   */\n  dup2\n    /* \"#utility.yul\":8342:8345   */\n  dup5\n    /* \"#utility.yul\":8338:8352   */\n  div\n    /* \"#utility.yul\":8331:8336   */\n  dup2\n    /* \"#utility.yul\":8328:8353   */\n  gt\n    /* \"#utility.yul\":8325:8376   */\n  iszero\n  tag_145\n  jumpi\n    /* \"#utility.yul\":8356:8374   */\n  tag_146\n  tag_41\n  jump\t// in\ntag_146:\n    /* \"#utility.yul\":8325:8376   */\ntag_145:\n    /* \"#utility.yul\":8405:8409   */\n  dup2\n    /* \"#utility.yul\":8398:8403   */\n  dup2\n    /* \"#utility.yul\":8394:8410   */\n  mul\n    /* \"#utility.yul\":8385:8410   */\n  swap1\n  pop\n    /* \"#utility.yul\":7343:8416   */\ntag_131:\n  swap4\n  swap3\n  pop\n  pop\n  pop\n  jump\t// out\n    /* \"#utility.yul\":8422:8508   */\ntag_45:\n    /* \"#utility.yul\":8457:8464   */\n  0x00\n    /* \"#utility.yul\":8497:8501   */\n  0xff\n    /* \"#utility.yul\":8490:8495   */\n  dup3\n    /* \"#utility.yul\":8486:8502   */\n  and\n    /* \"#utility.yul\":8475:8502   */\n  swap1\n  pop\n    /* \"#utility.yul\":8422:8508   */\n  swap2\n  swap1\n  pop\n  jump\t// out\n    /* \"#utility.yul\":8514:8795   */\ntag_10:\n    /* \"#utility.yul\":8572:8577   */\n  0x00\n    /* \"#utility.yul\":8596:8619   */\n  tag_149\n    /* \"#utility.yul\":8614:8618   */\n  dup3\n    /* \"#utility.yul\":8596:8619   */\n  tag_24\n  jump\t// in\ntag_149:\n    /* \"#utility.yul\":8588:8619   */\n  swap2\n  pop\n    /* \"#utility.yul\":8640:8665   */\n  tag_150\n    /* \"#utility.yul\":8656:8664   */\n  dup4\n    /* \"#utility.yul\":8640:8665   */\n  tag_45\n  jump\t// in\ntag_150:\n    /* \"#utility.yul\":8628:8665   */\n  swap3\n  pop\n    /* \"#utility.yul\":8684:8788   */\n  tag_151\n    /* \"#utility.yul\":8721:8787   */\n  0xffffffffffffffffffffffffffffffffffffffffffffffffffffffffffffffff\n    /* \"#utility.yul\":8711:8719   */\n  dup5\n    /* \"#utility.yul\":8705:8709   */\n  dup5\n    /* \"#utility.yul\":8684:8788   */\n  tag_44\n  jump\t// in\ntag_151:\n    /* \"#utility.yul\":8675:8788   */\n  swap1\n  pop\n    /* \"#utility.yul\":8514:8795   */\n  swap3\n  swap2\n  pop\n  pop\n  jump\t// out\n    /* \"#utility.yul\":8801:9211   */\ntag_12:\n    /* \"#utility.yul\":8841:8848   */\n  0x00\n    /* \"#utility.yul\":8864:8884   */\n  tag_153\n    /* \"#utility.yul\":8882:8883   */\n  dup3\n    /* \"#utility.yul\":8864:8884   */\n  tag_24\n  jump\t// in\ntag_153:\n    /* \"#utility.yul\":8859:8884   */\n  swap2\n  pop\n    /* \"#utility.yul\":8898:8918   */\n  tag_154\n    /* \"#utility.yul\":8916:8917   */\n  dup4\n    /* \"#utility.yul\":8898:8918   */\n  tag_24\n  jump\t// in\ntag_154:\n    /* \"#utility.yul\":8893:8918   */\n  swap3\n  pop\n    /* \"#utility.yul\":8953:8954   */\n  dup3\n    /* \"#utility.yul\":8950:8951   */\n  dup3\n    /* \"#utility.yul\":8946:8955   */\n  mul\n    /* \"#utility.yul\":8975:9005   */\n  tag_155\n    /* \"#utility.yul\":8993:9004   */\n  dup2\n    /* \"#utility.yul\":8975:9005   */\n  tag_24\n  jump\t// in\ntag_155:\n    /* \"#utility.yul\":8964:9005   */\n  swap2\n  pop\n    /* \"#utility.yul\":9154:9155   */\n  dup3\n    /* \"#utility.yul\":9145:9152   */\n  dup3\n    /* \"#utility.yul\":9141:9156   */\n  div\n    /* \"#utility.yul\":9138:9139   */\n  dup5\n    /* \"#utility.yul\":9135:9157   */\n  eq\n    /* \"#utility.yul\":9115:9116   */\n  dup4\n    /* \"#utility.yul\":9108:9117   */\n  iszero\n    /* \"#utility.yul\":9088:9171   */\n  or\n    /* \"#utility.yul\":9065:9204   */\n  tag_156\n  jumpi\n    /* \"#utility.yul\":9184:9202   */\n  tag_157\n  tag_41\n  jump\t// in\ntag_157:\n    /* \"#utility.yul\":9065:9204   */\ntag_156:\n    /* \"#utility.yul\":8849:9211   */\n  pop\n    /* \"#utility.yul\":8801:9211   */\n  swap3\n  swap2\n  pop\n  pop\n  jump\t// out\n    /* \"#utility.yul\":9217:9335   */\ntag_46:\n    /* \"#utility.yul\":9304:9328   */\n  tag_159\n    /* \"#utility.yul\":9322:9327   */\n  dup2\n    /* \"#utility.yul\":9304:9328   */\n  tag_24\n  jump\t// in\ntag_159:\n    /* \"#utility.yul\":9299:9302   */\n  dup3\n    /* \"#utility.yul\":9292:9329   */\n  mstore\n    /* \"#utility.yul\":9217:9335   */\n  pop\n  pop\n  jump\t// out\n    /* \"#utility.yul\":9341:9563   */\ntag_14:\n    /* \"#utility.yul\":9434:9438   */\n  0x00\n    /* \"#utility.yul\":9472:9474   */\n  0x20\n    /* \"#utility.yul\":9461:9470   */\n  dup3\n    /* \"#utility.yul\":9457:9475   */\n  add\n    /* \"#utility.yul\":9449:9475   */\n  swap1\n  pop\n    /* \"#utility.yul\":9485:9556   */\n  tag_161\n    /* \"#utility.yul\":9553:9554   */\n  0x00\n    /* \"#utility.yul\":9542:9551   */\n  dup4\n    /* \"#utility.yul\":9538:9555   */\n  add\n    /* \"#utility.yul\":9529:9535   */\n  dup5\n    /* \"#utility.yul\":9485:9556   */\n  tag_46\n  jump\t// in\ntag_161:\n    /* \"#utility.yul\":9341:9563   */\n  swap3\n  swap2\n  pop\n  pop\n  jump\t// out\n    /* \"task/task2/TokenERC20.sol\":61:2987  contract TokenERC20{... */\ntag_15:\n  dataSize(sub_0)\n  dup1\n  dataOffset(sub_0)\n  0x00\n  codecopy\n  0x00\n  return\nstop\n\nsub_0: assembly {\n        /* \"task/task2/TokenERC20.sol\":61:2987  contract TokenERC20{... */\n      mstore(0x40, 0x80)\n      callvalue\n      dup1\n      iszero\n      tag_1\n      jumpi\n      revert(0x00, 0x00)\n    tag_1:\n      pop\n      jumpi(tag_2, lt(calldatasize, 0x04))\n      shr(0xe0, calldataload(0x00))\n      dup1\n      0x75247a58\n      gt\n      tag_11\n      jumpi\n      dup1\n      0x75247a58\n      eq\n      tag_7\n      jumpi\n      dup1\n      0x8da5cb5b\n      eq\n      tag_8\n      jumpi\n      dup1\n      0xa9059cbb\n      eq\n      tag_9\n      jumpi\n      dup1\n      0xdd62ed3e\n      eq\n      tag_10\n      jumpi\n      jump(tag_2)\n    tag_11:\n      dup1\n      0x23b872dd\n      eq\n      tag_3\n      jumpi\n      dup1\n      0x40c10f19\n      eq\n      tag_4\n      jumpi\n      dup1\n      0x42966c68\n      eq\n      tag_5\n      jumpi\n      dup1\n      0x70a08231\n      eq\n      tag_6\n      jumpi\n    tag_2:\n      revert(0x00, 0x00)\n        /* \"task/task2/TokenERC20.sol\":1577:2114  function transferFrom(address from, address to, uint256 amount) public returns(bool) {... */\n    tag_3:\n      tag_12\n      0x04\n      dup1\n      calldatasize\n      sub\n      dup2\n      add\n      swap1\n      tag_13\n      swap2\n      swap1\n      tag_14\n      jump\t// in\n    tag_13:\n      tag_15\n      jump\t// in\n    tag_12:\n      mload(0x40)\n      tag_16\n      swap2\n      swap1\n      tag_17\n      jump\t// in\n    tag_16:\n      mload(0x40)\n      dup1\n      swap2\n      sub\n      swap1\n      return\n        /* \"task/task2/TokenERC20.sol\":2137:2373  function mint(address to, uint256 amount) public onlyOwner {... */\n    tag_4:\n      tag_18\n      0x04\n      dup1\n      calldatasize\n      sub\n      dup2\n      add\n      swap1\n      tag_19\n      swap2\n      swap1\n      tag_20\n      jump\t// in\n    tag_19:\n      tag_21\n      jump\t// in\n    tag_18:\n      stop\n        /* \"task/task2/TokenERC20.sol\":2396:2659  function burn(uint256 amount) public  {... */\n    tag_5:\n      tag_22\n      0x04\n      dup1\n      calldatasize\n      sub\n      dup2\n      add\n      swap1\n      tag_23\n      swap2\n      swap1\n      tag_24\n      jump\t// in\n    tag_23:\n      tag_25\n      jump\t// in\n    tag_22:\n      stop\n        /* \"task/task2/TokenERC20.sol\":240:284  mapping(address => uint256) public balanceOf */\n    tag_6:\n      tag_26\n      0x04\n      dup1\n      calldatasize\n      sub\n      dup2\n      add\n      swap1\n      tag_27\n      swap2\n      swap1\n      tag_28\n      jump\t// in\n    tag_27:\n      tag_29\n      jump\t// in\n    tag_26:\n      mload(0x40)\n      tag_30\n      swap2\n      swap1\n      tag_31\n      jump\t// in\n    tag_30:\n      mload(0x40)\n      dup1\n      swap2\n      sub\n      swap1\n      return\n        /* \"task/task2/TokenERC20.sol\":1305:1569  function approval(address spender, uint256 amount) public returns(bool){... */\n    tag_7:\n      tag_32\n      0x04\n      dup1\n      calldatasize\n      sub\n      dup2\n      add\n      swap1\n      tag_33\n      swap2\n      swap1\n      tag_20\n      jump\t// in\n    tag_33:\n      tag_34\n      jump\t// in\n    tag_32:\n      mload(0x40)\n      tag_35\n      swap2\n      swap1\n      tag_17\n      jump\t// in\n    tag_35:\n      mload(0x40)\n      dup1\n      swap2\n      sub\n      swap1\n      return\n        /* \"task/task2/TokenERC20.sol\":364:384  address public owner */\n    tag_8:\n      tag_36\n      tag_37\n      jump\t// in\n    tag_36:\n      mload(0x40)\n      tag_38\n      swap2\n      swap1\n      tag_39\n      jump\t// in\n    tag_38:\n      mload(0x40)\n      dup1\n      swap2\n      sub\n      swap1\n      return\n        /* \"task/task2/TokenERC20.sol\":933:1282  function transfer(address to, uint256 amount) public returns(bool) {... */\n    tag_9:\n      tag_40\n      0x04\n      dup1\n      calldatasize\n      sub\n      dup2\n      add\n      swap1\n      tag_41\n      swap2\n      swap1\n      tag_20\n      jump\t// in\n    tag_41:\n      tag_42\n      jump\t// in\n    tag_40:\n      mload(0x40)\n      tag_43\n      swap2\n      swap1\n      tag_17\n      jump\t// in\n    tag_43:\n      mload(0x40)\n      dup1\n      swap2\n      sub\n      swap1\n      return\n        /* \"task/task2/TokenERC20.sol\":291:355  mapping(address => mapping(address => uint256)) public allowance */\n    tag_10:\n      tag_44\n      0x04\n      dup1\n      calldatasize\n      sub\n      dup2\n      add\n      swap1\n      tag_45\n      swap2\n      swap1\n      tag_46\n      jump\t// in\n    tag_45:\n      tag_47\n      jump\t// in\n    tag_44:\n      mload(0x40)\n      tag_48\n      swap2\n      swap1\n      tag_31\n      jump\t// in\n    tag_48:\n      mload(0x40)\n      dup1\n      swap2\n      sub\n      swap1\n      return\n        /* \"task/task2/TokenERC20.sol\":1577:2114  function transferFrom(address from, address to, uint256 amount) public returns(bool) {... */\n    tag_15:\n        /* \"task/task2/TokenERC20.sol\":1656:1660  bool */\n      0x00\n        /* \"task/task2/TokenERC20.sol\":1673:1712  checkAddress(from, \"From zero address\") */\n      tag_50\n        /* \"task/task2/TokenERC20.sol\":1686:1690  from */\n      dup5\n        /* \"task/task2/TokenERC20.sol\":1673:1712  checkAddress(from, \"From zero address\") */\n      mload(0x40)\n      dup1\n      0x40\n      add\n      0x40\n      mstore\n      dup1\n      0x11\n      dup2\n      mstore\n      0x20\n      add\n      0x46726f6d207a65726f2061646472657373000000000000000000000000000000\n      dup2\n      mstore\n      pop\n        /* \"task/task2/TokenERC20.sol\":1673:1685  checkAddress */\n      tag_51\n        /* \"task/task2/TokenERC20.sol\":1673:1712  checkAddress(from, \"From zero address\") */\n      jump\t// in\n    tag_50:\n        /* \"task/task2/TokenERC20.sol\":1723:1758  checkAddress(to, \"To zero address\") */\n      tag_52\n        /* \"task/task2/TokenERC20.sol\":1736:1738  to */\n      dup4\n        /* \"task/task2/TokenERC20.sol\":1723:1758  checkAddress(to, \"To zero address\") */\n      mload(0x40)\n      dup1\n      0x40\n      add\n      0x40\n      mstore\n      dup1\n      0x0f\n      dup2\n      mstore\n      0x20\n      add\n      0x546f207a65726f20616464726573730000000000000000000000000000000000\n      dup2\n      mstore\n      pop\n        /* \"task/task2/TokenERC20.sol\":1723:1735  checkAddress */\n      tag_51\n        /* \"task/task2/TokenERC20.sol\":1723:1758  checkAddress(to, \"To zero address\") */\n      jump\t// in\n    tag_52:\n        /* \"task/task2/TokenERC20.sol\":1771:1832  checkBalance(balanceOf[from], amount, \"Insufficient balance\") */\n      tag_53\n        /* \"task/task2/TokenERC20.sol\":1784:1793  balanceOf */\n      0x03\n        /* \"task/task2/TokenERC20.sol\":1784:1799  balanceOf[from] */\n      0x00\n        /* \"task/task2/TokenERC20.sol\":1794:1798  from */\n      dup7\n        /* \"task/task2/TokenERC20.sol\":1784:1799  balanceOf[from] */\n      0xffffffffffffffffffffffffffffffffffffffff\n      and\n      0xffffffffffffffffffffffffffffffffffffffff\n      and\n      dup2\n      mstore\n      0x20\n      add\n      swap1\n      dup2\n      mstore\n      0x20\n      add\n      0x00\n      keccak256\n      sload\n        /* \"task/task2/TokenERC20.sol\":1801:1807  amount */\n      dup4\n        /* \"task/task2/TokenERC20.sol\":1771:1832  checkBalance(balanceOf[from], amount, \"Insufficient balance\") */\n      mload(0x40)\n      dup1\n      0x40\n      add\n      0x40\n      mstore\n      dup1\n      0x14\n      dup2\n      mstore\n      0x20\n      add\n      0x496e73756666696369656e742062616c616e6365000000000000000000000000\n      dup2\n      mstore\n      pop\n        /* \"task/task2/TokenERC20.sol\":1771:1783  checkBalance */\n      tag_54\n        /* \"task/task2/TokenERC20.sol\":1771:1832  checkBalance(balanceOf[from], amount, \"Insufficient balance\") */\n      jump\t// in\n    tag_53:\n        /* \"task/task2/TokenERC20.sol\":1843:1918  checkBalance(allowance[from][msg.sender], amount, \"Insufficient allownace\") */\n      tag_55\n        /* \"task/task2/TokenERC20.sol\":1856:1865  allowance */\n      0x04\n        /* \"task/task2/TokenERC20.sol\":1856:1871  allowance[from] */\n      0x00\n        /* \"task/task2/TokenERC20.sol\":1866:1870  from */\n      dup7\n        /* \"task/task2/TokenERC20.sol\":1856:1871  allowance[from] */\n      0xffffffffffffffffffffffffffffffffffffffff\n      and\n      0xffffffffffffffffffffffffffffffffffffffff\n      and\n      dup2\n      mstore\n      0x20\n      add\n      swap1\n      dup2\n      mstore\n      0x20\n      add\n      0x00\n      keccak256\n        /* \"task/task2/TokenERC20.sol\":1856:1883  allowance[from][msg.sender] */\n      0x00\n        /* \"task/task2/TokenERC20.sol\":1872:1882  msg.sender */\n      caller\n        /* \"task/task2/TokenERC20.sol\":1856:1883  allowance[from][msg.sender] */\n      0xffffffffffffffffffffffffffffffffffffffff\n      and\n      0xffffffffffffffffffffffffffffffffffffffff\n      and\n      dup2\n      mstore\n      0x20\n      add\n      swap1\n      dup2\n      mstore\n      0x20\n      add\n      0x00\n      keccak256\n      sload\n        /* \"task/task2/TokenERC20.sol\":1885:1891  amount */\n      dup4\n        /* \"task/task2/TokenERC20.sol\":1843:1918  checkBalance(allowance[from][msg.sender], amount, \"Insufficient allownace\") */\n      mload(0x40)\n      dup1\n      0x40\n      add\n      0x40\n      mstore\n      dup1\n      0x16\n      dup2\n      mstore\n      0x20\n      add\n      0x496e73756666696369656e7420616c6c6f776e61636500000000000000000000\n      dup2\n      mstore\n      pop\n        /* \"task/task2/TokenERC20.sol\":1843:1855  checkBalance */\n      tag_54\n        /* \"task/task2/TokenERC20.sol\":1843:1918  checkBalance(allowance[from][msg.sender], amount, \"Insufficient allownace\") */\n      jump\t// in\n    tag_55:\n        /* \"task/task2/TokenERC20.sol\":1950:1956  amount */\n      dup2\n        /* \"task/task2/TokenERC20.sol\":1931:1940  balanceOf */\n      0x03\n        /* \"task/task2/TokenERC20.sol\":1931:1946  balanceOf[from] */\n      0x00\n        /* \"task/task2/TokenERC20.sol\":1941:1945  from */\n      dup7\n        /* \"task/task2/TokenERC20.sol\":1931:1946  balanceOf[from] */\n      0xffffffffffffffffffffffffffffffffffffffff\n      and\n      0xffffffffffffffffffffffffffffffffffffffff\n      and\n      dup2\n      mstore\n      0x20\n      add\n      swap1\n      dup2\n      mstore\n      0x20\n      add\n      0x00\n      keccak256\n      0x00\n        /* \"task/task2/TokenERC20.sol\":1931:1956  balanceOf[from] -= amount */\n      dup3\n      dup3\n      sload\n      tag_56\n      swap2\n      swap1\n      tag_57\n      jump\t// in\n    tag_56:\n      swap3\n      pop\n      pop\n      dup2\n      swap1\n      sstore\n      pop\n        /* \"task/task2/TokenERC20.sol\":1984:1990  amount */\n      dup2\n        /* \"task/task2/TokenERC20.sol\":1967:1976  balanceOf */\n      0x03\n        /* \"task/task2/TokenERC20.sol\":1967:1980  balanceOf[to] */\n      0x00\n        /* \"task/task2/TokenERC20.sol\":1977:1979  to */\n      dup6\n        /* \"task/task2/TokenERC20.sol\":1967:1980  balanceOf[to] */\n      0xffffffffffffffffffffffffffffffffffffffff\n      and\n      0xffffffffffffffffffffffffffffffffffffffff\n      and\n      dup2\n      mstore\n      0x20\n      add\n      swap1\n      dup2\n      mstore\n      0x20\n      add\n      0x00\n      keccak256\n      0x00\n        /* \"task/task2/TokenERC20.sol\":1967:1990  balanceOf[to] += amount */\n      dup3\n      dup3\n      sload\n      tag_58\n      swap2\n      swap1\n      tag_59\n      jump\t// in\n    tag_58:\n      swap3\n      pop\n      pop\n      dup2\n      swap1\n      sstore\n      pop\n        /* \"task/task2/TokenERC20.sol\":2034:2040  amount */\n      dup2\n        /* \"task/task2/TokenERC20.sol\":2003:2012  allowance */\n      0x04\n        /* \"task/task2/TokenERC20.sol\":2003:2018  allowance[from] */\n      0x00\n        /* \"task/task2/TokenERC20.sol\":2013:2017  from */\n      dup7\n        /* \"task/task2/TokenERC20.sol\":2003:2018  allowance[from] */\n      0xffffffffffffffffffffffffffffffffffffffff\n      and\n      0xffffffffffffffffffffffffffffffffffffffff\n      and\n      dup2\n      mstore\n      0x20\n      add\n      swap1\n      dup2\n      mstore\n      0x20\n      add\n      0x00\n      keccak256\n        /* \"task/task2/TokenERC20.sol\":2003:2030  allowance[from][msg.sender] */\n      0x00\n        /* \"task/task2/TokenERC20.sol\":2019:2029  msg.sender */\n      caller\n        /* \"task/task2/TokenERC20.sol\":2003:2030  allowance[from][msg.sender] */\n      0xffffffffffffffffffffffffffffffffffffffff\n      and\n      0xffffffffffffffffffffffffffffffffffffffff\n      and\n      dup2\n      mstore\n      0x20\n      add\n      swap1\n      dup2\n      mstore\n      0x20\n      add\n      0x00\n      keccak256\n      0x00\n        /* \"task/task2/TokenERC20.sol\":2003:2040  allowance[from][msg.sender] -= amount */\n      dup3\n      dup3\n      sload\n      tag_60\n      swap2\n      swap1\n      tag_57\n      jump\t// in\n    tag_60:\n      swap3\n      pop\n      pop\n      dup2\n      swap1\n      sstore\n      pop\n        /* \"task/task2/TokenERC20.sol\":2073:2075  to */\n      dup3\n        /* \"task/task2/TokenERC20.sol\":2058:2084  Transfer(from, to, amount) */\n      0xffffffffffffffffffffffffffffffffffffffff\n      and\n        /* \"task/task2/TokenERC20.sol\":2067:2071  from */\n      dup5\n        /* \"task/task2/TokenERC20.sol\":2058:2084  Transfer(from, to, amount) */\n      0xffffffffffffffffffffffffffffffffffffffff\n      and\n      0xddf252ad1be2c89b69c2b068fc378daa952ba7f163c4a11628f55a4df523b3ef\n        /* \"task/task2/TokenERC20.sol\":2077:2083  amount */\n      dup5\n        /* \"task/task2/TokenERC20.sol\":2058:2084  Transfer(from, to, amount) */\n      mload(0x40)\n      tag_61\n      swap2\n      swap1\n      tag_31\n      jump\t// in\n    tag_61:\n      mload(0x40)\n      dup1\n      swap2\n      sub\n      swap1\n      log3\n        /* \"task/task2/TokenERC20.sol\":2102:2106  true */\n      0x01\n        /* \"task/task2/TokenERC20.sol\":2095:2106  return true */\n      swap1\n      pop\n        /* \"task/task2/TokenERC20.sol\":1577:2114  function transferFrom(address from, address to, uint256 amount) public returns(bool) {... */\n      swap4\n      swap3\n      pop\n      pop\n      pop\n      jump\t// out\n        /* \"task/task2/TokenERC20.sol\":2137:2373  function mint(address to, uint256 amount) public onlyOwner {... */\n    tag_21:\n        /* \"task/task2/TokenERC20.sol\":610:615  owner */\n      0x05\n      0x00\n      swap1\n      sload\n      swap1\n      0x0100\n      exp\n      swap1\n      div\n      0xffffffffffffffffffffffffffffffffffffffff\n      and\n        /* \"task/task2/TokenERC20.sol\":596:615  msg.sender == owner */\n      0xffffffffffffffffffffffffffffffffffffffff\n      and\n        /* \"task/task2/TokenERC20.sol\":596:606  msg.sender */\n      caller\n        /* \"task/task2/TokenERC20.sol\":596:615  msg.sender == owner */\n      0xffffffffffffffffffffffffffffffffffffffff\n      and\n      eq\n        /* \"task/task2/TokenERC20.sol\":588:644  require(msg.sender == owner, \"Only owner can call this\") */\n      tag_63\n      jumpi\n      mload(0x40)\n      0x08c379a000000000000000000000000000000000000000000000000000000000\n      dup2\n      mstore\n      0x04\n      add\n      tag_64\n      swap1\n      tag_65\n      jump\t// in\n    tag_64:\n      mload(0x40)\n      dup1\n      swap2\n      sub\n      swap1\n      revert\n    tag_63:\n        /* \"task/task2/TokenERC20.sol\":2207:2247  checkAddress(to, \"Mint to zero address\") */\n      tag_67\n        /* \"task/task2/TokenERC20.sol\":2220:2222  to */\n      dup3\n        /* \"task/task2/TokenERC20.sol\":2207:2247  checkAddress(to, \"Mint to zero address\") */\n      mload(0x40)\n      dup1\n      0x40\n      add\n      0x40\n      mstore\n      dup1\n      0x14\n      dup2\n      mstore\n      0x20\n      add\n      0x4d696e7420746f207a65726f2061646472657373000000000000000000000000\n      dup2\n      mstore\n      pop\n        /* \"task/task2/TokenERC20.sol\":2207:2219  checkAddress */\n      tag_51\n        /* \"task/task2/TokenERC20.sol\":2207:2247  checkAddress(to, \"Mint to zero address\") */\n      jump\t// in\n    tag_67:\n        /* \"task/task2/TokenERC20.sol\":2275:2281  amount */\n      dup1\n        /* \"task/task2/TokenERC20.sol\":2260:2271  totalSupply */\n      0x02\n      0x00\n        /* \"task/task2/TokenERC20.sol\":2260:2281  totalSupply += amount */\n      dup3\n      dup3\n      sload\n      tag_68\n      swap2\n      swap1\n      tag_59\n      jump\t// in\n    tag_68:\n      swap3\n      pop\n      pop\n      dup2\n      swap1\n      sstore\n      pop\n        /* \"task/task2/TokenERC20.sol\":2309:2315  amount */\n      dup1\n        /* \"task/task2/TokenERC20.sol\":2292:2301  balanceOf */\n      0x03\n        /* \"task/task2/TokenERC20.sol\":2292:2305  balanceOf[to] */\n      0x00\n        /* \"task/task2/TokenERC20.sol\":2302:2304  to */\n      dup5\n        /* \"task/task2/TokenERC20.sol\":2292:2305  balanceOf[to] */\n      0xffffffffffffffffffffffffffffffffffffffff\n      and\n      0xffffffffffffffffffffffffffffffffffffffff\n      and\n      dup2\n      mstore\n      0x20\n      add\n      swap1\n      dup2\n      mstore\n      0x20\n      add\n      0x00\n      keccak256\n      0x00\n        /* \"task/task2/TokenERC20.sol\":2292:2315  balanceOf[to] += amount */\n      dup3\n      dup3\n      sload\n      tag_69\n      swap2\n      swap1\n      tag_59\n      jump\t// in\n    tag_69:\n      swap3\n      pop\n      pop\n      dup2\n      swap1\n      sstore\n      pop\n        /* \"task/task2/TokenERC20.sol\":2354:2356  to */\n      dup2\n        /* \"task/task2/TokenERC20.sol\":2333:2365  Transfer(address(0), to, amount) */\n      0xffffffffffffffffffffffffffffffffffffffff\n      and\n        /* \"task/task2/TokenERC20.sol\":2350:2351  0 */\n      0x00\n        /* \"task/task2/TokenERC20.sol\":2333:2365  Transfer(address(0), to, amount) */\n      0xffffffffffffffffffffffffffffffffffffffff\n      and\n      0xddf252ad1be2c89b69c2b068fc378daa952ba7f163c4a11628f55a4df523b3ef\n        /* \"task/task2/TokenERC20.sol\":2358:2364  amount */\n      dup4\n        /* \"task/task2/TokenERC20.sol\":2333:2365  Transfer(address(0), to, amount) */\n      mload(0x40)\n      tag_70\n      swap2\n      swap1\n      tag_31\n      jump\t// in\n    tag_70:\n      mload(0x40)\n      dup1\n      swap2\n      sub\n      swap1\n      log3\n        /* \"task/task2/TokenERC20.sol\":2137:2373  function mint(address to, uint256 amount) public onlyOwner {... */\n      pop\n      pop\n      jump\t// out\n        /* \"task/task2/TokenERC20.sol\":2396:2659  function burn(uint256 amount) public  {... */\n    tag_25:\n        /* \"task/task2/TokenERC20.sol\":2445:2517  checkBalance(balanceOf[msg.sender], amount, \"Insufficient burn balance\") */\n      tag_72\n        /* \"task/task2/TokenERC20.sol\":2458:2467  balanceOf */\n      0x03\n        /* \"task/task2/TokenERC20.sol\":2458:2479  balanceOf[msg.sender] */\n      0x00\n        /* \"task/task2/TokenERC20.sol\":2468:2478  msg.sender */\n      caller\n        /* \"task/task2/TokenERC20.sol\":2458:2479  balanceOf[msg.sender] */\n      0xffffffffffffffffffffffffffffffffffffffff\n      and\n      0xffffffffffffffffffffffffffffffffffffffff\n      and\n      dup2\n      mstore\n      0x20\n      add\n      swap1\n      dup2\n      mstore\n      0x20\n      add\n      0x00\n      keccak256\n      sload\n        /* \"task/task2/TokenERC20.sol\":2481:2487  amount */\n      dup3\n        /* \"task/task2/TokenERC20.sol\":2445:2517  checkBalance(balanceOf[msg.sender], amount, \"Insufficient burn balance\") */\n      mload(0x40)\n      dup1\n      0x40\n      add\n      0x40\n      mstore\n      dup1\n      0x19\n      dup2\n      mstore\n      0x20\n      add\n      0x496e73756666696369656e74206275726e2062616c616e636500000000000000\n      dup2\n      mstore\n      pop\n        /* \"task/task2/TokenERC20.sol\":2445:2457  checkBalance */\n      tag_54\n        /* \"task/task2/TokenERC20.sol\":2445:2517  checkBalance(balanceOf[msg.sender], amount, \"Insufficient burn balance\") */\n      jump\t// in\n    tag_72:\n        /* \"task/task2/TokenERC20.sol\":2545:2551  amount */\n      dup1\n        /* \"task/task2/TokenERC20.sol\":2530:2541  totalSupply */\n      0x02\n      0x00\n        /* \"task/task2/TokenERC20.sol\":2530:2551  totalSupply -= amount */\n      dup3\n      dup3\n      sload\n      tag_73\n      swap2\n      swap1\n      tag_57\n      jump\t// in\n    tag_73:\n      swap3\n      pop\n      pop\n      dup2\n      swap1\n      sstore\n      pop\n        /* \"task/task2/TokenERC20.sol\":2587:2593  amount */\n      dup1\n        /* \"task/task2/TokenERC20.sol\":2562:2571  balanceOf */\n      0x03\n        /* \"task/task2/TokenERC20.sol\":2562:2583  balanceOf[msg.sender] */\n      0x00\n        /* \"task/task2/TokenERC20.sol\":2572:2582  msg.sender */\n      caller\n        /* \"task/task2/TokenERC20.sol\":2562:2583  balanceOf[msg.sender] */\n      0xffffffffffffffffffffffffffffffffffffffff\n      and\n      0xffffffffffffffffffffffffffffffffffffffff\n      and\n      dup2\n      mstore\n      0x20\n      add\n      swap1\n      dup2\n      mstore\n      0x20\n      add\n      0x00\n      keccak256\n      0x00\n        /* \"task/task2/TokenERC20.sol\":2562:2593  balanceOf[msg.sender] -= amount */\n      dup3\n      dup3\n      sload\n      tag_74\n      swap2\n      swap1\n      tag_57\n      jump\t// in\n    tag_74:\n      swap3\n      pop\n      pop\n      dup2\n      swap1\n      sstore\n      pop\n        /* \"task/task2/TokenERC20.sol\":2640:2641  0 */\n      0x00\n        /* \"task/task2/TokenERC20.sol\":2611:2651  Transfer(msg.sender, address(0), amount) */\n      0xffffffffffffffffffffffffffffffffffffffff\n      and\n        /* \"task/task2/TokenERC20.sol\":2620:2630  msg.sender */\n      caller\n        /* \"task/task2/TokenERC20.sol\":2611:2651  Transfer(msg.sender, address(0), amount) */\n      0xffffffffffffffffffffffffffffffffffffffff\n      and\n      0xddf252ad1be2c89b69c2b068fc378daa952ba7f163c4a11628f55a4df523b3ef\n        /* \"task/task2/TokenERC20.sol\":2644:2650  amount */\n      dup4\n        /* \"task/task2/TokenERC20.sol\":2611:2651  Transfer(msg.sender, address(0), amount) */\n      mload(0x40)\n      tag_75\n      swap2\n      swap1\n      tag_31\n      jump\t// in\n    tag_75:\n      mload(0x40)\n      dup1\n      swap2\n      sub\n      swap1\n      log3\n        /* \"task/task2/TokenERC20.sol\":2396:2659  function burn(uint256 amount) public  {... */\n      pop\n      jump\t// out\n        /* \"task/task2/TokenERC20.sol\":240:284  mapping(address => uint256) public balanceOf */\n    tag_29:\n      mstore(0x20, 0x03)\n      dup1\n      0x00\n      mstore\n      keccak256(0x00, 0x40)\n      0x00\n      swap2\n      pop\n      swap1\n      pop\n      sload\n      dup2\n      jump\t// out\n        /* \"task/task2/TokenERC20.sol\":1305:1569  function approval(address spender, uint256 amount) public returns(bool){... */\n    tag_34:\n        /* \"task/task2/TokenERC20.sol\":1371:1375  bool */\n      0x00\n        /* \"task/task2/TokenERC20.sol\":1387:1432  checkAddress(spender, \"Spender zero address\") */\n      tag_77\n        /* \"task/task2/TokenERC20.sol\":1400:1407  spender */\n      dup4\n        /* \"task/task2/TokenERC20.sol\":1387:1432  checkAddress(spender, \"Spender zero address\") */\n      mload(0x40)\n      dup1\n      0x40\n      add\n      0x40\n      mstore\n      dup1\n      0x14\n      dup2\n      mstore\n      0x20\n      add\n      0x5370656e646572207a65726f2061646472657373000000000000000000000000\n      dup2\n      mstore\n      pop\n        /* \"task/task2/TokenERC20.sol\":1387:1399  checkAddress */\n      tag_51\n        /* \"task/task2/TokenERC20.sol\":1387:1432  checkAddress(spender, \"Spender zero address\") */\n      jump\t// in\n    tag_77:\n        /* \"task/task2/TokenERC20.sol\":1478:1484  amount */\n      dup2\n        /* \"task/task2/TokenERC20.sol\":1445:1454  allowance */\n      0x04\n        /* \"task/task2/TokenERC20.sol\":1445:1466  allowance[msg.sender] */\n      0x00\n        /* \"task/task2/TokenERC20.sol\":1455:1465  msg.sender */\n      caller\n        /* \"task/task2/TokenERC20.sol\":1445:1466  allowance[msg.sender] */\n      0xffffffffffffffffffffffffffffffffffffffff\n      and\n      0xffffffffffffffffffffffffffffffffffffffff\n      and\n      dup2\n      mstore\n      0x20\n      add\n      swap1\n      dup2\n      mstore\n      0x20\n      add\n      0x00\n      keccak256\n        /* \"task/task2/TokenERC20.sol\":1445:1475  allowance[msg.sender][spender] */\n      0x00\n        /* \"task/task2/TokenERC20.sol\":1467:1474  spender */\n      dup6\n        /* \"task/task2/TokenERC20.sol\":1445:1475  allowance[msg.sender][spender] */\n      0xffffffffffffffffffffffffffffffffffffffff\n      and\n      0xffffffffffffffffffffffffffffffffffffffff\n      and\n      dup2\n      mstore\n      0x20\n      add\n      swap1\n      dup2\n      mstore\n      0x20\n      add\n      0x00\n      keccak256\n        /* \"task/task2/TokenERC20.sol\":1445:1484  allowance[msg.sender][spender] = amount */\n      dup2\n      swap1\n      sstore\n      pop\n        /* \"task/task2/TokenERC20.sol\":1523:1530  spender */\n      dup3\n        /* \"task/task2/TokenERC20.sol\":1502:1539  Approval(msg.sender, spender, amount) */\n      0xffffffffffffffffffffffffffffffffffffffff\n      and\n        /* \"task/task2/TokenERC20.sol\":1511:1521  msg.sender */\n      caller\n        /* \"task/task2/TokenERC20.sol\":1502:1539  Approval(msg.sender, spender, amount) */\n      0xffffffffffffffffffffffffffffffffffffffff\n      and\n      0x8c5be1e5ebec7d5bd14f71427d1e84f3dd0314c0f7b2291e5b200ac8c7c3b925\n        /* \"task/task2/TokenERC20.sol\":1532:1538  amount */\n      dup5\n        /* \"task/task2/TokenERC20.sol\":1502:1539  Approval(msg.sender, spender, amount) */\n      mload(0x40)\n      tag_78\n      swap2\n      swap1\n      tag_31\n      jump\t// in\n    tag_78:\n      mload(0x40)\n      dup1\n      swap2\n      sub\n      swap1\n      log3\n        /* \"task/task2/TokenERC20.sol\":1557:1561  true */\n      0x01\n        /* \"task/task2/TokenERC20.sol\":1550:1561  return true */\n      swap1\n      pop\n        /* \"task/task2/TokenERC20.sol\":1305:1569  function approval(address spender, uint256 amount) public returns(bool){... */\n      swap3\n      swap2\n      pop\n      pop\n      jump\t// out\n        /* \"task/task2/TokenERC20.sol\":364:384  address public owner */\n    tag_37:\n      0x05\n      0x00\n      swap1\n      sload\n      swap1\n      0x0100\n      exp\n      swap1\n      div\n      0xffffffffffffffffffffffffffffffffffffffff\n      and\n      dup2\n      jump\t// out\n        /* \"task/task2/TokenERC20.sol\":933:1282  function transfer(address to, uint256 amount) public returns(bool) {... */\n    tag_42:\n        /* \"task/task2/TokenERC20.sol\":994:998  bool */\n      0x00\n        /* \"task/task2/TokenERC20.sol\":1011:1046  checkAddress(to, \"TO zero address\") */\n      tag_80\n        /* \"task/task2/TokenERC20.sol\":1024:1026  to */\n      dup4\n        /* \"task/task2/TokenERC20.sol\":1011:1046  checkAddress(to, \"TO zero address\") */\n      mload(0x40)\n      dup1\n      0x40\n      add\n      0x40\n      mstore\n      dup1\n      0x0f\n      dup2\n      mstore\n      0x20\n      add\n      0x544f207a65726f20616464726573730000000000000000000000000000000000\n      dup2\n      mstore\n      pop\n        /* \"task/task2/TokenERC20.sol\":1011:1023  checkAddress */\n      tag_51\n        /* \"task/task2/TokenERC20.sol\":1011:1046  checkAddress(to, \"TO zero address\") */\n      jump\t// in\n    tag_80:\n        /* \"task/task2/TokenERC20.sol\":1057:1124  checkBalance(balanceOf[msg.sender], amount, \"Insufficient balance\") */\n      tag_81\n        /* \"task/task2/TokenERC20.sol\":1070:1079  balanceOf */\n      0x03\n        /* \"task/task2/TokenERC20.sol\":1070:1091  balanceOf[msg.sender] */\n      0x00\n        /* \"task/task2/TokenERC20.sol\":1080:1090  msg.sender */\n      caller\n        /* \"task/task2/TokenERC20.sol\":1070:1091  balanceOf[msg.sender] */\n      0xffffffffffffffffffffffffffffffffffffffff\n      and\n      0xffffffffffffffffffffffffffffffffffffffff\n      and\n      dup2\n      mstore\n      0x20\n      add\n      swap1\n      dup2\n      mstore\n      0x20\n      add\n      0x00\n      keccak256\n      sload\n        /* \"task/task2/TokenERC20.sol\":1093:1099  amount */\n      dup4\n        /* \"task/task2/TokenERC20.sol\":1057:1124  checkBalance(balanceOf[msg.sender], amount, \"Insufficient balance\") */\n      mload(0x40)\n      dup1\n      0x40\n      add\n      0x40\n      mstore\n      dup1\n      0x14\n      dup2\n      mstore\n      0x20\n      add\n      0x496e73756666696369656e742062616c616e6365000000000000000000000000\n      dup2\n      mstore\n      pop\n        /* \"task/task2/TokenERC20.sol\":1057:1069  checkBalance */\n      tag_54\n        /* \"task/task2/TokenERC20.sol\":1057:1124  checkBalance(balanceOf[msg.sender], amount, \"Insufficient balance\") */\n      jump\t// in\n    tag_81:\n        /* \"task/task2/TokenERC20.sol\":1162:1168  amount */\n      dup2\n        /* \"task/task2/TokenERC20.sol\":1137:1146  balanceOf */\n      0x03\n        /* \"task/task2/TokenERC20.sol\":1137:1158  balanceOf[msg.sender] */\n      0x00\n        /* \"task/task2/TokenERC20.sol\":1147:1157  msg.sender */\n      caller\n        /* \"task/task2/TokenERC20.sol\":1137:1158  balanceOf[msg.sender] */\n      0xffffffffffffffffffffffffffffffffffffffff\n      and\n      0xffffffffffffffffffffffffffffffffffffffff\n      and\n      dup2\n      mstore\n      0x20\n      add\n      swap1\n      dup2\n      mstore\n      0x20\n      add\n      0x00\n      keccak256\n      0x00\n        /* \"task/task2/TokenERC20.sol\":1137:1168  balanceOf[msg.sender] -= amount */\n      dup3\n      dup3\n      sload\n      tag_82\n      swap2\n      swap1\n      tag_57\n      jump\t// in\n    tag_82:\n      swap3\n      pop\n      pop\n      dup2\n      swap1\n      sstore\n      pop\n        /* \"task/task2/TokenERC20.sol\":1196:1202  amount */\n      dup2\n        /* \"task/task2/TokenERC20.sol\":1179:1188  balanceOf */\n      0x03\n        /* \"task/task2/TokenERC20.sol\":1179:1192  balanceOf[to] */\n      0x00\n        /* \"task/task2/TokenERC20.sol\":1189:1191  to */\n      dup6\n        /* \"task/task2/TokenERC20.sol\":1179:1192  balanceOf[to] */\n      0xffffffffffffffffffffffffffffffffffffffff\n      and\n      0xffffffffffffffffffffffffffffffffffffffff\n      and\n      dup2\n      mstore\n      0x20\n      add\n      swap1\n      dup2\n      mstore\n      0x20\n      add\n      0x00\n      keccak256\n      0x00\n        /* \"task/task2/TokenERC20.sol\":1179:1202  balanceOf[to] += amount */\n      dup3\n      dup3\n      sload\n      tag_83\n      swap2\n      swap1\n      tag_59\n      jump\t// in\n    tag_83:\n      swap3\n      pop\n      pop\n      dup2\n      swap1\n      sstore\n      pop\n        /* \"task/task2/TokenERC20.sol\":1241:1243  to */\n      dup3\n        /* \"task/task2/TokenERC20.sol\":1220:1252  Transfer(msg.sender, to, amount) */\n      0xffffffffffffffffffffffffffffffffffffffff\n      and\n        /* \"task/task2/TokenERC20.sol\":1229:1239  msg.sender */\n      caller\n        /* \"task/task2/TokenERC20.sol\":1220:1252  Transfer(msg.sender, to, amount) */\n      0xffffffffffffffffffffffffffffffffffffffff\n      and\n      0xddf252ad1be2c89b69c2b068fc378daa952ba7f163c4a11628f55a4df523b3ef\n        /* \"task/task2/TokenERC20.sol\":1245:1251  amount */\n      dup5\n        /* \"task/task2/TokenERC20.sol\":1220:1252  Transfer(msg.sender, to, amount) */\n      mload(0x40)\n      tag_84\n      swap2\n      swap1\n      tag_31\n      jump\t// in\n    tag_84:\n      mload(0x40)\n      dup1\n      swap2\n      sub\n      swap1\n      log3\n        /* \"task/task2/TokenERC20.sol\":1270:1274  true */\n      0x01\n        /* \"task/task2/TokenERC20.sol\":1263:1274  return true */\n      swap1\n      pop\n        /* \"task/task2/TokenERC20.sol\":933:1282  function transfer(address to, uint256 amount) public returns(bool) {... */\n      swap3\n      swap2\n      pop\n      pop\n      jump\t// out\n        /* \"task/task2/TokenERC20.sol\":291:355  mapping(address => mapping(address => uint256)) public allowance */\n    tag_47:\n      mstore(0x20, 0x04)\n      dup2\n      0x00\n      mstore\n      mstore(0x20, keccak256(0x00, 0x40))\n      dup1\n      0x00\n      mstore\n      keccak256(0x00, 0x40)\n      0x00\n      swap2\n      pop\n      swap2\n      pop\n      pop\n      sload\n      dup2\n      jump\t// out\n        /* \"task/task2/TokenERC20.sol\":2689:2812  function checkAddress(address _addr, string memory _str) private pure {... */\n    tag_51:\n        /* \"task/task2/TokenERC20.sol\":2795:2796  0 */\n      0x00\n        /* \"task/task2/TokenERC20.sol\":2778:2797  _addr != address(0) */\n      0xffffffffffffffffffffffffffffffffffffffff\n      and\n        /* \"task/task2/TokenERC20.sol\":2778:2783  _addr */\n      dup3\n        /* \"task/task2/TokenERC20.sol\":2778:2797  _addr != address(0) */\n      0xffffffffffffffffffffffffffffffffffffffff\n      and\n      eq\n      iszero\n        /* \"task/task2/TokenERC20.sol\":2799:2803  _str */\n      dup2\n        /* \"task/task2/TokenERC20.sol\":2770:2804  require(_addr != address(0), _str) */\n      swap1\n      tag_86\n      jumpi\n      mload(0x40)\n      0x08c379a000000000000000000000000000000000000000000000000000000000\n      dup2\n      mstore\n      0x04\n      add\n      tag_87\n      swap2\n      swap1\n      tag_88\n      jump\t// in\n    tag_87:\n      mload(0x40)\n      dup1\n      swap2\n      sub\n      swap1\n      revert\n    tag_86:\n      pop\n        /* \"task/task2/TokenERC20.sol\":2689:2812  function checkAddress(address _addr, string memory _str) private pure {... */\n      pop\n      pop\n      jump\t// out\n        /* \"task/task2/TokenERC20.sol\":2841:2980  function checkBalance(uint256 balance, uint256 amount, string memory _str) private pure {... */\n    tag_54:\n        /* \"task/task2/TokenERC20.sol\":2959:2965  amount */\n      dup2\n        /* \"task/task2/TokenERC20.sol\":2948:2955  balance */\n      dup4\n        /* \"task/task2/TokenERC20.sol\":2948:2965  balance >= amount */\n      lt\n      iszero\n        /* \"task/task2/TokenERC20.sol\":2967:2971  _str */\n      dup2\n        /* \"task/task2/TokenERC20.sol\":2940:2972  require(balance >= amount, _str) */\n      swap1\n      tag_90\n      jumpi\n      mload(0x40)\n      0x08c379a000000000000000000000000000000000000000000000000000000000\n      dup2\n      mstore\n      0x04\n      add\n      tag_91\n      swap2\n      swap1\n      tag_88\n      jump\t// in\n    tag_91:\n      mload(0x40)\n      dup1\n      swap2\n      sub\n      swap1\n      revert\n    tag_90:\n      pop\n        /* \"task/task2/TokenERC20.sol\":2841:2980  function checkBalance(uint256 balance, uint256 amount, string memory _str) private pure {... */\n      pop\n      pop\n      pop\n      jump\t// out\n        /* \"#utility.yul\":88:205   */\n    tag_93:\n        /* \"#utility.yul\":197:198   */\n      0x00\n        /* \"#utility.yul\":194:195   */\n      0x00\n        /* \"#utility.yul\":187:199   */\n      revert\n        /* \"#utility.yul\":334:460   */\n    tag_95:\n        /* \"#utility.yul\":371:378   */\n      0x00\n        /* \"#utility.yul\":411:453   */\n      0xffffffffffffffffffffffffffffffffffffffff\n        /* \"#utility.yul\":404:409   */\n      dup3\n        /* \"#utility.yul\":400:454   */\n      and\n        /* \"#utility.yul\":389:454   */\n      swap1\n      pop\n        /* \"#utility.yul\":334:460   */\n      swap2\n      swap1\n      pop\n      jump\t// out\n        /* \"#utility.yul\":466:562   */\n    tag_96:\n        /* \"#utility.yul\":503:510   */\n      0x00\n        /* \"#utility.yul\":532:556   */\n      tag_120\n        /* \"#utility.yul\":550:555   */\n      dup3\n        /* \"#utility.yul\":532:556   */\n      tag_95\n      jump\t// in\n    tag_120:\n        /* \"#utility.yul\":521:556   */\n      swap1\n      pop\n        /* \"#utility.yul\":466:562   */\n      swap2\n      swap1\n      pop\n      jump\t// out\n        /* \"#utility.yul\":568:690   */\n    tag_97:\n        /* \"#utility.yul\":641:665   */\n      tag_122\n        /* \"#utility.yul\":659:664   */\n      dup2\n        /* \"#utility.yul\":641:665   */\n      tag_96\n      jump\t// in\n    tag_122:\n        /* \"#utility.yul\":634:639   */\n      dup2\n        /* \"#utility.yul\":631:666   */\n      eq\n        /* \"#utility.yul\":621:684   */\n      tag_123\n      jumpi\n        /* \"#utility.yul\":680:681   */\n      0x00\n        /* \"#utility.yul\":677:678   */\n      0x00\n        /* \"#utility.yul\":670:682   */\n      revert\n        /* \"#utility.yul\":621:684   */\n    tag_123:\n        /* \"#utility.yul\":568:690   */\n      pop\n      jump\t// out\n        /* \"#utility.yul\":696:835   */\n    tag_98:\n        /* \"#utility.yul\":742:747   */\n      0x00\n        /* \"#utility.yul\":780:786   */\n      dup2\n        /* \"#utility.yul\":767:787   */\n      calldataload\n        /* \"#utility.yul\":758:787   */\n      swap1\n      pop\n        /* \"#utility.yul\":796:829   */\n      tag_125\n        /* \"#utility.yul\":823:828   */\n      dup2\n        /* \"#utility.yul\":796:829   */\n      tag_97\n      jump\t// in\n    tag_125:\n        /* \"#utility.yul\":696:835   */\n      swap3\n      swap2\n      pop\n      pop\n      jump\t// out\n        /* \"#utility.yul\":841:918   */\n    tag_99:\n        /* \"#utility.yul\":878:885   */\n      0x00\n        /* \"#utility.yul\":907:912   */\n      dup2\n        /* \"#utility.yul\":896:912   */\n      swap1\n      pop\n        /* \"#utility.yul\":841:918   */\n      swap2\n      swap1\n      pop\n      jump\t// out\n        /* \"#utility.yul\":924:1046   */\n    tag_100:\n        /* \"#utility.yul\":997:1021   */\n      tag_128\n        /* \"#utility.yul\":1015:1020   */\n      dup2\n        /* \"#utility.yul\":997:1021   */\n      tag_99\n      jump\t// in\n    tag_128:\n        /* \"#utility.yul\":990:995   */\n      dup2\n        /* \"#utility.yul\":987:1022   */\n      eq\n        /* \"#utility.yul\":977:1040   */\n      tag_129\n      jumpi\n        /* \"#utility.yul\":1036:1037   */\n      0x00\n        /* \"#utility.yul\":1033:1034   */\n      0x00\n        /* \"#utility.yul\":1026:1038   */\n      revert\n        /* \"#utility.yul\":977:1040   */\n    tag_129:\n        /* \"#utility.yul\":924:1046   */\n      pop\n      jump\t// out\n        /* \"#utility.yul\":1052:1191   */\n    tag_101:\n        /* \"#utility.yul\":1098:1103   */\n      0x00\n        /* \"#utility.yul\":1136:1142   */\n      dup2\n        /* \"#utility.yul\":1123:1143   */\n      calldataload\n        /* \"#utility.yul\":1114:1143   */\n      swap1\n      pop\n        /* \"#utility.yul\":1152:1185   */\n      tag_131\n        /* \"#utility.yul\":1179:1184   */\n      dup2\n        /* \"#utility.yul\":1152:1185   */\n      tag_100\n      jump\t// in\n    tag_131:\n        /* \"#utility.yul\":1052:1191   */\n      swap3\n      swap2\n      pop\n      pop\n      jump\t// out\n        /* \"#utility.yul\":1197:1816   */\n    tag_14:\n        /* \"#utility.yul\":1274:1280   */\n      0x00\n        /* \"#utility.yul\":1282:1288   */\n      0x00\n        /* \"#utility.yul\":1290:1296   */\n      0x00\n        /* \"#utility.yul\":1339:1341   */\n      0x60\n        /* \"#utility.yul\":1327:1336   */\n      dup5\n        /* \"#utility.yul\":1318:1325   */\n      dup7\n        /* \"#utility.yul\":1314:1337   */\n      sub\n        /* \"#utility.yul\":1310:1342   */\n      slt\n        /* \"#utility.yul\":1307:1426   */\n      iszero\n      tag_133\n      jumpi\n        /* \"#utility.yul\":1345:1424   */\n      tag_134\n      tag_93\n      jump\t// in\n    tag_134:\n        /* \"#utility.yul\":1307:1426   */\n    tag_133:\n        /* \"#utility.yul\":1465:1466   */\n      0x00\n        /* \"#utility.yul\":1490:1543   */\n      tag_135\n        /* \"#utility.yul\":1535:1542   */\n      dup7\n        /* \"#utility.yul\":1526:1532   */\n      dup3\n        /* \"#utility.yul\":1515:1524   */\n      dup8\n        /* \"#utility.yul\":1511:1533   */\n      add\n        /* \"#utility.yul\":1490:1543   */\n      tag_98\n      jump\t// in\n    tag_135:\n        /* \"#utility.yul\":1480:1543   */\n      swap4\n      pop\n        /* \"#utility.yul\":1436:1553   */\n      pop\n        /* \"#utility.yul\":1592:1594   */\n      0x20\n        /* \"#utility.yul\":1618:1671   */\n      tag_136\n        /* \"#utility.yul\":1663:1670   */\n      dup7\n        /* \"#utility.yul\":1654:1660   */\n      dup3\n        /* \"#utility.yul\":1643:1652   */\n      dup8\n        /* \"#utility.yul\":1639:1661   */\n      add\n        /* \"#utility.yul\":1618:1671   */\n      tag_98\n      jump\t// in\n    tag_136:\n        /* \"#utility.yul\":1608:1671   */\n      swap3\n      pop\n        /* \"#utility.yul\":1563:1681   */\n      pop\n        /* \"#utility.yul\":1720:1722   */\n      0x40\n        /* \"#utility.yul\":1746:1799   */\n      tag_137\n        /* \"#utility.yul\":1791:1798   */\n      dup7\n        /* \"#utility.yul\":1782:1788   */\n      dup3\n        /* \"#utility.yul\":1771:1780   */\n      dup8\n        /* \"#utility.yul\":1767:1789   */\n      add\n        /* \"#utility.yul\":1746:1799   */\n      tag_101\n      jump\t// in\n    tag_137:\n        /* \"#utility.yul\":1736:1799   */\n      swap2\n      pop\n        /* \"#utility.yul\":1691:1809   */\n      pop\n        /* \"#utility.yul\":1197:1816   */\n      swap3\n      pop\n      swap3\n      pop\n      swap3\n      jump\t// out\n        /* \"#utility.yul\":1822:1912   */\n    tag_102:\n        /* \"#utility.yul\":1856:1863   */\n      0x00\n        /* \"#utility.yul\":1899:1904   */\n      dup2\n        /* \"#utility.yul\":1892:1905   */\n      iszero\n        /* \"#utility.yul\":1885:1906   */\n      iszero\n        /* \"#utility.yul\":1874:1906   */\n      swap1\n      pop\n        /* \"#utility.yul\":1822:1912   */\n      swap2\n      swap1\n      pop\n      jump\t// out\n        /* \"#utility.yul\":1918:2027   */\n    tag_103:\n        /* \"#utility.yul\":1999:2020   */\n      tag_140\n        /* \"#utility.yul\":2014:2019   */\n      dup2\n        /* \"#utility.yul\":1999:2020   */\n      tag_102\n      jump\t// in\n    tag_140:\n        /* \"#utility.yul\":1994:1997   */\n      dup3\n        /* \"#utility.yul\":1987:2021   */\n      mstore\n        /* \"#utility.yul\":1918:2027   */\n      pop\n      pop\n      jump\t// out\n        /* \"#utility.yul\":2033:2243   */\n    tag_17:\n        /* \"#utility.yul\":2120:2124   */\n      0x00\n        /* \"#utility.yul\":2158:2160   */\n      0x20\n        /* \"#utility.yul\":2147:2156   */\n      dup3\n        /* \"#utility.yul\":2143:2161   */\n      add\n        /* \"#utility.yul\":2135:2161   */\n      swap1\n      pop\n        /* \"#utility.yul\":2171:2236   */\n      tag_142\n        /* \"#utility.yul\":2233:2234   */\n      0x00\n        /* \"#utility.yul\":2222:2231   */\n      dup4\n        /* \"#utility.yul\":2218:2235   */\n      add\n        /* \"#utility.yul\":2209:2215   */\n      dup5\n        /* \"#utility.yul\":2171:2236   */\n      tag_103\n      jump\t// in\n    tag_142:\n        /* \"#utility.yul\":2033:2243   */\n      swap3\n      swap2\n      pop\n      pop\n      jump\t// out\n        /* \"#utility.yul\":2249:2723   */\n    tag_20:\n        /* \"#utility.yul\":2317:2323   */\n      0x00\n        /* \"#utility.yul\":2325:2331   */\n      0x00\n        /* \"#utility.yul\":2374:2376   */\n      0x40\n        /* \"#utility.yul\":2362:2371   */\n      dup4\n        /* \"#utility.yul\":2353:2360   */\n      dup6\n        /* \"#utility.yul\":2349:2372   */\n      sub\n        /* \"#utility.yul\":2345:2377   */\n      slt\n        /* \"#utility.yul\":2342:2461   */\n      iszero\n      tag_144\n      jumpi\n        /* \"#utility.yul\":2380:2459   */\n      tag_145\n      tag_93\n      jump\t// in\n    tag_145:\n        /* \"#utility.yul\":2342:2461   */\n    tag_144:\n        /* \"#utility.yul\":2500:2501   */\n      0x00\n        /* \"#utility.yul\":2525:2578   */\n      tag_146\n        /* \"#utility.yul\":2570:2577   */\n      dup6\n        /* \"#utility.yul\":2561:2567   */\n      dup3\n        /* \"#utility.yul\":2550:2559   */\n      dup7\n        /* \"#utility.yul\":2546:2568   */\n      add\n        /* \"#utility.yul\":2525:2578   */\n      tag_98\n      jump\t// in\n    tag_146:\n        /* \"#utility.yul\":2515:2578   */\n      swap3\n      pop\n        /* \"#utility.yul\":2471:2588   */\n      pop\n        /* \"#utility.yul\":2627:2629   */\n      0x20\n        /* \"#utility.yul\":2653:2706   */\n      tag_147\n        /* \"#utility.yul\":2698:2705   */\n      dup6\n        /* \"#utility.yul\":2689:2695   */\n      dup3\n        /* \"#utility.yul\":2678:2687   */\n      dup7\n        /* \"#utility.yul\":2674:2696   */\n      add\n        /* \"#utility.yul\":2653:2706   */\n      tag_101\n      jump\t// in\n    tag_147:\n        /* \"#utility.yul\":2643:2706   */\n      swap2\n      pop\n        /* \"#utility.yul\":2598:2716   */\n      pop\n        /* \"#utility.yul\":2249:2723   */\n      swap3\n      pop\n      swap3\n      swap1\n      pop\n      jump\t// out\n        /* \"#utility.yul\":2729:3058   */\n    tag_24:\n        /* \"#utility.yul\":2788:2794   */\n      0x00\n        /* \"#utility.yul\":2837:2839   */\n      0x20\n        /* \"#utility.yul\":2825:2834   */\n      dup3\n        /* \"#utility.yul\":2816:2823   */\n      dup5\n        /* \"#utility.yul\":2812:2835   */\n      sub\n        /* \"#utility.yul\":2808:2840   */\n      slt\n        /* \"#utility.yul\":2805:2924   */\n      iszero\n      tag_149\n      jumpi\n        /* \"#utility.yul\":2843:2922   */\n      tag_150\n      tag_93\n      jump\t// in\n    tag_150:\n        /* \"#utility.yul\":2805:2924   */\n    tag_149:\n        /* \"#utility.yul\":2963:2964   */\n      0x00\n        /* \"#utility.yul\":2988:3041   */\n      tag_151\n        /* \"#utility.yul\":3033:3040   */\n      dup5\n        /* \"#utility.yul\":3024:3030   */\n      dup3\n        /* \"#utility.yul\":3013:3022   */\n      dup6\n        /* \"#utility.yul\":3009:3031   */\n      add\n        /* \"#utility.yul\":2988:3041   */\n      tag_101\n      jump\t// in\n    tag_151:\n        /* \"#utility.yul\":2978:3041   */\n      swap2\n      pop\n        /* \"#utility.yul\":2934:3051   */\n      pop\n        /* \"#utility.yul\":2729:3058   */\n      swap3\n      swap2\n      pop\n      pop\n      jump\t// out\n        /* \"#utility.yul\":3064:3393   */\n    tag_28:\n        /* \"#utility.yul\":3123:3129   */\n      0x00\n        /* \"#utility.yul\":3172:3174   */\n      0x20\n        /* \"#utility.yul\":3160:3169   */\n      dup3\n        /* \"#utility.yul\":3151:3158   */\n      dup5\n        /* \"#utility.yul\":3147:3170   */\n      sub\n        /* \"#utility.yul\":3143:3175   */\n      slt\n        /* \"#utility.yul\":3140:3259   */\n      iszero\n      tag_153\n      jumpi\n        /* \"#utility.yul\":3178:3257   */\n      tag_154\n      tag_93\n      jump\t// in\n    tag_154:\n        /* \"#utility.yul\":3140:3259   */\n    tag_153:\n        /* \"#utility.yul\":3298:3299   */\n      0x00\n        /* \"#utility.yul\":3323:3376   */\n      tag_155\n        /* \"#utility.yul\":3368:3375   */\n      dup5\n        /* \"#utility.yul\":3359:3365   */\n      dup3\n        /* \"#utility.yul\":3348:3357   */\n      dup6\n        /* \"#utility.yul\":3344:3366   */\n      add\n        /* \"#utility.yul\":3323:3376   */\n      tag_98\n      jump\t// in\n    tag_155:\n        /* \"#utility.yul\":3313:3376   */\n      swap2\n      pop\n        /* \"#utility.yul\":3269:3386   */\n      pop\n        /* \"#utility.yul\":3064:3393   */\n      swap3\n      swap2\n      pop\n      pop\n      jump\t// out\n        /* \"#utility.yul\":3399:3517   */\n    tag_104:\n        /* \"#utility.yul\":3486:3510   */\n      tag_157\n        /* \"#utility.yul\":3504:3509   */\n      dup2\n        /* \"#utility.yul\":3486:3510   */\n      tag_99\n      jump\t// in\n    tag_157:\n        /* \"#utility.yul\":3481:3484   */\n      dup3\n        /* \"#utility.yul\":3474:3511   */\n      mstore\n        /* \"#utility.yul\":3399:3517   */\n      pop\n      pop\n      jump\t// out\n        /* \"#utility.yul\":3523:3745   */\n    tag_31:\n        /* \"#utility.yul\":3616:3620   */\n      0x00\n        /* \"#utility.yul\":3654:3656   */\n      0x20\n        /* \"#utility.yul\":3643:3652   */\n      dup3\n        /* \"#utility.yul\":3639:3657   */\n      add\n        /* \"#utility.yul\":3631:3657   */\n      swap1\n      pop\n        /* \"#utility.yul\":3667:3738   */\n      tag_159\n        /* \"#utility.yul\":3735:3736   */\n      0x00\n        /* \"#utility.yul\":3724:3733   */\n      dup4\n        /* \"#utility.yul\":3720:3737   */\n      add\n        /* \"#utility.yul\":3711:3717   */\n      dup5\n        /* \"#utility.yul\":3667:3738   */\n      tag_104\n      jump\t// in\n    tag_159:\n        /* \"#utility.yul\":3523:3745   */\n      swap3\n      swap2\n      pop\n      pop\n      jump\t// out\n        /* \"#utility.yul\":3751:3869   */\n    tag_105:\n        /* \"#utility.yul\":3838:3862   */\n      tag_161\n        /* \"#utility.yul\":3856:3861   */\n      dup2\n        /* \"#utility.yul\":3838:3862   */\n      tag_96\n      jump\t// in\n    tag_161:\n        /* \"#utility.yul\":3833:3836   */\n      dup3\n        /* \"#utility.yul\":3826:3863   */\n      mstore\n        /* \"#utility.yul\":3751:3869   */\n      pop\n      pop\n      jump\t// out\n        /* \"#utility.yul\":3875:4097   */\n    tag_39:\n        /* \"#utility.yul\":3968:3972   */\n      0x00\n        /* \"#utility.yul\":4006:4008   */\n      0x20\n        /* \"#utility.yul\":3995:4004   */\n      dup3\n        /* \"#utility.yul\":3991:4009   */\n      add\n        /* \"#utility.yul\":3983:4009   */\n      swap1\n      pop\n        /* \"#utility.yul\":4019:4090   */\n      tag_163\n        /* \"#utility.yul\":4087:4088   */\n      0x00\n        /* \"#utility.yul\":4076:4085   */\n      dup4\n        /* \"#utility.yul\":4072:4089   */\n      add\n        /* \"#utility.yul\":4063:4069   */\n      dup5\n        /* \"#utility.yul\":4019:4090   */\n      tag_105\n      jump\t// in\n    tag_163:\n        /* \"#utility.yul\":3875:4097   */\n      swap3\n      swap2\n      pop\n      pop\n      jump\t// out\n        /* \"#utility.yul\":4103:4577   */\n    tag_46:\n        /* \"#utility.yul\":4171:4177   */\n      0x00\n        /* \"#utility.yul\":4179:4185   */\n      0x00\n        /* \"#utility.yul\":4228:4230   */\n      0x40\n        /* \"#utility.yul\":4216:4225   */\n      dup4\n        /* \"#utility.yul\":4207:4214   */\n      dup6\n        /* \"#utility.yul\":4203:4226   */\n      sub\n        /* \"#utility.yul\":4199:4231   */\n      slt\n        /* \"#utility.yul\":4196:4315   */\n      iszero\n      tag_165\n      jumpi\n        /* \"#utility.yul\":4234:4313   */\n      tag_166\n      tag_93\n      jump\t// in\n    tag_166:\n        /* \"#utility.yul\":4196:4315   */\n    tag_165:\n        /* \"#utility.yul\":4354:4355   */\n      0x00\n        /* \"#utility.yul\":4379:4432   */\n      tag_167\n        /* \"#utility.yul\":4424:4431   */\n      dup6\n        /* \"#utility.yul\":4415:4421   */\n      dup3\n        /* \"#utility.yul\":4404:4413   */\n      dup7\n        /* \"#utility.yul\":4400:4422   */\n      add\n        /* \"#utility.yul\":4379:4432   */\n      tag_98\n      jump\t// in\n    tag_167:\n        /* \"#utility.yul\":4369:4432   */\n      swap3\n      pop\n        /* \"#utility.yul\":4325:4442   */\n      pop\n        /* \"#utility.yul\":4481:4483   */\n      0x20\n        /* \"#utility.yul\":4507:4560   */\n      tag_168\n        /* \"#utility.yul\":4552:4559   */\n      dup6\n        /* \"#utility.yul\":4543:4549   */\n      dup3\n        /* \"#utility.yul\":4532:4541   */\n      dup7\n        /* \"#utility.yul\":4528:4550   */\n      add\n        /* \"#utility.yul\":4507:4560   */\n      tag_98\n      jump\t// in\n    tag_168:\n        /* \"#utility.yul\":4497:4560   */\n      swap2\n      pop\n        /* \"#utility.yul\":4452:4570   */\n      pop\n        /* \"#utility.yul\":4103:4577   */\n      swap3\n      pop\n      swap3\n      swap1\n      pop\n      jump\t// out\n        /* \"#utility.yul\":4583:4763   */\n    tag_106:\n        /* \"#utility.yul\":4631:4708   */\n      0x4e487b7100000000000000000000000000000000000000000000000000000000\n        /* \"#utility.yul\":4628:4629   */\n      0x00\n        /* \"#utility.yul\":4621:4709   */\n      mstore\n        /* \"#utility.yul\":4728:4732   */\n      0x11\n        /* \"#utility.yul\":4725:4726   */\n      0x04\n        /* \"#utility.yul\":4718:4733   */\n      mstore\n        /* \"#utility.yul\":4752:4756   */\n      0x24\n        /* \"#utility.yul\":4749:4750   */\n      0x00\n        /* \"#utility.yul\":4742:4757   */\n      revert\n        /* \"#utility.yul\":4769:4963   */\n    tag_57:\n        /* \"#utility.yul\":4809:4813   */\n      0x00\n        /* \"#utility.yul\":4829:4849   */\n      tag_171\n        /* \"#utility.yul\":4847:4848   */\n      dup3\n        /* \"#utility.yul\":4829:4849   */\n      tag_99\n      jump\t// in\n    tag_171:\n        /* \"#utility.yul\":4824:4849   */\n      swap2\n      pop\n        /* \"#utility.yul\":4863:4883   */\n      tag_172\n        /* \"#utility.yul\":4881:4882   */\n      dup4\n        /* \"#utility.yul\":4863:4883   */\n      tag_99\n      jump\t// in\n    tag_172:\n        /* \"#utility.yul\":4858:4883   */\n      swap3\n      pop\n        /* \"#utility.yul\":4907:4908   */\n      dup3\n        /* \"#utility.yul\":4904:4905   */\n      dup3\n        /* \"#utility.yul\":4900:4909   */\n      sub\n        /* \"#utility.yul\":4892:4909   */\n      swap1\n      pop\n        /* \"#utility.yul\":4931:4932   */\n      dup2\n        /* \"#utility.yul\":4925:4929   */\n      dup2\n        /* \"#utility.yul\":4922:4933   */\n      gt\n        /* \"#utility.yul\":4919:4956   */\n      iszero\n      tag_173\n      jumpi\n        /* \"#utility.yul\":4936:4954   */\n      tag_174\n      tag_106\n      jump\t// in\n    tag_174:\n        /* \"#utility.yul\":4919:4956   */\n    tag_173:\n        /* \"#utility.yul\":4769:4963   */\n      swap3\n      swap2\n      pop\n      pop\n      jump\t// out\n        /* \"#utility.yul\":4969:5160   */\n    tag_59:\n        /* \"#utility.yul\":5009:5012   */\n      0x00\n        /* \"#utility.yul\":5028:5048   */\n      tag_176\n        /* \"#utility.yul\":5046:5047   */\n      dup3\n        /* \"#utility.yul\":5028:5048   */\n      tag_99\n      jump\t// in\n    tag_176:\n        /* \"#utility.yul\":5023:5048   */\n      swap2\n      pop\n        /* \"#utility.yul\":5062:5082   */\n      tag_177\n        /* \"#utility.yul\":5080:5081   */\n      dup4\n        /* \"#utility.yul\":5062:5082   */\n      tag_99\n      jump\t// in\n    tag_177:\n        /* \"#utility.yul\":5057:5082   */\n      swap3\n      pop\n        /* \"#utility.yul\":5105:5106   */\n      dup3\n        /* \"#utility.yul\":5102:5103   */\n      dup3\n        /* \"#utility.yul\":5098:5107   */\n      add\n        /* \"#utility.yul\":5091:5107   */\n      swap1\n      pop\n        /* \"#utility.yul\":5126:5129   */\n      dup1\n        /* \"#utility.yul\":5123:5124   */\n      dup3\n        /* \"#utility.yul\":5120:5130   */\n      gt\n        /* \"#utility.yul\":5117:5153   */\n      iszero\n      tag_178\n      jumpi\n        /* \"#utility.yul\":5133:5151   */\n      tag_179\n      tag_106\n      jump\t// in\n    tag_179:\n        /* \"#utility.yul\":5117:5153   */\n    tag_178:\n        /* \"#utility.yul\":4969:5160   */\n      swap3\n      swap2\n      pop\n      pop\n      jump\t// out\n        /* \"#utility.yul\":5166:5335   */\n    tag_107:\n        /* \"#utility.yul\":5250:5261   */\n      0x00\n        /* \"#utility.yul\":5284:5290   */\n      dup3\n        /* \"#utility.yul\":5279:5282   */\n      dup3\n        /* \"#utility.yul\":5272:5291   */\n      mstore\n        /* \"#utility.yul\":5324:5328   */\n      0x20\n        /* \"#utility.yul\":5319:5322   */\n      dup3\n        /* \"#utility.yul\":5315:5329   */\n      add\n        /* \"#utility.yul\":5300:5329   */\n      swap1\n      pop\n        /* \"#utility.yul\":5166:5335   */\n      swap3\n      swap2\n      pop\n      pop\n      jump\t// out\n        /* \"#utility.yul\":5341:5515   */\n    tag_108:\n        /* \"#utility.yul\":5481:5507   */\n      0x4f6e6c79206f776e65722063616e2063616c6c20746869730000000000000000\n        /* \"#utility.yul\":5477:5478   */\n      0x00\n        /* \"#utility.yul\":5469:5475   */\n      dup3\n        /* \"#utility.yul\":5465:5479   */\n      add\n        /* \"#utility.yul\":5458:5508   */\n      mstore\n        /* \"#utility.yul\":5341:5515   */\n      pop\n      jump\t// out\n        /* \"#utility.yul\":5521:5887   */\n    tag_109:\n        /* \"#utility.yul\":5663:5666   */\n      0x00\n        /* \"#utility.yul\":5684:5751   */\n      tag_183\n        /* \"#utility.yul\":5748:5750   */\n      0x18\n        /* \"#utility.yul\":5743:5746   */\n      dup4\n        /* \"#utility.yul\":5684:5751   */\n      tag_107\n      jump\t// in\n    tag_183:\n        /* \"#utility.yul\":5677:5751   */\n      swap2\n      pop\n        /* \"#utility.yul\":5760:5853   */\n      tag_184\n        /* \"#utility.yul\":5849:5852   */\n      dup3\n        /* \"#utility.yul\":5760:5853   */\n      tag_108\n      jump\t// in\n    tag_184:\n        /* \"#utility.yul\":5878:5880   */\n      0x20\n        /* \"#utility.yul\":5873:5876   */\n      dup3\n        /* \"#utility.yul\":5869:5881   */\n      add\n        /* \"#utility.yul\":5862:5881   */\n      swap1\n      pop\n        /* \"#utility.yul\":5521:5887   */\n      swap2\n      swap1\n      pop\n      jump\t// out\n        /* \"#utility.yul\":5893:6312   */\n    tag_65:\n        /* \"#utility.yul\":6059:6063   */\n      0x00\n        /* \"#utility.yul\":6097:6099   */\n      0x20\n        /* \"#utility.yul\":6086:6095   */\n      dup3\n        /* \"#utility.yul\":6082:6100   */\n      add\n        /* \"#utility.yul\":6074:6100   */\n      swap1\n      pop\n        /* \"#utility.yul\":6146:6155   */\n      dup2\n        /* \"#utility.yul\":6140:6144   */\n      dup2\n        /* \"#utility.yul\":6136:6156   */\n      sub\n        /* \"#utility.yul\":6132:6133   */\n      0x00\n        /* \"#utility.yul\":6121:6130   */\n      dup4\n        /* \"#utility.yul\":6117:6134   */\n      add\n        /* \"#utility.yul\":6110:6157   */\n      mstore\n        /* \"#utility.yul\":6174:6305   */\n      tag_186\n        /* \"#utility.yul\":6300:6304   */\n      dup2\n        /* \"#utility.yul\":6174:6305   */\n      tag_109\n      jump\t// in\n    tag_186:\n        /* \"#utility.yul\":6166:6305   */\n      swap1\n      pop\n        /* \"#utility.yul\":5893:6312   */\n      swap2\n      swap1\n      pop\n      jump\t// out\n        /* \"#utility.yul\":6318:6417   */\n    tag_110:\n        /* \"#utility.yul\":6370:6376   */\n      0x00\n        /* \"#utility.yul\":6404:6409   */\n      dup2\n        /* \"#utility.yul\":6398:6410   */\n      mload\n        /* \"#utility.yul\":6388:6410   */\n      swap1\n      pop\n        /* \"#utility.yul\":6318:6417   */\n      swap2\n      swap1\n      pop\n      jump\t// out\n        /* \"#utility.yul\":6423:6562   */\n    tag_111:\n        /* \"#utility.yul\":6512:6518   */\n      dup3\n        /* \"#utility.yul\":6507:6510   */\n      dup2\n        /* \"#utility.yul\":6502:6505   */\n      dup4\n        /* \"#utility.yul\":6496:6519   */\n      mcopy\n        /* \"#utility.yul\":6553:6554   */\n      0x00\n        /* \"#utility.yul\":6544:6550   */\n      dup4\n        /* \"#utility.yul\":6539:6542   */\n      dup4\n        /* \"#utility.yul\":6535:6551   */\n      add\n        /* \"#utility.yul\":6528:6555   */\n      mstore\n        /* \"#utility.yul\":6423:6562   */\n      pop\n      pop\n      pop\n      jump\t// out\n        /* \"#utility.yul\":6568:6670   */\n    tag_112:\n        /* \"#utility.yul\":6609:6615   */\n      0x00\n        /* \"#utility.yul\":6660:6662   */\n      0x1f\n        /* \"#utility.yul\":6656:6663   */\n      not\n        /* \"#utility.yul\":6651:6653   */\n      0x1f\n        /* \"#utility.yul\":6644:6649   */\n      dup4\n        /* \"#utility.yul\":6640:6654   */\n      add\n        /* \"#utility.yul\":6636:6664   */\n      and\n        /* \"#utility.yul\":6626:6664   */\n      swap1\n      pop\n        /* \"#utility.yul\":6568:6670   */\n      swap2\n      swap1\n      pop\n      jump\t// out\n        /* \"#utility.yul\":6676:7053   */\n    tag_113:\n        /* \"#utility.yul\":6764:6767   */\n      0x00\n        /* \"#utility.yul\":6792:6831   */\n      tag_191\n        /* \"#utility.yul\":6825:6830   */\n      dup3\n        /* \"#utility.yul\":6792:6831   */\n      tag_110\n      jump\t// in\n    tag_191:\n        /* \"#utility.yul\":6847:6918   */\n      tag_192\n        /* \"#utility.yul\":6911:6917   */\n      dup2\n        /* \"#utility.yul\":6906:6909   */\n      dup6\n        /* \"#utility.yul\":6847:6918   */\n      tag_107\n      jump\t// in\n    tag_192:\n        /* \"#utility.yul\":6840:6918   */\n      swap4\n      pop\n        /* \"#utility.yul\":6927:6992   */\n      tag_193\n        /* \"#utility.yul\":6985:6991   */\n      dup2\n        /* \"#utility.yul\":6980:6983   */\n      dup6\n        /* \"#utility.yul\":6973:6977   */\n      0x20\n        /* \"#utility.yul\":6966:6971   */\n      dup7\n        /* \"#utility.yul\":6962:6978   */\n      add\n        /* \"#utility.yul\":6927:6992   */\n      tag_111\n      jump\t// in\n    tag_193:\n        /* \"#utility.yul\":7017:7046   */\n      tag_194\n        /* \"#utility.yul\":7039:7045   */\n      dup2\n        /* \"#utility.yul\":7017:7046   */\n      tag_112\n      jump\t// in\n    tag_194:\n        /* \"#utility.yul\":7012:7015   */\n      dup5\n        /* \"#utility.yul\":7008:7047   */\n      add\n        /* \"#utility.yul\":7001:7047   */\n      swap2\n      pop\n        /* \"#utility.yul\":6768:7053   */\n      pop\n        /* \"#utility.yul\":6676:7053   */\n      swap3\n      swap2\n      pop\n      pop\n      jump\t// out\n        /* \"#utility.yul\":7059:7372   */\n    tag_88:\n        /* \"#utility.yul\":7172:7176   */\n      0x00\n        /* \"#utility.yul\":7210:7212   */\n      0x20\n        /* \"#utility.yul\":7199:7208   */\n      dup3\n        /* \"#utility.yul\":7195:7213   */\n      add\n        /* \"#utility.yul\":7187:7213   */\n      swap1\n      pop\n        /* \"#utility.yul\":7259:7268   */\n      dup2\n        /* \"#utility.yul\":7253:7257   */\n      dup2\n        /* \"#utility.yul\":7249:7269   */\n      sub\n        /* \"#utility.yul\":7245:7246   */\n      0x00\n        /* \"#utility.yul\":7234:7243   */\n      dup4\n        /* \"#utility.yul\":7230:7247   */\n      add\n        /* \"#utility.yul\":7223:7270   */\n      mstore\n        /* \"#utility.yul\":7287:7365   */\n      tag_196\n        /* \"#utility.yul\":7360:7364   */\n      dup2\n        /* \"#utility.yul\":7351:7357   */\n      dup5\n        /* \"#utility.yul\":7287:7365   */\n      tag_113\n      jump\t// in\n    tag_196:\n        /* \"#utility.yul\":7279:7365   */\n      swap1\n      pop\n        /* \"#utility.yul\":7059:7372   */\n      swap3\n      swap2\n      pop\n      pop\n      jump\t// out\n\n    auxdata: 0xa2646970667358221220f31f6afc416c5fbe818d2bd6a2d9a36efc187475a7fbcc5316bf7b230a910b7964736f6c634300081e0033\n}\n",
				"bytecode": {
					"linkReferences": {},
					"object": "60806040526040518060400160405280600781526020017f4d79546f6b656e000000000000000000000000000000000000000000000000008152505f90816100479190610407565b506040518060400160405280600381526020017f4d544b00000000000000000000000000000000000000000000000000000000008152506001908161008c9190610407565b50348015610098575f5ffd5b5060405161178338038061178383398181016040528101906100ba9190610504565b6012600a6100c89190610697565b816100d391906106e1565b6002819055503360055f6101000a81548173ffffffffffffffffffffffffffffffffffffffff021916908373ffffffffffffffffffffffffffffffffffffffff16021790555060025460035f3373ffffffffffffffffffffffffffffffffffffffff1673ffffffffffffffffffffffffffffffffffffffff1681526020019081526020015f20819055503373ffffffffffffffffffffffffffffffffffffffff165f73ffffffffffffffffffffffffffffffffffffffff167fddf252ad1be2c89b69c2b068fc378daa952ba7f163c4a11628f55a4df523b3ef6002546040516101bc9190610731565b60405180910390a35061074a565b5f81519050919050565b7f4e487b71000000000000000000000000000000000000000000000000000000005f52604160045260245ffd5b7f4e487b71000000000000000000000000000000000000000000000000000000005f52602260045260245ffd5b5f600282049050600182168061024557607f821691505b60208210810361025857610257610201565b5b50919050565b5f819050815f5260205f209050919050565b5f6020601f8301049050919050565b5f82821b905092915050565b5f600883026102ba7fffffffffffffffffffffffffffffffffffffffffffffffffffffffffffffffff8261027f565b6102c4868361027f565b95508019841693508086168417925050509392505050565b5f819050919050565b5f819050919050565b5f6103086103036102fe846102dc565b6102e5565b6102dc565b9050919050565b5f819050919050565b610321836102ee565b61033561032d8261030f565b84845461028b565b825550505050565b5f5f905090565b61034c61033d565b610357818484610318565b505050565b5b8181101561037a5761036f5f82610344565b60018101905061035d565b5050565b601f8211156103bf576103908161025e565b61039984610270565b810160208510156103a8578190505b6103bc6103b485610270565b83018261035c565b50505b505050565b5f82821c905092915050565b5f6103df5f19846008026103c4565b1980831691505092915050565b5f6103f783836103d0565b9150826002028217905092915050565b610410826101ca565b67ffffffffffffffff811115610429576104286101d4565b5b610433825461022e565b61043e82828561037e565b5f60209050601f83116001811461046f575f841561045d578287015190505b61046785826103ec565b8655506104ce565b601f19841661047d8661025e565b5f5b828110156104a45784890151825560018201915060208501945060208101905061047f565b868310156104c157848901516104bd601f8916826103d0565b8355505b6001600288020188555050505b505050505050565b5f5ffd5b6104e3816102dc565b81146104ed575f5ffd5b50565b5f815190506104fe816104da565b92915050565b5f60208284031215610519576105186104d6565b5b5f610526848285016104f0565b91505092915050565b7f4e487b71000000000000000000000000000000000000000000000000000000005f52601160045260245ffd5b5f8160011c9050919050565b5f5f8291508390505b60018511156105b15780860481111561058d5761058c61052f565b5b600185161561059c5780820291505b80810290506105aa8561055c565b9450610571565b94509492505050565b5f826105c95760019050610684565b816105d6575f9050610684565b81600181146105ec57600281146105f657610625565b6001915050610684565b60ff8411156106085761060761052f565b5b8360020a91508482111561061f5761061e61052f565b5b50610684565b5060208310610133831016604e8410600b841016171561065a5782820a9050838111156106555761065461052f565b5b610684565b6106678484846001610568565b9250905081840481111561067e5761067d61052f565b5b81810290505b9392505050565b5f60ff82169050919050565b5f6106a1826102dc565b91506106ac8361068b565b92506106d97fffffffffffffffffffffffffffffffffffffffffffffffffffffffffffffffff84846105ba565b905092915050565b5f6106eb826102dc565b91506106f6836102dc565b9250828202610704816102dc565b9150828204841483151761071b5761071a61052f565b5b5092915050565b61072b816102dc565b82525050565b5f6020820190506107445f830184610722565b92915050565b61102c806107575f395ff3fe608060405234801561000f575f5ffd5b5060043610610086575f3560e01c806375247a581161005957806375247a58146101225780638da5cb5b14610152578063a9059cbb14610170578063dd62ed3e146101a057610086565b806323b872dd1461008a57806340c10f19146100ba57806342966c68146100d657806370a08231146100f2575b5f5ffd5b6100a4600480360381019061009f9190610cc6565b6101d0565b6040516100b19190610d30565b60405180910390f35b6100d460048036038101906100cf9190610d49565b610528565b005b6100f060048036038101906100eb9190610d87565b6106ca565b005b61010c60048036038101906101079190610db2565b61081a565b6040516101199190610dec565b60405180910390f35b61013c60048036038101906101379190610d49565b61082f565b6040516101499190610d30565b60405180910390f35b61015a61095b565b6040516101679190610e14565b60405180910390f35b61018a60048036038101906101859190610d49565b610980565b6040516101979190610d30565b60405180910390f35b6101ba60048036038101906101b59190610e2d565b610b52565b6040516101c79190610dec565b60405180910390f35b5f610210846040518060400160405280601181526020017f46726f6d207a65726f2061646472657373000000000000000000000000000000815250610b72565b61024f836040518060400160405280600f81526020017f546f207a65726f20616464726573730000000000000000000000000000000000815250610b72565b6102cc60035f8673ffffffffffffffffffffffffffffffffffffffff1673ffffffffffffffffffffffffffffffffffffffff1681526020019081526020015f2054836040518060400160405280601481526020017f496e73756666696369656e742062616c616e6365000000000000000000000000815250610be9565b61038460045f8673ffffffffffffffffffffffffffffffffffffffff1673ffffffffffffffffffffffffffffffffffffffff1681526020019081526020015f205f3373ffffffffffffffffffffffffffffffffffffffff1673ffffffffffffffffffffffffffffffffffffffff1681526020019081526020015f2054836040518060400160405280601681526020017f496e73756666696369656e7420616c6c6f776e61636500000000000000000000815250610be9565b8160035f8673ffffffffffffffffffffffffffffffffffffffff1673ffffffffffffffffffffffffffffffffffffffff1681526020019081526020015f205f8282546103d09190610e98565b925050819055508160035f8573ffffffffffffffffffffffffffffffffffffffff1673ffffffffffffffffffffffffffffffffffffffff1681526020019081526020015f205f8282546104239190610ecb565b925050819055508160045f8673ffffffffffffffffffffffffffffffffffffffff1673ffffffffffffffffffffffffffffffffffffffff1681526020019081526020015f205f3373ffffffffffffffffffffffffffffffffffffffff1673ffffffffffffffffffffffffffffffffffffffff1681526020019081526020015f205f8282546104b19190610e98565b925050819055508273ffffffffffffffffffffffffffffffffffffffff168473ffffffffffffffffffffffffffffffffffffffff167fddf252ad1be2c89b69c2b068fc378daa952ba7f163c4a11628f55a4df523b3ef846040516105159190610dec565b60405180910390a3600190509392505050565b60055f9054906101000a900473ffffffffffffffffffffffffffffffffffffffff1673ffffffffffffffffffffffffffffffffffffffff163373ffffffffffffffffffffffffffffffffffffffff16146105b7576040517f08c379a00000000000000000000000000000000000000000000000000000000081526004016105ae90610f58565b60405180910390fd5b6105f6826040518060400160405280601481526020017f4d696e7420746f207a65726f2061646472657373000000000000000000000000815250610b72565b8060025f8282546106079190610ecb565b925050819055508060035f8473ffffffffffffffffffffffffffffffffffffffff1673ffffffffffffffffffffffffffffffffffffffff1681526020019081526020015f205f82825461065a9190610ecb565b925050819055508173ffffffffffffffffffffffffffffffffffffffff165f73ffffffffffffffffffffffffffffffffffffffff167fddf252ad1be2c89b69c2b068fc378daa952ba7f163c4a11628f55a4df523b3ef836040516106be9190610dec565b60405180910390a35050565b61074760035f3373ffffffffffffffffffffffffffffffffffffffff1673ffffffffffffffffffffffffffffffffffffffff1681526020019081526020015f2054826040518060400160405280601981526020017f496e73756666696369656e74206275726e2062616c616e636500000000000000815250610be9565b8060025f8282546107589190610e98565b925050819055508060035f3373ffffffffffffffffffffffffffffffffffffffff1673ffffffffffffffffffffffffffffffffffffffff1681526020019081526020015f205f8282546107ab9190610e98565b925050819055505f73ffffffffffffffffffffffffffffffffffffffff163373ffffffffffffffffffffffffffffffffffffffff167fddf252ad1be2c89b69c2b068fc378daa952ba7f163c4a11628f55a4df523b3ef8360405161080f9190610dec565b60405180910390a350565b6003602052805f5260405f205f915090505481565b5f61086f836040518060400160405280601481526020017f5370656e646572207a65726f2061646472657373000000000000000000000000815250610b72565b8160045f3373ffffffffffffffffffffffffffffffffffffffff1673ffffffffffffffffffffffffffffffffffffffff1681526020019081526020015f205f8573ffffffffffffffffffffffffffffffffffffffff1673ffffffffffffffffffffffffffffffffffffffff1681526020019081526020015f20819055508273ffffffffffffffffffffffffffffffffffffffff163373ffffffffffffffffffffffffffffffffffffffff167f8c5be1e5ebec7d5bd14f71427d1e84f3dd0314c0f7b2291e5b200ac8c7c3b925846040516109499190610dec565b60405180910390a36001905092915050565b60055f9054906101000a900473ffffffffffffffffffffffffffffffffffffffff1681565b5f6109c0836040518060400160405280600f81526020017f544f207a65726f20616464726573730000000000000000000000000000000000815250610b72565b610a3d60035f3373ffffffffffffffffffffffffffffffffffffffff1673ffffffffffffffffffffffffffffffffffffffff1681526020019081526020015f2054836040518060400160405280601481526020017f496e73756666696369656e742062616c616e6365000000000000000000000000815250610be9565b8160035f3373ffffffffffffffffffffffffffffffffffffffff1673ffffffffffffffffffffffffffffffffffffffff1681526020019081526020015f205f828254610a899190610e98565b925050819055508160035f8573ffffffffffffffffffffffffffffffffffffffff1673ffffffffffffffffffffffffffffffffffffffff1681526020019081526020015f205f828254610adc9190610ecb565b925050819055508273ffffffffffffffffffffffffffffffffffffffff163373ffffffffffffffffffffffffffffffffffffffff167fddf252ad1be2c89b69c2b068fc378daa952ba7f163c4a11628f55a4df523b3ef84604051610b409190610dec565b60405180910390a36001905092915050565b6004602052815f5260405f20602052805f5260405f205f91509150505481565b5f73ffffffffffffffffffffffffffffffffffffffff168273ffffffffffffffffffffffffffffffffffffffff1614158190610be4576040517f08c379a0000000000000000000000000000000000000000000000000000000008152600401610bdb9190610fd6565b60405180910390fd5b505050565b818310158190610c2f576040517f08c379a0000000000000000000000000000000000000000000000000000000008152600401610c269190610fd6565b60405180910390fd5b50505050565b5f5ffd5b5f73ffffffffffffffffffffffffffffffffffffffff82169050919050565b5f610c6282610c39565b9050919050565b610c7281610c58565b8114610c7c575f5ffd5b50565b5f81359050610c8d81610c69565b92915050565b5f819050919050565b610ca581610c93565b8114610caf575f5ffd5b50565b5f81359050610cc081610c9c565b92915050565b5f5f5f60608486031215610cdd57610cdc610c35565b5b5f610cea86828701610c7f565b9350506020610cfb86828701610c7f565b9250506040610d0c86828701610cb2565b9150509250925092565b5f8115159050919050565b610d2a81610d16565b82525050565b5f602082019050610d435f830184610d21565b92915050565b5f5f60408385031215610d5f57610d5e610c35565b5b5f610d6c85828601610c7f565b9250506020610d7d85828601610cb2565b9150509250929050565b5f60208284031215610d9c57610d9b610c35565b5b5f610da984828501610cb2565b91505092915050565b5f60208284031215610dc757610dc6610c35565b5b5f610dd484828501610c7f565b91505092915050565b610de681610c93565b82525050565b5f602082019050610dff5f830184610ddd565b92915050565b610e0e81610c58565b82525050565b5f602082019050610e275f830184610e05565b92915050565b5f5f60408385031215610e4357610e42610c35565b5b5f610e5085828601610c7f565b9250506020610e6185828601610c7f565b9150509250929050565b7f4e487b71000000000000000000000000000000000000000000000000000000005f52601160045260245ffd5b5f610ea282610c93565b9150610ead83610c93565b9250828203905081811115610ec557610ec4610e6b565b5b92915050565b5f610ed582610c93565b9150610ee083610c93565b9250828201905080821115610ef857610ef7610e6b565b5b92915050565b5f82825260208201905092915050565b7f4f6e6c79206f776e65722063616e2063616c6c207468697300000000000000005f82015250565b5f610f42601883610efe565b9150610f4d82610f0e565b602082019050919050565b5f6020820190508181035f830152610f6f81610f36565b9050919050565b5f81519050919050565b8281835e5f83830152505050565b5f601f19601f8301169050919050565b5f610fa882610f76565b610fb28185610efe565b9350610fc2818560208601610f80565b610fcb81610f8e565b840191505092915050565b5f6020820190508181035f830152610fee8184610f9e565b90509291505056fea2646970667358221220f31f6afc416c5fbe818d2bd6a2d9a36efc187475a7fbcc5316bf7b230a910b7964736f6c634300081e0033",
					"opcodes": "PUSH1 0x80 PUSH1 0x40 MSTORE PUSH1 0x40 MLOAD DUP1 PUSH1 0x40 ADD PUSH1 0x40 MSTORE DUP1 PUSH1 0x7 DUP2 MSTORE PUSH1 0x20 ADD PUSH32 0x4D79546F6B656E00000000000000000000000000000000000000000000000000 DUP2 MSTORE POP PUSH0 SWAP1 DUP2 PUSH2 0x47 SWAP2 SWAP1 PUSH2 0x407 JUMP JUMPDEST POP PUSH1 0x40 MLOAD DUP1 PUSH1 0x40 ADD PUSH1 0x40 MSTORE DUP1 PUSH1 0x3 DUP2 MSTORE PUSH1 0x20 ADD PUSH32 0x4D544B0000000000000000000000000000000000000000000000000000000000 DUP2 MSTORE POP PUSH1 0x1 SWAP1 DUP2 PUSH2 0x8C SWAP2 SWAP1 PUSH2 0x407 JUMP JUMPDEST POP CALLVALUE DUP1 ISZERO PUSH2 0x98 JUMPI PUSH0 PUSH0 REVERT JUMPDEST POP PUSH1 0x40 MLOAD PUSH2 0x1783 CODESIZE SUB DUP1 PUSH2 0x1783 DUP4 CODECOPY DUP2 DUP2 ADD PUSH1 0x40 MSTORE DUP2 ADD SWAP1 PUSH2 0xBA SWAP2 SWAP1 PUSH2 0x504 JUMP JUMPDEST PUSH1 0x12 PUSH1 0xA PUSH2 0xC8 SWAP2 SWAP1 PUSH2 0x697 JUMP JUMPDEST DUP2 PUSH2 0xD3 SWAP2 SWAP1 PUSH2 0x6E1 JUMP JUMPDEST PUSH1 0x2 DUP2 SWAP1 SSTORE POP CALLER PUSH1 0x5 PUSH0 PUSH2 0x100 EXP DUP2 SLOAD DUP2 PUSH20 0xFFFFFFFFFFFFFFFFFFFFFFFFFFFFFFFFFFFFFFFF MUL NOT AND SWAP1 DUP4 PUSH20 0xFFFFFFFFFFFFFFFFFFFFFFFFFFFFFFFFFFFFFFFF AND MUL OR SWAP1 SSTORE POP PUSH1 0x2 SLOAD PUSH1 0x3 PUSH0 CALLER PUSH20 0xFFFFFFFFFFFFFFFFFFFFFFFFFFFFFFFFFFFFFFFF AND PUSH20 0xFFFFFFFFFFFFFFFFFFFFFFFFFFFFFFFFFFFFFFFF AND DUP2 MSTORE PUSH1 0x20 ADD SWAP1 DUP2 MSTORE PUSH1 0x20 ADD PUSH0 KECCAK256 DUP2 SWAP1 SSTORE POP CALLER PUSH20 0xFFFFFFFFFFFFFFFFFFFFFFFFFFFFFFFFFFFFFFFF AND PUSH0 PUSH20 0xFFFFFFFFFFFFFFFFFFFFFFFFFFFFFFFFFFFFFFFF AND PUSH32 0xDDF252AD1BE2C89B69C2B068FC378DAA952BA7F163C4A11628F55A4DF523B3EF PUSH1 0x2 SLOAD PUSH1 0x40 MLOAD PUSH2 0x1BC SWAP2 SWAP1 PUSH2 0x731 JUMP JUMPDEST PUSH1 0x40 MLOAD DUP1 SWAP2 SUB SWAP1 LOG3 POP PUSH2 0x74A JUMP JUMPDEST PUSH0 DUP2 MLOAD SWAP1 POP SWAP2 SWAP1 POP JUMP JUMPDEST PUSH32 0x4E487B7100000000000000000000000000000000000000000000000000000000 PUSH0 MSTORE PUSH1 0x41 PUSH1 0x4 MSTORE PUSH1 0x24 PUSH0 REVERT JUMPDEST PUSH32 0x4E487B7100000000000000000000000000000000000000000000000000000000 PUSH0 MSTORE PUSH1 0x22 PUSH1 0x4 MSTORE PUSH1 0x24 PUSH0 REVERT JUMPDEST PUSH0 PUSH1 0x2 DUP3 DIV SWAP1 POP PUSH1 0x1 DUP3 AND DUP1 PUSH2 0x245 JUMPI PUSH1 0x7F DUP3 AND SWAP2 POP JUMPDEST PUSH1 0x20 DUP3 LT DUP2 SUB PUSH2 0x258 JUMPI PUSH2 0x257 PUSH2 0x201 JUMP JUMPDEST JUMPDEST POP SWAP2 SWAP1 POP JUMP JUMPDEST PUSH0 DUP2 SWAP1 POP DUP2 PUSH0 MSTORE PUSH1 0x20 PUSH0 KECCAK256 SWAP1 POP SWAP2 SWAP1 POP JUMP JUMPDEST PUSH0 PUSH1 0x20 PUSH1 0x1F DUP4 ADD DIV SWAP1 POP SWAP2 SWAP1 POP JUMP JUMPDEST PUSH0 DUP3 DUP3 SHL SWAP1 POP SWAP3 SWAP2 POP POP JUMP JUMPDEST PUSH0 PUSH1 0x8 DUP4 MUL PUSH2 0x2BA PUSH32 0xFFFFFFFFFFFFFFFFFFFFFFFFFFFFFFFFFFFFFFFFFFFFFFFFFFFFFFFFFFFFFFFF DUP3 PUSH2 0x27F JUMP JUMPDEST PUSH2 0x2C4 DUP7 DUP4 PUSH2 0x27F JUMP JUMPDEST SWAP6 POP DUP1 NOT DUP5 AND SWAP4 POP DUP1 DUP7 AND DUP5 OR SWAP3 POP POP POP SWAP4 SWAP3 POP POP POP JUMP JUMPDEST PUSH0 DUP2 SWAP1 POP SWAP2 SWAP1 POP JUMP JUMPDEST PUSH0 DUP2 SWAP1 POP SWAP2 SWAP1 POP JUMP JUMPDEST PUSH0 PUSH2 0x308 PUSH2 0x303 PUSH2 0x2FE DUP5 PUSH2 0x2DC JUMP JUMPDEST PUSH2 0x2E5 JUMP JUMPDEST PUSH2 0x2DC JUMP JUMPDEST SWAP1 POP SWAP2 SWAP1 POP JUMP JUMPDEST PUSH0 DUP2 SWAP1 POP SWAP2 SWAP1 POP JUMP JUMPDEST PUSH2 0x321 DUP4 PUSH2 0x2EE JUMP JUMPDEST PUSH2 0x335 PUSH2 0x32D DUP3 PUSH2 0x30F JUMP JUMPDEST DUP5 DUP5 SLOAD PUSH2 0x28B JUMP JUMPDEST DUP3 SSTORE POP POP POP POP JUMP JUMPDEST PUSH0 PUSH0 SWAP1 POP SWAP1 JUMP JUMPDEST PUSH2 0x34C PUSH2 0x33D JUMP JUMPDEST PUSH2 0x357 DUP2 DUP5 DUP5 PUSH2 0x318 JUMP JUMPDEST POP POP POP JUMP JUMPDEST JUMPDEST DUP2 DUP2 LT ISZERO PUSH2 0x37A JUMPI PUSH2 0x36F PUSH0 DUP3 PUSH2 0x344 JUMP JUMPDEST PUSH1 0x1 DUP2 ADD SWAP1 POP PUSH2 0x35D JUMP JUMPDEST POP POP JUMP JUMPDEST PUSH1 0x1F DUP3 GT ISZERO PUSH2 0x3BF JUMPI PUSH2 0x390 DUP2 PUSH2 0x25E JUMP JUMPDEST PUSH2 0x399 DUP5 PUSH2 0x270 JUMP JUMPDEST DUP2 ADD PUSH1 0x20 DUP6 LT ISZERO PUSH2 0x3A8 JUMPI DUP2 SWAP1 POP JUMPDEST PUSH2 0x3BC PUSH2 0x3B4 DUP6 PUSH2 0x270 JUMP JUMPDEST DUP4 ADD DUP3 PUSH2 0x35C JUMP JUMPDEST POP POP JUMPDEST POP POP POP JUMP JUMPDEST PUSH0 DUP3 DUP3 SHR SWAP1 POP SWAP3 SWAP2 POP POP JUMP JUMPDEST PUSH0 PUSH2 0x3DF PUSH0 NOT DUP5 PUSH1 0x8 MUL PUSH2 0x3C4 JUMP JUMPDEST NOT DUP1 DUP4 AND SWAP2 POP POP SWAP3 SWAP2 POP POP JUMP JUMPDEST PUSH0 PUSH2 0x3F7 DUP4 DUP4 PUSH2 0x3D0 JUMP JUMPDEST SWAP2 POP DUP3 PUSH1 0x2 MUL DUP3 OR SWAP1 POP SWAP3 SWAP2 POP POP JUMP JUMPDEST PUSH2 0x410 DUP3 PUSH2 0x1CA JUMP JUMPDEST PUSH8 0xFFFFFFFFFFFFFFFF DUP2 GT ISZERO PUSH2 0x429 JUMPI PUSH2 0x428 PUSH2 0x1D4 JUMP JUMPDEST JUMPDEST PUSH2 0x433 DUP3 SLOAD PUSH2 0x22E JUMP JUMPDEST PUSH2 0x43E DUP3 DUP3 DUP6 PUSH2 0x37E JUMP JUMPDEST PUSH0 PUSH1 0x20 SWAP1 POP PUSH1 0x1F DUP4 GT PUSH1 0x1 DUP2 EQ PUSH2 0x46F JUMPI PUSH0 DUP5 ISZERO PUSH2 0x45D JUMPI DUP3 DUP8 ADD MLOAD SWAP1 POP JUMPDEST PUSH2 0x467 DUP6 DUP3 PUSH2 0x3EC JUMP JUMPDEST DUP7 SSTORE POP PUSH2 0x4CE JUMP JUMPDEST PUSH1 0x1F NOT DUP5 AND PUSH2 0x47D DUP7 PUSH2 0x25E JUMP JUMPDEST PUSH0 JUMPDEST DUP3 DUP2 LT ISZERO PUSH2 0x4A4 JUMPI DUP5 DUP10 ADD MLOAD DUP3 SSTORE PUSH1 0x1 DUP3 ADD SWAP2 POP PUSH1 0x20 DUP6 ADD SWAP5 POP PUSH1 0x20 DUP2 ADD SWAP1 POP PUSH2 0x47F JUMP JUMPDEST DUP7 DUP4 LT ISZERO PUSH2 0x4C1 JUMPI DUP5 DUP10 ADD MLOAD PUSH2 0x4BD PUSH1 0x1F DUP10 AND DUP3 PUSH2 0x3D0 JUMP JUMPDEST DUP4 SSTORE POP JUMPDEST PUSH1 0x1 PUSH1 0x2 DUP9 MUL ADD DUP9 SSTORE POP POP POP JUMPDEST POP POP POP POP POP POP JUMP JUMPDEST PUSH0 PUSH0 REVERT JUMPDEST PUSH2 0x4E3 DUP2 PUSH2 0x2DC JUMP JUMPDEST DUP2 EQ PUSH2 0x4ED JUMPI PUSH0 PUSH0 REVERT JUMPDEST POP JUMP JUMPDEST PUSH0 DUP2 MLOAD SWAP1 POP PUSH2 0x4FE DUP2 PUSH2 0x4DA JUMP JUMPDEST SWAP3 SWAP2 POP POP JUMP JUMPDEST PUSH0 PUSH1 0x20 DUP3 DUP5 SUB SLT ISZERO PUSH2 0x519 JUMPI PUSH2 0x518 PUSH2 0x4D6 JUMP JUMPDEST JUMPDEST PUSH0 PUSH2 0x526 DUP5 DUP3 DUP6 ADD PUSH2 0x4F0 JUMP JUMPDEST SWAP2 POP POP SWAP3 SWAP2 POP POP JUMP JUMPDEST PUSH32 0x4E487B7100000000000000000000000000000000000000000000000000000000 PUSH0 MSTORE PUSH1 0x11 PUSH1 0x4 MSTORE PUSH1 0x24 PUSH0 REVERT JUMPDEST PUSH0 DUP2 PUSH1 0x1 SHR SWAP1 POP SWAP2 SWAP1 POP JUMP JUMPDEST PUSH0 PUSH0 DUP3 SWAP2 POP DUP4 SWAP1 POP JUMPDEST PUSH1 0x1 DUP6 GT ISZERO PUSH2 0x5B1 JUMPI DUP1 DUP7 DIV DUP2 GT ISZERO PUSH2 0x58D JUMPI PUSH2 0x58C PUSH2 0x52F JUMP JUMPDEST JUMPDEST PUSH1 0x1 DUP6 AND ISZERO PUSH2 0x59C JUMPI DUP1 DUP3 MUL SWAP2 POP JUMPDEST DUP1 DUP2 MUL SWAP1 POP PUSH2 0x5AA DUP6 PUSH2 0x55C JUMP JUMPDEST SWAP5 POP PUSH2 0x571 JUMP JUMPDEST SWAP5 POP SWAP5 SWAP3 POP POP POP JUMP JUMPDEST PUSH0 DUP3 PUSH2 0x5C9 JUMPI PUSH1 0x1 SWAP1 POP PUSH2 0x684 JUMP JUMPDEST DUP2 PUSH2 0x5D6 JUMPI PUSH0 SWAP1 POP PUSH2 0x684 JUMP JUMPDEST DUP2 PUSH1 0x1 DUP2 EQ PUSH2 0x5EC JUMPI PUSH1 0x2 DUP2 EQ PUSH2 0x5F6 JUMPI PUSH2 0x625 JUMP JUMPDEST PUSH1 0x1 SWAP2 POP POP PUSH2 0x684 JUMP JUMPDEST PUSH1 0xFF DUP5 GT ISZERO PUSH2 0x608 JUMPI PUSH2 0x607 PUSH2 0x52F JUMP JUMPDEST JUMPDEST DUP4 PUSH1 0x2 EXP SWAP2 POP DUP5 DUP3 GT ISZERO PUSH2 0x61F JUMPI PUSH2 0x61E PUSH2 0x52F JUMP JUMPDEST JUMPDEST POP PUSH2 0x684 JUMP JUMPDEST POP PUSH1 0x20 DUP4 LT PUSH2 0x133 DUP4 LT AND PUSH1 0x4E DUP5 LT PUSH1 0xB DUP5 LT AND OR ISZERO PUSH2 0x65A JUMPI DUP3 DUP3 EXP SWAP1 POP DUP4 DUP2 GT ISZERO PUSH2 0x655 JUMPI PUSH2 0x654 PUSH2 0x52F JUMP JUMPDEST JUMPDEST PUSH2 0x684 JUMP JUMPDEST PUSH2 0x667 DUP5 DUP5 DUP5 PUSH1 0x1 PUSH2 0x568 JUMP JUMPDEST SWAP3 POP SWAP1 POP DUP2 DUP5 DIV DUP2 GT ISZERO PUSH2 0x67E JUMPI PUSH2 0x67D PUSH2 0x52F JUMP JUMPDEST JUMPDEST DUP2 DUP2 MUL SWAP1 POP JUMPDEST SWAP4 SWAP3 POP POP POP JUMP JUMPDEST PUSH0 PUSH1 0xFF DUP3 AND SWAP1 POP SWAP2 SWAP1 POP JUMP JUMPDEST PUSH0 PUSH2 0x6A1 DUP3 PUSH2 0x2DC JUMP JUMPDEST SWAP2 POP PUSH2 0x6AC DUP4 PUSH2 0x68B JUMP JUMPDEST SWAP3 POP PUSH2 0x6D9 PUSH32 0xFFFFFFFFFFFFFFFFFFFFFFFFFFFFFFFFFFFFFFFFFFFFFFFFFFFFFFFFFFFFFFFF DUP5 DUP5 PUSH2 0x5BA JUMP JUMPDEST SWAP1 POP SWAP3 SWAP2 POP POP JUMP JUMPDEST PUSH0 PUSH2 0x6EB DUP3 PUSH2 0x2DC JUMP JUMPDEST SWAP2 POP PUSH2 0x6F6 DUP4 PUSH2 0x2DC JUMP JUMPDEST SWAP3 POP DUP3 DUP3 MUL PUSH2 0x704 DUP2 PUSH2 0x2DC JUMP JUMPDEST SWAP2 POP DUP3 DUP3 DIV DUP5 EQ DUP4 ISZERO OR PUSH2 0x71B JUMPI PUSH2 0x71A PUSH2 0x52F JUMP JUMPDEST JUMPDEST POP SWAP3 SWAP2 POP POP JUMP JUMPDEST PUSH2 0x72B DUP2 PUSH2 0x2DC JUMP JUMPDEST DUP3 MSTORE POP POP JUMP JUMPDEST PUSH0 PUSH1 0x20 DUP3 ADD SWAP1 POP PUSH2 0x744 PUSH0 DUP4 ADD DUP5 PUSH2 0x722 JUMP JUMPDEST SWAP3 SWAP2 POP POP JUMP JUMPDEST PUSH2 0x102C DUP1 PUSH2 0x757 PUSH0 CODECOPY PUSH0 RETURN INVALID PUSH1 0x80 PUSH1 0x40 MSTORE CALLVALUE DUP1 ISZERO PUSH2 0xF JUMPI PUSH0 PUSH0 REVERT JUMPDEST POP PUSH1 0x4 CALLDATASIZE LT PUSH2 0x86 JUMPI PUSH0 CALLDATALOAD PUSH1 0xE0 SHR DUP1 PUSH4 0x75247A58 GT PUSH2 0x59 JUMPI DUP1 PUSH4 0x75247A58 EQ PUSH2 0x122 JUMPI DUP1 PUSH4 0x8DA5CB5B EQ PUSH2 0x152 JUMPI DUP1 PUSH4 0xA9059CBB EQ PUSH2 0x170 JUMPI DUP1 PUSH4 0xDD62ED3E EQ PUSH2 0x1A0 JUMPI PUSH2 0x86 JUMP JUMPDEST DUP1 PUSH4 0x23B872DD EQ PUSH2 0x8A JUMPI DUP1 PUSH4 0x40C10F19 EQ PUSH2 0xBA JUMPI DUP1 PUSH4 0x42966C68 EQ PUSH2 0xD6 JUMPI DUP1 PUSH4 0x70A08231 EQ PUSH2 0xF2 JUMPI JUMPDEST PUSH0 PUSH0 REVERT JUMPDEST PUSH2 0xA4 PUSH1 0x4 DUP1 CALLDATASIZE SUB DUP2 ADD SWAP1 PUSH2 0x9F SWAP2 SWAP1 PUSH2 0xCC6 JUMP JUMPDEST PUSH2 0x1D0 JUMP JUMPDEST PUSH1 0x40 MLOAD PUSH2 0xB1 SWAP2 SWAP1 PUSH2 0xD30 JUMP JUMPDEST PUSH1 0x40 MLOAD DUP1 SWAP2 SUB SWAP1 RETURN JUMPDEST PUSH2 0xD4 PUSH1 0x4 DUP1 CALLDATASIZE SUB DUP2 ADD SWAP1 PUSH2 0xCF SWAP2 SWAP1 PUSH2 0xD49 JUMP JUMPDEST PUSH2 0x528 JUMP JUMPDEST STOP JUMPDEST PUSH2 0xF0 PUSH1 0x4 DUP1 CALLDATASIZE SUB DUP2 ADD SWAP1 PUSH2 0xEB SWAP2 SWAP1 PUSH2 0xD87 JUMP JUMPDEST PUSH2 0x6CA JUMP JUMPDEST STOP JUMPDEST PUSH2 0x10C PUSH1 0x4 DUP1 CALLDATASIZE SUB DUP2 ADD SWAP1 PUSH2 0x107 SWAP2 SWAP1 PUSH2 0xDB2 JUMP JUMPDEST PUSH2 0x81A JUMP JUMPDEST PUSH1 0x40 MLOAD PUSH2 0x119 SWAP2 SWAP1 PUSH2 0xDEC JUMP JUMPDEST PUSH1 0x40 MLOAD DUP1 SWAP2 SUB SWAP1 RETURN JUMPDEST PUSH2 0x13C PUSH1 0x4 DUP1 CALLDATASIZE SUB DUP2 ADD SWAP1 PUSH2 0x137 SWAP2 SWAP1 PUSH2 0xD49 JUMP JUMPDEST PUSH2 0x82F JUMP JUMPDEST PUSH1 0x40 MLOAD PUSH2 0x149 SWAP2 SWAP1 PUSH2 0xD30 JUMP JUMPDEST PUSH1 0x40 MLOAD DUP1 SWAP2 SUB SWAP1 RETURN JUMPDEST PUSH2 0x15A PUSH2 0x95B JUMP JUMPDEST PUSH1 0x40 MLOAD PUSH2 0x167 SWAP2 SWAP1 PUSH2 0xE14 JUMP JUMPDEST PUSH1 0x40 MLOAD DUP1 SWAP2 SUB SWAP1 RETURN JUMPDEST PUSH2 0x18A PUSH1 0x4 DUP1 CALLDATASIZE SUB DUP2 ADD SWAP1 PUSH2 0x185 SWAP2 SWAP1 PUSH2 0xD49 JUMP JUMPDEST PUSH2 0x980 JUMP JUMPDEST PUSH1 0x40 MLOAD PUSH2 0x197 SWAP2 SWAP1 PUSH2 0xD30 JUMP JUMPDEST PUSH1 0x40 MLOAD DUP1 SWAP2 SUB SWAP1 RETURN JUMPDEST PUSH2 0x1BA PUSH1 0x4 DUP1 CALLDATASIZE SUB DUP2 ADD SWAP1 PUSH2 0x1B5 SWAP2 SWAP1 PUSH2 0xE2D JUMP JUMPDEST PUSH2 0xB52 JUMP JUMPDEST PUSH1 0x40 MLOAD PUSH2 0x1C7 SWAP2 SWAP1 PUSH2 0xDEC JUMP JUMPDEST PUSH1 0x40 MLOAD DUP1 SWAP2 SUB SWAP1 RETURN JUMPDEST PUSH0 PUSH2 0x210 DUP5 PUSH1 0x40 MLOAD DUP1 PUSH1 0x40 ADD PUSH1 0x40 MSTORE DUP1 PUSH1 0x11 DUP2 MSTORE PUSH1 0x20 ADD PUSH32 0x46726F6D207A65726F2061646472657373000000000000000000000000000000 DUP2 MSTORE POP PUSH2 0xB72 JUMP JUMPDEST PUSH2 0x24F DUP4 PUSH1 0x40 MLOAD DUP1 PUSH1 0x40 ADD PUSH1 0x40 MSTORE DUP1 PUSH1 0xF DUP2 MSTORE PUSH1 0x20 ADD PUSH32 0x546F207A65726F20616464726573730000000000000000000000000000000000 DUP2 MSTORE POP PUSH2 0xB72 JUMP JUMPDEST PUSH2 0x2CC PUSH1 0x3 PUSH0 DUP7 PUSH20 0xFFFFFFFFFFFFFFFFFFFFFFFFFFFFFFFFFFFFFFFF AND PUSH20 0xFFFFFFFFFFFFFFFFFFFFFFFFFFFFFFFFFFFFFFFF AND DUP2 MSTORE PUSH1 0x20 ADD SWAP1 DUP2 MSTORE PUSH1 0x20 ADD PUSH0 KECCAK256 SLOAD DUP4 PUSH1 0x40 MLOAD DUP1 PUSH1 0x40 ADD PUSH1 0x40 MSTORE DUP1 PUSH1 0x14 DUP2 MSTORE PUSH1 0x20 ADD PUSH32 0x496E73756666696369656E742062616C616E6365000000000000000000000000 DUP2 MSTORE POP PUSH2 0xBE9 JUMP JUMPDEST PUSH2 0x384 PUSH1 0x4 PUSH0 DUP7 PUSH20 0xFFFFFFFFFFFFFFFFFFFFFFFFFFFFFFFFFFFFFFFF AND PUSH20 0xFFFFFFFFFFFFFFFFFFFFFFFFFFFFFFFFFFFFFFFF AND DUP2 MSTORE PUSH1 0x20 ADD SWAP1 DUP2 MSTORE PUSH1 0x20 ADD PUSH0 KECCAK256 PUSH0 CALLER PUSH20 0xFFFFFFFFFFFFFFFFFFFFFFFFFFFFFFFFFFFFFFFF AND PUSH20 0xFFFFFFFFFFFFFFFFFFFFFFFFFFFFFFFFFFFFFFFF AND DUP2 MSTORE PUSH1 0x20 ADD SWAP1 DUP2 MSTORE PUSH1 0x20 ADD PUSH0 KECCAK256 SLOAD DUP4 PUSH1 0x40 MLOAD DUP1 PUSH1 0x40 ADD PUSH1 0x40 MSTORE DUP1 PUSH1 0x16 DUP2 MSTORE PUSH1 0x20 ADD PUSH32 0x496E73756666696369656E7420616C6C6F776E61636500000000000000000000 DUP2 MSTORE POP PUSH2 0xBE9 JUMP JUMPDEST DUP2 PUSH1 0x3 PUSH0 DUP7 PUSH20 0xFFFFFFFFFFFFFFFFFFFFFFFFFFFFFFFFFFFFFFFF AND PUSH20 0xFFFFFFFFFFFFFFFFFFFFFFFFFFFFFFFFFFFFFFFF AND DUP2 MSTORE PUSH1 0x20 ADD SWAP1 DUP2 MSTORE PUSH1 0x20 ADD PUSH0 KECCAK256 PUSH0 DUP3 DUP3 SLOAD PUSH2 0x3D0 SWAP2 SWAP1 PUSH2 0xE98 JUMP JUMPDEST SWAP3 POP POP DUP2 SWAP1 SSTORE POP DUP2 PUSH1 0x3 PUSH0 DUP6 PUSH20 0xFFFFFFFFFFFFFFFFFFFFFFFFFFFFFFFFFFFFFFFF AND PUSH20 0xFFFFFFFFFFFFFFFFFFFFFFFFFFFFFFFFFFFFFFFF AND DUP2 MSTORE PUSH1 0x20 ADD SWAP1 DUP2 MSTORE PUSH1 0x20 ADD PUSH0 KECCAK256 PUSH0 DUP3 DUP3 SLOAD PUSH2 0x423 SWAP2 SWAP1 PUSH2 0xECB JUMP JUMPDEST SWAP3 POP POP DUP2 SWAP1 SSTORE POP DUP2 PUSH1 0x4 PUSH0 DUP7 PUSH20 0xFFFFFFFFFFFFFFFFFFFFFFFFFFFFFFFFFFFFFFFF AND PUSH20 0xFFFFFFFFFFFFFFFFFFFFFFFFFFFFFFFFFFFFFFFF AND DUP2 MSTORE PUSH1 0x20 ADD SWAP1 DUP2 MSTORE PUSH1 0x20 ADD PUSH0 KECCAK256 PUSH0 CALLER PUSH20 0xFFFFFFFFFFFFFFFFFFFFFFFFFFFFFFFFFFFFFFFF AND PUSH20 0xFFFFFFFFFFFFFFFFFFFFFFFFFFFFFFFFFFFFFFFF AND DUP2 MSTORE PUSH1 0x20 ADD SWAP1 DUP2 MSTORE PUSH1 0x20 ADD PUSH0 KECCAK256 PUSH0 DUP3 DUP3 SLOAD PUSH2 0x4B1 SWAP2 SWAP1 PUSH2 0xE98 JUMP JUMPDEST SWAP3 POP POP DUP2 SWAP1 SSTORE POP DUP3 PUSH20 0xFFFFFFFFFFFFFFFFFFFFFFFFFFFFFFFFFFFFFFFF AND DUP5 PUSH20 0xFFFFFFFFFFFFFFFFFFFFFFFFFFFFFFFFFFFFFFFF AND PUSH32 0xDDF252AD1BE2C89B69C2B068FC378DAA952BA7F163C4A11628F55A4DF523B3EF DUP5 PUSH1 0x40 MLOAD PUSH2 0x515 SWAP2 SWAP1 PUSH2 0xDEC JUMP JUMPDEST PUSH1 0x40 MLOAD DUP1 SWAP2 SUB SWAP1 LOG3 PUSH1 0x1 SWAP1 POP SWAP4 SWAP3 POP POP POP JUMP JUMPDEST PUSH1 0x5 PUSH0 SWAP1 SLOAD SWAP1 PUSH2 0x100 EXP SWAP1 DIV PUSH20 0xFFFFFFFFFFFFFFFFFFFFFFFFFFFFFFFFFFFFFFFF AND PUSH20 0xFFFFFFFFFFFFFFFFFFFFFFFFFFFFFFFFFFFFFFFF AND CALLER PUSH20 0xFFFFFFFFFFFFFFFFFFFFFFFFFFFFFFFFFFFFFFFF AND EQ PUSH2 0x5B7 JUMPI PUSH1 0x40 MLOAD PUSH32 0x8C379A000000000000000000000000000000000000000000000000000000000 DUP2 MSTORE PUSH1 0x4 ADD PUSH2 0x5AE SWAP1 PUSH2 0xF58 JUMP JUMPDEST PUSH1 0x40 MLOAD DUP1 SWAP2 SUB SWAP1 REVERT JUMPDEST PUSH2 0x5F6 DUP3 PUSH1 0x40 MLOAD DUP1 PUSH1 0x40 ADD PUSH1 0x40 MSTORE DUP1 PUSH1 0x14 DUP2 MSTORE PUSH1 0x20 ADD PUSH32 0x4D696E7420746F207A65726F2061646472657373000000000000000000000000 DUP2 MSTORE POP PUSH2 0xB72 JUMP JUMPDEST DUP1 PUSH1 0x2 PUSH0 DUP3 DUP3 SLOAD PUSH2 0x607 SWAP2 SWAP1 PUSH2 0xECB JUMP JUMPDEST SWAP3 POP POP DUP2 SWAP1 SSTORE POP DUP1 PUSH1 0x3 PUSH0 DUP5 PUSH20 0xFFFFFFFFFFFFFFFFFFFFFFFFFFFFFFFFFFFFFFFF AND PUSH20 0xFFFFFFFFFFFFFFFFFFFFFFFFFFFFFFFFFFFFFFFF AND DUP2 MSTORE PUSH1 0x20 ADD SWAP1 DUP2 MSTORE PUSH1 0x20 ADD PUSH0 KECCAK256 PUSH0 DUP3 DUP3 SLOAD PUSH2 0x65A SWAP2 SWAP1 PUSH2 0xECB JUMP JUMPDEST SWAP3 POP POP DUP2 SWAP1 SSTORE POP DUP2 PUSH20 0xFFFFFFFFFFFFFFFFFFFFFFFFFFFFFFFFFFFFFFFF AND PUSH0 PUSH20 0xFFFFFFFFFFFFFFFFFFFFFFFFFFFFFFFFFFFFFFFF AND PUSH32 0xDDF252AD1BE2C89B69C2B068FC378DAA952BA7F163C4A11628F55A4DF523B3EF DUP4 PUSH1 0x40 MLOAD PUSH2 0x6BE SWAP2 SWAP1 PUSH2 0xDEC JUMP JUMPDEST PUSH1 0x40 MLOAD DUP1 SWAP2 SUB SWAP1 LOG3 POP POP JUMP JUMPDEST PUSH2 0x747 PUSH1 0x3 PUSH0 CALLER PUSH20 0xFFFFFFFFFFFFFFFFFFFFFFFFFFFFFFFFFFFFFFFF AND PUSH20 0xFFFFFFFFFFFFFFFFFFFFFFFFFFFFFFFFFFFFFFFF AND DUP2 MSTORE PUSH1 0x20 ADD SWAP1 DUP2 MSTORE PUSH1 0x20 ADD PUSH0 KECCAK256 SLOAD DUP3 PUSH1 0x40 MLOAD DUP1 PUSH1 0x40 ADD PUSH1 0x40 MSTORE DUP1 PUSH1 0x19 DUP2 MSTORE PUSH1 0x20 ADD PUSH32 0x496E73756666696369656E74206275726E2062616C616E636500000000000000 DUP2 MSTORE POP PUSH2 0xBE9 JUMP JUMPDEST DUP1 PUSH1 0x2 PUSH0 DUP3 DUP3 SLOAD PUSH2 0x758 SWAP2 SWAP1 PUSH2 0xE98 JUMP JUMPDEST SWAP3 POP POP DUP2 SWAP1 SSTORE POP DUP1 PUSH1 0x3 PUSH0 CALLER PUSH20 0xFFFFFFFFFFFFFFFFFFFFFFFFFFFFFFFFFFFFFFFF AND PUSH20 0xFFFFFFFFFFFFFFFFFFFFFFFFFFFFFFFFFFFFFFFF AND DUP2 MSTORE PUSH1 0x20 ADD SWAP1 DUP2 MSTORE PUSH1 0x20 ADD PUSH0 KECCAK256 PUSH0 DUP3 DUP3 SLOAD PUSH2 0x7AB SWAP2 SWAP1 PUSH2 0xE98 JUMP JUMPDEST SWAP3 POP POP DUP2 SWAP1 SSTORE POP PUSH0 PUSH20 0xFFFFFFFFFFFFFFFFFFFFFFFFFFFFFFFFFFFFFFFF AND CALLER PUSH20 0xFFFFFFFFFFFFFFFFFFFFFFFFFFFFFFFFFFFFFFFF AND PUSH32 0xDDF252AD1BE2C89B69C2B068FC378DAA952BA7F163C4A11628F55A4DF523B3EF DUP4 PUSH1 0x40 MLOAD PUSH2 0x80F SWAP2 SWAP1 PUSH2 0xDEC JUMP JUMPDEST PUSH1 0x40 MLOAD DUP1 SWAP2 SUB SWAP1 LOG3 POP JUMP JUMPDEST PUSH1 0x3 PUSH1 0x20 MSTORE DUP1 PUSH0 MSTORE PUSH1 0x40 PUSH0 KECCAK256 PUSH0 SWAP2 POP SWAP1 POP SLOAD DUP2 JUMP JUMPDEST PUSH0 PUSH2 0x86F DUP4 PUSH1 0x40 MLOAD DUP1 PUSH1 0x40 ADD PUSH1 0x40 MSTORE DUP1 PUSH1 0x14 DUP2 MSTORE PUSH1 0x20 ADD PUSH32 0x5370656E646572207A65726F2061646472657373000000000000000000000000 DUP2 MSTORE POP PUSH2 0xB72 JUMP JUMPDEST DUP2 PUSH1 0x4 PUSH0 CALLER PUSH20 0xFFFFFFFFFFFFFFFFFFFFFFFFFFFFFFFFFFFFFFFF AND PUSH20 0xFFFFFFFFFFFFFFFFFFFFFFFFFFFFFFFFFFFFFFFF AND DUP2 MSTORE PUSH1 0x20 ADD SWAP1 DUP2 MSTORE PUSH1 0x20 ADD PUSH0 KECCAK256 PUSH0 DUP6 PUSH20 0xFFFFFFFFFFFFFFFFFFFFFFFFFFFFFFFFFFFFFFFF AND PUSH20 0xFFFFFFFFFFFFFFFFFFFFFFFFFFFFFFFFFFFFFFFF AND DUP2 MSTORE PUSH1 0x20 ADD SWAP1 DUP2 MSTORE PUSH1 0x20 ADD PUSH0 KECCAK256 DUP2 SWAP1 SSTORE POP DUP3 PUSH20 0xFFFFFFFFFFFFFFFFFFFFFFFFFFFFFFFFFFFFFFFF AND CALLER PUSH20 0xFFFFFFFFFFFFFFFFFFFFFFFFFFFFFFFFFFFFFFFF AND PUSH32 0x8C5BE1E5EBEC7D5BD14F71427D1E84F3DD0314C0F7B2291E5B200AC8C7C3B925 DUP5 PUSH1 0x40 MLOAD PUSH2 0x949 SWAP2 SWAP1 PUSH2 0xDEC JUMP JUMPDEST PUSH1 0x40 MLOAD DUP1 SWAP2 SUB SWAP1 LOG3 PUSH1 0x1 SWAP1 POP SWAP3 SWAP2 POP POP JUMP JUMPDEST PUSH1 0x5 PUSH0 SWAP1 SLOAD SWAP1 PUSH2 0x100 EXP SWAP1 DIV PUSH20 0xFFFFFFFFFFFFFFFFFFFFFFFFFFFFFFFFFFFFFFFF AND DUP2 JUMP JUMPDEST PUSH0 PUSH2 0x9C0 DUP4 PUSH1 0x40 MLOAD DUP1 PUSH1 0x40 ADD PUSH1 0x40 MSTORE DUP1 PUSH1 0xF DUP2 MSTORE PUSH1 0x20 ADD PUSH32 0x544F207A65726F20616464726573730000000000000000000000000000000000 DUP2 MSTORE POP PUSH2 0xB72 JUMP JUMPDEST PUSH2 0xA3D PUSH1 0x3 PUSH0 CALLER PUSH20 0xFFFFFFFFFFFFFFFFFFFFFFFFFFFFFFFFFFFFFFFF AND PUSH20 0xFFFFFFFFFFFFFFFFFFFFFFFFFFFFFFFFFFFFFFFF AND DUP2 MSTORE PUSH1 0x20 ADD SWAP1 DUP2 MSTORE PUSH1 0x20 ADD PUSH0 KECCAK256 SLOAD DUP4 PUSH1 0x40 MLOAD DUP1 PUSH1 0x40 ADD PUSH1 0x40 MSTORE DUP1 PUSH1 0x14 DUP2 MSTORE PUSH1 0x20 ADD PUSH32 0x496E73756666696369656E742062616C616E6365000000000000000000000000 DUP2 MSTORE POP PUSH2 0xBE9 JUMP JUMPDEST DUP2 PUSH1 0x3 PUSH0 CALLER PUSH20 0xFFFFFFFFFFFFFFFFFFFFFFFFFFFFFFFFFFFFFFFF AND PUSH20 0xFFFFFFFFFFFFFFFFFFFFFFFFFFFFFFFFFFFFFFFF AND DUP2 MSTORE PUSH1 0x20 ADD SWAP1 DUP2 MSTORE PUSH1 0x20 ADD PUSH0 KECCAK256 PUSH0 DUP3 DUP3 SLOAD PUSH2 0xA89 SWAP2 SWAP1 PUSH2 0xE98 JUMP JUMPDEST SWAP3 POP POP DUP2 SWAP1 SSTORE POP DUP2 PUSH1 0x3 PUSH0 DUP6 PUSH20 0xFFFFFFFFFFFFFFFFFFFFFFFFFFFFFFFFFFFFFFFF AND PUSH20 0xFFFFFFFFFFFFFFFFFFFFFFFFFFFFFFFFFFFFFFFF AND DUP2 MSTORE PUSH1 0x20 ADD SWAP1 DUP2 MSTORE PUSH1 0x20 ADD PUSH0 KECCAK256 PUSH0 DUP3 DUP3 SLOAD PUSH2 0xADC SWAP2 SWAP1 PUSH2 0xECB JUMP JUMPDEST SWAP3 POP POP DUP2 SWAP1 SSTORE POP DUP3 PUSH20 0xFFFFFFFFFFFFFFFFFFFFFFFFFFFFFFFFFFFFFFFF AND CALLER PUSH20 0xFFFFFFFFFFFFFFFFFFFFFFFFFFFFFFFFFFFFFFFF AND PUSH32 0xDDF252AD1BE2C89B69C2B068FC378DAA952BA7F163C4A11628F55A4DF523B3EF DUP5 PUSH1 0x40 MLOAD PUSH2 0xB40 SWAP2 SWAP1 PUSH2 0xDEC JUMP JUMPDEST PUSH1 0x40 MLOAD DUP1 SWAP2 SUB SWAP1 LOG3 PUSH1 0x1 SWAP1 POP SWAP3 SWAP2 POP POP JUMP JUMPDEST PUSH1 0x4 PUSH1 0x20 MSTORE DUP2 PUSH0 MSTORE PUSH1 0x40 PUSH0 KECCAK256 PUSH1 0x20 MSTORE DUP1 PUSH0 MSTORE PUSH1 0x40 PUSH0 KECCAK256 PUSH0 SWAP2 POP SWAP2 POP POP SLOAD DUP2 JUMP JUMPDEST PUSH0 PUSH20 0xFFFFFFFFFFFFFFFFFFFFFFFFFFFFFFFFFFFFFFFF AND DUP3 PUSH20 0xFFFFFFFFFFFFFFFFFFFFFFFFFFFFFFFFFFFFFFFF AND EQ ISZERO DUP2 SWAP1 PUSH2 0xBE4 JUMPI PUSH1 0x40 MLOAD PUSH32 0x8C379A000000000000000000000000000000000000000000000000000000000 DUP2 MSTORE PUSH1 0x4 ADD PUSH2 0xBDB SWAP2 SWAP1 PUSH2 0xFD6 JUMP JUMPDEST PUSH1 0x40 MLOAD DUP1 SWAP2 SUB SWAP1 REVERT JUMPDEST POP POP POP JUMP JUMPDEST DUP2 DUP4 LT ISZERO DUP2 SWAP1 PUSH2 0xC2F JUMPI PUSH1 0x40 MLOAD PUSH32 0x8C379A000000000000000000000000000000000000000000000000000000000 DUP2 MSTORE PUSH1 0x4 ADD PUSH2 0xC26 SWAP2 SWAP1 PUSH2 0xFD6 JUMP JUMPDEST PUSH1 0x40 MLOAD DUP1 SWAP2 SUB SWAP1 REVERT JUMPDEST POP POP POP POP JUMP JUMPDEST PUSH0 PUSH0 REVERT JUMPDEST PUSH0 PUSH20 0xFFFFFFFFFFFFFFFFFFFFFFFFFFFFFFFFFFFFFFFF DUP3 AND SWAP1 POP SWAP2 SWAP1 POP JUMP JUMPDEST PUSH0 PUSH2 0xC62 DUP3 PUSH2 0xC39 JUMP JUMPDEST SWAP1 POP SWAP2 SWAP1 POP JUMP JUMPDEST PUSH2 0xC72 DUP2 PUSH2 0xC58 JUMP JUMPDEST DUP2 EQ PUSH2 0xC7C JUMPI PUSH0 PUSH0 REVERT JUMPDEST POP JUMP JUMPDEST PUSH0 DUP2 CALLDATALOAD SWAP1 POP PUSH2 0xC8D DUP2 PUSH2 0xC69 JUMP JUMPDEST SWAP3 SWAP2 POP POP JUMP JUMPDEST PUSH0 DUP2 SWAP1 POP SWAP2 SWAP1 POP JUMP JUMPDEST PUSH2 0xCA5 DUP2 PUSH2 0xC93 JUMP JUMPDEST DUP2 EQ PUSH2 0xCAF JUMPI PUSH0 PUSH0 REVERT JUMPDEST POP JUMP JUMPDEST PUSH0 DUP2 CALLDATALOAD SWAP1 POP PUSH2 0xCC0 DUP2 PUSH2 0xC9C JUMP JUMPDEST SWAP3 SWAP2 POP POP JUMP JUMPDEST PUSH0 PUSH0 PUSH0 PUSH1 0x60 DUP5 DUP7 SUB SLT ISZERO PUSH2 0xCDD JUMPI PUSH2 0xCDC PUSH2 0xC35 JUMP JUMPDEST JUMPDEST PUSH0 PUSH2 0xCEA DUP7 DUP3 DUP8 ADD PUSH2 0xC7F JUMP JUMPDEST SWAP4 POP POP PUSH1 0x20 PUSH2 0xCFB DUP7 DUP3 DUP8 ADD PUSH2 0xC7F JUMP JUMPDEST SWAP3 POP POP PUSH1 0x40 PUSH2 0xD0C DUP7 DUP3 DUP8 ADD PUSH2 0xCB2 JUMP JUMPDEST SWAP2 POP POP SWAP3 POP SWAP3 POP SWAP3 JUMP JUMPDEST PUSH0 DUP2 ISZERO ISZERO SWAP1 POP SWAP2 SWAP1 POP JUMP JUMPDEST PUSH2 0xD2A DUP2 PUSH2 0xD16 JUMP JUMPDEST DUP3 MSTORE POP POP JUMP JUMPDEST PUSH0 PUSH1 0x20 DUP3 ADD SWAP1 POP PUSH2 0xD43 PUSH0 DUP4 ADD DUP5 PUSH2 0xD21 JUMP JUMPDEST SWAP3 SWAP2 POP POP JUMP JUMPDEST PUSH0 PUSH0 PUSH1 0x40 DUP4 DUP6 SUB SLT ISZERO PUSH2 0xD5F JUMPI PUSH2 0xD5E PUSH2 0xC35 JUMP JUMPDEST JUMPDEST PUSH0 PUSH2 0xD6C DUP6 DUP3 DUP7 ADD PUSH2 0xC7F JUMP JUMPDEST SWAP3 POP POP PUSH1 0x20 PUSH2 0xD7D DUP6 DUP3 DUP7 ADD PUSH2 0xCB2 JUMP JUMPDEST SWAP2 POP POP SWAP3 POP SWAP3 SWAP1 POP JUMP JUMPDEST PUSH0 PUSH1 0x20 DUP3 DUP5 SUB SLT ISZERO PUSH2 0xD9C JUMPI PUSH2 0xD9B PUSH2 0xC35 JUMP JUMPDEST JUMPDEST PUSH0 PUSH2 0xDA9 DUP5 DUP3 DUP6 ADD PUSH2 0xCB2 JUMP JUMPDEST SWAP2 POP POP SWAP3 SWAP2 POP POP JUMP JUMPDEST PUSH0 PUSH1 0x20 DUP3 DUP5 SUB SLT ISZERO PUSH2 0xDC7 JUMPI PUSH2 0xDC6 PUSH2 0xC35 JUMP JUMPDEST JUMPDEST PUSH0 PUSH2 0xDD4 DUP5 DUP3 DUP6 ADD PUSH2 0xC7F JUMP JUMPDEST SWAP2 POP POP SWAP3 SWAP2 POP POP JUMP JUMPDEST PUSH2 0xDE6 DUP2 PUSH2 0xC93 JUMP JUMPDEST DUP3 MSTORE POP POP JUMP JUMPDEST PUSH0 PUSH1 0x20 DUP3 ADD SWAP1 POP PUSH2 0xDFF PUSH0 DUP4 ADD DUP5 PUSH2 0xDDD JUMP JUMPDEST SWAP3 SWAP2 POP POP JUMP JUMPDEST PUSH2 0xE0E DUP2 PUSH2 0xC58 JUMP JUMPDEST DUP3 MSTORE POP POP JUMP JUMPDEST PUSH0 PUSH1 0x20 DUP3 ADD SWAP1 POP PUSH2 0xE27 PUSH0 DUP4 ADD DUP5 PUSH2 0xE05 JUMP JUMPDEST SWAP3 SWAP2 POP POP JUMP JUMPDEST PUSH0 PUSH0 PUSH1 0x40 DUP4 DUP6 SUB SLT ISZERO PUSH2 0xE43 JUMPI PUSH2 0xE42 PUSH2 0xC35 JUMP JUMPDEST JUMPDEST PUSH0 PUSH2 0xE50 DUP6 DUP3 DUP7 ADD PUSH2 0xC7F JUMP JUMPDEST SWAP3 POP POP PUSH1 0x20 PUSH2 0xE61 DUP6 DUP3 DUP7 ADD PUSH2 0xC7F JUMP JUMPDEST SWAP2 POP POP SWAP3 POP SWAP3 SWAP1 POP JUMP JUMPDEST PUSH32 0x4E487B7100000000000000000000000000000000000000000000000000000000 PUSH0 MSTORE PUSH1 0x11 PUSH1 0x4 MSTORE PUSH1 0x24 PUSH0 REVERT JUMPDEST PUSH0 PUSH2 0xEA2 DUP3 PUSH2 0xC93 JUMP JUMPDEST SWAP2 POP PUSH2 0xEAD DUP4 PUSH2 0xC93 JUMP JUMPDEST SWAP3 POP DUP3 DUP3 SUB SWAP1 POP DUP2 DUP2 GT ISZERO PUSH2 0xEC5 JUMPI PUSH2 0xEC4 PUSH2 0xE6B JUMP JUMPDEST JUMPDEST SWAP3 SWAP2 POP POP JUMP JUMPDEST PUSH0 PUSH2 0xED5 DUP3 PUSH2 0xC93 JUMP JUMPDEST SWAP2 POP PUSH2 0xEE0 DUP4 PUSH2 0xC93 JUMP JUMPDEST SWAP3 POP DUP3 DUP3 ADD SWAP1 POP DUP1 DUP3 GT ISZERO PUSH2 0xEF8 JUMPI PUSH2 0xEF7 PUSH2 0xE6B JUMP JUMPDEST JUMPDEST SWAP3 SWAP2 POP POP JUMP JUMPDEST PUSH0 DUP3 DUP3 MSTORE PUSH1 0x20 DUP3 ADD SWAP1 POP SWAP3 SWAP2 POP POP JUMP JUMPDEST PUSH32 0x4F6E6C79206F776E65722063616E2063616C6C20746869730000000000000000 PUSH0 DUP3 ADD MSTORE POP JUMP JUMPDEST PUSH0 PUSH2 0xF42 PUSH1 0x18 DUP4 PUSH2 0xEFE JUMP JUMPDEST SWAP2 POP PUSH2 0xF4D DUP3 PUSH2 0xF0E JUMP JUMPDEST PUSH1 0x20 DUP3 ADD SWAP1 POP SWAP2 SWAP1 POP JUMP JUMPDEST PUSH0 PUSH1 0x20 DUP3 ADD SWAP1 POP DUP2 DUP2 SUB PUSH0 DUP4 ADD MSTORE PUSH2 0xF6F DUP2 PUSH2 0xF36 JUMP JUMPDEST SWAP1 POP SWAP2 SWAP1 POP JUMP JUMPDEST PUSH0 DUP2 MLOAD SWAP1 POP SWAP2 SWAP1 POP JUMP JUMPDEST DUP3 DUP2 DUP4 MCOPY PUSH0 DUP4 DUP4 ADD MSTORE POP POP POP JUMP JUMPDEST PUSH0 PUSH1 0x1F NOT PUSH1 0x1F DUP4 ADD AND SWAP1 POP SWAP2 SWAP1 POP JUMP JUMPDEST PUSH0 PUSH2 0xFA8 DUP3 PUSH2 0xF76 JUMP JUMPDEST PUSH2 0xFB2 DUP2 DUP6 PUSH2 0xEFE JUMP JUMPDEST SWAP4 POP PUSH2 0xFC2 DUP2 DUP6 PUSH1 0x20 DUP7 ADD PUSH2 0xF80 JUMP JUMPDEST PUSH2 0xFCB DUP2 PUSH2 0xF8E JUMP JUMPDEST DUP5 ADD SWAP2 POP POP SWAP3 SWAP2 POP POP JUMP JUMPDEST PUSH0 PUSH1 0x20 DUP3 ADD SWAP1 POP DUP2 DUP2 SUB PUSH0 DUP4 ADD MSTORE PUSH2 0xFEE DUP2 DUP5 PUSH2 0xF9E JUMP JUMPDEST SWAP1 POP SWAP3 SWAP2 POP POP JUMP INVALID LOG2 PUSH5 0x6970667358 0x22 SLT KECCAK256 RETURN 0x1F PUSH11 0xFC416C5FBE818D2BD6A2D9 LOG3 PUSH15 0xFC187475A7FBCC5316BF7B230A910B PUSH26 0x64736F6C634300081E0033000000000000000000000000000000 "
				},
				"gasEstimates": {
					"creation": {
						"codeDepositCost": "828000",
						"executionCost": "infinite",
						"totalCost": "infinite"
					},
					"external": {
						"allowance(address,address)": "infinite",
						"approval(address,uint256)": "infinite",
						"balanceOf(address)": "2869",
						"burn(uint256)": "infinite",
						"mint(address,uint256)": "infinite",
						"owner()": "2530",
						"transfer(address,uint256)": "infinite",
						"transferFrom(address,address,uint256)": "infinite"
					},
					"internal": {
						"checkAddress(address,string memory)": "infinite",
						"checkBalance(uint256,uint256,string memory)": "infinite"
					}
				},
				"methodIdentifiers": {
					"allowance(address,address)": "dd62ed3e",
					"approval(address,uint256)": "75247a58",
					"balanceOf(address)": "70a08231",
					"burn(uint256)": "42966c68",
					"mint(address,uint256)": "40c10f19",
					"owner()": "8da5cb5b",
					"transfer(address,uint256)": "a9059cbb",
					"transferFrom(address,address,uint256)": "23b872dd"
				}
			},
			"storageLayout": {
				"storage": [
					{
						"astId": 4,
						"contract": "task/task2/TokenERC20.sol:TokenERC20",
						"label": "name",
						"offset": 0,
						"slot": "0",
						"type": "t_string_storage"
					},
					{
						"astId": 7,
						"contract": "task/task2/TokenERC20.sol:TokenERC20",
						"label": "symbol",
						"offset": 0,
						"slot": "1",
						"type": "t_string_storage"
					},
					{
						"astId": 12,
						"contract": "task/task2/TokenERC20.sol:TokenERC20",
						"label": "totalSupply",
						"offset": 0,
						"slot": "2",
						"type": "t_uint256"
					},
					{
						"astId": 16,
						"contract": "task/task2/TokenERC20.sol:TokenERC20",
						"label": "balanceOf",
						"offset": 0,
						"slot": "3",
						"type": "t_mapping(t_address,t_uint256)"
					},
					{
						"astId": 22,
						"contract": "task/task2/TokenERC20.sol:TokenERC20",
						"label": "allowance",
						"offset": 0,
						"slot": "4",
						"type": "t_mapping(t_address,t_mapping(t_address,t_uint256))"
					},
					{
						"astId": 24,
						"contract": "task/task2/TokenERC20.sol:TokenERC20",
						"label": "owner",
						"offset": 0,
						"slot": "5",
						"type": "t_address"
					}
				],
				"types": {
					"t_address": {
						"encoding": "inplace",
						"label": "address",
						"numberOfBytes": "20"
					},
					"t_mapping(t_address,t_mapping(t_address,t_uint256))": {
						"encoding": "mapping",
						"key": "t_address",
						"label": "mapping(address => mapping(address => uint256))",
						"numberOfBytes": "32",
						"value": "t_mapping(t_address,t_uint256)"
					},
					"t_mapping(t_address,t_uint256)": {
						"encoding": "mapping",
						"key": "t_address",
						"label": "mapping(address => uint256)",
						"numberOfBytes": "32",
						"value": "t_uint256"
					},
					"t_string_storage": {
						"encoding": "bytes",
						"label": "string",
						"numberOfBytes": "32"
					},
					"t_uint256": {
						"encoding": "inplace",
						"label": "uint256",
						"numberOfBytes": "32"
					}
				}
			},
			"userdoc": {
				"kind": "user",
				"methods": {},
				"version": 1
			}
		}
	}
}