{
	"data": {
		"bytecode": {
			"linkReferences": {},
			"object": "6080604052348015600e575f5ffd5b50610c148061001c5f395ff3fe608060405234801561000f575f5ffd5b5060043610610091575f3560e01c80638d67799e116100645780638d67799e1461011c578063a214547f1461013a578063a6158fdb1461016a578063e990b43d14610186578063f0ba8440146101b757610091565b80632bd1a184146100955780633b3c4ec5146100c65780633e275690146100e257806353ed5143146100fe575b5f5ffd5b6100af60048036038101906100aa919061073b565b6101e7565b6040516100bd92919061078f565b60405180910390f35b6100e060048036038101906100db919061073b565b61028c565b005b6100fc60048036038101906100f7919061073b565b610380565b005b6101066103f0565b604051610113919061086d565b60405180910390f35b610124610445565b604051610131919061088d565b60405180910390f35b610154600480360381019061014f91906108a6565b61044a565b604051610161919061088d565b60405180910390f35b610184600480360381019061017f919061073b565b610562565b005b6101a0600480360381019061019b919061073b565b61067d565b6040516101ae92919061078f565b60405180910390f35b6101d160048036038101906101cc919061073b565b6106e5565b6040516101de919061088d565b60405180910390f35b5f5f5f5f90505f60015f805490506101ff9190610911565b90505b80821161027e575f6002826102179190610971565b8361022291906109a1565b90505f5f8281548110610238576102376109d4565b5b905f5260205f200154905086810361025a576001829550955050505050610287565b8681101561026a57819350610277565b86811115610276578192505b5b5050610202565b5f5f9350935050505b915091565b5f5f8054905090505f81036102a1575061037d565b600181036102ce575f8054806102ba576102b9610a01565b5b600190038181905f5260205f20015f905590555b808210610310576040517f08c379a000000000000000000000000000000000000000000000000000000000815260040161030790610a88565b60405180910390fd5b5f60018261031e9190610911565b8154811061032f5761032e6109d4565b5b905f5260205f2001545f838154811061034b5761034a6109d4565b5b905f5260205f2001819055505f80548061036857610367610a01565b5b600190038181905f5260205f20015f90559055505b50565b60645f8054905011156103c8576040517f08c379a00000000000000000000000000000000000000000000000000000000081526004016103bf90610af0565b60405180910390fd5b5f81908060018154018082558091505060019003905f5260205f20015f909190919091505550565b60605f80548060200260200160405190810160405280929190818152602001828054801561043b57602002820191905f5260205f20905b815481526020019060010190808311610427575b5050505050905090565b606481565b5f5f5f805490509050808410801561046157508083105b6104a0576040517f08c379a000000000000000000000000000000000000000000000000000000000815260040161049790610b58565b60405180910390fd5b828411156104e3576040517f08c379a00000000000000000000000000000000000000000000000000000000081526004016104da90610bc0565b60405180910390fd5b82840361050e575f84815481106104fd576104fc6109d4565b5b905f5260205f20015491505061055c565b5f5f90505f8590505b84811015610555575f8181548110610532576105316109d4565b5b905f5260205f2001548261054691906109a1565b91508080600101915050610517565b5080925050505b92915050565b5f5f8054905090505f8103610577575061067a565b600181036105a4575f8054806105905761058f610a01565b5b600190038181905f5260205f20015f905590555b8082106105e6576040517f08c379a00000000000000000000000000000000000000000000000000000000081526004016105dd90610a88565b60405180910390fd5b5f8290505b6001826105f89190610911565b811015610653575f60018261060d91906109a1565b8154811061061e5761061d6109d4565b5b905f5260205f2001545f828154811061063a576106396109d4565b5b905f5260205f20018190555080806001019150506105eb565b505f80548061066557610664610a01565b5b600190038181905f5260205f20015f90559055505b50565b5f5f5f5f8054905090505f5f90505b818110156106d7575f5f82815481106106a8576106a76109d4565b5b905f5260205f20015490508581036106c957600182945094505050506106e0565b50808060010191505061068c565b505f5f92509250505b915091565b5f81815481106106f3575f80fd5b905f5260205f20015f915090505481565b5f5ffd5b5f819050919050565b61071a81610708565b8114610724575f5ffd5b50565b5f8135905061073581610711565b92915050565b5f602082840312156107505761074f610704565b5b5f61075d84828501610727565b91505092915050565b5f8115159050919050565b61077a81610766565b82525050565b61078981610708565b82525050565b5f6040820190506107a25f830185610771565b6107af6020830184610780565b9392505050565b5f81519050919050565b5f82825260208201905092915050565b5f819050602082019050919050565b6107e881610708565b82525050565b5f6107f983836107df565b60208301905092915050565b5f602082019050919050565b5f61081b826107b6565b61082581856107c0565b9350610830836107d0565b805f5b8381101561086057815161084788826107ee565b975061085283610805565b925050600181019050610833565b5085935050505092915050565b5f6020820190508181035f8301526108858184610811565b905092915050565b5f6020820190506108a05f830184610780565b92915050565b5f5f604083850312156108bc576108bb610704565b5b5f6108c985828601610727565b92505060206108da85828601610727565b9150509250929050565b7f4e487b71000000000000000000000000000000000000000000000000000000005f52601160045260245ffd5b5f61091b82610708565b915061092683610708565b925082820390508181111561093e5761093d6108e4565b5b92915050565b7f4e487b71000000000000000000000000000000000000000000000000000000005f52601260045260245ffd5b5f61097b82610708565b915061098683610708565b92508261099657610995610944565b5b828204905092915050565b5f6109ab82610708565b91506109b683610708565b92508282019050808211156109ce576109cd6108e4565b5b92915050565b7f4e487b71000000000000000000000000000000000000000000000000000000005f52603260045260245ffd5b7f4e487b71000000000000000000000000000000000000000000000000000000005f52603160045260245ffd5b5f82825260208201905092915050565b7f696e646578206973206f7574206172726179206c6567746800000000000000005f82015250565b5f610a72601883610a2e565b9150610a7d82610a3e565b602082019050919050565b5f6020820190508181035f830152610a9f81610a66565b9050919050565b7f61727261792069732066756c6c000000000000000000000000000000000000005f82015250565b5f610ada600d83610a2e565b9150610ae582610aa6565b602082019050919050565b5f6020820190508181035f830152610b0781610ace565b9050919050565b7f657863656564206172726179206c656e677468000000000000000000000000005f82015250565b5f610b42601383610a2e565b9150610b4d82610b0e565b602082019050919050565b5f6020820190508181035f830152610b6f81610b36565b9050919050565b7f737461727420616e6420656e642076616c7565206572726f72000000000000005f82015250565b5f610baa601983610a2e565b9150610bb582610b76565b602082019050919050565b5f6020820190508181035f830152610bd781610b9e565b905091905056fea26469706673582212200ea5ab5ab0e5f5341b5f00735f203140ef62d8bb60a7f5455fe5c78ba2b1810864736f6c634300081e0033",
			"opcodes": "PUSH1 0x80 PUSH1 0x40 MSTORE CALLVALUE DUP1 ISZERO PUSH1 0xE JUMPI PUSH0 PUSH0 REVERT JUMPDEST POP PUSH2 0xC14 DUP1 PUSH2 0x1C PUSH0 CODECOPY PUSH0 RETURN INVALID PUSH1 0x80 PUSH1 0x40 MSTORE CALLVALUE DUP1 ISZERO PUSH2 0xF JUMPI PUSH0 PUSH0 REVERT JUMPDEST POP PUSH1 0x4 CALLDATASIZE LT PUSH2 0x91 JUMPI PUSH0 CALLDATALOAD PUSH1 0xE0 SHR DUP1 PUSH4 0x8D67799E GT PUSH2 0x64 JUMPI DUP1 PUSH4 0x8D67799E EQ PUSH2 0x11C JUMPI DUP1 PUSH4 0xA214547F EQ PUSH2 0x13A JUMPI DUP1 PUSH4 0xA6158FDB EQ PUSH2 0x16A JUMPI DUP1 PUSH4 0xE990B43D EQ PUSH2 0x186 JUMPI DUP1 PUSH4 0xF0BA8440 EQ PUSH2 0x1B7 JUMPI PUSH2 0x91 JUMP JUMPDEST DUP1 PUSH4 0x2BD1A184 EQ PUSH2 0x95 JUMPI DUP1 PUSH4 0x3B3C4EC5 EQ PUSH2 0xC6 JUMPI DUP1 PUSH4 0x3E275690 EQ PUSH2 0xE2 JUMPI DUP1 PUSH4 0x53ED5143 EQ PUSH2 0xFE JUMPI JUMPDEST PUSH0 PUSH0 REVERT JUMPDEST PUSH2 0xAF PUSH1 0x4 DUP1 CALLDATASIZE SUB DUP2 ADD SWAP1 PUSH2 0xAA SWAP2 SWAP1 PUSH2 0x73B JUMP JUMPDEST PUSH2 0x1E7 JUMP JUMPDEST PUSH1 0x40 MLOAD PUSH2 0xBD SWAP3 SWAP2 SWAP1 PUSH2 0x78F JUMP JUMPDEST PUSH1 0x40 MLOAD DUP1 SWAP2 SUB SWAP1 RETURN JUMPDEST PUSH2 0xE0 PUSH1 0x4 DUP1 CALLDATASIZE SUB DUP2 ADD SWAP1 PUSH2 0xDB SWAP2 SWAP1 PUSH2 0x73B JUMP JUMPDEST PUSH2 0x28C JUMP JUMPDEST STOP JUMPDEST PUSH2 0xFC PUSH1 0x4 DUP1 CALLDATASIZE SUB DUP2 ADD SWAP1 PUSH2 0xF7 SWAP2 SWAP1 PUSH2 0x73B JUMP JUMPDEST PUSH2 0x380 JUMP JUMPDEST STOP JUMPDEST PUSH2 0x106 PUSH2 0x3F0 JUMP JUMPDEST PUSH1 0x40 MLOAD PUSH2 0x113 SWAP2 SWAP1 PUSH2 0x86D JUMP JUMPDEST PUSH1 0x40 MLOAD DUP1 SWAP2 SUB SWAP1 RETURN JUMPDEST PUSH2 0x124 PUSH2 0x445 JUMP JUMPDEST PUSH1 0x40 MLOAD PUSH2 0x131 SWAP2 SWAP1 PUSH2 0x88D JUMP JUMPDEST PUSH1 0x40 MLOAD DUP1 SWAP2 SUB SWAP1 RETURN JUMPDEST PUSH2 0x154 PUSH1 0x4 DUP1 CALLDATASIZE SUB DUP2 ADD SWAP1 PUSH2 0x14F SWAP2 SWAP1 PUSH2 0x8A6 JUMP JUMPDEST PUSH2 0x44A JUMP JUMPDEST PUSH1 0x40 MLOAD PUSH2 0x161 SWAP2 SWAP1 PUSH2 0x88D JUMP JUMPDEST PUSH1 0x40 MLOAD DUP1 SWAP2 SUB SWAP1 RETURN JUMPDEST PUSH2 0x184 PUSH1 0x4 DUP1 CALLDATASIZE SUB DUP2 ADD SWAP1 PUSH2 0x17F SWAP2 SWAP1 PUSH2 0x73B JUMP JUMPDEST PUSH2 0x562 JUMP JUMPDEST STOP JUMPDEST PUSH2 0x1A0 PUSH1 0x4 DUP1 CALLDATASIZE SUB DUP2 ADD SWAP1 PUSH2 0x19B SWAP2 SWAP1 PUSH2 0x73B JUMP JUMPDEST PUSH2 0x67D JUMP JUMPDEST PUSH1 0x40 MLOAD PUSH2 0x1AE SWAP3 SWAP2 SWAP1 PUSH2 0x78F JUMP JUMPDEST PUSH1 0x40 MLOAD DUP1 SWAP2 SUB SWAP1 RETURN JUMPDEST PUSH2 0x1D1 PUSH1 0x4 DUP1 CALLDATASIZE SUB DUP2 ADD SWAP1 PUSH2 0x1CC SWAP2 SWAP1 PUSH2 0x73B JUMP JUMPDEST PUSH2 0x6E5 JUMP JUMPDEST PUSH1 0x40 MLOAD PUSH2 0x1DE SWAP2 SWAP1 PUSH2 0x88D JUMP JUMPDEST PUSH1 0x40 MLOAD DUP1 SWAP2 SUB SWAP1 RETURN JUMPDEST PUSH0 PUSH0 PUSH0 PUSH0 SWAP1 POP PUSH0 PUSH1 0x1 PUSH0 DUP1 SLOAD SWAP1 POP PUSH2 0x1FF SWAP2 SWAP1 PUSH2 0x911 JUMP JUMPDEST SWAP1 POP JUMPDEST DUP1 DUP3 GT PUSH2 0x27E JUMPI PUSH0 PUSH1 0x2 DUP3 PUSH2 0x217 SWAP2 SWAP1 PUSH2 0x971 JUMP JUMPDEST DUP4 PUSH2 0x222 SWAP2 SWAP1 PUSH2 0x9A1 JUMP JUMPDEST SWAP1 POP PUSH0 PUSH0 DUP3 DUP2 SLOAD DUP2 LT PUSH2 0x238 JUMPI PUSH2 0x237 PUSH2 0x9D4 JUMP JUMPDEST JUMPDEST SWAP1 PUSH0 MSTORE PUSH1 0x20 PUSH0 KECCAK256 ADD SLOAD SWAP1 POP DUP7 DUP2 SUB PUSH2 0x25A JUMPI PUSH1 0x1 DUP3 SWAP6 POP SWAP6 POP POP POP POP POP PUSH2 0x287 JUMP JUMPDEST DUP7 DUP2 LT ISZERO PUSH2 0x26A JUMPI DUP2 SWAP4 POP PUSH2 0x277 JUMP JUMPDEST DUP7 DUP2 GT ISZERO PUSH2 0x276 JUMPI DUP2 SWAP3 POP JUMPDEST JUMPDEST POP POP PUSH2 0x202 JUMP JUMPDEST PUSH0 PUSH0 SWAP4 POP SWAP4 POP POP POP JUMPDEST SWAP2 POP SWAP2 JUMP JUMPDEST PUSH0 PUSH0 DUP1 SLOAD SWAP1 POP SWAP1 POP PUSH0 DUP2 SUB PUSH2 0x2A1 JUMPI POP PUSH2 0x37D JUMP JUMPDEST PUSH1 0x1 DUP2 SUB PUSH2 0x2CE JUMPI PUSH0 DUP1 SLOAD DUP1 PUSH2 0x2BA JUMPI PUSH2 0x2B9 PUSH2 0xA01 JUMP JUMPDEST JUMPDEST PUSH1 0x1 SWAP1 SUB DUP2 DUP2 SWAP1 PUSH0 MSTORE PUSH1 0x20 PUSH0 KECCAK256 ADD PUSH0 SWAP1 SSTORE SWAP1 SSTORE JUMPDEST DUP1 DUP3 LT PUSH2 0x310 JUMPI PUSH1 0x40 MLOAD PUSH32 0x8C379A000000000000000000000000000000000000000000000000000000000 DUP2 MSTORE PUSH1 0x4 ADD PUSH2 0x307 SWAP1 PUSH2 0xA88 JUMP JUMPDEST PUSH1 0x40 MLOAD DUP1 SWAP2 SUB SWAP1 REVERT JUMPDEST PUSH0 PUSH1 0x1 DUP3 PUSH2 0x31E SWAP2 SWAP1 PUSH2 0x911 JUMP JUMPDEST DUP2 SLOAD DUP2 LT PUSH2 0x32F JUMPI PUSH2 0x32E PUSH2 0x9D4 JUMP JUMPDEST JUMPDEST SWAP1 PUSH0 MSTORE PUSH1 0x20 PUSH0 KECCAK256 ADD SLOAD PUSH0 DUP4 DUP2 SLOAD DUP2 LT PUSH2 0x34B JUMPI PUSH2 0x34A PUSH2 0x9D4 JUMP JUMPDEST JUMPDEST SWAP1 PUSH0 MSTORE PUSH1 0x20 PUSH0 KECCAK256 ADD DUP2 SWAP1 SSTORE POP PUSH0 DUP1 SLOAD DUP1 PUSH2 0x368 JUMPI PUSH2 0x367 PUSH2 0xA01 JUMP JUMPDEST JUMPDEST PUSH1 0x1 SWAP1 SUB DUP2 DUP2 SWAP1 PUSH0 MSTORE PUSH1 0x20 PUSH0 KECCAK256 ADD PUSH0 SWAP1 SSTORE SWAP1 SSTORE POP JUMPDEST POP JUMP JUMPDEST PUSH1 0x64 PUSH0 DUP1 SLOAD SWAP1 POP GT ISZERO PUSH2 0x3C8 JUMPI PUSH1 0x40 MLOAD PUSH32 0x8C379A000000000000000000000000000000000000000000000000000000000 DUP2 MSTORE PUSH1 0x4 ADD PUSH2 0x3BF SWAP1 PUSH2 0xAF0 JUMP JUMPDEST PUSH1 0x40 MLOAD DUP1 SWAP2 SUB SWAP1 REVERT JUMPDEST PUSH0 DUP2 SWAP1 DUP1 PUSH1 0x1 DUP2 SLOAD ADD DUP1 DUP3 SSTORE DUP1 SWAP2 POP POP PUSH1 0x1 SWAP1 SUB SWAP1 PUSH0 MSTORE PUSH1 0x20 PUSH0 KECCAK256 ADD PUSH0 SWAP1 SWAP2 SWAP1 SWAP2 SWAP1 SWAP2 POP SSTORE POP JUMP JUMPDEST PUSH1 0x60 PUSH0 DUP1 SLOAD DUP1 PUSH1 0x20 MUL PUSH1 0x20 ADD PUSH1 0x40 MLOAD SWAP1 DUP2 ADD PUSH1 0x40 MSTORE DUP1 SWAP3 SWAP2 SWAP1 DUP2 DUP2 MSTORE PUSH1 0x20 ADD DUP3 DUP1 SLOAD DUP1 ISZERO PUSH2 0x43B JUMPI PUSH1 0x20 MUL DUP3 ADD SWAP2 SWAP1 PUSH0 MSTORE PUSH1 0x20 PUSH0 KECCAK256 SWAP1 JUMPDEST DUP2 SLOAD DUP2 MSTORE PUSH1 0x20 ADD SWAP1 PUSH1 0x1 ADD SWAP1 DUP1 DUP4 GT PUSH2 0x427 JUMPI JUMPDEST POP POP POP POP POP SWAP1 POP SWAP1 JUMP JUMPDEST PUSH1 0x64 DUP2 JUMP JUMPDEST PUSH0 PUSH0 PUSH0 DUP1 SLOAD SWAP1 POP SWAP1 POP DUP1 DUP5 LT DUP1 ISZERO PUSH2 0x461 JUMPI POP DUP1 DUP4 LT JUMPDEST PUSH2 0x4A0 JUMPI PUSH1 0x40 MLOAD PUSH32 0x8C379A000000000000000000000000000000000000000000000000000000000 DUP2 MSTORE PUSH1 0x4 ADD PUSH2 0x497 SWAP1 PUSH2 0xB58 JUMP JUMPDEST PUSH1 0x40 MLOAD DUP1 SWAP2 SUB SWAP1 REVERT JUMPDEST DUP3 DUP5 GT ISZERO PUSH2 0x4E3 JUMPI PUSH1 0x40 MLOAD PUSH32 0x8C379A000000000000000000000000000000000000000000000000000000000 DUP2 MSTORE PUSH1 0x4 ADD PUSH2 0x4DA SWAP1 PUSH2 0xBC0 JUMP JUMPDEST PUSH1 0x40 MLOAD DUP1 SWAP2 SUB SWAP1 REVERT JUMPDEST DUP3 DUP5 SUB PUSH2 0x50E JUMPI PUSH0 DUP5 DUP2 SLOAD DUP2 LT PUSH2 0x4FD JUMPI PUSH2 0x4FC PUSH2 0x9D4 JUMP JUMPDEST JUMPDEST SWAP1 PUSH0 MSTORE PUSH1 0x20 PUSH0 KECCAK256 ADD SLOAD SWAP2 POP POP PUSH2 0x55C JUMP JUMPDEST PUSH0 PUSH0 SWAP1 POP PUSH0 DUP6 SWAP1 POP JUMPDEST DUP5 DUP2 LT ISZERO PUSH2 0x555 JUMPI PUSH0 DUP2 DUP2 SLOAD DUP2 LT PUSH2 0x532 JUMPI PUSH2 0x531 PUSH2 0x9D4 JUMP JUMPDEST JUMPDEST SWAP1 PUSH0 MSTORE PUSH1 0x20 PUSH0 KECCAK256 ADD SLOAD DUP3 PUSH2 0x546 SWAP2 SWAP1 PUSH2 0x9A1 JUMP JUMPDEST SWAP2 POP DUP1 DUP1 PUSH1 0x1 ADD SWAP2 POP POP PUSH2 0x517 JUMP JUMPDEST POP DUP1 SWAP3 POP POP POP JUMPDEST SWAP3 SWAP2 POP POP JUMP JUMPDEST PUSH0 PUSH0 DUP1 SLOAD SWAP1 POP SWAP1 POP PUSH0 DUP2 SUB PUSH2 0x577 JUMPI POP PUSH2 0x67A JUMP JUMPDEST PUSH1 0x1 DUP2 SUB PUSH2 0x5A4 JUMPI PUSH0 DUP1 SLOAD DUP1 PUSH2 0x590 JUMPI PUSH2 0x58F PUSH2 0xA01 JUMP JUMPDEST JUMPDEST PUSH1 0x1 SWAP1 SUB DUP2 DUP2 SWAP1 PUSH0 MSTORE PUSH1 0x20 PUSH0 KECCAK256 ADD PUSH0 SWAP1 SSTORE SWAP1 SSTORE JUMPDEST DUP1 DUP3 LT PUSH2 0x5E6 JUMPI PUSH1 0x40 MLOAD PUSH32 0x8C379A000000000000000000000000000000000000000000000000000000000 DUP2 MSTORE PUSH1 0x4 ADD PUSH2 0x5DD SWAP1 PUSH2 0xA88 JUMP JUMPDEST PUSH1 0x40 MLOAD DUP1 SWAP2 SUB SWAP1 REVERT JUMPDEST PUSH0 DUP3 SWAP1 POP JUMPDEST PUSH1 0x1 DUP3 PUSH2 0x5F8 SWAP2 SWAP1 PUSH2 0x911 JUMP JUMPDEST DUP2 LT ISZERO PUSH2 0x653 JUMPI PUSH0 PUSH1 0x1 DUP3 PUSH2 0x60D SWAP2 SWAP1 PUSH2 0x9A1 JUMP JUMPDEST DUP2 SLOAD DUP2 LT PUSH2 0x61E JUMPI PUSH2 0x61D PUSH2 0x9D4 JUMP JUMPDEST JUMPDEST SWAP1 PUSH0 MSTORE PUSH1 0x20 PUSH0 KECCAK256 ADD SLOAD PUSH0 DUP3 DUP2 SLOAD DUP2 LT PUSH2 0x63A JUMPI PUSH2 0x639 PUSH2 0x9D4 JUMP JUMPDEST JUMPDEST SWAP1 PUSH0 MSTORE PUSH1 0x20 PUSH0 KECCAK256 ADD DUP2 SWAP1 SSTORE POP DUP1 DUP1 PUSH1 0x1 ADD SWAP2 POP POP PUSH2 0x5EB JUMP JUMPDEST POP PUSH0 DUP1 SLOAD DUP1 PUSH2 0x665 JUMPI PUSH2 0x664 PUSH2 0xA01 JUMP JUMPDEST JUMPDEST PUSH1 0x1 SWAP1 SUB DUP2 DUP2 SWAP1 PUSH0 MSTORE PUSH1 0x20 PUSH0 KECCAK256 ADD PUSH0 SWAP1 SSTORE SWAP1 SSTORE POP JUMPDEST POP JUMP JUMPDEST PUSH0 PUSH0 PUSH0 PUSH0 DUP1 SLOAD SWAP1 POP SWAP1 POP PUSH0 PUSH0 SWAP1 POP JUMPDEST DUP2 DUP2 LT ISZERO PUSH2 0x6D7 JUMPI PUSH0 PUSH0 DUP3 DUP2 SLOAD DUP2 LT PUSH2 0x6A8 JUMPI PUSH2 0x6A7 PUSH2 0x9D4 JUMP JUMPDEST JUMPDEST SWAP1 PUSH0 MSTORE PUSH1 0x20 PUSH0 KECCAK256 ADD SLOAD SWAP1 POP DUP6 DUP2 SUB PUSH2 0x6C9 JUMPI PUSH1 0x1 DUP3 SWAP5 POP SWAP5 POP POP POP POP PUSH2 0x6E0 JUMP JUMPDEST POP DUP1 DUP1 PUSH1 0x1 ADD SWAP2 POP POP PUSH2 0x68C JUMP JUMPDEST POP PUSH0 PUSH0 SWAP3 POP SWAP3 POP POP JUMPDEST SWAP2 POP SWAP2 JUMP JUMPDEST PUSH0 DUP2 DUP2 SLOAD DUP2 LT PUSH2 0x6F3 JUMPI PUSH0 DUP1 REVERT JUMPDEST SWAP1 PUSH0 MSTORE PUSH1 0x20 PUSH0 KECCAK256 ADD PUSH0 SWAP2 POP SWAP1 POP SLOAD DUP2 JUMP JUMPDEST PUSH0 PUSH0 REVERT JUMPDEST PUSH0 DUP2 SWAP1 POP SWAP2 SWAP1 POP JUMP JUMPDEST PUSH2 0x71A DUP2 PUSH2 0x708 JUMP JUMPDEST DUP2 EQ PUSH2 0x724 JUMPI PUSH0 PUSH0 REVERT JUMPDEST POP JUMP JUMPDEST PUSH0 DUP2 CALLDATALOAD SWAP1 POP PUSH2 0x735 DUP2 PUSH2 0x711 JUMP JUMPDEST SWAP3 SWAP2 POP POP JUMP JUMPDEST PUSH0 PUSH1 0x20 DUP3 DUP5 SUB SLT ISZERO PUSH2 0x750 JUMPI PUSH2 0x74F PUSH2 0x704 JUMP JUMPDEST JUMPDEST PUSH0 PUSH2 0x75D DUP5 DUP3 DUP6 ADD PUSH2 0x727 JUMP JUMPDEST SWAP2 POP POP SWAP3 SWAP2 POP POP JUMP JUMPDEST PUSH0 DUP2 ISZERO ISZERO SWAP1 POP SWAP2 SWAP1 POP JUMP JUMPDEST PUSH2 0x77A DUP2 PUSH2 0x766 JUMP JUMPDEST DUP3 MSTORE POP POP JUMP JUMPDEST PUSH2 0x789 DUP2 PUSH2 0x708 JUMP JUMPDEST DUP3 MSTORE POP POP JUMP JUMPDEST PUSH0 PUSH1 0x40 DUP3 ADD SWAP1 POP PUSH2 0x7A2 PUSH0 DUP4 ADD DUP6 PUSH2 0x771 JUMP JUMPDEST PUSH2 0x7AF PUSH1 0x20 DUP4 ADD DUP5 PUSH2 0x780 JUMP JUMPDEST SWAP4 SWAP3 POP POP POP JUMP JUMPDEST PUSH0 DUP2 MLOAD SWAP1 POP SWAP2 SWAP1 POP JUMP JUMPDEST PUSH0 DUP3 DUP3 MSTORE PUSH1 0x20 DUP3 ADD SWAP1 POP SWAP3 SWAP2 POP POP JUMP JUMPDEST PUSH0 DUP2 SWAP1 POP PUSH1 0x20 DUP3 ADD SWAP1 POP SWAP2 SWAP1 POP JUMP JUMPDEST PUSH2 0x7E8 DUP2 PUSH2 0x708 JUMP JUMPDEST DUP3 MSTORE POP POP JUMP JUMPDEST PUSH0 PUSH2 0x7F9 DUP4 DUP4 PUSH2 0x7DF JUMP JUMPDEST PUSH1 0x20 DUP4 ADD SWAP1 POP SWAP3 SWAP2 POP POP JUMP JUMPDEST PUSH0 PUSH1 0x20 DUP3 ADD SWAP1 POP SWAP2 SWAP1 POP JUMP JUMPDEST PUSH0 PUSH2 0x81B DUP3 PUSH2 0x7B6 JUMP JUMPDEST PUSH2 0x825 DUP2 DUP6 PUSH2 0x7C0 JUMP JUMPDEST SWAP4 POP PUSH2 0x830 DUP4 PUSH2 0x7D0 JUMP JUMPDEST DUP1 PUSH0 JUMPDEST DUP4 DUP2 LT ISZERO PUSH2 0x860 JUMPI DUP2 MLOAD PUSH2 0x847 DUP9 DUP3 PUSH2 0x7EE JUMP JUMPDEST SWAP8 POP PUSH2 0x852 DUP4 PUSH2 0x805 JUMP JUMPDEST SWAP3 POP POP PUSH1 0x1 DUP2 ADD SWAP1 POP PUSH2 0x833 JUMP JUMPDEST POP DUP6 SWAP4 POP POP POP POP SWAP3 SWAP2 POP POP JUMP JUMPDEST PUSH0 PUSH1 0x20 DUP3 ADD SWAP1 POP DUP2 DUP2 SUB PUSH0 DUP4 ADD MSTORE PUSH2 0x885 DUP2 DUP5 PUSH2 0x811 JUMP JUMPDEST SWAP1 POP SWAP3 SWAP2 POP POP JUMP JUMPDEST PUSH0 PUSH1 0x20 DUP3 ADD SWAP1 POP PUSH2 0x8A0 PUSH0 DUP4 ADD DUP5 PUSH2 0x780 JUMP JUMPDEST SWAP3 SWAP2 POP POP JUMP JUMPDEST PUSH0 PUSH0 PUSH1 0x40 DUP4 DUP6 SUB SLT ISZERO PUSH2 0x8BC JUMPI PUSH2 0x8BB PUSH2 0x704 JUMP JUMPDEST JUMPDEST PUSH0 PUSH2 0x8C9 DUP6 DUP3 DUP7 ADD PUSH2 0x727 JUMP JUMPDEST SWAP3 POP POP PUSH1 0x20 PUSH2 0x8DA DUP6 DUP3 DUP7 ADD PUSH2 0x727 JUMP JUMPDEST SWAP2 POP POP SWAP3 POP SWAP3 SWAP1 POP JUMP JUMPDEST PUSH32 0x4E487B7100000000000000000000000000000000000000000000000000000000 PUSH0 MSTORE PUSH1 0x11 PUSH1 0x4 MSTORE PUSH1 0x24 PUSH0 REVERT JUMPDEST PUSH0 PUSH2 0x91B DUP3 PUSH2 0x708 JUMP JUMPDEST SWAP2 POP PUSH2 0x926 DUP4 PUSH2 0x708 JUMP JUMPDEST SWAP3 POP DUP3 DUP3 SUB SWAP1 POP DUP2 DUP2 GT ISZERO PUSH2 0x93E JUMPI PUSH2 0x93D PUSH2 0x8E4 JUMP JUMPDEST JUMPDEST SWAP3 SWAP2 POP POP JUMP JUMPDEST PUSH32 0x4E487B7100000000000000000000000000000000000000000000000000000000 PUSH0 MSTORE PUSH1 0x12 PUSH1 0x4 MSTORE PUSH1 0x24 PUSH0 REVERT JUMPDEST PUSH0 PUSH2 0x97B DUP3 PUSH2 0x708 JUMP JUMPDEST SWAP2 POP PUSH2 0x986 DUP4 PUSH2 0x708 JUMP JUMPDEST SWAP3 POP DUP3 PUSH2 0x996 JUMPI PUSH2 0x995 PUSH2 0x944 JUMP JUMPDEST JUMPDEST DUP3 DUP3 DIV SWAP1 POP SWAP3 SWAP2 POP POP JUMP JUMPDEST PUSH0 PUSH2 0x9AB DUP3 PUSH2 0x708 JUMP JUMPDEST SWAP2 POP PUSH2 0x9B6 DUP4 PUSH2 0x708 JUMP JUMPDEST SWAP3 POP DUP3 DUP3 ADD SWAP1 POP DUP1 DUP3 GT ISZERO PUSH2 0x9CE JUMPI PUSH2 0x9CD PUSH2 0x8E4 JUMP JUMPDEST JUMPDEST SWAP3 SWAP2 POP POP JUMP JUMPDEST PUSH32 0x4E487B7100000000000000000000000000000000000000000000000000000000 PUSH0 MSTORE PUSH1 0x32 PUSH1 0x4 MSTORE PUSH1 0x24 PUSH0 REVERT JUMPDEST PUSH32 0x4E487B7100000000000000000000000000000000000000000000000000000000 PUSH0 MSTORE PUSH1 0x31 PUSH1 0x4 MSTORE PUSH1 0x24 PUSH0 REVERT JUMPDEST PUSH0 DUP3 DUP3 MSTORE PUSH1 0x20 DUP3 ADD SWAP1 POP SWAP3 SWAP2 POP POP JUMP JUMPDEST PUSH32 0x696E646578206973206F7574206172726179206C656774680000000000000000 PUSH0 DUP3 ADD MSTORE POP JUMP JUMPDEST PUSH0 PUSH2 0xA72 PUSH1 0x18 DUP4 PUSH2 0xA2E JUMP JUMPDEST SWAP2 POP PUSH2 0xA7D DUP3 PUSH2 0xA3E JUMP JUMPDEST PUSH1 0x20 DUP3 ADD SWAP1 POP SWAP2 SWAP1 POP JUMP JUMPDEST PUSH0 PUSH1 0x20 DUP3 ADD SWAP1 POP DUP2 DUP2 SUB PUSH0 DUP4 ADD MSTORE PUSH2 0xA9F DUP2 PUSH2 0xA66 JUMP JUMPDEST SWAP1 POP SWAP2 SWAP1 POP JUMP JUMPDEST PUSH32 0x61727261792069732066756C6C00000000000000000000000000000000000000 PUSH0 DUP3 ADD MSTORE POP JUMP JUMPDEST PUSH0 PUSH2 0xADA PUSH1 0xD DUP4 PUSH2 0xA2E JUMP JUMPDEST SWAP2 POP PUSH2 0xAE5 DUP3 PUSH2 0xAA6 JUMP JUMPDEST PUSH1 0x20 DUP3 ADD SWAP1 POP SWAP2 SWAP1 POP JUMP JUMPDEST PUSH0 PUSH1 0x20 DUP3 ADD SWAP1 POP DUP2 DUP2 SUB PUSH0 DUP4 ADD MSTORE PUSH2 0xB07 DUP2 PUSH2 0xACE JUMP JUMPDEST SWAP1 POP SWAP2 SWAP1 POP JUMP JUMPDEST PUSH32 0x657863656564206172726179206C656E67746800000000000000000000000000 PUSH0 DUP3 ADD MSTORE POP JUMP JUMPDEST PUSH0 PUSH2 0xB42 PUSH1 0x13 DUP4 PUSH2 0xA2E JUMP JUMPDEST SWAP2 POP PUSH2 0xB4D DUP3 PUSH2 0xB0E JUMP JUMPDEST PUSH1 0x20 DUP3 ADD SWAP1 POP SWAP2 SWAP1 POP JUMP JUMPDEST PUSH0 PUSH1 0x20 DUP3 ADD SWAP1 POP DUP2 DUP2 SUB PUSH0 DUP4 ADD MSTORE PUSH2 0xB6F DUP2 PUSH2 0xB36 JUMP JUMPDEST SWAP1 POP SWAP2 SWAP1 POP JUMP JUMPDEST PUSH32 0x737461727420616E6420656E642076616C7565206572726F7200000000000000 PUSH0 DUP3 ADD MSTORE POP JUMP JUMPDEST PUSH0 PUSH2 0xBAA PUSH1 0x19 DUP4 PUSH2 0xA2E JUMP JUMPDEST SWAP2 POP PUSH2 0xBB5 DUP3 PUSH2 0xB76 JUMP JUMPDEST PUSH1 0x20 DUP3 ADD SWAP1 POP SWAP2 SWAP1 POP JUMP JUMPDEST PUSH0 PUSH1 0x20 DUP3 ADD SWAP1 POP DUP2 DUP2 SUB PUSH0 DUP4 ADD MSTORE PUSH2 0xBD7 DUP2 PUSH2 0xB9E JUMP JUMPDEST SWAP1 POP SWAP2 SWAP1 POP JUMP INVALID LOG2 PUSH5 0x6970667358 0x22 SLT KECCAK256 0xE 0xA5 0xAB GAS 0xB0 JUMPF 0xF534 SHL PUSH0 STOP PUSH20 0x5F203140EF62D8BB60A7F5455FE5C78BA2B18108 PUSH5 0x736F6C6343 STOP ADDMOD 0x1E STOP CALLER "
		},
		"gasEstimates": {
			"creation": {
				"codeDepositCost": "618400",
				"executionCost": "649",
				"totalCost": "619049"
			},
			"external": {
				"MAX_SIZE()": "325",
				"data(uint256)": "infinite",
				"findElement(uint256)": "infinite",
				"findElementV2(uint256)": "infinite",
				"getAll()": "infinite",
				"removeOrdered(uint256)": "infinite",
				"removeUnordered(uint256)": "infinite",
				"safePush(uint256)": "48998",
				"sumRange(uint256,uint256)": "infinite"
			}
		},
		"methodIdentifiers": {
			"MAX_SIZE()": "8d67799e",
			"data(uint256)": "f0ba8440",
			"findElement(uint256)": "e990b43d",
			"findElementV2(uint256)": "2bd1a184",
			"getAll()": "53ed5143",
			"removeOrdered(uint256)": "a6158fdb",
			"removeUnordered(uint256)": "3b3c4ec5",
			"safePush(uint256)": "3e275690",
			"sumRange(uint256,uint256)": "a214547f"
		}
	},
	"abi": [
		{
			"anonymous": false,
			"inputs": [
				{
					"indexed": false,
					"internalType": "uint256",
					"name": "value",
					"type": "uint256"
				},
				{
					"indexed": false,
					"internalType": "uint256",
					"name": "index",
					"type": "uint256"
				}
			],
			"name": "ElementAdded",
			"type": "event"
		},
		{
			"anonymous": false,
			"inputs": [
				{
					"indexed": false,
					"internalType": "uint256",
					"name": "index",
					"type": "uint256"
				},
				{
					"indexed": false,
					"internalType": "uint256",
					"name": "value",
					"type": "uint256"
				}
			],
			"name": "ElementRemoved",
			"type": "event"
		},
		{
			"inputs": [],
			"name": "MAX_SIZE",
			"outputs": [
				{
					"internalType": "uint256",
					"name": "",
					"type": "uint256"
				}
			],
			"stateMutability": "view",
			"type": "function"
		},
		{
			"inputs": [
				{
					"internalType": "uint256",
					"name": "",
					"type": "uint256"
				}
			],
			"name": "data",
			"outputs": [
				{
					"internalType": "uint256",
					"name": "",
					"type": "uint256"
				}
			],
			"stateMutability": "view",
			"type": "function"
		},
		{
			"inputs": [
				{
					"internalType": "uint256",
					"name": "value",
					"type": "uint256"
				}
			],
			"name": "findElement",
			"outputs": [
				{
					"internalType": "bool",
					"name": "",
					"type": "bool"
				},
				{
					"internalType": "uint256",
					"name": "",
					"type": "uint256"
				}
			],
			"stateMutability": "view",
			"type": "function"
		},
		{
			"inputs": [
				{
					"internalType": "uint256",
					"name": "value",
					"type": "uint256"
				}
			],
			"name": "findElementV2",
			"outputs": [
				{
					"internalType": "bool",
					"name": "",
					"type": "bool"
				},
				{
					"internalType": "uint256",
					"name": "",
					"type": "uint256"
				}
			],
			"stateMutability": "view",
			"type": "function"
		},
		{
			"inputs": [],
			"name": "getAll",
			"outputs": [
				{
					"internalType": "uint256[]",
					"name": "",
					"type": "uint256[]"
				}
			],
			"stateMutability": "view",
			"type": "function"
		},
		{
			"inputs": [
				{
					"internalType": "uint256",
					"name": "index",
					"type": "uint256"
				}
			],
			"name": "removeOrdered",
			"outputs": [],
			"stateMutability": "nonpayable",
			"type": "function"
		},
		{
			"inputs": [
				{
					"internalType": "uint256",
					"name": "index",
					"type": "uint256"
				}
			],
			"name": "removeUnordered",
			"outputs": [],
			"stateMutability": "nonpayable",
			"type": "function"
		},
		{
			"inputs": [
				{
					"internalType": "uint256",
					"name": "value",
					"type": "uint256"
				}
			],
			"name": "safePush",
			"outputs": [],
			"stateMutability": "nonpayable",
			"type": "function"
		},
		{
			"inputs": [
				{
					"internalType": "uint256",
					"name": "start",
					"type": "uint256"
				},
				{
					"internalType": "uint256",
					"name": "end",
					"type": "uint256"
				}
			],
			"name": "sumRange",
			"outputs": [
				{
					"internalType": "uint256",
					"name": "",
					"type": "uint256"
				}
			],
			"stateMutability": "view",
			"type": "function"
		}
	]
}